:100000000C9488000C94B0000C94B0000C94B000D8
:100010000C94B0000C94B0000C94B0000C946E03DF
:100020000C94B0000C94B0000C94B0000C94B00090
:100030000C94B0000C94B0000C94B0000C94B00080
:100040000C9424030C94B0000C94CD010C94A701E3
:100050000C94B0000C94B0000C94B0000C94B00060
:100060000C94B0000C94B000084AD73B3BCE016E14
:1000700084BCBFFDC12F3D6C74319ABD56833DDAFF
:100080003D00C77F11BED9E4BB4C3E916BAAAABE0E
:10009000000000803F05A84CCDB2D44EB93836A937
:1000A000020C50B9918688083CA6AAAA2ABE000074
:1000B00000803F0000000008000201000003040768
:1000C00000000000000000000000000024002700E5
:1000D0002A00000000002300260029000000000084
:1000E000250028002B000404040404040404020274
:1000F00002020202030303030303010204081020A7
:10010000408001020408102001020408102062153A
:1001100011241FBECFEFD8E0DEBFCDBF26E0A4E2A2
:10012000B1E001C01D92AE37B207E1F711E0A0E0E7
:10013000B1E0E6E2FCE302C005900D92A432B10703
:10014000D9F710E0C8E8D0E004C02197FE010E9472
:10015000061EC738D107C9F70E948D070C94111EDF
:100160000C940000FC01918D828D981761F0828DB6
:10017000DF01A80FB11D5D968C91928D9F5F9F73DB
:10018000928F90E008958FEF9FEF0895FC01918D7D
:10019000828D981731F0828DE80FF11D858D90E0EA
:1001A00008958FEF9FEF0895FC01918D228D892F87
:1001B00090E0805C9F4F821B91098F73992708956F
:1001C00085E391E00E94D40021E0892B09F420E02E
:1001D000822F0895FC01848DDF01A80FB11DA35A61
:1001E000BF4F2C91848D90E001968F739927848F57
:1001F000A689B7892C93A089B1898C9180648C934E
:10020000938D848D981306C00288F389E02D808138
:100210008F7D80830895EF92FF920F931F93CF936A
:10022000DF93EC0181E0888F9B8D8C8D981305C046
:10023000E889F989808185FD24C0F62E0B8D10E0B8
:100240000F5F1F4F0F731127E02E8C8DE8120CC02B
:100250000FB607FCFACFE889F989808185FFF5CFD1
:10026000CE010E94EA00F1CF8B8DFE01E80FF11D57
:10027000E35AFF4FF0820B8FEA89FB89808180620D
:1002800007C0EE89FF896083E889F98980818064ED
:10029000808381E090E0DF91CF911F910F91FF90DB
:1002A000EF900895CF93DF93EC01888D8823C9F0F8
:1002B000EA89FB89808185FD05C0A889B9898C916F
:1002C00086FD0FC00FB607FCF5CF808185FFF2CF0A
:1002D000A889B9898C9185FFEDCFCE010E94EA00F3
:1002E000E7CFDF91CF91089580E090E0892B29F04E
:1002F0000E94E00081110C9400000895833081F089
:1003000028F4813099F08230A1F008958730A9F067
:100310008830B9F08430D1F4809180008F7D03C0A3
:10032000809180008F7780938000089584B58F77C7
:1003300002C084B58F7D84BD08958091B0008F7711
:1003400003C08091B0008F7D8093B00008951F920C
:100350000F920FB60F9211242F933F934F935F93F9
:100360006F937F938F939F93AF93BF93EF93FF937D
:1003700085E391E00E94EA00FF91EF91BF91AF9178
:100380009F918F917F916F915F914F913F912F91AD
:100390000F900FBE0F901F9018951F920F920FB6DF
:1003A0000F9211242F938F939F93EF93FF93E091DC
:1003B0004501F09146018081E0914B01F0914C01A3
:1003C00082FD12C0908180914E018F5F8F732091CA
:1003D0004F01821751F0E0914E01F0E0EB5CFE4FCF
:1003E000958F80934E0101C08081FF91EF919F9185
:1003F0008F912F910F900FBE0F901F901895CF9354
:10040000DF93282F30E0F901EC54FF4F8491F9017C
:10041000E650FF4FD491F901EA51FF4FC491CC232C
:1004200091F081110E947E01EC2FF0E0EE0FFF1F92
:10043000EE52FF4FA591B491EC91ED2381E090E055
:1004400021F480E002C080E090E0DF91CF91089538
:100450001F93CF93DF93282F30E0F901EC54FF4F27
:100460008491F901E650FF4FD491F901EA51FF4F11
:10047000C491CC23C9F0162F81110E947E01EC2F6C
:10048000F0E0EE0FFF1FE452FF4FA591B4918FB73C
:10049000F894111105C09C91ED2FE095E92302C05D
:1004A000EC91ED2BEC938FBFDF91CF911F910895CD
:1004B000CF93DF9390E0FC01E650FF4F2491FC01C5
:1004C000EA51FF4F8491882361F190E0880F991FD2
:1004D000FC01E853FF4FC591D491FC01E452FF4F5A
:1004E000A591B491611109C09FB7F89488812095B6
:1004F00082238883EC912E230BC0623061F49FB776
:10050000F8943881822F809583238883EC912E2B59
:100510002C939FBF06C08FB7F894E8812E2B2883B9
:100520008FBFDF91CF9108951F93CF93DF93182F43
:10053000EB0161E00E945802209711F460E004C0D2
:10054000CF3FD10539F461E0812FDF91CF911F9129
:100550000C942802E12FF0E0EC54FF4FE491E330DB
:10056000F9F048F4E130B9F0E230A1F584B58062E9
:1005700084BDC8BD34C0E730E9F0E83019F1E4309B
:1005800049F580918000806280938000D0938B0039
:10059000C0938A0024C084B5806884BDC7BD1FC0D5
:1005A00080918000806880938000D0938900C09300
:1005B000880015C08091B00080688093B000C0931F
:1005C000B3000DC08091B00080628093B000C093F2
:1005D000B40005C0C038D1050CF0B5CFAFCFDF9166
:1005E000CF911F9108953FB7F89480913101909178
:1005F0003201A0913301B091340126B5A89B05C00A
:100600002F3F19F00196A11DB11D3FBFBA2FA92F91
:10061000982F8827820F911DA11DB11DBC01CD010E
:1006200042E0660F771F881F991F4A95D1F70895FA
:100630002FB7F89460912D0170912E0180912F01B8
:10064000909130012FBF08951F920F920FB60F9215
:1006500011242F933F938F939F93AF93BF938091D8
:100660002D0190912E01A0912F01B0913001309178
:100670002C0123E0230F2D3720F40196A11DB11D7D
:1006800005C026E8230F0296A11DB11D20932C0161
:1006900080932D0190932E01A0932F01B0933001F0
:1006A0008091310190913201A0913301B0913401D8
:1006B0000196A11DB11D8093310190933201A09349
:1006C0003301B0933401BF91AF919F918F913F91CE
:1006D0002F910F900FBE0F901F9018951F920F92A1
:1006E0000FB60F9211242F933F934F935F936F9305
:1006F0007F938F939F93AF93BF93EF93FF93E0917B
:100700002401F09125010995FF91EF91BF91AF91DF
:100710009F918F917F916F915F914F913F912F9119
:100720000F900FBE0F901F901895E0E7F0E08081CA
:100730008D7F808308952F923F924F925F926F92A8
:100740007F928F929F92AF92BF92CF92DF92EF9261
:10075000FF920F931F93CF93DF931C01EB0169016D
:100760007A014B01072E000CAA08BB0801301105C5
:10077000D1F0C501B4010E940F1A2B013C0120E009
:1007800030E040E85FE3C701B6010E94471B9B01D0
:10079000AC01C301B2010E946E1A0E94591C3B01B8
:1007A000012BC9F001C03B01C501B4010E940F1A21
:1007B0004B015C01A701960160E070E080E89FE3D7
:1007C0000E94461B9B01AC01C501B4010E946E1A38
:1007D0000E94591CEB016C167D0644F02C163D0658
:1007E00064F081E0621473044CF407C026143704EB
:1007F00024F081E0C215D3050CF480E0DF91CF91A5
:100800001F910F91FF90EF90DF90CF90BF90AF902E
:100810009F908F907F906F905F904F903F902F9020
:1008200008950F931F93CF93DF938C0120E030E066
:1008300040E053E4FC0160817181828193810E94D8
:100840006E1A20E030E048E453E40E94E71B0E9467
:10085000591CEB016138FFEF7F0734F06F377105EA
:100860002CF0CFE7D0E002C0C0E8DFEF20E030E0BE
:1008700040E053E4F80164817581868197810E948C
:100880006E1A20E030E048E453E40E94E71B0E9427
:10089000591C6138FFEF7F0734F06F3771052CF07A
:1008A0006FE770E002C060E87FEF8C2F962FDF913A
:1008B000CF911F910F910895FB019C012C5F3F4F39
:1008C000DC014D91CD014193A217B307C9F70895FB
:1008D000CF92DF92EF92FF920F931F93CF93DF930C
:1008E000FC0120853185232BA9F0EC010E9418031F
:1008F000C880D980EA80FB800C811D812E813F81D8
:10090000C00ED11EE21EF31E21E06C157D058E0582
:100910009F0508F420E0822FDF91CF911F910F9166
:10092000FF90EF90DF90CF9008958F929F92AF92BB
:10093000BF92CF92DF92EF92FF920F931F93CF93CC
:10094000DF930E94F3020091F4051091F5052091C8
:10095000F6053091F705061717072807390718F429
:100960000E9495034CC0E091EE05F091EF05908157
:100970008091EB05892309F042C00E9495030E94F3
:10098000F3022091F2053091F3056901E12CF12C7D
:100990000091F4051091F5052091F6053091F705C9
:1009A00046015701801A910AA20AB30A95018401EF
:1009B0000D50110921093109600F711F821F931F0A
:1009C0006093E6057093E7058093E8059093E90549
:1009D0002091F8053091F90544E2429FE001439FE0
:1009E000D00D1124C05EDB4F29E330E040E050E041
:1009F0000E94911D398F288F1092FA0526C087E03A
:100A000096E00E946804882301F18091F805909196
:100A1000F90524E2289FF001299FF00D1124E05EE2
:100A2000FB4F88EC90E0918F808F1092FA05DF9158
:100A3000CF911F910F91FF90EF90DF90CF90BF90DB
:100A4000AF909F908F900C949503DF91CF911F9161
:100A50000F91FF90EF90DF90CF90BF90AF909F905D
:100A60008F900895CF93DF93EC010E9418036C835D
:100A70007D838E839F8381E090E099878887DF91D3
:100A8000CF910895CF92DF92EF92FF920F931F9331
:100A9000CF93DF936C017A018B01C0E0D0E0CE15DB
:100AA000DF0589F0D8016D918D01D601ED91FC91A2
:100AB0000190F081E02DC6010995892B11F47E018A
:100AC00002C02196ECCFC701DF91CF911F910F910A
:100AD000FF90EF90DF90CF9008950E940C1ECF9270
:100AE000DF92EF92FF922FE832EC45E95FE30E943C
:100AF0006E1A20E030E044EB52E40E94471B0E9453
:100B0000591C663971053CF4DB016E3171052CF41A
:100B1000AEE1B0E002C0A6E9B0E0A53BB10514F03B
:100B2000A4EBB0E0A0932102C09022022091230206
:100B300030E02C193109D12CE12CF12CFE2CED2CBC
:100B4000DC2CCC24A901330F660B770B2227342F22
:100B5000452F562F0E94D21D24EB30E040E050E09C
:100B60000E94B31DC701B601620F731F841F951F3A
:100B700028E030E040E050E00E94B31D8091200268
:100B8000893029F4309389002093880004C0309381
:100B90008B0020938A00FF90EF90DF90CF90089514
:100BA000EF92FF920F931F93CF93DF938B010F5E12
:100BB000194FF801E15BFF4F2081EB0133E0CC0FCF
:100BC000DD1F3A95E1F7222351F0FE01E65CF94F73
:100BD000268137811216130614F480E017C07C01B9
:100BE000C65CD94FFC0121913191CF01FE012193C7
:100BF0003193BF010E945C04F701868197819F8336
:100C00008E83F801E15BFF4F81E08083DF91CF911C
:100C10001F910F91FF90EF900895FC012081618159
:100C2000862F90E0A0E0B0E0DC0199278827B22B66
:100C30002381822B2281BC01CD01722B08954F921A
:100C40005F926F927F928F929F92AF92BF92CF925C
:100C5000DF92EF92FF92CF93DF93CDB7DEB72C9761
:100C60000FB6F894DEBF0FBECDBF3C012B014F3F46
:100C70008FEF580781F14130510509F00AC1DB01BE
:100C8000CD90DD90ED90FC90F30180809180A2806A
:100C9000B38027E137EB41ED58E3C701B6010E946D
:100CA000461B9B01AC01C501B4010E94F51C87FDE8
:100CB00062C027E137EB41ED58E3C701B6010E945E
:100CC000471B9B01AC01C501B4010E94081A18160C
:100CD0000CF451C02EC0DB011496CD90DD90ED9048
:100CE000FC901797F30160817181828193819B0150
:100CF000AC010E94471BD2012D913D914D915C9119
:100D00000E94461B69837A838B839C83CD82DE821B
:100D1000EF82F88641E050E0BE016F5F7F4FC30174
:100D20000E941F066B017C01F7FAF094F7F8F0942B
:100D3000B0C0F3012481358146815781D2011496D8
:100D40006D917D918D919C9117970E94F51C1816BD
:100D50004CF49BEDC92E9FE0D92E99ECE92E9FE330
:100D6000F92E97C084EEC82E8BECD82E86E9E82E9B
:100D700080E4F82E8EC0A5019401C701B6010E943F
:100D8000F51C18160CF05FC0D20114968D919D9140
:100D90000D90BC91A02D89879A87AB87BC87F30102
:100DA0004480558066807780A3019201BC01CD010B
:100DB0000E94F51CA301920187FD2AC069857A85EE
:100DC0008B859C850E94461B2B013C01A50194014B
:100DD000C701B6010E94461B9B01AC01C301B201D1
:100DE0000E94E71B2C960FB6F894DEBF0FBECDBF56
:100DF000DF91CF91FF90EF90DF90CF90BF90AF90B9
:100E00009F908F907F906F905F904F900C94B31B4A
:100E100069857A858B859C850E94461B2B013C0148
:100E2000A5019401C701B6010E94461B9B01AC01BC
:100E3000C301B2010E94E71B0E94B31B2BED3FE0F0
:100E400049EC50E422C0D30114962D913D914D916F
:100E50005C911797F20164817581868197810E9468
:100E6000461B2B013C01A5019401C701B6010E945C
:100E7000461B9B01AC01C301B2010E94E71B0E940B
:100E8000B31B2BED3FE049E450E40E94471B6B018C
:100E90007C01C701B6012C960FB6F894DEBF0FBED9
:100EA000CDBFDF91CF91FF90EF90DF90CF90BF90BB
:100EB000AF909F908F907F906F905F904F9008952C
:100EC0001F93CF93DF9382302FEF920734F08F3F41
:100ED000910534F0CFEFD0E004C0C1E0DFEF01C0F6
:100EE000EC011D2F1095111F1127111F11F0BE01CC
:100EF00002C060E070E085E00E949402111105C01C
:100F0000662777276C1B7D0B02C060E070E086E0EF
:100F1000DF91CF911F910C949402CF93DF93CDB7C3
:100F2000DEB7C755D1090FB6F894DEBF0FBECDBFEF
:100F3000789484B5826084BD84B5816084BD85B5B4
:100F4000826085BD85B5816085BD80916E008160C0
:100F500080936E0010928100809181008260809366
:100F60008100809181008160809381008091800068
:100F70008160809380008091B10084608093B10093
:100F80008091B00081608093B00080917A0084608D
:100F900080937A0080917A00826080937A008091B9
:100FA0007A00816080937A0080917A0080688093D3
:100FB0007A001092C10060E080E00E94580261E077
:100FC00081E00E94580210925C0610926006109216
:100FD0005D061092610610925E06109262061092F3
:100FE0005F0610926306E0914501F091460182E0B0
:100FF0008083E0914101F09142011082E091430130
:10100000F09144018FEC808310924D01E0914901F1
:10101000F0914A0186E08083E0914701F091480118
:10102000808180618083E0914701F0914801808157
:1010300088608083E0914701F09148018081806859
:101040008083E0914701F091480180818F7D80830A
:10105000109231061092300661E088E00E9458023A
:1010600061E087E00E94580261E08BE00E94580234
:1010700061E08AE00E945802E8E3F4E088EC90E046
:1010800095878487918380839383828395838483E8
:10109000978386839187808793878287B49625E09C
:1010A000E83EF20769F781E08093FB051092FA05AC
:1010B0008BE090E09093F9058093F80584E090E050
:1010C0009093FD058093FC051092060660E082E097
:1010D0000E94580260E084E00E94580260E083E0D1
:1010E0000E94580260E08EE00E94580260E08FE0AB
:1010F0000E94580260E080E10E94580260E081E1B5
:101100000E94580260E082E10E94580261E083E19F
:101110000E9458020E9418036093160470931704EB
:10112000809318049093190410921B0410921A04CF
:1011300010921C0410921D0410921E0410921F04A1
:1011400061E085E00E94580261E086E00E9458025A
:1011500089E0809320028FEF8093210260E089E094
:101160000E94280261E0809120020E945802809132
:101170002701811122C08091260181111EC02FB745
:10118000F89482E0809380008AE18093810088EB6C
:101190009BE0909389008093880090938B008093CC
:1011A0008A0080E49CE99093870080938600809178
:1011B0006F00887F80936F002FBF8091200289305D
:1011C00041F481E080932701809180008F738068D3
:1011D00007C081E080932601809180008F7C80622F
:1011E0008093800010921C0210921D0210921E0229
:1011F00010921F0260E070E0CB010E946F05109218
:1012000018021092190210921A0210921B0281E128
:1012100096E00E946804882309F414C18DE196E0E9
:101220000E94680481110AC185E391E00E94D40004
:10123000009709F4A3C0409130065091310629E08F
:1012400030E0241B350B8C01281739070CF4890179
:10125000A12CB12C912CF2E0EF2EF12CCC24C394D4
:10126000D12CA016B1060CF06AC085E391E00E9473
:10127000B20020915A0630915B062130310541F1D0
:1012800022303105E1F1232B09F055C020913006C1
:1012900030913106F901E652FE4F9081891313C057
:1012A000A9014F5F5F4F5093310640933006F9011B
:1012B000EF5EF94F868B44305105E9F5D0925B061D
:1012C000C0925A0638C0109231061092300633C0D0
:1012D0002091300630913106A9014F5F5F4F509346
:1012E000310640933006F901EF5EF94F868B4530A9
:1012F000510509F5F0925B06E0925A061CC0209158
:10130000300630913106A9014F5F5F4F509331068F
:1013100040933006F901EF5EF94F868B4930510555
:1013200051F4109231061092300610925B06109222
:101330005A06992493943FEFA31AB30A92CF9920A7
:10134000E9F080912B0690E090933306809332066B
:10135000BE016F5F7F4F8CE296E00E945C0464E305
:1013600076E0CE0101960E945C0481E080935C06E9
:1013700080935D0680935E0680935F0670E6E72E9D
:1013800076E0F72E00E010E0E5E0BE2E6E014FE0C3
:10139000C40ED11CD7018C91882309F442C01C9241
:1013A000F801EF5EF94FA1A4BE016F5F7F4F8AED98
:1013B00091E00E945C04AD82FE013196DE015296FE
:1013C0008B2D01900D928A95E1F7FE017296DE0158
:1013D00057968B2D01900D928A95E1F7FE01779635
:1013E000DE011A968B2D01900D928A95E1F7C801C6
:1013F000845C994FFE013A96DE01119621912D935E
:10140000EC15FD05D9F7BE016A5F7F4F0E945C04B1
:1014100049E050E0BE016F5F7F4F85E391E00E949D
:101420004205BFEFEB1AFB0A085F1F4F00321105A0
:1014300009F0B0CF81E196E00E9432058DE196E09F
:101440000E94320580E294E00E946804882309F437
:1014500085C28CE294E00E94680481117BC2809175
:10146000FB05882309F472C2E0912A04F0912B0451
:10147000E45AF94F8081882389F1108280913206E5
:10148000909133069093FF058093FE0560E076E02F
:1014900084E396E00E945C048091380690913906BE
:1014A00090930506809304068091FE059091FF05B8
:1014B0004097A1F480E096E00E940D0621E0672BA2
:1014C000682B692B09F420E02093060660912A041A
:1014D00070912B0482ED91E00E94D0058091FA0575
:1014E000811134C22090F8053090F905EBE02E16FA
:1014F000310429F0809106068111F8C030C1209195
:10150000FC053091FD053BA72AA7C901049665E0BB
:1015100070E00E947D1D8EA798AB220F331F3DA364
:101520002CA368E3E62E64E0F62E1D8E1C8ED701F8
:101530008D919C91009711F05C0103C048ECA42EA2
:10154000B12CECA1FDA1EE0DFF1DB382A282883C5F
:10155000910519F0E0E0F1E002C0E6E0F1E0208161
:10156000318139A728A74280538064807580D701D4
:101570001C960D90BC91A02DB9A3A8A302E010E089
:10158000A3019201BD01C5010E949B03882321F0A4
:10159000F701B586A4864FC0CEA4D8A8812C912C83
:1015A000A2E18C8D9D8DA89FA001A99F500D1124B3
:1015B0005DAB4CABEAA5FBA5CE16DF0679F128A5FD
:1015C00039A58216930654F501E010E028A139A14F
:1015D000A216B30614F000E010E0ECA9FDA9EC0D92
:1015E000FD1DEE0FFF1FE65CFB4FA301920168A1FA
:1015F00079A1808191810E949B03811105C03FEFF9
:10160000831A930A20E001C021E0C601049665E038
:1016100070E00E947D1D6C01222361F288A599A5CE
:1016200001978816990614F4A8A0B9A0D7011D96B1
:10163000BC92AE921C97F70164857585072E000C4D
:10164000880B990B0E940F1A4B015C012BED3FE0B8
:1016500049EC5FE3D70156966D917D918D919C91F8
:1016600059970E94471B2B013C010E94E21B9B01E2
:10167000AC01C501B4010E946E1A9B01AC01F701D7
:1016800066857785808991890E94471BD7015A9684
:101690006D937D938D939C935D97C301B2010E94DE
:1016A000021D9B01AC01C501B4010E946E1A9B0191
:1016B000AC01F70162897389848995890E94471B6F
:1016C000D7015E966D937D938D939C939197EC8D4E
:1016D000FD8D3196FD8FEC8FF4E2EF0EF11C2C8D19
:1016E0003D8D2C30310509F022CF04CF20FE37C0CC
:1016F000C10137FC01969595879508969093FF0553
:101700008093FE0514E2129DC001139D900D1124DB
:101710008E5A9B4F0E941104F82E092F2091F80534
:101720003091F90521503109129FC001139F900D8E
:1017300011248E5A9B4F0E94110489839A83FB8245
:101740000C8360E076E0CE0101960E945C0460911B
:101750002A0470912B048EEF95E00E94D005209111
:10176000F8053091F9052B30310569F48091FC05BD
:101770009091FD05019665E070E00E947D1D9093BB
:10178000FD058093FC05C90101966CE070E00E94A4
:101790007D1D9093F9058093F80524E2289FF001C0
:1017A000299FF00D1124E05EFB4F06891789602FF9
:1017B000617088E00E942802B80176956795617093
:1017C00087E00E942802B80176956795769567951F
:1017D00061708BE00E94280283E0169507958A9538
:1017E000E1F7602F61708AE00E94280281E0809317
:1017F000FA050E94950387E096E00E943205E09189
:10180000F005F091F10590818091EA05892B8083A4
:10181000E091EC05F091ED0590818091EA058095CD
:10182000892380838BE090E00197F1F7E091EC054C
:10183000F091ED0590818091EA05892B808383E208
:1018400090E00197F1F7E091EC05F091ED059081C2
:101850008091EA05809589238083E091F005F091DD
:10186000F10590818091EA05809589238083E0913C
:10187000EE05F091EF0590818091EB05892309F049
:1018800065C00E94F3022091F2053091F3058901B1
:1018900020E030E00855194E2F4F3F4FDC01CB01BF
:1018A000800F911FA21FB31F8093F4059093F5053D
:1018B000A093F605B093F705E091EE05F091EF05E2
:1018C00090818091EB05892381F40E94F3020091BD
:1018D000F4051091F5052091F6053091F7050617EE
:1018E00017072807390740F731C00E94F3022091FB
:1018F000F2053091F305DC01CB01820F931FA11D8E
:10190000B11D8093F4059093F505A093F605B0936F
:10191000F70585E994E090932501809324010E94C6
:1019200095038091B6008F7D8093B60082E080930E
:10193000B00084E08093B1001092B20085E0809303
:10194000B3008091700082608093700080E294E028
:101950000E9432058CE294E00E94320580E094E01F
:101960000E946804882309F4D3C08CE094E00E94AC
:1019700068048111C9C00E9418036B017C0160E0FA
:1019800083E10E94280282E10E94FF01082F81E189
:101990000E94FF018295880F880F807C182F30E805
:1019A000039F1019112480E10E94FF01882E8FE00F
:1019B0000E94FF01982E8EE00E94FF01A82E83E076
:1019C0000E94FF01082F84E00E94FF01B82E82E0F0
:1019D0000E94FF01810F182F40E2849E100D1124F8
:1019E00050E1959E100D112488E0A89E100D112441
:1019F000000F000F010FBB0C0B0D002E000C110B84
:101A000061E083E10E94280240911A0450911B0476
:101A10009801241B350BC90137FF04C0882799277B
:101A2000821B930B81389105CCF0C90193953A95AF
:101A3000DC0197FF04C0AA27BB27A81BB90BF9013B
:101A400037FF04C0EE27FF27E21BF30BEA17FB0763
:101A50000CF4C901BA01680F791F01C0B801809167
:101A6000160490911704A0911804B091190446012E
:101A70005701881A990AAA0ABB0AC0921604D09282
:101A80001704E0921804F092190410931B040093B9
:101A90001A0481149104A104B10439F1641B750B7B
:101AA000072E000C880B990B0E940F1A20E030E0E3
:101AB00046E155E40E94E71B26E636E642EA51E499
:101AC0000E946E1A6B017C01C501B4010E940D1ABF
:101AD0009B01AC01C701B6010E94E71B20E030E08A
:101AE0004AE754E40E946E1A03C060E070E0CB0144
:101AF00060931C0470931D0480931E0490931F0434
:101B000080E094E00E9432058CE094E00E9432056F
:101B10008EED91E00E946804882309F493C78AEE51
:101B200091E00E9468048CAB811188C720911C044D
:101B300030911D0440911E0450911F042AA73BA719
:101B40004CA75DA780911C0290911D02A0911E02DE
:101B5000B0911F028C8F9D8FAE8FBF8F86EF91E06B
:101B60000E946804882309F4F3C0C0901802D09042
:101B70001902E0901A02F0901B0220E030E0A90167
:101B8000C701B6010E94081A81111BC020E030E095
:101B900040E85FEB6AA57BA58CA59DA50E94F51C7E
:101BA00087FD0FC020E030E040E85FE36AA57BA539
:101BB0008CA59DA50E94081A18161CF080E090E0E4
:101BC000C1C02AA53BA54CA55DA5C701B6010E94D1
:101BD000461B4B015C010E9418036B017C011091B4
:101BE0001402009115023090160220901702909175
:101BF000100298A3A0911102A8A7B0911202BCA351
:101C0000E0911302EEA72091000230910102409171
:101C1000020250910302C501B4010E946E1A209184
:101C20000C0230910D0240910E0250910F020E9461
:101C3000471B68AB79AB8AAB9BAB20910802309114
:101C4000090240910A0250910B02C501B4010E94A1
:101C5000461B2B013C018091FA019091FB01A09160
:101C6000FC01B091FD01A7019601281B390B4A0B1D
:101C70005B0BCA01B9010E940D1A9B01AC01C301A3
:101C8000B2010E94E71B20910402309105024091AD
:101C90000602509107020E946E1A9B01AC0168A9CE
:101CA00079A98AA99BA90E94471B6B017C0128A1E5
:101CB00038A54CA15EA50E94F51C18162CF0B8A101
:101CC000A8A5FCA1EEA504C0BC2DAD2DFE2DEF2DC9
:101CD000212F302F432D522D6B2F7A2F8F2F9E2F98
:101CE0000E94081A87FF13C028A138A54CA15EA541
:101CF000B601C7010E94F51C18162CF018A108A502
:101D00003CA02EA404C01C2D0D2D3E2C2F2C812F69
:101D1000902FA32DB22D80930C0290930D02A093CF
:101D20000E02B0930F028092080290920902A092D4
:101D30000A02B0920B02612F702F832D922D0E9408
:101D4000591CCB010E94600786EF91E00E9432058A
:101D5000E091E801F091E901E45AF94F30812C96C5
:101D60003FAF2C973323B9F01082809132069091C7
:101D700033069093E9038093E8036AEE73E084E30B
:101D800096E00E945C048091380690913906909309
:101D9000EF038093EE038091F4019091F50181307F
:101DA000910509F4C6C5029709F044C68C8D9D8D36
:101DB000AE8DBF8D8093CD039093CE03A093CF03C0
:101DC000B093D00320E030E0A901BC01CD010E9416
:101DD000F51C87FF05C0AFEFBFEFB9ABA8AB04C0E0
:101DE000E1E0F0E0F9ABE8AB28A939A93093D203E0
:101DF0002093D1038AA59BA5ACA5BDA58093C9035B
:101E00009093CA03A093CB03B093CC036C8D7D8DCC
:101E10008E8D9F8D0E94021D6B017C0127E137EBA7
:101E200041ED58EB0E94F51C87FD0CC091E098A78E
:101E300027E137EB41ED58E3C701B6010E94081ACC
:101E400018160CF418A6A8A5A093E703A11182C048
:101E50006C8D7D8D8E8D9F8D0E94E21B9B01AC0150
:101E6000C701B6010E94E71B9B01AC0160E070E076
:101E700080EA91E40E94E71B4B015C016093D3036D
:101E80007093D4038093D5039093D603E8A9F9A95E
:101E9000BF01FF0F880B990B0E940F1A2B013C0109
:101EA00020E030E040E051E40E946E1A68A379A37C
:101EB0008AA39BA39B01AC01C501B4010E94471BEF
:101EC0006B017C019B01AC010E946E1A23EC35EF83
:101ED00048E354E40E94471B0E94101DA301920195
:101EE0000E946E1A6093DB037093DC038093DD0322
:101EF0009093DE0328A139A14AA15BA1C501B401D9
:101F00000E94461B6093D7037093D8038093D90334
:101F10009093DA039B01AC010E946E1A20E030E03E
:101F200048EC53E40E94471B0E94101DA30192013C
:101F30000E946E1A6093DF037093E0038093E103C5
:101F40009093E203C092E303D092E403E092E503AE
:101F5000F092E60321EE3EE245E652E460914E0443
:101F600070914F0480915004909151040E946E1A18
:101F70009B01AC016C8D7D8D8E8D9F8D0E94461BCB
:101F80006B017C0120E030E0A9010E94F51C1816CD
:101F900024F0F7FAF094F7F8F094F2E7AF2EF4E0BB
:101FA000BF2E1FAA1EAA01E010E021EE3EE245E688
:101FB00052E4D5016D917D918D919C910E946E1A94
:101FC0009B01AC016C8D7D8D8E8D9F8D0E94461B7B
:101FD0002B013C0120E030E0A9010E94F51C1816FD
:101FE00024F077FA709477F87094A7019601C301F2
:101FF000B2010E94081A87FF04C01FAB0EAB730129
:1020000062010F5F1F4FB4E2AB0EB11C0C30110523
:1020100061F68EA99FA995958795EEA9FFA91C0148
:1020200036971CF0F3E02F0E311C3FA62EA620EFB2
:1020300033E02B963FAF2EAF2B971EAE1FAE00E0C6
:1020400010E024E24EA55FA5249FF001259FF00D2E
:102050001124E05EFB4F82A993A9A4A9B5A92496F7
:102060008CAF9DAFAEAFBFAF249786A997A9A0ADA7
:10207000B1AD28968CAF9DAFAEAFBFAF2897CA0168
:1020800001966CE070E00E947D1D9FA78EA7289F9F
:10209000F001299FF00D1124E05EFB4FC2A8D3A8E8
:1020A000E4A8F5A866A977A980AD91AD24962CADDA
:1020B0003DAD4EAD5FAD24972093B5033093B6038D
:1020C0004093B7035093B80328962CAD3DAD4EAD69
:1020D0005FAD28972093B9033093BA034093BB03B5
:1020E0005093BC030E94461B4B015C0124962CAD0F
:1020F0003DAD4EAD5FAD2497C701B6010E94461BB2
:102100006B017C019B01AC010E946E1A2B013C010A
:10211000A5019401C501B4010E946E1A9B01AC0196
:10212000C301B2010E94471B0E94101D20E030E055
:1021300040E251E40E94E71B20E030E040E85FE32A
:102140000E94471B2B013C0120E030E040EA50E4B4
:102150000E94081A87FF07C0C301B2010E94591CE0
:1021600079AF68AF04C045E050E059AF48AF88ADE3
:1021700099AD9093C6038093C503BC01990F880B5A
:10218000990B0E940F1A2B013C019B01AC01C50168
:10219000B4010E94E71B60966CAF7DAF8EAF9FAF1E
:1021A0006097A3019201C701B6010E94E71B6496E4
:1021B0006CAF7DAF8EAF9FAF64976093BD0370939C
:1021C000BE038093BF039093C00360962CAD3DADDA
:1021D0004EAD5FAD60972093C1033093C20340932F
:1021E000C3035093C4031092C8031092C7032996E7
:1021F0001FAE29976091C7037091C803E8ADF9AD90
:102200006E177F070CF0F3C2CB0101969093C803C1
:102210008093C703072E000C880B990B0E940F1A9E
:102220006B017C019B01AC0160966CAD7DAD8EAD08
:102230009FAD60970E946E1A9B01AC0128966CAD11
:102240007DAD8EAD9FAD28970E94471B6C8F7D8F13
:102250008E8F9F8FA701960164966CAD7DAD8EAD7C
:102260009FAD64970E946E1A9B01AC0124966CADE1
:102270007DAD8EAD9FAD24970E94471B2B013C0185
:1022800038A5332309F470C09B01AC0160E070E015
:1022900080E091EC0E94461B6B017C0120E030E065
:1022A000A9010E94F51C181624F0F7FAF094F7F82B
:1022B000F094A301920160E070E080E091E40E945C
:1022C000461B4B015C0120E030E0A9010E94F51C97
:1022D000181624F0B7FAB094B7F8B09420E030E0C4
:1022E00040E051ECC301B2010E94F51C87FD11C012
:1022F00020E030E040E051E4C301B2010E94081A3E
:1023000018163CF0412C512C70E8672E7FEB772E8D
:1023100006C0412C512C60E8662E6FE3762EA50195
:102320009401C701B6010E94081A87FD05C0782DE7
:10233000692D9A2D8B2D04C07C2D6D2D9E2D8F2DFA
:10234000272F362F492F582FC301B2010E946E1A32
:102350004B015C0120E030E040E050E40E94081AAC
:1023600018160CF073C316C2C090D303D090D403D8
:10237000E090D503F090D603D701C601B0588A8704
:102380009B87AC87BD871E861F86188A198AA7017E
:102390009601C301B2010E94471B4B015C01698396
:1023A0007A838B839C8320E030E040E251E46C8DA3
:1023B0007D8D8E8D9F8D0E94471B6C8F7D8F8E8FA4
:1023C0009F8F6D837E838F83988748A959A9BE010B
:1023D0006F5F7F4FCE010A960E941F0668966CAF12
:1023E0007DAF8EAF9FAF68974090D7035090D803D2
:1023F0006090D9037090DA0320E030E0A901C301B6
:10240000B2010E94081A8823F9F0A7019601C501BC
:10241000B4010E94471B9B01AC010E946E1A6B0124
:102420007C012C8D3D8D4E8D5F8DCA01B9010E94BE
:102430006E1A9B01AC01C701B6010E94471B0E94A6
:10244000101D4B015C010DC020E030E0A901C50169
:10245000B4010E94F51C181624F0B7FAB094B7F82E
:10246000B09420E030E0A901C301B2010E94F51C44
:10247000A301920118160CF05058C501B4010E9436
:10248000461B20E030E0A9010E94F51C20E030E06E
:10249000A901181694F4C301B2010E94F51CA3010E
:1024A000920118160CF05058C501B4010E94461B49
:1024B00068A379A38AA39BA314C0C301B2010E949D
:1024C000F51CA301920118160CF05058C501B40177
:1024D0000E94461B9B01AC01505828A339A34AA374
:1024E0005BA3C090DB03D090DC03E090DD03F090B1
:1024F000DE0320E030E0A901C701B6010E94F51C0F
:10250000A701960118160CF05058C501B4010E949D
:10251000461B20E030E0A9010E94F51C20E030E0DD
:10252000A901181694F4C701B6010E94F51CA70171
:10253000960118160CF05058C501B4010E94461BB4
:102540006C8F7D8F8E8F9F8F14C0C701B6010E9444
:10255000F51CA701960118160CF05058C501B401DE
:102560000E94461B9B01AC0150582C8F3D8F4E8F13
:102570005F8F20E030E0A901C701B6010E94F51C81
:10258000181624F0F7FAF094F7F8F09420E030E011
:10259000A901C301B2010E94F51C181644F0D30131
:1025A000C201B0588CA39DA3AEA3BFA304C04CA28C
:1025B0005DA26EA27FA22CA13DA14EA15FA1C70189
:1025C000B6010E94F51C87FD0DC02CA13DA14EA1B6
:1025D0005FA1C501B4010E94F51C87FD1CC0A701C5
:1025E00096010CC0A7019601C501B4010E94F51C1B
:1025F00087FD11C02CA13DA14EA15FA1C501B40171
:102600000E94081A18163CF0C12CD12C50E8E52E77
:102610005FEBF52E06C0C12CD12C40E8E42E4FE331
:10262000F42E2C8D3D8D4E8D5F8D68A179A18AA1F0
:102630009BA10E94081A87FD05C07C8D6D8D9E8D23
:102640008F8D04C078A169A19AA18BA1272F362F65
:10265000492F582FC701B6010E946E1A4B015C0129
:1026600020E030E040E050E40E94081A18160CF414
:1026700091C0A30192016091DF037091E00380910A
:10268000E1039091E2030E94461B6B017C0120E074
:1026900030E0A9010E94F51CA7019601181694F0DC
:1026A00050582CA33DA34EA35FA36C8D7D8D8E8DC2
:1026B0009F8D0E94081A87FD0DC07CA16DA19EA16F
:1026C0008FA10CC06C8D7D8D8E8D9F8D0E94081A00
:1026D00087FFE1C17C8D6D8D9E8D8F8D272F362FCD
:1026E000492F582F68A179A18AA19BA10E94081A9D
:1026F00087FF28C0A301920160E070E080EA91E4C6
:102700000E94E71B0E94B31B2B013C0120E030E03C
:10271000A901C701B6010E94F51C181624F0F7FAAA
:10272000F094F7F8F094A701960168A179A18AA125
:102730009BA10E94E71B9B01AC01C301B2010E9457
:102740006E1A0AC0A301920160E070E080EA91E491
:102750000E94E71B0E94B31B9B01AC0168966CAD05
:102760007DAD8EAD9FAD68970E94461B2091E3031F
:102770003091E4034091E5035091E6030E946E1A04
:102780002AA53BA54CA55DA50E94E71B6AAF7BAFC0
:102790008CAF9DAF20E030E040E050E4C501B401D3
:1027A0000E94081A18160CF425CD29963FAD2997DA
:1027B000332391F02EAD3FADA8016AAD7BAD8CAD5A
:1027C0009DAD0E94081A87FF15CD9AAD9EAFABADA7
:1027D000AFAF0CAD1DAD0ECD4AAD4EAF5BAD5FAF33
:1027E0000CAD1DAD81E029968FAF299703CD2996B9
:1027F000FFAD2997FF2321F08EAD9FADD80103C017
:1028000080E090E0DC012B96EEADFFAD2B9781933D
:102810009193A193B1932B96FFAFEEAF2B97EC5F03
:10282000F34009F00ECC1091FC03EEA9FFA9E219C8
:10283000F309EE0FFF1FEE0FFF1FE051FC4FC080AA
:10284000D180E280F380A7019601C701B6010E9402
:10285000081A811116C020E030E0A901C701B601B5
:102860000E94F51C18166CF431E03CAB2DEC3CECEE
:102870004CE45FE3C701B6010E94081A18160CF475
:102880001CAA8CA9812B8093FC03111152C08823B0
:1028900009F44FC020E030E0A9016AA57BA58CA512
:1028A0009DA50E94F51C18166CF4E4E0F0E0E21916
:1028B000F309EE0FFF1FEE0FFF1FE051FC4FA1E0E9
:1028C000B0E00CC0E7E0F0E0E219F309EE0FFF1F03
:1028D000EE0FFF1FE051FC4FAAE0B0E0A219B309D0
:1028E000AA0FBB1FAA0FBB1FA051BC4F2D913D913A
:1028F0004D915C9160817181828193810E94F51C70
:1029000018162CF466E676E68CE892E404C066E6D7
:1029100076E68CE892EC60931C0270931D02809323
:102920001E0290931F020E946F058FE292E00E94A8
:1029300032052C964FAD2C97442309F445C0809165
:10294000E8039091E90382309105B1F0833091055D
:1029500031F10197A1F58091FD03811130C08AEE1C
:1029600093E00E940D066093180270931902809301
:102970001A0290931B0223C08091FC0381111FC097
:102980008AEE93E00E940D0660931C0270931D0274
:1029900080931E0290931F020E946F0510C08AEE62
:1029A00093E00E940D067093F5016093F40160912D
:1029B000E8017091E90182ED91E00E94D00585E285
:1029C00092E00E9432050DC085E292E00E94680408
:1029D000882339F089E392E00E94320581E08093F8
:1029E000FD038091FC03882361F08FE292E00E9456
:1029F0006804882331F01092380210923702109246
:102A0000FC038091FD038823A9F089E392E00E94F2
:102A10006804882339F01092420210924102109209
:102A2000FD0308C0109218021092190210921A02A7
:102A300010921B028EED91E00E9432058AEE91E029
:102A40000E9432050E9474010C94070920E030E0D6
:102A5000A9016C8D7D8D8E8D9F8D0E94F51C1816A1
:102A60002CF02AE939E949E851EC04C02AE939E9AE
:102A700049E851E46C8D7D8D8E8D9F8D0E94461BA3
:102A80002AA53BA54CA55DA50E94E71B6AAF7BAFBD
:102A90008CAF9DAF8ACEA701960168A179A18AA1CA
:102AA0009BA10E94081A87FF4DCEA301920160E00E
:102AB00070E080EA91E40E94E71B0E94B31B2B01A7
:102AC0003C0131CE2F923F924F925F926F927F9254
:102AD0008F929F92AF92BF92CF92DF92EF92FF922E
:102AE0000F931F93CF93DF93109238011092370109
:102AF00088EE93E0A0E0B0E08093390190933A0132
:102B0000A0933B01B0933C0180E191E090933601AA
:102B10008093350185EC90E09093420180934101D0
:102B200084EC90E0909344018093430180EC90E02A
:102B3000909346018093450181EC90E09093480189
:102B40008093470182EC90E090934A018093490181
:102B500086EC90E090934C0180934B0110924E01D3
:102B600010924F0110925001109251018FE7809303
:102B7000DA018FEF8093DB018093DC018093DD012C
:102B8000109268061092690610926A0681E080939E
:102B90006B061092640610926506109266061092FB
:102BA00067061092D3011092D2011092D9011092AF
:102BB000D8011092D4011092D5011092D601109232
:102BC000D70120916C0630916D0640916E065091B0
:102BD0006F066091700670917106809172069091F7
:102BE0007306A1E00E94DA1D20936C0630936D06F7
:102BF00040936E0650936F06609370067093710653
:102C000080937206909373060E94E61D81F41092E1
:102C1000740610927506109276061092770610923E
:102C200078061092790610927A0610927B0684E15B
:102C300090E0A0E0B0E08093110690931206A0937C
:102C40001306B0931406C1E0D0E0D0931A06C093E7
:102C5000190688EE93E0A0E0B0E080931D06909303
:102C60001E06A0931F06B0932006D0932606C0939D
:102C7000250620907C0630907D0630921C0620921E
:102C80001B061092390610923806109241061092D7
:102C90004006109249061092480610925106109272
:102CA0005006109259061092580610925B06109228
:102CB0005A068FE090E0A0E0B0E08093200490936B
:102CC0002104A0932204B0932304D0932904C09339
:102CD000280484E690E0A0E0B0E080932C04909378
:102CE0002D04A0932E04B0932F04D0933504C093E9
:102CF0003404C101019690932B0480932A04E6E0EA
:102D0000F1E0E491E093EA05E7E0F1E0E491E0939B
:102D1000EB0582EF90E0FC012491E22FF0E0EE0F52
:102D2000FF1FE452FF4F259134913093ED0520931E
:102D3000EC05E3EFF0E0E491F0E0EE0FFF1FEE5260
:102D4000FF4F259134913093EF052093EE05FC0160
:102D50008491E82FF0E0EE0FFF1FE853FF4F8591BD
:102D600094919093F1058093F00581EC9CE290930F
:102D7000F3058093F20510920506109204068AE08E
:102D800090E0A0E0B0E08093070690930806A0933F
:102D90000906B0930A06D0931006C0930F0610924E
:102DA000FB0580E090E0A0E8B0E4809346049093B7
:102DB0004704A0934804B093490440E050E060E029
:102DC00070E440934A0450934B0460934C04709316
:102DD0004D0489EA95EDA3E8B4E480934E04909302
:102DE0004F04A0935004B09351048BE090E0909373
:102DF00037048093360406E616E626EE30E40093A8
:102E00006A0410936B0420936C0430936D0480E08B
:102E100090E0A0E2B1E480936E0490936F04A093DD
:102E20007004B0937104EDEECE2EE7E0DE2EE4E800
:102E3000EE2EE4ECFE2EC0927204D0927304E09267
:102E40007404F0927504ECE0F0E0F0935B04E0931E
:102E50005A04FAE9CF2EF9E9DF2EF9E1EF2EF0E47A
:102E6000FF2EC0928E04D0928F04E0929004F092D4
:102E700091048093920490939304A0939404B0934C
:102E80009504109296041092970410929804109250
:102E90009904D0937F04C0937E04EAE98E2EE9E979
:102EA0009E2EE9E1AE2EE0ECBE2E8092B20490920E
:102EB000B304A092B404B092B5048093B604909386
:102EC000B704A093B804B093B9041092BA04109256
:102ED000BB041092BC041092BD04E2E0F0E0F09359
:102EE000A304E093A204F6E64F2E542CF6EE6F2EC8
:102EF000F0EC7F2E4092D6045092D7046092D80412
:102F00007092D9048093DA049093DB04A093DC04DC
:102F1000B093DD048DEE97E0A4E8B4E48093DE0482
:102F20009093DF04A093E004B093E10483E090E089
:102F30009093C7048093C60480E090E0A0E8B0ECD2
:102F40008093FA049093FB04A093FC04B093FD04D7
:102F50004093FE045093FF046093000570930105B5
:102F600049EA55ED63E874EC40930205509303057C
:102F7000609304057093050544E050E05093EB0422
:102F80004093EA0480931E0590931F05A0932005AB
:102F9000B093210546E656E666E670E440932205C6
:102FA00050932305609324057093250581E39AE3EC
:102FB000A4E8B4E48093260590932705A093280500
:102FC000B093290585E090E090930F0580930E055E
:102FD0004092420550924305609244057092450527
:102FE00080E090E0A0E2B1EC809346059093470525
:102FF000A0934805B0934905E5E64E2EE3EA5E2E20
:10300000E3E86E2EE4EC7E2E40924A0550924B058A
:1030100060924C0570924D05E6E0F0E0F0933305C8
:10302000E09332058092660590926705A09268054C
:10303000B092690580936A0590936B05A0936C0527
:10304000B0936D05FBED8F2EFFE09F2EF9E4AF2EC0
:10305000F0E4BF2E80926E0590926F05A0927005ED
:10306000B0927105E7E0F0E0F0935705E093560564
:10307000C0928A05D0928B05E0928C05F0928D0566
:1030800080938E0590938F05A0939005B093910542
:103090008092920590929305A0929405B092950526
:1030A000E8E0F0E0F0937B05E0937A050093AE054D
:1030B0001093AF052093B0053093B1058093B2050E
:1030C0009093B305A093B405B093B50585E693EA54
:1030D000A3E8B4E48093B6059093B705A093B80530
:1030E000B093B9058DE090E090939F0580939E0585
:1030F00080E090E0A0E8B0E48093D2059093D305FF
:10310000A093D405B093D5054093D6055093D70529
:103110006093D8057093D90581E39AE3A4E8B4ECF1
:103120008093DA059093DB05A093DC05B093DD0571
:103130008AE090E09093C3058093C2058FE090E011
:10314000A0E0B0E08093000490930104A0930204F7
:10315000B0930304D0930904C093080488EC90E072
:10316000A0E0B0E080930C0490930D04A0930E04B3
:10317000B0930F04D0931504C0931404C1010296B8
:1031800090930B0480930A0485E090E0A0E0B0E007
:103190008093DE019093DF01A093E001B093E10101
:1031A000D093E701C093E60182E390E0A0E0B0E0B5
:1031B0008093EA019093EB01A093EC01B093ED01B1
:1031C000D093F301C093F201C101049690937D0660
:1031D00080937C0693E0290E311C3092E901209205
:1031E000E801A2E0B0E0B093F501A093F4018AE019
:1031F00090E0A0E0B0E08093F6019093F701A093F7
:10320000F801B093F901D093FF01C093FE0180E073
:1032100090E0A0E0BFE38093000290930102A093AE
:103220000202B09303028DEC9CECACECBDE3809306
:10323000040290930502A0930602B0930702109235
:1032400008021092090210920A0210920B021092C8
:103250000C0210920D0210920E0210920F0280E0EA
:1032600090E0AFE7B3EC8093100290931102A0932B
:103270001202B093130280E090E0AFE7B3E48093D2
:10328000140290931502A0931602B09317021092A5
:1032900020028FEF8093210282E28093220286E94E
:1032A0008093230288EE93E0A0E0B0E080932502B3
:1032B00090932602A0932702B0932802D0932E0267
:1032C000C0932D0284EF91E0A0E0B0E080932F0244
:1032D00090933002A0933102B093320210923802E0
:1032E0001092370288EB9BE0A0E0B0E080933902B7
:1032F00090933A02A0933B02B0933C021092420298
:10330000109241028091740690917506A091760604
:10331000B09177068093430290934402A0934502B4
:10332000B09346028091780690917906A0917A0632
:10333000B0917B068093470290934802A093490284
:10334000B0934A028BED9FE0A9ECBFE380934B0260
:1033500090934C02A0934D02B0934E0210924F02F4
:1033600010925002109251021092520280E090E0AE
:10337000A0E8BFE38093530290935402A0935502B8
:10338000B093560220E030E0C7E080E090E0C29FBA
:10339000B001C39F700D1124FC0143E0F595E79542
:1033A0004A95E1F7E60FF71FE95AFD4FDC01A770D8
:1033B000BB27A45EBE4F4C9140955081452340836E
:1033C00001968233910541F72F5F3F4F223331053C
:1033D000E1F61092EF031092EE031092FC031092AC
:1033E000FD031092FF031092FE03DF91CF911F9116
:1033F0000F91FF90EF90DF90CF90BF90AF909F9094
:103400008F907F906F905F904F903F902F90089596
:103410000E944A1A08F481E00895E89409C097FBD5
:103420003EF490958095709561957F4F8F4F9F4F9B
:103430009923A9F0F92F96E9BB279395F6958795DF
:1034400077956795B795F111F8CFFAF4BB0F11F4A2
:1034500060FF1BC06F5F7F4F8F4F9F4F16C0882349
:1034600011F096E911C0772321F09EE8872F762F7F
:1034700005C0662371F096E8862F70E060E02AF0C0
:103480009A95660F771F881FDAF7880F96958795AC
:1034900097F90895990F0008550FAA0BE0E8FEEF81
:1034A00016161706E807F907C0F012161306E40708
:1034B000F50798F0621B730B840B950B39F40A2601
:1034C00061F0232B242B252B21F408950A2609F4DF
:1034D000A140A6958FEF811D811D08950E94811A3C
:1034E0000C94F21A0E94E41A38F00E94EB1A20F0B1
:1034F000952311F00C94DB1A0C94E11A11240C940E
:10350000261B0E94031B70F3959FC1F3950F50E09B
:10351000551F629FF001729FBB27F00DB11D639F85
:10352000AA27F00DB11DAA1F649F6627B00DA11D2B
:10353000661F829F2227B00DA11D621F739FB00DD1
:10354000A11D621F839FA00D611D221F749F332741
:10355000A00D611D231F849F600D211D822F762FDA
:103560006A2F11249F5750409AF0F1F088234AF0B7
:10357000EE0FFF1FBB1F661F771F881F9150504023
:10358000A9F79E3F510580F00C94DB1A0C94261B82
:103590005F3FE4F3983ED4F3869577956795B795AA
:1035A000F795E7959F5FC1F7FE2B880F911D9695C4
:1035B000879597F9089597F99F6780E870E060E034
:1035C00008959FEF80EC089500240A9416161706BC
:1035D00018060906089500240A9412161306140604
:1035E00005060895092E0394000C11F4882352F067
:1035F000BB0F40F4BF2B11F460FF04C06F5F7F4F1F
:103600008F4F9F4F089557FD9058440F551F59F005
:103610005F3F71F04795880F97FB991F61F09F3FBF
:1036200079F087950895121613061406551FF2CFE8
:103630004695F1DF08C0161617061806991FF1CF38
:1036400086957105610508940895E894BB2766275F
:103650007727CB0197F908950E94371BA59F900DFE
:10366000B49F900DA49F800D911D11240895A29FD9
:10367000B001B39FC001A39F700D811D1124911D46
:10368000B29F700D811D1124911D08955058BB27C4
:10369000AA270E945E1B0C94F21A0E94E41A38F0CA
:1036A0000E94EB1A20F039F49F3F19F426F40C9491
:1036B000E11A0EF4E095E7FB0C94DB1AE92F0E9467
:1036C000031B58F3BA17620773078407950720F0A6
:1036D00079F4A6F50C94251B0EF4E0950B2EBA2F69
:1036E000A02D0B01B90190010C01CA01A001112408
:1036F000FF27591B99F0593F50F4503E68F11A16B4
:10370000F040A22F232F342F4427585FF3CF469544
:1037100037952795A795F0405395C9F77EF41F1666
:10372000BA0B620B730B840BBAF09150A1F0FF0F30
:10373000BB1F661F771F881FC2F70EC0BA0F621F1C
:10374000731F841F48F4879577956795B795F7950C
:103750009E3F08F0B0CF9395880F08F09927EE0FA1
:10376000979587950895DF93DD27B92FBF7740E8B8
:103770005FE31616170648075B0718F4D92F0E9457
:10378000FA1C9F938F937F936F930E94501DE8E6DE
:10379000F0E00E948F1C0E94F21A2F913F914F91EE
:1037A0005F910E94811ADD2351F09058A2EA2AED20
:1037B0003FE049EC5FE3D0785D270E945E1BDF911C
:1037C0000C94F21A0E94B81CE3950C94E11C0E9420
:1037D000FB1B0C94F21A0E94EB1A58F00E94E41A98
:1037E00040F029F45F3F29F00C94DB1A51110C943E
:1037F000261B0C94E11A0E94031B68F39923B1F372
:10380000552391F3951B550BBB27AA276217730706
:10381000840738F09F5F5F4F220F331F441FAA1F9A
:10382000A9F335D00E2E3AF0E0E832D09150504056
:10383000E695001CCAF72BD0FE2F29D0660F771F04
:10384000881FBB1F261737074807AB07B0E809F0EA
:10385000BB0B802DBF01FF2793585F4F3AF09E3F6F
:10386000510578F00C94DB1A0C94261B5F3FE4F3AF
:10387000983ED4F3869577956795B795F7959F5FB2
:10388000C9F7880F911D9695879597F90895E1E0FE
:10389000660F771F881FBB1F621773078407BA075D
:1038A00020F0621B730B840BBA0BEE1F88F7E095B8
:1038B00008950E94601C6894B1110C94261B089511
:1038C0000E940B1B88F09F5798F0B92F9927B7518A
:1038D000B0F0E1F0660F771F881F991F1AF0BA95B4
:1038E000C9F714C0B13091F00E94251BB1E00895D2
:1038F0000C94251B672F782F8827B85F39F0B93FC4
:10390000CCF3869577956795B395D9F73EF4909566
:103910008095709561957F4F8F4F9F4F0895DF93EE
:10392000CF931F930F93FF92EF92DF927B018C0155
:10393000689406C0DA2EEF010E94811AFE01E89415
:10394000A5912591359145915591A6F3EF010E94DE
:103950005E1BFE019701A801DA9469F7DF90EF90F2
:10396000FF900F911F91CF91DF9108950C94E11A70
:103970000E940B1BD8F3E894E0E0BB279F57F0F0C0
:103980002AED3FE049EC06C0EE0FBB0F661F771F24
:10399000881F28F0B23A62077307840728F0B25AEA
:1039A000620B730B840BE3959A9572F7803830F4B1
:1039B0009A95BB0F661F771F881FD2F790480C940B
:1039C000561DEF93E0FF07C0A2EA2AED3FE049EC65
:1039D0005FEB0E945E1B0E94F21A0F90039401FCA1
:1039E0009058E5E9F0E00C94691D0E944A1A08F429
:1039F0008FEF08959B01AC0160E070E080E89FE3E9
:103A00000C94E71B9F930E94B81C0F9007FCEE5F7D
:103A10000C94E11C19F416F40C94E11A0C94541D46
:103A20000E940B1BB8F39923C9F3B6F39F57550BAC
:103A300087FF0E94621D0024A0E640EA90018058A2
:103A40005695979528F4805C660F771F881F20F0A5
:103A500026173707480730F4621B730B840B2029A5
:103A600031294A2BA69517940794202531254A27FA
:103A700058F7660F771F881F20F02617370748076B
:103A800030F4620B730B840B200D311D411DA0958A
:103A900081F7B901842F9158880F969587950895DD
:103AA0009B01AC010C946E1A9F3F31F0915020F4B1
:103AB000879577956795B795880F911D969587950A
:103AC00097F9089591505040660F771F881FD2F7DD
:103AD00008959F938F937F936F93FF93EF939B0131
:103AE000AC010E946E1AEF91FF910E948F1C2F91E2
:103AF0003F914F915F910C946E1A97FB072E16F42D
:103B0000009407D077FD09D00E94F21D07FC05D074
:103B10003EF4909581959F4F0895709561957F4FE4
:103B20000895A1E21A2EAA1BBB1BFD010DC0AA1FFE
:103B3000BB1FEE1FFF1FA217B307E407F50720F016
:103B4000A21BB30BE40BF50B661F771F881F991F91
:103B50001A9469F760957095809590959B01AC01DA
:103B6000BD01CF010895052E97FB1EF400940E941D
:103B7000CA1D57FD07D00E94911D07FC03D04EF4CB
:103B80000C94CA1D50954095309521953F4F4F4F4D
:103B90005F4F089590958095709561957F4F8F4FF9
:103BA0009F4F0895B7FF0C942C1B0E942C1B821B67
:103BB000930B08950024A7FD00942A0F301D401D8B
:103BC000501D601D701D801D901D08950024A7FDCF
:103BD00000942A17300540055005600570058005E2
:103BE00090050895AA1BBB1B51E107C0AA1FBB1F6C
:103BF000A617B70710F0A61BB70B881F991F5A9579
:103C0000A9F780959095BC01CD010895EE0FFF1F97
:103C10000590F491E02D099481E090E0F8940C94E3
:063C2000111EF894FFCF15
:103C260002000000003F0500000000000000000048
:103C36000B014205D400B200C6005201010204087D
:043C4600102040808A
:00000001FF
