:100000000C94ED000C9415010C9415010C94150141
:100010000C9415010C9415010C9415010C94150108
:100020000C9415010C940F080C94B10C0C94230D36
:100030000C9415010C9415010C9415010C941501E8
:100040000C9415010C944E070C9415010C94150199
:100050000C9415010C9415010C9415010C948F044B
:100060000C9415010C9415010C9415010C941501B8
:100070000C9415010C9415010C9415010C941501A8
:100080000C9415010C9415010C9415010C94150198
:100090000C9489080C9415010C9415010C9415010D
:1000A0000C9415010C9447060C94150149034C035C
:1000B0003B033F0343036D036D036D035003540380
:1000C00058035E0362036D03680300000000240010
:1000D00027002A002D0030000000000200090F0058
:1000E00000030401000C00000000000000000000FC
:1000F0000000000000000000000000250028002B88
:10010000002E003100000000002300260029002CF2
:10011000002F000404040404030405020202020484
:100120000302020202060606060606040402020292
:1001300004040408020110408040102040804080E8
:10014000080204018040201002011080102040406D
:1001500020080B0002020201000904000001020253
:1001600000000524001001052401010104240206F9
:100170000524060001070581031000400904010061
:10018000020A000000070502024000000705830282
:100190004000000403090441726475696E6F204CCD
:1001A0004C430041726475696E6F204C656F6E61DF
:1001B00072646F001201000200000040412336808B
:1001C00000010102030112010002EF02014041237C
:1001D0003680000101020301C41511241FBECFEFB8
:1001E000DAE0DEBFCDBF11E0A0E0B1E0EAE6F5E382
:1001F00002C005900D92AC37B107D9F723E0ACE708
:10020000B1E001C01D92A937B207E1F710E0CDEED1
:10021000D0E004C02197FE010E946017CC3ED107B8
:10022000C9F70E94BE0F0C94B31A0C940000CF9330
:10023000DF931F92CDB7DEB76983DC01ED91FC91AE
:100240000280F381E02D41E050E0BE016F5F7F4FFF
:1002500009950F90DF91CF91089583E08093E90095
:100260008091F200882319F08AE38093E8000895D2
:10027000FC018485958597FD0BC09FB7F89482E0BB
:100280008093E9008091F2009FBF90E0019608956D
:100290009FB7F89482E08093E9008091F2009FBFBD
:1002A00090E008953FB7F89480910F02909110026A
:1002B000A0911102B091120226B5A89B05C02F3F54
:1002C00019F00196A11DB11D3FBFBA2FA92F982F7C
:1002D0008827820F911DA11DB11DBC01CD0142E0F7
:1002E000660F771F881F991F4A95D1F708952091AF
:1002F0001502309116022817390771F490911302F4
:1003000080911402981741F0E0911302F0E0E95354
:10031000FE4F808190E008958FEF9FEF089508953C
:100320001F93CF93DF93DC015C962D913C915D97F9
:100330002115310539F481E090E013969C938E935A
:1003400012973DC05196ED91FC91529750969C9119
:100350005097892F80951FB75E964C915E9741FB11
:10036000772770F941FD6095F8944081772311F06B
:10037000492B01C048234083E9012197F1F748E068
:10038000508160FF02C0592B01C058235083E901FE
:100390002197F1F76695415099F7772321F09081E5
:1003A0008923808303C08081982B90831FBF5C9634
:1003B0008D919C915D970197F1F721E030E0C901A3
:1003C000DF91CF911F91089520911502309116026F
:1003D0002817390771F4809114022091130290E0DC
:1003E000805C9F4F821B910960E470E00E944C1773
:1003F000089580E090E00895209115023091160252
:1004000028173907B9F490911302809114029817B4
:1004100089F0E0911302F0E0E953FE4F80812091D2
:10042000130230E02F5F3F4F2F73332720931302C7
:1004300090E008958FEF9FEF089585ED8093BC00C5
:100440008091BC0084FDFCCF10926B020895409116
:10045000A201262F30E0240F311D21323105DCF4BA
:1004600020916B022430C9F4FC0180E090E08617F3
:1004700058F43091A2012191DC01A058BE4FA30F86
:10048000B11D2C930196F3CF8091A201680F609368
:10049000A20180E0089581E0089582E00895089522
:1004A000E091380280913702E81730F4F0E0E95E1D
:1004B000FD4F808190E008958FEF9FEF0895909118
:1004C000380280913702981750F4E92FF0E0E95E86
:1004D000FD4F208130E09F5F9093380202C02FEFE4
:1004E0003FEFC90108958091370290E020913802D2
:1004F000821B91090895CF92DF92EF92FF920F93A2
:100500001F93CF93DF937C01262F972F8A01809131
:100510006C02882391F0C62FD72F6E01C40ED51E12
:10052000CC15DD0571F06991D701ED91FC91019039
:10053000F081E02DC7010995F3CF642F822F0E942F
:100540002702C801DF91CF911F910F91FF90EF908B
:10055000DF90CF900895CF93DF931F92CDB7DEB792
:10056000698320916C022223D1F020918F022032E6
:1005700040F021E030E0FC013383228380E090E012
:1005800015C080916D02E82FF0E0E259FD4F99818E
:1005900090838F5F80936D0280938F0205C061E02E
:1005A000CE0101960E94270281E090E00F90DF913A
:1005B000CF910895CF93DF931F92CDB7DEB7FC01A3
:1005C0008485958597FD05C02FEF3FEF35872487FC
:1005D0000BC0CE0101960E947D0A019719F4898112
:1005E00090E002C08FEF9FEF0F90DF91CF910895C1
:1005F0000F931F93CF93DF931F92CDB7DEB78C017C
:10060000FC018485958597FF0EC0CE0101960E945E
:100610007D0A019719F4298130E002C02FEF3FEFE6
:10062000F80135872487F801848595850F90DF913F
:10063000CF911F910F9108950E947819362F90E065
:10064000FC01E852FF4F4491FC01EE5CFE4F249107
:10065000FC01ED5EFE4F8491882309F451C04423D0
:10066000E1F150E0FA013197EF30F105B0F5EA5AC7
:10067000FF4F0C946017909180009F7707C0909176
:1006800080009F7D03C090918000977F90938000B1
:1006900024C094B59F7702C094B59F7D94BD1DC0C2
:1006A000909190009F7707C0909190009F7D03C02C
:1006B00090919000977F909390000FC09091C00010
:1006C0009F7703C09091C0009F7D9093C00005C0AC
:1006D0009091C200977F9093C200E82FF0E0EE0F58
:1006E000FF1FE950FF4FA591B4918FB7F894EC919B
:1006F000311103C020952E2301C02E2B2C938FBFC8
:100700000895CF93DF9390E0FC01EE5CFE4F2491BF
:10071000FC01ED5EFE4F8491882361F190E0880F2B
:10072000991FFC01E653FF4FC591D491FC01E9509C
:10073000FF4FA591B491611109C09FB7F8948881CA
:10074000209582238883EC912E230BC0623061F4C4
:100750009FB7F8943881822F809583238883EC910A
:100760002E2B2C939FBF06C08FB7F894E8812E2BB9
:1007700028838FBFDF91CF9108958F929F92AF9280
:10078000BF92CF92DF92EF92FF926B017C010E94A9
:1007900052014B015C01C114D104E104F104F1F0F8
:1007A0000E945201DC01CB0188199909AA09BB09F1
:1007B000883E9340A105B10570F321E0C21AD1082B
:1007C000E108F10888EE880E83E0981EA11CB11C98
:1007D000C114D104E104F10419F7DDCFFF90EF90CB
:1007E000DF90CF90BF90AF909F908F9008958F92A1
:1007F0009F92AF92BF92CF92DF92EF92FF920F93B0
:100800001F93CF93DF935C016B018A0180910B01F1
:10081000882309F45EC080914402882309F459C0FA
:1008200080916E0380FF05C08091E000826080931C
:10083000E000E8018AEFF82E93E0E92E2FE3822E04
:100840003AE3932E209709F43DC08FB7F894E092D5
:10085000E9009091E80095FF06C09091F200282DE4
:10086000291B922F01C090E08FBF91110AC0FA940A
:10087000FF2079F161E070E080E090E00E94BD032C
:10088000E1CF292F30E0C217D3070CF49C2F8FB78C
:10089000F894E092E9002091E80025FF11C0292F8B
:1008A00030E0C21BD30BF601915020F041914093F0
:1008B000F100FACFC20ED31E9091E80095FF13C04D
:1008C0008FBFC0CF5D9884E680936F03101611062A
:1008D00044F081E090E0F5019383828380E090E032
:1008E00005C0C80103C09092E800EACFDF91CF9124
:1008F0001F910F91FF90EF90DF90CF90BF90AF903E
:100900009F908F9008952FB7F89460910B0270918B
:100910000C0280910D0290910E022FBF08951F923C
:100920000F920FB60F9211242F933F938F939F93A3
:10093000AF93BF9380910B0290910C02A0910D0296
:10094000B0910E0230910A0223E0230F2D3720F4DC
:100950000196A11DB11D05C026E8230F0296A11D19
:10096000B11D20930A0280930B0290930C02A09376
:100970000D02B0930E0280910F0290911002A0918F
:100980001102B09112020196A11DB11D80930F02B8
:1009900090931002A0931102B0931202BF91AF91F5
:1009A0009F918F913F912F910F900FBE0F901F90AD
:1009B00018958F929F92AF92BF92CF92DF92EF9253
:1009C000FF92CF93DF93EC01EB81FC818D819E81BF
:1009D0004F01881A990A092C000CAA08BB08AB0120
:1009E000770F660B770B9A01AB012C593F4F4F4F96
:1009F0005F4FBF01680F791FCB01770FAA0BBB0BAD
:100A0000BC01CD01681979098A099B090E94091A5C
:100A100028EC30E040E050E00E943B1A820E931E2A
:100A2000A41EB51EC4012F8138852815390509F487
:100A30007AC020E2821622E092060CF03EC097FCBB
:100A400005C0853B91052CF4D40105C0A0E0B0E0C1
:100A500002C0A4EBB0E0898128E830E06901C81A3F
:100A6000D10887FDD394CC0CDD1CCC0CDD1C0D2CE7
:100A7000000CEE08FF088A8128E532E0281B3109C6
:100A800087FD3395220F331F220F331FA901330F28
:100A9000660B770B9A01AB012C193D094E095F09D2
:100AA0000E94651A24EB30E040E050E00E943B1ABF
:100AB000C20ED31EE41EF51E01C0640188818C3075
:100AC00080F5998148E850E0491B510997FD5395FD
:100AD000440F551F440F551FC416D50684F09A8144
:100AE00028E532E0291B310997FD3395220F331F8A
:100AF000220F331FA6012C153D050CF4A90142500D
:100B00005109440F551F2FB7F89490E0FC01EE0FE8
:100B1000FF1F8E0F9F1FFC01EC5CFC4F5283418333
:100B20002FBF98868F82DF91CF91FF90EF90DF905B
:100B3000CF90BF90AF909F908F9008958F929F928B
:100B4000AF92BF92CF92DF92EF92FF920F931F93DB
:100B5000CF93DF93CDB7DEB72C970FB6F894DEBFF7
:100B60000FBECDBF7C010E945E0AF7018481958192
:100B7000892B69F0C080D1806AE370E0C6010E94D1
:100B80008619009721F08C010C191D0902C00FEF86
:100B90001FEF980140E050E0B701CE0101960E949E
:100BA0006F0BCE0101960E94BB0A4B015C01CE0186
:100BB00001960E94550BF70124813581A8014F5FF2
:100BC0005F4FB701CE0101960E946F0B18861F82FE
:100BD0001A8619861C861B86BE016F5F7F4FCE0169
:100BE00007960E943E0B88E090E00E9481178C01DE
:100BF0007C01F2E0EF0EF11C6EE571E0C7010E948E
:100C00005A0BF80191828082BE01695F7F4FC70154
:100C10000E943E0BCE0107960E94550BCE01019615
:100C20000E94550BC8012C960FB6F894DEBF0FBE7C
:100C3000CDBFDF91CF911F910F91FF90EF90DF908B
:100C4000CF90BF90AF909F908F900895CF92DF92FA
:100C5000EF92FF920F931F93CF93DF938C016B0161
:100C60007A01EC0122966EE571E0CE010E945A0BEA
:100C7000F801D182C082B701CE01DF91CF911F91DF
:100C80000F91FF90EF90DF90CF900C943E0B1F924E
:100C90000F920FB60F9211242F933F934F935F93B0
:100CA0006F937F938F939F93AF93BF93EF93FF9334
:100CB000E0910802F09109020995FF91EF91BF912F
:100CC000AF919F918F917F916F915F914F913F91E4
:100CD0002F910F900FBE0F901F901895CF93DF9319
:100CE0001F92CDB7DEB7FC01808191E090936C023A
:100CF00080938E0210926D0210928F0288E293E030
:100D000049830E94AB024981642F88E293E00E94EC
:100D1000AB0281E00F90DF91CF910C94FC090F930F
:100D20001F93CF93DF9300D0CDB7DEB7152F032FDE
:100D3000FC01808191E090936C0280938E0210926E
:100D40006D0210928F02F4E06F9FB00111246A5F70
:100D50007F4F88E293E02A8349830E94AB02498156
:100D6000842F912F0E94590A812F90E00E94590AE6
:100D70002A81822F902F0E94590A802F90E00E9492
:100D8000590A81E00F900F90DF91CF911F910F9141
:100D90000C94FC090F931F93CF93DF938C012EEFDC
:100DA00031E0DB010E94661724E630E040E050E0CD
:100DB0000E943B1ADA01C9018F5F9109A109B109AB
:100DC000EC01F80160817181AC0197FF04C04427F8
:100DD0005527481B590B9A01332784E0220F331FF4
:100DE0008A95E1F7FB018381948140E050E06081C6
:100DF000CB960E948F061C161D0624F0CD2B21F4E5
:100E000094E003C091E001C092E0F801C081D1817B
:100E10009230B1F0943029F19130D9F58B819C81D9
:100E200020E030E040E050E06A81CB960E948F06DF
:100E30008B819C8120E030E040E050E1698122C05C
:100E40008B819C8120E030E040E050E06981CB96CE
:100E50000E948F068B819C8120E030E040E050E1D1
:100E600010C08B819C8120E030E040E050E069813F
:100E7000CB960E948F068B819C8120E030E040E081
:100E800050E06A81CB96DF91CF911F910F910C9426
:100E90008F06DF91CF911F910F9108951F920F92AE
:100EA0000FB60F9211242F933F934F935F936F933D
:100EB0007F938F939F93AF93BF93EF93FF93809113
:100EC000070287FF05C010928500109284001BC0A6
:100ED00020910702022E000C330B8091580390E002
:100EE0002817390784F480910702082E000C990B0B
:100EF000FC01EE0FFF1F8E0F9F1FFC01EC5CFC4FEF
:100F0000808186FD15C0809107028F5F8093070264
:100F100020910702022E000C330B8091580390E0C1
:100F200028173907C4F4809107028C3064F113C08C
:100F300080910702082E000C990BFC01EE0FFF1F99
:100F40008E0F9F1FFC01EC5CFC4F808160E08F7373
:100F50000E941E03D8CF8091840090918500049652
:100F600080349C4918F480E49CE905C08091840099
:100F700090918500049690938900809388008FEF6C
:100F8000809307023BC020918400309185008091BE
:100F90000702082E000C990BFC01EE0FFF1F8E0FAD
:100FA0009F1FFC01EC5CFC4F81819281820F931F9B
:100FB000909389008093880080910702082E000C8E
:100FC000990BFC01EE0FFF1F8E0F9F1FFC01EC5CC5
:100FD000FC4F808186FF12C080910702082E000C12
:100FE000990BFC01EE0FFF1F8E0F9F1FFC01EC5CA5
:100FF000FC4F808161E08F730E941E03FF91EF918F
:10100000BF91AF919F918F917F916F915F914F9120
:101010003F912F910F900FBE0F901F9018951F9228
:101020000F920FB60F9211242F933F934F935F931C
:101030006F937F938F939F93AF93BF93EF93FF93A0
:10104000E0911502F0911602309709F451C0968D87
:10105000A685B785858591FF04C09C91892329F4D5
:1010600047C09C91892309F043C0A389B4899C910E
:101070008589809589238C93868997890197F1F7D3
:10108000608D718DA685B785558538E020E0CB0150
:101090000197F1F7822F90E095958795282F4C9135
:1010A000452309F02068315091F7868D81FD209508
:1010B0008091140290E001968F739927309113026A
:1010C000381749F0A0911402B0E0A953BE4F2C93F9
:1010D0008093140203C0868D8160868F828D938DEC
:1010E0000197F1F7A389B4899C918589892B8C9309
:1010F000FF91EF91BF91AF919F918F917F916F91F0
:101100005F914F913F912F910F900FBE0F901F90C5
:1011100018951F920F920FB60F9211242F933F93A1
:101120004F935F936F937F938F939F93AF93BF93EF
:10113000EF93FF938091B900887F803609F49CC0BB
:1011400068F5883209F45BC090F4803109F454C02A
:1011500038F4882309F4F6C0883009F44DC0F6C08D
:10116000883109F44CC0803209F45DC0EFC080348E
:1011700009F468C048F4803309F455C0883309F095
:10118000E5C080936902D8C0803509F44FC0883526
:1011900009F45DC0883409F0D9C0D6C0883909F493
:1011A000C7C0A8F4883709F467C038F4883609F452
:1011B00063C0803709F460C0C9C0883809F4B8C07A
:1011C000803909F45FC0803809F0C0C05BC0803B43
:1011D00009F486C038F4803A09F466C0883A09F404
:1011E0007FC0B4C0803C09F4A7C0883C09F4A4C007
:1011F000883B09F48AC0AAC08091460210C0909131
:10120000680280916702981770F5E091680281E0AA
:101210008E0F80936802F0E0E95BFD4F8081809340
:10122000BB0085EC86C0809369028EC0E0916802A5
:1012300081E08E0F809368028091BB00F0E0E95B53
:10124000FD4F808390916802809167026EC0E091AB
:10125000680281E08E0F809368028091BB00F0E00D
:10126000E95BFD4F808380916A0281116DC081E04E
:101270008093450284EA61C083E080936B02109200
:10128000C601CFCF8091C601803208F051C0E091F5
:10129000C60181E08E0F8093C6018091BB00F0E013
:1012A000EA55FE4F8083BDCF85EC8093BC00109241
:1012B0006B028091C601803230F4E091C601F0E00B
:1012C000EA55FE4F10826091C60170E0E091A401E2
:1012D000F091A50186EA91E009951092C60136C009
:1012E00084E080936B021092A3011092A201E0911E
:1012F000A001F091A10109958091A201811105C081
:1013000081E08093A20110928001E091A30181E02D
:101310008E0F8093A301F0E0E058FE4F8081809310
:10132000BB009091A3018091A201981708F479CF96
:1013300085E88093BC000AC085EC8093BC001092C5
:101340006B0204C0109269020E941D02FF91EF918E
:10135000BF91AF919F918F917F916F915F914F91CD
:101360003F912F910F900FBE0F901F9018951092E4
:101370006B0281E080936A021092450261E082E094
:101380000E941E0361E083E00E941E03E9EBF0E08F
:1013900080818E7F808380818D7F808388E48093AD
:1013A000B80085E48093BC0008950F931F93CF93FA
:1013B000DF93EC0188819981009729F02A813B8194
:1013C0002617370788F48B016F5F7F4F0E94AE1896
:1013D000009761F0998388831B830A832C813D8168
:1013E000232B11F4FC01108281E001C080E0DF9129
:1013F000CF911F910F910895382F20918F029091D6
:101400008E02213208F049C080916B028111FCCF1D
:1014100042E040936B0230936A023FEF30936902DF
:101420001092680220936702AEE6B2E047E452E011
:10143000FA013E2F341B321718F43D913193F9CF46
:101440001092460220914602990F922B90934602E9
:1014500090914502913061F41092450290914602BC
:101460009093BB009091BC0093FDF8CF95EC01C028
:1014700095EE9093BC0090916B029230E1F39091C5
:1014800069029F3F79F080916902803241F080913A
:101490006902803331F084E005C081E003C082E05E
:1014A00001C083E010926D0210928F0210926C02C4
:1014B0000895682F88E293E00C94AB02CF93DF93FA
:1014C000E0919002F0919102DC0114964D915C91B3
:1014D00015976D917C910280F381E02D80E992E077
:1014E0000995EC016CE571E080E992E00E94600FE3
:1014F0008C0F9D1FDF91CF910895FC0180914402D4
:10150000811103C08FEF9FEF08959FB7F89482E099
:101510008093E9002091F20030E01216130614F4D3
:1015200021E030E02115310559F0289884E68093B8
:1015300043028091F10080838091F200882319F0AA
:101540009FBFC90108958BE68093E800F9CF809191
:10155000610381110DC082E080935D0384E080937C
:101560005E031092600310925F0381E08093610339
:101570008DE593E00895FC0180819181009711F041
:101580000C94981960E070E0CB010895EF92FF92FF
:101590000F931F93CF93DF93FC0124813581611555
:1015A000710511F480E019C041155105A9F07B01C6
:1015B000EC018A01020F131FB8010E94D50988238C
:1015C00089F3288139818C819D81B701820F931F16
:1015D0000E9491191D830C8381E0DF91CF911F91AF
:1015E0000F91FF90EF900895CF93DF93EC018881E6
:1015F0009981009711F00E941618198218821D8295
:101600001C821B821A82DF91CF910895EF92FF9284
:101610000F931F93CF93DF93EC017B018A01BA01F3
:101620000E94D509811104C0CE010E94F40A07C0AE
:101630001D830C83B701888199810E949119CE0185
:10164000DF91CF911F910F91FF90EF900895CF936D
:10165000DF93EC016115710559F0FB010190002049
:10166000E9F73197AF01461B570B0E94060B02C0EA
:101670000E94F40ACE01DF91CF910895CF93DF93BA
:10168000EC01FB018617970761F06081718161159C
:10169000710529F0448155810E94060B02C00E9409
:1016A000F40ACE01DF91CF910895FC0180819181F0
:1016B0000C941618FC01118210821382128215827A
:1016C00014826115710551F0FB0101900020E9F7CA
:1016D0003197AF01461B570B0C94060B0895BF9230
:1016E000CF92DF92EF92FF920F931F93CF93DF93EE
:1016F0007C016B018A01E9012417350720F4812F51
:101700008901C42FD82F6EE571E0C7010E945A0BE2
:10171000D60114968D919C91159708171907D0F44E
:101720008C179D0708F4EC01D601ED91FC911197FF
:10173000EC0FFD1FB08010824D915C91BA01600FDB
:10174000711FC7010E94270BD601ED91FC91EC0F90
:10175000FD1FB082C701DF91CF911F910F91FF90C4
:10176000EF90DF90CF90BF90089540917303509118
:101770007403209171033091720342175307B4F43C
:101780009091E8009570E1F39091E80092FD19C006
:101790008093F100809173039091740301968F738D
:1017A0009927892B19F48EEF8093E80080917303B9
:1017B000909174030196909374038093730381E076
:1017C000089580E00895CF92DF92EF92FF920F93F9
:1017D0001F93CF93DF931F92CDB7DEB7182F062F3D
:1017E000E42E862F880F8E5F99830E94B50B83E0CD
:1017F0000E94B50BF12EC12E9981D92E8C2D8F19F7
:10180000801798F4F601E7FE02C0849101C0808140
:101810000E94B50B182F80E00E94B50B8123FFEFCB
:10182000CF1ADF0A8111EACF01C081E00F90DF916A
:10183000CF911F910F91FF90EF90DF90CF9008957F
:10184000DF92EF92FF920F931F93CF93DF93D82EE7
:101850008A017B01E40EF51EEB01CE15DF0571F068
:10186000D7FE03C0FE01849101C088810E94B50BA0
:1018700021968111F2CF8FEF9FEF01C0C801DF9158
:10188000CF911F910F91FF90EF90DF9008956150DD
:1018900030F02091F100FC0120830196F8CF2898C8
:1018A00084E6809343020895CF92DF92EF92FF92F5
:1018B0000F931F93CF93DF936C017A018B01C0E0EC
:1018C000D0E0CE15DF0589F0D8016D918D01D601EC
:1018D000ED91FC910190F081E02DC6010995892BD5
:1018E00011F47E0102C02196ECCFC701DF91CF91A8
:1018F0001F910F91FF90EF90DF90CF9008950F937D
:101900001F93CF93DF931F92CDB7DEB782E0898319
:1019100042E450E061E571E080E80E94200C0E9402
:10192000A70ADC0112960D911C9113970115110560
:1019300069F0D801ED91FC910280F381E02DBE01A8
:101940006F5F7F4FC801099597FF07C089810F908E
:10195000DF91CF911F910F910895F80100851185B6
:10196000E5CF1F920F920FB60F9211248F939F9382
:101970008091E1009091E100937F9093E10083FFDB
:101980000FC01092E90091E09093EB001092EC00F0
:1019900092E39093ED001092440298E09093F0004F
:1019A00082FF20C093E09093E9009091F200992388
:1019B00019F09AE39093E80090916F03992339F01E
:1019C00090916F03915090936F03992389F19091B7
:1019D0004302992339F0909143029150909343022E
:1019E000992341F184FF10C08091E2008E7E8160D6
:1019F0008093E2008091E1008F7E8093E1008091EE
:101A00006E038E7E806111C080FF16C08091E2005F
:101A10008E7E80618093E2008091E1008E7E8093D3
:101A2000E10080916E038E7E816080936E0304C01E
:101A30005D9ACDCF289AD6CF9F918F910F900FBEF0
:101A40000F901F9018951F920F920FB60F921124AE
:101A5000CF92DF92EF92FF920F931F932F933F93BA
:101A60004F935F936F937F938F939F93AF93BF93A6
:101A7000EF93FF93CF93DF93CDB7DEB76C97DEBFC5
:101A8000CDBF1092E9008091E80083FFFAC168E0C1
:101A9000CE0145960E94470C82EF8093E8008D8925
:101AA00087FF05C09091E80090FFFCCF03C09EEF38
:101AB0009093E800982F907609F0C6C09E892F89F0
:101AC000188D91110CC0803829F480916D0380939A
:101AD000F10002C01092F1001092F10047C1422FB4
:101AE00050E0512B913051F4811140C141305105EA
:101AF00009F03CC180916D038D7F0BC0933061F480
:101B0000811134C14130510509F030C180916D031C
:101B1000826080936D032AC1953041F48091E80082
:101B200080FFFCCF20682093E30020C1963009F0AD
:101B30005FC0EB8CFC8C1092E90010927403109241
:101B40007303123091F510927203109271030E9488
:101B50007F0C99E0BE016F5F7F4FDB01E92F1D9283
:101B6000EA95E9F799831A8391E09E8390EA988732
:101B70009AEF99872091730330917403275F3F4F49
:101B80003C832B838D831092E90010927403109292
:101B90007303F0927203E092710349E050E080E039
:101BA0000E94200C0E947F0CE1C0F0927203E09230
:101BB00071030E94A70ADC011296ED90FC90139726
:101BC000E114F10409F4C0C0D701ED91FC91048047
:101BD000F581E02DBE016B5E7F4FC701099500972F
:101BE00019F00CF0C3C0C6C0F701E084F184E8CF5F
:101BF000973009F4BFC0983021F481E08093F10060
:101C0000B5C0993009F0B2C0837009F0B3C0E7E401
:101C1000F1E081E021E036E39081992361F0809347
:101C2000E9002093EB0091919093EC003093ED004C
:101C30008F5F873089F78EE78093EA001092EA0081
:101C40008F898093440292C08B8D9C8D1092E90005
:101C50001092740310927303909372038093710334
:101C6000898D811156C08E899D89913A59F48132AE
:101C700009F080C047E050E064E071E080E00E943D
:101C8000200C74C0913209F075C0833289F4888DBC
:101C900090E0982F88272F89822BA0E0B0E08093D6
:101CA000000190930101A0930201B09303015EC073
:101CB000803269F48091E80082FFFCCF67E084E025
:101CC00091E00E94470C8BEF8093E80006C08232BF
:101CD00009F04CC08F8980930B0180916C0388239D
:101CE00019F0EEEFFAE002C0E0E0F8E080910401C4
:101CF00090910501A0910601B0910701803B9440AD
:101D0000A105B10509F088C080910B0180FFA0C03A
:101D100083C00E94A70ADC0112960D911C911397B3
:101D20000115110539F1D801ED91FC910190F08177
:101D3000E02DBE016B5E7F4FC8010995811116C071
:101D4000F80100851185ECCF1130C1F0133091F40A
:101D50008F89882309F455C08230E9F440E860E1B6
:101D600083EA91E00E94E30B882321F08EEF8093B9
:101D7000E80087C081E28093EB0083C08B8D9C8D4F
:101D8000089711F41093700380917003811136C08D
:101D900064EB71E038C0813029F440E86BE087E9FA
:101DA00091E0E0CF833031F70E94A70ADC01129660
:101DB000ED90FC9013978E010F5F1F4F6801E114A7
:101DC000F10479F0D701ED91FC910680F781E02DC7
:101DD000B801C7010995080F111DF701E084F184CE
:101DE000EECFD8011C92F60101900020E9F731975F
:101DF000BF016C197D0940E0C601B4CF66EC71E00B
:101E000002C063E971E06115710509F4B3CFFB010C
:101E1000449150E080E833CF0FB6F894A8958091B4
:101E20006000886180936000109260000FBEA895EA
:101E3000EE3F2AE0F20739F08091FE0A9091FF0A06
:101E40009183808393CF1092FF0A1092FE0A8ECF67
:101E5000EE3F8AE0F80731F0808191819093FF0A8C
:101E60008093FE0A87E797E7918380839BE088E170
:101E70000FB6F894A895809360000FBE9093600011
:101E800075CF6C960FB6F894DEBF0FBECDBFDF9155
:101E9000CF91FF91EF91BF91AF919F918F917F91E2
:101EA0006F915F914F913F912F911F910F91FF90F3
:101EB000EF90DF90CF900F900FBE0F901F9018956E
:101EC0006115710579F0FB0101900020E9F7319768
:101ED000AF01461B570BDC01ED91FC910280F381B1
:101EE000E02D099480E090E008954F925F926F9208
:101EF0007F92EF92FF920F931F93CF93DF93CDB713
:101F0000DEB7A1970FB6F894DEBF0FBECDBF7C0140
:101F1000FA01CB0119A2223008F42AE08E010F5DEC
:101F20001F4F422E512C612C712CBF01A301920135
:101F30000E94191AF901CA01015011096A3014F4FA
:101F4000605D01C0695CD8016C93232B242B252B89
:101F500061F7B801C7010E94600FA1960FB6F8940F
:101F6000DEBF0FBECDBFDF91CF911F910F91FF90CC
:101F7000EF907F906F905F904F900895CF93DF9395
:101F8000CDB7DEB76E970FB6F894DEBF0FBECDBFEC
:101F9000789484B5826084BD84B5816084BD85B544
:101FA000826085BD85B5816085BD80916E00816050
:101FB00080936E00109281008091810082608093F6
:101FC00081008091810081608093810080918000F8
:101FD0008160809380008091910082608093910065
:101FE0008091910081608093910080919000816048
:101FF000809390008091C10084608093C1008091A3
:10200000C10082608093C1008091C1008160809393
:10201000C1008091C30081608093C3008091C000A3
:1020200082608093C0008091C20081608093C20072
:1020300080917A00846080937A0080917A00826037
:1020400080937A0080917A00816080937A008091F9
:102050007A00806880937A001092440210926D0397
:1020600010926E038091D70081608093D70080EA40
:102070008093D80089B5806189BD89B5826089BDAA
:1020800009B400FEFDCF61E070E080E090E00E94C6
:10209000BD038091D8008F7C80618093D8008091AF
:1020A000E000807F8093E0008091E1008E7E80934D
:1020B000E1008DE08093E200559A209AEEEFFFE771
:1020C000859194918B3F9C4D19F481E080936C0332
:1020D00010922403109225031092260310922703D6
:1020E0001092E2021092E3021092E4021092E502D2
:1020F00060ED77E080E090E00E94BD0380E992E02F
:1021000090932303809322030BE110E0F0900B01E6
:102110006AE070E080E090E00E94BD03F1100AC028
:102120000150110939F064E670E080E090E00E940F
:10213000BD03ECCFE0912203F09123030FEF1FEFDB
:10214000158704870E9483046093E2027093E30280
:102150008093E4029093E5026DE471E080912203A4
:10216000909123030E94600F6AE070E080E090E0AD
:102170000E94BD0381E08093F60210939D020093BC
:102180009C026FE571E080E992E00E94600F6CE5CF
:1021900071E080E992E00E94600FE0905B03F090B4
:1021A0005C03D7012D913C911197032E000C440B39
:1021B000550B12960D911C911397F801138E128EE8
:1021C000118E108E178A168A60E079E08DE390E018
:1021D0000E943B1AF9012430310518F0C901039718
:1021E00002C081E090E0D8015D969C938E935C974D
:1021F0001C968C9198EF980F943048F062EF680F1E
:10220000643028F066EE680F633008F07EC0B901D4
:10221000769567956431710518F06351710902C0B4
:1022200061E070E0D80157967C936E93569736978D
:1022300020F0B9016550710902C061E070E0F80159
:10224000718F608FB901660F771F260F371F369584
:102250002795369527952D30310518F02C503109EA
:1022600002C021E030E0D8015B963C932E935A9750
:10227000943058F092EF980F943038F08A518330B0
:1022800008F47AC4A0E0B0E079C4A8E6B0E0E8E6DB
:10229000F0E0808181608C93F801848598EF980F3D
:1022A000943058F022EF280F243038F026EE280F13
:1022B000233018F020E030E002C02BE630E0D801F7
:1022C00054963C932E935397943010F49CEF09C08E
:1022D0008E3071F08F3071F0803171F0813171F09A
:1022E0009AEE980F81E001C0880F9A95EAF707C02F
:1022F00088E005C082E003C084E001C081E0F8010D
:10230000858B848D958D0197F1F7D8015A968D9123
:102310009C915B97892B29F1E0911502F0911602AF
:10232000E017F107F1F0309739F0A389B4899C9157
:102330008589809589238C93F801868D8E7F868F81
:1023400010921402109213021093160200931502B9
:102350000388F489E02D9081D80155968C91892BC2
:102360008083F7018285938595878487E09159035F
:10237000F0915A0302811381D8011496ED90FC90DC
:102380001597F70180818C3008F052C061E089E038
:102390000E948103D7018C91E82FF0E09F01220F6A
:1023A000331FE20FF31FEC5CFC4F9081907C99602F
:1023B000908311961C92119712961C926CE00E94C9
:1023C0004017BCE08B9FB001112440E050E09A011F
:1023D000260F371FF901EE0FFF1F2E0F3F1FF901C8
:1023E000EC5CFC4F908196FD16C04F5F5F4F4C3008
:1023F000510569F781110FC01092800082E080932F
:1024000081001092850010928400B19A80916F0033
:10241000826080936F00D701EC91F0E0CF01880FCC
:10242000991FE80FF91FEC5CFC4F8081806480836A
:1024300060E070E0F801848195810E94D904D801A0
:10244000ED90FC90109238021092370210926D02BB
:1024500010928F020E94B7098701055C1F4F1092EE
:102460006D0210928F020E94B70940E060E0C8013F
:102470000E946E0680E496E0F7019283818383AD2B
:1024800091E090936C0280938E0210926D021092F4
:102490008F0260E088E293E00E94AB0281E00E943C
:1024A000FC09D701DB968C9190916B029111FCCFC6
:1024B00091E090936B0290936A022FEF2093690250
:1024C0001092680210926702909346029091460221
:1024D000880F892B8093460280914502813061F4F8
:1024E00010924502809146028093BB008091BC000F
:1024F00083FDF8CF85EC01C085EE8093BC00809110
:102500006B028130E1F380916802811103C08091F8
:10251000680201C081E0A7E4B2E027E132E0F901FE
:102520009E2F921B981718F49D919193F9CF1092BA
:1025300038028093370288E293E00E945F02F82E0F
:10254000482F4F76406160E0C8010E946E0643E06C
:102550006EEFC8010E946E064F2D60E0C8010E9418
:102560006E0665E070E080E090E00E94BD034F2DB4
:10257000416A60E0C8010E946E06F12C20E030E064
:1025800040E050E06F2DC8010E948F06F394B0E147
:10259000FB12F4CF84EB282E312C90E0892E90E0B2
:1025A000992E24EF422E55245394612C712C0E94B5
:1025B0008304672B682B692B41F40E9483046230EB
:1025C00071058105910508F40AC10E948304609396
:1025D0003F02709340028093410290934202009127
:1025E0003B0210913C0220913D0230913E02601767
:1025F00071078207930740F460933B0270933C029B
:1026000080933D0290933E0200913B0210913C0268
:1026100020913D0230913E026B017C01C01AD10A2B
:10262000E20AF30A970186010A3F110521053105E7
:1026300008F4D5C060933B0270933C0280933D0246
:1026400090933E024092EE025092EF026092F002AE
:102650007092F1021092F2021092F3021092F402C0
:102660001092F5028091E6029091E702A091E802B3
:10267000B091E9028093EA029093EB02A093EC02FE
:10268000B093ED020E9483046093E6027093E70228
:102690008093E8029093E9020E9483046093E2022F
:1026A0007093E3028093E4029093E5020E94830416
:1026B0006B017C0168E671E0809122039091230315
:1026C0000E94600F2AE041E050E060E070E08091FD
:1026D0002203909123030E94750F6FE671E08091B1
:1026E0002203909123030E94600F2AE0B701A60104
:1026F00080912203909123030E94750F61E771E09E
:1027000080912203909123030E94600F8091E60242
:102710009091E702A091E802B091E902B701A60109
:10272000481B590B6A0B7B0B2AE080912203909186
:1027300023030E94750F61E771E08091220390915D
:1027400023030E94600F4091E6025091E7026091DE
:10275000E8027091E9028091EA029091EB02A09167
:10276000EC02B091ED02481B590B6A0B7B0B2AE07F
:1027700080912203909123030E94750F63E771E01B
:1027800080912203909123030E94600F0E94830492
:10279000AB01BC012AE080912203909123030E94A7
:1027A000750F009122031091230365E771E0C801C2
:1027B0000E94600F6CE571E0C8010E94600F65E047
:1027C00070E080E090E00E94BD030E94830460936B
:1027D000E6027093E7028093E8029093E902009189
:1027E0005B0310915C03D80112968D919C91139715
:1027F000DC01ED91FC910480F581E02D0995892B98
:1028000009F4F4C0F80182859385958784878281D5
:102810009381DC01ED91FC910680F781E02D099513
:10282000F82EE0919002F09191020190F081E02D5C
:10283000682F80E992E00995BBE3FB1661F0F9820D
:102840001A8241E050E0BE016F5F7F4FC8010496DD
:102850000E94C60ACBC0E0905B03F0905C03B4E03A
:10286000EB0EF11C1A8219821C821B821E821D82B1
:10287000B701CE0101960E943E0BCE0101960E9447
:102880009E058C01CE0101960E94550B6EE571E00C
:10289000C7010E94270B10933A0200933902F801F6
:1028A000808191811C8A1B8A1E8A1D8A188E1F8A2C
:1028B0004AE0BE016F5F7F4F0E94BF19BE016F5F8C
:1028C0007F4FCE0143960E94270B1A8219821C82E9
:1028D0001B821E821D82BE016D5E7F4FCE0101965E
:1028E0000E943E0BFAE3F98F1A8E41E050E0BE01E0
:1028F000675E7F4FCE0101960E94C60A811104C017
:10290000CE0101960E94F40AF80146815781628146
:102910007381CE0101960E94C60A811104C0CE01C6
:1029200001960E94F40AFBE3F98F1A8E41E050E011
:10293000BE01675E7F4FCE0101960E94C60A8111DB
:1029400004C0CE0101960E94F40A1A8E198E1C8EC4
:102950001B8E1E8E1D8EBE016F5F7F4FCE0149966E
:102960000E943E0BCE0101960E94550BCE0143966C
:102970000E94550BCE0149960E945E0ACE014996EF
:102980000E94550B0091390210913A02D8018D91A5
:102990009C918230910509F4B8C08330910509F407
:1029A000C4C0019789F4E0905903F0905A03C8011C
:1029B00002960E94BB0AD7011296ED91FC911397E3
:1029C000828193810E94CA060115110539F0C80160
:1029D00002960E94550BC8010E941618E0915B03F5
:1029E000F0915C03828593859587848700E010E0F1
:1029F0004AE0BE016D5E7F4FC8010E94BF19BC0155
:102A0000CE0101960E945A0B88E090E00E94811747
:102A10007C01AE014F5F5F4F61E070E00E942606CF
:102A2000F0923A02E0923902CE0101960E94550BD3
:102A3000C0905903D0905A035701B2E0AB0EB11CBD
:102A4000C5010E94BB0AD6011296ED91FC91139725
:102A5000828193810E94CA06E114F10431F0C5011C
:102A60000E94550BC7010E9416184AE0BE016D5E18
:102A70007F4FC8010E94BF19BC01CE0101960E9480
:102A80005A0B88E090E00E9481177C01AE014F5FF5
:102A90005F4F62E070E00E942606F0923A02E092F8
:102AA0003902CE0101960E94550BA0905903B090B7
:102AB0005A036701B2E0CB0ED11CC6010E94BB0ACB
:102AC000D5011296ED91FC911397848195810E9416
:102AD000D904E114F10431F0C6010E94550BC7017D
:102AE0000E9416186EE170E080E090E00E94BD0345
:102AF0000F5F1F4F0436110509F07ACF811491043E
:102B000009F455CD0E94000052CDE0905903F09099
:102B10005A03C80102960E94BB0AD7011296ED9192
:102B2000FC9113978481958124C0E0905903F09023
:102B30005A03C80102960E94BB0AD7011296ED9172
:102B4000FC9113970480F581E02D748363839B01CE
:102B50006734710514F026E430E0A101461B570BE1
:102B6000421753070CF49A013683258360E070E026
:102B7000CF010E94D90428CFA8E6B0E0833008F442
:102B800086CBE0E0F0E085CBCF92DF92EF92FF9230
:102B90000F931F93CF93DF931092930210929202A0
:102BA00068EEC62E63E0D62EE12CF12CC092940282
:102BB000D0929502E0929602F09297028AE191E01B
:102BC00090939102809390028FEF9FEF90939D02DC
:102BD00080939C021092E6021092E7021092E802A3
:102BE0001092E9021092EA021092EB021092EC02AB
:102BF0001092ED021092EE021092EF021092F0028B
:102C00001092F1021092F2021092F3021092F4026A
:102C10001092F50210922B0310922A03C0922C03FB
:102C2000D0922D03E0922E03F0922F038AE291E0DE
:102C300090932903809328038EE090E00E948117EF
:102C40008C0180E895E2F801918380836EE571E064
:102C5000C80104960E945A0B88EB9BE0F801938709
:102C60008287158614868FE190E00E948117EC011F
:102C70001B821A82CC82DD82EE82FF828AE391E09F
:102C8000998388831F8A1E8A198E188E1B8E1A8E2E
:102C90001D8E1C8E6E8D6E7F6D7F6E8F6695617042
:102CA00081E068278BE00E941E0361E08BE00E94B8
:102CB0008103EDE3F1E0E491E88BEEE1F1E0E491F2
:102CC000F0E0EE0FFF1FE950FF4F859194919A8B32
:102CD000898B60E08AE00E9481038E8D81FD04C0B3
:102CE00061E08AE00E941E038AE08C87ECE3F1E059
:102CF000E491ED87EDE1F1E0E491F0E0EE0FFF1FEC
:102D0000EB5FFE4F859194919F878E87F801D38367
:102D1000C28310935C0300935B0386E090E00E9403
:102D200081177C0186E090E00E9481178C0189E088
:102D300090E00E948117DC0189E0FD0111928A95E3
:102D4000E9F7209158032C3098F481E0820F8093AA
:102D500058032C9330E0F901EE0FFF1F2E0F3F1F99
:102D6000F901EC5CFC4F88EB9BE09283818302C00D
:102D70008FEF8C938DE490E014969C938E93139731
:102D800086E490E016969C938E931597F801B58390
:102D9000A4838CE390E00E948117EC01AC014D5FAD
:102DA0005F4FDC0118964B96FA01148213821C9235
:102DB0009D0123503109F901108221503109F90197
:102DC0001082FA0110824A5F5F4F16964817590722
:102DD00059F71FA21AA61EA21DA21FAA1AAE1EAA4A
:102DE0001DAA80E688838BAFF801D183C0838C89CC
:102DF000811109C082E08C8BDB8BCA8B8F8784E0CA
:102E0000888B83E0898B82E090E00E9481172F9667
:102E1000FC01D183C083F80193838283F70113837C
:102E2000028381E090E00E948117F70195838483FB
:102E3000F0925A03E0925903809158038C30A0F429
:102E400091E0980F909358038093690390E0FC0100
:102E5000EE0FFF1F8E0F9F1FFC01EC5CFC4F88EBF9
:102E60009BE09283818303C08FEF80936903DF919E
:102E7000CF911F910F91FF90EF90DF90CF90089529
:102E8000991B79E004C0991F961708F0961B881FBC
:102E90007A95C9F78095089597FB072E16F400944C
:102EA00007D077FD09D00E946D1707FC05D03EF4CE
:102EB000909581959F4F0895709561957F4F0895E6
:102EC000EE0FFF1F0590F491E02D09940E94A41AC3
:102ED000B7FF0895821B930B0895AA1BBB1B51E1FA
:102EE00007C0AA1FBB1FA617B70710F0A61BB70B7A
:102EF000881F991F5A95A9F780959095BC01CD011F
:102F00000895CF93DF938230910510F482E090E032
:102F1000E0917703F091780320E030E0C0E0D0E06A
:102F2000309711F14081518148175907C0F0481777
:102F3000590761F482819381209719F09B838A83DA
:102F40002BC0909378038093770326C02115310519
:102F500019F04217530718F49A01BE01DF01EF017F
:102F60000280F381E02DDCCF2115310509F1281B0A
:102F7000390B2430310590F412968D919C91139762
:102F80006115710521F0FB019383828304C0909346
:102F9000780380937703FD01329644C0FD01E20F70
:102FA000F31F81939193225031092D933C933AC0A2
:102FB0002091750330917603232B41F420910E016B
:102FC00030910F01309376032093750320910C010B
:102FD00030910D012115310541F42DB73EB74091D7
:102FE000100150911101241B350BE0917503F091F4
:102FF0007603E217F307A0F42E1B3F0B28173907BF
:1030000078F0AC014E5F5F4F2417350748F04E0F44
:103010005F1F50937603409375038193919302C091
:10302000E0E0F0E0CF01DF91CF9108950F931F937F
:10303000CF93DF93009709F48CC0FC013297138281
:10304000128200917703109178030115110581F424
:1030500020813181820F931F209175033091760377
:103060002817390779F5F0937603E093750371C05B
:10307000D80140E050E0AE17BF0750F412962D91F2
:103080003C911397AD012115310509F1D901F3CF19
:103090009D01DA013383228360817181860F971F3E
:1030A0008217930769F4EC0128813981260F371FB5
:1030B0002E5F3F4F318320838A819B81938382835C
:1030C000452B29F4F0937803E093770342C01396DD
:1030D000FC93EE931297ED01499159919E01240FB3
:1030E000351FE217F30771F480819181840F951FDA
:1030F000029611969C938E938281938113969C9352
:103100008E931297E0E0F0E0D80112968D919C9199
:103110001397009719F0F8018C01F6CF8D919C91CF
:1031200098012E5F3F4F820F931F209175033091BE
:1031300076032817390769F4309729F41092780339
:103140001092770302C013821282109376030093C9
:103150007503DF91CF911F910F910895A0E0B0E02A
:10316000E4EBF8E10C94711AEC01009721F4CB0127
:103170000E948117B8C0FC01E60FF71F9C01225086
:103180003109E217F30708F4ACC0D9010D911C9185
:10319000119706171707B0F00530110508F49FC006
:1031A000C80104978617970708F499C002501109BF
:1031B000061B170B019311936D937C93CF010E9413
:1031C00016188DC05B01A01AB10A4C01800E911E29
:1031D000A0917703B091780340E050E0E12CF12C0E
:1031E000109709F44AC0A815B905D1F56D907C90E7
:1031F0001197630182E0C80ED11CCA14DB0480F170
:10320000A3014A195B096A0182E0C80ED11C12961B
:10321000BC9012971396AC91B5E0CB16D10440F058
:10322000B282A38351834083D9016D937C930AC0FA
:103230000E5F1F4FC301800F911FF901918380839F
:10324000EB2DFA2FE114F10431F0D7011396FC9322
:10325000EE93129744C0F0937803E09377033FC056
:103260008D919C9111974817590708F4AC017D0185
:1032700012960D90BC91A02DB3CF809175039091C3
:10328000760388159905E1F446175707C8F480912D
:103290000C0190910D01009741F48DB79EB74091BC
:1032A000100150911101841B950BE817F907C8F420
:1032B000F0937603E0937503F901718360830FC087
:1032C000CB010E9481177C01009759F0A801BE0133
:1032D0000E947D19CE010E941618C70104C0CE01BC
:1032E00002C080E090E0CDB7DEB7EEE00C948D1A1E
:1032F00081E090E0F8940C94B31AFB01DC0102C069
:1033000001900D9241505040D8F70895FC018191F1
:10331000861721F08823D9F7992708953197CF018F
:103320000895FB01DC0101900D920020E1F7089562
:103330001F93FC0199278827BC01E8941191103252
:10334000E9F3193010F01E30C8F31B3251F01D3272
:1033500049F4689406C00E94CA19610F711D811D4D
:10336000911D119110531A30B0F33EF49095809551
:10337000709561957F4F8F4F9F4F1F910895BB2789
:103380004A3031F4992322F4BDE2909581959F4F04
:103390000C94E019592F482F372F262F660F771FCF
:1033A000881F991F660F771F881F991F620F731F51
:1033B000841F951F660F771F881F991F0895BB27CD
:1033C000FB015527AA27880F991FAA1FA41710F0E1
:1033D000A41B83955051B9F7A05DAA3308F0A95DED
:1033E000A193009779F7B111B1931192CB010C948D
:1033F000F919DC01FC01672F71917723E1F732970E
:1034000004C07C916D9370836291AE17BF07C8F3BF
:103410000895DB018F939F930E945A1ABF91AF9139
:10342000A29F800D911DA39F900DB29F900D11241E
:103430000895A1E21A2EAA1BBB1BFD010DC0AA1FF5
:10344000BB1FEE1FFF1FA217B307E407F50720F00D
:10345000A21BB30BE40BF50B661F771F881F991F88
:103460001A9469F760957095809590959B01AC01D1
:10347000BD01CF010895052E97FB1EF400940E9414
:10348000521A57FD07D00E94191A07FC03D04EF4B8
:103490000C94521A50954095309521953F4F4F4FBF
:1034A0005F4F089590958095709561957F4F8F4FF0
:1034B0009F4F08950E94A41AA59F900DB49F900D50
:1034C000A49F800D911D11240895B7FF0C945A1AE2
:1034D0000E945A1A821B930B08952F923F924F928B
:1034E0005F926F927F928F929F92AF92BF92CF9294
:1034F000DF92EF92FF920F931F93CF93DF93CDB79D
:10350000DEB7CA1BDB0B0FB6F894DEBF0FBECDBF14
:1035100009942A88398848885F846E847D848C84E5
:103520009B84AA84B984C884DF80EE80FD800C81EE
:103530001B81AA81B981CE0FD11D0FB6F894DEBFD1
:103540000FBECDBFED010895A29FB001B39FC00192
:10355000A39F700D811D1124911DB29F700D811DBF
:0A3560001124911D0895F894FFCF87
:10356A00FFFFFFFF00E100000000000000007903F8
:10357A00800001000000000000001701F703380175
:10358A00DA02F8022D0100000000AB027B0273028E
:10359A005F0250024F02000000009001540CE40147
:1035AA00FC0177018F0100C18081000000564D4463
:1035BA0050565F317C315F564D4450560D0A0073A8
:1035CA00657475702E2E2E00564D4450455F003A94
:0C35DA00323A007C005F564D4450450022
:00000001FF
