:100000000C9499000C94C1000C94C1000C94C10094
:100010000C94C1000C94C1000C94C1000C942B06EC
:100020000C94C1000C94C1000C94C1000C94C1004C
:100030000C94C1000C94C1000C94C1000C94C1003C
:100040000C94E1050C94C1000C948A040C94640493
:100050000C94C1000C94C1000C94C1000C94C1001C
:100060000C94C1000C94C100084AD73B3BCE016EF2
:1000700084BCBFFDC12F3D6C74319ABD56833DDAFF
:100080003D00C77F11BED9E4BB4C3E916BAAAABE0E
:10009000000000803F05A84CCDB2D44EB93836A937
:1000A000020C50B9918688083CA6AAAA2ABE000074
:1000B00000803F0664EC1B3C04BC163E3BE5B93CAB
:1000C000C93C37C29E5A3D660498083EEA69AAAA0E
:1000D0003E000000803F00000000240027002A00AE
:1000E0000000000023002600290000000000250079
:1000F00028002B0004040404040404040202020285
:1001000002020303030303030102040810204080DA
:100110000102040810200102040810200000000859
:1001200000020100000304070000000000000000BE
:10013000BF1B11241FBECFEFD8E0DEBFCDBF11E043
:10014000A0E0B1E0E2EEF9E402C005900D92A43324
:10015000B107D9F727E0A4E3B1E001C01D92A839A7
:10016000B207E1F710E0C9E9D0E004C02197FE0131
:100170000E94CA24C839D107C9F70E94B6070C9457
:10018000EF240C940000CF92DF92EF92FF920F9336
:100190001F93CF93DF936C017A018B01C0E0D0E015
:1001A000CE15DF0589F0D8016D918D01D601ED9155
:1001B000FC910190F081E02DC6010995892B11F485
:1001C0007E0102C02196ECCFC701DF91CF911F9134
:1001D0000F91FF90EF90DF90CF9008950E94EA2456
:1001E000E8E3F1E0A089B18982E08C93A485B5852C
:1001F0001C92A685B7858FEC8C93108EA489B58947
:1002000086E08C93A289B3898C9180618C93A289BA
:10021000B3898C9188608C93A289B3898C91806812
:100220008C930288F389E02D80818F7D80830895EF
:10023000CF92DF92EF92FF920F931F93CF93DF93B2
:100240008B010358184FF801C081D1E0CD2701F18F
:100250009B01FC0189E0829FB001839F700D1124F6
:10026000DB01A75DB84FC080D180E280F3809A9611
:10027000CD92DD92ED92FC929D9784819E968C9317
:10028000685A784FCF0105960E94D006F801D083B6
:100290008C2FDF91CF911F910F91FF90EF90DF9006
:1002A000CF900895FC0121816281862F90E0A0E02B
:1002B000B0E0DC0199278827922B2081822B2381B3
:1002C000BC01CD01922B0895CF92DF92EF92FF9265
:1002D0006B017C0122EC38EB42E35FEB0E943F2391
:1002E00018167CF422EC38EB42E35FE3B601C70159
:1002F0000E94752187FD0AC032EC28EB92E38FE360
:1003000009C032EC28EB92E38FEB04C03C2D2D2D7D
:100310009E2D8F2D432F522F692F782F40936202ED
:1003200050936302609364027093650221EE3EE293
:1003300045E652E4B601C7010E944C232DEC3CEC8B
:100340004CEC5FEB0E944C2320E030E040EA52E4AA
:100350000E94DA200E94F121DB0177FD06C0653B97
:1003600071052CF0A4EBB0E002C0A0E0B0E0A093D7
:100370006702C09068022091690230E02C193109AF
:10038000D12CE12CF12CFE2CED2CDC2CCC24A90161
:10039000330F660B770B2227342F452F562F0E94E1
:1003A000AE2424EB30E040E050E00E948F24C701EF
:1003B000B601620F731F841F951F28E030E040E0F4
:1003C00050E00E948F2480916602893029F4309396
:1003D00089002093880004C030938B0020938A000A
:1003E000FF90EF90DF90CF9008954F925F926F92C1
:1003F0007F928F929F92AF92BF92CF92DF92EF92B5
:10040000FF92CF93DF93CDB7DEB72C970FB6F8945A
:10041000DEBF0FBECDBF3C012B014F3F8FEF580712
:1004200081F14130510509F00AC1DB01CD90DD9029
:10043000ED90FC90F30180809180A280B3802CEA43
:1004400035EC47E257E3C701B6010E94D9209B0172
:10045000AC01C501B4010E943F2387FD62C02CEAB4
:1004600035EC47E257E3C701B6010E94DA209B0151
:10047000AC01C501B4010E94752118160CF451C0DD
:100480002EC0DB011496CD90DD90ED90FC90179777
:10049000F30160817181828193819B01AC010E9493
:1004A000DA20D2012D913D914D915C910E94D9208D
:1004B00069837A838B839C83CD82DE82EF82F88688
:1004C00041E050E0BE016F5F7F4FC3010E94F50124
:1004D0006B017C01F7FAF094F7F8F094B0C0F301E7
:1004E0002481358146815781D20114966D917D9189
:1004F0008D919C9117970E943F2318164CF49BED09
:10050000C92E9FE0D92E99ECE92E9FE3F92E97C0D2
:1005100084EEC82E8BECD82E86E9E82E80E4F82EE7
:100520008EC0A5019401C701B6010E943F23181691
:100530000CF05FC0D20114968D919D910D90BC91ED
:10054000A02D89879A87AB87BC87F30144805580AB
:1005500066807780A3019201BC01CD010E943F23F8
:10056000A301920187FD2AC069857A858B859C85C8
:100570000E94D9202B013C01A5019401C701B601BD
:100580000E94D9209B01AC01C301B2010E947F21CE
:100590002C960FB6F894DEBF0FBECDBFDF91CF9182
:1005A000FF90EF90DF90CF90BF90AF909F908F9093
:1005B0007F906F905F904F900C94462169857A856B
:1005C0008B859C850E94D9202B013C01A5019401BB
:1005D000C701B6010E94D9209B01AC01C301B20141
:1005E0000E947F210E9446212BED3FE049EC50E420
:1005F00022C0D30114962D913D914D915C91179796
:10060000F20164817581868197810E94D9202B0136
:100610003C01A5019401C701B6010E94D9209B01AC
:10062000AC01C301B2010E947F210E9446212BED43
:100630003FE049E450E40E94DA206B017C01C701ED
:10064000B6012C960FB6F894DEBF0FBECDBFDF917A
:10065000CF91FF90EF90DF90CF90BF90AF909F90A1
:100660008F907F906F905F904F9008951F93CF93DE
:10067000DF934FEF50E061E07FEF0E945806EC01FE
:100680001D2F1095111F1127111F11F0BC0102C061
:1006900060E070E085E00E945105111105C06627F9
:1006A00077276C1B7D0B02C060E070E086E0DF9175
:1006B000CF911F910C945105089580E090E008952A
:1006C000FC01538D448D252F30E0842F90E0821B58
:1006D000930B541710F0CF96089501970895FC01DD
:1006E000918D828D981761F0828DDF01A80FB11D69
:1006F0005D968C91928D9F5F9F73928F90E008958D
:100700008FEF9FEF0895FC01918D828D981731F046
:10071000828DE80FF11D858D90E008958FEF9FEF9A
:100720000895FC01918D228D892F90E0805C9F4F70
:10073000821B91098F739927089588E391E00E94A5
:10074000910321E0892B09F420E0822F0895FC0118
:10075000848DDF01A80FB11DA35ABF4F2C91848D4A
:1007600090E001968F739927848FA689B7892C937F
:10077000A089B1898C9180648C93938D848D98131A
:1007800006C00288F389E02D80818F7D80830895E3
:10079000EF92FF920F931F93CF93DF93EC0181E0D1
:1007A000888F9B8D8C8D981305C0E889F98980818D
:1007B00085FD24C0F62E0B8D10E00F5F1F4F0F73C9
:1007C0001127E02E8C8DE8120CC00FB607FCFACF73
:1007D000E889F989808185FFF5CFCE010E94A703C2
:1007E000F1CF8B8DFE01E80FF11DE35AFF4FF08230
:1007F0000B8FEA89FB898081806207C0EE89FF89BF
:100800006083E889F98980818064808381E090E059
:10081000DF91CF911F910F91FF90EF900895CF93AB
:10082000DF93EC01888D8823C9F0EA89FB898081F8
:1008300085FD05C0A889B9898C9186FD0FC00FB6CA
:1008400007FCF5CF808185FFF2CFA889B9898C910B
:1008500085FFEDCFCE010E94A703E7CFDF91CF91B7
:10086000089580E090E0892B29F00E949D0381117A
:100870000C9400000895833081F028F4813099F0C1
:100880008230A1F008958730A9F08830B9F0843023
:10089000D1F4809180008F7D03C0809180008F779C
:1008A00080938000089584B58F7702C084B58F7DD2
:1008B00084BD08958091B0008F7703C08091B0000F
:1008C0008F7D8093B00008951F920F920FB60F9204
:1008D00011242F933F934F935F936F937F938F9345
:1008E0009F93AF93BF93EF93FF9388E391E00E94B0
:1008F000A703FF91EF91BF91AF919F918F917F914E
:100900006F915F914F913F912F910F900FBE0F907C
:100910001F9018951F920F920FB60F9211242F93CC
:100920008F939F93EF93FF93E0914801F0914901DA
:100930008081E0914E01F0914F0182FD12C09081C3
:10094000809151018F5F8F7320915201821751F076
:10095000E0915101F0E0E85CFE4F958F80935101EA
:1009600001C08081FF91EF919F918F912F910F9006
:100970000FBE0F901F901895CF93DF93282F30E074
:10098000F901E45EFE4F8491F901E85FFE4FD491D6
:10099000F901EC50FF4FC491CC2391F081110E94DA
:1009A0003B04EC2FF0E0EE0FFF1FE052FF4FA5914C
:1009B000B491EC91ED2381E090E021F480E002C05D
:1009C00080E090E0DF91CF9108951F93CF93DF9364
:1009D000282F30E0F901E45EFE4F8491F901E85FD1
:1009E000FE4FD491F901EC50FF4FC491CC23C9F0D4
:1009F000162F81110E943B04EC2FF0E0EE0FFF1F39
:100A0000E651FF4FA591B4918FB7F894111105C02D
:100A10009C91ED2FE095E92302C0EC91ED2BEC9336
:100A20008FBFDF91CF911F910895CF93DF9390E017
:100A3000FC01E85FFE4F2491FC01EC50FF4F8491D4
:100A4000882361F190E0880F991FFC01EA52FF4F63
:100A5000C591D491FC01E651FF4FA591B49161116C
:100A600009C09FB7F8948881209582238883EC91F0
:100A70002E230BC0623061F49FB7F8943881822F27
:100A8000809583238883EC912E2B2C939FBF06C0E7
:100A90008FB7F894E8812E2B28838FBFDF91CF91F9
:100AA00008951F93CF93DF93182FEB0161E00E940D
:100AB0001505209711F460E004C0CF3FD10539F44B
:100AC00061E0812FDF91CF911F910C94E504E12F1C
:100AD000F0E0E45EFE4FE491E330F9F048F4E130F9
:100AE000B9F0E230A1F584B5806284BDC8BD34C0E0
:100AF000E730E9F0E83019F1E43049F58091800001
:100B0000806280938000D0938B00C0938A0024C0C1
:100B100084B5806884BDC7BD1FC080918000806897
:100B200080938000D0938900C093880015C0809185
:100B3000B00080688093B000C093B3000DC0809176
:100B4000B00080628093B000C093B40005C0C0388C
:100B5000D1050CF0B5CFAFCFDF91CF911F910895A4
:100B60003FB7F8948091940790919507A0919607CC
:100B7000B091970726B5A89B05C02F3F19F00196A5
:100B8000A11DB11D3FBFBA2FA92F982F8827820F13
:100B9000911DA11DB11DBC01CD0142E0660F771F63
:100BA000881F991F4A95D1F708952FB7F89460913F
:100BB00090077091910780919207909193072FBFB2
:100BC00008951F920F920FB60F9211242F933F9307
:100BD0008F939F93AF93BF938091900790919107CC
:100BE000A0919207B091930730918F0723E0230FD4
:100BF0002D3720F40196A11DB11D05C026E8230F55
:100C00000296A11DB11D20938F07809390079093AA
:100C10009107A0939207B0939307809194079091C6
:100C20009507A0919607B09197070196A11DB11D58
:100C30008093940790939507A0939607B093970796
:100C4000BF91AF919F918F913F912F910F900FBEC8
:100C50000F901F9018951F920F920FB60F921124AC
:100C60002F933F934F935F936F937F938F939F93B4
:100C7000AF93BF93EF93FF93E0913401F09135016F
:100C80000995FF91EF91BF91AF919F918F917F91C6
:100C90006F915F914F913F912F910F900FBE0F90E9
:100CA0001F901895E0E7F0E080818D7F80830895A4
:100CB0006417750764F4681779071CF4841795079F
:100CC00074F4AB016817790754F4AC0108C04817F5
:100CD00059070CF4AC01641775070CF4AB01CA0199
:100CE0000895FF920F931F93CF93DF938C01EB0135
:100CF00020E030E040E053E4FC01608171818281BA
:100D000093810E944C2320E030E048E453E40E94A9
:100D10007F210E94F121DC01CB014FE750E060E828
:100D20007FEF0E945806F82E20E030E040E053E4C8
:100D3000F80164817581868197810E944C2320E0AF
:100D400030E048E453E40E947F210E94F121DC015D
:100D5000CB014FE750E060E87FEF0E945806F88231
:100D60008983DF91CF911F910F91FF90089520E02B
:100D700030E0F901EE51FE4F40815181938198237B
:100D80006281691303C04930510541F42C5F3F4F24
:100D90002432310571F789E090E00895CA01089581
:100DA000FB019C012C5F3F4FDC014D91CD01419334
:100DB000A217B307C9F70895CF92DF92EF92FF927F
:100DC0000F931F93CF93DF93FC0120853185232B55
:100DD000A9F0EC010E94D505C880D980EA80FB808B
:100DE0000C811D812E813F81C00ED11EE21EF31E9B
:100DF00021E06C157D058E059F0508F420E0822F0B
:100E0000DF91CF911F910F91FF90EF90DF90CF90E6
:100E100008958F929F92AF92BF92CF92DF92EF92FE
:100E2000FF920F931F93CF93DF930E94B005009121
:100E3000AA061091AB062091AC063091AD060617BC
:100E400017072807390718F40E9452064CC0E09192
:100E5000A406F091A50690818091A106892309F04E
:100E600042C00E9452060E94B0052091A80630910F
:100E7000A9066901E12CF12C0091AA061091AB069C
:100E80002091AC063091AD0646015701801A910AB7
:100E9000A20AB30A950184010D50110921093109F3
:100EA000600F711F821F931F60939C0670939D06B5
:100EB00080939E0690939F062091AE063091AF06D8
:100EC0004CE1429FE001439FD00D1124CA5CDA4FF0
:100ED00029E330E040E050E00E946D24398F288FF4
:100EE0001092B00626C08FEB96E00E94DC068823A5
:100EF00001F18091AE069091AF062CE1289FF001A0
:100F0000299FF00D1124EA5CFA4F88EC90E0918F54
:100F1000808F1092B006DF91CF911F910F91FF90BB
:100F2000EF90DF90CF90BF90AF909F908F900C94F8
:100F30005206DF91CF911F910F91FF90EF90DF90BC
:100F4000CF90BF90AF909F908F900895CF93DF93F5
:100F5000EC010E94D5056C837D838E839F8381E0A5
:100F600090E099878887DF91CF910895CF93DF93A1
:100F7000CDB7DEB7CF56D1090FB6F894DEBF0FBE9E
:100F8000CDBF789484B5826084BD84B5816084BD12
:100F900085B5826085BD85B5816085BD80916E0017
:100FA000816080936E001092810080918100826048
:100FB0008093810080918100816080938100809185
:100FC00080008160809380008091B1008460809374
:100FD000B1008091B00081608093B00080917A0070
:100FE000846080937A0080917A00826080937A0096
:100FF00080917A00816080937A0080917A00806885
:1010000080937A001092C1000E94F00048E050E006
:1010100068E271E088E391E00E94C30042E050E0A2
:1010200061E371E088E391E00E94C30088E391E00E
:101030000E940F041092790710927D0710927A0790
:1010400010927E0710927B0710927F0710927C0708
:10105000109280070E94F0001092490710924807F2
:1010600061E088E00E94150561E087E00E941505B7
:1010700061E08BE00E94150561E08AE00E941505A1
:10108000EEE4F5E088EC90E0958784879183808397
:1010900093838283958384839783868391878087D4
:1010A000938782877C9626E0EE39F20769F781E024
:1010B0008093B1061092B0068BE090E09093AF065B
:1010C0008093AE0684E090E09093B3068093B206DE
:1010D0001092BD0660E082E00E94150560E084E0A9
:1010E0000E94150560E083E00E94150560E08EE037
:1010F0000E94150560E08FE00E94150560E080E128
:101100000E94150560E081E10E94150560E082E122
:101110000E94150561E083E10E9415050E94D50536
:1011200060932C0570932D0580932E0590932F05C9
:10113000109231051092300510923205109233054D
:10114000109234051092350561E085E00E94150586
:1011500061E086E00E94150589E0809366028FEFCA
:101160008093670260E089E00E94E50461E080917D
:1011700066020E94150580913701811122C080917D
:10118000360181111EC02FB7F89482E08093800051
:101190008AE18093810088EB9BE0909389008093A3
:1011A000880090938B0080938A0080E49CE9909360
:1011B00087008093860080916F00887F80936F0006
:1011C0002FBF80916602893041F481E0809337011E
:1011D000809180008F73806807C081E08093360122
:1011E000809180008F7C80628093800060E070E05E
:1011F000CB010E94640110925E0210925F02109275
:10120000600210926102109289021092950210926F
:10121000940289E297E00E94DC06882309F42AC13F
:1012200085E397E00E94DC06811120C188E391E00C
:101230000E949103009709F4B5C04091480750916E
:10124000490729E030E0241B350B8C0128173907AA
:101250000CF48901A12CB12C912CF2E0EF2EF12C91
:10126000CC24C394D12CA016B1060CF06AC088E33C
:1012700091E00E946F032091770730917807213029
:10128000310541F122303105E1F1232B09F055C040
:101290002091480730914907F901E252FE4F9081B1
:1012A000891313C0A9014F5F5F4F509349074093C3
:1012B0004807F901E75DF84F868B44305105E9F5A1
:1012C000D0927807C092770738C0109249071092E1
:1012D000480733C02091480730914907A9014F5F63
:1012E0005F4F5093490740934807F901E75DF84F76
:1012F000868B4530510509F5F0927807E092770723
:101300001CC02091480730914907A9014F5F5F4FEA
:101310005093490740934807F901E75DF84F868BE2
:101320004930510551F41092490710924807109224
:10133000780710927707992493943FEFA31AB30A82
:1013400092CF992079F18091430780934E070E94B4
:10135000B706880F991F880F991FFC01EE51FE4FA9
:1013600080819181A281B38180934A0790934B073A
:10137000A0934C07B0934D07BE016F5F7F4F84E48D
:1013800097E00E94D0066FE477E0CE0101960E94BC
:10139000D00681E08093790780937A0780937B075A
:1013A00080937C076DE7E62E67E0F62E00E010E004
:1013B00075E0B72E6E0146E0C40ED11CD7018C91AA
:1013C000882309F446C01C92F801E75DF84FA6A4F3
:1013D000BE016F5F7F4F8EED91E00E94D006AD821F
:1013E000FE013196DE015C968B2D01900D928A955F
:1013F000E1F7FE017C96DE0191968B2D01900D9216
:101400008A95E1F7FE01B196DE0111968B2D0190D0
:101410000D928A95E1F7C801885A984FFE013196DE
:10142000DE01539621912D93EC15FD05D9F7BE01F0
:10143000685E7F4F0E94D00649E050E0BE016D5EBD
:101440007F4F88E391E00E94C30088E391E00E940F
:101450000F04BFEFEB1AFB0A075F1F4F04321105A1
:1014600009F0ACCF89E297E00E94A60785E397E0F8
:101470000E94A60786E395E00E94DC06882309F413
:101480002BC382E495E00E94DC06811121C3809188
:10149000B106882309F418C3E0914005F091410595
:1014A000E758F84F80818823A9F1108280914A077C
:1014B00090914B07A0914C07B0914D078093B406D3
:1014C0009093B506A093B606B093B70680914E07E9
:1014D0008093B80669EB76E08FE497E00E94D0062F
:1014E0008091B4069091B5060597A1F489EB96E03A
:1014F0000E94520121E0672B682B692B09F420E040
:101500002093BD06609140057091410585ED91E005
:101510000E9418018091B006882339F08FEB96E085
:101520000E94DC0681110C940D1B8091B006811184
:10153000CBC28091BD06882309F45FC08091BE06AE
:1015400081115BC00091AE061091AF0600FF55C03F
:10155000C80117FD0196959587959091FC01890F1B
:101560008093B8060E94B706880F991F880F991FAD
:10157000FC01EE51FE4F80819181A281B381809365
:10158000B4069093B506A093B606B093B706C8010B
:1015900043E0880F991F4A95E1F7BE016A5D7F4FCE
:1015A0008F53994F0E9471068091AE069091AF06BD
:1015B00053E0880F991F5A95E1F7BE01665F7F4F90
:1015C0008753994F0E9471062FA19A858B853EA162
:1015D00039832A839B838C8369EB76E0CE01019665
:1015E0000E94D006609140057091410584EB96E021
:1015F0000E94180181E08093BE062090AE063090D4
:10160000AF06EBE02E16310469F48091B20690919A
:10161000B306019665E070E00E9459249093B306EA
:101620008093B2062091B2063091B3063BAB2AAB51
:101630008CE1829DF001839DF00D1124EA5CFA4F4C
:10164000E08CF18CE114F10411F0670103C008ECA7
:10165000C02ED12C8EE0829DF001839DF00D1124CF
:101660004AA95BA9E40FF51FEE0FFF1FE05BFA4FDD
:10167000D182C08258ECE516F10419F0E0E0F1E007
:1016800002C0E6E0F1E08081918124969FAF8EAFA9
:10169000249782809380A480B5808CE1829DF001A4
:1016A000839DF00D1124EA5CFA4FA4A1B5A1BFA758
:1016B000AEA7BD01BB0F880B990B0E9429222B01FD
:1016C0003C0120E030E040E85FE3C501B4010E9446
:1016D000DA206AA77BA78CA79DA79B01AC01C30159
:1016E000B2010E944C230E94F1218B01A5019401BB
:1016F00060E070E080E89FE30E94D9204B015C012C
:101700009B01AC01C301B2010E944C230E94F12154
:10171000061717073CF0C616D7065CF00C151D051A
:1017200044F078C0C016D10624F06C157D050CF08D
:1017300071C08AA99BA9049665E070E00E945924B3
:101740002C0100E010E08EE0829DD001839DB00D61
:101750001124BBAFAAAF9701FF0C440B550B2A967F
:101760002CAF3DAF4EAF5FAF2A97EAA9FBA94E164B
:101770005F0609F445C024962EAD3FAD24970217AD
:101780001307F4F5EAADFBADE40DF51DEE0FFF1FF9
:10179000E05BFA4F608071802A966CAD7DAD8EADB6
:1017A0009FAD2A970E9429226EAB7FAB88AF99AF7D
:1017B0002AA53BA54CA55DA50E944C230E94F121C2
:1017C0007B01A50194016EA97FA988AD99AD0E9406
:1017D0004C230E94F121E616F70614F40C94291B01
:1017E0006616770614F00C94231B21E0C2010496C0
:1017F00065E070E00E9459242C01222309F4B5CF42
:1018000024968EAD9FAD249701970817190714F4FD
:10181000CEA4DFA48CE1829DF001839DF00D112404
:10182000EA5CFA4FD5A2C4A23CE1329DC001339DCF
:10183000900D1124AC014A5C5A4F7A01DA0194965A
:101840006D917C919597072E000C880B990B0E9447
:1018500029222B013C012BED3FE049EC5FE3F7012E
:1018600066A577A580A991A90E94DA204B015C01A9
:101870000E947A219B01AC01810163E0000F111FDE
:101880006A95E1F70A5C1A4F6801FDE6CF1AFEEF90
:10189000DF0AC301B2010E944C239B01AC01D701B6
:1018A00096966D917D918D919C9199970E94DA20E9
:1018B000F6016083718382839383C501B4010E9422
:1018C000B9239B01AC0109561E4FC301B2010E940E
:1018D0004C239B01AC01D7019A966D917D918D911E
:1018E0009C919D970E94DA20F80160837183828326
:1018F0009383C10101966CE070E00E94592490939B
:10190000AF068093AE061092BE062CE1289FF00130
:10191000299FF00D1124EA5CFA4F06891789602F80
:10192000617088E00E94E504B80176956795617062
:1019300087E00E94E504B8017695679576956795EE
:1019400061708BE00E94E504A3E016950795AA95C7
:10195000E1F7602F61708AE00E94E50481E08093E6
:10196000B0060E9452068FEB96E00E94A60781EC1B
:101970009CE29093A9068093A806E091A606F091B8
:10198000A70690818091A006892B8083E091A20612
:10199000F091A30690818091A00680958923808391
:1019A0008BE090E00197F1F7E091A206F091A30699
:1019B00090818091A006892B808383E290E001973B
:1019C000F1F7E091A206F091A30690818091A00624
:1019D000809589238083E091A606F091A7069081E7
:1019E0008091A006809589238083E091A406F091E0
:1019F000A50690818091A106892309F065C00E9407
:101A0000B0052091A8063091A906890120E030E0B8
:101A10000855194E2F4F3F4FDC01CB01800F911F0E
:101A2000A21FB31F8093AA069093AB06A093AC06A7
:101A3000B093AD06E091A406F091A5069081809147
:101A4000A106892381F40E94B0050091AA06109195
:101A5000AB062091AC063091AD0606171707280794
:101A6000390740F731C00E94B0052091A806309197
:101A7000A906DC01CB01820F931FA11DB11D80932C
:101A8000AA069093AB06A093AC06B093AD0689E08E
:101A900097E090933501809334010E945206809123
:101AA000B6008F7D8093B60082E08093B00084E022
:101AB0008093B1001092B20085E08093B3008091D2
:101AC000700082608093700086E395E00E94A60714
:101AD00082E495E00E94A60786E195E00E94DC067C
:101AE000882309F4D3C082E295E00E94DC068111CC
:101AF000C9C00E94D5056B017C0160E083E10E94B2
:101B0000E50482E10E94BC04082F81E10E94BC042C
:101B10008295880F880F807C182F30E8039F10195A
:101B2000112480E10E94BC04882E8FE00E94BC0436
:101B3000982E8EE00E94BC04A82E83E00E94BC0474
:101B4000082F84E00E94BC04B82E82E00E94BC04EE
:101B5000810F182F40E2849E100D112450E1959EB4
:101B6000100D112488E0A89E100D1124000F000F05
:101B7000010FBB0C0B0D002E000C110B61E083E17B
:101B80000E94E50440913005509131059801241BD5
:101B9000350BC90137FF04C088279927821B930B97
:101BA00081389105CCF0C90193953A95DC0197FFF6
:101BB00004C0AA27BB27A81BB90BF90137FF04C033
:101BC000EE27FF27E21BF30BEA17FB070CF4C90112
:101BD000BA01680F791F01C0B80180912C0590915E
:101BE0002D05A0912E05B0912F0546015701881AA9
:101BF000990AAA0ABB0AC0922C05D0922D05E09240
:101C00002E05F0922F0510933105009330058114B5
:101C10009104A104B10439F1641B750B072E000C6B
:101C2000880B990B0E94292220E030E046E155E420
:101C30000E947F2126E636E642EA51E40E944C23C8
:101C40006B017C01C501B4010E9427229B01AC01FC
:101C5000C701B6010E947F2120E030E04AE754E44A
:101C60000E944C2303C060E070E0CB01609332051A
:101C700070933305809334059093350586E195E0A4
:101C80000E94A60782E295E00E94A60786E092E005
:101C90000E94DC06882311F40C94091B82E192E077
:101CA0000E94DC0627968FAF279781110C94051BA5
:101CB000209132053091330540913405509135051E
:101CC00026962CAF3DAF4EAF5FAF26978091620254
:101CD00090916302A0916402B09165028AAB9BABC4
:101CE000ACABBDAB8CE392E00E94DC06882309F428
:101CF0002FC1C0905E02D0905F02E0906002F09031
:101D0000610220E030E0A901C701B6010E947521FF
:101D100081111FC020E030E040E85FEB26966CADFB
:101D20007DAD8EAD9FAD26970E943F2387FD11C0EC
:101D300020E030E040E85FE326966CAD7DAD8EADEF
:101D40009FAD26970E94752118161CF080E090E048
:101D5000F9C026962CAD3DAD4EAD5FAD2697C701BF
:101D6000B6010E94D9204B015C010E94D5056B0190
:101D70007C0110915A0200915B0230905C0220902D
:101D80005D02909156029EA7A0915702AAA7B0911A
:101D90005802BEABE0915902EAAF20914602309161
:101DA00047024091480250914902C501B4010E9486
:101DB0004C23209152023091530240915402509191
:101DC00055020E94DA2022966CAF7DAF8EAF9FAF96
:101DD000229720914E0230914F0240915002509133
:101DE0005102C501B4010E94D9202B013C01809110
:101DF000400290914102A0914202B0914302A7019A
:101E00009601281B390B4A0B5B0BCA01B9010E94D2
:101E100027229B01AC01C301B2010E947F212091C6
:101E20004A0230914B0240914C0250914D020E9467
:101E30004C239B01AC0122966CAD7DAD8EAD9FAD68
:101E400022970E94DA206B017C012EA53AA54EA9AB
:101E50005AAD612F702F832D922D0E943F231816AB
:101E600054F52EA53AA54EA95AADB601C7010E9458
:101E70003F2318162CF0BEA5AAA5FEA9EAAD04C002
:101E8000BC2DAD2DFE2DEF2D212F302F432D522DAA
:101E90006B2F7A2F8F2F9E2F0E94752187FF32C0C4
:101EA0002EA53AA54EA95AADB601C7010E943F23FF
:101EB00018168CF12CC0212F302F432D522DB60136
:101EC000C7010E943F2318161CF0D801F10104C07D
:101ED000BC2DAD2DFE2DEF2D2EA53AA54EA95AAD48
:101EE0006B2F7A2F8F2F9E2F0E94752187FF0FC097
:101EF000212F302F432D522DB601C7010E943F23C1
:101F000018164CF0C12ED02EE32CF22C04C0CEA417
:101F1000DAA4EEA8FAACC601D701809352029093DE
:101F20005302A0935402B093550280924E029092B5
:101F30004F02A0925002B0925102B601C7010E9416
:101F4000F121CB010E9436038CE392E00E94A607A8
:101F50008EED94E00E94DC06882309F4E3C10E9420
:101F6000D5050091E2041091E3042091E40430913E
:101F7000E504601B710B820B930B0E94272220E06B
:101F800030E04AE754E40E947F212B013C0120907D
:101F9000E8043090E90426968CAD9DADAEADBFADA2
:101FA0002697F10180879187A287B3872AA93BA949
:101FB0004CA95DA964857585868597850E947521E4
:101FC000882309F4F1C02AA93BA94CA95DA9D10134
:101FD0001C962D933D934D935C931F9720E030E02A
:101FE000A9016AA97BA98CA99DA90E943F2387FF0B
:101FF00003C00FEF1FEF02C001E010E0F101118BF1
:10200000008B20E030E0A9016AA97BA98CA99DA9D9
:102010000E943F23FF24F39418166CF42DEC3CEC43
:102020004CE45DE36AA97BA98CA99DA90E94752156
:10203000181664F00CC02DEC3CEC4CE45DEB6AA986
:102040007BA98CA99DA90E943F2387FDF12CF092CA
:10205000FE04F11081C06AA97BA98CA99DA90E94E8
:102060000B249B01AC0160E070E080EA91E40E94E7
:102070007F214B015C016093EA047093EB04809331
:10208000EC049093ED04B801110F880B990B0E949A
:1020900029226EA77FA788AB99AB20E030E040E013
:1020A00051E40E944C236AA77BA78CA79DA79B01A4
:1020B000AC01C501B4010E94DA206B017C019B01D7
:1020C000AC010E944C2323EC35EF48E354E40E941A
:1020D000DA200E94C7232EA53FA548A959A90E942E
:1020E0004C236093F2047093F3048093F404909370
:1020F000F5042AA53BA54CA55DA5C501B4010E9428
:10210000D9206093EE047093EF048093F0049093D1
:10211000F104C092FA04D092FB04E092FC04F09225
:10212000FD049B01AC010E944C2320E030E048EC10
:1021300053E40E94DA200E94C7232EA53FA548A998
:1021400059A90E944C236093F6047093F70480937E
:10215000F8049093F90428C01092F6041092F70442
:102160001092F8041092F9041092FA041092FB04F1
:102170001092FC041092FD041092EE041092EF04F1
:102180001092F0041092F1041092F2041092F304F1
:102190001092F4041092F5041092EA041092EB04E9
:1021A0001092EC041092ED048091FE04811172C033
:1021B00026962CAD3DAD4EAD5FAD2697C301B20165
:1021C0000E944C232091FA043091FB044091FC04BE
:1021D0005091FD040E947F21D10152962D913D9195
:1021E0004D915C9155970E94DA206B017C012BED9B
:1021F0003FE049EC50E40E943F2387FF06C0F10115
:10220000C28AD38AE48AF58A0FC02BED3FE049ECFD
:1022100050E4C701B6010E94D920D10152966D93B6
:102220007D938D939C935597F101C288D388E48860
:10223000F58820E030E0A901C701B6010E947521B0
:1022400087FF0FC02BED3FE049EC50E4C701B6011A
:102250000E94DA20D10152966D937D938D939C93C9
:102260005597F101C288D388E488F588C701B60183
:102270000E947A21D10156966D937D938D939C9304
:102280005997C701B6010E94B923F101628F738F7C
:10229000848F958FD10156962D913D914D915C91F2
:1022A000599726966CAD7DAD8EAD9FAD26970E9459
:1022B0004C23A30192010E944C239B01AC01F1012C
:1022C00060817181828193810E94DA20D1016D93B6
:1022D0007D938D939C9313975A962D913D914D919B
:1022E0005C915D9726966CAD7DAD8EAD9FAD2697CA
:1022F0000E944C23A30192010E944C239B01AC013C
:10230000F10164817581868197810E94DA20D10173
:1023100014966D937D938D939C9317978EED94E017
:102320000E94A60780918902882309F4CAC38AE81B
:1023300092E00E94DC06882309F461C2E0919602D3
:10234000F0919702FFA7EEA720E030E040E05EE3C7
:1023500064817581868197810E944C239B01AC0129
:1023600060E070E080E092E40E94D9206AA77BA739
:102370008CA79DA720E030E0A9010E94752187FD70
:1023800015C020E030E040E852E46AA57BA58CA5AA
:102390009DA50E943F2387FD11C080E090E0A0E84A
:1023A000BFEB8AA79BA7ACA7BDA708C020E030E081
:1023B00040E85FEB2AA73BA74CA75DA720E030E0F1
:1023C00040E05EE3AEA5BFA56D917D918D919C919E
:1023D0000E944C2320E030E040E052E40E94DA20EA
:1023E0006EAB7FAB88AF99AF20E030E0A9010E94CF
:1023F000752187FD15C020E030E040E852E46EA969
:102400007FA988AD99AD0E943F2387FD11C080E070
:1024100090E0A0E8BFEB8EAB9FABA8AFB9AF08C010
:1024200020E030E040E85FEB2EAB3FAB48AF59AF68
:10243000212C312CE091DC04F091DD04E20DF31D40
:1024400020813181428153812AAF3BAF4CAF5DAFD8
:10245000AEA5BFA556968D909D90AD90BC90599716
:10246000248135814681578122962CAF3DAF4EAFF6
:102470005FAF22975A96CD90DD90ED90FC905D97DE
:10248000A70196016AAD7BAD8CAD9DAD0E944C233A
:102490002B013C01A501940122966CAD7DAD8EAD62
:1024A0009FAD22970E944C239B01AC01C301B20156
:1024B0000E94DA20AEA5BFA52D913D914D915C9172
:1024C0000E94DA202B013C016AAD7BAD8CAD9DAD45
:1024D0009058A50194010E944C234B015C01A70177
:1024E000960122966CAD7DAD8EAD9FAD22970E9478
:1024F0004C239B01AC01C501B4010E94DA20EEA57A
:10250000FFA524813581468157810E94DA2020E091
:1025100030E040E05EE30E944C239B01AC0160E0B0
:1025200070E080E092E40E94D9204B015C0120E041
:1025300030E0A9010E94752187FD0AC020E030E04B
:1025400040E852E4C501B4010E943F2387FD06C064
:10255000812C912C40E8A42E4FEBB42E20E030E0EB
:1025600040E05EE3C301B2010E944C2320E030E072
:1025700040E052E40E94DA206B017C0120E030E070
:10258000A9010E94752187FD0AC020E030E040E8E3
:1025900052E4C701B6010E943F2387FD06C0C12C4B
:1025A000D12C30E8E32E3FEBF32E2AA53BA54CA51A
:1025B0005DA5C501B4010E94D9206AAF7BAF8CAF85
:1025C0009DAF2EA93FA948AD59ADC701B6010E94E4
:1025D000D92022966CAF7DAF8EAF9FAF22979B0123
:1025E000AC010E944C232B013C012AAD3BAD4CAD0C
:1025F0005DADCA01B9010E944C239B01AC01C3012E
:10260000B2010E94DA200E94C7232B013C0120E086
:1026100030E040E85FE30E943F2387FDE4C020E014
:1026200030E040E751E4C301B2010E947521181661
:102630000CF4D9C0C501B4010E94F821062FC701CE
:10264000B6010E94F821162F003458F5603448F581
:10265000462F4770A42FB0E0A45FBE4F28E0029F32
:10266000F0011124862F869586958695E80FF11D39
:10267000E656FD4F3C912081832F822390E0042E6B
:1026800002C0959587950A94E2F7892B51F430950D
:10269000232381E090E001C0880F4A95EAF7282BB8
:1026A00020838EA99FA9A8ADB9AD8093C80490934B
:1026B000C904A093CA04B093CB042AA53BA54CA59A
:1026C0005DA52093CC043093CD044093CE04509369
:1026D000CF0420E030E040E85FE3C301B2010E9494
:1026E000DA200E94F1217093D9046093D804072E58
:1026F000000C880B990B0E9429226B017C019B0125
:10270000AC0122966CAD7DAD8EAD9FAD22970E943F
:102710007F216093D0047093D1048093D20490936E
:10272000D304A70196016AAD7BAD8CAD9DAD0E942F
:102730007F216093D4047093D5048093D604909342
:10274000D7041092DB041092DA046091DA047091DD
:10275000DB048091D8049091D904681779070CF0B4
:1027600042C0CB0101969093DB048093DA04072EDC
:10277000000C880B990B0E9429224B015C012091CF
:10278000D4043091D5044091D6045091D7040E94CE
:102790004C232091CC043091CD044091CE04509133
:1027A000CF040E94DA200E94F821F62E2091D00456
:1027B0003091D1044091D2045091D304C501B401A9
:1027C0000E944C232091C8043091C9044091CA044E
:1027D0005091CB040E94DA200E94F821611348C76F
:1027E000F01246C7B2CF48E0240E311C50E6251641
:1027F000310409F01FCE8AE892E00E94A607E0911A
:102800001002F0911102E358F84F8081811159C1F3
:10281000809194029091950297FD4BC18230910571
:1028200084F0029709F045C100919A04B0909D048C
:1028300080919E0490919F04FE01B69610E07F0166
:10284000C4C0E0909602F090970220E030E040E0B3
:102850005EE3D70114966D917D918D919C911797B0
:102860000E944C239B01AC0160E070E080E092E4A8
:102870000E94D9202B013C0120E030E040E850E4E8
:102880000E944C234B015C0120E030E0A901C30110
:10289000B2010E94752187FD10C020E030E040E8C1
:1028A00053E4C501B4010E943F2387FF06C0C50160
:1028B000B4010E94F821162F01C010E020E030E0A2
:1028C00040E05EE3F70160817181828193810E9423
:1028D0004C2320E030E040E052E40E94DA204B013B
:1028E0005C0120E030E040E850E40E944C236B01A2
:1028F0007C0120E030E0A901C501B4010E947521EE
:1029000087FD10C020E030E040E853E4C701B60185
:102910000E943F2387FF06C0C701B6010E94F8212D
:10292000062F01C000E0C12ED12CE12CF12CFE2C91
:10293000ED2CDC2CCC242BED3FE049EC50E46091F5
:1029400030027091310280913202909133020E94E4
:102950007F2120E03FEF4FE757E40E944C230E9485
:10296000F121DB0199278827C82AD92AEA2AFB2ADC
:10297000C02A4091F2015091F3016091F4017091ED
:10298000F50149835A836B837C838B818D83CE824F
:10299000DF82E886F9864A875B876C877D878E872A
:1029A000BE01615F7F4FCE0106960E94D00682E095
:1029B00090E07BC0DC01A20FB11D3C9131931F5F01
:1029C0002F5F20939D04143021F020919D04283026
:1029D00088F380919D048830C1F510929D041123E5
:1029E000A1F181E0800F21E0803421F020E080938C
:1029F0009A0402C010929A0430919A0480919B0428
:102A000090919C04F8E03F9F800D911D11249093BC
:102A10009F0480939E04211118C0143009F051C600
:102A200014C0283070F4DC01A20FB11D4C91419309
:102A30002F5F20939D0420919D044E2F4C19431726
:102A400084F3283011F410929D0480910402800FC9
:102A50008D830E94B706880F991F880F991FFC016C
:102A6000EE51FE4F80819181A281B38189839A8347
:102A7000AB83BC83BE016A5F7F4FC7010E94D00653
:102A800089819A81AB81BC818A879B87AC87BD870E
:102A90008D818E87BE01615F7F4FCE0106960E94B9
:102AA000D006B11006C081E090E09093950280932B
:102AB00094026091100270911102CE010A960E9458
:102AC0001801E0911002F0911102E758F84F2081AF
:102AD0006E962FAF6E972223D9F0108280914A070D
:102AE00090914B07A0914C07B0914D078093FF0444
:102AF00090930005A0930105B093020580914E07C5
:102B00008093030564E075E08FE497E00E94D006AF
:102B100080911C0290911D028130910509F4E0C45E
:102B2000029709F06EC521EE3EE245E652E460915F
:102B300064057091650580916605909167050E9416
:102B40004C239B01AC016AA97BA98CA99DA90E9479
:102B5000D9206B017C0120E030E0A9010E943F23D5
:102B6000181624F0F7FAF094F7F8F094B0E8AB2ECA
:102B7000B5E0BB2E1FAA1EAA01E010E021EE3EE246
:102B800045E652E4D5016D917D918D919C910E9415
:102B90004C239B01AC016AA97BA98CA99DA90E9429
:102BA000D9202B013C0120E030E0A9010E943F2305
:102BB000181624F077FA709477F87094A7019601AC
:102BC000C301B2010E94752187FF04C01FAB0EAB89
:102BD000730162010F5F1F4FBCE1AB0EB11C0C30E3
:102BE000110561F68EA99FA995958795EEA9FFA974
:102BF0001C0136971CF0F3E02F0E311C62963FAE9D
:102C00002EAE629728E035E06D963FAF2EAF6D9700
:102C10001AAE1EAE2B961FAE2B972C961FAE2C977E
:102C200062962EAD3FAD6297C90101966CE070E0EF
:102C30000E94592462969FAF8EAF6297E3E0220F05
:102C4000331FEA95E1F72A5C3A4FF901ED56FE4F42
:102C500080819181A281B38167968CAF9DAFAEAF29
:102C6000BFAF67978093C8049093C904A093CA0428
:102C7000B093CB04349620813181428153816B968D
:102C80002CAF3DAF4EAF5FAF6B972093CC0430932A
:102C9000CD044093CE045093CF0462960EAD1FAD89
:102CA0006297F3E0000F111FFA95E1F70A5C1A4FE3
:102CB000F801E956FE4F60817181828193810E9403
:102CC000D9204B015C01F801ED56FE4F67962CAD03
:102CD0003DAD4EAD5FAD679760817181828193811B
:102CE0000E94D9206B017C019B01AC010E944C2306
:102CF0002B013C01A5019401C501B4010E944C23A4
:102D00009B01AC01C301B2010E94DA200E94C723DB
:102D100020E030E040E251E40E947F2120E030E0FA
:102D200040E85FE30E94DA200E94F12166307105DD
:102D30002CF47093D9046093D80406C045E050E0A9
:102D40005093D9044093D8040091D8041091D90429
:102D5000B801012E000C880B990B0E9429222B012F
:102D60003C019B01AC01C501B4010E947F21A296E8
:102D70006CAF7DAF8EAF9FAFA297A3019201C70149
:102D8000B6010E947F21A6966CAF7DAF8EAF9FAF3C
:102D9000A6976093D0047093D1048093D20490934B
:102DA000D304A2968CAD9DADAEADBFADA29780937E
:102DB000D4049093D504A093D604B093D704109272
:102DC000DB041092DA0463961FAE63976091DA0415
:102DD0007091DB04601771070CF0DBC2CB01019628
:102DE0009093DB048093DA04072E000C880B990B78
:102DF0000E9429226B017C019B01AC01A2966CAD63
:102E00007DAD8EAD9FADA2970E944C239B01AC017E
:102E10006B966CAD7DAD8EAD9FAD6B970E94DA2049
:102E20006AAB7BAB8CAB9DABA7019601A6966CAD54
:102E30007DAD8EAD9FADA6970E944C239B01AC014A
:102E400067966CAD7DAD8EAD9FAD67970E94DA2021
:102E50004B015C018091FE04882309F470C0A50138
:102E6000940160E070E080E091EC0E94D9206B0159
:102E70007C0120E030E0A9010E943F23181624F0D5
:102E8000F7FAF094F7F8F094A501940160E070E08F
:102E900080E091E40E94D9202B013C0120E030E049
:102EA000A9010E943F23181624F077FA709477F84E
:102EB000709420E030E040E051ECC501B4010E9484
:102EC0003F2387FD11C020E030E040E051E4C50120
:102ED000B4010E94752118163CF0812C912C70E8E9
:102EE000A72E7FEBB72E06C0812C912C60E8A62E72
:102EF0006FE3B62EA3019201C701B6010E947521AE
:102F000087FD05C0742D652D962D872D04C07C2D61
:102F10006D2D9E2D8F2D272F362F492F582FC50110
:102F2000B4010E944C234B015C0120E030E040E002
:102F300050E40E94752118160CF0D7C3D4C14090FC
:102F4000EA045090EB046090EC047090ED04D3011F
:102F5000C201B0588A879B87AC87BD871E861F86B3
:102F6000188A198AA3019201C501B4010E94DA20CE
:102F7000AA966CAF7DAF8EAF9FAFAA9769837A8315
:102F80008B839C8320E030E040E251E46AA97BA976
:102F90008CA99DA90E94DA204B015C016D837E8380
:102FA0008F839887A091E804B091E904AC96BFAFF5
:102FB000AEAFAC9750964D915C915197BE016F5F4B
:102FC0007F4FCE010A960E94F501E0966CAF7DAF6F
:102FD0008EAF9FAFE0972091EE043091EF044091C7
:102FE000F0045091F1042EA73FA748AB59AB20E065
:102FF00030E0A9016EA57FA588A999A90E943F2369
:10300000181654F08EA59FA5A8A9B9A9B0588AA7EB
:103010009BA7ACA7BDA708C02EA53FA548A959A945
:103020002AA73BA74CA75DA7C090F204D090F30459
:10303000E090F404F090F50420E030E0A901C7012D
:10304000B6010E943F23181624F0F7FAF094F7F81F
:10305000F094A3019201AA966CAD7DAD8EAD9FADAB
:10306000AA970E94DA209B01AC010E944C232B01FD
:103070003C01A5019401C501B4010E944C239B01B0
:10308000AC01C301B2010E94DA200E94C7234B01A8
:103090005C012AA53BA54CA55DA50E94D9206AAB81
:1030A0007BAB8CAB9DAB20E030E0A9010E943F23BD
:1030B00018164CF08AA99BA9ACA9BDA9B0588AAB37
:1030C0009BABACABBDABA7019601C501B4010E949F
:1030D000D9202B013C0120E030E0A9010E943F23D0
:1030E000181624F077FA709477F870942AA53BA507
:1030F0004CA55DA5C701B6010E943F2387FD0DC009
:103100002AA53BA54CA55DA5C501B4010E943F239E
:1031100087FD1CC0A70196010CC0A7019601C5013F
:10312000B4010E943F2387FD11C02AA53BA54CA5F1
:103130005DA5C501B4010E94752118163CF0C12C93
:10314000D12C50E8E52E5FEBF52E06C0C12CD12C1A
:1031500040E8E42E4FE3F42EA30192016AA97BA973
:103160008CA99DA90E94752187FD05C0742D652D30
:10317000962D872D04C07AA96BA99CA98DA9272F0C
:10318000362F492F582FC701B6010E944C234B01FF
:103190005C0120E030E040E050E40E947521181608
:1031A0000CF4A1C02EA53FA548A959A96091F60429
:1031B0007091F7048091F8049091F9040E94D9204D
:1031C0006B017C0120E030E0A9010E943F23A701B0
:1031D0009601181684F050582AA73BA74CA75DA764
:1031E000C301B2010E94752187FD0BC07AA56BA5B2
:1031F0009CA58DA50AC0C301B2010E94752187FF5D
:10320000A5C2742D652D962D872D272F362F492F7A
:10321000582F6AA97BA98CA99DA90E94752187FFB7
:103220002AC02EA53FA548A959A960E070E080EA10
:1032300091E40E947F210E9446212B013C0120E065
:1032400030E0A901C701B6010E943F23181624F0FF
:10325000F7FAF094F7F8F094A70196016AA97BA910
:103260008CA99DA90E947F219B01AC01C301B201E1
:103270000E944C230CC02EA53FA548A959A960E087
:1032800070E080EA91E40E947F210E9446219B0128
:10329000AC01E0966CAD7DAD8EAD9FADE0970E9428
:1032A000D9202091FA043091FB044091FC04509104
:1032B000FD040E944C23AC96AEADBFADAC97189602
:1032C0002D913D914D915C911B970E947F212D96F0
:1032D0006FAF2D972E967FAF2E972F968FAF2F978C
:1032E00060969FAF609720E030E040E050E4C50179
:1032F000B4010E94752118160CF468CD6396BFAD19
:103300006397BB2369F12AAD3EAD2B964FAD2B974A
:103310002C965FAD2C972D966FAD2D972E967FAD89
:103320002E972F968FAD2F9760969FAD60970E9436
:10333000752187FF4BCD2D96EFAD2D97EAAF2E96D9
:10334000FFAD2E97FEAF2F962FAD2F972B962FAF59
:103350002B9760963FAD60972C963FAF2C9736CD5C
:103360002D964FAD2D974AAF2E965FAD2E975EAF3F
:103370002F968FAD2F972B968FAF2B9760969FAD83
:1033800060972C969FAF2C97A1E06396AFAF6397A1
:103390001DCD6396BFAD6397BB2349F08AAD9EAD4B
:1033A0002B96AFAD2B972C96BFAD2C9703C080E02A
:1033B00090E0DC016D96EEADFFAD6D97819391933A
:1033C000A193B1936D96FFAFEEAF6D97E451F540C9
:1033D00009F026CC10911405EEA9FFA9E219F30912
:1033E000EE0FFF1FEE0FFF1FE85FFA4FC080D18086
:1033F000E280F380A7019601C701B6010E94752102
:103400008823D1F020E030E0A901C701B6010E9475
:103410003F2318168CF431E027963FAF27972DEC09
:103420003CEC4CE45FE3C701B6010E94752118161D
:103430001CF427961FAE279727968FAD2797812BD1
:103440008093140511114CC0882309F449C020E071
:1034500030E0A90126966CAD7DAD8EAD9FAD26976F
:103460000E943F2318166CF4E4E0F0E0E219F3093F
:10347000EE0FFF1FEE0FFF1FE85FFA4FA1E0B0E075
:103480000CC0E7E0F0E0E219F309EE0FFF1FEE0FCA
:10349000FF1FE85FFA4FAAE0B0E0A219B309AA0F34
:1034A000BB1FAA0FBB1FA85FBA4F2D913D914D9135
:1034B0005C9160817181828193810E943F23181603
:1034C0002CF462EC78EB82E39FE304C062EC78EBCF
:1034D00082E39FEB0E94640185E792E00E94A607C9
:1034E0006E964FAD6E97442309F455C08091FF044A
:1034F0009091000582309105D9F01CF4019739F0C4
:1035000045C083309105F9F0079731F13FC08091B4
:10351000150581113BC084E095E00E945201609343
:103520005E0270935F0280936002909361022EC0EE
:103530008091140581112AC084E095E00E94520117
:103540000E94640123C084E095E00E9452017093C0
:103550001D0260931C0212C084E095E00E9452019B
:1035600021E0672B682B692B09F420E02093890266
:10357000222321F08AE892E00E94A60760911002BF
:103580007091110285ED91E00E9418018BE692E0A6
:103590000E94A6070DC08BE692E00E94DC068823FD
:1035A00039F08FE792E00E94A60781E0809315052D
:1035B00080911405882361F085E792E00E94DC0683
:1035C000882331F010927E0210927D021092140531
:1035D000809115058823A9F08FE792E00E94DC0610
:1035E000882339F0109288021092870210921505F4
:1035F00008C010925E0210925F0210926002109258
:10360000610286E092E00E94A60782E192E00E94B9
:10361000A6070E9431040C9409098091AE0690918E
:10362000AF062CE1289FF001299FF00D1124EA5CE0
:10363000FA4F88EC90E0918F808F1092B0060E9434
:1036400052060C94950AE614F70414F40C94F50B46
:103650000AC06E147F0414F40C94F50B66157705FC
:1036600014F40C94F50B0F5F1F4F20E00C94F60B35
:103670003FE33F1508F469C8603408F066C8462F78
:103680004770A42FB0E0A45FBE4F6695669566951F
:1036900038E0F39EF0011124E60FF11DE656FD4FD0
:1036A0003C912081832F822390E002C095958795DD
:1036B0004A95E2F7892B09F448C8309523232083E3
:1036C00044C8AE014F5F5F4F6A01BA01C701810F65
:1036D000911D17FD9A950E94D00634E0311B809110
:1036E0009E0490919F04F601A6C920E030E0A90154
:1036F0006AA97BA98CA99DA90E943F2318162CF0CA
:103700002AE939E949E851EC04C02AE939E949E8EC
:1037100051E46AA97BA98CA99DA90E94D920E091B6
:10372000E804F091E90420853185428553850E94A3
:103730007F212D966FAF2D972E967FAF2E972F96C8
:103740008FAF2F9760969FAF6097D8CDA701960156
:103750006AA97BA98CA99DA90E94752187FF8BCDA1
:103760002EA53FA548A959A960E070E080EA91E440
:103770000E947F210E9446212B013C016DCD2F929A
:103780003F924F925F926F927F928F929F92AF92F1
:10379000BF92CF92DF92EF92FF920F931F93CF933E
:1037A000DF9310923B0110923A0188EE882E83E05D
:1037B000982EA12CB12C80923C0190923D01A092B8
:1037C0003E01B0923F0188E191E0909339018093EE
:1037D000380185EC90E0909345018093440184EC9E
:1037E00090E0909347018093460180EC90E09093A5
:1037F00049018093480181EC90E090934B018093C4
:103800004A0182EC90E090934D0180934C0186EC4C
:1038100090E090934F0180934E01109251011092CD
:10382000520110925301109254011092E301109230
:10383000E2011092E4012FEF2093E50181E090E096
:103840009093E7018093E60131E03093E801209303
:10385000E901C2E0D0E0D093EB01C093EA0142E07D
:103860004093EC012093ED0103E010E01093EF0191
:103870000093EE0143E04093F0012093F10144E016
:10388000242E312C3092F3012092F20145E0409336
:10389000F4012093F50155E0A52EB12CB092F7016B
:1038A000A092F60147E04093F8012093F90146E029
:1038B00050E05093FB014093FA0148E04093FC0133
:1038C00048EF4093FD0167E070E07093FF01609363
:1038D000FE0144E04093000220930102A8E0B0E022
:1038E000B0930302A093020240E44093040240EC30
:1038F000409305022093DE012093DF012093E00135
:103900004FE74093E10130938507109286071092AC
:1039100087071092880710928107109282071092F1
:103920008307109284074091E2015091E301609176
:10393000E4017091E5014093D5015093D601609365
:10394000D7017093D8011092D9011092DA01109228
:10395000DB011092DC011092DD016AE0862E912CD1
:10396000A12CB12C8092290790922A07A0922B07B4
:10397000B0922C07909332078093310748EE53E0C2
:1039800060E070E040933507509336076093370747
:103990007093380790933E0780933D07A091890765
:1039A000B0918A07B0933407A09333071092780739
:1039B000109277077FE0872E912CA12CB12C80925A
:1039C000360590923705A0923805B092390590934C
:1039D0003F0580933E0544E650E060E070E0409390
:1039E00042055093430560934405709345059093B9
:1039F0004B0580934A05AD014F5F5F4F50934105E2
:103A000040934005E4E1F1E0E491E093A006E5E1B4
:103A1000F1E0E491E093A10640E051E0FA01349135
:103A2000E32FF0E0EE0FFF1FE651FF4F6591749119
:103A30007093A3066093A206E1E0F1E0E491F0E068
:103A4000EE0FFF1FE052FF4F659174917093A50632
:103A50006093A406FA014491E42FF0E0EE0FFF1FFB
:103A6000EA52FF4F659174917093A7066093A60682
:103A700041EC5CE25093A9064093A806EAE08E2E42
:103A8000912CA12CB12C8092BF069092C006A092DE
:103A9000C106B092C2069093C8068093C7061092E2
:103AA000B10640E050E060E870E440935C0550935C
:103AB0005D0560935E0570935F05C12CD12CE12CF0
:103AC000F0E4FF2EC0926005D0926105E09262059D
:103AD000F092630544EB50EE6FE97FEB4093640591
:103AE0005093650560936605709367054BE050E061
:103AF00050934D0540934C0536E6832E982C36EEB8
:103B0000A32E30E4B32E8092780590927905A0928E
:103B10007A05B0927B0540E050E060E271E44093AA
:103B20007C0550937D0560937E0570937F05EBE9DE
:103B30008E2EECEB9E2EE4EAAE2EEEEBBE2E8092A5
:103B4000800590928105A0928205B0928305ECE0F9
:103B5000F0E0F0936905E0936805FAE98F2EF9E942
:103B60009F2EF9E1AF2EF0E4BF2E80929405909243
:103B70009505A0929605B0929705409398055093AD
:103B8000990560939A0570939B0510929C0510927D
:103B90009D0510929E0510929F0590938505809338
:103BA00084053AE9432E39E9532E39E1632E30EC8E
:103BB000732E4092B0055092B1056092B20570929A
:103BC000B3054093B4055093B5056093B605709363
:103BD000B7051092B8051092B9051092BA05109267
:103BE000BB05D093A105C093A005E6E68E2E982CC8
:103BF000E6EEAE2EE0ECBE2E8092CC059092CD0586
:103C0000A092CE05B092CF054093D0055093D10538
:103C10006093D2057093D3054BE95CEB64EA7EE3D5
:103C20004093D4055093D5056093D6057093D7057E
:103C30001093BD050093BC0540E050E060E870ECD7
:103C40004093E8055093E9056093EA057093EB050E
:103C5000C092EC05D092ED05E092EE05F092EF05F2
:103C6000F4EBCF2EF0EEDF2EFFE9EF2EFFE3FF2E79
:103C7000C092F005D092F105E092F205F092F305C2
:103C80003092D9052092D80540930406509305063A
:103C90006093060670930706C6E6CC2EDC2CEC2C4F
:103CA000C0E4FC2EC0920806D0920906E0920A06F3
:103CB000F0920B0642E05FE362EF7FE340930C0675
:103CC00050930D0660930E0670930F06D5E0AD2E4F
:103CD000B12CB092F505A092F40546E656E666EEE4
:103CE00070EC409320065093210660932206709357
:103CF000230640E050E060E271EC409324065093CC
:103D00002506609326067093270618E4812E18E78F
:103D1000912E14E3A12E10E4B12E809228069092E9
:103D20002906A0922A06B0922B0606E0A02EB12CFE
:103D3000B0921106A092100640923C0650923D06A9
:103D400060923E0670923F064093400650934106B3
:103D500060934206709343063BED432E3FE0532EA3
:103D600039E4632E30E4732E4092440650924506A7
:103D70006092460670924706E7E0F0E0F0932D0669
:103D8000E0932C06EAE98E2EE9E99E2EE9E1AE2EBB
:103D9000E0E4BE2E8092580690925906A0925A06F0
:103DA000B0925B0640935C0650935D0660935E069E
:103DB00070935F06409260065092610660926206C0
:103DC00070926306F8E0AF2EB12CB0924906A09233
:103DD0004806C6E68C2E982CC6EEAC2EC0E4BC2E4F
:103DE0008092740690927506A0927606B09277063D
:103DF000409378065093790660937A0670937B0619
:103E000048E458E764E370EC40937C0650937D06E9
:103E100060937E0670937F064DE050E050936506F8
:103E20004093640640E050E060E870E44093900600
:103E3000509391066093920670939306C0929406F5
:103E4000D0929506E0929606F092970642E05FE3E4
:103E500062EF7FEB409398065093990660939A0621
:103E600070939B064AE050E0509381064093800691
:103E7000DFE08D2E912CA12CB12C80921605909212
:103E80001705A0921805B092190590931F0580930D
:103E90001E0548EC50E060E070E04093220550932E
:103EA0002305609324057093250590932B0580933B
:103EB0002A05AD014E5F5F4F5093210540932005C9
:103EC00045E050E060E070E0409306025093070246
:103ED000609308027093090290930F0280930E0280
:103EE00042E350E060E070E040931202509313020E
:103EF000609314027093150290931B0280931A0230
:103F0000AD014C5F5F4F50938A074093890713962A
:103F1000B0931102A093100290931D0280931C0293
:103F200010921E0210921F02109220021092210283
:103F30001092220210922302109224021092250263
:103F40001092260210922702109228021092290243
:103F500010922A0210922B0210922C0210922D0223
:103F60004BED5FE069EC7FE3409330025093310208
:103F70006093320270933302109234021092350231
:103F8000109236021092370240E050E060E87FE382
:103F9000409338025093390260933A0270933B0287
:103FA0004AE050E060E070E040933C0250933D02F4
:103FB00060933E0270933F029093450280934402C7
:103FC00040E050E060E07FE34093460250934702B8
:103FD00060934802709349024DEC5CEC6CEC7DE31D
:103FE00040934A0250934B0260934C0270934D02EF
:103FF00010924E0210924F021092500210925102F3
:1040000010925202109253021092540210925502D2
:1040100040E050E06FE773EC409356025093570234
:10402000609358027093590240E050E06FE773E4E8
:1040300040935A0250935B0260935C0270935D025E
:10404000109266022093670232E23093680236E9EA
:104050003093690218EE812E13E0912EA12CB12C21
:1040600080926B0290926C02A0926D02B0926E02EE
:10407000909374028093730244EF51E060E070E02B
:1040800040937502509376026093770270937802A2
:1040900010927E0210927D0248EB5BE060E070E0DF
:1040A00040937F025093800260938102709382025A
:1040B000109288021092870244E650E060E070E0BF
:1040C00040938A0250938B0260938C0270938D020E
:1040D00090939302809392028EE192E090939702E4
:1040E0008093960220939A0420939D0489EC96E095
:1040F0009093DD048093DC0480E0E82FE770F0E02B
:10410000E45FFE4F90819095E82FE695E695E69561
:10411000F0E0E656FD4F20E030E040814923408347
:104120002F5F3F4F389620343105B9F78F5F8034C9
:1041300021F78AE992E090939C0480939B0410926B
:104140009A0490939F0480939E0410929D0482E3AE
:1041500090E0A0E0B0E08093DE049093DF04A093B1
:10416000E004B093E10481E090E09093E704809351
:10417000E6048EE192E09093E9048093E80481E004
:104180008093FE041092140510921505DF91CF91D3
:104190001F910F91FF90EF90DF90CF90BF90AF9065
:1041A0009F908F907F906F905F904F903F902F9057
:1041B00008955058BB27AA270E94F1200C94F122A1
:1041C0000E94B82238F00E94BF2220F039F49F3FAD
:1041D00019F426F40C948E220EF4E095E7FB0C946F
:1041E0008822E92F0E94162358F3BA176207730733
:1041F0008407950720F079F4A6F50C9438230EF483
:10420000E0950B2EBA2FA02D0B01B90190010C01E6
:10421000CA01A0011124FF27591B99F0593F50F4FE
:10422000503E68F11A16F040A22F232F342F442756
:10423000585FF3CF469537952795A795F04053954E
:10424000C9F77EF41F16BA0B620B730B840BBAF01E
:104250009150A1F0FF0FBB1F661F771F881FC2F789
:104260000EC0BA0F621F731F841F48F4879577959D
:104270006795B795F7959E3F08F0B0CF9395880F57
:1042800008F09927EE0F979587950895DF93DD271E
:10429000B92FBF7740E85FE31616170648075B079C
:1042A00018F4D92F0E9444239F938F937F936F9389
:1042B0000E940724E8E6F0E00E9491220E94F12289
:1042C0002F913F914F915F910E945F23DD2351F029
:1042D0009058A2EA2AED3FE049EC5FE3D0785D27F1
:1042E0000E94F120DF910C94F1220E94642208F4D4
:1042F00081E008950E94C822E3950C9402230E9455
:1043000093210C94F1220E94BF2258F00E94B822FF
:1043100040F029F45F3F29F00C94882251110C944D
:1043200039230C948E220E94162368F39923B1F34B
:10433000552391F3951B550BBB27AA2762177307CB
:10434000840738F09F5F5F4F220F331F441FAA1F5F
:10435000A9F335D00E2E3AF0E0E832D0915050401B
:10436000E695001CCAF72BD0FE2F29D0660F771FC9
:10437000881FBB1F261737074807AB07B0E809F0AF
:10438000BB0B802DBF01FF2793585F4F3AF09E3F34
:10439000510578F00C9488220C9439235F3FE4F3A4
:1043A000983ED4F3869577956795B795F7959F5F77
:1043B000C9F7880F911D9695879597F90895E1E0C3
:1043C000660F771F881FBB1F621773078407BA0722
:1043D00020F0621B730B840BBA0BEE1F88F7E0957D
:1043E00008950E94F8216894B1110C94392308951E
:1043F0000E941E2388F09F5798F0B92F9927B75134
:10440000B0F0E1F0660F771F881F991F1AF0BA9578
:10441000C9F714C0B13091F00E943823B1E008957B
:104420000C943823672F782F8827B85F39F0B93F6D
:10443000CCF3869577956795B395D9F73EF490952B
:104440008095709561957F4F8F4F9F4F0895E894A9
:1044500009C097FB3EF490958095709561957F4FCC
:104460008F4F9F4F9923A9F0F92F96E9BB2793957A
:10447000F695879577956795B795F111F8CFFAF48A
:10448000BB0F11F460FF1BC06F5F7F4F8F4F9F4FBB
:1044900016C0882311F096E911C0772321F09EE819
:1044A000872F762F05C0662371F096E8862F70E07F
:1044B00060E02AF09A95660F771F881FDAF7880F59
:1044C0009695879597F90895990F0008550FAA0BAF
:1044D000E0E8FEEF16161706E807F907C0F0121617
:1044E0001306E407F50798F0621B730B840B950B1A
:1044F00039F40A2661F0232B242B252B21F408956F
:104500000A2609F4A140A6958FEF811D811D08950B
:1045100097F99F6780E870E060E008959FEF80EC76
:104520000895DF93CF931F930F93FF92EF92DF9243
:104530007B018C01689406C0DA2EEF010E945F2394
:10454000FE01E894A5912591359145915591A6F3E9
:10455000EF010E94F120FE019701A801DA9469F7AA
:10456000DF90EF90FF900F911F91CF91DF91089511
:1045700000240A9416161706180609060895002442
:104580000A94121613061406050608950C948E223A
:104590000E941E23D8F3E894E0E0BB279F57F0F079
:1045A0002AED3FE049EC06C0EE0FBB0F661F771FF8
:1045B000881F28F0B23A62077307840728F0B25ABE
:1045C000620B730B840BE3959A9572F7803830F485
:1045D0009A95BB0F661F771F881FD2F790480C94DF
:1045E0003224092E0394000C11F4882352F0BB0FDF
:1045F00040F4BF2B11F460FF04C06F5F7F4F8F4FFB
:104600009F4F0895EF93E0FF07C0A2EA2AED3FE035
:1046100049EC5FEB0E94F1200E94F1220F9003947D
:1046200001FC9058E5E9F0E00C94452457FD9058C2
:10463000440F551F59F05F3F71F04795880F97FB66
:10464000991F61F09F3F79F0879508951216130620
:104650001406551FF2CF4695F1DF08C0161617064F
:104660001806991FF1CF8695710561050894089584
:10467000E894BB2766277727CB0197F908950E9416
:10468000642208F48FEF08959B01AC0160E070E0B4
:1046900080E89FE30C947F210E945F230C94F12219
:1046A0000E94B82238F00E94BF2220F0952311F01A
:1046B0000C9488220C948E2211240C9439230E948D
:1046C000162370F3959FC1F3950F50E0551F629F1D
:1046D000F001729FBB27F00DB11D639FAA27F00D5B
:1046E000B11DAA1F649F6627B00DA11D661F829F82
:1046F0002227B00DA11D621F739FB00DA11D621F67
:10470000839FA00D611D221F749F3327A00D611D83
:10471000231F849F600D211D822F762F6A2F112465
:104720009F5750409AF0F1F088234AF0EE0FFF1F98
:10473000BB1F661F771F881F91505040A9F79E3FEF
:10474000510580F00C9488220C9439235F3FE4F3E8
:10475000983ED4F3869577956795B795F795E79545
:104760009F5FC1F7FE2B880F911D9695879597F94E
:1047700008959F930E94C8220F9007FCEE5F0C944F
:10478000022319F416F40C948E220C9430240E9407
:104790001E23B8F39923C9F3B6F39F57550B87FF30
:1047A0000E943E240024A0E640EA900180585695DD
:1047B000979528F4805C660F771F881F20F02617D6
:1047C0003707480730F4621B730B840B202931290B
:1047D0004A2BA69517940794202531254A2758F788
:1047E000660F771F881F20F026173707480730F419
:1047F000620B730B840B200D311D411DA09581F7B9
:10480000B901842F9158880F9695879508959B013B
:10481000AC010C944C23DF93D92F0E94C822E6955B
:10482000D7952AED3FE049E45FE3B33A62077307A7
:1048300084079507D7953AF0A2EA49EC90680E9460
:10484000F1200E94F122E3EBF0E00E944524DD0F0D
:1048500013F00E944423DD0F0BF49058DF9108956C
:104860009F3F31F0915020F4879577956795B795E4
:10487000880F911D9695879597F90895915050400E
:10488000660F771F881FD2F708959F938F937F93AA
:104890006F93FF93EF939B01AC010E944C23EF9128
:1048A000FF910E9491222F913F914F915F910C9423
:1048B0004C2397FB072E16F4009407D077FD09D000
:1048C0000E94B62407FC05D03EF4909581959F4F39
:1048D0000895709561957F4F0895A1E21A2EAA1B45
:1048E000BB1BFD010DC0AA1FBB1FEE1FFF1FA217A0
:1048F000B307E407F50720F0A21BB30BE40BF50B9D
:10490000661F771F881F991F1A9469F76095709525
:10491000809590959B01AC01BD01CF010895052EB6
:1049200097FB1EF400940E94A62457FD07D00E9416
:104930006D2407FC03D04EF40C94A62450954095AA
:10494000309521953F4F4F4F5F4F0895909580953B
:10495000709561957F4F8F4F9F4F0895B7FF0C94CF
:10496000D0240E94D024821B930B0895AA1BBB1B4A
:1049700051E107C0AA1FBB1FA617B70710F0A61B5F
:10498000B70B881F991F5A95A9F780959095BC0180
:10499000CD010895EE0FFF1F0590F491E02D0994CD
:1049A0000E94DB24A59F900DB49F900DA49F800DC5
:1049B000911D11240895A29FB001B39FC001A39F30
:1049C000700D811D1124911DB29F700D811D112448
:1049D000911D089581E090E0F8940C94EF24F894F0
:0249E000FFCF07
:1049E20002000000003F0500000000000102040870
:1049F2001020408000000000C803C30060030F04C1
:104A020091036F0383030C0173657475702E2E2E50
:044A1200000D0A0089
:107E0000112484B714BE81FFF0D085E080938100F7
:107E100082E08093C00088E18093C10086E0809377
:107E2000C20080E18093C4008EE0C9D0259A86E02C
:107E300020E33CEF91E0309385002093840096BBD3
:107E4000B09BFECF1D9AA8958150A9F7CC24DD24C4
:107E500088248394B5E0AB2EA1E19A2EF3E0BF2EE7
:107E6000A2D0813461F49FD0082FAFD0023811F036
:107E7000013811F484E001C083E08DD089C08234E0
:107E800011F484E103C0853419F485E0A6D080C0E4
:107E9000853579F488D0E82EFF2485D0082F10E0AE
:107EA000102F00270E291F29000F111F8ED06801E7
:107EB0006FC0863521F484E090D080E0DECF843638
:107EC00009F040C070D06FD0082F6DD080E0C81688
:107ED00080E7D80618F4F601B7BEE895C0E0D1E017
:107EE00062D089930C17E1F7F0E0CF16F0E7DF06D8
:107EF00018F0F601B7BEE89568D007B600FCFDCFD4
:107F0000A601A0E0B1E02C9130E011968C91119780
:107F100090E0982F8827822B932B1296FA010C0160
:107F200087BEE89511244E5F5F4FF1E0A038BF0790
:107F300051F7F601A7BEE89507B600FCFDCF97BE46
:107F4000E89526C08437B1F42ED02DD0F82E2BD052
:107F50003CD0F601EF2C8F010F5F1F4F84911BD097
:107F6000EA94F801C1F70894C11CD11CFA94CF0C13
:107F7000D11C0EC0853739F428D08EE10CD085E9AC
:107F80000AD08FE07ACF813511F488E018D01DD067
:107F900080E101D065CF982F8091C00085FFFCCF94
:107FA0009093C60008958091C00087FFFCCF809118
:107FB000C00084FD01C0A8958091C6000895E0E648
:107FC000F0E098E1908380830895EDDF803219F02E
:107FD00088E0F5DFFFCF84E1DECF1F93182FE3DFCA
:107FE0001150E9F7F2DF1F91089580E0E8DFEE27F6
:047FF000FF270994CA
:027FFE00040479
:0400000300007E007B
:00000001FF