:100000000C94FC000C94CE050C94A7050C94800570
:100010000C9459050C9424010C9424010C94320581
:100020000C9424010C94C40A0C94720E0C94E00FEE
:100030000C9424010C9424010C9424010C942401AC
:100040000C9424010C94030A0C9424010C942401B4
:100050000C9424010C943E0B0C9424010C94E804A1
:100060000C9424010C9424010C9424010C9424017C
:100070000C9424010C9424010C9424010C9424016C
:100080000C9424010C9424010C9424010C9424015C
:100090000C9424010C9424010C9424010C9424014C
:1000A0000C9424010C9407090C9424010C030F03F5
:1000B000FE02020306033003300330031303170369
:1000C0001B032103250330032B03A703AC03B10358
:1000D000BB03C5030F040F040F04CF03D903E303CD
:1000E000ED03FA030F0402040000000025002800BD
:1000F0002B002E0031000000000023002600290004
:100100002C002F000404040404030405020202026C
:1001100004030202020206060606060604040202A0
:100120000204040408020110408040102040804076
:10013000800802040180402010020110801020403D
:10014000402000000000240027002A002D0030007D
:100150000000000200090F0000030401000C000071
:100160000000000000000000000000000000000887
:100170000B0002020201000904000001020200005B
:1001800005240010010524010101042402060524B0
:100190000600010705810310004009040100020A5E
:1001A000000000070502024000000705830240002E
:1001B000000403090441726475696E6F204C4C435E
:1001C0000041726475696E6F204C656F6E61726478
:1001D0006F00120100020000004041233680000140
:1001E0000102030112010002EF02014041233680A7
:1001F000000101020301D81A11241FBECFEFDAE07B
:10020000DEBFCDBF12E0A0E0B1E0EEE0F2E402C05C
:1002100005900D92A630B107D9F723E0A6E0B2E031
:1002200001C01D92A230B207E1F710E0CCEFD0E0A0
:1002300004C02197FE010E94401BCB3FD107C9F7A4
:100240000E941D120C9405210C940000CF93DF93A3
:100250001F92CDB7DEB76983DC01ED91FC9102807E
:10026000F381E02D41E050E0BE016F5F7F4F0995C3
:100270000F90DF91CF91089583E08093E900809102
:10028000F200882319F08AE38093E8000895FC01C6
:100290008485958597FD0BC09FB7F89482E0809385
:1002A000E9008091F2009FBF90E0019608959FB70A
:1002B000F89482E08093E9008091F2009FBF90E083
:1002C00008950895FC018481882349F022813381B7
:1002D0002115310511F0215031093383228308950E
:1002E0002091090230910A022817390771F4909180
:1002F000070280910802981741F0E0910702F0E0B0
:10030000ED5BFD4F808190E008958FEF9FEF0895A2
:1003100008951F93CF93DF93DC015C962D913C9160
:100320005D972115310539F481E090E013969C9397
:100330008E9312973DC05196ED91FC915297509635
:100340009C915097892F80951FB75E964C915E9730
:1003500041FB772770F941FD6095F8944081772340
:1003600011F0492B01C048234083E9012197F1F79F
:1003700048E0508160FF02C0592B01C058235083D0
:10038000E9012197F1F76695415099F7772321F01C
:1003900090818923808303C08081982B90831FBF25
:1003A0005C968D919C915D970197F1F721E030E08B
:1003B000C901DF91CF911F910895209109023091D9
:1003C0000A022817390771F4809108022091070268
:1003D00090E0805C9F4F821B910960E470E00E9476
:1003E0002C1B089580E090E008952091090230913F
:1003F0000A0228173907B9F4909107028091080280
:10040000981789F0E0910702F0E0ED5BFD4F8081E5
:100410002091070230E02F5F3F4F2F733327209347
:10042000070290E008958FEF9FEF08958F929F92BB
:10043000AF92BF92CF92DF92EF92FF920F931F93F2
:10044000CF93DF935C016B018A01809115018823B2
:1004500009F459C080919802882309F454C080910E
:10046000950280FF05C08091E00082608093E000EB
:10047000E8018AEFF82E93E0E92E2FE3822E3AE38B
:10048000932E2097C9F18FB7F894E092E9009091EC
:10049000E80095FF06C09091F200282D291B922FAD
:1004A00001C090E08FBF911106C0FA94FF2059F16E
:1004B0000E94200DE6CF292F30E0C217D3070CF49D
:1004C0009C2F8FB7F894E092E9002091E80025FF77
:1004D00011C0292F30E0C21BD30BF601915020F040
:1004E00041914093F100FACFC20ED31E9091E800E3
:1004F00095FF13C08FBFC5CF5D9884E680939602A9
:100500001016110644F081E090E0F5019383828398
:1005100080E090E005C0C80103C09092E800EACFF7
:10052000DF91CF911F910F91FF90EF90DF90CF90CF
:10053000BF90AF909F908F900895CF93DF931F92BD
:10054000CDB7DEB7FC018485958597FD05C02FEFFB
:100550003FEF358724870BC0CE0101960E943A0DEC
:10056000019719F4898190E002C08FEF9FEF0F90FF
:10057000DF91CF9108950F931F93CF93DF931F9235
:10058000CDB7DEB78C01FC018485958597FF0EC041
:10059000CE0101960E943A0D019719F4298130E0AD
:1005A00002C02FEF3FEFF80135872487F8018485DB
:1005B00095850F90DF91CF911F910F9108950E9423
:1005C000B61E362F90E0FC01E05BFE4F4491FC012B
:1005D000ED5DFE4F2491FC01EC5FFE4F849188237A
:1005E00009F451C04423E1F150E0FA013197EF30B2
:1005F000F105B0F5EA5AFF4F0C94401B9091800032
:100600009F7707C0909180009F7D03C090918000EC
:10061000977F9093800024C094B59F7702C094B5D3
:100620009F7D94BD1DC0909190009F7707C09091D1
:1006300090009F7D03C090919000977F90939000D1
:100640000FC09091C0009F7703C09091C0009F7D24
:100650009093C00005C09091C200977F9093C20014
:10066000E82FF0E0EE0FFF1FE851FF4FA591B49186
:100670008FB7F894EC91311103C020952E2301C05F
:100680002E2B2C938FBF0895CF93DF9390E0FC0126
:10069000ED5DFE4F2491FC01EC5FFE4F84918823B9
:1006A00061F190E0880F991FFC01EE5BFE4FC59150
:1006B000D491FC01E851FF4FA591B491611109C09B
:1006C0009FB7F8948881209582238883EC912E230C
:1006D0000BC0623061F49FB7F8943881822F809507
:1006E00083238883EC912E2B2C939FBF06C08FB75A
:1006F000F894E8812E2B28838FBFDF91CF91089546
:100700001F93CF93DF93182FEB0161E00E94440306
:10071000209711F460E004C0CF3FD10539F461E0C7
:10072000812FDF91CF911F910C94E102E12FF0E036
:10073000E05BFE4FE4914E2F50E0FA013197EF302D
:10074000F10508F06CC0EB59FF4F0C94401B84B5C9
:10075000806884BDC7BD68C084B5806284BDC8BDE3
:1007600063C080918000806880938000D09389006E
:10077000C093880059C0809180008062809380007F
:10078000D0938B00C0938A004FC080918000886016
:1007900080938000D0938D00C0938C0045C08091E1
:1007A0009000806880939000D0939900C093980047
:1007B0003BC080919000806280939000D0939B001A
:1007C000C0939A0031C0809190008860809390001F
:1007D000D0939D00C0939C0027C08091C00080688A
:1007E0008093C0008091C0008F7B8093C000C09335
:1007F000CF001AC08091C00080628093C000C09377
:10080000D00012C08091C20088608093C2008091A5
:10081000C2008B7F8093C200C093D20005C0C03855
:10082000D1050CF07CCF76CFDF91CF911F91089549
:100830003FB7F8948091910290919202A091930217
:10084000B091940226B5A89B05C02F3F19F00196E0
:10085000A11DB11D3FBFBA2FA92F982F8827820F46
:10086000911DA11DB11DBC01CD0142E0660F771F96
:10087000881F991F4A95D1F708954F925F926F9202
:100880007F928F929F92AF92BF92DF92EF92FF92F0
:100890000F931F93CF93DF93E0913502F0913602CF
:1008A00004811581780128E4E20EF11CF701A08093
:1008B000B1800E94180422E1D22EDA9CE001DB9C78
:1008C000D00D1124C00FD11F8E849F84A888B988B1
:1008D00086169706A806B90618F41092720068C02A
:1008E000E885F98590818D81892309F061C0109296
:1008F00072000E9418042C853D852901612C712C01
:100900008E849F84A888B988A30192012819390987
:100910004A095B0949015A013DE0831A9108A1087F
:10092000B108DC01CB01880D991DAA1DBB1D888370
:100930009983AA83BB83F801E55AFF4F0190F081A8
:10094000E02D80819181938382831482F701C0819D
:10095000D181DC9EF001DD9EF00D1124E00FF11F2E
:10096000608171818281938129E330E040E050E031
:100970000E94D420CC0FDD1FCC0FDD1FC00FD11F74
:10098000C55BDF4F211531054105510529F028834D
:1009900039834A835B8308C088EC90E0A0E0B0E034
:1009A00088839983AA83BB83F801E65BFF4F10829B
:1009B000DF91CF911F910F91FF90EF90DF90BF904B
:1009C000AF909F908F907F906F905F904F90089521
:1009D0001F920F920FB60F9211242F933F938F9374
:1009E0009F93AF93BF9380918D0290918E02A091BF
:1009F0008F02B091900230918C0223E0230F2D37AB
:100A000020F40196A11DB11D05C026E8230F029612
:100A1000A11DB11D20938C0280938D0290938E02B4
:100A2000A0938F02B09390028091910290919202D4
:100A3000A0919302B09194020196A11DB11D8093E3
:100A4000910290939202A0939302B0939402BF916B
:100A5000AF919F918F913F912F910F900FBE0F906B
:100A60001F9018951F920F920FB60F9211242F937B
:100A70003F934F935F936F937F938F939F93AF9326
:100A8000BF93EF93FF93E0910801F091090109955D
:100A9000FF91EF91BF91AF919F918F917F916F9156
:100AA0005F914F913F912F910F900FBE0F901F902C
:100AB00018951F920F920FB60F9211242F933F9308
:100AC0004F935F936F937F938F939F93AF93BF9356
:100AD000EF93FF93E0910601F09107010995FF91D3
:100AE000EF91BF91AF919F918F917F916F915F91A6
:100AF0004F913F912F910F900FBE0F901F9018951F
:100B00001F920F920FB60F9211242F933F934F9382
:100B10005F936F937F938F939F93AF93BF93EF9365
:100B2000FF93E0910401F09105010995FF91EF9188
:100B3000BF91AF919F918F917F916F915F914F91F5
:100B40003F912F910F900FBE0F901F9018951F92FD
:100B50000F920FB60F9211242F933F934F935F93F1
:100B60006F937F938F939F93AF93BF93EF93FF9375
:100B7000E0910201F09103010995FF91EF91BF917E
:100B8000AF919F918F917F916F915F914F913F9125
:100B90002F910F900FBE0F901F9018951F920F92DC
:100BA0000FB60F9211242F933F934F935F936F9340
:100BB0007F938F939F93AF93BF93EF93FF93E091B6
:100BC0000001F09101010995FF91EF91BF91AF9163
:100BD0009F918F917F916F915F914F913F912F9155
:100BE0000F900FBE0F901F901895FC01F894828112
:100BF0009381892B41F48081918193838283148234
:100C0000789481E00895789480E00895FC01F89448
:100C1000808191819383828381E084837894089595
:100C20002F923F924F925F926F927F928F929F92FC
:100C3000AF92BF92CF92DF92EF92FF920F931F93EA
:100C4000CF93DF93CDB7DEB762970FB6F894DEBFD0
:100C50000FBECDBF1C017E836D832F8338874987EC
:100C60005A87FC01EE55FE4F208131813C832B8356
:100C7000C90109966AE070E00E94181B9A83898373
:100C80008AE06D817E81869FA001879F500D11248F
:100C9000E981FA81E40FF51FEE0FFF1FEE0FFF1F32
:100CA000E20DF31DEE5FFE4FC080D180E280F38045
:100CB000420F531F440F551F440F551FCA01820D89
:100CC000931D988B8F87FC01EE59FF4F8080918098
:100CD000A280B380A985BA85AC59BF4FA701960100
:100CE0000E948A20E4E64E2E512C612C712CA30127
:100CF00092010E94D4202B873C874D875E87A4E613
:100D0000B0E0E985FA85AE1BBF0BA70196010E94F2
:100D10008A20A30192010E94D42089019A014B8567
:100D20005C856D857E85481559056A057B0530F023
:100D300080169106A206B30608F085C01A8A198AA1
:100D40008AE04D815E81849FF001859FF00D112422
:100D5000F88BEF8769817A818B819C81681779078D
:100D600061F1EF85F88969817A81E60FF71FEE0F4F
:100D7000FF1FEE0FFF1FE20DF31DEE59FF4F4081E5
:100D80005181628173818C149D04AE04BF0438F0DC
:100D90004B845C846D847E84D701C60104C0260127
:100DA0003701D901C801441655066606770608F1D1
:100DB000481759076A077B07E0F08F8198850197EC
:100DC000E989FA89E817F90720F18AE0AD81BE8147
:100DD0008A9FF0018B9FF00D11242B813C81E20F43
:100DE000F31FEE0FFF1FEE0FFF1F2E0E3F1EF10130
:100DF0002CC049895A894F5F5F4F5A8B498B898133
:100E00009A8109966AE070E00E94181B9A83898390
:100E1000A1CF8AE04D815E81849FF001859FF00D16
:100E200011246B817C81E60FF71FEE0FFF1FEE0F81
:100E3000FF1F2E0E3F1EF101EE5FFE4FC082D182DA
:100E4000E282F38208C0EF85F889EE5FFE4F808270
:100E50009182A282B38262960FB6F894DEBF0FBE73
:100E6000CDBFDF91CF911F910F91FF90EF90DF9059
:100E7000CF90BF90AF909F908F907F906F905F903A
:100E80004F903F902F900895CF92DF92EF92FF9274
:100E9000CF93DF93EC016A017B0185EE91E00E9424
:100EA000FE0B4AE0C701B6010E940B0C80EA91E0FC
:100EB0000E94D80BC882D982EA82FB82DF91CF914F
:100EC000FF90EF90DF90CF900895CF93DF93EC01E8
:100ED0002EE630E0DB010E94461B24E630E040E0D5
:100EE00050E00E946B20DA01C901C797A109B1093E
:100EF00099838883DF91CF9108956F927F928F922B
:100F00009F92AF92BF92CF92DF92EF92FF920F9398
:100F10001F93CF93DF93FC01C681D781888C998C76
:100F2000C4010E94F5058823D9F1C4010E94060678
:100F30006090840270908502809086029090870273
:100F4000B0918802A0918902F0918A02E0918B020F
:100F50009301A4016B2F7A2F8F2F9E2FAE80BF801D
:100F6000C884D984EA84FB840C851D850E94591BA2
:100F70002E873F87488B598B6A8B7B8B8C8B9D8B05
:100F80008C819D819F8B8E8BF8946E827F82888668
:100F90009986BA87AB87FC87ED871D821C8278947F
:100FA0006E897F89072E000C880B990B0E944E1FBB
:100FB00020E030E040EA51E40E94CF1B26E636E60E
:100FC00042EA51E40E94AD1F4B015C012E853F8532
:100FD000488959896A897B898C899D890E94771CF7
:100FE0009B01AC01C501B4010E94CF1B20E030E0A1
:100FF0004AE754E40E94AD1F0E94411CCB01DF91DF
:10100000CF911F910F91FF90EF90DF90CF90BF9005
:10101000AF909F908F907F906F900895EF92FF9286
:101020000F931F93CF93DF93CDB7DEB76A970FB6B9
:10103000F894DEBF0FBECDBF8C017B01FB01808128
:1010400091811C8A1B8A1E8A1D8A188E1F8A4AE07B
:10105000BE016F5F7F4F0E94FD1EBE016F5F7F4F1D
:10106000CE0143960E94E40D1A8219821C821B82D3
:101070001E821D82BE016D5E7F4FCE0101960E94D1
:10108000FB0D8AE3898F1A8E41E050E0BE01675E56
:101090007F4FCE0101960E94830D811104C0CE01C5
:1010A00001960E94B10DF7014681578162817381DB
:1010B000CE0101960E94830D811104C0CE010196DC
:1010C0000E94B10D8BE3898F1A8E41E050E0BE0182
:1010D000675E7F4FCE0101960E94830D811104C08F
:1010E000CE0101960E94B10DF80111821082138287
:1010F000128215821482BE016F5F7F4FC8010E9469
:10110000FB0DCE0101960E94120ECE0143960E9465
:10111000120EC8016A960FB6F894DEBF0FBECDBF9F
:10112000DF91CF911F910F91FF90EF9008958F92D3
:101130009F92AF92BF92EF92FF920F931F93CF9324
:10114000DF9300D000D000D0CDB7DEB77C01FC012A
:1011500084819581892B69F0A080B1806AE370E079
:10116000C5010E94C41E009721F08C010A191B09B9
:1011700002C00FEF1FEF980140E050E0B701CE0131
:1011800001960E942C0ECE0101960E94780D4B0113
:101190005C01CE0101960E94120EF7012481358177
:1011A00021503109A8014F5F5F4FB701CE01019671
:1011B0000E942C0E88E090E00E94BF1C8C017C01F4
:1011C000F2E0EF0EF11C6DEC71E0C7010E94170E0A
:1011D000F80191828082BE016F5F7F4FC7010E943C
:1011E000FB0DCE0101960E94120EC80126960FB685
:1011F000F894DEBF0FBECDBFDF91CF911F910F914D
:10120000FF90EF90BF90AF909F908F9008951F92A6
:101210000F920FB60F9211242F933F934F935F932A
:101220006F937F938F939F93AF93BF93EF93FF93AE
:10123000E0913102F09132020995FF91EF91BF9157
:10124000AF919F918F917F916F915F914F913F915E
:101250002F910F900FBE0F901F901895DC0170E03A
:10126000FB01ED5DFE4FE4911496EC93149750E072
:10127000FA01ED5DFE4FE4911596EC9315976C5FC6
:101280007E4FFB018491E82FF0E0EE0FFF1FE85145
:10129000FF4F8591949117969C938E931697FA0120
:1012A000EC5FFE4F449150E0440F551F4A505F4F92
:1012B000FA018591949119969C938E931897FB014E
:1012C0006491E62FF0E0EE0FFF1FEE5BFE4F85917D
:1012D00094911B969C938E931A972F5F3F4F49E3EF
:1012E000429FC001439F900D11248E38FFE69F0757
:1012F00010F08DE89FE61D969C938E931C970895A1
:10130000CF92DF92EF92FF92CF93DF93EC016032A6
:1013100082E078070CF03DC077FD06C0653B7105A3
:101320002CF064EB70E002C060E070E0898128E896
:1013300030E06901C81AD10887FDD394CC0CDD1CBC
:10134000CC0CDD1C0D2C000CEE08FF088A8128E572
:1013500032E0281B310987FD3395220F331F220FFE
:10136000331FC901330FAA0BBB0B9C01AD012C1914
:101370003D094E095F09DB010E94952024EB30E016
:1013800040E050E00E946B20C20ED31EE41EF51E0A
:10139000B60188818C3080F5998148E850E0491B7E
:1013A000510997FD5395440F551F440F551F64175E
:1013B000750784F09A8128E532E0291B310997FDF1
:1013C0003395220F331F220F331FAB012617370728
:1013D0000CF4A90142505109440F551F2FB7F8943E
:1013E00090E0FC01EE0FFF1F8E0F9F1FFC01E55FD9
:1013F000FD4F528341832FBFDF91CF91FF90EF903C
:10140000DF90CF9008951F920F920FB60F92112484
:101410002F933F934F935F936F937F938F939F93FC
:10142000AF93BF93EF93FF938091830287FF05C033
:1014300010928500109284001BC020918302022E1E
:10144000000C330B8091060290E02817390784F4D2
:1014500080918302082E000C990BFC01EE0FFF1FF8
:101460008E0F9F1FFC01E55FFD4F808186FD15C03B
:10147000809183028F5F8093830220918302022EEA
:10148000000C330B8091060290E028173907C4F452
:10149000809183028C3064F113C080918302082E06
:1014A000000C990BFC01EE0FFF1F8E0F9F1FFC011C
:1014B000E55FFD4F808160E08F730E94E102D8CF2D
:1014C0008091840090918500049680349C4918F4A2
:1014D00080E49CE905C08091840090918500049689
:1014E00090938900809388008FEF809383023BC0A4
:1014F000209184003091850080918302082E000C99
:10150000990BFC01EE0FFF1F8E0F9F1FFC01E55F83
:10151000FD4F81819281820F931F90938900809368
:10152000880080918302082E000C990BFC01EE0FBD
:10153000FF1F8E0F9F1FFC01E55FFD4F808186FF1F
:1015400012C080918302082E000C990BFC01EE0F53
:10155000FF1F8E0F9F1FFC01E55FFD4F808161E043
:101560008F730E94E102FF91EF91BF91AF919F9124
:101570008F917F916F915F914F913F912F910F903C
:101580000FBE0F901F9018951F920F920FB60F92DB
:1015900011242F933F934F935F936F937F938F9378
:1015A0009F93AF93BF93EF93FF93E0910902F09164
:1015B0000A02309709F451C0968DA685B7858585B6
:1015C00091FF04C09C91892329F447C09C918923F1
:1015D00009F043C0A389B4899C91858980958923AA
:1015E0008C93868997890197F1F7608D718DA68517
:1015F000B785558538E020E0CB010197F1F7822FC0
:1016000090E095958795282F4C91452309F0206807
:10161000315091F7868D81FD20958091080290E0F0
:1016200001968F73992730910702381749F0A091DE
:101630000802B0E0AD5BBD4F2C938093080203C05D
:10164000868D8160868F828D938D0197F1F7A389B6
:10165000B4899C918589892B8C93FF91EF91BF91DF
:10166000AF919F918F917F916F915F914F913F913A
:101670002F910F900FBE0F901F9018951F920F92F1
:101680000FB60F9211242F933F934F935F936F9355
:101690007F938F939F93AF93BF93EF93FF9320918B
:1016A00084023091850240918602509187026091B8
:1016B00088027091890280918A0290918B02A1E048
:1016C0000E944D1B20938402309385024093860232
:1016D00050938702609388027093890280938A02F4
:1016E00090938B02E0912F02F091300284859585D2
:1016F0000E946201E0913502F09136020480F5818A
:10170000E02DE55AFF4F808191810E946201E091B6
:101710003302F09134020280F381E02D0680F781DC
:10172000E02D808D918D0E946201E0913302F09155
:10173000340287819085009709F00197908787830D
:10174000FF91EF91BF91AF919F918F917F916F9199
:101750005F914F913F912F910F900FBE0F901F906F
:1017600018950F931F93CF93DF93EC018881998194
:10177000009729F02A813B812617370788F48B01CF
:101780006F5F7F4F0E94EC1D009761F09983888303
:101790001B830A832C813D81232B11F4FC011082D1
:1017A00081E001C080E0DF91CF911F910F910895FA
:1017B000BC01009791F0FC0101900020E9F73197FE
:1017C000AF01481B590BE0919902F0919A020280F7
:1017D000F381E02D89E992E0099480E090E008959A
:1017E000CF93DF930E94D80BEC0180EA91E00E9436
:1017F000D80B8C0F9D1FDF91CF9108950C94D80BBF
:10180000E0919902F0919A020190F081E02D682F09
:1018100089E992E009948F929F92AF92BF920F93C1
:101820001F93CF93DF93CDB7DEB7A1970FB6F89490
:10183000DEBF0FBECDBF19A2423008F44AE08E01D0
:101840000F5D1F4F842E912CA12CB12CA50194016A
:101850000E94D420E62FB901CA0101501109EA30D3
:1018600014F4E05D01C0E95CD801EC93232B242B38
:10187000252B61F7C8010E94D80BA1960FB6F894EA
:10188000DEBF0FBECDBFDF91CF911F910F91BF90F3
:10189000AF909F908F9008954F925F926F927F923A
:1018A0008F929F92AF92BF92CF92DF92EF92FF9270
:1018B0006B017C01B42E9B01AC010E94BA1C8823F1
:1018C00019F089EF91E027C026013701E89477F8F5
:1018D0002FEF3FEF4FE75FE7C301B2010E94BA1C51
:1018E00081110DC02FEF3FEF4FE75FE7C301B2015A
:1018F0000E94471F18161CF48DEF91E00CC02FEFCB
:101900003FEF4FE75FE4C701B6010E94B51C181610
:1019100084F481E092E0FF90EF90DF90CF90BF9051
:10192000AF909F908F907F906F905F904F900C94AE
:10193000D80B2FEF3FEF4FE75FECC701B6010E94D6
:10194000471F87FDE6CF20E030E0A901C701B601BF
:101950000E94471F87FF09C08DE20E94000C4C01C6
:10196000F7FAF094F7F8F09402C0812C912CA12C96
:1019700060E070E080E09FE3AB1441F020E030E0F5
:1019800040E251E40E94CF1BA394F6CF9B01AC012F
:10199000C701B6010E94631B2B013C010E94481C39
:1019A0006B017C010E944C1F9B01AC01C301B20181
:1019B0000E94621B2B013C014AE0C701B6010E9454
:1019C0000B0C7C01E80CF91CBB2029F08EE20E9474
:1019D000000CE80EF91EDB2CDD2021F120E030E0C8
:1019E00040E251E4C301B2010E94AD1F2B013C0152
:1019F0000E94481C4B01A12CB12C4AE0C501B40146
:101A00000E940B0CE80EF91EC501B4010E944C1F88
:101A10009B01AC01C301B2010E94621B2B013C017E
:101A2000DA94DACFC701FF90EF90DF90CF90BF90AC
:101A3000AF909F908F907F906F905F904F900895A0
:101A4000CF92DF92EF92FF920E9418046B017C010B
:101A50000E941804DC01CB018C199D09AE09BF0955
:101A6000883E9340A105B10598F3FF90EF90DF9079
:101A7000CF900895FC0180919802811103C08FEFEF
:101A80009FEF08959FB7F89482E08093E90020913A
:101A9000F20030E01216130614F421E030E02115B4
:101AA000310559F0289884E6809397028091F100DF
:101AB00080838091F200882319F09FBFC9010895A7
:101AC0008BE68093E800F9CF8091EF0281110DC081
:101AD00082E08093EB0284E08093EC021092EE02AD
:101AE0001092ED0281E08093EF028BEE92E0089578
:101AF000FC0180819181009711F00C94D61E60E06A
:101B000070E0CB010895EF92FF920F931F93CF9354
:101B1000DF93FC01248135816115710511F480E0AA
:101B200019C041155105A9F07B01EC018A01020F92
:101B3000131FB8010E94B10B882389F328813981D2
:101B40008C819D81B701820F931F0E94CF1E1D8340
:101B50000C8381E0DF91CF911F910F91FF90EF9067
:101B60000895CF93DF93EC0188819981009711F05C
:101B70000E94541D198218821D821C821B821A82A7
:101B8000DF91CF910895EF92FF920F931F93CF9320
:101B9000DF93EC017B018A01BA010E94B10B811134
:101BA00004C0CE010E94B10D07C01D830C83B70194
:101BB000888199810E94CF1ECE01DF91CF911F9124
:101BC0000F91FF90EF900895CF93DF93EC01611593
:101BD000710559F0FB0101900020E9F73197AF0141
:101BE000461B570B0E94C30D02C00E94B10DCE01CF
:101BF000DF91CF910895CF93DF93EC01FB0186171E
:101C0000970761F0608171816115710529F0448148
:101C100055810E94C30D02C00E94B10DCE01DF911B
:101C2000CF910895FC01808191810C94541DFC0199
:101C3000118210821382128215821482611571053D
:101C400051F0FB0101900020E9F73197AF01461BED
:101C5000570B0C94C30D0895BF92CF92DF92EF9271
:101C6000FF920F931F93CF93DF937C016B018A0147
:101C7000E9012417350720F4812F8901C42FD82FBB
:101C80006DEC71E0C7010E94170ED60114968D917C
:101C90009C91159708171907D0F48C179D0708F425
:101CA000EC01D601ED91FC911197EC0FFD1FB08076
:101CB00010824D915C91BA01600F711FC7010E94A3
:101CC000E40DD601ED91FC91EC0FFD1FB082C70130
:101CD000DF91CF911F910F91FF90EF90DF90CF9008
:101CE000BF9008951F920F920FB60F9211248F93F9
:101CF0009F938091E1009091E100937F9093E100A8
:101D000083FF0FC01092E90091E09093EB001092D6
:101D1000EC0092E39093ED001092980298E090937B
:101D2000F00082FF20C093E09093E9009091F200D0
:101D3000992319F09AE39093E800909196029923E1
:101D400039F090919602915090939602992389F1DF
:101D500090919702992339F0909197029150909326
:101D60009702992341F184FF10C08091E2008E7E9A
:101D700081608093E2008091E1008F7E8093E1009A
:101D8000809195028E7E806111C080FF16C0809187
:101D9000E2008E7E80618093E2008091E1008E7E81
:101DA0008093E100809195028E7E81608093950200
:101DB00004C05D9ACDCF289AD6CF9F918F910F9076
:101DC0000FBE0F901F9018954091FC025091FD029C
:101DD0002091FA023091FB0242175307B4F490911C
:101DE000E8009570E1F39091E80092FD19C08093AE
:101DF000F1008091FC029091FD0201968F7399276A
:101E0000892B19F48EEF8093E8008091FC02909169
:101E1000FD0201969093FD028093FC0281E00895FB
:101E200080E00895CF92DF92EF92FF920F931F937D
:101E3000CF93DF931F92CDB7DEB7182F062FE42E76
:101E4000862F880F8E5F99830E94E40E83E00E94A4
:101E5000E40EF12EC12E9981D92E8C2D8F19801769
:101E600098F4F601E7FE02C0849101C080810E94CF
:101E7000E40E182F80E00E94E40E8123FFEFCF1ABA
:101E8000DF0A8111EACF01C081E00F90DF91CF918D
:101E90001F910F91FF90EF90DF90CF900895DF9208
:101EA000EF92FF920F931F93CF93DF93D82E8A0167
:101EB0007B01E40EF51EEB01CE15DF0571F0D7FEB8
:101EC00003C0FE01849101C088810E94E40E219626
:101ED0008111F2CF8FEF9FEF01C0C801DF91CF9149
:101EE0001F910F91FF90EF90DF900895615030F0B7
:101EF0002091F100FC0120830196F8CF289884E618
:101F0000809397020895CF92DF92EF92FF920F9302
:101F10001F93CF93DF936C017A018B01C0E0D0E077
:101F2000CE15DF0589F0D8016D918D01D601ED91B7
:101F3000FC910190F081E02DC6010995892B11F4E7
:101F40007E0102C02196ECCFC701DF91CF911F9196
:101F50000F91FF90EF90DF90CF9008950F931F9314
:101F6000CF93DF931F92CDB7DEB782E0898342E43F
:101F700050E06FE671E080E80E944F0F0E94640D10
:101F8000DC0112960D911C9113970115110569F052
:101F9000D801ED91FC910280F381E02DBE016F5FCD
:101FA0007F4FC801099597FF07C089810F90DF9186
:101FB000CF911F910F910895F80100851185E5CF0C
:101FC0001F920F920FB60F921124CF92DF92EF92D1
:101FD000FF920F931F932F933F934F935F936F93B2
:101FE0007F938F939F93AF93BF93EF93FF93CF9381
:101FF000DF93CDB7DEB76C97DEBFCDBF1092E9009F
:102000008091E80083FFFAC168E0CE0145960E9406
:10201000760F82EF8093E8008D8987FF05C090914D
:10202000E80090FFFCCF03C09EEF9093E800982F4C
:10203000907609F0C6C09E892F89188D91110CC029
:10204000803829F48091F8028093F10002C0109248
:10205000F1001092F10047C1422F50E0512B913016
:1020600051F4811140C14130510509F03CC18091CA
:10207000F8028D7F0BC0933061F4811134C141307F
:10208000510509F030C18091F80282608093F80216
:102090002AC1953041F48091E80080FFFCCF206890
:1020A0002093E30020C1963009F05FC0EB8CFC8CDC
:1020B0001092E9001092FD021092FC02123091F58C
:1020C0001092FB021092FA020E94AE0F99E0BE013C
:1020D0006F5F7F4FDB01E92F1D92EA95E9F7998346
:1020E0001A8391E09E8390EA98879AEF99872091CE
:1020F000FC023091FD02275F3F4F3C832B838D8391
:102100001092E9001092FD021092FC02F092FB0284
:10211000E092FA0249E050E080E00E944F0F0E94F6
:10212000AE0FE1C0F092FB02E092FA020E94640D51
:10213000DC011296ED90FC901397E114F10409F480
:10214000C0C0D701ED91FC910480F581E02DBE0166
:102150006B5E7F4FC7010995009719F00CF0C3C063
:10216000C6C0F701E084F184E8CF973009F4BFC01E
:10217000983021F481E08093F100B5C0993009F0E6
:10218000B2C0837009F0B3C0E1E6F1E081E021E084
:1021900036E39081992361F08093E9002093EB006E
:1021A00091919093EC003093ED008F5F873089F729
:1021B0008EE78093EA001092EA008F89809398025C
:1021C00092C08B8D9C8D1092E9001092FD021092AE
:1021D000FC029093FB028093FA02898D811156C014
:1021E0008E899D89913A59F4813209F080C047E087
:1021F00050E06EE071E080E00E944F0F74C09132B9
:1022000009F075C0833289F4888D90E0982F882773
:102210002F89822BA0E0B0E080930A0190930B01FC
:10222000A0930C01B0930D015EC0803269F48091DF
:10223000E80082FFFCCF67E08EE091E00E94760F1D
:102240008BEF8093E80006C0823209F04CC08F8982
:10225000809315018091F702882319F0EEEFFAE0E0
:1022600002C0E0E0F8E080910E0190910F01A09192
:102270001001B0911101803B9440A105B10509F016
:1022800088C08091150180FFA0C083C00E94640DAA
:10229000DC0112960D911C9113970115110539F16E
:1022A000D801ED91FC910190F081E02DBE016B5EB3
:1022B0007F4FC8010995811116C0F801008511856D
:1022C000ECCF1130C1F0133091F48F89882309F4D9
:1022D00055C08230E9F440E860E181EC91E00E9471
:1022E000120F882321F08EEF8093E80087C081E2EF
:1022F0008093EB0083C08B8D9C8D089711F4109315
:10230000F9028091F902811136C062ED71E038C0A6
:10231000813029F440E86BE085EB91E0E0CF833039
:1023200031F70E94640DDC011296ED90FC9013973A
:102330008E010F5F1F4F6801E114F10479F0D7019E
:10234000ED91FC910680F781E02DB801C701099558
:10235000080F111DF701E084F184EECFD8011C9223
:10236000F60101900020E9F73197BF016C197D0952
:1023700040E0C601B4CF64EE71E002C061EB71E0F1
:102380006115710509F4B3CFFB01449150E080E879
:1023900033CF0FB6F894A895809160008861809340
:1023A0006000109260000FBEA895EE3F2AE0F20791
:1023B00039F08091FE0A9091FF0A9183808393CF38
:1023C0001092FF0A1092FE0A8ECFEE3F8AE0F807C5
:1023D00031F0808191819093FF0A8093FE0A87E714
:1023E00097E7918380839BE088E10FB6F894A895E6
:1023F000809360000FBE9093600075CF6C960FB60F
:10240000F894DEBF0FBECDBFDF91CF91FF91EF916A
:10241000BF91AF919F918F917F916F915F914F91FC
:102420003F912F911F910F91FF90EF90DF90CF90F0
:102430000F900FBE0F901F901895CF93DF93CDB7DD
:10244000DEB76A970FB6F894DEBF0FBECDBF7894A3
:1024500084B5826084BD84B5816084BD85B58260A9
:1024600085BD85B5816085BD80916E00816080935A
:102470006E001092810080918100826080938100C3
:1024800080918100816080938100809180008160D3
:102490008093800080919100826080939100809170
:1024A0009100816080939100809190008160809381
:1024B00090008091C10084608093C1008091C10030
:1024C00082608093C1008091C10081608093C100CF
:1024D0008091C30081608093C3008091C0008260BE
:1024E0008093C0008091C20081608093C20080917F
:1024F0007A00846080937A0080917A008260809371
:102500007A0080917A00816080937A0080917A00CD
:10251000806880937A00109298021092F8021092CC
:1025200095028091D70081608093D70080EA8093E4
:10253000D80089B5806189BD89B5826089BD09B43B
:1025400000FEFDCF0E94200D8091D8008F7C80611D
:102550008093D8008091E000807F8093E00080919C
:10256000E1008E7E8093E1008DE08093E200559A39
:10257000209AEEEFFFE7859194918B3F9C4D19F4E3
:1025800081E08093F7028FEF9FEF9093A6028093F4
:10259000A50287E691E00E94F00B8EE090E00E9499
:1025A000BF1C7C0141E050E060E070E00E94440705
:1025B0006DEC71E0C70106960E94170E85E090E071
:1025C0000E94BF1C28EE33E0DC0111963C932E9351
:1025D00014961C92F701958784878FE190E00E9402
:1025E000BF1C8C01DC0113961C921E92129788EE80
:1025F00093E0A0E0B0E0F80184839583A683B783DD
:1026000084E291E091838083178A168A118E108E5E
:10261000138E128E158E148E668D6E7F6D7F668F73
:102620006695617081E068278AE00E94E10261E0BE
:102630008AE00E944403EDE2F1E0E491D801509673
:10264000EC93EEE0F1E0E491F0E0EE0FFF1FE851D3
:10265000FF4F85919491F801928B818B60E088E027
:102660000E944403D8015E968C9181FD04C061E014
:1026700088E00E94E10288E0F8018487EBE2F1E063
:10268000E491D8011D96EC93ECE0F1E0E491F0E0E8
:10269000EE0FFF1FEA50FF4F85919491F801978745
:1026A0008687D70115961C930E931497F0923002EB
:1026B000E0922F0289E090E00E94BF1C8C01C09044
:1026C000E902D090EA02FC0114821682158288E0A9
:1026D00090E00E94BF1C7C0187E090E00E94BF1C3C
:1026E000DC0187E0FD0111928A95E9F7209106024D
:1026F0002C3098F481E0820F809306022C9330E016
:10270000F901EE0FFF1F2E0F3F1FF901E55FFD4F8F
:1027100088EB9BE09283818302C08FEF8C938DE4E2
:1027200090E014969C938E93139786E490E016960F
:102730009C938E931597F701B383A28386E090E074
:102740000E94BF1C5C01DC0115961C921E9214971E
:1027500085E090E011969C938E938BE090E0139629
:102760009C938E93129761E085E00E94440361E0A0
:102770008BE00E944403F701B582A482D782C6820F
:1027800060E070E0C7010E946507D8011396FC92D3
:10279000EE92129781E090E08D939C931093340217
:1027A0000093330286E090E00E94BF1C7C0141E070
:1027B00050E060E070E00E94440784EA91E00E94EB
:1027C000BF1C8C0128EC30E043E162E10E942E093D
:1027D00028EC30E045E164E1C80142960E942E09F0
:1027E00028EC30E04DE06DE0C80184960E942E098F
:1027F00028EC30E04DE06DE0C801C6960E942E093D
:1028000085E090E00E94BF1C2AE030E0FC013183AB
:1028100020831482F801E55AFF4F91838083369616
:102820001082D70115961C930E931497F0923602DE
:10283000E092350220912F0230913002D901149696
:10284000ED91FC911597138E128E118E108E178AB2
:10285000168A8DE991E0958F848F848598EF980F83
:10286000943048F042EF480F443028F046EE480FCD
:10287000433008F055C04DEB50E0578B468B4BE989
:1028800051E0518F408F4CE251E0538F428F943092
:1028900058F092EF980F943038F08A51833008F452
:1028A0007FC640E050E07EC648E650E0A8E6B0E0D3
:1028B0008C918160DA018C93848598EF980F943025
:1028C00058F042EF480F443038F046EE480F43309E
:1028D00018F040E050E002C04BE650E0548B438BD0
:1028E000943010F49CEF09C08E3071F08F3071F08D
:1028F000803171F0813171F09AEE980F81E001C062
:10290000880F9A95EAF707C088E005C082E003C007
:1029100084E001C081E0858B848D958D0197F1F76E
:10292000828D938D892B49F16091090270910A0281
:102930006E177F0711F16115710571F0DB01539678
:102940004D915C915497DA019C91DB0155968C91E5
:1029500080958923DA018C93868D8E7F868F1092E5
:10296000080210920702F0930A02E0930902A38979
:10297000B4899C918589892B8C93F90184859585EF
:102980000E940606E0913302F09134020281138125
:10299000D8011296ED90FC901397F70180818C304E
:1029A00008F052C061E089E00E944403D7018C9195
:1029B000E82FF0E09F01220F331FE20FF31FE55FC6
:1029C000FD4F9081907C9960908311961C92119795
:1029D00012961C926CE00E940C1BBCE08B9FB00115
:1029E000112440E050E09A01260F371FF901EE0F45
:1029F000FF1F2E0F3F1FF901E55FFD4F908196FDF0
:102A000016C04F5F5F4F4C30510569F781110FC001
:102A10001092800082E080938100109285001092D5
:102A20008400B19A80916F00826080936F00D7011B
:102A3000EC91F0E0CF01880F991FE80FF91FE55FD7
:102A4000FD4F808180648083F801E280F380D701AC
:102A500013962D913C91149715968D919C911697F4
:102A60004901881A990A092C000CAA08BB08280FEA
:102A7000391FC901330FAA0BBB0B9C01AD012819EB
:102A800039094A095B09A4E6B0E00E948A2028ECD3
:102A9000422E512C612C712CA30192010E946B20BB
:102AA000CA01B901680D791D8A1D9B1DC7010E94CD
:102AB000800962E370E0C8010E946507E091350279
:102AC000F091360284819581FC01E55BFF4F4082E5
:102AD000518262827382729621E020833E97408207
:102AE0005182628273823F9620833B97408251825B
:102AF000628273823C962083389740825182628240
:102B0000738239962083AC01DC01A056BF4FBC0113
:102B100038ECC32ED12CE12CF12C20E030E0F9016F
:102B2000EE59FF4FE60FF71FC082D182E282F38297
:102B30002C5F3F4F2832310591F7685D7F4F6A1750
:102B40007B0759F718ECC12ED12CE12CF12C20E099
:102B500030E0F901EE5FFE4FE40FF51FC082D18235
:102B6000E282F3822C5F3F4F2832310591F7485DB6
:102B70005F4F4A175B0759F7FC01EF59FF4F21E000
:102B8000208377971082329723E030E031832083CF
:102B9000E65AFE4F89E090E091838083F8948FEAB3
:102BA00087BD80916E00826080936E007894109251
:102BB0003A02109239021092380210923702E091D4
:102BC0003302F091340282E090E09183808320917F
:102BD00030013091310140913201509133012B8B02
:102BE0003C8B4D8B5E8B8091340190913501A0918F
:102BF0003601B09137018F8B988FA98FBA8F809152
:102C00003B0290913C02A0913D02B0913E02BC017A
:102C1000CD016F5F7F4F8F4F9F4F60933B0270934B
:102C20003C0280933D0290933E0220913902309104
:102C30003A022115310521F02F32310539F0EEC06D
:102C4000AFE2B0E0B0933A02A093390200912F02B4
:102C500010913002F80120813181428153810E941C
:102C6000D420672B682B692B09F0DCC0D80114969F
:102C70008D919C911597DC01ED91FC910480F5817B
:102C8000E02D09956C01E12CF12C5801B6E0AB0E5A
:102C9000B11CEC14FD040CF099C0F80184819581FD
:102CA000DC01ED91FC910680F781E02D0995982ECD
:102CB00089831A8241E050E0BE016F5F7F4FC501FA
:102CC0000E94830DBBE39B1621F0EFEFEE1AFE0A84
:102CD000E0CFE0902F02F0903002B6E0EB0EF11C56
:102CE0001A8219821C821B821E821D82B701CE01AC
:102CF00001960E94FB0DCE0101960E9497088C015F
:102D0000CE0101960E94120E6DEC71E0C7010E9487
:102D1000E40DB801CE0101960E940E08E0919902DF
:102D2000F0919A024D815E8169817A810280F381FE
:102D3000E02D89E992E0099580EA91E00E94D80BA4
:102D4000CE0101960E94120EB801CE0101960E949A
:102D50000E082D813E812115310509F403C2E98158
:102D6000FA818081882309F4FDC180E090E03097EA
:102D700009F4E6C1DF01A80FB91F4C9150ED540FC3
:102D80005C3008F0DFC101968217930781F7FF24BA
:102D9000F394CE0101960E94120EFF2009F458C24E
:102DA000D8018D919C918230910509F41BC20CF0E1
:102DB000DBC1019709F4EBC10115110539F0C80118
:102DC00002960E94120EC8010E94541DE0912F022B
:102DD000F0913002848595850E94F5058823B1F035
:102DE000E0913302F091340262E370E082819381DA
:102DF0000E94650788E791E00E94F00BE0912F02A6
:102E0000F0913002848595850E940606E0912F029C
:102E1000F0913002848595850E94060610923A0250
:102E2000109239028091370290913802009721F078
:102E30008636910539F078C186E690E090933802A5
:102E400080933702C0903502D090360260913B02E9
:102E500070913C0280913D0290913E02D6012D91ED
:102E60003D914D915C910E94D420672B682B692B7A
:102E700009F05EC12090330230903402F1010281EA
:102E80001381D801ED90FC90C8010E947D07F801E4
:102E9000048115819701281B390BC90125E0289F62
:102EA0007001299FF00C1124D80114968D919C91EA
:102EB0001597E80EF91EBFEFEB16F10409F054F474
:102EC000E1E0EE16EFEFFE0644F4EE24E394FF2477
:102ED000FA9403C0EE24EA94F12CB701F7FE02C085
:102EE00060E070E0D8018C910E948003F7FE05C07D
:102EF000662777276E197F0902C060E070E0F8014D
:102F000082810E948003D60114960D911C91159721
:102F1000F801EF59FF4F8081882309F4EAC07797C1
:102F200080818111E6C0F801E85BFF4F80819181CB
:102F3000039709F4C3C1E0913502F0913602E480B1
:102F4000F580F701EF59FF4F8081882309F4D1C044
:102F50008701065B1F4FD8018C918111FECFF701CD
:102F6000E85BFF4F208131812330310581F4670117
:102F7000BEE5CB1ABEEFDB0AD6018D919C9101967E
:102F80006AE070E00E94181BD6018D939C93C901E2
:102F9000019664E070E00E942C1B9183808381E0A5
:102FA000D8018C931092720080819181FC01EE0F08
:102FB000FF1FEE0FFF1FEE0DFF1DE55BFF4F28EC1F
:102FC00030E040E050E0208331834283538322E1AC
:102FD000289F8001299F100D11240E0D1F1DD8015F
:102FE0001A96ED91FC911B97908114968C911497F1
:102FF000892B80831696ED91FC91179790811496FA
:103000008C9114978095892380838BE090E00197C1
:10301000F1F71696ED91FC911797908114968C918B
:103020001497892B808383E290E00197F1F716963D
:10303000ED91FC911797908114968C91149780953F
:10304000892380831A96ED91FC911B9790811496A9
:103050008C918095892380835801B8E0AB0EB11C18
:10306000D8011896ED91FC91199790816801B5E00F
:10307000CB0ED11CF80185818923A1F50E9418048B
:10308000D8011C962D913C911D972901612C712C22
:10309000B8EA4B0EB6E15B1E611C711CDC01CB0172
:1030A000840D951DA61DB71DF80186879787A08BF7
:1030B000B18B9801225F3F4F4901D501ED91FC9101
:1030C0009081F6018081892309F0C7C00E9418040D
:1030D000D4014D905D906D907C9046165706680621
:1030E000790658F7F701E55AFF4F808191810E94D8
:1030F00006060091350210913602D8011496ED9122
:10310000FC911597E55AFF4F808191810E94F5054A
:10311000882351F0D8011496ED91FC9115971092E7
:103120007200E65BFF4F1082109238021092370255
:1031300080E090E0892B09F462CD0E9400005FCD11
:1031400040E01CCE5FE9540F523008F41CCE5FEB18
:10315000540F5A3108F417CE403209F414CE4F35CB
:1031600009F411CEF12C15CE8330910509F44CC031
:10317000049709F021CEE0903302F0903402C801A8
:1031800002960E94780DF7017183608315CEE0905E
:103190003302F0903402F7018081918181309105F2
:1031A00069F0029709F008CEF7018481882381F045
:1031B00087819085892B09F0FFCD1482C801029682
:1031C0000E94780DD70112968D919C91139707C09C
:1031D000C80102960E94780DF701828193810E94B6
:1031E0006507EACDE0903302F0903402C801029600
:1031F0000E94780DD7011296ED91FC911397828170
:1032000093810E948009D8CDE0903302F09034027F
:10321000C80102960E94780DD7011296ED91FC919B
:1032200013970280F381E02D74836383AB016734CD
:10323000710514F046E450E024EB30E0261B370B18
:10324000CA01241735070CF4C90196838583B4CDD0
:1032500080E791E00E94F00BAFCD0E941804D801E6
:103260001C962D913C911D97DC01CB01820F931F81
:10327000A11DB11DF80186879787A08BB18B8DE3C7
:1032800094E0909332028093310210927200109277
:10329000C4001092C3001092C2001092C00087E4D4
:1032A0008093C10084E089BB1092BF001092BE00E1
:1032B00095E09093D1008093720014CF5801EBE415
:1032C000AE0EB11CE12CF12C4801FEE58F1AFEEF89
:1032D0009F0AF50141915191619171915F01FAE06D
:1032E000FE9D9001FF9D300D1124D4018D919C9184
:1032F000820F931F880F991F880F991F800F911FAE
:10330000FC01EE59FF4F4083518362837383483C35
:1033100051056105710529F42F89388D498D5A8D24
:1033200004C02B893C894D895E89B701C8010E9480
:103330001006BFEFEB1AFB0AE4E0EE16F10449F6C3
:10334000D60114968D919C911597FC01EE55FE4F78
:103350000190F081E02DDF01AA0FBB1FAA0FBB1F58
:10336000A80FB91FAE5FBE4F4D915D916D917C91DD
:1033700049835A836B837C83DF011A96AA0FBB1F94
:10338000AA0FBB1FA80FB91FAE5FBE4F4D915D9135
:103390006D917C914D835E836F837887DF015496B6
:1033A000AA0FBB1FAA0FBB1FA80FB91FAE5FBE4F4E
:1033B0004D915D916D917C9149875A876B877C8790
:1033C0007E96EE0FFF1FEE0FFF1FE80FF91FEE5F57
:1033D000FE4F80819181A281B3818D879E87AF87C7
:1033E000B88BF101828193810E947D07D1018D917B
:1033F0009C91029709F09FCDFE013196FA8BE98BE3
:1034000000E010E0A989BA898D909D90AD90BD90A3
:10341000BA8BA98BF101E580F680E114F10409F47F
:10342000B8C0C501B4010E944C1F2B013C01B7017B
:10343000FF0C880B990B0E944E1F6B017C0120E052
:1034400030E0A9010E94B51C181624F0F7FAF09498
:10345000F7F8F094A7019601C301B2010E94CF1BB7
:103460006B017C018FE891E00E94FE0B42E0C701F6
:10347000B6010E944C0C80EA91E00E94D80BD10169
:1034800015968D919C911697181619060CF062C02E
:103490000230110508F07DC083EA91E00E94FE0B26
:1034A0004AE0C501B4010E940B0C8EEA91E00E9433
:1034B000FE0B82EB91E00E94FE0BF101858096806D
:1034C000092C000CAA08BB08B7FE0CC08DE20E94B4
:1034D000000C66277727CB01681979098A099B09AF
:1034E0004AE003C04AE0C501B4010E940B0C80EA27
:1034F00091E00E94D80B8CEB91E00E94FE0B42E021
:10350000C701B6010E944C0C84EC91E00E94FE0BB6
:1035100042E060E070E080E09FE30E944C0C80EAB3
:1035200091E00E94D80B80EA91E00E94D80B20E045
:1035300030E040E05FE3C701B6010E94471F181664
:1035400044F189EC91E00E94FE0B8EEC91E00E9428
:10355000F00B0EC0C80102970297D8F420E030E0CB
:1035600040E05FE3C701B6010E94471F18168CF0C8
:1035700062E370E0D10112968D919C9113970E94A5
:10358000650781E0F101848328EB3BE030872783E6
:10359000D2CC0F5F1F4F0430110509F033CFCBCCD5
:1035A00048E650E0833008F481C9A0E0B0E080C96B
:1035B000CF93DF93E9E9F2E01382128288EE93E081
:1035C000A0E0B0E084839583A683B7838CE391E089
:1035D000918380838FEF9FEF958784878AE190E0C6
:1035E0000E94BF1CEC011A821B8285E090E00E94C1
:1035F000BF1C28EC30E0FC01318320831482998FBA
:10360000888F82E0888383E08983D093EA02C09325
:10361000E902DF91CF910895991B79E004C0991FC9
:10362000961708F0961B881F7A95C9F7809508951C
:10363000AA1BBB1B51E107C0AA1FBB1FA617B707D8
:1036400010F0A61BB70B881F991F5A95A9F78095F4
:103650009095BC01CD01089597FB072E16F40094B8
:1036600007D077FD09D00E94181B07FC05D03EF457
:10367000909581959F4F0895709561957F4F08951E
:10368000EE0FFF1F0590F491E02D09940E94F620A3
:10369000B7FF0895821B930B08950024A7FD0094A3
:1036A0002A0F301D401D501D601D701D801D901D76
:1036B00008952A193B094C095D096E097F09800BA1
:1036C000910B08955058BB27AA270E947A1B0C948F
:1036D00031200E94232038F00E942A2020F039F463
:1036E0009F3F19F426F40C9420200EF4E095E7FB9C
:1036F0000C941A20E92F0E94422058F3BA1762074F
:1037000073078407950720F079F4A6F50C946420DC
:103710000EF4E0950B2EBA2FA02D0B01B9019001EC
:103720000C01CA01A0011124FF27591B99F0593F30
:1037300050F4503E68F11A16F040A22F232F342F78
:103740004427585FF3CF469537952795A795F040C6
:103750005395C9F77EF41F16BA0B620B730B840BDB
:10376000BAF09150A1F0FF0FBB1F661F771F881F93
:10377000C2F70EC0BA0F621F731F841F48F48795EB
:1037800077956795B795F7959E3F08F0B0CF9395DD
:10379000880F08F09927EE0F9795879508950E9456
:1037A000E31B0C9431200E942A2058F00E94232011
:1037B00040F029F45F3F29F00C941A2051110C9429
:1037C00065200C9420200E94422068F39923B1F3D5
:1037D000552391F3951B550BBB27AA276217730737
:1037E000840738F09F5F5F4F220F331F441FAA1FCB
:1037F000A9F335D00E2E3AF0E0E832D09150504087
:10380000E695001CCAF72BD0FE2F29D0660F771F34
:10381000881FBB1F261737074807AB07B0E809F01A
:10382000BB0B802DBF01FF2793585F4F3AF09E3F9F
:10383000510578F00C941A200C9465205F3FE4F356
:10384000983ED4F3869577956795B795F7959F5FE2
:10385000C9F7880F911D9695879597F90895E1E02E
:10386000660F771F881FBB1F621773078407BA078D
:1038700020F0621B730B840BBA0BEE1F88F7E095E8
:1038800008950E94481C6894B1110C946520089515
:103890000E944A2088F09F5798F0B92F9927B75176
:1038A000B0F0E1F0660F771F881F991F1AF0BA95E4
:1038B000C9F714C0B13091F00E946420B1E00895BE
:1038C0000C946420672F782F8827B85F39F0B93FB0
:1038D000CCF3869577956795B395D9F73EF4909597
:1038E0008095709561957F4F8F4F9F4F0895E89415
:1038F000F92F96EBFF2381F0121613061406440BE2
:103900009395F69587957795679557954040FF2352
:10391000B9F71BC099270895882351F49850D2F71E
:10392000872B762F652F542F432F322F20E0B1F3B2
:10393000121613061406440B88233AF09A95440F86
:10394000551F661F771F881FCAF755234AF4440F77
:10395000551F11F460FF04C06F5F7F4F8F4F9F4F63
:10396000880F9695879597F908950E94891F08F406
:103970008FEF08950E94891F880B990B0895CF93AC
:10398000DF938230910510F482E090E0E091000333
:10399000F091010320E030E0C0E0D0E0309711F179
:1039A0004081518148175907C0F04817590761F401
:1039B00082819381209719F09B838A832BC09093F7
:1039C00001038093000326C02115310519F0421729
:1039D000530718F49A01BE01DF01EF010280F38161
:1039E000E02DDCCF2115310509F1281B390B2430DE
:1039F000310590F412968D919C9113976115710584
:103A000021F0FB019383828304C090930103809390
:103A10000003FD01329644C0FD01E20FF31F8193C4
:103A20009193225031092D933C933AC02091FE028C
:103A30003091FF02232B41F420911801309119019C
:103A40003093FF022093FE0220911601309117015E
:103A50002115310541F42DB73EB740911A0150911F
:103A60001B01241B350BE091FE02F091FF02E217CF
:103A7000F307A0F42E1B3F0B2817390778F0AC0191
:103A80004E5F5F4F2417350748F04E0F5F1F50936E
:103A9000FF024093FE028193919302C0E0E0F0E0C8
:103AA000CF01DF91CF9108950F931F93CF93DF93B1
:103AB000009709F48CC0FC013297138212820091A6
:103AC0000003109101030115110581F4208131815A
:103AD000820F931F2091FE023091FF0228173907B1
:103AE00079F5F093FF02E093FE0271C0D80140E047
:103AF00050E0AE17BF0750F412962D913C911397EA
:103B0000AD012115310509F1D901F3CF9D01DA018C
:103B10003383228360817181860F971F82179307F9
:103B200069F4EC0128813981260F371F2E5F3F4F42
:103B3000318320838A819B8193838283452B29F45F
:103B4000F0930103E093000342C01396FC93EE93BD
:103B50001297ED01499159919E01240F351FE217EB
:103B6000F30771F480819181840F951F029611965D
:103B70009C938E938281938113969C938E9312973C
:103B8000E0E0F0E0D80112968D919C911397009798
:103B900019F0F8018C01F6CF8D919C9198012E5F60
:103BA0003F4F820F931F2091FE023091FF02281792
:103BB000390769F4309729F4109201031092000339
:103BC00002C0138212821093FF020093FE02DF9163
:103BD000CF911F910F910895A0E0B0E0E2EFFDE1D9
:103BE0000C94A120EC01009721F4CB010E94BF1C92
:103BF000B8C0FC01E60FF71F9C0122503109E21703
:103C0000F30708F4ACC0D9010D911C911197061768
:103C10001707B0F00530110508F49FC0C8010497DC
:103C20008617970708F499C002501109061B170B55
:103C3000019311936D937C93CF010E94541D8DC00D
:103C40005B01A01AB10A4C01800E911EA0910003E5
:103C5000B091010340E050E0E12CF12C109709F401
:103C60004AC0A815B905D1F56D907C9011976301F4
:103C700082E0C80ED11CCA14DB0480F1A3014A19EA
:103C80005B096A0182E0C80ED11C1296BC901297A3
:103C90001396AC91B5E0CB16D10440F0B282A38369
:103CA00051834083D9016D937C930AC00E5F1F4FEF
:103CB000C301800F911FF90191838083EB2DFA2FAF
:103CC000E114F10431F0D7011396FC93EE931297AF
:103CD00044C0F0930103E09300033FC08D919C9199
:103CE00011974817590708F4AC017D0112960D9001
:103CF000BC91A02DB3CF8091FE029091FF02881558
:103D00009905E1F446175707C8F480911601909180
:103D10001701009741F48DB79EB740911A01509159
:103D20001B01841B950BE817F907C8F4F093FF02F9
:103D3000E093FE02F901718360830FC0CB010E9402
:103D4000BF1C7C01009759F0A801BE010E94BB1E58
:103D5000CE010E94541DC70104C0CE0102C080E004
:103D600090E0CDB7DEB7EEE00C94BD2081E090E0AE
:103D7000F8940C940521FB01DC0102C001900D9226
:103D800041505040D8F70895FC018191861721F0E9
:103D90008823D9F7992708953197CF010895FB011A
:103DA000DC0101900D920020E1F708951F93FC01C2
:103DB00099278827BC01E89411911032E9F3193052
:103DC00010F01E30C8F31B3251F01D3249F46894D4
:103DD00006C00E94081F610F711D811D911D119168
:103DE00010531A30B0F33EF490958095709561951C
:103DF0007F4F8F4F9F4F1F910895BB274A3031F45B
:103E0000992322F4BDE2909581959F4F0C941E1F3B
:103E1000592F482F372F262F660F771F881F991F7E
:103E2000660F771F881F991F620F731F841F951FCE
:103E3000660F771F881F991F0895BB27FB01552721
:103E4000AA27880F991FAA1FA41710F0A41B8395F7
:103E50005051B9F7A05DAA3308F0A95DA19300976E
:103E600079F7B111B1931192CB010C94371FDC019A
:103E7000FC01672F71917723E1F7329704C07C91A1
:103E80006D9370836291AE17BF07C8F308950E94C7
:103E9000891F08F481E00895E89409C097FB3EF477
:103EA00090958095709561957F4F8F4F9F4F992387
:103EB000A9F0F92F96E9BB279395F6958795779505
:103EC0006795B795F111F8CFFAF4BB0F11F460FFC5
:103ED0001BC06F5F7F4F8F4F9F4F16C0882311F01D
:103EE00096E911C0772321F09EE8872F762F05C031
:103EF000662371F096E8862F70E060E02AF09A95CC
:103F0000660F771F881FDAF7880F9695879597F9C0
:103F10000895990F0008550FAA0BE0E8FEEF16165A
:103F20001706E807F907C0F012161306E407F507AD
:103F300098F0621B730B840B950B39F40A2661F021
:103F4000232B242B252B21F408950A2609F4A140C4
:103F5000A6958FEF811D811D08950E94C01F0C94AE
:103F600031200E94232038F00E942A2020F095233F
:103F700011F00C941A200C94202011240C9465202C
:103F80000E94422070F3959FC1F3950F50E0551F9A
:103F9000629FF001729FBB27F00DB11D639FAA279E
:103FA000F00DB11DAA1F649F6627B00DA11D661FED
:103FB000829F2227B00DA11D621F739FB00DA11D0E
:103FC000621F839FA00D611D221F749F3327A00DC8
:103FD000611D231F849F600D211D822F762F6A2F64
:103FE00011249F5750409AF0F1F088234AF0EE0FC9
:103FF000FF1FBB1F661F771F881F91505040A9F7F6
:104000009E3F510580F00C941A200C9465205F3F70
:10401000E4F3983ED4F3869577956795B795F79531
:10402000E7959F5FC1F7FE2B880F911D96958795A9
:1040300097F9089597F99F6780E870E060E0089528
:104040009FEF80EC089500240A94161617061806B0
:104050000906089500240A9412161306140605068C
:104060000895092E0394000C11F4882352F0BB0F1D
:1040700040F4BF2B11F460FF04C06F5F7F4F8F4F80
:104080009F4F089557FD9058440F551F59F05F3FBB
:1040900071F04795880F97FB991F61F09F3F79F06A
:1040A00087950895121613061406551FF2CF4695EC
:1040B000F1DF08C0161617061806991FF1CF86956E
:1040C0007105610508940895E894BB276627772752
:1040D000CB0197F90895052E97FB1EF400940E94DA
:1040E000822057FD07D00E94D42007FC03D04EF455
:1040F0000C94822050954095309521953F4F4F4F1D
:104100005F4F089590958095709561957F4F8F4F83
:104110009F4F08950E94F620A59F900DB49F900D8B
:10412000A49F800D911D11240895B7FF0C948A203F
:104130000E948A20821B930B08952F923F924F92E8
:104140005F926F927F928F929F92AF92BF92CF9227
:10415000DF92EF92FF920F931F93CF93DF93CDB730
:10416000DEB7CA1BDB0B0FB6F894DEBF0FBECDBFA8
:1041700009942A88398848885F846E847D848C8479
:104180009B84AA84B984C884DF80EE80FD800C8182
:104190001B81AA81B981CE0FD11D0FB6F894DEBF65
:1041A0000FBECDBFED010895A1E21A2EAA1BBB1BC5
:1041B000FD010DC0AA1FBB1FEE1FFF1FA217B307F3
:1041C000E407F50720F0A21BB30BE40BF50B661F09
:1041D000771F881F991F1A9469F7609570958095CD
:1041E00090959B01AC01BD01CF010895A29FB00144
:1041F000B39FC001A39F700D811D1124911DB29F1B
:0E420000700D811D1124911D0895F894FFCFBB
:10420E0061016101610161016101FFFFFFFF00E1D9
:10421E00000000000000000002038000010000000A
:10422E00000000008901830FDD01F5017001880196
:10423E0002003200050000000000000026011602F8
:10424E0047019D02BB023C0100000000DF02830F0C
:10425E00DF02DF02DF02DF0200000000DF02830F59
:10426E0000C1808100000073657475702E2E2E00C3
:10427E00696E76616C696400636F6D6D756E6963EE
:10428E0061746F722074696D6564206F757400704F
:10429E0072652063726173682074696D653A2000DF
:1042AE000D0A0064697374616E63653A20002063C1
:1042BE006D00090973706565643A200020636D2FE7
:1042CE0073656300203C3D2000092D3E09004352DA
:1042DE0049544943414C21212121212121212121D0
:1042EE0021212121006379636C65506572696F64C9
:1042FE002073657420746F20006E616E00696E66A7
:06430E00006F766600005E
:00000001FF
