:100000000C9471000C9499000C9499000C94990034
:100010000C9499000C9499000C9499000C949B07F3
:100020000C9499000C9499000C9499000C949900EC
:100030000C9499000C9499000C9499000C949900DC
:100040000C9451070C9499000C94FA050C94D40567
:100050000C9499000C9499000C9499000C949900BC
:100060000C9499000C94990005A84CCDB2D44EB9CB
:100070003836A9020C50B9918688083CA6AAAA2A4B
:10008000BE000000803F00000000240027002A007E
:1000900000000000230026002900000000002500C9
:1000A00028002B00040404040404040402020202D5
:1000B000020203030303030301020408102040802B
:1000C00001020408102001020408102000000008AA
:1000D000000201000003040700000000000000000F
:1000E000981911241FBECFEFD8E0DEBFCDBF11E0BD
:1000F000A0E0B1E0ECE7F5E402C005900D92A03875
:10010000B107D9F728E0A0E8B1E001C01D92A63AF6
:10011000B207E1F710E0C1E7D0E004C02197FE018B
:100120000E94B122C037D107C9F70E94A2090C94DE
:10013000BC220C9400000E94B722CF92DF92EF9273
:10014000FF922FE832EC45E95FE30E94541F20E064
:1001500030E044EB52E40E944F200E943221663985
:1001600071053CF4DB016E3171052CF4AEE1B0E0B9
:1001700002C0A6E9B0E0A53BB10514F0A4EBB0E0E5
:10018000A093E102C090E2022091E30230E02C193A
:100190003109D12CE12CF12CFE2CED2CDC2CCC24C3
:1001A000A901330F660B770B2227342F452F562FCB
:1001B0000E947D2224EB30E040E050E00E945E226D
:1001C000C701B601620F731F841F951F28E030E03E
:1001D00040E050E00E945E228091E002893029F4E4
:1001E000309389002093880004C030938B002093C3
:1001F0008A00FF90EF90DF90CF900895E8E8F1E05B
:10020000A089B18982E08C93A485B5851C92A685CE
:10021000B7858FEC8C93108EA489B58986E08C937A
:10022000A289B3898C9180618C93A289B3898C91C6
:1002300088608C93A289B3898C9180688C930288A2
:10024000F389E02D80818F7D808308958F929F9226
:10025000AF92BF92CF92DF92EF92FF926B017C013F
:100260000E9445074B015C01C60ED71EE81EF91E11
:100270000E944507681579058A059B0528F0C61672
:10028000D706E806F906A0F7FF90EF90DF90CF9031
:10029000BF90AF909F908F9008950C942601CF92BD
:1002A000DF92EF92FF920F931F93CF93DF938B0117
:1002B0000159174FF801C081D1E0CD2701F19B0111
:1002C000FC0189E0829FB001839F700D1124DB0146
:1002D000A55EB74FC080D180E280F3809A96CD9220
:1002E000DD92ED92FC929D9784819E968C93665B45
:1002F000774FCF0105960E947A08F801D0838C2FA2
:10030000DF91CF911F910F91FF90EF90DF90CF90F1
:100310000895FC0120816181862F90E0A0E0B0E08B
:10032000DC0199278827B22B2381822B2281BC01F3
:10033000CD01722B08954F925F926F927F928F92B0
:100340009F92AF92BF92CF92DF92EF92FF92CF93A4
:10035000DF93FC01C080D180DB01ED90FC90C114E3
:10036000D10451F0DB011296CD91DC911397E11489
:10037000F10409F040C037C0828193811816190634
:100380002CF4662777276E197F0909C0B701FF0C87
:10039000880B990B08C0662777276C197D09072EF3
:1003A000000C880B990B0E94F51E6B017C0120E06C
:1003B00030E0A9010E94A721181694F0C1E0D0E016
:1003C00020E030E0A901C701B6010E94EE1E87FDC2
:1003D00002C0C0E0D0E0882799278C1B9D0B3EC04F
:1003E00081E090E03BC01C161D06ACF6B601DD0CAA
:1003F000880B990BD8CF62817381072E000C880B74
:10040000990B0E94F51E4B015C01B601DD0C880BB7
:10041000990B0E94F51E9B01AC01C501B4010E941D
:10042000C0204B015C01BE01DD0F880B990B0E94BF
:10043000F51E2B013C01B701FF0C880B990B0E94A4
:10044000F51E9B01AC01C301B2010E94C0209B01BB
:10045000AC01C501B4010E944E20A7CFDF91CF911E
:10046000FF90EF90DF90CF90BF90AF909F908F90D4
:100470007F906F905F904F9008954F925F926F9230
:100480007F928F929F92AF92BF92CF92DF92EF9224
:10049000FF920F931F93CF93DF93CDB7DEB72897CB
:1004A0000FB6F894DEBF0FBECDBF8C01DB018D907F
:1004B0009D90AD90BC9080911E0390911F03A091E0
:1004C0002003B091210389839A83AB83BC83DB0132
:1004D00014968D919D910D90BC91A02D8D839E833E
:1004E000AF83B88740901A0350901B0360901C03A1
:1004F00070901D0329813A814B815C81C501B40153
:100500000E94541F6B017C01A30192016D817E81C9
:100510008F8198850E94541F9B01AC01C701B601D1
:100520000E944F2020911203309113034091140335
:10053000509115030E944F206B017C01A301920191
:10054000C501B4010E94541F4B015C0129813A810D
:100550004B815C816D817E818F8198850E94541FC3
:100560009B01AC01C501B4010E944E2020910E03F5
:1005700030910F0340911003509111030E944F20BE
:100580004B015C0120E030E0A901C701B6010E94E7
:10059000A72120E030E040E850E418162CF4C70111
:1005A000B6010E944F2004C0C701B6010E944E2030
:1005B00020E030E040E05EE30E94541F0E943221C0
:1005C0007B0120E030E0A901C501B4010E94A72110
:1005D00020E030E040E850E418162CF4C501B401E6
:1005E0000E944F2004C0C501B4010E944E2020E0AB
:1005F00030E040E05EE30E94541F0E943221F80187
:1006000071836083F382E282C80128960FB6F89462
:10061000DEBF0FBECDBFDF91CF911F910F91FF9035
:10062000EF90DF90CF90BF90AF909F908F907F9092
:100630006F905F904F9008951F93CF93DF93823018
:100640002FEF920734F08F3F910534F0CFEFD0E0D9
:1006500004C0C1E0DFEF01C0EC011D2F1095111F98
:100660001127111F11F0BE0102C060E070E085E0AB
:100670000E94C106111105C0662777276C1B7D0BF0
:1006800002C060E070E086E0DF91CF911F910C9492
:10069000C1064F925F926F927F92EF92FF920F93FB
:1006A0001F93CF93DF93CDB7DEB7A1970FB6F89422
:1006B000DEBF0FBECDBF7C01FA01CB0119A22230F3
:1006C00008F42AE08E010F5D1F4F422E512C612C41
:1006D000712CBF01A30192010E941220F901CA01ED
:1006E000015011096A3014F4605D01C0695CD801E1
:1006F0006C93232B242B252B61F7B801C7010E9493
:100700008B09A1960FB6F894DEBF0FBECDBFDF9167
:10071000CF911F910F91FF90EF907F906F905F901E
:100720004F900895CF9390913B02992309F458C0BC
:10073000C82F8091670290916802DC01ED91FC91D5
:100740000480F581E02D0995811114C085E649C02A
:100750008091670290916802DC01ED91FC91068026
:10076000F781E02D09958836D9F190F08137C1F1F4
:100770008637B9F18091670290916802DC01ED91B2
:10078000FC910480F581E02D09958111E1CFDECF48
:10079000883521F1833671F76EE571E0809167024B
:1007A000909168020E94A0094C2F50E060E070E038
:1007B0002AE080916702909168020E94490365E6F1
:1007C00071E080916702909168020E94A00962E343
:1007D00070E080E090E00E944D0102C010923B0268
:1007E00083E6CF910895BF92CF92DF92EF92FF926E
:1007F0000F931F93CF93DF93B82E0E9445076B0191
:100800007C0105E212E0C7E6D2E06EE671E0888185
:1008100099810E94A0094B2D50E060E070E02AE031
:10082000888199810E94490365E771E088819981F7
:100830000E94A0092AE0B701A601888199810E943F
:10084000490367E771E0888199810E94A009F80156
:1008500086819781A085B185B701A601481B590BF8
:100860006A0B7B0B2AE0888199810E94490367E724
:1008700071E0888199810E94A009F8014681578121
:100880006085718582859385A485B585481B590B44
:100890006A0B7B0B2AE088819981DF91CF911F91B0
:1008A0000F91FF90EF90DF90CF90BF900C94490391
:1008B000CF92DF92EF92FF920F931F93CF93DF932C
:1008C000EC016A017B01E881F9810190F081E02D62
:1008D0006DE209958C0144275527BA014C195D0931
:1008E0006E097F092AE0CE010E944903800F911F03
:1008F000DF91CF911F910F91FF90EF90DF90CF90FC
:100900000895CF93DF9300D0CDB7DEB72091A20832
:100910003091A308CE0101962115310519F4865AAC
:10092000984018C0AC01421B530BE091A408F09111
:10093000A50880E090E0309759F09C012E5F3F4F72
:1009400080819181820F931F0280F381E02DF3CF8C
:10095000840F951F9A83898349815A818091670208
:1009600090916802052E000C660B770B77FF03C091
:100970000E94580403C02AE00E9449030F900F9080
:10098000DF91CF9108950F931F93CF93DF93EC01E5
:100990000E948B098C016BE671E0CE010E948B09ED
:1009A000800F911FDF91CF911F910F91089569E7FB
:1009B00071E080916702909168020C94C304FC017D
:1009C000918D828D981761F0828DDF01A80FB11D86
:1009D0005D968C91928D9F5F9F73928F90E00895AA
:1009E0008FEF9FEF0895FC01918D828D981731F064
:1009F000828DE80FF11D858D90E008958FEF9FEFB8
:100A00000895FC01918D228D892F90E0805C9F4F8D
:100A1000821B91098F739927089588E891E00E94BD
:100A2000010521E0892B09F420E0822F0895FC01C3
:100A3000848DDF01A80FB11DA35ABF4F2C91848D67
:100A400090E001968F739927848FA689B7892C939C
:100A5000A089B1898C9180648C93938D848D981337
:100A600006C00288F389E02D80818F7D8083089500
:100A7000EF92FF920F931F93CF93DF93EC0181E0EE
:100A8000888F9B8D8C8D981305C0E889F9898081AA
:100A900085FD24C0F62E0B8D10E00F5F1F4F0F73E6
:100AA0001127E02E8C8DE8120CC00FB607FCFACF90
:100AB000E889F989808185FFF5CFCE010E9417056D
:100AC000F1CF8B8DFE01E80FF11DE35AFF4FF0824D
:100AD0000B8FEA89FB898081806207C0EE89FF89DC
:100AE0006083E889F98980818064808381E090E077
:100AF000DF91CF911F910F91FF90EF900895CF93C9
:100B0000DF93EC01888D8823C9F0EA89FB89808115
:100B100085FD05C0A889B9898C9186FD0FC00FB6E7
:100B200007FCF5CF808185FFF2CFA889B9898C9128
:100B300085FFEDCFCE010E941705E7CFDF91CF9162
:100B4000089580E090E0892B29F00E940D05811125
:100B50000C9400000895833081F028F4813099F0DE
:100B60008230A1F008958730A9F08830B9F0843040
:100B7000D1F4809180008F7D03C0809180008F77B9
:100B800080938000089584B58F7702C084B58F7DEF
:100B900084BD08958091B0008F7703C08091B0002C
:100BA0008F7D8093B00008951F920F920FB60F9221
:100BB00011242F933F934F935F936F937F938F9362
:100BC0009F93AF93BF93EF93FF9388E891E00E94C8
:100BD0001705FF91EF91BF91AF919F918F917F91F9
:100BE0006F915F914F913F912F910F900FBE0F909A
:100BF0001F9018951F920F920FB60F9211242F93EA
:100C00008F939F93EF93FF93E0919801F091990157
:100C10008081E0919E01F0919F0182FD12C0908140
:100C20008091A1018F5F8F732091A201821751F0F3
:100C3000E091A101F0E0E857FE4F958F8093A1016C
:100C400001C08081FF91EF919F918F912F910F9023
:100C50000FBE0F901F901895CF93DF93282F30E091
:100C6000F901E453FF4F8491F901E854FF4FD49107
:100C7000F901EC55FF4FC491CC2391F081110E94F2
:100C8000AB05EC2FF0E0EE0FFF1FE057FF4FA591F3
:100C9000B491EC91ED2381E090E021F480E002C07A
:100CA00080E090E0DF91CF9108951F93CF93DF9381
:100CB000282F30E0F901E453FF4F8491F901E85403
:100CC000FF4FD491F901EC55FF4FC491CC23C9F0EB
:100CD000162F81110E94AB05EC2FF0E0EE0FFF1FE5
:100CE000E656FF4FA591B4918FB7F894111105C046
:100CF0009C91ED2FE095E92302C0EC91ED2BEC9354
:100D00008FBFDF91CF911F910895CF93DF9390E034
:100D1000FC01E854FF4F2491FC01EC55FF4F8491F6
:100D2000882361F190E0880F991FFC01EA57FF4F7B
:100D3000C591D491FC01E656FF4FA591B491611184
:100D400009C09FB7F8948881209582238883EC910D
:100D50002E230BC0623061F49FB7F8943881822F44
:100D6000809583238883EC912E2B2C939FBF06C004
:100D70008FB7F894E8812E2B28838FBFDF91CF9116
:100D800008951F93CF93DF93182FEB0161E00E942A
:100D90008506209711F460E004C0CF3FD10539F4F7
:100DA00061E0812FDF91CF911F910C945506E12FC7
:100DB000F0E0E453FF4FE491E330F9F048F4E13020
:100DC000B9F0E230A1F584B5806284BDC8BD34C0FD
:100DD000E730E9F0E83019F1E43049F5809180001E
:100DE000806280938000D0938B00C0938A0024C0DF
:100DF00084B5806884BDC7BD1FC0809180008068B5
:100E000080938000D0938900C093880015C08091A2
:100E1000B00080688093B000C093B3000DC0809193
:100E2000B00080628093B000C093B40005C0C038A9
:100E3000D1050CF0B5CFAFCFDF91CF911F910895C1
:100E40003FB7F89480919E0890919F08A091A008C8
:100E5000B091A10826B5A89B05C02F3F19F00196B7
:100E6000A11DB11D3FBFBA2FA92F982F8827820F30
:100E7000911DA11DB11DBC01CD0142E0660F771F80
:100E8000881F991F4A95D1F708952FB7F89460915C
:100E90009A0870919B0880919C0890919D082FBFA3
:100EA00008951F920F920FB60F9211242F933F9324
:100EB0008F939F93AF93BF9380919A0890919B08D3
:100EC000A0919C08B0919D083091990823E0230FD0
:100ED0002D3720F40196A11DB11D05C026E8230F72
:100EE0000296A11DB11D2093990880939A089093B2
:100EF0009B08A0939C08B0939D0880919E089091B8
:100F00009F08A091A008B091A1080196A11DB11D54
:100F100080939E0890939F08A093A008B093A10887
:100F2000BF91AF919F918F913F912F910F900FBEE5
:100F30000F901F9018951F920F920FB60F921124C9
:100F40002F933F934F935F936F937F938F939F93D1
:100F5000AF93BF93EF93FF93E0918001F0918101F4
:100F60000995FF91EF91BF91AF919F918F917F91E3
:100F70006F915F914F913F912F910F900FBE0F9006
:100F80001F901895E0E7F0E080818D7F80830895C1
:100F9000EF92FF920F931F93CF93DF937C018B010E
:100FA00020E030E040E053E4FC0160817181828107
:100FB00093810E94541F20E030E048E453E40E94F3
:100FC000C0200E943221EB016138FFEF7F0734F02F
:100FD0006F3771052CF0CFE7D0E002C0C0E8DFEF3B
:100FE00020E030E040E053E4F701648175818681C0
:100FF00097810E94541F20E030E048E453E40E94AF
:10100000C0200E9432216138FFEF7F0734F06F3734
:1010100071052CF06FE770E002C060E87FEFF80127
:10102000C0836183DF91CF911F910F91FF90EF906B
:10103000089540E050E02830310591F440325105E8
:1010400079F0FA01E658FD4F708161819381982310
:10105000E281E91302C0272F362F4C5F5F4FEBCFA1
:10106000C90108959C014617570744F08617970752
:1010700064F081E0421753074CF407C084179507CA
:1010800024F081E0621773070CF480E008959B015F
:101090004423B9F077FF02C02D5F3F4F3595279568
:1010A00035952795FC01E20FF31FCB0164E070E05A
:1010B0000E944A22DC01A050BF4F9C918081892B65
:1010C00017C077FF02C02D5F3F4F359527953595A7
:1010D0002795FC01E20FF31FCB0164E070E00E9452
:1010E0004A22DC01A050BF4F8C91809590818923CA
:1010F00080830895FB019C012C5F3F4FDC014D91E3
:10110000CD014193A217B307C9F70895CF92DF929B
:10111000EF92FF920F931F93CF93DF93FC012085F3
:101120003185232BA9F0EC010E944507C880D980A6
:10113000EA80FB800C811D812E813F81C00ED11E73
:10114000E21EF31E21E06C157D058E059F0508F457
:1011500020E0822FDF91CF911F910F91FF90EF90B0
:10116000DF90CF9008958F929F92AF92BF92CF92CF
:10117000DF92EF92FF920F931F93CF93DF930E9422
:10118000200700919C0710919D0720919E073091A8
:101190009F07061717072807390718F40E94C20788
:1011A0004CC0E0919607F09197079081809193074A
:1011B000892309F042C00E94C2070E9420072091A3
:1011C0009A0730919B076901E12CF12C00919C0753
:1011D00010919D0720919E0730919F07460157016E
:1011E000801A910AA20AB30A950184010D501109CF
:1011F00021093109600F711F821F931F60938E07B1
:1012000070938F0780939007909391072091A00788
:101210003091A1074CE1429FE001439FD00D112482
:10122000C85DD94F29E330E040E050E00E94122031
:10123000398F288F1092A20726C081EB97E00E9479
:101240008608882301F18091A0079091A1072CE1E5
:10125000289FF001299FF00D1124E85DF94F88ECDB
:1012600090E0918F808F1092A207DF91CF911F9114
:101270000F91FF90EF90DF90CF90BF90AF909F9035
:101280008F900C94C207DF91CF911F910F91FF9027
:10129000EF90DF90CF90BF90AF909F908F90089588
:1012A000CF93DF93EC010E9445076C837D838E838F
:1012B0009F8381E090E099878887DF91CF9108959F
:1012C000CF92DF92EF92FF920F931F93CF93DF9312
:1012D0006C017A018B01C0E0D0E0CE15DF0589F00A
:1012E000D8016D918D01D601ED91FC910190F081B5
:1012F000E02DC6010995892B11F47E0102C02196CB
:10130000ECCFC701DF91CF911F910F91FF90EF902C
:10131000DF90CF9008956115710579F0FB01019080
:101320000020E9F73197AF01461B570BDC01ED9127
:10133000FC910280F381E02D099480E090E0089513
:101340000C948B09CF93DF93CDB7DEB7C356D10989
:101350000FB6F894DEBF0FBECDBF789484B582601F
:1013600084BD84B5816084BD85B5826085BD85B549
:10137000816085BD80916E00816080936E001092C7
:101380008100809181008260809381008091810042
:1013900081608093810080918000816080938000D3
:1013A0008091B10084608093B1008091B000816031
:1013B0008093B00080917A00846080937A0080915D
:1013C0007A00826080937A0080917A0081608093B5
:1013D0007A0080917A00806880937A001092C10030
:1013E0001092690210926A0210926B0210926C02C3
:1013F00010922702109228021092290210922A02BB
:1014000068EB7BE080E090E00E944D0188E891E08D
:1014100090936802809367020E94FE0062E271E08E
:1014200080916702909168020E94A0096AE070E0D2
:1014300080E090E00E944D0181E080933B0264E3F4
:1014400071E080916702909168020E94A0096BE3AD
:1014500071E080916702909168020E94A0096BE39D
:1014600071E080916702909168020E94A0096BE38D
:1014700071E080916702909168020E94A0090E9429
:1014800081046BE371E080916702909168020E9491
:10149000A0096DE371E080916702909168020E945B
:1014A000A0096AE070E080E090E00E944D01109297
:1014B0006B0810926F0810926C08109270081092CE
:1014C0006D081092710810926E08109272080E94B6
:1014D000FE0010923B0810923A0861E088E00E94FA
:1014E000850661E087E00E94850661E08BE00E944E
:1014F000850661E08AE00E948506E0E4F6E088EC7B
:1015000090E09587848791838083938382839583FA
:1015100084839783868391878087938782877C964D
:1015200027E0E039F20769F781E08093A307109282
:10153000A2078BE090E09093A1078093A00784E03E
:1015400090E09093A5078093A4071092AF0760E006
:1015500082E00E94850660E084E00E94850660E0EB
:1015600083E00E94850660E08EE00E94850660E0D0
:101570008FE00E94850660E080E10E94850660E0C1
:1015800081E10E94850660E082E10E94850661E0BB
:1015900083E10E9485060E94450760931E067093B2
:1015A0001F06809320069093210610922306109226
:1015B00022061092240610922506109226061092FA
:1015C000270661E085E00E94850661E086E00E94D2
:1015D000850689E08093E0028FEF8093E10260E06E
:1015E00089E00E94550661E08091E0020E94850634
:1015F00080918301811122C08091820181111EC0DE
:101600002FB7F89482E0809380008AE18093810074
:1016100088EB9BE0909389008093880090938B00E7
:1016200080938A0080E49CE99093870080938600F1
:1016300080916F00887F80936F002FBF8091E002C0
:10164000893041F481E080938301809180008F7321
:10165000806807C081E080938201809180008F7C48
:101660008062809380001092DC021092DD02109262
:10167000DE021092DF0260E070E0CB010E949D006C
:101680001092D8021092D9021092DA021092DB0264
:1016900010920303AE014F5F5F4F5DAF4CAF0E94EE
:1016A00045070091840110918501209186013091B8
:1016B0008701DC01CB01801B910BA20BB30B863998
:1016C0009105A105B10508F4C8C00E9445076093C3
:1016D000840170938501809386019093870161E076
:1016E00070E080E090E00E944D0164E371E0809141
:1016F0006702909168020E94A0096BE371E08091FB
:101700006702909168020E94A009C12CD12C760139
:1017100010E000E020E0822F002E01C0880F0A9424
:10172000EAF7182B0F5F083031F08DE0C816D104AE
:10173000E104F104A9F4412F50E060E070E02AE0F8
:1017400080916702909168020E94490367E771E007
:1017500080916702909168020E94A00900E010E069
:1017600061E070E080E090E00E944D019FEFC91AB7
:10177000D90AE90AF90AAEE0CA16D104E104F10473
:1017800071F051E0C516D104E104F10419F28C2D79
:101790000E942C0621E0892B09F0BDCFBBCF61E070
:1017A00070E080E090E00E944D016BE371E0809179
:1017B0006702909168020E94A00910E0812F806466
:1017C00080937C0080917A00806480937A0080917D
:1017D0007A0086FDFCCF209178008091790030E07E
:1017E000382B8091670290916802A901032E000CAA
:1017F000660B770B37FF03C00E94580403C02AE032
:101800000E94490367E771E0809167029091680246
:101810000E94A0091F5F163089F66BE371E080918A
:101820006702909168020E94A0090E9481046BE304
:1018300071E080916702909168020E94A0096DE3B7
:1018400071E080916702909168020E94A00961E0B6
:1018500070E080E090E00E944D0166E471E088E86D
:1018600091E00E94C3048BE198E00E9486088823DF
:1018700009F4A6C187E298E00E94860881119CC104
:1018800088E891E00E940105009709F435C1409174
:101890003A0850913B0829E030E0241B350B8C01BD
:1018A000281739070CF48901A12CB12C912CB2E036
:1018B000EB2EF12CCC24C394D12CA016B1060CF045
:1018C0006AC088E891E00E94DF04209169083091A5
:1018D0006A082130310541F122303105E1F1232B35
:1018E00009F055C020913A0830913B08F901EA58B7
:1018F000FD4F9081891313C0A9014F5F5F4F509333
:101900003B0840933A08F901E55EF74F868B443077
:101910005105E9F5D0926A08C092690838C0109262
:101920003B0810923A0833C020913A0830913B08A6
:10193000A9014F5F5F4F50933B0840933A08F9016C
:10194000E55EF74F868B4530510509F5F0926A0840
:10195000E09269081CC020913A0830913B08A90127
:101960004F5F5F4F50933B0840933A08F901E55EA3
:10197000F74F868B4930510551F410923B08109275
:101980003A0810926A081092690899249394BFEF5C
:10199000AB1ABB0A92CF992009F4AEC084EF91E054
:1019A000A0E0B0E08093330290933402A09335021C
:1019B000B093360210923702109238021092390218
:1019C00010923A0280912B0290912C02A0912D024C
:1019D000B0912E0280932F0290933002A093310297
:1019E000B09332020E94450760932B0270932C0241
:1019F00080932D0290932E026AE070E080E090E0E8
:101A00000E944D0185E680933C0280913C02833622
:101A1000D1F1853671F58091370290913802A0910D
:101A20003902B0913A020196A11DB11D809337028F
:101A300090933802A0933902B0933A024091330256
:101A4000509134026091350270913602452B462B3D
:101A5000472B21F4892B8A2B8B2B59F483E00E948E
:101A6000F3030E94D70464EF71E080E090E00E94ED
:101A700026016AE070E080E090E00E944D0183E082
:101A80000E949203C0CF0E94450760932B0270937F
:101A90002C0280932D0290932E0280913508809322
:101AA00040080E941908880F991F880F991FFC0190
:101AB000E658FD4F80819181A281B38180933C08DB
:101AC00090933D08A0933E08B0933F08BE016F5F1E
:101AD0007F4F86E398E00E947A0861E478E0CE01C7
:101AE00001960E947A0881E080936B0880936C08CD
:101AF00080936D0880936E08EFE6EE2EE8E0FE2EF0
:101B000000E010E0F5E0DF2E5E01ECE1AE0EB11C6E
:101B1000D7018C91882309F442C01C92F801E55E3C
:101B2000F74FC6A4BE016F5F7F4F86E792E00E9429
:101B30007A08CD82FE013196DE011D968D2D019031
:101B40000D928A95E1F7FE013D96DE0152968D2DAC
:101B500001900D928A95E1F7FE017296DE0157968B
:101B60008D2D01900D928A95E1F7C801865B974F04
:101B7000FE017796DE01119621912D93EA15FB0562
:101B8000D9F7BE016A5F7F4F0E947A0849E050E0B2
:101B9000BE016F5F7F4F88E891E00E946009BFEF50
:101BA000EB1AFB0A075F1F4F0432110509F0B0CF93
:101BB0008BE198E00E94500987E298E00E9450096A
:101BC00088E296E00E948608882309F4D4C384E35F
:101BD00096E00E9486088111CAC38091A3078823DA
:101BE00009F4C1C384EF91E0A0E0B0E08093330238
:101BF00090933402A0933502B093360210923702CC
:101C0000109238021092390210923A0280912B02FF
:101C100090912C02A0912D02B0912E0280932F0260
:101C200090933002A0933102B09332020E94450794
:101C300060932B0270932C0280932D0290932E02BE
:101C40006AE070E080E090E00E944D0185E68093BC
:101C50003C0280913C028336D1F1853671F580914A
:101C6000370290913802A0913902B0913A02019660
:101C7000A11DB11D8093370290933802A0933902C1
:101C8000B0933A0240913302509134026091350290
:101C900070913602452B462B472B21F4892B8A2B3A
:101CA0008B2B59F485E00E94F3030E94D70464EF64
:101CB00071E080E090E00E9426016AE070E080E040
:101CC00090E00E944D0185E00E949203C0CF0E94E7
:101CD000450760932B0270932C0280932D02909302
:101CE0002E02E0913206F0913306E559F74F8081DC
:101CF0008823A9F1108280913C0890913D08A09121
:101D00003E08B0913F088093A6079093A707A09341
:101D1000A807B093A907809140088093AA076BEAAF
:101D200077E081E498E00E947A088091A60790917C
:101D3000A7070497A1F48BEA97E00E94890121E0AC
:101D4000672B682B692B09F420E02093AF07609183
:101D50003206709133068DE692E00E944F01809129
:101D6000A207811100C38091AF07882309F45FC0E7
:101D70008091B00781115BC00091A0071091A1076D
:101D800000FF55C0C80117FD019695958795909164
:101D90009002890F8093AA070E941908880F991F43
:101DA000880F991FFC01E658FD4F80819181A28127
:101DB000B3818093A6079093A707A093A807B09339
:101DC000A907C80163E0880F991F6A95E1F7BE0172
:101DD000645E7F4F8D54984F0E94C8078091A00782
:101DE0009091A10773E0880F991F7A95E1F7BE01E2
:101DF000695E7F4F8554984F0E94C8072D8D9F893B
:101E0000888D3C8D39832A839B838C836BEA77E0B2
:101E1000CE0101960E947A086091320670913306D5
:101E200086EA97E00E944F0181E08093B0072090FE
:101E3000A0073090A107EBE02E16310469F48091E1
:101E4000A4079091A507019665E070E00E944A22E0
:101E50009093A5078093A4072091A4073091A5072C
:101E600026963FAF2EAF26978CE1829DF001839D91
:101E7000F00D1124E85DF94F008D118D011511054C
:101E800029F023960FAF23971EAF05C038EC239699
:101E90003FAF23971EAE8EE0829DF001839DF00D33
:101EA000112426964EAD5FAD2697E40FF51FEE0F79
:101EB000FF1FEE5BF94F23965FAD239750838EADE6
:101EC0008183083C110519F0E4E0F1E002C0EAE08A
:101ED000F1E0A081B1812E96BFAFAEAF2E97C28048
:101EE000D380E480F5802CE1229DC001239D900DDC
:101EF0001124FC01E85DF94F2A96FFAFEEAF2A9757
:101F000024A135A128963FAF2EAF2897B901330FF2
:101F1000880B990B0E94F51E4B015C0120E030E01C
:101F200040E85FE3C701B6010E944F2062966CAFA4
:101F30007DAF8EAF9FAF6297A701960160E070E022
:101F400080E89FE30E944E206B017C0162962CADDD
:101F50003DAD4EAD5FAD6297C501B4010E94541F07
:101F60000E9432212B013C01A7019601C501B40159
:101F70000E94541F0E943221A20123968FAD239705
:101F80009EAD0E943208882371F02396EFAD23970F
:101F90002A96AEADBFAD2A979496EC939497FEAD7A
:101FA0009596FC9397C026968EAD9FAD2697049686
:101FB00065E070E00E944A222C01612C712C98018E
:101FC000110F440B550B66962CAF3DAF4EAF5FAF74
:101FD00066978EE0829DA001839D500D1124689626
:101FE0005FAF4EAF689705E010E026968EAD9FADCF
:101FF00026974816590609F44DC02E96AEADBFADD2
:102000002E976A167B060CF045C066966CAD7DADCA
:102010008EAD9FAD66970E94F51E4B015C016296E6
:102020002CAD3DAD4EAD5FAD62970E94541F0E9436
:1020300032212C966CAF7DAF8EAF9FAF2C97A7014E
:102040009601C501B4010E94541F0E943221689676
:10205000EEADFFAD6897E40DF51DEE0FFF1FEE5BD3
:10206000F94F2A964EAD5FAD2A97808191810E94EB
:102070003208882329F05FEF651A750A20E001C055
:1020800021E0C2010496B8010E944A222C012223B9
:1020900009F4ABCF2E968EAD9FAD2E9701976816A3
:1020A000790654F42796BFAD27972396BFAF2397A1
:1020B0002896EFAD2897EEAF8CE1829DF001839DCD
:1020C000F00D1124E85DF94F23962FAD239724A33B
:1020D0003EAD35A34CE1429DC001439D900D1124BE
:1020E000DC01A85DB94F7D0194966D917C91959727
:1020F000072E000C880B990B0E94F51E2B013C014A
:102100002BED3FE049EC5FE3F70166A577A580A9D9
:1021100091A90E944F204B015C010E94BB209B01B2
:10212000AC018101A3E0000F111FAA95E1F7085D42
:10213000194F6801FDE6CF1AFEEFDF0AC301B201B5
:102140000E94541F9B01AC01D70196966D917D9121
:102150008D919C9199970E944F20F6016083718325
:1021600082839383C501B4010E94AC219B01AC0121
:1021700009561E4FC301B2010E94541F9B01AC01BE
:10218000D7019A966D917D918D919C919D970E941A
:102190004F20F8016083718382839383C10101968C
:1021A0006CE070E00E944A229093A1078093A00700
:1021B0001092B0072CE1289FF001299FF00D112407
:1021C000E85DF94F06891789602F617088E00E94E9
:1021D0005506B80176956795617087E00E945506AF
:1021E000B801769567957695679561708BE00E944A
:1021F000550693E0169507959A95E1F7602F617063
:102200008AE00E94550681E08093A2070E94C207DF
:1022100081EB97E00E945009E0919807F0919907AF
:10222000908180919207892B8083E0919407F091AF
:1022300095079081809192078095892380838BE018
:1022400090E00197F1F7E0919407F0919507908164
:1022500080919207892B808383E290E00197F1F7C8
:10226000E0919407F0919507908180919207809575
:1022700089238083E0919807F0919907908180915C
:102280009207809589238083E0919607F0919707C4
:10229000908180919307892309F065C00E942007EF
:1022A00020919A0730919B07890120E030E0085582
:1022B000194E2F4F3F4FDC01CB01800F911FA21F02
:1022C000B31F80939C0790939D07A0939E07B093A4
:1022D0009F07E0919607F09197079081809193076F
:1022E000892381F40E94200700919C0710919D078B
:1022F00020919E0730919F07061717072807390777
:1023000040F731C00E94200720919A0730919B0727
:10231000DC01CB01820F931FA11DB11D80939C078F
:1023200090939D07A0939E07B0939F0783EB98E03F
:1023300090938101809380010E94C2078091B60032
:102340008F7D8093B60082E08093B00084E080931C
:10235000B1001092B20085E08093B30080917000CC
:1023600082608093700088E296E00E94500984E3C6
:1023700096E00E94500988E096E00E948608882333
:1023800009F452C184E196E00E948608811148C197
:1023900084EF91E0A0E0B0E08093330290933402A8
:1023A000A0933502B0933602109237021092380291
:1023B0001092390210923A0280912B0290912C02D5
:1023C000A0912D02B0912E0280932F0290933002A3
:1023D000A0933102B09332020E94450760932B0212
:1023E00070932C0280932D0290932E026AE070E08D
:1023F00080E090E00E944D0185E680933C02809150
:102400003C028336D1F1853671F580913702909187
:102410003802A0913902B0913A020196A11DB11D76
:102420008093370290933802A0933902B0933A0216
:10243000409133025091340260913502709136021E
:10244000452B462B472B21F4892B8A2B8B2B59F4B8
:1024500084E00E94F3030E94D70464EF71E080E0FF
:1024600090E00E9426016AE070E080E090E00E9427
:102470004D0184E00E949203C0CF0E944507609303
:102480002B0270932C0280932D0290932E020E94B7
:1024900045076B017C0160E083E10E94550682E103
:1024A0000E942C06082F81E10E942C068295880F3D
:1024B000880F807C182F30E8039F1019112480E1C9
:1024C0000E942C06882E8FE00E942C06982E8EE00B
:1024D0000E942C06A82E83E00E942C06082F84E080
:1024E0000E942C06B82E82E00E942C06810F182F25
:1024F00040E2849E100D112450E1959E100D112490
:1025000088E0A89E100D1124000F000F010FBB0CD6
:102510000B0D002E000C110B61E083E10E945506AB
:1025200080912206909123069801281B390BA9015E
:1025300037FF04C044275527421B530B4138510530
:10254000C4F0B90173953A95FB0177FF04C0EE27FB
:10255000FF27E61BF70BA90137FF04C044275527C7
:10256000421B530B4E175F070CF4B901680F791F1C
:1025700001C0B80180901E0690901F06A090200612
:10258000B0902106A7019601281939094A095B096B
:1025900049015A01C0921E06D0921F06E092200601
:1025A000F09221061093230600932206232B242B5E
:1025B000252B39F1681B790B072E000C880B990B22
:1025C0000E94F51E20E030E046E155E40E94C02064
:1025D00026E636E642EA51E40E94541F6B017C0174
:1025E000C501B4010E94F31E9B01AC01C701B601F5
:1025F0000E94C02020E030E04AE754E40E94541FCB
:1026000003C060E070E0CB01609324067093250660
:10261000809326069093270688E096E00E94500952
:1026200084E196E00E9450098EE992E00E948608BB
:10263000882309F42BC48AEA92E00E94860881115B
:1026400021C4C0902406D0902506E0902606F09084
:10265000270684EF91E0A0E0B0E0809333029093EE
:102660003402A0933502B0933602109237021092D2
:1026700038021092390210923A0280912B02909106
:102680002C02A0912D02B0912E0280932F029093E4
:102690003002A0933102B09332020E94450760934A
:1026A0002B0270932C0280932D0290932E026AE0ED
:1026B00070E080E090E00E944D0185E680933C024E
:1026C00080913C028336D1F1853671F580913702D5
:1026D00090913802A0913902B0913A020196A11D61
:1026E000B11D8093370290933802A0933902B093C2
:1026F0003A02409133025091340260913502709158
:102700003602452B462B472B21F4892B8A2B8B2B0A
:1027100059F482E00E94F3030E94D70464EF71E051
:1027200080E090E00E9426016AE070E080E090E0A6
:102730000E944D0182E00E949203C0CF0E94450793
:1027400060932B0270932C0280932D0290932E02A3
:1027500086EB92E00E948608882309F40FC18090DE
:10276000D8029090D902A090DA02B090DB0220E06B
:1027700030E0A901C501B4010E94EE1E811117C00D
:1027800020E030E040E85FEBC701B6010E94A721DE
:1027900087FD0DC020E030E040E85FE3C701B601EF
:1027A0000E94EE1E18161CF080E090E0E1C0A70128
:1027B0009601C501B4010E944E206B017C010E946C
:1027C00045072C966CAF7DAF8EAF9FAF2C971091C5
:1027D000D4020091D5023090D6022090D7023091D9
:1027E000D00223963FAF23974091D1024EAF509134
:1027F000D20225965FAF25978091D30227968FAF9F
:1028000027972091C0023091C1024091C20250919D
:10281000C302C701B6010E94541F2091CC0230911F
:10282000CD024091CE025091CF020E944F204B0129
:102830005C012091C8023091C9024091CA025091B6
:10284000CB02C701B6010E944E202B013C018091B2
:10285000BA029091BB02A091BC02B091BD022C962D
:102860002CAD3DAD4EAD5FAD2C97281B390B4A0BFF
:102870005B0BCA01B9010E94F31E9B01AC01C301AD
:10288000B2010E94C0202091C4023091C502409143
:10289000C6025091C7020E94541F9B01AC01C501A2
:1028A000B4010E944F204B015C0123962FAD23976A
:1028B0003EAD25964FAD259727965FAD27970E9491
:1028C000A72118165CF02396BFAD2397AEAD2596D1
:1028D000FFAD25972796EFAD279704C0B82DA92DFA
:1028E000FA2DEB2D212F302F432D522D6B2F7A2FC8
:1028F0008F2F9E2F0E94EE1E87FF1FC023962FADA5
:1029000023973EAD25964FAD259727965FAD279728
:10291000B401C5010E94A72118165CF023961FADD3
:1029200023970EAD25963FAC259727962FAC27977A
:1029300004C0182D092D3A2C2B2C812F902FA32D5C
:10294000B22D8093CC029093CD02A093CE02B0938F
:10295000CF02C092C802D092C902E092CA02F0929D
:10296000CB02612F702F832D922D0E943221CB013B
:102970000E941C0386EB92E00E945009E091A8029D
:10298000F091A902E559F74F308129963FAF299779
:102990003323D9F0108280913C0890913D08A0919A
:1029A0003E08B0913F088093EF059093F005A09307
:1029B000F105B093F205809140088093F30564EF30
:1029C00075E081E498E00E947A08809103038823EF
:1029D00009F46BC084E093E00E948608882309F420
:1029E00064C084E093E00E945009E091A802F09155
:1029F000A902E159F74F8081811157C0C09062054B
:102A0000D0906305B0906605209168053091690506
:102A1000FE017796E12CF12C8F0180916605909153
:102A20006705803391058CF4D901A80FB91F4C912B
:102A300041934FEFE41AF40A01969093670580934F
:102A4000660554E0E516F10441F780916605909122
:102A50006705C09709F41EC2E090A802F090A90291
:102A6000909198029C0D892FA0E1BA9E800D1124AF
:102A70008D830E941908880F991F880F991FFC01E8
:102A8000E658FD4F80819181A281B38189839A8329
:102A9000AB83BC83BE016A5F7F4FC8010E947A0886
:102AA000B701CE0101960E944F018091B40290912E
:102AB000B5028130910509F448C1029709F0DEC1E1
:102AC0006BE471E088E891E00E94C3040091CE05B8
:102AD0001091CF05ECE0F0E02696FFAFEEAF269721
:102AE00028961FAE1EAE289728968EAD9FAD2897CC
:102AF00001966CE070E00E944A2228969FAF8EAF4C
:102B0000289763E0880F991F6A95E1F72091CE0519
:102B10003091CF05A901480F591F24965FAF4EAFE2
:102B20002497D8018D909D90AD90BC901397809282
:102B3000BA059092BB05A092BC05B092BD05149653
:102B40002D913D914D915C9117972093BE05309347
:102B5000BF054093C0055093C1052496EEADFFAD6F
:102B6000249764817581868197810E944E206B0134
:102B70007C01A50194012496AEADBFAD24976D9163
:102B80007D918D919C910E944E204B015C019B0197
:102B9000AC010E94541F2B013C01A7019601C70103
:102BA000B6010E94541F9B01AC01C301B2010E94F7
:102BB0004F200E94BA2120E030E040E05EE30E9416
:102BC000541F0E9432217093CB056093CA05072ED3
:102BD000000C880B990B0E94F51E2B013C019B01F8
:102BE000AC01C501B4010E94C0206093C20570937E
:102BF000C3058093C4059093C505A3019201C70145
:102C0000B6010E94C0206093C6057093C7058093EB
:102C1000C8059093C9051092CD051092CC05C090BF
:102C20009A02D0909B02E0909C02F0909D0266E593
:102C300071E088E891E00E94A009412C512C74E0D9
:102C4000272E312CECE07E2E2091CC053091CD0545
:102C50008091CA059091CB05281739072CF4E4E13F
:102C60004E1651040CF452C26EE073E0CE01C896C9
:102C70000E943D02B801CE01C4960E943D022496F6
:102C80006EAD7FAD2497CE01C0960E943D02A8ACE8
:102C9000B9ACBA82A9828AAC9BAC9C828B827CA99B
:102CA0006DA97D836E834EA95FA958874F8388A93C
:102CB00099A99A8789878AA99BA99C878B87872F3F
:102CC000962F9A018A159B051CF0C501A72EB62EDA
:102CD0004815590514F094014A0169847A842B84BB
:102CE0003C84681679062CF0A614B7040CF4530142
:102CF0003C01221633060CF031C12CE0229DC001AC
:102D0000239D900D11249C012E5D3C4FA0963FAF5A
:102D10002EAFA097A614B7040CF026C126964EAD90
:102D20005FAD26974150510926965FAF4EAF26976B
:102D300024960EAD1FAD2497452B09F0D5CE6BE63A
:102D400071E088E891E00E948B0929965FAD299790
:102D5000552309F45DC08091EF059091F005823014
:102D60009105D9F01CF4019739F04DC083309105DD
:102D700039F1069771F147C080910506811143C072
:102D800084EF95E00E9489016093D8027093D90284
:102D90008093DA029093DB0236C0809104068111A1
:102DA00032C084EF95E00E9489016093DC02709349
:102DB000DD028093DE029093DF020E949D0023C01B
:102DC00084EF95E00E9489017093B5026093B4028C
:102DD00012C084EF95E00E94890121E0672B682BE7
:102DE000692B09F420E020930303222321F084E0DF
:102DF00093E00E9450096091A8027091A9028DE6AB
:102E000092E00E944F0185EE92E00E9450090DC0B1
:102E100085EE92E00E948608882339F089EF92E0DF
:102E20000E94500981E08093050680910406882362
:102E300061F08FEE92E00E948608882331F01092B4
:102E4000F8021092F702109204068091050688237A
:102E5000A9F089EF92E00E948608882339F0109249
:102E60000203109201031092050608C01092D802C6
:102E70001092D9021092DA021092DB028EE992E0EF
:102E80000E9450098AEA92E00E9450090E94A1051E
:102E90000C944F0B1092670510926605E114F10433
:102EA00009F4DACDC601019690936305809362051B
:102EB00021E0C09711F020E004C010926305109249
:102EC000620540916205509163053CE0349FC0016A
:102ED000359F900D11244091640550916505840F34
:102EE000951F90936905809368052111B5CD84E005
:102EF000E816F10409F4B0CDBE016F5F7F4FC80141
:102F00008E0D9F1D0E947A084091680550916905B9
:102F1000FE0131968CAD9DAD8E199F0904962091CE
:102F2000660530916705E817F90779F02033310518
:102F300064F4DA01A20FB31F6C9161932F5F3F4FCE
:102F40003093670520936605EACF2033310509F0F9
:102F500083CD10926705109266057ECD821493048E
:102F60000CF441011901C9CEC30177FC03969C0101
:102F70003595279535952795A2963FAF2EAFA29709
:102F8000C30164E070E00E944A229C0120503F4F40
:102F9000A4963FAF2EAFA497A0962EAD3FADA097BD
:102FA0003FAF2EAF61018C149D040CF4ABC08AAD11
:102FB0009BADE8ACF9AC93012E193F0964963FAF85
:102FC0002EAF64973DA72CA79601281B390B3FA76E
:102FD0002EA76EA97FA9ECA9FDA993012E1B3F0B7B
:102FE00068963FAF2EAF689739A728A79601261B92
:102FF000370B3BA72AA72AA93BA948A959A9D3015E
:10300000A41BB50B6A96BFAFAEAF6A97BDA3ACA3C6
:10301000D601A21BB30BBFA3AEA3DF01AE19BF093C
:103020006C96BFAFAEAF6C97B9A3A8A3DB01A81B8A
:10303000B90BBBA3AAA3DA01AE1BBF0B6E96BFAF41
:10304000AEAF6E97BD8FAC8FF901E61BF70BFF8F0C
:10305000EE8FE41AF50AF88EEF8A821B930B9A8F93
:10306000898FBE01645D7F4FCE0180960E949B01D7
:103070002E969FAF8EAF2E97BE01685D7F4FCE011B
:103080004C960E949B0160969FAF8EAF6097BE01E9
:103090006C5D7F4FCE0147960E949B018C012E965E
:1030A0002EAD3FAD2E97232B71F46C964EAD5FADD8
:1030B0006C9760E070E064968EAD9FAD64970E945F
:1030C00032088823A9F060962EAD3FAD6097232B80
:1030D00009F0D0C06E964EAD5FAD6E9760E070E0C7
:1030E00068968EAD9FAD68970E9432088111C2C06C
:1030F000BFEFCB1ADB0A2EAD3FAD245F3F4F3FAF92
:103100002EAF51CF3FEF631A730A04CE6BE571E027
:1031100088E891E00E94A0096091CC057091CD05EE
:10312000CB0101969093CD058093CC05072E000C22
:10313000880B990B0E94F51E4B015C012091C6057E
:103140003091C7054091C8055091C9050E94541F90
:103150002091BE053091BF054091C0055091C10539
:103160000E944F2022966CAF7DAF8EAF9FAF22970B
:103170002091C2053091C3054091C4055091C50509
:10318000C501B4010E94541F9B01AC016091BA05B6
:103190007091BB058091BC059091BD050E944F20A8
:1031A00069837A838B839C8322968CAD9DADAEAD73
:1031B000BFAD22978D839E83AF83B887BE016F5FBB
:1031C0007F4FCE0147960E943D028F89988D8C15C6
:1031D0009D0531F4298D3A8D2E153F0509F448C01F
:1031E00068E571E088E891E00E94A0092F89388D98
:1031F000F201EE0FFF1FEE0FFF1FE659FA4F31836A
:103200002083E98DFA8DD201AA0FBB1FAA0FBB1F25
:10321000A459BA4FED93FC93C901B1010E944A220F
:10322000DC01A050BF4FA90137FF02C04D5F5F4FC7
:1032300055954795559547957E9EC0017F9E900D6B
:103240001124480F591FFA01EE5DFC4F5C9140813B
:103250004523433030F44F5FB9018E5D9C4F0E948F
:103260004708BFEF4B1A5B0A8F89988DE98CFA8C5F
:103270006C01EACC0115110561F4A70160E070E072
:103280006A968EAD9FAD6A970E943208882309F432
:103290002FCF2E968EAD9FAD2E9760962EAD3FAD63
:1032A0006097820F931F080F191F17FF03C0119516
:1032B00001951109023011050CF41ACFEAE6F5E088
:1032C00020E030E024153505B1F08081918186152C
:1032D000970539F4828193818C159D0511F4C901FC
:1032E00002C08FEF9FEF2F5F3F4F34968F3F4FEF1E
:1032F000940741F302C08FEF9FEF019609F0F8CEDB
:10330000EEADFFADA2962EAD3FADA297E20FF31F3B
:103310004081A496AEADBFADA4978C91482309F42B
:10332000E7CE4150B3018EAD9FAD0E944708E0CE7D
:103330002F923F924F925F926F927F928F929F92C5
:10334000AF92BF92CF92DF92EF92FF920F931F93B3
:10335000CF93DF9310928B0110928A0188EE93E055
:10336000A0E0B0E080938C0190938D01A0938E013A
:10337000B0938F0186E191E0909389018093880159
:1033800085EC90E0909395018093940184EC90E01B
:10339000909397018093960180EC90E0909399012F
:1033A0008093980181EC90E090939B0180939A0127
:1033B00082EC90E090939D0180939C0186EC90E0DC
:1033C00090939F0180939E011092A1011092A201FF
:1033D0001092A3011092A40110922B0210922C02C1
:1033E00010922D0210922E0210922F021092300293
:1033F0001092310210923202109233021092340273
:103400001092350210923602109237021092380252
:103410001092390210923A0210927B0210927A02B4
:1034200010927C028FEF80937D0221E030E0309398
:103430007F0220937E0291E090938002809381022C
:1034400022E030E0309383022093820220938402B2
:103450008093850223E030E0309387022093860238
:10346000209388028093890224E030E030938B021D
:1034700020938A0227E020938C0280938D0225E01E
:1034800030E030938F0220938E0228E02093900248
:1034900028EF2093910226E030E0309393022093AE
:1034A000920224E0209394028093950227E030E07A
:1034B000309397022093960220E42093980220EC08
:1034C000209399022FE720937602809377028093CE
:1034D00078028093790210927708109278081092FF
:1034E000790890937A0810927308109274081092D9
:1034F00075081092760880917A0290917B02A091D3
:103500007C02B0917D0280936D0290936E02A09335
:103510006F02B093700210927102109272021092B8
:1035200073021092740210927502209183083091F8
:1035300084084091850850918608609187087091B1
:1035400088088091890890918A08A1E00E948522CC
:10355000209383083093840840938508509386080D
:1035600060938708709388088093890890938A08ED
:103570000E94912281F410928B0810928C08109274
:103580008D0810928E0810928F0810929008109259
:1035900091081092920820917B0830917C0840910C
:1035A0007D0850917E0860917F087091800880911D
:1035B000810890918208A1E00E94852220937B08D7
:1035C00030937C0840937D0850937E0860937F0879
:1035D0007093800880938108909382080E949122C2
:1035E00041F410929B0210929A0210929D02109246
:1035F0009C0284E190E0A0E0B0E080931B089093EF
:103600001C08A0931D08B0931E08C1E0D0E0D09321
:103610002408C093230888EE93E0A0E0B0E08093F4
:10362000270890932808A0932908B0932A08D093DC
:103630003008C0932F08209093083090940830925F
:1036400026082092250810926A08109269088FE0D7
:1036500090E0A0E0B0E08093280690932906A09324
:103660002A06B0932B06D0933106C093300684E629
:1036700090E0A0E0B0E08093340690933506A093EC
:103680003606B0933706D0933D06C0933C06C10181
:1036900001969093330680933206E4ECF0E0E491D7
:1036A000E0939207E5ECF0E0E491E093930780EB80
:1036B00090E0FC012491E22FF0E0EE0FFF1FE656B0
:1036C000FF4F259134913093950720939407E1EBB8
:1036D000F0E0E491F0E0EE0FFF1FE057FF4F25917F
:1036E00034913093970720939607FC018491E82F3B
:1036F000F0E0EE0FFF1FEA57FF4F859194919093F2
:1037000099078093980781EC9CE290939B078093A4
:103710009A078AE090E0A0E0B0E08093B107909330
:10372000B207A093B307B093B407D093BA07C0937E
:10373000B9071092A30780E090E0A0E8B0E480937E
:103740004E0690934F06A0935006B093510640E06A
:1037500050E060E070E4409352065093530660934B
:1037600054067093550689EA95EDA3E8B4E4809376
:10377000560690935706A0935806B09359068BE0CF
:1037800090E090933F0680933E0606E616E626EE0E
:1037900030E400936A0610936B0620936C06309316
:1037A0006D0680E090E0A0E2B1E480936E06909315
:1037B0006F06A0937006B0937106EDEECE2EE7E093
:1037C000DE2EE4E8EE2EE4ECFE2EC0927206D092DD
:1037D0007306E0927406F0927506ECE0F0E0F09368
:1037E0005B06E0935A06FAE9CF2EF9E9DF2EF9E1FC
:1037F000EF2EF0E4FF2EC0928606D0928706E0926C
:103800008806F092890680938A0690938B06A0938F
:103810008C06B0938D0610928E0610928F06109231
:10382000900610929106D0937706C0937606EAE947
:103830008E2EE9E99E2EE9E1AE2EE0ECBE2E8092BE
:10384000A2069092A306A092A406B092A506809329
:10385000A6069093A706A093A806B093A906109277
:10386000AA061092AB061092AC061092AD06E2E0EA
:10387000F0E0F0939306E0939206F6E64F2E542C78
:10388000F6EE6F2EF0EC7F2E4092BE065092BF06F1
:103890006092C0067092C1068093C2069093C306E0
:1038A000A093C406B093C5068DEE97E0A4E8B4E4F7
:1038B0008093C6069093C706A093C806B093C90626
:1038C00083E090E09093AF068093AE0680E090E0B6
:1038D000A0E8B0EC8093DA069093DB06A093DC06B8
:1038E000B093DD064093DE065093DF066093E0065A
:1038F0007093E10649EA55ED63E874EC4093E20603
:103900005093E3066093E4067093E50644E050E0CC
:103910005093CB064093CA068093F6069093F70621
:10392000A093F806B093F90646E656E666E670E41C
:103930004093FA065093FB066093FC067093FD06D5
:1039400081E39AE3A4E8B4E48093FE069093FF0633
:10395000A0930007B093010785E090E09093E706FD
:103960008093E60640921207509213076092140764
:103970007092150780E090E0A0E2B1EC809316070A
:1039800090931707A0931807B0931907E5E64E2EFA
:10399000E3EA5E2EE3E86E2EE4EC7E2E40921A07F8
:1039A00050921B0760921C0770921D07E6E0F0E042
:1039B000F0930307E093020780922E0790922F075F
:1039C000A0923007B092310780933207909333076B
:1039D000A0933407B0933507FBED8F2EFFE09F2EA9
:1039E000F9E4AF2EF0E4BF2E8092360790923707AD
:1039F000A0923807B0923907E7E0F0E0F0931F0794
:103A0000E0931E07C0924A07D0924B07E0924C0702
:103A1000F0924D0780934E0790934F07A093500765
:103A2000B09351078092520790925307A092540787
:103A3000B0925507E8E0F0E0F0933B07E0933A07D7
:103A40000093660710936707209368073093690710
:103A500080936A0790936B07A0936C07B0936D07F0
:103A600085E693EAA3E8B4E480936E0790936F072A
:103A7000A0937007B09371078DE090E09093570783
:103A80008093560780E090E0A0E8B0E4809382073E
:103A900090938307A0938407B0938507409386078C
:103AA00050938707609388077093890781E39AE3AF
:103AB000A4E8B4EC80938A0790938B07A0938C07BB
:103AC000B0938D078AE090E090937307809372071C
:103AD0008FE090E0A0E0B0E08093080690930906A4
:103AE000A0930A06B0930B06D0931106C09310065C
:103AF00088EC90E0A0E0B0E0809314069093150667
:103B0000A0931606B0931706D0931D06C0931C060B
:103B1000C1010296909313068093120685E090E00F
:103B2000A0E0B0E080939E0290939F02A093A00239
:103B3000B093A102D093A702C093A60282E390E0C3
:103B4000A0E0B0E08093AA029093AB02A093AC02F5
:103B5000B093AD02D093B302C093B202C1010496F8
:103B6000909394088093930893E0290E311C30922F
:103B7000A9022092A802A2E0B0E0B093B502A093FF
:103B8000B4028AE090E0A0E0B0E08093B6029093A7
:103B9000B702A093B802B093B902D093BF02C0930A
:103BA000BE0280E090E0A0E0BFE38093C00290936B
:103BB000C102A093C202B093C3028DEC9CECACECAA
:103BC000BDE38093C4029093C502A093C602B09354
:103BD000C7021092C8021092C9021092CA02109233
:103BE000CB021092CC021092CD021092CE02109213
:103BF000CF0280E090E0AFE7B3EC8093D0029093E7
:103C0000D102A093D202B093D30280E090E0AFE75C
:103C1000B3E48093D4029093D502A093D602B093DC
:103C2000D7021092E0028FEF8093E10282E280934C
:103C3000E20286E98093E30288EE93E0A0E0B0E040
:103C40008093E5029093E602A093E702B093E80226
:103C5000D093EE02C093ED0284EF91E0A0E0B0E0DB
:103C60008093EF029093F002A093F102B093F202DE
:103C70001092F8021092F70288EB9BE0A0E0B0E00F
:103C80008093F9029093FA02A093FB02B093FC0296
:103C9000109202031092010382E090E0A0E0B0E0F5
:103CA0008093040390930503A0930603B093070346
:103CB000D0930D03C0930C0380918B0890918C08D6
:103CC000A0918D08B0918E0880930E0390930F03FE
:103CD000A0931003B093110380918F0890919008E6
:103CE000A0919108B09192088093120390931303CE
:103CF000A0931403B09315038BED9FE0A9ECBFE3F1
:103D00008093160390931703A0931803B09319039D
:103D100010921A0310921B0310921C0310921D03A1
:103D200080E090E0A0E8BFE380931E0390931F0320
:103D3000A0932003B09321038FEF9FEF909363052F
:103D40008093620590936705809366058BEB97E0FF
:103D50009093CF058093CE0500E010E0C0E0D0E066
:103D600040E0B801CE018E5D9C4F0E9447082C9622
:103D7000C03492E0D907A1F70F5F1F4F0033110540
:103D800069F782E293E09093650580936405109251
:103D900063051092620590936905809368051092FF
:103DA000670510926605109204061092050610929F
:103DB000070610920606DF91CF911F910F91FF9099
:103DC000EF90DF90CF90BF90AF909F908F907F90BB
:103DD0006F905F904F903F902F9008950E94301FFA
:103DE00008F481E00895E89409C097FB3EF49095AB
:103DF0008095709561957F4F8F4F9F4F9923A9F0C4
:103E0000F92F96E9BB279395F69587957795679552
:103E1000B795F111F8CFFAF4BB0F11F460FF1BC096
:103E20006F5F7F4F8F4F9F4F16C0882311F096E929
:103E300011C0772321F09EE8872F762F05C06623D7
:103E400071F096E8862F70E060E02AF09A95660F90
:103E5000771F881FDAF7880F9695879597F9089549
:103E6000990F0008550FAA0BE0E8FEEF161617068B
:103E7000E807F907C0F012161306E407F50798F0F3
:103E8000621B730B840B950B39F40A2661F0232B0C
:103E9000242B252B21F408950A2609F4A140A69588
:103EA0008FEF811D811D08950E94671F0C94D81FFC
:103EB0000E94CA1F38F00E94D11F20F0952311F0F4
:103EC0000C94C11F0C94C71F11240C940C200E9449
:103ED000E91F70F3959FC1F3950F50E0551F629F46
:103EE000F001729FBB27F00DB11D639FAA27F00D53
:103EF000B11DAA1F649F6627B00DA11D661F829F7A
:103F00002227B00DA11D621F739FB00DA11D621F5E
:103F1000839FA00D611D221F749F3327A00D611D7B
:103F2000231F849F600D211D822F762F6A2F11245D
:103F30009F5750409AF0F1F088234AF0EE0FFF1F90
:103F4000BB1F661F771F881F91505040A9F79E3FE7
:103F5000510580F00C94C11F0C940C205F3FE4F3DA
:103F6000983ED4F3869577956795B795F795E7953D
:103F70009F5FC1F7FE2B880F911D9695879597F946
:103F8000089597F99F6780E870E060E008959FEFDB
:103F900080EC089500240A941616170618060906E0
:103FA000089500240A9412161306140605060895AF
:103FB000092E0394000C11F4882352F0BB0F40F437
:103FC000BF2B11F460FF04C06F5F7F4F8F4F9F4F77
:103FD000089557FD9058440F551F59F05F3F71F0F9
:103FE0004795880F97FB991F61F09F3F79F0879560
:103FF0000895121613061406551FF2CF4695F1DFE9
:1040000008C0161617061806991FF1CF8695710578
:10401000610508940895E894BB2766277727CB01AC
:1040200097F90895A1E21A2EAA1BBB1BFD010DC032
:10403000AA1FBB1FEE1FFF1FA217B307E407F50758
:1040400020F0A21BB30BE40BF50B661F771F881F34
:10405000991F1A9469F760957095809590959B01CA
:10406000AC01BD01CF0108950E943F20A59F900D96
:10407000B49F900DA49F800D911D11240895A29FBF
:10408000B001B39FC001A39F700D811D1124911D2C
:10409000B29F700D811D1124911D08955058BB27AA
:1040A000AA270E9466200C94D81F0E94CA1F38F0CD
:1040B0000E94D11F20F039F49F3F19F426F40C948C
:1040C000C71F0EF4E095E7FB0C94C11FE92F0E9477
:1040D000E91F58F3BA17620773078407950720F0A2
:1040E00079F4A6F50C940B200EF4E0950B2EBA2F64
:1040F000A02D0B01B90190010C01CA01A0011124EE
:10410000FF27591B99F0593F50F4503E68F11A1699
:10411000F040A22F232F342F4427585FF3CF46952A
:1041200037952795A795F0405395C9F77EF41F164C
:10413000BA0B620B730B840BBAF09150A1F0FF0F16
:10414000BB1F661F771F881FC2F70EC0BA0F621F02
:10415000731F841F48F4879577956795B795F795F2
:104160009E3F08F0B0CF9395880F08F09927EE0F87
:104170009795879508950E946A21E3950C94932161
:104180000E94D4200C94D81F0E94D11F58F00E9486
:10419000CA1F40F029F45F3F29F00C94C11F511150
:1041A0000C940C200C94C71F0E94E91F68F39923FC
:1041B000B1F3552391F3951B550BBB27AA27621723
:1041C0007307840738F09F5F5F4F220F331F441F30
:1041D000AA1FA9F335D00E2E3AF0E0E832D0915064
:1041E0005040E695001CCAF72BD0FE2F29D0660F51
:1041F000771F881FBB1F261737074807AB07B0E894
:1042000009F0BB0B802DBF01FF2793585F4F3AF099
:104210009E3F510578F00C94C11F0C940C205F3F19
:10422000E4F3983ED4F3869577956795B795F7951F
:104230009F5FC9F7880F911D9695879597F9089507
:10424000E1E0660F771F881FBB1F621773078407A3
:10425000BA0720F0621B730B840BBA0BEE1F88F7B2
:10426000E09508950E9439216894B1110C940C20B6
:1042700008950E94F11F88F09F5798F0B92F992751
:10428000B751B0F0E1F0660F771F881F991F1AF041
:10429000BA95C9F714C0B13091F00E940B20B1E07B
:1042A00008950C940B20672F782F8827B85F39F07A
:1042B000B93FCCF3869577956795B395D9F73EF4DA
:1042C00090958095709561957F4F8F4F9F4F089582
:1042D0000C94C71F0E94F11FD8F3E894E0E0BB27BD
:1042E0009F57F0F02AED3FE049EC06C0EE0FBB0F00
:1042F000661F771F881F28F0B23A6207730784078A
:1043000028F0B25A620B730B840BE3959A9572F7FF
:10431000803830F49A95BB0F661F771F881FD2F73D
:1043200090480C94FC21EF93E0FF07C0A2EA2AED2D
:104330003FE049EC5FEB0E9466200E94D81F0F907F
:10434000039401FC9058E8E6F0E00C940F220E94E0
:10435000301F08F48FEF08959F930E946A210F90F9
:1043600007FCEE5F0C94932119F416F40C94C71F0C
:104370000C94FA210E94F11FB8F39923C9F3B6F304
:104380009F57550B87FF0E9408220024A0E640EAB1
:10439000900180585695979528F4805C660F771F9A
:1043A000881F20F026173707480730F4621B730B6D
:1043B000840B202931294A2BA69517940794202590
:1043C00031254A2758F7660F771F881F20F02617D8
:1043D0003707480730F4620B730B840B200D311D37
:1043E000411DA09581F7B901842F9158880F9695AA
:1043F000879508959F3F31F0915020F487957795E8
:104400006795B795880F911D9695879597F90895AB
:1044100091505040660F771F881FD2F708959F93E1
:104420008F937F936F93FF93EF939B01AC010E9457
:10443000541FEF91FF910E9423222F913F914F91A2
:104440005F910C94541FDF93CF931F930F93FF92B0
:10445000EF92DF927B018C01689406C0DA2EEF01A7
:104460000E94671FFE01E894A59125913591459121
:104470005591A6F3EF010E946620FE019701A80165
:10448000DA9469F7DF90EF90FF900F911F91CF9131
:10449000DF91089597FB072E16F4009407D077FD5F
:1044A00009D00E949D2207FC05D03EF4909581958D
:1044B0009F4F0895709561957F4F0895052E97FB46
:1044C0001EF400940E94752257FD07D00E9412200E
:1044D00007FC03D04EF40C9475225095409530950E
:1044E00021953F4F4F4F5F4F089590958095709560
:1044F00061957F4F8F4F9F4F0895B7FF0C943420E5
:104500000E943420821B930B08950024A7FD009481
:104510002A0F301D401D501D601D701D801D901DF7
:1045200008950024A7FD00942A1730054005500582
:1045300060057005800590050895AA1BBB1B51E11D
:1045400007C0AA1FBB1FA617B70710F0A61BB70B03
:10455000881F991F5A95A9F780959095BC01CD01A8
:104560000895EE0FFF1F0590F491E02D099481E06E
:0C45700090E0F8940C94BC22F894FFCF6B
:10457C00030C30C002000000003F050000000000EA
:10458C00000100000000380560090105DF04F30498
:10459C007F05564D4450565F317C315F564D44502B
:1045AC00560D0A00564D4450525F007C005F564D2C
:1045BC004450520D0A006C6F6F700075706461741A
:1045CC006547726964003100203300203200564D7B
:1045DC004450435F005F564D4450430D0A00564D06
:1045EC004450455F003A323A005F564D4450450006
:107E0000112484B714BE81FFF0D085E080938100F7
:107E100082E08093C00088E18093C10086E0809377
:107E2000C20080E18093C4008EE0C9D0259A86E02C
:107E300020E33CEF91E0309385002093840096BBD3
:107E4000B09BFECF1D9AA8958150A9F7CC24DD24C4
:107E500088248394B5E0AB2EA1E19A2EF3E0BF2EE7
:107E6000A2D0813461F49FD0082FAFD0023811F036
:107E7000013811F484E001C083E08DD089C08234E0
:107E800011F484E103C0853419F485E0A6D080C0E4
:107E9000853579F488D0E82EFF2485D0082F10E0AE
:107EA000102F00270E291F29000F111F8ED06801E7
:107EB0006FC0863521F484E090D080E0DECF843638
:107EC00009F040C070D06FD0082F6DD080E0C81688
:107ED00080E7D80618F4F601B7BEE895C0E0D1E017
:107EE00062D089930C17E1F7F0E0CF16F0E7DF06D8
:107EF00018F0F601B7BEE89568D007B600FCFDCFD4
:107F0000A601A0E0B1E02C9130E011968C91119780
:107F100090E0982F8827822B932B1296FA010C0160
:107F200087BEE89511244E5F5F4FF1E0A038BF0790
:107F300051F7F601A7BEE89507B600FCFDCF97BE46
:107F4000E89526C08437B1F42ED02DD0F82E2BD052
:107F50003CD0F601EF2C8F010F5F1F4F84911BD097
:107F6000EA94F801C1F70894C11CD11CFA94CF0C13
:107F7000D11C0EC0853739F428D08EE10CD085E9AC
:107F80000AD08FE07ACF813511F488E018D01DD067
:107F900080E101D065CF982F8091C00085FFFCCF94
:107FA0009093C60008958091C00087FFFCCF809118
:107FB000C00084FD01C0A8958091C6000895E0E648
:107FC000F0E098E1908380830895EDDF803219F02E
:107FD00088E0F5DFFFCF84E1DECF1F93182FE3DFCA
:107FE0001150E9F7F2DF1F91089580E0E8DFEE27F6
:047FF000FF270994CA
:027FFE00040479
:0400000300007E007B
:00000001FF