:100000000C9499000C94C1000C94C1000C94C10094
:100010000C94C1000C94C1000C94C1000C942A07EC
:100020000C94C1000C94C1000C94C1000C94C1004C
:100030000C94C1000C94C1000C94C1000C94C1003C
:100040000C94E0060C94C1000C9489050C94630593
:100050000C94C1000C94C1000C94C1000C94C1001C
:100060000C94C1000C94C100084AD73B3BCE016EF2
:1000700084BCBFFDC12F3D6C74319ABD56833DDAFF
:100080003D00C77F11BED9E4BB4C3E916BAAAABE0E
:10009000000000803F05A84CCDB2D44EB93836A937
:1000A000020C50B9918688083CA6AAAA2ABE000074
:1000B00000803F0664EC1B3C04BC163E3BE5B93CAB
:1000C000C93C37C29E5A3D660498083EEA69AAAA0E
:1000D0003E000000803F00000000240027002A00AE
:1000E0000000000023002600290000000000250079
:1000F00028002B0004040404040404040202020285
:1001000002020303030303030102040810204080DA
:100110000102040810200102040810200000000859
:1001200000020100000304070000000000000000BE
:10013000781B11241FBECFEFD8E0DEBFCDBF11E08A
:10014000A0E0B1E0EEE4F9E402C005900D92A63320
:10015000B107D9F726E0A6E3B1E001C01D92AC3BA0
:10016000B207E1F710E0C9E9D0E004C02197FE0131
:100170000E948024C839D107C9F70E9405090C9450
:10018000A5240C940000EAE3F1E0A089B18982E0A3
:100190008C93A485B5851C92A685B7858FEC8C932E
:1001A000108EA489B58986E08C93A289B3898C913D
:1001B00080618C93A289B3898C9188608C93A28989
:1001C000B3898C9180688C930288F389E02D8081BB
:1001D0008F7D80830895CF92DF92EF92FF920F93ED
:1001E0001F93CF93DF938B010F55194FF801C081F7
:1001F000D1E0CD2701F19B01FC0189E0829FB00194
:10020000839F700D1124DB01A35BB94FC080D180A7
:10021000E280F3809A96CD92DD92ED92FC929D97CA
:1002200084819E968C936458794FCF0105960E94E5
:10023000F207F801D0838C2FDF91CF911F910F919E
:10024000FF90EF90DF90CF900895FC0120816181B5
:10025000862F90E0A0E0B0E0DC0199278827B22B40
:100260002381822B2281BC01CD01722B0895CF9274
:10027000DF92EF92FF922FE832EC45E95FE30E94B4
:10028000022320E030E044EB52E40E9490200E94E0
:10029000A721663971053CF4DB016E3171052CF440
:1002A000AEE1B0E002C0A6E9B0E0A53BB10514F0B4
:1002B000A4EBB0E0A0936D02C0906E0220916F029B
:1002C00030E02C193109D12CE12CF12CFE2CED2C35
:1002D000DC2CCC24A901330F660B770B2227342F9B
:1002E000452F562F0E94642424EB30E040E050E07C
:1002F0000E944524C701B601620F731F841F951F1A
:1003000028E030E040E050E00E94452480916C02FB
:10031000893029F4309389002093880004C03093F9
:100320008B0020938A00FF90EF90DF90CF9008958C
:100330004F925F926F927F928F929F92AF92BF92F5
:10034000CF92DF92EF92FF92CF93DF93CDB7DEB7DC
:100350002C970FB6F894DEBF0FBECDBF3C012B012A
:100360004F3F8FEF580781F14130510509F00AC125
:10037000DB01CD90DD90ED90FC90F30180809180C9
:10038000A280B3802CEA35EC47E257E3C701B601FF
:100390000E948F209B01AC01C501B4010E94F5228F
:1003A00087FD62C02CEA35EC47E257E3C701B6018E
:1003B0000E9490209B01AC01C501B4010E942B2139
:1003C00018160CF451C02EC0DB011496CD90DD90B0
:1003D000ED90FC901797F301608171818281938188
:1003E0009B01AC010E949020D2012D913D914D9135
:1003F0005C910E948F2069837A838B839C83CD825A
:10040000DE82EF82F88641E050E0BE016F5F7F4FF1
:10041000C3010E9498016B017C01F7FAF094F7F890
:10042000F094B0C0F3012481358146815781D20117
:1004300014966D917D918D919C9117970E94F52254
:1004400018164CF49BEDC92E9FE0D92E99ECE92E9D
:100450009FE3F92E97C084EEC82E8BECD82E86E948
:10046000E82E80E4F82E8EC0A5019401C701B601E4
:100470000E94F52218160CF05FC0D20114968D91DF
:100480009D910D90BC91A02D89879A87AB87BC87E1
:10049000F3014480558066807780A3019201BC01FE
:1004A000CD010E94F522A301920187FD2AC0698532
:1004B0007A858B859C850E948F202B013C01A501AC
:1004C0009401C701B6010E948F209B01AC01C301BA
:1004D000B2010E9435212C960FB6F894DEBF0FBEF4
:1004E000CDBFDF91CF91FF90EF90DF90CF90BF9085
:1004F000AF909F908F907F906F905F904F900C94F3
:10050000FC2069857A858B859C850E948F202B0134
:100510003C01A5019401C701B6010E948F209B01F7
:10052000AC01C301B2010E9435210E94FC202BEDD9
:100530003FE049EC50E422C0D30114962D913D9147
:100540004D915C911797F201648175818681978145
:100550000E948F202B013C01A5019401C701B60127
:100560000E948F209B01AC01C301B2010E94352182
:100570000E94FC202BED3FE049E450E40E949020D3
:100580006B017C01C701B6012C960FB6F894DEBF53
:100590000FBECDBFDF91CF91FF90EF90DF90CF9056
:1005A000BF90AF909F908F907F906F905F904F9093
:1005B0000895009769F0FC0101900020E9F7319758
:1005C000AF01481B590BBC018AE391E00C94D80899
:1005D00080E090E008958F929F92AF92BF92CF9269
:1005E000DF92EF92FF920F931F93CF93DF93CDB7DC
:1005F000DEB7A1970FB6F894DEBF0FBECDBF6C017A
:10060000990FEE08FF08F7FE31C0E0913A01F09132
:100610003B010190F081E02D6DE28AE391E00995C4
:100620008C0122273327A9012C193D094E095F09A6
:1006300019A2CE0181967C019AE0892E912CA12CE1
:10064000B12CCA01B901A50194010E942324605D67
:10065000F70162937F01211531054105510589F7A5
:10066000CF010E94D902800F911F1DC0A7019601E2
:1006700019A28E010F5D1F4F8AE0C82ED12CE12CEC
:10068000F12CCA01B901A70196010E942324605DE3
:10069000F80162938F01211531054105510589F754
:1006A000CF010E94D902A1960FB6F894DEBF0FBE0B
:1006B000CDBFDF91CF911F910F91FF90EF90DF9011
:1006C000CF90BF90AF909F908F90089591E0681762
:1006D00008F490E0892F08958F929F92AF92BF9275
:1006E000CF92DF92EF92FF92CF93DF93FC01DB0179
:1006F000F0806F2D70E0CC916115710509F453C045
:100700001196DC91CC2309F459C0618170E080E03E
:1007100090E00E94DF214B015C016F2D70E080E0D2
:1007200090E00E94DD219B01AC01C501B4010E9453
:1007300035216B017C016D2F70E080E090E00E941C
:10074000DF214B015C016C2F70E080E090E00E94A3
:10075000DD219B01AC01C501B4010E9435219B0143
:10076000AC01C701B6010E948F206B017C0120E023
:1007700030E0A9010E94F522181694F0C1E0D0E003
:1007800020E030E0A901C701B6010E942B2187FDBE
:1007900002C0C0E0D0E0882799278C1B9D0B1AC0AF
:1007A00081E090E017C08181882319F06C2F70E000
:1007B00007C06C2F70E080E090E009C0D11103C049
:1007C000719561957109072E000C880B990B0E9499
:1007D000DF21CBCFDF91CF91FF90EF90DF90CF90D3
:1007E000BF90AF909F908F900895FF920F931F93AB
:1007F000CF93DF93EC018B0120E030E040E05EE33B
:10080000FB0164817581868197810E9402239B018F
:10081000AC0160E070E080EC91E40E948F200E94C7
:10082000AE21F62E20E030E040E05EE3F80160818A
:100830007181828193810E94022320E030E040ECAC
:1008400051E40E9490200E94AE216883F982CE017B
:10085000DF91CF911F910F91FF9008951F93CF9338
:10086000DF9382302FEF920734F08F3F910534F001
:10087000CFEFD0E004C0C1E0DFEF01C0EC011D2FDD
:100880001095111F1127111F11F0BE0102C060E069
:1008900070E085E00E945006111105C06627772799
:1008A0006C1B7D0B02C060E070E086E0DF91CF91B1
:1008B0001F910C945006089580E090E00895FC018B
:1008C000538D448D252F30E0842F90E0821B930BB5
:1008D000541710F0CF96089501970895FC01918D5B
:1008E000828D981761F0828DDF01A80FB11D5D9692
:1008F0008C91928D9F5F9F73928F90E008958FEF00
:100900009FEF0895FC01918D828D981731F0828DB3
:10091000E80FF11D858D90E008958FEF9FEF08950A
:10092000FC01918D228D892F90E0805C9F4F821B6E
:1009300091098F73992708958AE391E00E949004AA
:1009400021E0892B09F420E0822F0895FC01848D99
:10095000DF01A80FB11DA35ABF4F2C91848D90E0E9
:1009600001968F739927848FA689B7892C93A089C4
:10097000B1898C9180648C93938D848D981306C07B
:100980000288F389E02D80818F7D80830895EF9226
:10099000FF920F931F93CF93DF93EC0181E0888F39
:1009A0009B8D8C8D981305C0E889F989808185FD20
:1009B00024C0F62E0B8D10E00F5F1F4F0F73112711
:1009C000E02E8C8DE8120CC00FB607FCFACFE88938
:1009D000F989808185FFF5CFCE010E94A604F1CF71
:1009E0008B8DFE01E80FF11DE35AFF4FF0820B8F54
:1009F000EA89FB898081806207C0EE89FF89608374
:100A0000E889F98980818064808381E090E0DF91CA
:100A1000CF911F910F91FF90EF900895CF93DF93A7
:100A2000EC01888D8823C9F0EA89FB89808185FDE6
:100A300005C0A889B9898C9186FD0FC00FB607FC47
:100A4000F5CF808185FFF2CFA889B9898C9185FF88
:100A5000EDCFCE010E94A604E7CFDF91CF9108959C
:100A600080E090E0892B29F00E949C0481110C9475
:100A700000000895833081F028F4813099F08230AD
:100A8000A1F008958730A9F08830B9F08430D1F40E
:100A9000809180008F7D03C0809180008F7780934C
:100AA0008000089584B58F7702C084B58F7D84BDA2
:100AB00008958091B0008F7703C08091B0008F7D42
:100AC0008093B00008951F920F920FB60F921124D9
:100AD0002F933F934F935F936F937F938F939F9346
:100AE000AF93BF93EF93FF938AE391E00E94A60434
:100AF000FF91EF91BF91AF919F918F917F916F91F6
:100B00005F914F913F912F910F900FBE0F901F90CB
:100B100018951F920F920FB60F9211242F938F9357
:100B20009F93EF93FF93E0914A01F0914B018081F5
:100B3000E0915001F091510182FD12C090818091AD
:100B400053018F5F8F7320915401821751F0E09110
:100B50005301F0E0E65CFE4F958F8093530101C096
:100B60008081FF91EF919F918F912F910F900FBEF8
:100B70000F901F901895CF93DF93282F30E0F90145
:100B8000E45EFE4F8491F901E85FFE4FD491F901D4
:100B9000EC50FF4FC491CC2391F081110E943A0593
:100BA000EC2FF0E0EE0FFF1FE052FF4FA591B49144
:100BB000EC91ED2381E090E021F480E002C080E040
:100BC00090E0DF91CF9108951F93CF93DF93282F6B
:100BD00030E0F901E45EFE4F8491F901E85FFE4FD9
:100BE000D491F901EC50FF4FC491CC23C9F0162FDA
:100BF00081110E943A05EC2FF0E0EE0FFF1FE65145
:100C0000FF4FA591B4918FB7F894111105C09C9135
:100C1000ED2FE095E92302C0EC91ED2BEC938FBF13
:100C2000DF91CF911F910895CF93DF9390E0FC0166
:100C3000E85FFE4F2491FC01EC50FF4F8491882324
:100C400061F190E0880F991FFC01EA52FF4FC591B6
:100C5000D491FC01E651FF4FA591B491611109C0F7
:100C60009FB7F8948881209582238883EC912E2366
:100C70000BC0623061F49FB7F8943881822F809561
:100C800083238883EC912E2B2C939FBF06C08FB7B4
:100C9000F894E8812E2B28838FBFDF91CF910895A0
:100CA0001F93CF93DF93182FEB0161E00E9414068E
:100CB000209711F460E004C0CF3FD10539F461E022
:100CC000812FDF91CF911F910C94E405E12FF0E08B
:100CD000E45EFE4FE491E330F9F048F4E130B9F01E
:100CE000E230A1F584B5806284BDC8BD34C0E73070
:100CF000E9F0E83019F1E43049F580918000806234
:100D000080938000D0938B00C0938A0024C084B568
:100D1000806884BDC7BD1FC08091800080688093BB
:100D20008000D0938900C093880015C08091B000E6
:100D300080688093B000C093B3000DC08091B00074
:100D400080628093B000C093B40005C0C038D10564
:100D50000CF0B5CFAFCFDF91CF911F9108953FB782
:100D6000F8948091B8069091B906A091BA06B09116
:100D7000BB0626B5A89B05C02F3F19F00196A11D03
:100D8000B11D3FBFBA2FA92F982F8827820F911D21
:100D9000A11DB11DBC01CD0142E0660F771F881F68
:100DA000991F4A95D1F708952FB7F8946091B4062A
:100DB0007091B5068091B6069091B7062FBF089541
:100DC0001F920F920FB60F9211242F933F938F9380
:100DD0009F93AF93BF938091B4069091B506A09175
:100DE000B606B091B7063091B30623E0230F2D3736
:100DF00020F40196A11DB11D05C026E8230F02961F
:100E0000A11DB11D2093B3068093B4069093B5063F
:100E1000A093B606B093B7068091B8069091B90634
:100E2000A091BA06B091BB060196A11DB11D809399
:100E3000B8069093B906A093BA06B093BB06BF91CB
:100E4000AF919F918F913F912F910F900FBE0F9077
:100E50001F9018951F920F920FB60F9211242F9387
:100E60003F934F935F936F937F938F939F93AF9332
:100E7000BF93EF93FF93E0913601F091370109950D
:100E8000FF91EF91BF91AF919F918F917F916F9162
:100E90005F914F913F912F910F900FBE0F901F9038
:100EA0001895E0E7F0E080818D7F80830895EF92D0
:100EB000FF920F931F93CF93DF937C018B0120E070
:100EC00030E040E053E4FC016081718182819381D4
:100ED0000E94022320E030E048E453E40E943521E0
:100EE0000E94A721EB016138FFEF7F0734F06F37D5
:100EF00071052CF0CFE7D0E002C0C0E8DFEF20E0C2
:100F000030E040E053E4F701648175818681978188
:100F10000E94022320E030E048E453E40E9435219F
:100F20000E94A7216138FFEF7F0734F06F3771050A
:100F30002CF06FE770E002C060E87FEFF801C0833B
:100F40006183DF91CF911F910F91FF90EF900895F2
:100F500020E030E0F901EC51FE4F40815181938156
:100F600098236281691303C04A30510541F42C5F14
:100F70003F4F2832310571F78AE090E00895CA01A9
:100F80000895362F3770669566956695DC01A60F35
:100F9000B11DE32FF0E0E25EFE4F908190952C9121
:100FA000922301C0440F3A95EAF7492B4C930895D8
:100FB000462F4770E42FF0E0E25EFE4F669566959F
:100FC0006695860F911D2081FC018081282330E0E9
:100FD00002C0359527954A95E2F781E0232B09F465
:100FE00080E00895FB019C012C5F3F4FDC014D9197
:100FF000CD014193A217B307C9F70895CF92DF92AD
:10100000EF92FF920F931F93CF93DF93FC01208504
:101010003185232BA9F0EC010E94D406C880D98029
:10102000EA80FB800C811D812E813F81C00ED11E84
:10103000E21EF31E21E06C157D058E059F0508F468
:1010400020E0822FDF91CF911F910F91FF90EF90C1
:10105000DF90CF9008958F929F92AF92BF92CF92E0
:10106000DF92EF92FF920F931F93CF93DF930E9433
:10107000AF060091CE051091CF052091D00530919B
:10108000D105061717072807390718F40E945107DA
:101090004CC0E091C805F091C90590818091C505CB
:1010A000892309F042C00E9451070E94AF06209197
:1010B000CC053091CD056901E12CF12C0091CE05D4
:1010C0001091CF052091D0053091D10546015701EF
:1010D000801A910AA20AB30A950184010D501109E0
:1010E00021093109600F711F821F931F6093C00592
:1010F0007093C1058093C2059093C3052091D205DA
:101100003091D3054CE1429FE001439FD00D112463
:10111000C65ADB4F29E330E040E050E00E94232430
:10112000398F288F1092D40526C083EE95E00E9457
:10113000FE07882301F18091D2059091D3052CE11F
:10114000289FF001299FF00D1124E65AFB4F88ECEF
:1011500090E0918F808F1092D405DF91CF911F91F5
:101160000F91FF90EF90DF90CF90BF90AF909F9046
:101170008F900C945107DF91CF911F910F91FF90A9
:10118000EF90DF90CF90BF90AF909F908F90089599
:10119000CF93DF93EC010E94D4066C837D838E8312
:1011A0009F8381E090E099878887DF91CF910895B0
:1011B000CF92DF92EF92FF920F931F93CF93DF9323
:1011C0006C017A018B01C0E0D0E0CE15DF0589F01B
:1011D000D8016D918D01D601ED91FC910190F081C6
:1011E000E02DC6010995892B11F47E0102C02196DC
:1011F000ECCFC701DF91CF911F910F91FF90EF903E
:10120000DF90CF9008950E94A024CF93DF93CDB7B5
:10121000DEB7C057D1090FB6F894DEBF0FBECDBF01
:10122000789484B5826084BD84B5816084BD85B5C1
:10123000826085BD85B5816085BD80916E008160CD
:1012400080936E0010928100809181008260809373
:101250008100809181008160809381008091800075
:101260008160809380008091B10084608093B100A0
:101270008091B00081608093B00080917A0084609A
:1012800080937A0080917A00826080937A008091C6
:101290007A00816080937A0080917A0080688093E0
:1012A0007A001092C1000E94C30086E291E00E9481
:1012B000D9028FE291E00E94D9028AE391E00E9474
:1012C0000E0510929D061092A10610929E06109295
:1012D000A20610929F061092A3061092A0061092EA
:1012E000A4060E94C30010926D0610926C0661E085
:1012F00088E00E94140661E087E00E94140661E025
:101300008BE00E94140661E08AE00E941406E2E786
:10131000F4E088EC90E095878487918380839383C1
:10132000828395838483978386839187808793873D
:1013300082877C9625E0E23CF20769F781E08093A2
:10134000D5051092D4058BE090E09093D30580935F
:10135000D20584E090E09093D7058093D605109253
:10136000E10560E082E00E94140660E084E00E94F3
:10137000140660E083E00E94140660E08EE00E94A4
:10138000140660E08FE00E94140660E080E10E9495
:10139000140660E081E10E94140660E082E10E9490
:1013A000140661E083E10E9414060E94D406609353
:1013B00050047093510480935204909353041092FC
:1013C000550410925404109256041092570410922F
:1013D00058041092590461E085E00E94140661E00F
:1013E00086E00E94140689E080936C028FEF809360
:1013F0006D0260E089E00E94E40561E080916C028A
:101400000E94140680913901811122C08091380117
:1014100081111EC02FB7F89482E0809380008AE18A
:101420008093810088EB9BE09093890080938800F3
:1014300090938B0080938A0080E49CE990938700CE
:101440008093860080916F00887F80936F002FBF0C
:1014500080916C02893041F481E080933901809160
:1014600080008F73806807C081E08093380180918D
:1014700080008F7C806280938000109268021092BE
:10148000690210926A0210926B0260E070E0CB0178
:101490000E94370110926402109265021092660257
:1014A0001092670210928F028DE496E00E94FE0770
:1014B000882309F41CC189E596E00E94FE0781118A
:1014C00012C18AE391E00E949004009709F4B5C02C
:1014D00040916C0650916D0629E030E0241B350BDD
:1014E0008C01281739070CF48901A12CB12C912CFF
:1014F000A2E0EA2EF12CCC24C394D12CA016B10684
:101500000CF06AC08AE391E00E946E0420919B0671
:1015100030919C062130310541F122303105E1F155
:10152000232B09F055C020916C0630916D06F9010E
:10153000E052FE4F9081891313C0A9014F5F5F4FA6
:1015400050936D0640936C06F901E35BF94F868B6F
:1015500044305105E9F5D0929C06C0929B0638C0F4
:1015600010926D0610926C0633C020916C0630917B
:101570006D06A9014F5F5F4F50936D0640936C0657
:10158000F901E35BF94F868B4530510509F5F0927F
:101590009C06E0929B061CC020916C0630916D0663
:1015A000A9014F5F5F4F50936D0640936C06F901A0
:1015B000E35BF94F868B4930510551F410926D066B
:1015C00010926C0610929C0610929B06992493949C
:1015D0003FEFA31AB30A92CF992079F18091670661
:1015E000809372060E94A807880F991F880F991F81
:1015F000FC01EC51FE4F80819181A281B3818093E7
:101600006E0690936F06A0937006B0937106BE01AC
:101610006F5F7F4F88E696E00E94F20763E776E00F
:10162000CE0101960E94F20781E080939D0680938F
:101630009E0680939F068093A00671EAE72E76E0CF
:10164000F72E00E010E0E5E0BE2E6E014FE0C40E84
:10165000D11CD7018C918823C9F11C92F801E35B5E
:10166000F94FA6A4BE016F5F7F4F80EE91E00E940C
:10167000F207AD82FE013196DE0152968B2D01906C
:101680000D928A95E1F7FE017296DE0157968B2D39
:1016900001900D928A95E1F7FE017796DE011A9688
:1016A0008B2D01900D928A95E1F7C8018458994FCE
:1016B000FE013A96DE01119621912D93EC15FD0560
:1016C000D9F7BE016A5F7F4F0E94F207BFEFEB1AA6
:1016D000FB0A075F1F4F0432110509F0BACF8DE4F2
:1016E00096E00E94C80889E596E00E94C8088AE54D
:1016F00094E00E94FE07882309F426C386E694E05E
:101700000E94FE0781111CC38091D505882309F42E
:1017100013C3E0916404F0916504E356F94F8081AE
:101720008823A9F1108280916E0690916F06A09196
:101730007006B09171068093D8059093D905A09357
:10174000DA05B093DB05809172068093DC056DEDC0
:1017500075E083E796E00E94F2078091D8059091AA
:10176000D9050697A1F48DED95E00E94250121E0B1
:10177000672B682B692B09F420E02093E105609129
:1017800064047091650487ED91E00E94EB00809104
:10179000D405882339F083EE95E00E94FE0781117D
:1017A0000C9440198091D4058111C6C28091E10545
:1017B000882309F45FC08091E20581115BC000912C
:1017C000D2051091D30500FF55C0C80117FD019641
:1017D0009595879590910202890F8093DC050E9470
:1017E000A807880F991F880F991FFC01EC51FE4F25
:1017F00080819181A281B3818093D8059093D9058E
:10180000A093DA05B093DB05C80153E0880F991F58
:101810005A95E1F7BE01645E7F4F8B519A4F0E944B
:1018200057078091D2059091D30563E0880F991FE7
:101830006A95E1F7BE01665F7F4F83519A4F0E9420
:1018400057072D8D9A858B853C8D39832A839B8301
:101850008C836DED75E0CE0101960E94F2076091D8
:1018600064047091650488ED95E00E94EB0081E0CE
:101870008093E2052090D2053090D305EBE02E1640
:10188000310469F48091D6059091D705019665E001
:1018900070E00E940F249093D7058093D605209185
:1018A000D6053091D7053DA72CA78CE1829DF0018C
:1018B000839DF00D1124E65AFB4FE08CF18CE1146E
:1018C000F10411F0670103C028ECC22ED12C8EE088
:1018D000829DF001839DF00D11244CA55DA5E40FC0
:1018E000F51FEE0FFF1FEC58FB4FD182C08258EC62
:1018F000E516F10419F0E0E0F1E002C0E6E0F1E005
:101900008081918199AB88AB82809380A480B580DF
:101910008CE1829DF001839DF00D1124E65AFB4F6E
:10192000A4A1B5A1BFAFAEAFBD01BB0F880B990B92
:101930000E94DF212B013C0120E030E040E85FE322
:10194000C501B4010E9490206CAB7DAB8EAB9FAB08
:101950009B01AC01C301B2010E9402230E94A72196
:101960008B01A501940160E070E080E89FE30E9494
:101970008F204B015C019B01AC01C301B2010E94AD
:1019800002230E94A721061717073CF0C616D706A8
:101990005CF00C151D0544F075C0C016D10624F08E
:1019A0006C157D050CF06EC08CA59DA5049665E0B8
:1019B00070E00E940F242C0100E010E08EE0829D78
:1019C000D001839DB00D1124B9AFA8AF9701FF0CD2
:1019D000440B550B2AAF3BAF4CAF5DAFECA5FDA55B
:1019E0004E165F0609F446C028A939A90217130745
:1019F0000CF040C0E8ADF9ADE40DF51DEE0FFF1F92
:101A0000EC58FB4F608071806AAD7BAD8CAD9DADB5
:101A10000E94DF212A966CAF7DAF8EAF9FAF2A97D1
:101A20002CA93DA94EA95FA90E9402230E94A721CB
:101A30007B01A50194012A966CAD7DAD8EAD9FAD65
:101A40002A970E9402230E94A721E616F70614F4A3
:101A50000C945C196616770614F00C94561921E064
:101A6000C201049665E070E00E940F242C0122233D
:101A700009F4B4CF88A999A901970817190714F494
:101A8000CEACDFAC8CE1829DF001839DF00D112482
:101A9000E65AFB4FD5A2C4A23CE1329DC001339D62
:101AA000900D1124AC01465A5B4F7A01DA019496ED
:101AB0006D917C919597072E000C880B990B0E94D5
:101AC000DF212B013C012BED3FE049EC5FE3F70107
:101AD00066A577A580A991A90E9490204B015C0181
:101AE0000E9430219B01AC018101E3E0000F111F36
:101AF000EA95E1F7065A1B4F6801FDE6CF1AFEEFA3
:101B0000DF0AC301B2010E9402239B01AC01D7018D
:101B100096966D917D918D919C9199970E949020C0
:101B2000F6016083718382839383C501B4010E94AF
:101B30006F239B01AC0109561E4FC301B2010E94E5
:101B400002239B01AC01D7019A966D917D918D91F5
:101B50009C919D970E949020F801608371838283FD
:101B60009383C10101966CE070E00E940F24909372
:101B7000D3058093D2051092E2052CE1289FF00155
:101B8000299FF00D1124E65AFB4F06891789602F13
:101B9000617088E00E94E405B801769567956170F0
:101BA00087E00E94E405B80176956795769567957C
:101BB00061708BE00E94E405B3E016950795BA9535
:101BC000E1F7602F61708AE00E94E40581E0809374
:101BD000D4050E94510783EE95E00E94C80881EC6D
:101BE0009CE29093CD058093CC05E091CA05F091DD
:101BF000CB0590818091C405892B8083E091C60537
:101C0000F091C70590818091C405809589238083D8
:101C10008BE090E00197F1F7E091C605F091C705E0
:101C200090818091C405892B808383E290E00197A5
:101C3000F1F7E091C605F091C70590818091C40548
:101C4000809589238083E091CA05F091CB0590812E
:101C50008091C405809589238083E091C805F09127
:101C6000C90590818091C505892309F065C00E944E
:101C7000AF062091CC053091CD05890120E030E000
:101C80000855194E2F4F3F4FDC01CB01800F911F9C
:101C9000A21FB31F8093CE059093CF05A093D005CC
:101CA000B093D105E091C805F091C905908180916C
:101CB000C505892381F40E94AF060091CE051091DD
:101CC000CF052091D0053091D105061717072807B9
:101CD000390740F731C00E94AF062091CC05309102
:101CE000CD05DC01CB01820F931FA11DB11D809397
:101CF000CE059093CF05A093D005B093D1058BE28C
:101D000098E090933701809336010E9451078091AB
:101D1000B6008F7D8093B60082E08093B00084E0AF
:101D20008093B1001092B20085E08093B30080915F
:101D300070008260809370008AE594E00E94C80879
:101D400086E694E00E94C8088AE394E00E94FE07B9
:101D5000882309F4D3C086E494E00E94FE07811131
:101D6000C9C00E94D4066B017C0160E083E10E943F
:101D7000E40582E10E94BB05082F81E10E94BB05BA
:101D80008295880F880F807C182F30E8039F1019E8
:101D9000112480E10E94BB05882E8FE00E94BB05C4
:101DA000982E8EE00E94BB05A82E83E00E94BB0502
:101DB000082F84E00E94BB05B82E82E00E94BB057C
:101DC000810F182F40E2849E100D112450E1959E42
:101DD000100D112488E0A89E100D1124000F000F93
:101DE000010FBB0C0B0D002E000C110B61E083E109
:101DF0000E94E40540915404509155049801241B1D
:101E0000350BC90137FF04C088279927821B930B24
:101E100081389105CCF0C90193953A95DC0197FF83
:101E200004C0AA27BB27A81BB90BF90137FF04C0C0
:101E3000EE27FF27E21BF30BEA17FB070CF4C9019F
:101E4000BA01680F791F01C0B801809150049091C8
:101E50005104A0915204B091530446015701881ACD
:101E6000990AAA0ABB0AC0925004D0925104E09287
:101E70005204F092530410935504009354048114B7
:101E80009104A104B10439F1641B750B072E000CF9
:101E9000880B990B0E94DF2120E030E046E155E4F9
:101EA0000E94352126E636E642EA51E40E940223EA
:101EB0006B017C01C501B4010E94DD219B01AC01D5
:101EC000C701B6010E94352120E030E04AE754E422
:101ED0000E94022303C060E070E0CB0160935604CF
:101EE0007093570480935804909359048AE394E0C4
:101EF0000E94C80886E494E00E94C8088CE092E042
:101F00000E94FE07882311F40C943C1988E192E0AA
:101F10000E94FE0727968FAF279781110C943819DE
:101F2000209156043091570440915804509159041F
:101F300022962CAF3DAF4EAF5FAF229780916802E3
:101F400090916902A0916A02B0916B028CA79DA743
:101F5000AEA7BFA782E492E00E94FE07882309F49F
:101F6000FDC0C0906402D0906502E0906602F090DF
:101F7000670220E030E0A901C701B6010E942B21D1
:101F800081111FC020E030E040E85FEB22966CAD8D
:101F90007DAD8EAD9FAD22970E94F52287FD11C0C9
:101FA00020E030E040E85FE322966CAD7DAD8EAD81
:101FB0009FAD22970E942B2118161CF080E090E024
:101FC000C7C022962CAD3DAD4EAD5FAD2297C70187
:101FD000B6010E948F204B015C010E94D4066B0168
:101FE0007C011091600200916102309062022090A9
:101FF000630290915C0298ABA0915D02ACABB09192
:102000005E02B8AFE0915F02EAAF20914C023091DE
:102010004D0240914E0250914F02C501B4010E9401
:102020000223209158023091590240915A02509156
:102030005B020E94902026966CAF7DAF8EAF9FAF63
:1020400026972091540230915502409156025091AA
:102050005702C501B4010E948F202B013C018091E1
:10206000460290914702A0914802B0914902A7010F
:102070009601281B390B4A0B5B0BCA01B9010E9460
:10208000DD219B01AC01C301B2010E9435212091E9
:1020900050023091510240915202509153020E94DD
:1020A00002239B01AC0126966CAD7DAD8EAD9FAD3C
:1020B00026970E9490206B017C0128A93CA948AD7D
:1020C0005AAD0E94F52218162CF0B8A9ACA9F8ADAB
:1020D000EAAD04C0BC2DAD2DFE2DEF2D212F302FEC
:1020E000432D522D6B2F7A2F8F2F9E2F0E942B2145
:1020F00087FF13C028A93CA948AD5AADB601C70156
:102100000E94F52218162CF018A90CA938AC2AAC9C
:1021100004C01C2D0D2D3E2C2F2C812F902FA32D74
:10212000B22D8093580290935902A0935A02B09313
:102130005B028092540290925502A0925602B09295
:102140005702612F702F832D922D0E94A721CB0162
:102150000E942E0482E492E00E94C80882E094E08B
:102160000E94FE07882309F428C10E94D40600912A
:102170000604109107042091080430910904601BA3
:10218000710B820B930B28EE33E040E050E00E948D
:102190002324CA01B9010E94DD216CAB7DAB8EAB5B
:1021A0009FAB20900C0430900D0422968CAD9DAD19
:1021B000AEADBFAD2297F10180879187A287B3872B
:1021C0002CA53DA54EA55FA564857585868597855B
:1021D0000E942B21882309F4C2C02CA53DA54EA541
:1021E0005FA5D1011C962D933D934D935C931F9752
:1021F00020E030E0A9016CA57DA58EA59FA50E94D9
:10220000F52287FF03C00FEF1FEF02C001E010E0CF
:10221000F101118B008B20E030E0A9016CA57DA5B8
:102220008EA59FA50E94F522FF24F39418166CF446
:102230002DEC3CEC4CE45DE36CA57DA58EA59FA543
:102240000E942B21181664F00CC02DEC3CEC4CE4E1
:102250005DEB6CA57DA58EA59FA50E94F52287FD4F
:10226000F12CF0922204F1107AC06CA57DA58EA508
:102270009FA50E94C1239B01AC0160E070E080EA51
:1022800091E40E9435214B015C0160930E04709330
:102290000F048093100490931104B801110F880B60
:1022A000990B0E94DF212B013C0120E030E040E04F
:1022B00051E40E94022368AB79AB8AAB9BAB9B01D4
:1022C000AC01C501B4010E9490206B017C019B010F
:1022D000AC010E94022323EC35EF48E354E40E9452
:1022E00090200E947D23A30192010E94022360930B
:1022F000160470931704809318049093190428A966
:1023000039A94AA95BA9C501B4010E948F20609335
:102310001204709313048093140490931504C092D4
:102320001E04D0921F04E0922004F09221049B012D
:10233000AC010E94022320E030E048EC53E40E940C
:1023400090200E947D23A30192010E9402236093AA
:102350001A0470931B0480931C0490931D048091B5
:102360002204811126C022962CAD3DAD4EAD5FAD4D
:1023700022976CA97DA98EA99FA90E940223209172
:102380001E0430911F0440912004509121040E94AA
:1023900035219B01AC01D10152966D917D918D91BA
:1023A0009C9155970E949020F101628B738B848BD6
:1023B000958B82E094E00E94C80880E992E00E9438
:1023C000FE07882309F40FC1F12C00E010E040E083
:1023D0006F2DC80182569D4F0E94C1070A5F1F4F93
:1023E0000032F1E01F0799F7F39420E3F212EDCFEA
:1023F00000910004109101044CE050E05DAB4CAB47
:1024000019AE18AE88AD99AD01966CE070E00E94EF
:102410000F2499AF88AF63E0880F991F6A95E1F7A1
:102420002091000430910104D901A80FB91FB9AB64
:10243000A8ABF80180809180A280B3808092EC03E9
:102440009092ED03A092EE03B092EF0324813581C8
:10245000468157812093F0033093F1034093F203B8
:102460005093F30314966D917D918D919C911797E4
:102470000E948F206B017C01A5019401A8A9B9A934
:102480006D917D918D919C910E948F204B015C01FB
:102490009B01AC010E9402232B013C01A701960184
:1024A000C701B6010E9402239B01AC01C301B20126
:1024B0000E9490200E947D2320E030E040E05EE317
:1024C0000E9402230E94A7217093FD036093FC03E6
:1024D000072E000C880B990B0E94DF212B013C0179
:1024E0009B01AC01C501B4010E9435216093F40346
:1024F0007093F5038093F6039093F703A301920181
:10250000C701B6010E9435216093F8037093F90367
:102510008093FA039093FB031092FF031092FE0343
:1025200060919A0270919B02CE018A960E94F503F7
:10253000EAA4FBA4212C312C76E0D72E6091FE0377
:102540007091FF038091FC039091FD036817790758
:102550000CF0C1C6F3E12F1631040CF495C7BBC6CD
:102560004CA95DA9415051095DAB4CAB08A919A913
:10257000452B09F047CF80E992E00E94C8083EE968
:10258000E32E32E0F32E00E010E0612FC7010E943D
:10259000D807083109F468C7882309F46BC781E0BC
:1025A00090E00E94EB021F5F1F3279F76FE2C701D4
:1025B0000E94D807882309F462C781E090E00E9456
:1025C000EB028FE291E00E94D9028AE391E00E943F
:1025D0000E050F5F56E0E50EF11C0033A9F68FE201
:1025E00091E00E94D902E0911602F0911702EF5596
:1025F000F94F808181117BC0D090BE038091C203CE
:102600009091C303FE013A9620E07F013091C1030F
:10261000363058F4DC01A30FB11D4C9141932F5F6C
:102620003F5F3093C103243089F78091C1038E014D
:102630000F5F1F4F8630C1F51092C1032223A1F115
:1026400081E08D0D8093BE0331E0803311F030E0E6
:1026500002C01092BE034091BE038091BF039091CF
:10266000C003A6E04A9F800D911D11249093C303DF
:102670008093C203311118C0243009F0D9C714C0A7
:10268000263070F4DC01A20FB11D4C9141932F5FF5
:102690002093C1032091C1034E2F401B431784F3A5
:1026A000263011F41092C103A0901602B0901702C8
:1026B00080910A028D0D8D830E94A807880F991FB3
:1026C000880F991FFC01EC51FE4F80819181A281FE
:1026D000B38189839A83AB83BC83BE016A5F7F4FDA
:1026E000C7010E94F207B501C8010E94EB00E0910A
:1026F0001602F0911702E356F94FB0816E96BFAF04
:102700006E97BB23D9F0108280916E0690916F0670
:10271000A0917006B09171068093230490932404D5
:10272000A0932504B0932604809172068093270419
:1027300068E274E083E796E00E94F207809122024B
:10274000909123028130910509F4F5C4029709F0B4
:102750008BC521EE3EE245E652E46091880470911B
:10276000890480918A0490918B040E9402239B012A
:10277000AC016CA57DA58EA59FA50E948F206B0145
:102780007C0120E030E0A9010E94F522181624F017
:10279000F7FAF094F7F8F094B4EAAB2EB4E0BB2E5D
:1027A00019AE18AE01E010E021EE3EE245E652E43B
:1027B000F50160817181828193810E9402239B01D6
:1027C000AC016CA57DA58EA59FA50E948F202B0135
:1027D0003C0120E030E0A9010E94F522181624F007
:1027E00077FA709477F87094A7019601C301B2014B
:1027F0000E942B2187FF04C019AF08AF730162014B
:102800000F5F1F4FFCE1AF0EB11C0C30110561F6DC
:1028100088AD99AD9595879528AD39AD1C012630C9
:1028200031051CF033E0230E311C2E963FAE2EAE48
:102830002E974CE254E06D965FAF4EAF6D971AAE97
:1028400023961FAE23972B961FAE2B972C961FAE69
:102850002C972E962EAD3FAD2E97C90101966CE0B8
:1028600070E00E940F242E969FAF8EAF2E97E3E06C
:10287000220F331FEA95E1F7265A3B4FF901ED5637
:10288000FE4F80819181A281B38163968CAF9DAF11
:10289000AEAFBFAF63978093EC039093ED03A0932B
:1028A000EE03B093EF03349620813181428153814E
:1028B00067962CAF3DAF4EAF5FAF67972093F003A5
:1028C0003093F1034093F2035093F3032E960EAD31
:1028D0001FAD2E97F3E0000F111FFA95E1F7065A8E
:1028E0001B4FF801E956FE4F60817181828193810F
:1028F0000E948F202B013C01F801ED56FE4F63969C
:102900002CAD3DAD4EAD5FAD63976081718182812D
:1029100093810E948F206B017C019B01AC010E947E
:1029200002234B015C01A3019201C301B2010E9489
:1029300002239B01AC01C501B4010E9490200E94BA
:102940007D2320E030E040E251E40E94352120E088
:1029500030E040E85FE30E9490204B015C0120E002
:1029600030E040EA50E40E942B2187FF06C0C501F9
:10297000B4010E94A7218B0102C005E010E0109372
:10298000FD030093FC03B801012E000C880B990B8A
:102990000E94DF214B015C019B01AC01C301B2012C
:1029A0000E943521A2966CAF7DAF8EAF9FAFA297EC
:1029B000A5019401C701B6010E943521A6966CAF0E
:1029C0007DAF8EAF9FAFA6976093F4037093F5032E
:1029D0008093F6039093F703A2968CAD9DADAEADB8
:1029E000BFADA2978093F8039093F903A093FA03E5
:1029F000B093FB031092FF031092FE032F961FAEBD
:102A00002F976091FE037091FF03601771070CF020
:102A1000E1C2CB0101969093FF038093FE03072E42
:102A2000000C880B990B0E94DF216B017C019B013C
:102A3000AC01A2966CAD7DAD8EAD9FADA2970E940C
:102A400002239B01AC0167966CAD7DAD8EAD9FAD51
:102A500067970E9490206CA77DA78EA79FA7A701CC
:102A60009601A6966CAD7DAD8EAD9FADA6970E94EA
:102A700002239B01AC0163966CAD7DAD8EAD9FAD25
:102A800063970E9490204B015C018091220488236F
:102A900009F470C0A501940160E070E080E091EC61
:102AA0000E948F206B017C0120E030E0A9010E9490
:102AB000F522181624F0F7FAF094F7F8F094A5012F
:102AC000940160E070E080E091E40E948F202B018F
:102AD0003C0120E030E0A9010E94F522181624F004
:102AE00077FA709477F8709420E030E040E051EC91
:102AF000C501B4010E94F52287FD11C020E030E03D
:102B000040E051E4C501B4010E942B2118163CF0AD
:102B1000812C912C70E8A72E7FEBB72E06C0812C5C
:102B2000912C60E8A62E6FE3B62EA3019201C70197
:102B3000B6010E942B2187FD05C0742D652D962DB1
:102B4000872D04C07C2D6D2D9E2D8F2D272F362F88
:102B5000492F582FC501B4010E9402234B015C018B
:102B600020E030E040E050E40E942B2118160CF0E9
:102B700075C5D4C140900E0450900F0460901004AD
:102B800070901104D301C201B0588A879B87AC872B
:102B9000BD871E861F86188A198AA3019201C50166
:102BA000B4010E949020AA966CAF7DAF8EAF9FAF0C
:102BB000AA9769837A838B839C8320E030E040E28C
:102BC00051E46CA57DA58EA59FA50E9490204B0188
:102BD0005C016D837E838F839887A0910C04B091F4
:102BE0000D04AC96BFAFAEAFAC9750964D915C91D3
:102BF0005197BE016F5F7F4FCE010A960E949801E8
:102C0000E0966CAF7DAF8EAF9FAFE097209112043E
:102C100030911304409114045091150428AB39AB42
:102C20004AAB5BAB20E030E0A90168A979A98AA989
:102C30009BA90E94F522181654F088A999A9AAA95F
:102C4000BBA9B0588CAB9DABAEABBFAB08C028A93D
:102C500039A94AA95BA92CAB3DAB4EAB5FABC09089
:102C60001604D0901704E0901804F090190420E0A6
:102C700030E0A901C701B6010E94F522181624F020
:102C8000F7FAF094F7F8F094A3019201AA966CADCC
:102C90007DAD8EAD9FADAA970E9490209B01AC01A7
:102CA0000E9402232B013C01A5019401C501B4013E
:102CB0000E9402239B01AC01C301B2010E9490203B
:102CC0000E947D234B015C012CA93DA94EA95FA95F
:102CD0000E948F206CA77DA78EA79FA720E030E0E1
:102CE000A9010E94F52218164CF08CA59DA5AEA551
:102CF000BFA5B0588CA79DA7AEA7BFA7A7019601F7
:102D0000C501B4010E948F202B013C0120E030E07E
:102D1000A9010E94F522181624F077FA709477F82A
:102D200070942CA93DA94EA95FA9C701B6010E94C4
:102D3000F52287FD0DC02CA93DA94EA95FA9C501AB
:102D4000B4010E94F52287FD1CC0A70196010CC0AA
:102D5000A7019601C501B4010E94F52287FD11C0AB
:102D60002CA93DA94EA95FA9C501B4010E942B2140
:102D700018163CF0C12CD12C50E8E52E5FEBF52E57
:102D800006C0C12CD12C40E8E42E4FE3F42EA30161
:102D900092016CA57DA58EA59FA50E942B2187FD84
:102DA00005C0742D652D962D872D04C07CA56DA5BD
:102DB0009EA58FA5272F362F492F582FC701B60163
:102DC0000E9402234B015C0120E030E040E050E42F
:102DD0000E942B2118160CF4A1C028A939A94AA9D0
:102DE0005BA960911A0470911B0480911C0490915E
:102DF0001D040E948F206B017C0120E030E0A901BE
:102E00000E94F522A7019601181684F050582CABA9
:102E10003DAB4EAB5FABC301B2010E942B2187FDDE
:102E20000BC07CA96DA99EA98FA90AC0C301B201DC
:102E30000E942B2187FF43C4742D652D962D872D6D
:102E4000272F362F492F582F6CA57DA58EA59FA51E
:102E50000E942B2187FF2AC028A939A94AA95BA96A
:102E600060E070E080EA91E40E9435210E94FC203D
:102E70002B013C0120E030E0A901C701B6010E940E
:102E8000F522181624F0F7FAF094F7F8F094A70159
:102E900096016CA57DA58EA59FA50E9435219B015D
:102EA000AC01C301B2010E9402230CC028A939A9B8
:102EB0004AA95BA960E070E080EA91E40E943521B4
:102EC0000E94FC209B01AC01E0966CAD7DAD8EAD07
:102ED0009FADE0970E948F2020911E0430911F0427
:102EE00040912004509121040E940223AC96AEAD83
:102EF000BFADAC9718962D913D914D915C911B976C
:102F00000E94352168966FAF689769967FAF699781
:102F10006A968FAF6A976B969FAF6B9720E030E011
:102F200040E050E4C501B4010E942B2118160CF4B6
:102F300068CD2F96BFAD2F97BB2389F12AAD23967D
:102F40003FAD23972B964FAD2B972C965FAD2C97CB
:102F500068966FAD689769967FAD69976A968FADF1
:102F60006A976B969FAD6B970E942B2187FF49CD87
:102F70006896EFAD6897EAAF6996FFAD69972396BB
:102F8000FFAF23976A962FAD6A972B962FAF2B979B
:102F90006B963FAD6B972C963FAF2C9732CD6896D2
:102FA0004FAD68974AAF69965FAD699723965FAF5B
:102FB00023976A968FAD6A972B968FAF2B976B9658
:102FC0009FAD6B972C969FAF2C97A1E02F96AFAF3C
:102FD0002F9717CD2F96BFAD2F97BB2359F08AADF2
:102FE00023969FAD23972B96AFAD2B972C96BFAD15
:102FF0002C9703C080E090E0DC016D96EEADFFAD54
:103000006D9781939193A193B1936D96FFAFEEAFBE
:103010006D97E853F44009F01CCC10913804E8ADEA
:10302000F9ADE219F309EE0FFF1FEE0FFF1FE45D8C
:10303000FB4FC080D180E280F380A7019601C701D9
:10304000B6010E942B2181111AC020E030E0A901B5
:10305000C701B6010E94F52218168CF431E02796BC
:103060003FAF27972DEC3CEC4CE45FE3C701B60182
:103070000E942B2118161CF427961FAE279727961F
:103080008FAD2797812B80933804111154C088236A
:1030900009F451C020E030E0A90122966CAD7DAD6D
:1030A0008EAD9FAD22970E94F52218166CF4ECE8C5
:1030B000F0E0E219F309EE0FFF1FEE0FFF1FE45FD0
:1030C000FD4FA9E8B0E00CC0EFE8F0E0E219F30929
:1030D000EE0FFF1FEE0FFF1FE45FFD4FA2E9B0E010
:1030E000A219B309AA0FBB1FAA0FBB1FA45FBD4F34
:1030F0002D913D914D915C9160817181828193818F
:103100000E94F52218162CF466E676E68CE892E426
:1031100004C066E676E68CE892EC609368027093F1
:10312000690280936A0290936B020E9437018BE7D9
:1031300092E00E94C8086E964FAD6E97442309F442
:103140005DC0809123049091240482309105D9F0D0
:103150001CF4019739F04DC08330910539F108977F
:1031600071F147C080913904811143C088E294E035
:103170000E94250160936402709365028093660249
:103180009093670236C080913804811132C088E282
:1031900094E00E9425016093680270936902809315
:1031A0006A0290936B020E94370123C088E294E088
:1031B0000E942501709323026093220212C088E2CC
:1031C00094E00E94250121E0672B682B692B09F40C
:1031D00020E020938F02222321F080E992E00E94D8
:1031E000C808609116027091170287ED91E00E9465
:1031F000EB0081E792E00E94C8080DC081E792E0F1
:103200000E94FE07882339F085E892E00E94C808F2
:1032100081E08093390480913804882361F08BE742
:1032200092E00E94FE07882331F0109284021092EF
:10323000830210923804809139048823A9F085E82C
:1032400092E00E94FE07882339F010928E021092BD
:103250008D021092390408C0109264021092650227
:1032600010926602109267028CE092E00E94C808F9
:1032700088E192E00E94C8080E9430050C94540A2C
:103280008091D2059091D3052CE1289FF001299FD0
:10329000F00D1124E65AFB4F88EC90E0918F808F5F
:1032A0001092D4050E9451070C94D20BE614F70437
:1032B00014F40C942F0D0AC06E147F0414F40C94B3
:1032C0002F0D6615770514F40C942F0D0F5F1F4F0B
:1032D00020E00C94300DB801CE0188960E94F503D1
:1032E00068A979A9CE0186960E94F503BAA4B9828D
:1032F0008BA58A8348A54B8399A59C832EA12D83FA
:103300002FA12E83242F392F4B1510F02B2DB42EE7
:10331000981710F0382F892F9D81AE80921720F0DA
:10332000B91608F4B92E922FA31620F08A1508F4C6
:103330008A2DA32EC92ED12C46E0A49E90011124E3
:10334000A82FB0E06196BFAFAEAF61972E563F4F4A
:1033500065963FAF2EAF65978B2D90E08C159D0540
:103360000CF4FEC8EA2CF12C612C712C5C2C6196BB
:103370002EAD3FAD61972E153F050CF471C02F9611
:10338000EFAE2F978BA59AA44C2C49184CA29E2DDA
:10339000981B9DA339A548A55C2D541B2B965FAFA8
:1033A0002B975AA39E2D931B9BA39FA12EA18C2CE0
:1033B000821A88A25E2D591B59A3542F59192C9695
:1033C0005FAF2C975E8F532F581B5F8F522F541B6C
:1033D0002D965FAF2D975C8FA92FA31BAD8F921AEF
:1033E0009A86891B8B87BE016C5D7F4FCE014E96FE
:1033F0000E946C039BAF8AAFBE016E5D7F4FCE0112
:103400004C960E946C038C01BE01605E7F4FCE0122
:103410000A960E946C0324969FAF8EAF24972AAD24
:103420003BAD232B41F42C966FAD2C97842D0E943D
:103430006603882371F00115110509F09CC02D96D3
:103440006FAD2D972B968FAD2B970E946603811140
:1034500092C0BFEFEB1AFB0AE6E06E0E711C87CF3D
:103460003FEFC31AD30A78CF183109F095C882E329
:1034700091E002C084E391E00E94D90294C884E301
:1034800091E00E94D9029DC8CB0101969093FF0361
:103490008093FE03072E000C880B990B0E94DF21FE
:1034A0004B015C012091F8033091F9034091FA033C
:1034B0005091FB030E9402232091F0033091F1030D
:1034C0004091F2035091F3030E9490202B013C01A4
:1034D0002091F4033091F5034091F6035091F703E6
:1034E000C501B4010E9402239B01AC016091EC0371
:1034F0007091ED038091EE039091EF030E94902074
:1035000069837A838B839C834D825E826F82788607
:10351000BE016F5F7F4FCE010A960E94F503CA84F9
:103520008B85CE1002C08F1519F1D89EC0011124D1
:10353000AC0142565D4F7A016C2DCA010E94D8073A
:10354000811105C041E06C2DC7010E94C107CA84EA
:10355000FB84F101EE0FFF1FEC53FC4FC082F10121
:10356000EE0FFF1FEB53FC4FF082F10131961F016C
:10357000EC2C0C949E1224962EAD3FAD2497232B59
:1035800039F4692D882D0E946603882309F461CFE0
:10359000002E000C110B3AAD030F111D37FD1A95CB
:1035A00023964FAD2397040F111D47FD1A9517FF62
:1035B00003C0119501951109023011050CF449CF92
:1035C000E5ECF3E020E030E022153305B9F0DF014F
:1035D00011978C91851108C080812F964FAD2F9740
:1035E000841302C0C90102C08FEF9FEF2F5F3F4FCE
:1035F00032968F3F5FEF950739F302C08FEF9FEF51
:10360000019609F026CF65960EAD1FAD6597060DA4
:10361000171D045F1D4F652DC8010E94D807882320
:1036200009F417CF40E0652DC8010E94C10711CFF2
:10363000B801C701820F911D27FD9A95E1962FAF22
:10364000E1970E94F20734E0E1962FADE197321B3B
:103650008091C2039091C303F8011CC820E030E0C0
:10366000A9016CA57DA58EA59FA50E94F52218161F
:103670002CF02AE939E949E851EC04C02AE939E992
:1036800049E851E46CA57DA58EA59FA50E948F20D9
:10369000E0910C04F0910D0420853185428553851D
:1036A0000E94352168966FAF689769967FAF6997DA
:1036B0006A968FAF6A976B969FAF6B973ACCA701CC
:1036C00096016CA57DA58EA59FA50E942B2187FF45
:1036D000EDCB28A939A94AA95BA960E070E080EA8E
:1036E00091E40E9435210E94FC202B013C01CFCBAC
:1036F0002F923F924F925F926F927F928F929F9202
:10370000AF92BF92CF92DF92EF92FF920F931F93EF
:10371000CF93DF9310923D0110923C0188EE882EEA
:1037200083E0982EA12CB12C80923E0190923F0113
:10373000A0924001B092410180E191E090933B0161
:1037400080933A0185EC90E0909347018093460185
:1037500084EC90E0909349018093480180EC90E0E4
:1037600090934B0180934A0181EC90E090934D013E
:1037700080934C0182EC90E090934F0180934E0136
:1037800086EC90E090935101809350011092530188
:103790001092540110925501109256011092E501B9
:1037A0001092E4011092E6012FEF2093E70181E0EF
:1037B00090E09093E9018093E80131E03093EA01D1
:1037C0002093EB01C2E0D0E0D093ED01C093EC0177
:1037D00042E04093EE012093EF0103E010E01093EC
:1037E000F1010093F00143E04093F2012093F301D3
:1037F00044E0242E312C3092F5012092F40145E072
:103800004093F6012093F70155E0A52EB12CB0921C
:10381000F901A092F80146E04093FA012093FB01E0
:1038200046E050E05093FD014093FC0147E0409397
:10383000FE012093FF0167E070E070930102609346
:10384000000248E04093020248EF40930302A8E0E0
:10385000B0E0B0930502A093040244E04093060256
:103860002093070249E050E0509309024093080278
:1038700040E440930A0240EC40930B024FE7409330
:10388000E0012093E1012093E2012093E3011092F3
:10389000A9061092AA061092AB063093AC061092BD
:1038A000A5061092A6061092A7061092A8064091AF
:1038B000E4015091E5016091E6017091E7014093C8
:1038C000D7015093D8016093D9017093DA01109217
:1038D000DB011092DC011092DD011092DE011092EA
:1038E000DF0144E150E060E070E040934D0650930A
:1038F0004E0660934F067093500690935606809341
:10390000550668EE862E63E0962EA12CB12C80928F
:10391000590690925A06A0925B06B0925C0690936C
:10392000620680936106A091AD06B091AE06B09399
:103930005806A093570610929C0610929B064FE0E3
:1039400050E060E070E040935A0450935B04609351
:103950005C0470935D04909363048093620444E676
:1039600050E060E070E04093660450936704609319
:1039700068047093690490936F0480936E04AD01A2
:103980004F5F5F4F5093650440936404E4E1F1E0BE
:10399000E491E093C405E5E1F1E0E491E093C5052D
:1039A00040E051E0FA013491E32FF0E0EE0FFF1F09
:1039B000E651FF4F659174917093C7056093C605FA
:1039C000E1E0F1E0E491F0E0EE0FFF1FE052FF4F85
:1039D000659174917093C9056093C805FA0144918B
:1039E000E42FF0E0EE0FFF1FEA52FF4F6591749154
:1039F0007093CB056093CA0541EC5CE25093CD0512
:103A00004093CC055AE0852E912CA12CB12C8092AC
:103A1000E3059092E405A092E505B092E605909347
:103A2000EC058093EB051092D50540E050E060E88E
:103A300070E44093800450938104609382047093F7
:103A40008304C12CD12CE12C60E4F62EC0928404B6
:103A5000D0928504E0928604F092870449EA55EDFD
:103A600063E874E4409388045093890460938A0463
:103A700070938B044BE050E05093710440937004BA
:103A800076E6872E982C76EEA72E70E4B72E8092DD
:103A90009C0490929D04A0929E04B0929F0440E0EA
:103AA00050E060E271E44093A0045093A10460935D
:103AB000A2047093A304EDEE8E2EE7E09E2EE4E8C0
:103AC000AE2EE4ECBE2E8092A4049092A504A092A7
:103AD000A604B092A704ECE0F0E0F0938D04E0932C
:103AE0008C04FAE98F2EF9E99F2EF9E1AF2EF0E46C
:103AF000BF2E8092B8049092B904A092BA04B092FA
:103B0000BB044093BC045093BD046093BE04709307
:103B1000BF041092C0041092C1041092C20410920B
:103B2000C3049093A9048093A8043AE9432E39E989
:103B3000532E39E1632E30EC732E4092D404509210
:103B4000D5046092D6047092D7044093D804509361
:103B5000D9046093DA047093DB041092DC041092B1
:103B6000DD041092DE041092DF04D093C504C093EC
:103B7000C404E6E68E2E982CE6EEAE2EE0ECBE2EC9
:103B80008092F0049092F104A092F204B092F304B7
:103B90004093F4045093F5046093F6047093F70493
:103BA0004DEE57E064E874E44093F8045093F90450
:103BB0006093FA047093FB041093E1040093E00413
:103BC00040E050E060E870EC40930C0550930D0528
:103BD00060930E0570930F05C0921005D0921105E9
:103BE000E0921205F0921305F9EACF2EF5EDDF2EE3
:103BF000F3E8EF2EF4ECFF2EC0921405D0921505D9
:103C0000E0921605F09217053092FD042092FC0414
:103C1000409328055093290560932A0570932B053E
:103C2000C6E6CC2EDC2CEC2CC0E4FC2EC0922C057D
:103C3000D0922D05E0922E05F0922F0541E35AE334
:103C400064E874E440933005509331056093320585
:103C500070933305D5E0AD2EB12CB0921905A0922A
:103C6000180546E656E666EE70EC40934405509320
:103C70004505609346057093470540E050E060E2DB
:103C800071EC409348055093490560934A05709341
:103C90004B0515E6812E13EA912E13E8A12E14ECA4
:103CA000B12E80924C0590924D05A0924E05B09297
:103CB0004F0506E0A02EB12CB0923505A092340538
:103CC00040926005509261056092620570926305B2
:103CD000409364055093650560936605709367058E
:103CE0003BED432E3FE0532E39E4632E30E4732E38
:103CF000409268055092690560926A0570926B0562
:103D0000E7E0F0E0F0935105E0935005EAE98E2EEC
:103D1000E9E99E2EE9E1AE2EE0E4BE2E80927C051C
:103D200090927D05A0927E05B0927F05409380051C
:103D300050938105609382057093830540928405BA
:103D4000509285056092860570928705F8E0AF2E47
:103D5000B12CB0926D05A0926C05C6E68C2E982C05
:103D6000C6EEAC2EC0E4BC2E8092980590929905C8
:103D7000A0929A05B0929B0540939C0550939D0597
:103D800060939E0570939F0545E653EA63E874E4EB
:103D90004093A0055093A1056093A2057093A305DD
:103DA0004DE050E0509389054093880540E050E095
:103DB00060E870E44093B4055093B5056093B60590
:103DC0007093B705C092B805D092B905E092BA05D4
:103DD000F092BB0541E35AE364E874EC4093BC0500
:103DE0005093BD056093BE057093BF054AE050E057
:103DF0005093A5054093A405DFE08D2E912CA12CB6
:103E0000B12C80923A0490923B04A0923C04B09270
:103E10003D04909343048093420448EC50E060E0FA
:103E200070E04093460450934704609348047093B5
:103E3000490490934F0480934E04AD014E5F5F4F51
:103E4000509345044093440445E050E060E070E046
:103E500040930C0250930D0260930E0270930F0278
:103E6000909315028093140242E350E060E070E00A
:103E7000409318025093190260931A0270931B0228
:103E80009093210280932002AD014C5F5F4F5093CD
:103E9000AE064093AD061396B0931702A093160298
:103EA0009093230280932202109224021092250202
:103EB00010922602109227021092280210922902D4
:103EC00010922A0210922B0210922C0210922D02B4
:103ED00010922E0210922F02109230021092310294
:103EE00010923202109233024BED5FE069EC7FE3F7
:103EF0004093360250933702609338027093390230
:103F000010923A0210923B0210923C0210923D0233
:103F100040E050E060E87FE340933E0250933F0270
:103F200060934002709341024AE050E060E070E02C
:103F300040934202509343026093440270934502BF
:103F400090934B0280934A0240E050E060E07FE3B0
:103F500040934C0250934D0260934E0270934F0277
:103F60004DEC5CEC6CEC7DE34093500250935102BD
:103F700060935202709353021092540210925502B1
:103F80001092560210925702109258021092590243
:103F900010925A0210925B0240E050E06FE773EC1F
:103FA00040935C0250935D0260935E0270935F02E7
:103FB00040E050E06FE773E4409360025093610289
:103FC000609362027093630210926C0220936D0200
:103FD00032E230936E0236E930936F0218EE812E92
:103FE00013E0912EA12CB12C80927102909272025A
:103FF000A0927302B092740290937A028093790235
:1040000044EF51E060E070E040937B0250937C020B
:1040100060937D0270937E0210928402109283025C
:1040200048EB5BE060E070E04093850250938602CD
:10403000609387027093880210928E0210928D0214
:1040400048E853E160E070E04093900250939102A1
:1040500060939202709393029093990280939802D6
:1040600084E292E090939B0280939A022093BE0395
:104070002093C1038DEE95E090930104809300049A
:1040800010E0C0E0D0E040E0612FCE0182569D4FAD
:104090000E94C1072696C03241E0D407A1F71F5FF6
:1040A000103379F78EE992E09093C0038093BF03B9
:1040B0001092BE039093C3038093C2031092C10376
:1040C00082E390E0A0E0B0E08093020490930304C8
:1040D000A0930404B093050481E090E090930B0456
:1040E00080930A0484E292E090930D0480930C0480
:1040F0001092380410923904DF91CF911F910F91E3
:10410000FF90EF90DF90CF90BF90AF909F908F90F7
:104110007F906F905F904F903F902F9008955058F0
:10412000BB27AA270E94A7200C94A7220E946E22D8
:1041300038F00E94752220F039F49F3F19F426F4DC
:104140000C9444220EF4E095E7FB0C943E22E92FF8
:104150000E94CC2258F3BA176207730784079507A9
:1041600020F079F4A6F50C94EE220EF4E0950B2ED7
:10417000BA2FA02D0B01B90190010C01CA01A001B9
:104180001124FF27591B99F0593F50F4503E68F114
:104190001A16F040A22F232F342F4427585FF3CF55
:1041A000469537952795A795F0405395C9F77EF426
:1041B0001F16BA0B620B730B840BBAF09150A1F06F
:1041C000FF0FBB1F661F771F881FC2F70EC0BA0FF5
:1041D000621F731F841F48F4879577956795B7957D
:1041E000F7959E3F08F0B0CF9395880F08F0992778
:1041F000EE0F979587950895DF93DD27B92FBF7749
:1042000040E85FE31616170648075B0718F4D92F36
:104210000E94FA229F938F937F936F930E94BD23F6
:10422000E8E6F0E00E9447220E94A7222F913F91EA
:104230004F915F910E941523DD2351F09058A2EA1F
:104240002AED3FE049EC5FE3D0785D270E94A7208C
:10425000DF910C94A7220E941A2208F481E00895AD
:104260000E947E22E3950C94B8220E9449210C946E
:10427000A7220E94752258F00E946E2240F029F475
:104280005F3F29F00C943E2251110C94EF220C94C4
:1042900044220E94CC2268F39923B1F3552391F371
:1042A000951B550BBB27AA2762177307840738F0A5
:1042B0009F5F5F4F220F331F441FAA1FA9F335D002
:1042C0000E2E3AF0E0E832D091505040E695001CB6
:1042D000CAF72BD0FE2F29D0660F771F881FBB1F70
:1042E000261737074807AB07B0E809F0BB0B802D4E
:1042F000BF01FF2793585F4F3AF09E3F510578F07A
:104300000C943E220C94EF225F3FE4F3983ED4F3EA
:10431000869577956795B795F7959F5FC9F7880F4D
:10432000911D9695879597F90895E1E0660F771F9F
:10433000881FBB1F621773078407BA0720F0621B30
:10434000730B840BBA0BEE1F88F7E09508950E945B
:10435000AE216894B1110C94EF2208950E94D422EA
:1043600088F09F5798F0B92F9927B751B0F0E1F036
:10437000660F771F881F991F1AF0BA95C9F714C0E6
:10438000B13091F00E94EE22B1E008950C94EE223B
:10439000672F782F8827B85F39F0B93FCCF386951F
:1043A00077956795B395D9F73EF49095809570957C
:1043B00061957F4F8F4F9F4F0895E89409C097FBF9
:1043C0003EF490958095709561957F4F8F4F9F4FEC
:1043D0009923A9F0F92F96E9BB279395F695879530
:1043E00077956795B795F111F8CFFAF4BB0F11F4F3
:1043F00060FF1BC06F5F7F4F8F4F9F4F16C088239A
:1044000011F096E911C0772321F09EE8872F762FCF
:1044100005C0662371F096E8862F70E060E02AF010
:104420009A95660F771F881FDAF7880F96958795FC
:1044300097F90895990F0008550FAA0BE0E8FEEFD1
:1044400016161706E807F907C0F012161306E40758
:10445000F50798F0621B730B840B950B39F40A2651
:1044600061F0232B242B252B21F408950A2609F42F
:10447000A140A6958FEF811D811D089597F99F6733
:1044800080E870E060E008959FEF80EC0895DF938E
:10449000CF931F930F93FF92EF92DF927B018C01DA
:1044A000689406C0DA2EEF010E941523FE01E894FD
:1044B000A5912591359145915591A6F3EF010E9463
:1044C000A720FE019701A801DA9469F7DF90EF9029
:1044D000FF900F911F91CF91DF91089500240A94CE
:1044E0001616170618060906089500240A941216CF
:1044F00013061406050608950C9444220E94D42243
:10450000D8F3E894E0E0BB279F57F0F02AED3FE0B6
:1045100049EC06C0EE0FBB0F661F771F881F28F0FF
:10452000B23A62077307840728F0B25A620B730B22
:10453000840BE3959A9572F7803830F49A95BB0F07
:10454000661F771F881FD2F790480C94E823092E26
:104550000394000C11F4882352F0BB0F40F4BF2BDE
:1045600011F460FF04C06F5F7F4F8F4F9F4F08951E
:10457000EF93E0FF07C0A2EA2AED3FE049EC5FEBD2
:104580000E94A7200E94A7220F90039401FC90583C
:10459000E5E9F0E00C94FB2357FD9058440F551FBC
:1045A00059F05F3F71F04795880F97FB991F61F0B5
:1045B0009F3F79F087950895121613061406551F2C
:1045C000F2CF4695F1DF08C0161617061806991F98
:1045D000F1CF86957105610508940895E894BB278D
:1045E00066277727CB0197F908950E941A2208F4CD
:1045F0008FEF08959B01AC0160E070E080E89FE3DD
:104600000C9435210E9415230C94A7220E946E223F
:1046100038F00E94752220F0952311F00C943E2270
:104620000C94442211240C94EF220E94CC2270F3AB
:10463000959FC1F3950F50E0551F629FF001729F47
:10464000BB27F00DB11D639FAA27F00DB11DAA1F56
:10465000649F6627B00DA11D661F829F2227B00DA3
:10466000A11D621F739FB00DA11D621F839FA00D2E
:10467000611D221F749F3327A00D611D231F849F7E
:10468000600D211D822F762F6A2F11249F575040D5
:104690009AF0F1F088234AF0EE0FFF1FBB1F661F50
:1046A000771F881F91505040A9F79E3F510580F019
:1046B0000C943E220C94EF225F3FE4F3983ED4F337
:1046C000869577956795B795F795E7959F5FC1F7BD
:1046D000FE2B880F911D9695879597F908959F93C6
:1046E0000E947E220F9007FCEE5F0C94B82219F412
:1046F00016F40C9444220C94E6230E94D422B8F3BE
:104700009923C9F3B6F39F57550B87FF0E94F423F3
:104710000024A0E640EA900180585695979528F429
:10472000805C660F771F881F20F026173707480721
:1047300030F4621B730B840B202931294A2BA69578
:1047400017940794202531254A2758F7660F771FBD
:10475000881F20F026173707480730F4620B730BC9
:10476000840B200D311D411DA09581F7B901842FC7
:104770009158880F9695879508959B01AC010C94EC
:104780000223DF93D92F0E947E22E695D7952AED4A
:104790003FE049E45FE3B33A620773078407950794
:1047A000D7953AF0A2EA49EC90680E94A7200E94AF
:1047B000A722E3EBF0E00E94FB23DD0F13F00E9441
:1047C000FA22DD0F0BF49058DF9108959F3F31F0EE
:1047D000915020F4879577956795B795880F911D2F
:1047E0009695879597F9089591505040660F771FD9
:1047F000881FD2F708959F938F937F936F93FF93B2
:10480000EF939B01AC010E940223EF91FF910E9464
:1048100047222F913F914F915F910C94022397FB78
:10482000072E16F4009407D077FD09D00E946C245F
:1048300007FC05D03EF4909581959F4F08957095A3
:1048400061957F4F0895A1E21A2EAA1BBB1BFD01A3
:104850000DC0AA1FBB1FEE1FFF1FA217B307E4075F
:10486000F50720F0A21BB30BE40BF50B661F771FB7
:10487000881F991F1A9469F7609570958095909597
:104880009B01AC01BD01CF010895052E97FB1EF4DD
:1048900000940E945C2457FD07D00E94232407FC4B
:1048A00003D04EF40C945C2450954095309521959E
:1048B0003F4F4F4F5F4F089590958095709561954C
:1048C0007F4F8F4F9F4F0895B7FF0C9486240E940F
:1048D0008624821B930B0895AA1BBB1B51E107C0C2
:1048E000AA1FBB1FA617B70710F0A61BB70B881F80
:1048F000991F5A95A9F780959095BC01CD0108950F
:10490000EE0FFF1F0590F491E02D09940E94912471
:10491000A59F900DB49F900DA49F800D911D112413
:104920000895A29FB001B39FC001A39F700D811D88
:104930001124911DB29F700D811D1124911D0895A8
:0E49400081E090E0F8940C94A524F894FFCF49
:10494E0002000000003F0500000000000000000013
:10495E00C704D8085F040E0590046E048204010299
:10496E0004081020408073657475702E2E2E000D75
:06497E000A0020003000D9
:107E0000112484B714BE81FFF0D085E080938100F7
:107E100082E08093C00088E18093C10086E0809377
:107E2000C20080E18093C4008EE0C9D0259A86E02C
:107E300020E33CEF91E0309385002093840096BBD3
:107E4000B09BFECF1D9AA8958150A9F7CC24DD24C4
:107E500088248394B5E0AB2EA1E19A2EF3E0BF2EE7
:107E6000A2D0813461F49FD0082FAFD0023811F036
:107E7000013811F484E001C083E08DD089C08234E0
:107E800011F484E103C0853419F485E0A6D080C0E4
:107E9000853579F488D0E82EFF2485D0082F10E0AE
:107EA000102F00270E291F29000F111F8ED06801E7
:107EB0006FC0863521F484E090D080E0DECF843638
:107EC00009F040C070D06FD0082F6DD080E0C81688
:107ED00080E7D80618F4F601B7BEE895C0E0D1E017
:107EE00062D089930C17E1F7F0E0CF16F0E7DF06D8
:107EF00018F0F601B7BEE89568D007B600FCFDCFD4
:107F0000A601A0E0B1E02C9130E011968C91119780
:107F100090E0982F8827822B932B1296FA010C0160
:107F200087BEE89511244E5F5F4FF1E0A038BF0790
:107F300051F7F601A7BEE89507B600FCFDCF97BE46
:107F4000E89526C08437B1F42ED02DD0F82E2BD052
:107F50003CD0F601EF2C8F010F5F1F4F84911BD097
:107F6000EA94F801C1F70894C11CD11CFA94CF0C13
:107F7000D11C0EC0853739F428D08EE10CD085E9AC
:107F80000AD08FE07ACF813511F488E018D01DD067
:107F900080E101D065CF982F8091C00085FFFCCF94
:107FA0009093C60008958091C00087FFFCCF809118
:107FB000C00084FD01C0A8958091C6000895E0E648
:107FC000F0E098E1908380830895EDDF803219F02E
:107FD00088E0F5DFFFCF84E1DECF1F93182FE3DFCA
:107FE0001150E9F7F2DF1F91089580E0E8DFEE27F6
:047FF000FF270994CA
:027FFE00040479
:0400000300007E007B
:00000001FF