:100000000C9488000C94B0000C94B0000C94B000D8
:100010000C94B0000C94B0000C94B0000C942C071D
:100020000C94B0000C94B0000C94B0000C94B00090
:100030000C94B0000C94B0000C94B0000C94B00080
:100040000C9415060C94B0000C94BE040C94980407
:100050000C94B0000C94B0000C94B0000C94B00060
:100060000C94B0000C94B000084AD73B3BCE016E14
:1000700084BCBFFDC12F3D6C74319ABD56833DDAFF
:100080003D00C77F11BED9E4BB4C3E916BAAAABE0E
:10009000000000803F05A84CCDB2D44EB93836A937
:1000A000020C50B9918688083CA6AAAA2ABE000074
:1000B00000803F0000000000240027002A0000000C
:1000C0000000230026002900000000002500280071
:1000D0002B000404040404040404020202020202C9
:1000E00003030303030301020408102040800102FC
:1000F000040810200102040810200000000800027B
:100100000100000304070000000000000000A01729
:1001100011241FBECFEFD8E0DEBFCDBF26E0A2E3A3
:10012000B1E001C01D92A038B207E1F711E0A0E0F4
:10013000B1E0EEEAF0E402C005900D92A233B107FF
:10014000D9F710E0C8E8D0E004C02197FE010E9472
:100150004A20C738D107C9F70E9433080C945520AC
:100160000C940000CF92DF92EF92FF920F931F93B7
:10017000CF93DF936C017A018B01C0E0D0E0CE1504
:10018000DF0589F0D8016D918D01D601ED91FC91CB
:100190000190F081E02DC6010995892B11F47E01B3
:1001A00002C02196ECCFC701DF91CF911F910F9133
:1001B000FF90EF90DF90CF9008950E945020CF9253
:1001C000DF92EF92FF922FE832EC45E95FE30E9465
:1001D000B21C20E030E044EB52E40E948B1D0E94F0
:1001E0009D1E663971053CF4DB016E3171052CF4FE
:1001F000AEE1B0E002C0A6E9B0E0A53BB10514F065
:10020000A4EBB0E0A0932202C0902302209124022C
:1002100030E02C193109D12CE12CF12CFE2CED2CE5
:10022000DC2CCC24A901330F660B770B2227342F4B
:10023000452F562F0E94162024EB30E040E050E07E
:100240000E94F71FC701B601620F731F841F951F1D
:1002500028E030E040E050E00E94F71F809121024A
:10026000893029F4309389002093880004C03093AA
:100270008B0020938A00FF90EF90DF90CF9008953D
:10028000EF92FF920F931F93CF93DF938B010A5F3F
:10029000194FF801E15BFF4F2081EB0133E0CC0FF8
:1002A000DD1F3A95E1F7222351F0FE01E15DF94FA0
:1002B000268137811216130614F480E017C07C01E2
:1002C000C15DD94FFC0121913191CF01FE012193F4
:1002D0003193BF010E942007F701868197819F8398
:1002E0008E83F801E15BFF4F81E08083DF91CF9146
:1002F0001F910F91FF90EF900895FC012081618183
:10030000862F90E0A0E0B0E0DC0199278827B22B8F
:100310002381822B2281BC01CD01722B08954F9243
:100320005F926F927F928F929F92AF92BF92CF9285
:10033000DF92EF92FF92CF93DF93CDB7DEB72C978A
:100340000FB6F894DEBF0FBECDBF3C012B014F3F6F
:100350008FEF580781F14130510509F00AC1DB01E7
:10036000CD90DD90ED90FC90F30180809180A28093
:10037000B38027E137EB41ED58E3C701B6010E9496
:100380008A1D9B01AC01C501B4010E94391F87FD84
:1003900062C027E137EB41ED58E3C701B6010E9487
:1003A0008B1D9B01AC01C501B4010E944C1C1816A9
:1003B0000CF451C02EC0DB011496CD90DD90ED9071
:1003C000FC901797F30160817181828193819B0179
:1003D000AC010E948B1DD2012D913D914D915C91FC
:1003E0000E948A1D69837A838B839C83CD82DE82FF
:1003F000EF82F88641E050E0BE016F5F7F4FC3019E
:100400000E948F016B017C01F7FAF094F7F8F094E9
:10041000B0C0F3012481358146815781D201149601
:100420006D917D918D919C9117970E94391F18169F
:100430004CF49BEDC92E9FE0D92E99ECE92E9FE359
:10044000F92E97C084EEC82E8BECD82E86E9E82EC4
:1004500080E4F82E8EC0A5019401C701B6010E9468
:10046000391F18160CF05FC0D20114968D919D9122
:100470000D90BC91A02D89879A87AB87BC87F3012B
:100480004480558066807780A3019201BC01CD0134
:100490000E94391FA301920187FD2AC069857A85D0
:1004A0008B859C850E948A1D2B013C01A50194012E
:1004B000C701B6010E948A1D9B01AC01C301B201B4
:1004C0000E942B1E2C960FB6F894DEBF0FBECDBF38
:1004D000DF91CF91FF90EF90DF90CF90BF90AF90E2
:1004E0009F908F907F906F905F904F900C94F71D2E
:1004F00069857A858B859C850E948A1D2B013C012C
:10050000A5019401C701B6010E948A1D9B01AC019F
:10051000C301B2010E942B1E0E94F71D2BED3FE08C
:1005200049EC50E422C0D30114962D913D914D9198
:100530005C911797F20164817581868197810E9491
:100540008A1D2B013C01A5019401C701B6010E943F
:100550008A1D9B01AC01C301B2010E942B1E0E94A7
:10056000F71D2BED3FE049E450E40E948B1D6B0129
:100570007C01C701B6012C960FB6F894DEBF0FBE02
:10058000CDBFDF91CF91FF90EF90DF90CF90BF90E4
:10059000AF909F908F907F906F905F904F90089555
:1005A0004F925F926F927F928F929F92AF92BF9283
:1005B000CF92DF92EF92FF92CF93DF93EB01FC019A
:1005C00080809180A280B3808092B6039092B7031E
:1005D000A092B803B092B903248135814681578136
:1005E0002093BA033093BB034093BC035093BD03E5
:1005F0006C817D818E819F810E948A1D6B017C01AF
:10060000A5019401688179818A819B810E948A1D5C
:100610004B015C019B01AC010E94B21C2B013C010F
:10062000A7019601C701B6010E94B21C9B01AC0153
:10063000C301B2010E948B1D0E94541F20E030E0D4
:1006400040E251E40E942B1E20E030E040E85FE3EE
:100650000E948B1D2B013C0120E030E040EA50E479
:100660000E944C1C87FF05C0C301B2010E949D1E61
:1006700002C065E070E07093C7036093C603072E65
:10068000000C880B990B0E94531C2B013C019B0111
:10069000AC01C501B4010E942B1E6093BE03709390
:1006A000BF038093C0039093C103A3019201C701CC
:1006B000B6010E942B1E6093C2037093C303809304
:1006C000C4039093C5031092C9031092C803DF912D
:1006D000CF91FF90EF90DF90CF90BF90AF909F9021
:1006E0008F907F906F905F904F9008951F93CF935E
:1006F000DF9382302FEF920734F08F3F910534F073
:10070000CFEFD0E004C0C1E0DFEF01C0EC011D2F4E
:100710001095111F1127111F11F0BE0102C060E0DA
:1007200070E085E00E948505111105C066277727D6
:100730006C1B7D0B02C060E070E086E0DF91CF9122
:100740001F910C948505FC01918D828D981761F0A5
:10075000828DDF01A80FB11D5D968C91928D9F5FF8
:100760009F73928F90E008958FEF9FEF0895FC01A3
:10077000918D828D981731F0828DE80FF11D858D56
:1007800090E008958FEF9FEF0895FC01918D228DE9
:10079000892F90E0805C9F4F821B91098F7399276E
:1007A000089586E391E00E94C50321E0892B09F4B6
:1007B00020E0822F0895FC01848DDF01A80FB11D78
:1007C000A35ABF4F2C91848D90E001968F73992787
:1007D000848FA689B7892C93A089B1898C91806474
:1007E0008C93938D848D981306C00288F389E02D35
:1007F00080818F7D80830895EF92FF920F931F93E6
:10080000CF93DF93EC0181E0888F9B8D8C8D9813C3
:1008100005C0E889F989808185FD24C0F62E0B8DFD
:1008200010E00F5F1F4F0F731127E02E8C8DE81221
:100830000CC00FB607FCFACFE889F989808185FFE3
:10084000F5CFCE010E94DB03F1CF8B8DFE01E80FC7
:10085000F11DE35AFF4FF0820B8FEA89FB898081FB
:10086000806207C0EE89FF896083E889F989808109
:100870008064808381E090E0DF91CF911F910F91A0
:10088000FF90EF900895CF93DF93EC01888D88233C
:10089000C9F0EA89FB89808185FD05C0A889B989ED
:1008A0008C9186FD0FC00FB607FCF5CF808185FFC8
:1008B000F2CFA889B9898C9185FFEDCFCE010E9436
:1008C000DB03E7CFDF91CF91089580E090E0892BA3
:1008D00029F00E94D10381110C9400000895833007
:1008E00081F028F4813099F08230A1F008958730AA
:1008F000A9F08830B9F08430D1F4809180008F7DE8
:1009000003C0809180008F7780938000089584B524
:100910008F7702C084B58F7D84BD08958091B0002B
:100920008F7703C08091B0008F7D8093B0000895D1
:100930001F920F920FB60F9211242F933F934F9354
:100940005F936F937F938F939F93AF93BF93EF9337
:10095000FF9386E391E00E94DB03FF91EF91BF914B
:10096000AF919F918F917F916F915F914F913F9147
:100970002F910F900FBE0F901F9018951F920F92FE
:100980000FB60F9211242F938F939F93EF93FF93A2
:10099000E0914601F09147018081E0914C01F09196
:1009A0004D0182FD12C0908180914F018F5F8F7346
:1009B00020915001821751F0E0914F01F0E0EA5C84
:1009C000FE4F958F80934F0101C08081FF91EF9181
:1009D0009F918F912F910F900FBE0F901F901895A0
:1009E000CF93DF93282F30E0F901E650FF4F849139
:1009F000F901EA51FF4FD491F901EE52FF4FC49132
:100A0000CC2391F081110E946F04EC2FF0E0EE0FE7
:100A1000FF1FE254FF4FA591B491EC91ED2381E0CB
:100A200090E021F480E002C080E090E0DF91CF917F
:100A300008951F93CF93DF93282F30E0F901E650FC
:100A4000FF4F8491F901EA51FF4FD491F901EE5221
:100A5000FF4FC491CC23C9F0162F81110E946F045F
:100A6000EC2FF0E0EE0FFF1FE853FF4FA591B4917C
:100A70008FB7F894111105C09C91ED2FE095E923F3
:100A800002C0EC91ED2BEC938FBFDF91CF911F91C2
:100A90000895CF93DF9390E0FC01EA51FF4F24913A
:100AA000FC01EE52FF4F8491882361F190E0880FA2
:100AB000991FFC01EC54FF4FC591D491FC01E85300
:100AC000FF4FA591B491611109C09FB7F894888137
:100AD000209582238883EC912E230BC0623061F431
:100AE0009FB7F8943881822F809583238883EC9177
:100AF0002E2B2C939FBF06C08FB7F894E8812E2B26
:100B000028838FBFDF91CF9108951F93CF93DF93F9
:100B1000182FEB0161E00E944905209711F460E075
:100B200004C0CF3FD10539F461E0812FDF91CF912F
:100B30001F910C941905E12FF0E0E650FF4FE4916E
:100B4000E330F9F048F4E130B9F0E230A1F584B5D2
:100B5000806284BDC8BD34C0E730E9F0E83019F1E7
:100B6000E43049F580918000806280938000D093CA
:100B70008B00C0938A0024C084B5806884BDC7BD43
:100B80001FC080918000806880938000D09389008E
:100B9000C093880015C08091B00080688093B00039
:100BA000C093B3000DC08091B00080628093B0000C
:100BB000C093B40005C0C038D1050CF0B5CFAFCF9D
:100BC000DF91CF911F9108953FB7F89480917C06F3
:100BD00090917D06A0917E06B0917F0626B5A89BD8
:100BE00005C02F3F19F00196A11DB11D3FBFBA2FBF
:100BF000A92F982F8827820F911DA11DB11DBC011F
:100C0000CD0142E0660F771F881F991F4A95D1F7E3
:100C100008952FB7F89460917806709179068091C5
:100C20007A0690917B062FBF08951F920F920FB600
:100C30000F9211242F933F938F939F93AF93BF9362
:100C40008091780690917906A0917A06B0917B0602
:100C50003091770623E0230F2D3720F40196A11D54
:100C6000B11D05C026E8230F0296A11DB11D2093DA
:100C700077068093780690937906A0937A06B093CE
:100C80007B0680917C0690917D06A0917E06B091B6
:100C90007F060196A11DB11D80937C0690937D0671
:100CA000A0937E06B0937F06BF91AF919F918F91E5
:100CB0003F912F910F900FBE0F901F9018952F927C
:100CC0003F924F925F926F927F928F929F92AF92DC
:100CD000BF92CF92DF92EF92FF920F931F93CF9329
:100CE000DF931C01EB0169017A014B01072E000C17
:100CF000AA08BB0801301105D1F0C501B4010E945A
:100D0000531C2B013C0120E030E040E85FE3C701C9
:100D1000B6010E948B1D9B01AC01C301B2010E9470
:100D2000B21C0E949D1E3B01012BC9F001C03B017A
:100D3000C501B4010E94531C4B015C01A70196013F
:100D400060E070E080E89FE30E948A1D9B01AC0197
:100D5000C501B4010E94B21C0E949D1EEB016C16DD
:100D60007D0644F02C163D0664F081E062147304A5
:100D70004CF407C02614370424F081E0C215D305D3
:100D80000CF480E0DF91CF911F910F91FF90EF90D5
:100D9000DF90CF90BF90AF909F908F907F906F909B
:100DA0005F904F903F902F9008950F931F93CF9394
:100DB000DF938C0120E030E040E053E4FC016081EF
:100DC0007181828193810E94B21C20E030E048E46E
:100DD00053E40E942B1E0E949D1EEB016138FFEF21
:100DE0007F0734F06F3771052CF0CFE7D0E002C0F9
:100DF000C0E8DFEF20E030E040E053E4F801648138
:100E00007581868197810E94B21C20E030E048E421
:100E100053E40E942B1E0E949D1E6138FFEF7F0746
:100E200034F06F3771052CF06FE770E002C060E8B6
:100E30007FEF8C2F962FDF91CF911F910F91089507
:100E4000FB019C012C5F3F4FDC014D91CD01419393
:100E5000A217B307C9F708951F920F920FB60F920A
:100E600011242F933F934F935F936F937F938F93AF
:100E70009F93AF93BF93EF93FF93E0913201F09173
:100E800033010995FF91EF91BF91AF919F918F91A0
:100E90007F916F915F914F913F912F910F900FBE76
:100EA0000F901F901895E0E7F0E080818D7F8083A0
:100EB0000895CF92DF92EF92FF920F931F93CF93FB
:100EC000DF93FC0120853185232BA9F0EC010E94E2
:100ED0000906C880D980EA80FB800C811D812E81A3
:100EE0003F81C00ED11EE21EF31E21E06C157D0570
:100EF0008E059F0508F420E0822FDF91CF911F918E
:100F00000F91FF90EF90DF90CF9008958F929F9276
:100F1000AF92BF92CF92DF92EF92FF920F931F9307
:100F2000CF93DF930E94E4050091E9051091EA0553
:100F30002091EB053091EC050617170728073907B4
:100F400018F40E9453074CC0E091E305F091E405CA
:100F500090818091E005892309F042C00E945307E7
:100F60000E94E4052091E7053091E8056901E12C34
:100F7000F12C0091E9051091EA052091EB053091E3
:100F8000EC0546015701801A910AA20AB30A95019D
:100F900084010D50110921093109600F711F821F51
:100FA000931F6093DB057093DC058093DD059093C0
:100FB000DE052091ED053091EE0544E2429FE0010F
:100FC000439FD00D1124CB5EDB4F29E330E040E09E
:100FD00050E00E94D51F398F288F1092EF0526C050
:100FE0008CEF95E00E945907882301F18091ED056F
:100FF0009091EE0524E2289FF001299FF00D112425
:10100000EB5EFB4F88EC90E0918F808F1092EF05A4
:10101000DF91CF911F910F91FF90EF90DF90CF90D4
:10102000BF90AF909F908F900C945307DF91CF911A
:101030001F910F91FF90EF90DF90CF90BF90AF90F6
:101040009F908F900895CF93DF93EC010E94090643
:101050006C837D838E839F8381E090E0998788876E
:10106000DF91CF910895CF93DF93CDB7DEB7C05610
:10107000D1090FB6F894DEBF0FBECDBF789484B50A
:10108000826084BD84B5816084BD85B5826085BD84
:1010900085B5816085BD80916E00816080936E0012
:1010A0001092810080918100826080938100809104
:1010B00081008160809381008091800081608093B5
:1010C00080008091B10084608093B1008091B00075
:1010D00081608093B00080917A00846080937A0070
:1010E00080917A00826080937A0080917A0081609A
:1010F00080937A0080917A00806880937A001092C1
:10110000C10060E080E00E94490561E081E00E944A
:1011100049051092510610925506109252061092EF
:1011200056061092530610925706109254061092CB
:101130005806E0914601F091470182E08083E091FA
:101140004201F09143011082E0914401F091450188
:101150008FEC808310924E01E0914A01F0914B0197
:1011600086E08083E0914801F091490180818061AF
:101170008083E0914801F0914901808188608083FB
:10118000E0914801F0914901808180688083E0917D
:101190004801F091490180818F7D8083109226065D
:1011A0001092250661E088E00E94490561E087E031
:1011B0000E94490561E08BE00E94490561E08AE0F8
:1011C0000E944905EDE2F4E088EC90E09587848781
:1011D000918380839383828395838483978386839B
:1011E0009187808793878287B49625E0ED3DF2074B
:1011F00069F781E08093F0051092EF058BE090E0B5
:101200009093EE058093ED0584E090E09093F205D5
:101210008093F1051092FB0560E082E00E94490591
:1012200060E084E00E94490560E083E00E94490597
:1012300060E08EE00E94490560E08FE00E94490571
:1012400060E080E10E94490560E081E10E9449057B
:1012500060E082E10E94490561E083E10E94490566
:101260000E94090660930B0470930C0480930D0494
:1012700090930E041092100410920F041092110417
:1012800010921204109213041092140461E085E08D
:101290000E94490561E086E00E94490589E080934B
:1012A00021028FEF8093220260E089E00E941905FD
:1012B00061E0809121020E944905809135018111F0
:1012C00022C08091340181111EC02FB7F89482E0B2
:1012D000809380008AE18093810088EB9BE090936B
:1012E00089008093880090938B0080938A0080E42B
:1012F0009CE9909387008093860080916F00887F9F
:1013000080936F002FBF80912102893041F481E0EA
:1013100080933501809180008F73806807C081E0E1
:1013200080933401809180008F7C80628093800064
:1013300010921D0210921E0210921F0210922002A3
:1013400060E070E0CB010E94DF0010921902109261
:101350001A0210921B0210921C0286E096E00E9474
:101360005907882309F414C182E196E00E945907C5
:1013700081110AC186E391E00E94C503009709F438
:10138000A3C0409125065091260629E030E0241B99
:10139000350B8C01281739070CF48901A12CB12CCD
:1013A000912CE2E0EE2EF12CCC24C394D12CA0168B
:1013B000B1060CF06AC086E391E00E94A30320917D
:1013C0004F06309150062130310541F12230310570
:1013D000E1F1232B09F055C0209125063091260616
:1013E000F901E552FE4F9081891313C0A9014F5FA7
:1013F0005F4F5093260640932506F901EA5FF94FA7
:10140000868B44305105E9F5D0925006C0924F06C4
:1014100038C0109226061092250633C0209125066A
:1014200030912606A9014F5F5F4F509326064093E7
:101430002506F901EA5FF94F868B4530510509F51C
:10144000F0925006E0924F061CC020912506309184
:101450002606A9014F5F5F4F50932606409325064D
:10146000F901EA5FF94F868B4930510551F410922A
:101470002606109225061092500610924F069924C7
:1014800093943FEFA31AB30A92CF9920E9F0809189
:10149000200690E09093280680932706BE016F5F98
:1014A0007F4F81E296E00E94200769E276E0CE015C
:1014B00001960E94200781E0809351068093520696
:1014C000809353068093540665E5E62E66E0F62E7B
:1014D00000E010E075E0B72E6E0142E1C40ED11CB1
:1014E000D7018C91882309F442C01C92F801EA5F6D
:1014F000F94FA1A4BE016F5F7F4F8BED91E00E9479
:101500002007AD82FE013196DE019D968B2D019064
:101510000D928A95E1F7FE01BD96DE01D2968B2DE4
:1015200001900D928A95E1F7FE01F296DE011D967B
:101530008B2D01900D928A95E1F7C8018F5C994F30
:10154000FE013D96DE01119621912D93EC15FD05CE
:10155000D9F7BE016A5F7F4F0E94200749E050E043
:10156000BE016F5F7F4F86E391E00E94B200BFEF44
:10157000EB1AFB0A085F1F4F0032110509F0B0CFCC
:1015800086E096E00E94230882E196E00E9423080C
:1015900085E194E00E945907882309F4A3C281E2FF
:1015A00094E00E945907811199C28091F005882327
:1015B00009F490C2E0911F04F0912004EF5AF94F12
:1015C0008081882389F110828091270690912806D6
:1015D0009093F4058093F30565EF75E089E296E05A
:1015E0000E94200780912D0690912E069093FA0577
:1015F0008093F9058091F3059091F4054097A1F44B
:1016000085EF95E00E947D0121E0672B682B692B17
:1016100009F420E02093FB0560911F0470912004E1
:1016200083ED91E00E9440018091EF05811152C24B
:101630002090ED053090EE05EBE02E16310429F0F8
:101640008091FB05811116C14EC12091F1053091A9
:10165000F2053EAF2DAFC901049665E070E00E942F
:10166000C11F2E968FAF2E9761969FAF6197220F65
:10167000331F27963FAF2EAF27975DE2E52E54E04C
:10168000F52E1AAE19AED7018D919C91009711F0ED
:101690005C0103C028ECA22EB12C2796EEADFFAD65
:1016A0002797EE0DFF1DB382A282883C910519F0A9
:1016B000E0E0F1E002C0E6E0F1E0208131816096F7
:1016C0003FAF2EAF60974280538064807580D70112
:1016D0001C960D90BC91A02D2396BFAFAEAF239763
:1016E00002E010E0A3019201BD01C5010E945F0666
:1016F000882321F0F701B586A48661C02E96CFAC71
:101700002E976196DFAC6197812C912CA2E189AD77
:101710009AADA89FA001A99F500D11242B965FAFF1
:101720004EAF2B97EDADFEADCE16DF06B9F160964C
:101730002EAD3FAD60978216930684F501E010E070
:1017400023962EAD3FAD2397A216B30614F000E00A
:1017500010E02B96EEADFFAD2B97EC0DFD1DEE0FBF
:10176000FF1FE15DFB4FA301920123966EAD7FAD9C
:101770002397808191810E945F06811105C03FEF10
:10178000831A930A20E001C021E0C601049665E0B7
:1017900070E00E94C11F6C01222321F260968EAD81
:1017A0009FAD609701978816990624F42396AEACF6
:1017B000BFAC2397D7011D96BC92AE921C97F70140
:1017C00064857585072E000C880B990B0E94531CAD
:1017D0004B015C012BED3FE049EC5FE3D7015696EE
:1017E0006D917D918D919C9159970E948B1D2B013C
:1017F0003C010E94261E9B01AC01C501B4010E9460
:10180000B21C9B01AC01F7016685778580899189BF
:101810000E948B1DD7015A966D937D938D939C9357
:101820005D97C301B2010E94461F9B01AC01C50137
:10183000B4010E94B21C9B01AC01F701628973895B
:10184000848995890E948B1DD7015E966D937D9347
:101850008D939C939197E9ADFAAD3196FAAFE9AFCC
:10186000F4E2EF0EF11C29AD3AAD2C30310509F050
:101870000ACFE6CE20FE37C0C10137FC0196959510
:10188000879508969093F4058093F30514E2129DD2
:10189000C001139D900D1124895B9B4F0E94D506BA
:1018A000F82E092F2091ED053091EE0521503109D8
:1018B000129FC001139F900D1124895B9B4F0E94C2
:1018C000D50689839A83FB820C8365EF75E0CE0190
:1018D00001960E94200760911F047091200483EFFD
:1018E00095E00E9440012091ED053091EE052B30EE
:1018F000310569F48091F1059091F205019665E05A
:1019000070E00E94C11F9093F2058093F105C90118
:1019100001966CE070E00E94C11F9093EE058093E9
:10192000ED0524E2289FF001299FF00D1124EB5EC4
:10193000FB4F06891789602F617088E00E941905A6
:10194000B80176956795617087E00E941905B80126
:10195000769567957695679561708BE00E9419057D
:10196000B3E016950795BA95E1F7602F61708AE0AC
:101970000E94190581E08093EF050E9453078CEFC8
:1019800095E00E942308E091E505F091E60590813D
:101990008091DF05892B8083E091E105F091E205DC
:1019A00090818091DF058095892380838BE090E092
:1019B0000197F1F7E091E105F091E20590818091C6
:1019C000DF05892B808383E290E00197F1F7E091B6
:1019D000E105F091E20590818091DF0580958923F2
:1019E0008083E091E505F091E60590818091DF0527
:1019F000809589238083E091E305F091E40590814F
:101A00008091E005892309F065C00E94E4052091DA
:101A1000E7053091E805890120E030E00855194ECE
:101A20002F4F3F4FDC01CB01800F911FA21FB31F2F
:101A30008093E9059093EA05A093EB05B093EC053C
:101A4000E091E305F091E40590818091E005892320
:101A500081F40E94E4050091E9051091EA052091C6
:101A6000EB053091EC05061717072807390740F7F3
:101A700031C00E94E4052091E7053091E805DC01C2
:101A8000CB01820F931FA11DB11D8093E905909397
:101A9000EA05A093EB05B093EC0586E897E09093F8
:101AA0003301809332010E9453078091B6008F7DED
:101AB0008093B60082E08093B00084E08093B10010
:101AC0001092B20085E08093B30080917000826034
:101AD0008093700085E194E00E94230881E294E005
:101AE0000E94230885EF93E00E945907882309F498
:101AF000D3C081E094E00E9459078111C9C00E94BF
:101B000009066B017C0160E083E10E94190582E116
:101B10000E94F004082F81E10E94F0048295880F52
:101B2000880F807C182F30E8039F1019112480E162
:101B30000E94F004882E8FE00E94F004982E8EE020
:101B40000E94F004A82E83E00E94F004082F84E095
:101B50000E94F004B82E82E00E94F004810F182F3A
:101B600040E2849E100D112450E1959E100D112429
:101B700088E0A89E100D1124000F000F010FBB0C70
:101B80000B0D002E000C110B61E083E10E94190582
:101B900040910F04509110049801241B350BC9018A
:101BA00037FF04C088279927821B930B8138910542
:101BB000CCF0C90193953A95DC0197FF04C0AA27A0
:101BC000BB27A81BB90BF90137FF04C0EE27FF277D
:101BD000E21BF30BEA17FB070CF4C901BA01680F0B
:101BE000791F01C0B80180910B0490910C04A09161
:101BF0000D04B0910E0446015701881A990AAA0AE9
:101C0000BB0AC0920B04D0920C04E0920D04F09237
:101C10000E041093100400930F0481149104A10486
:101C2000B10439F1641B750B072E000C880B990B5E
:101C30000E94531C20E030E046E155E40E942B1E38
:101C400026E636E642EA51E40E94B21C6B017C01B2
:101C5000C501B4010E94511C9B01AC01C701B60132
:101C60000E942B1E20E030E04AE754E40E94B21CA0
:101C700003C060E070E0CB01609311047093120424
:101C8000809313049093140485EF93E00E9423083B
:101C900081E094E00E9423088FED91E00E945907B3
:101CA000882311F40C9452178BEE91E00E9459078F
:101CB0002F968FAF2F9781110C944E1720911104FE
:101CC00030911204409113045091140425962CAFC6
:101CD0003DAF4EAF5FAF259780911D0290911E02E0
:101CE000A0911F02B091200289AF9AAFABAFBCAFF9
:101CF00087EF91E00E945907882309F41BC1C09027
:101D00001902D0901A02E0901B02F0901C0220E011
:101D100030E0A901C701B6010E944C1C81111FC00F
:101D200020E030E040E85FEB25966CAD7DAD8EADF8
:101D30009FAD25970E94391F87FD11C020E030E03C
:101D400040E85FE325966CAD7DAD8EAD9FAD2597E8
:101D50000E944C1C18161CF080E090E0E5C025960F
:101D60002CAD3DAD4EAD5FAD2597C701B6010E94CC
:101D70008A1D4B015C010E9409066B017C011091D8
:101D800015020091160230901702209018029091CF
:101D900011029DAFA09112022696AFAF2697B09187
:101DA00013022A96BFAF2A97E09114022E96EFAF46
:101DB0002E9720910102309102024091030250912E
:101DC0000402C501B4010E94B21C20910D023091A1
:101DD0000E0240910F02509110020E948B1D6496DA
:101DE0006CAF7DAF8EAF9FAF6497209109023091A9
:101DF0000A0240910B0250910C02C501B4010E94ED
:101E00008A1D2B013C018091FB019091FC01A09166
:101E1000FD01B091FE01A7019601281B390B4A0B69
:101E20005B0BCA01B9010E94511C9B01AC01C301AB
:101E3000B2010E942B1E20910502309106024091B2
:101E40000702509108020E94B21C9B01AC016496EB
:101E50006CAD7DAD8EAD9FAD64970E948B1D6B0107
:101E60007C012DAD26963FAD26972A964FAD2A9739
:101E70002E965FAD2E970E94391F18165CF0BDADEF
:101E80002696AFAD26972A96FFAD2A972E96EFADF0
:101E90002E9704C0BC2DAD2DFE2DEF2D212F302F00
:101EA000432D522D6B2F7A2F8F2F9E2F0E944C1C6B
:101EB00087FF1FC02DAD26963FAD26972A964FADC2
:101EC0002A972E965FAD2E97B601C7010E94391F43
:101ED00018165CF01DAD26960FAD26972A963FACDE
:101EE0002A972E962FAC2E9704C01C2D0D2D3E2C1C
:101EF0002F2C812F902FA32DB22D80930D02909324
:101F00000E02A0930F02B0931002809209029092E9
:101F10000A02A0920B02B0920C02612F702F832D47
:101F2000922D0E949D1ECB010E94760387EF91E0C7
:101F30000E942308E091E901F091EA01EF5AF94F7C
:101F400030816D963FAF6D973323B9F01082809149
:101F50002706909128069093EA038093E9036BEE9D
:101F600073E089E296E00E94200780912D0690910F
:101F70002E069093F0038093EF038091F5019091EA
:101F8000F6018130910509F4F4C6029709F082C781
:101F90004CE050E05EAF4DAF212C312CC1010196D9
:101FA0006CE070E00E94C11F1C0154E2589FF001D8
:101FB000599FF00D1124EB5EFB4F82A993A9A4A9B0
:101FC000B5A989839A83AB83BC8386A997A9A0AD61
:101FD000B1AD8D839E83AF83B887BE016F5F7F4FA6
:101FE000CE010D960E94D0026091C8037091C90382
:101FF0008091C6039091C703681779070CF001C15F
:10200000CB0101969093C9038093C803072E000C5F
:10201000880B990B0E94531C6B017C012091C20319
:102020003091C3034091C4035091C5030E94B21C78
:102030002091BA033091BB034091BC035091BD0382
:102040000E948B1D2D966CAF7DAF8EAF9FAF2D97ED
:102050002091BE033091BF034091C0035091C10352
:10206000C701B6010E94B21C2091B6033091B7039C
:102070004091B8035091B9030E948B1D4B015C0144
:102080008091540290915502A0915602B09157024E
:1020900029968CAF9DAFAEAFBFAF2997409050024D
:1020A0005090510260905202709053029C01AD0119
:1020B000C501B4010E94B21C6B017C01A301920115
:1020C0002D966CAD7DAD8EAD9FAD2D970E94B21C4F
:1020D0009B01AC01C701B6010E948B1D20914802F3
:1020E0003091490240914A0250914B020E948B1D4F
:1020F0006B017C01A3019201C501B4010E94B21CD5
:102100004B015C0129962CAD3DAD4EAD5FAD2997DD
:102110002D966CAD7DAD8EAD9FAD2D970E94B21CFE
:102120009B01AC01C501B4010E948A1D20914402AB
:102130003091450240914602509147020E948B1D0A
:102140004B015C0120E030E0A901C701B6010E940B
:10215000391F20E030E040E850E418162CF4C701A5
:10216000B6010E948B1D04C0C701B6010E948A1DE2
:1021700020E030E040E05EE30E94B21C0E949D1E21
:102180008B0120E030E0A901C501B4010E94391F94
:1021900020E030E040E850E418162CF4C501B4010A
:1021A0000E948B1D04C0C501B4010E948A1D20E05D
:1021B00030E040E05EE30E94B21C0E949D1E62334C
:1021C000710508F011CF0233110508F00DCFC801D9
:1021D000E3E095958795EA95E1F7E7E0E69FD00182
:1021E000E79FB00D1124A80FB91FA85ABD4F077063
:1021F0001127F801E45EFE4F90818C91892B8C931E
:10220000F3CE89819A81AB81BC818D879E87AF8710
:10221000B88B8D819E81AF81B885898B9A8BAB8B72
:10222000BC8B2DAD3EAD215031093EAF2DAF232BE0
:1022300009F0B4CE8091F3039091F403019690934A
:10224000F4038093F30389AD9AADABADBCAD80933D
:10225000CE039093CF03A093D003B093D10320E09B
:1022600030E0A901BC01CD010E94391F87FF03C0E6
:102270000FEF1FEF02C001E010E01093D3030093B3
:10228000D20325962CAD3DAD4EAD5FAD2597209385
:10229000CA033093CB034093CC035093CD0369AD75
:1022A0007AAD8BAD9CAD0E94261E6B017C0127E1AF
:1022B00037EB41ED58EB0E94391F87FD0CC0BB2462
:1022C000B39427E137EB41ED58E3C701B6010E9413
:1022D0004C1C18160CF4B12CB092E803B11082C05B
:1022E00069AD7AAD8BAD9CAD0E94461FA7019601EA
:1022F0000E942B1E9B01AC0160E070E080EA91E43B
:102300000E942B1E2B013C016093D4037093D503D4
:102310008093D6039093D703B801110F880B990BC4
:102320000E94531C4B015C0120E030E040E051E48E
:102330000E94B21C25966CAF7DAF8EAF9FAF2597E4
:102340009B01AC01C301B2010E948B1D6B017C019A
:102350009B01AC010E94B21C23EC35EF48E354E42E
:102360000E948B1D0E94541FA50194010E94B21C63
:102370006093DC037093DD038093DE039093DF03AF
:1023800025962CAD3DAD4EAD5FAD2597C301B20195
:102390000E948A1D6093D8037093D9038093DA0357
:1023A0009093DB039B01AC010E94B21C20E030E063
:1023B00048EC53E40E948B1D0E94541FA501940118
:1023C0000E94B21C6093E0037093E1038093E203E8
:1023D0009093E303C092E403D092E503E092E60316
:1023E000F092E70321EE3EE245E652E460914304B9
:1023F0007091440480914504909146040E94B21C5F
:102400009B01AC0169AD7AAD8BAD9CAD0E948A1D7C
:102410006B017C0120E030E0A9010E94391F1816F1
:1024200024F0F7FAF094F7F8F09467E6A62E64E04B
:10243000B62E212C312C01E010E021EE3EE245E6E3
:1024400052E4D5016D917D918D919C910E94B21CB9
:102450009B01AC0169AD7AAD8BAD9CAD0E948A1D2C
:102460002B013C0120E030E0A9010E94391F181621
:1024700024F077FA709477F87094A7019601C3015D
:10248000B2010E944C1C87FF03C018017301620156
:102490000F5F1F4FB4E2AB0EB11C0C30110569F693
:1024A000C10195958795E6E02E16310444F09C0114
:1024B0002D5F3F4F6C963FAF2EAF6C9704C06C966C
:1024C0009FAF8EAF6C976C964EAD5FAD6C972796B5
:1024D0005FAF4EAF2797CE0101966A969FAF8EAF42
:1024E0006A97DE011D96B8AFAFAB2A961FAE2A974A
:1024F0002E961FAE2E9700E010E024E227964EADF8
:102500005FAD2797249FF001259FF00D1124EB5E0E
:10251000FB4F82A993A9A4A9B5A98DA39EA3AFA39C
:10252000B8A786A997A9A0ADB1AD89A79AA7ABA76F
:10253000BCA7CA0101966CE070E00E94C11F2796FB
:102540009FAF8EAF2797289FF001299FF00D112490
:10255000EB5EFB4F82A993A9A4A9B5A98D8F9E8F8D
:10256000AF8FB8A386A997A9A0ADB1AD89A39AA34F
:10257000ABA3BCA3BE01635E7F4FCE0185960E94D4
:10258000D00261961FAE61976091C8037091C90334
:102590008091C6039091C703681779070CF048C370
:1025A000CB0101969093C9038093C803072E000CBA
:1025B000880B990B0E94531C6B017C012091C20374
:1025C0003091C3034091C4035091C5030E94B21CD3
:1025D0002091BA033091BB034091BC035091BD03DD
:1025E0000E948B1D69AF7AAF8BAF9CAF2091BE0369
:1025F0003091BF034091C0035091C103C701B601A0
:102600000E94B21C2091B6033091B7034091B803E9
:102610005091B9030E948B1D2B013C018091E8036E
:10262000882309F470C0A301920160E070E080E0AB
:1026300091EC0E948A1D6B017C0120E030E0A90131
:102640000E94391F181624F0F7FAF094F7F8F09466
:10265000A301920160E070E080E091E40E948A1D95
:102660004B015C0120E030E0A9010E94391F1816DF
:1026700024F0B7FAB094B7F8B09420E030E040E02E
:1026800051ECC301B2010E94391F87FD11C020E047
:1026900030E040E051E4C301B2010E944C1C181626
:1026A0003CF0412C512C40E8642E4FEB742E06C0B8
:1026B000412C512C30E8632E3FE3732EA501940189
:1026C000C701B6010E944C1C87FD05C0782D692DFD
:1026D0009A2D8B2D04C07C2D6D2D9E2D8F2D272F97
:1026E000362F492F582FC301B2010E94B21C4B0153
:1026F0005C0120E030E040E050E40E944C1C1816E1
:102700000CF0D4C344C2C090D403D090D503E09061
:10271000D603F090D703D701C601B0588D8B9E8B9E
:10272000AF8BB88F198E1A8E1B8E1C8EA701960147
:10273000C301B2010E948B1D4B015C016D877E8736
:102740008F87988B20E030E040E251E469AD7AADAC
:102750008BAD9CAD0E948B1D69AF7AAF8BAF9CAFE8
:10276000698B7A8B8B8B9C8B4091D2035091D303D6
:10277000BE01635F7F4FCE0145960E948F01A196F7
:102780006CAF7DAF8EAF9FAFA1974090D8035090B4
:10279000D9036090DA037090DB0320E030E0A901F8
:1027A000C301B2010E944C1C8823F9F0A7019601D5
:1027B000C501B4010E948B1D9B01AC010E94B21C9B
:1027C0006B017C0129AD3AAD4BAD5CADCA01B901DD
:1027D0000E94B21C9B01AC01C701B6010E948B1D77
:1027E0000E94541F4B015C010DC020E030E0A901A4
:1027F000C501B4010E94391F181624F0B7FAB0942D
:10280000B7F8B09420E030E0A901C301B2010E9402
:10281000391FA301920118160CF05058C501B401DC
:102820000E948A1D20E030E0A9010E94391F20E0AB
:1028300030E0A9011816A4F4C301B2010E94391FA7
:10284000A301920118160CF05058C501B4010E9462
:102850008A1D25966CAF7DAF8EAF9FAF259716C0B2
:10286000C301B2010E94391FA301920118160CF096
:102870005058C501B4010E948A1D9B01AC015058FB
:1028800025962CAF3DAF4EAF5FAF2597C090DC03D0
:10289000D090DD03E090DE03F090DF0320E030E035
:1028A000A901C701B6010E94391FA7019601181698
:1028B0000CF05058C501B4010E948A1D20E030E0A0
:1028C000A9010E94391F20E030E0A901181694F4F4
:1028D000C701B6010E94391FA701960118160CF016
:1028E0005058C501B4010E948A1D69AF7AAF8BAF01
:1028F0009CAF14C0C701B6010E94391FA701960101
:1029000018160CF05058C501B4010E948A1D9B0195
:10291000AC01505829AF3AAF4BAF5CAF20E030E08C
:10292000A901C701B6010E94391F181624F0F7FA51
:10293000F094F7F8F09420E030E0A901C301B2016F
:102940000E94391F181654F0D301C201B0582196C5
:102950008CAF9DAFAEAFBFAF219706C021964CAEF6
:102960005DAE6EAE7FAE219721962CAD3DAD4EADE6
:102970005FAD2197C701B6010E94391F87FD0FC0C7
:1029800021962CAD3DAD4EAD5FAD2197C501B40193
:102990000E94391F87FD1EC0A70196010EC0A70126
:1029A0009601C501B4010E94391F87FD13C021960D
:1029B0002CAD3DAD4EAD5FAD2197C501B4010E9478
:1029C0004C1C18163CF0C12CD12C20E8E22E2FEB29
:1029D000F22E06C0C12CD12C90E8E92E9FE3F92EEF
:1029E00029AD3AAD4BAD5CAD25966CAD7DAD8EADF0
:1029F0009FAD25970E944C1C87FD05C079AD6AAD3F
:102A00009BAD8CAD0CC022967FAD229723966FAD07
:102A1000239724969FAD249725968FAD2597272F32
:102A2000362F492F582FC701B6010E94B21C4B0107
:102A30005C0120E030E040E050E40E944C1C18169D
:102A40000CF4A5C0A30192016091E0037091E10331
:102A50008091E2039091E3030E948A1D6B017C0147
:102A600020E030E0A9010E94391FA7019601181645
:102A7000B4F0505821962CAF3DAF4EAF5FAF2197C9
:102A800069AD7AAD8BAD9CAD0E944C1C87FD0FC02B
:102A90007DAD6EAD9FAD21968FAD21970CC069AD18
:102AA0007AAD8BAD9CAD0E944C1C87FF30C279ADD6
:102AB0006AAD9BAD8CAD272F362F492F582F259609
:102AC0006CAD7DAD8EAD9FAD25970E944C1C87FFF0
:102AD0002AC0A301920160E070E080EA91E40E94C4
:102AE0002B1E0E94F71D2B013C0120E030E0A901C4
:102AF000C701B6010E94391F181624F0F7FAF094A6
:102B0000F7F8F094A701960125966CAD7DAD8EADDA
:102B10009FAD25970E942B1E9B01AC01C301B20102
:102B20000E94B21C0AC0A301920160E070E080EA3A
:102B300091E40E942B1E0E94F71D9B01AC01A196FF
:102B40006CAD7DAD8EAD9FADA1970E948A1D209189
:102B5000E4033091E5034091E6035091E7030E94BE
:102B6000B21C2091CA033091CB034091CC03509109
:102B7000CD030E942B1E65966FAF659766967FAF5B
:102B8000669767968FAF679768969FAF689720E0C4
:102B900030E040E050E4C501B4010E944C1C18161E
:102BA0000CF4F2CC61963FAD6197332351F12A9634
:102BB0002FAD2A972E963FAD2E97A80165966FAD43
:102BC000659766967FAD669767968FAD67976896AF
:102BD0009FAD68970E944C1C87FFD6CC65964FAD81
:102BE00065972A964FAF2A9766965FAD66972E96A1
:102BF0005FAF2E9767960FAD679768961FAD689782
:102C0000C3CC65968FAD65972A968FAF2A97669647
:102C10009FAD66972E969FAF2E9767960FAD6797DD
:102C200068961FAD6897A1E06196AFAF6197ACCC95
:102C30006196BFAD6197BB2341F02A968FAD2A976D
:102C40002E969FAD2E97D80103C080E090E0DC0166
:102C50006A96EEADFFAD6A9781939193A193B1937C
:102C60006A96FFAFEEAF6A978D8D9E8DAF8DB8A13E
:102C70008DA39EA3AFA3B8A789A19AA1ABA1BCA124
:102C800089A79AA7ABA7BCA72FA938ADE217F3076E
:102C900009F033CC1091F103F1016C964EAD5FADAC
:102CA0006C97E41BF50BEE0FFF1FEE0FFF1FEC0FF1
:102CB000FD1FC180D280E380F480A7019601C70187
:102CC000B6010E944C1C81111AC020E030E0A9011D
:102CD000C701B6010E94391F18168CF451E02F96D7
:102CE0005FAF2F9720E030E040E85FE3C701B60117
:102CF0000E944C1C18161CF42F961FAE2F972F966F
:102D00008FAD2F97812B8093F103111132C088234F
:102D100081F1C10166E070E00E94C11F0296059733
:102D200028F466E676E68CE892EC04C066E676E681
:102D30008CE892E460931D0270931E0280931F0240
:102D4000909320020E94DF0080E392E00E9423081B
:102D500020E030E040E05FE3C701B6010E944C1C78
:102D600018163CF08AE392E00E94230881E08093E9
:102D7000F2036D968FAD6D97882309F445C080915D
:102D8000E9039091EA0382309105B1F08330910517
:102D900031F10197A1F58091F203811130C08BEEE2
:102DA00093E00E947D016093190270931A02809350
:102DB0001B0290931C0223C08091F10381111FC05C
:102DC0008BEE93E00E947D0160931D0270931E02C2
:102DD00080931F02909320020E94DF0010C08BEEB0
:102DE00093E00E947D017093F6016093F50160917C
:102DF000E9017091EA0183ED91E00E94400186E2D1
:102E000092E00E9423080DC086E292E00E945907DA
:102E1000882339F08AE392E00E94230881E08093BE
:102E2000F2038091F1038823E1F080E392E00E94B5
:102E300059078823B1F049E050E064E271E086E38D
:102E400091E00E94B20042E050E06EE271E086E361
:102E500091E00E94B2001092390210923802109252
:102E6000F1038091F2038823A9F08AE392E00E94A3
:102E70005907882339F010924302109242021092AF
:102E8000F20308C01092190210921A0210921B024B
:102E900010921C028FED91E00E9423088BEE91E0CE
:102EA0000E9423080E9465040C94AD0920E030E0E4
:102EB000A90169AD7AAD8BAD9CAD0E94391F181682
:102EC0002CF02AE939E949E851EC04C02AE939E94A
:102ED00049E851E469AD7AAD8BAD9CAD0E948A1D85
:102EE0002091CA033091CB034091CC035091CD0384
:102EF0000E942B1E65966FAF659766967FAF6697AB
:102F000067968FAF679768969FAF68974BCEA7017C
:102F1000960125966CAD7DAD8EAD9FAD25970E9437
:102F20004C1C87FF00CEA301920160E070E080EAB4
:102F300091E40E942B1E0E94F71D2B013C01E2CD63
:102F40002F923F924F925F926F927F928F929F92B9
:102F5000AF92BF92CF92DF92EF92FF920F931F93A7
:102F6000CF93DF93109239011092380188EE93E0ED
:102F7000A0E0B0E080933A0190933B01A0933C0124
:102F8000B0933D0180E191E0909337018093360149
:102F900085EC90E0909343018093420184EC90E0B3
:102FA000909345018093440180EC90E09093470119
:102FB0008093460181EC90E0909349018093480111
:102FC00082EC90E090934B0180934A0186EC90E074
:102FD00090934D0180934C0110924F01109250013B
:102FE00010925101109252018FE78093DB018FEF15
:102FF0008093DC018093DD018093DE0110925D06F9
:1030000010925E0610925F0681E080936006109237
:10301000590610925A0610925B0610925C061092A6
:10302000D4011092D3011092DA011092D9011092BA
:10303000D5011092D6011092D7011092D80120919B
:10304000610630916206409163065091640660917A
:103050006506709166068091670690916806A1E00A
:103060000E941E20209361063093620640936306FF
:1030700050936406609365067093660680936706B6
:10308000909368060E942A2081F41092690610929B
:103090006A0610926B0610926C0610926D061092E2
:1030A0006E0610926F061092700684E190E0A0E028
:1030B000B0E08093060690930706A0930806B093AD
:1030C0000906C1E0D0E0D0930F06C0930E0648EE8B
:1030D00053E060E070E04093120650931306609353
:1030E000140670931506D0931B06C0931A06209001
:1030F00071063090720630921106209210061092DE
:103100002E0610922D061092360610923506109259
:103110003E0610923D061092460610924506109209
:103120004E0610924D061092500610924F06EFE098
:10313000CE2ED12CE12CF12CC0921504D092160485
:10314000E0921704F0921804D0931E04C0931D045B
:1031500084E690E0A0E0B0E0809321049093220404
:10316000A0932304B0932404D0932A04C093290489
:10317000C10101969093200480931F04E2EFF0E0D8
:10318000E491E093DF05E3EFF0E0E491E093E00504
:103190008EED90E0FC012491E22FF0E0EE0FFF1F96
:1031A000E853FF4F259134913093E2052093E105D8
:1031B000EFEDF0E0E491F0E0EE0FFF1FE254FF4F7F
:1031C000259134913093E4052093E305FC0184912B
:1031D000E82FF0E0EE0FFF1FEC54FF4F8591949124
:1031E0009093E6058093E50581EC9CE29093E805D9
:1031F0008093E7051092FA051092F9050AE0C02EB7
:10320000D12CE12CF12CC092FC05D092FD05E0926E
:10321000FE05F092FF05D0930506C09304061092B8
:10322000F00580E090E0A0E8B0E480933B04909348
:103230003C04A0933D04B0933E0400E010E020E085
:1032400030E400933F0410934004209341043093F2
:10325000420489EA95EDA3E8B4E480934304909393
:103260004404A0934504B09346048BE090E090930F
:103270002C0480932B0486E6C82EDC2C86EEE82EE8
:1032800080E4F82EC0925F04D0926004E092610462
:10329000F092620480E090E0A0E2B1E480936304E5
:1032A00090936404A0936504B0936604EDEECE2E73
:1032B000E7E0DE2EE4E8EE2EE4ECFE2EC09267049A
:1032C000D0926804E0926904F0926A04ECE0F0E0C5
:1032D000F0935004E0934F04FAE9CF2EF9E9DF2E82
:1032E000F9E1EF2EF0E4FF2EC0928304D092840423
:1032F000E0928504F092860480938704909388047A
:10330000A0938904B0938A0410928B0410928C04C9
:1033100010928D0410928E04D0937404C0937304A1
:10332000EAE98E2EE9E99E2EE9E1AE2EE0ECBE2E12
:103330008092A7049092A804A092A904B092AA0433
:103340008093AB049093AC04A093AD04B093AE040F
:103350001092AF041092B0041092B1041092B20413
:10336000E2E0F0E0F0939804E0939704F6E64F2E45
:10337000542CF6EE6F2EF0EC7F2E4092CB04509240
:10338000CC046092CD047092CE048093CF049093CD
:10339000D004A093D104B093D2048DEE97E0A4E8BA
:1033A000B4E48093D3049093D404A093D504B09351
:1033B000D60483E090E09093BC048093BB0480E04B
:1033C00090E0A0E8B0EC8093EF049093F004A09319
:1033D000F104B093F2040093F3041093F4042093E7
:1033E000F5043093F60409EA15ED23E834EC009374
:1033F000F7041093F8042093F9043093FA0424E0BE
:1034000030E03093E0042093DF0480931305909321
:103410001405A0931505B093160506E616E626E6F4
:1034200030E4009317051093180520931905309385
:103430001A0581E39AE3A4E8B4E480931B05909312
:103440001C05A0931D05B0931E0585E090E09093A8
:103450000405809303054092370550923805609229
:10346000390570923A0580E090E0A0E2B1EC8093DB
:103470003B0590933C05A0933D05B0933E05E5E6E2
:103480004E2EE3EA5E2EE3E86E2EE4EC7E2E4092B2
:103490003F05509240056092410570924205E6E07A
:1034A000F0E0F0932805E093270580925B05909269
:1034B0005C05A0925D05B0925E0580935F059093D8
:1034C0006005A0936105B0936205FBED8F2EFFE0D0
:1034D0009F2EF9E4AF2EF0E4BF2E80926305909208
:1034E0006405A0926505B0926605E7E0F0E0F09310
:1034F0004C05E0934B05C0927F05D0928005E09289
:103500008105F09282058093830590938405A093B2
:103510008505B09386058092870590928805A092D4
:103520008905B0928A05E8E0F0E0F0937005E09339
:103530006F05E6E6CE2EDC2CE6EEEE2EE0E4FE2E67
:10354000C092A305D092A405E092A505F092A6052D
:103550008093A7059093A805A093A905B093AA0509
:1035600085E693EAA3E8B4E48093AB059093AC05B9
:10357000A093AD05B093AE058DE090E090939405D7
:103580008093930580E090E0A0E8B0E48093C705C5
:103590009093C805A093C905B093CA050093CB05C5
:1035A0001093CC052093CD053093CE0581E39AE3AB
:1035B000A4E8B4EC8093CF059093D005A093D105F7
:1035C000B093D2058AE090E09093B8058093B70558
:1035D000FFE0CF2ED12CE12CF12CC092F503D0923C
:1035E000F603E092F703F092F803D093FE03C09342
:1035F000FD0388EC90E0A0E0B0E08093010490939C
:103600000204A0930304B0930404D0930A04C0936B
:103610000904C1010296909300048093FF0385E0A2
:1036200090E0A0E0B0E08093DF019093E001A093F0
:10363000E101B093E201D093E801C093E70182E396
:1036400090E0A0E0B0E08093EB019093EC01A093B8
:10365000ED01B093EE01D093F401C093F301C101E9
:103660000496909372068093710683E0280E311CB5
:103670003092EA012092E901A2E0B0E0B093F601B5
:10368000A093F501AAE0CA2ED12CE12CF12CC09216
:10369000F701D092F801E092F901F092FA01D0938B
:1036A0000002C093FF0180E090E0A0E0BFE38093C0
:1036B000010290930202A0930302B09304028DECE6
:1036C0009CECACECBDE38093050290930602A093C2
:1036D0000702B09308021092090210920A02109297
:1036E0000B0210920C0210920D0210920E02109218
:1036F0000F021092100280E090E0AFE7B3EC8093ED
:10370000110290931202A0931302B093140280E06E
:1037100090E0AFE7B3E48093150290931602A09374
:103720001702B0931802109221028FEF80932202A9
:1037300082E28093230286E980932402409326024A
:10374000509327026093280270932902D0932F028E
:10375000C0932E02409330025093310260933202A4
:1037600070933302109239021092380288EB9BE07A
:10377000A0E0B0E080933A0290933B02A0933C0219
:10378000B0933D021092430210924202809169066A
:1037900090916A06A0916B06B0916C0680934402EA
:1037A00090934502A0934602B093470280916D0624
:1037B00090916E06A0916F06B091700680934802BA
:1037C00090934902A0934A02B0934B028BED9FE085
:1037D000A9ECBFE380934C0290934D02A0934E025C
:1037E000B0934F0210925002109251021092520266
:1037F0001092530280E090E0A0E8BFE3809354026F
:1038000090935502A0935602B093570220E030E007
:10381000C7E080E090E0C29FB001C39F700D11240B
:10382000FC0143E0F595E7954A95E1F7E60FF71FB0
:10383000E85AFD4FDC01A770BB27A45EBE4F4C9138
:10384000409550814523408301968233910541F78D
:103850002F5F3F4F22333105E1F61092F0031092B3
:10386000EF031092F1031092F2031092F4031092FE
:10387000F303DF91CF911F910F91FF90EF90DF90B5
:10388000CF90BF90AF909F908F907F906F905F9000
:103890004F903F902F9008950E948E1C08F481E075
:1038A0000895E89409C097FB3EF490958095709533
:1038B00061957F4F8F4F9F4F9923A9F0F92F96E97C
:1038C000BB279395F695879577956795B795F111F1
:1038D000F8CFFAF4BB0F11F460FF1BC06F5F7F4F8E
:1038E0008F4F9F4F16C0882311F096E911C07723A0
:1038F00021F09EE8872F762F05C0662371F096E8A9
:10390000862F70E060E02AF09A95660F771F881F77
:10391000DAF7880F9695879597F90895990F00081B
:10392000550FAA0BE0E8FEEF16161706E807F90791
:10393000C0F012161306E407F50798F0621B730B2C
:10394000840B950B39F40A2661F0232B242B252BAD
:1039500021F408950A2609F4A140A6958FEF811D50
:10396000811D08950E94C51C0C94361D0E94281DBF
:1039700038F00E942F1D20F0952311F00C941F1D8C
:103980000C94251D11240C946A1D0E94471D70F390
:10399000959FC1F3950F50E0551F629FF001729FF4
:1039A000BB27F00DB11D639FAA27F00DB11DAA1F03
:1039B000649F6627B00DA11D661F829F2227B00D50
:1039C000A11D621F739FB00DA11D621F839FA00DDB
:1039D000611D221F749F3327A00D611D231F849F2B
:1039E000600D211D822F762F6A2F11249F57504082
:1039F0009AF0F1F088234AF0EE0FFF1FBB1F661FFD
:103A0000771F881F91505040A9F79E3F510580F0C5
:103A10000C941F1D0C946A1D5F3FE4F3983ED4F391
:103A2000869577956795B795F795E7959F5FC1F769
:103A3000FE2B880F911D9695879597F9089597F914
:103A40009F6780E870E060E008959FEF80EC089544
:103A500000240A941616170618060906089500246D
:103A60000A9412161306140605060895092E0394E7
:103A7000000C11F4882352F0BB0F40F4BF2B11F45B
:103A800060FF04C06F5F7F4F8F4F9F4F089557FDBA
:103A90009058440F551F59F05F3F71F04795880FBC
:103AA00097FB991F61F09F3F79F087950895121653
:103AB00013061406551FF2CF4695F1DF08C01616FF
:103AC00017061806991FF1CF8695710561050894B0
:103AD0000895E894BB2766277727CB0197F90895C7
:103AE0000E947B1DA59F900DB49F900DA49F800DFB
:103AF000911D11240895A29FB001B39FC001A39FFF
:103B0000700D811D1124911DB29F700D811D112416
:103B1000911D08955058BB27AA270E94A21D0C94FE
:103B2000361D0E94281D38F00E942F1D20F039F408
:103B30009F3F19F426F40C94251D0EF4E095E7FB45
:103B40000C941F1DE92F0E94471D58F3BA176207F6
:103B500073078407950720F079F4A6F50C94691D86
:103B60000EF4E0950B2EBA2FA02D0B01B901900198
:103B70000C01CA01A0011124FF27591B99F0593FDC
:103B800050F4503E68F11A16F040A22F232F342F24
:103B90004427585FF3CF469537952795A795F04072
:103BA0005395C9F77EF41F16BA0B620B730B840B87
:103BB000BAF09150A1F0FF0FBB1F661F771F881F3F
:103BC000C2F70EC0BA0F621F731F841F48F4879597
:103BD00077956795B795F7959E3F08F0B0CF939589
:103BE000880F08F09927EE0F979587950895DF9332
:103BF000DD27B92FBF7740E85FE3161617064807A1
:103C00005B0718F4D92F0E943E1F9F938F937F93D9
:103C10006F930E94941FE8E6F0E00E94D31E0E947A
:103C2000361D2F913F914F915F910E94C51CDD235E
:103C300051F09058A2EA2AED3FE049EC5FE3D078DA
:103C40005D270E94A21DDF910C94361D0E94FC1E70
:103C5000E3950C94251F0E943F1E0C94361D0E9474
:103C60002F1D58F00E94281D40F029F45F3F29F0D5
:103C70000C941F1D51110C946A1D0C94251D0E945B
:103C8000471D68F39923B1F3552391F3951B550B09
:103C9000BB27AA2762177307840738F09F5F5F4F1F
:103CA000220F331F441FAA1FA9F335D00E2E3AF05E
:103CB000E0E832D091505040E695001CCAF72BD076
:103CC000FE2F29D0660F771F881FBB1F26173707C7
:103CD0004807AB07B0E809F0BB0B802DBF01FF27F9
:103CE00093585F4F3AF09E3F510578F00C941F1D9A
:103CF0000C946A1D5F3FE4F3983ED4F38695779564
:103D00006795B795F7959F5FC9F7880F911D9695B1
:103D1000879597F90895E1E0660F771F881FBB1F0D
:103D2000621773078407BA0720F0621B730B840BBA
:103D3000BA0BEE1F88F7E09508950E94A41E6894C0
:103D4000B1110C946A1D08950E944F1D88F09F5771
:103D500098F0B92F9927B751B0F0E1F0660F771FAF
:103D6000881F991F1AF0BA95C9F714C0B13091F0A5
:103D70000E94691DB1E008950C94691D672F782F8A
:103D80008827B85F39F0B93FCCF38695779567956A
:103D9000B395D9F73EF490958095709561957F4FD6
:103DA0008F4F9F4F0895DF93CF931F930F93FF92F1
:103DB000EF92DF927B018C01689406C0DA2EEF014E
:103DC0000E94C51CFE01E894A5912591359145916D
:103DD0005591A6F3EF010E94A21DFE019701A801D3
:103DE000DA9469F7DF90EF90FF900F911F91CF91D8
:103DF000DF9108950C94251D0E944F1DD8F3E8947F
:103E0000E0E0BB279F57F0F02AED3FE049EC06C009
:103E1000EE0FBB0F661F771F881F28F0B23A6207AC
:103E20007307840728F0B25A620B730B840BE39577
:103E30009A9572F7803830F49A95BB0F661F771FFA
:103E4000881FD2F790480C949A1FEF93E0FF07C0A9
:103E5000A2EA2AED3FE049EC5FEB0E94A21D0E941E
:103E6000361D0F90039401FC9058E5E9F0E00C94A6
:103E7000AD1F0E948E1C08F48FEF08959B01AC01CA
:103E800060E070E080E89FE30C942B1E9F930E94FB
:103E9000FC1E0F9007FCEE5F0C94251F19F416F41E
:103EA0000C94251D0C94981F0E944F1DB8F3992364
:103EB000C9F3B6F39F57550B87FF0E94A61F002436
:103EC000A0E640EA900180585695979528F4805CCA
:103ED000660F771F881F20F026173707480730F432
:103EE000621B730B840B202931294A2BA69517944A
:103EF0000794202531254A2758F7660F771F881F1A
:103F000020F026173707480730F4620B730B840B39
:103F1000200D311D411DA09581F7B901842F9158C5
:103F2000880F9695879508959B01AC010C94B21C5F
:103F30009F3F31F0915020F4879577956795B7951D
:103F4000880F911D9695879597F908959150504047
:103F5000660F771F881FD2F708959F938F937F93E3
:103F60006F93FF93EF939B01AC010E94B21CEF9102
:103F7000FF910E94D31E2F913F914F915F910C941E
:103F8000B21C97FB072E16F4009407D077FD09D0DA
:103F90000E94362007FC05D03EF4909581959F4FF6
:103FA0000895709561957F4F0895A1E21A2EAA1B7E
:103FB000BB1BFD010DC0AA1FBB1FEE1FFF1FA217D9
:103FC000B307E407F50720F0A21BB30BE40BF50BD6
:103FD000661F771F881F991F1A9469F7609570955F
:103FE000809590959B01AC01BD01CF010895052EF0
:103FF00097FB1EF400940E940E2057FD07D00E94EC
:10400000D51F07FC03D04EF40C940E20509540951C
:10401000309521953F4F4F4F5F4F08959095809574
:10402000709561957F4F8F4F9F4F0895B7FF0C9408
:10403000701D0E94701D821B930B08950024A7FD24
:1040400000942A0F301D401D501D601D701D801DE5
:10405000901D08950024A7FD00942A1730054005FF
:10406000500560057005800590050895AA1BBB1BCF
:1040700051E107C0AA1FBB1FA617B70710F0A61B68
:10408000B70B881F991F5A95A9F780959095BC0189
:10409000CD010895EE0FFF1F0590F491E02D0994D6
:0E40A00081E090E0F8940C945520F894FFCF46
:1040AE0002000000003F05000000000000000000BC
:1040BE00FC03B200C503A303B703430401020408C3
:1040CE001020408054494D4544204F5554000D0A50
:0240DE000000E0
:00000001FF
