:100000000C9471000C9499000C9499000C94990034
:100010000C9499000C9499000C9499000C94AE03E4
:100020000C9499000C9499000C9499000C949900EC
:100030000C9499000C9499000C9499000C949900DC
:100040000C940D030C9499000C94B6010C9490013F
:100050000C9499000C9499000C9499000C949900BC
:100060000C9499000C94990005A84CCDB2D44EB9CB
:100070003836A9020C50B9918688083CA6AAAA2A4B
:10008000BE000000803F00000008000201000003E5
:100090000407000000000000000000000000240031
:1000A00027002A000000000023002600290000008D
:1000B0000000250028002B000404040404040404A8
:1000C0000202020202020303030303030102040803
:1000D00010204080010204081020010204081020B2
:1000E000910E11241FBECFEFD8E0DEBFCDBF25E0BB
:1000F000AAE3B1E001C01D92AD33B207E1F711E010
:10010000A0E0B1E0E0EDFAE202C005900D92AA3362
:10011000B107D9F710E0C1E7D0E004C02197FE0194
:100120000E945B15C037D107C9F70E9440050C94A7
:1001300066150C940000FC01918D828D981761F07A
:10014000828DDF01A80FB11D5D968C91928D9F5F0E
:100150009F73928F90E008958FEF9FEF0895FC01B9
:10016000918D828D981731F0828DE80FF11D858D6C
:1001700090E008958FEF9FEF0895FC01918D228DFF
:10018000892F90E0805C9F4F821B91098F73992784
:1001900008958BE491E00E94BD0021E0892B09F4D1
:1001A00020E0822F0895FC01848DDF01A80FB11D8E
:1001B000A35ABF4F2C91848D90E001968F7399279D
:1001C000848FA689B7892C93A089B1898C9180648A
:1001D0008C93938D848D981306C00288F389E02D4B
:1001E00080818F7D80830895EF92FF920F931F93FC
:1001F000CF93DF93EC0181E0888F9B8D8C8D9813DA
:1002000005C0E889F989808185FD24C0F62E0B8D13
:1002100010E00F5F1F4F0F731127E02E8C8DE81237
:100220000CC00FB607FCFACFE889F989808185FFF9
:10023000F5CFCE010E94D300F1CF8B8DFE01E80FE8
:10024000F11DE35AFF4FF0820B8FEA89FB89808111
:10025000806207C0EE89FF896083E889F98980811F
:100260008064808381E090E0DF91CF911F910F91B6
:10027000FF90EF900895CF93DF93EC01888D882352
:10028000C9F0EA89FB89808185FD05C0A889B98903
:100290008C9186FD0FC00FB607FCF5CF808185FFDE
:1002A000F2CFA889B9898C9185FFEDCFCE010E944C
:1002B000D300E7CFDF91CF91089580E090E0892BC4
:1002C00029F00E94C90081110C9400000895833028
:1002D00081F028F4813099F08230A1F008958730C0
:1002E000A9F08830B9F08430D1F4809180008F7DFE
:1002F00003C0809180008F7780938000089584B53B
:100300008F7702C084B58F7D84BD08958091B00041
:100310008F7703C08091B0008F7D8093B0000895E7
:100320001F920F920FB60F9211242F933F934F936A
:100330005F936F937F938F939F93AF93BF93EF934D
:10034000FF938BE491E00E94D300FF91EF91BF9166
:10035000AF919F918F917F916F915F914F913F915D
:100360002F910F900FBE0F901F9018951F920F9214
:100370000FB60F9211242F938F939F93EF93FF93B8
:10038000E0915B01F0915C018081E0916101F0916D
:10039000620182FD12C09081809164018F5F8F7332
:1003A00020916501821751F0E0916401F0E0E55B76
:1003B000FE4F958F8093640101C08081FF91EF9182
:1003C0009F918F912F910F900FBE0F901F901895B6
:1003D000CF93DF93282F30E0F901EA57FF4F849144
:1003E000F901E453FF4FD491F901E854FF4FC49150
:1003F000CC2391F081110E946701EC2FF0E0EE0F09
:10040000FF1FEC55FF4FA591B491EC91ED2381E0D6
:1004100090E021F480E002C080E090E0DF91CF9195
:1004200008951F93CF93DF93282F30E0F901EA5707
:10043000FF4F8491F901E453FF4FD491F901E8543F
:10044000FF4FC491CC23C9F0162F81110E94670180
:10045000EC2FF0E0EE0FFF1FE255FF4FA591B49196
:100460008FB7F894111105C09C91ED2FE095E92309
:1004700002C0EC91ED2BEC938FBFDF91CF911F91D8
:100480000895CF93DF9390E0FC01E453FF4F249154
:10049000FC01E854FF4F8491882361F190E0880FBC
:1004A000991FFC01E656FF4FC591D491FC01E2551E
:1004B000FF4FA591B491611109C09FB7F89488814D
:1004C000209582238883EC912E230BC0623061F447
:1004D0009FB7F8943881822F809583238883EC918D
:1004E0002E2B2C939FBF06C08FB7F894E8812E2B3C
:1004F00028838FBFDF91CF9108951F93CF93DF9310
:10050000182FEB0161E00E944102209711F460E096
:1005100004C0CF3FD10539F461E0812FDF91CF9145
:100520001F910C941102E12FF0E0EA57FF4FE49184
:10053000E330F9F048F4E130B9F0E230A1F584B5E8
:10054000806284BDC8BD34C0E730E9F0E83019F1FD
:10055000E43049F580918000806280938000D093E0
:100560008B00C0938A0024C084B5806884BDC7BD59
:100570001FC080918000806880938000D0938900A4
:10058000C093880015C08091B00080688093B0004F
:10059000C093B3000DC08091B00080628093B00022
:1005A000C093B40005C0C038D1050CF0B5CFAFCFB3
:1005B000DF91CF911F9108953FB7F8948091470143
:1005C00090914801A0914901B0914A0126B5A89B9C
:1005D00005C02F3F19F00196A11DB11D3FBFBA2FD5
:1005E000A92F982F8827820F911DA11DB11DBC0135
:1005F000CD0142E0660F771F881F991F4A95D1F7FA
:1006000008952FB7F894609143017091440180914F
:100610004501909146012FBF08951F920F920FB68A
:100620000F9211242F933F938F939F93AF93BF9378
:100630008091430190914401A0914501B091460100
:100640003091420123E0230F2D3720F40196A11DA4
:10065000B11D05C026E8230F0296A11DB11D2093F0
:1006600042018093430190934401A0934501B093CC
:1006700046018091470190914801A0914901B091B4
:100680004A010196A11DB11D809347019093480135
:10069000A0934901B0934A01BF91AF919F918F916F
:1006A0003F912F910F900FBE0F901F9018950F93B1
:1006B0001F93CF93DF938C0120E030E040E053E4C0
:1006C000FC0160817181828193810E94161220E079
:1006D00030E048E453E40E9460130E94D213EB011F
:1006E0006138FFEF7F0734F06F3771052CF0CFE7EB
:1006F000D0E002C0C0E8DFEF20E030E040E053E4AB
:10070000F80164817581868197810E94161220E02C
:1007100030E048E453E40E9460130E94D213613831
:10072000FFEF7F0734F06F3771052CF06FE770E053
:1007300002C060E87FEF8C2F962FDF91CF911F9141
:100740000F910895FB019C012C5F3F4FDC014D91FF
:10075000CD014193A217B307C9F708951F920F92D5
:100760000FB60F9211242F933F934F935F936F9384
:100770007F938F939F93AF93BF93EF93FF93E091FA
:100780003A01F0913B010995FF91EF91BF91AF9133
:100790009F918F917F916F915F914F913F912F9199
:1007A0000F900FBE0F901F901895E0E7F0E080814A
:1007B0008D7F80830895CF93DF93EC010E94010326
:1007C000688379838A839B83DF91CF910895CF9249
:1007D000DF92EF92FF920F931F93CF93DF93EC0181
:1007E0000E940103C880D980EA80FB800C811D81B2
:1007F0002E813F81C00ED11EE21EF31E21E06C153A
:100800007D058E059F0508F420E0822FDF91CF91B2
:100810001F910F91FF90EF90DF90CF9008958F92EE
:100820009F92AF92BF92CF92DF92EF92FF920F937F
:100830001F93CF93DF930E94DC020091D6041091A6
:10084000D7042091D8043091D90406171707280738
:10085000390718F40E94D50354C0E091D004F091F8
:10086000D10490818091CD04892309F04AC00E946F
:10087000D5030E94DC022091D4043091D504690193
:10088000E12CF12C0091D6041091D7042091D804CA
:100890003091D90446015701801A910AA20AB30A7D
:1008A000950184010D50110921093109600F711F53
:1008B000821F931F6093C8047093C9048093CA0475
:1008C0009093CB04C091DA04D091DB0429E330E0AB
:1008D00040E050E00E94FE1486E28C9FF0018D9F64
:1008E000F00D1124E251FD4F2115310519F0358B22
:1008F000248B04C088EC90E0958B848B1092DC04F0
:1009000026C087EE94E00E94E703882301F18091DE
:10091000DA049091DB0426E2289FF001299FF00D74
:100920001124E251FD4F88EC90E0958B848B10925E
:10093000DC04DF91CF911F910F91FF90EF90DF903A
:10094000CF90BF90AF909F908F900C94D503DF9184
:10095000CF911F910F91FF90EF90DF90CF90BF90BC
:10096000AF909F908F900895CF92DF92EF92FF9279
:100970000F931F93CF93DF936C017A018B01C0E03B
:10098000D0E0CE15DF0589F0D8016D918D01D6013B
:10099000ED91FC910190F081E02DC6010995892B24
:1009A00011F47E0102C02196ECCFC701DF91CF91F7
:1009B0001F910F91FF90EF90DF90CF9008950E94CC
:1009C0006115CF92DF92EF92FF9297FD06C0853BB3
:1009D00091052CF084EB90E002C080E090E08093E1
:1009E0002702C09028022091290230E02C193109F9
:1009F000D12CE12CF12CFE2CED2CDC2CCC24A901EB
:100A0000330F660B770B2227342F452F562FDC012F
:100A10000E943F1524EB30E040E050E00E9420159A
:100A2000C701B601620F731F841F951F28E030E0D5
:100A300040E050E00E94201580912602893029F480
:100A4000309389002093880004C030938B0020935A
:100A50008A00FF90EF90DF90CF900895FC012081F5
:100A60006181862F90E0A0E0B0E0DC019927882723
:100A7000B22B2381822B2281BC01CD01722B0895E0
:100A8000CF93DF93CDB7DEB7AE970FB6F894DEBF46
:100A90000FBECDBF789484B5826084BD84B581607B
:100AA00084BD85B5826085BD85B5816085BD809139
:100AB0006E00816080936E001092810080918100B1
:100AC00082608093810080918100816080938100A9
:100AD000809180008160809380008091B10084606B
:100AE0008093B1008091B00081608093B0008091CC
:100AF0007A00846080937A0080917A00826080938B
:100B00007A0080917A00816080937A0080917A00E7
:100B1000806880937A001092C100E0915B01F091AF
:100B20005C0182E08083E0915701F09158011082CE
:100B3000E0915901F0915A018FEC8083109263018A
:100B4000E0915F01F091600186E08083E0915D01BA
:100B5000F0915E01808180618083E0915D01F09180
:100B60005E01808188608083E0915D01F0915E018B
:100B7000808180688083E0915D01F0915E018081D9
:100B80008F7D808310920B0510920A0561E088E04A
:100B90000E94410261E087E00E94410261E08BE037
:100BA0000E94410261E08AE00E944102E2E0F3E03B
:100BB00088EC90E091838083938382839583848300
:100BC0009783868391878087938782879587848799
:100BD00017861686B69624E0EA3CF20759F781E0BC
:100BE0008093DD041092DC048BE090E09093DB04B2
:100BF0008093DA0484E090E09093DF048093DE0435
:100C00001092E60460E082E00E94410260E084E02D
:100C10000E94410260E083E00E94410260E08EE0B9
:100C20000E94410260E08FE00E94410260E080E1AA
:100C30000E94410260E081E10E94410260E082E1A5
:100C40000E94410261E083E10E9441020E9401038F
:100C50006093E2027093E3028093E4029093E502D2
:100C60001092E7021092E6021092E8021092E90256
:100C70001092EA021092EB021092ED021092EC0236
:100C800061E085E00E94410261E086E00E9441024D
:100C900089E0809326028FEF8093270260E089E04D
:100CA0000E94110261E0809126020E94410280911F
:100CB0003D01811122C080913C0181111EC02FB7DE
:100CC000F89482E0809380008AE18093810088EB31
:100CD0009BE0909389008093880090938B00809391
:100CE0008A0080E49CE9909387008093860080913D
:100CF0006F00887F80936F002FBF8091260289301C
:100D000041F481E080933D01809180008F73806881
:100D100007C081E080933C01809180008F7C8062DD
:100D200080938000109222021092230210922402DB
:100D3000109225028AE590E00E94E10410921E02C2
:100D400010921F021092200210922102AE01475E03
:100D50005F4F5A8F498F8FEE94E00E94E7038823FC
:100D600009F417C189EF94E00E94E703882321F07A
:100D700081E0809334050DC18BE491E00E94BD00B9
:100D8000009709F4A3C040910A0550910B0529E092
:100D900030E0241B350B8C01281739070CF489012E
:100DA000C12CD12CB12CEE24E394F12CC016D10629
:100DB0000CF06DC08BE491E00E949B0020912A050D
:100DC00030912B052130310549F122303105F9F1FF
:100DD000232B09F058C020910A0530910B05F90129
:100DE000E251FE4F9081891314C0A9014F5F5F4FFC
:100DF00050930B0540930A05F901E151FB4F828B9B
:100E00004430510509F03FC0F0922B05E0922A05CD
:100E10003AC010920B0510920A0535C020910A05C0
:100E200030910B05A9014F5F5F4F50930B05409325
:100E30000A05F901E151FB4F828B4530510519F547
:100E400082E090E090932B0580932A051CC02091AE
:100E50000A0530910B05A9014F5F5F4F50930B05B9
:100E600040930A05F901E151FB4F828B493051054E
:100E700051F410920B0510920A0510922B05109256
:100E80002A05BB24B3949FEFC91AD90A8FCFBB2080
:100E9000E9F08091050590E090930D0580930C0595
:100EA000BE016F5F7F4F86E095E00E94A2036EE077
:100EB00075E0CE0101960E94A20381E080932C058B
:100EC00080932D0580932E0580932F05E0E3EE2E71
:100ED000E5E0FE2E00E010E0F5E0DF2EF894D7010B
:100EE0008C91F70111927F017894882309F443C013
:100EF000F801E151FB4FC3A0BE016F5F7F4F8EEE43
:100F000091E00E94A203CD82FE013196DE011A9685
:100F10008D2D01900D928A95E1F7FE013A96DE0142
:100F20001F968D2D01900D928A95E1F7FE013F9657
:100F3000DE0154968D2D01900D928A95E1F7C8013E
:100F40008C5E9A4FFE017496DE01119621912D93CD
:100F5000498C5A8CE415F505C9F7BE016A5F7F4FCD
:100F60000E94A20349E050E0BE016F5F7F4F8BE417
:100F700091E00E94B4040A5F1F4F0831110509F087
:100F8000ADCF83EF94E00E94DB038DEF94E00E94ED
:100F9000DB038EEE92E00E94E703882309F4C6C1CA
:100FA00088EF92E00E94E703882389F049E150E04E
:100FB0006CE171E08BE491E00E94B40442E050E007
:100FC00066E371E08BE491E00E94B404AFC1E0916C
:100FD000F602F091F702F894E45DFA4F80811082F6
:100FE00078948823E9F180910C0590910D059093F8
:100FF000E1048093E00462EE74E08EE095E00E94EC
:10100000A2038091E0049091E104409749F582EEBB
:1010100094E00E942E0521E0672B682B692B09F4D0
:1010200020E02093E6040091F6021091F70286E09A
:10103000809FB001819F700D11248091E8019091F3
:10104000E9016E5E7A4FDB018D939D93BD018AEEBF
:1010500091E00E94A203F801E05DFA4F81E08083F5
:101060008091DD04882309F459C18091DC04811149
:1010700055C16090DA047090DB049BE0691671043E
:1010800009F01DC14090DE045090DF0458A24F8E3D
:10109000C201049665E070E00E94EA148DA79EA745
:1010A000440C551C5CA64BA692E0492E93E0592EA9
:1010B0001C8E1B8EF20120803180EBA5FCA5E40D77
:1010C000F51D33822282F8EC2F16310409F4FBC59A
:1010D000E0E0F1E0208131813AA329A3828193816C
:1010E000A481B5818BA39CA3ADA3BEA3D2011C9602
:1010F000ED90FC901D97B7010F2C000C880B990BFD
:101100000E94B7114B015C0120E030E040E85FE352
:101110006BA17CA18DA19EA10E94EF129B01AC014D
:10112000C501B4010E9416120E94D2136FA378A7C2
:1011300089A79AA70FA118A52BA13CA14DA15EA13B
:1011400060E070E080E89FE30E94EE129B01AC013A
:10115000C501B4010E9416120E94D2130617170788
:101160000CF4B9C5261637060CF0B0C541E050E0C6
:101170002E143F0414F040E050E04130510509F0D6
:10118000B2C59B014130510509F0AFC567018DA57E
:101190009EA5E0E0F0E063E14B8D5C8D649F8001F3
:1011A000659F100D11244F8D58A18417950711F1DB
:1011B000A9A1BAA1EA17FB07ECF4D801A80FB91F3F
:1011C000AA0FBB1FAC5FBC4F4D915C91C216D306FA
:1011D0000CF48EC5421753070CF497C5C416D506F8
:1011E0000CF493C541E0049665E070E00E94EA14B7
:1011F0004423C9F289A19AA10197E817F9070CF4D1
:101200001701F20135862486D2011C966D917C91DE
:101210001D97072E000C880B990B0E94B7116B01CC
:101220007C012BED3FE049EC5FE3F201608D718DB5
:10123000828D938D0E94EF124B015C010E945B1323
:101240009B01AC01C701B6010E9416129B01AC01C3
:10125000D20150966D917D918D919C9153970E94F2
:10126000EF12F201648F758F868F978FC501B401DD
:101270000E944C149B01AC01C701B6010E941612DA
:101280009B01AC01D20154966D917D918D919C9101
:1012900057970E94EF12F20160A371A382A393A358
:1012A0002B8D3C8D2F5F3F4F3C8F2B8F36E2430EB3
:1012B000511C4B8D5C8D4C30510509F0FBCE80915B
:1012C000E6048111D9C32091DA043091DB042B307C
:1012D000310569F48091DE049091DF04019665E0A8
:1012E00070E00E94EA149093DF048093DE04C90149
:1012F00001966CE070E00E94EA149093DB04809306
:10130000DA0426E2289FF001299FF00D1124E25112
:10131000FD4F82A193A10B970CF4FDC382EF92E0E5
:101320000E94DB038CEF92E00E94DB0380ED92E0F1
:101330000E94E703882309F4A9C08AED92E00E9485
:10134000E7038111A3C00E9401036B017C0160E0EF
:1013500083E10E94110282E10E94E801082F81E1ED
:101360000E94E8018295880F880F807C182FB0E8D2
:101370000B9F1019112480E10E94E801882E8FE054
:101380000E94E801982E8EE00E94E801A82E83E0DA
:101390000E94E801082F84E00E94E801B82E82E054
:1013A0000E94E801810F182FE0E28E9E100D11249B
:1013B000F0E19F9E100D112428E0A29E100D112433
:1013C000000F000F010FBB0C0B0D002E000C110BBA
:1013D00061E083E10E9411024091E6025091E70230
:1013E0009801241B350BC90137FF04C088279927B2
:1013F000821B930B81389105C4F0C90193953A95EE
:10140000DC0197FF04C0AA27BB27A81BB90BF90171
:1014100037FF04C0EE27FF27E21BF30BEA17FB0799
:101420000CF4C901840F951F01C0C8018090E2022D
:101430009090E302A090E402B090E502260137010B
:10144000481859086A087B084092E8025092E9025D
:101450006092EA027092EB02841B950B9093ED026E
:101460008093EC02C092E202D092E302E092E402A6
:10147000F092E5021093E7020093E60284ED92E019
:101480000E94DB038EED92E00E94DB0382EF91E08D
:101490000E94E703882309F4ECC28CEF91E00E94DC
:1014A000E7038111E6C2C090E802D090E902E09023
:1014B000EA02F090EB02C114D104E104F10459F105
:1014C0008091EC029091ED02BC01990F880B990B71
:1014D0000E94B71120E030E046E155E40E9460131D
:1014E00026E636E642EA51E40E9416124B015C0100
:1014F000C701B6010E94B5119B01AC01C501B40141
:101500000E94601320E030E04AE754E40E94161283
:101510006B017C0103C0C12CD12C760186E092E0E6
:101520000E94E703882309F4F4C080901E02909083
:101530001F02A0902002B090210220E030E0A9011B
:10154000C501B4010E94B011811115C020E030E046
:1015500040E85FEBC701B6010E94471487FD0BC04E
:1015600020E030E040E85FE3C701B6010E94B0111F
:1015700018160CF0BAC0A7019601C501B4010E946B
:10158000EE126B017C010E9401034B015C01209172
:101590000E0230910F024091100250911102C701CA
:1015A000B6010E9416126B8F7C8F8D8F9E8F2091BB
:1015B0001602309117024091180250911902C7018A
:1015C000B6010E94EE122B013C0180910A0290911B
:1015D0000B02A0910C02B0910D02A5019401281BF1
:1015E000390B4A0B5B0BCA01B9010E94B5119B0173
:1015F000AC01C301B2010E9460132091120230912C
:10160000130240911402509115020E9416129B0180
:10161000AC016B8D7C8D8D8D9E8D0E94EF12209183
:101620001A0230911B0240911C0250911D020E942F
:10163000EF124B015C0120E030E04FE753E40E94E1
:10164000471418162CF480E090E0AFE7B3E417C01D
:1016500020E030E04FE753ECC501B4010E94B01127
:1016600087FD09C080921A0290921B02A0921C0270
:10167000B0921D020CC080E090E0AFE7B3EC809325
:101680001A0290931B02A0931C02B0931D02C092F9
:101690001602D0921702E0921802F092190260919D
:1016A0001A0270911B0280911C0290911D020E94EF
:1016B000D2136B017C01CB0181509F4F8F3F914032
:1016C000F0F41D2D1095111F1127111F11F0B601F7
:1016D00002C060E070E085E00E947D0211110AC046
:1016E000662777276C197D0907C060E070E085E008
:1016F0000E947D0260E070E086E00E947D020E9410
:10170000010360930A0270930B0280930C02909382
:101710000D02E091FA01F091FB01F894E45DFA4FBB
:10172000108110827894112371F080910C059091B2
:101730000D059093CA028093C9026BEC72E08EE0B3
:1017400095E00E94A2031093C802F8948091C80209
:101750001092C8027894882309F43FC08091C9028E
:101760009091CA028230910591F08330910569F120
:10177000019799F58BEC92E00E942E0560931E0272
:1017800070931F02809320029093210226C08BEC5D
:1017900092E00E942E0560932202709323028093B0
:1017A00024029093250220E030E044EB52E40E94B2
:1017B000EF120E94D2139B012E51310929373105B6
:1017C00060F4CB010E94E10408C08BEC92E00E941F
:1017D0002E057093050260930402409022025090FF
:1017E0002302609024027090250221EE3EE245E63D
:1017F00052E460911A0370911B0380911C03909135
:101800001D030E9416129B01AC01C301B2010E948C
:10181000EE126B017C0120E030E0A9010E94471428
:10182000181624F0F7FAF094F7F8F09440E453E037
:101830005C8F4B8F212C312C01E010E021EE3EE239
:1018400045E652E4AB8DBC8D6D917D918D919C915F
:101850000E9416129B01AC01C301B2010E94EE125C
:101860004B015C0120E030E0A9010E9447141816EA
:1018700024F0B7FAB094B7F8B094A7019601C50167
:10188000B4010E94B01187FF03C018017501640103
:101890000F5F1F4FEB8DFC8DB696FC8FEB8F0C30DE
:1018A000110561F6C10195958795F6E02F16310473
:1018B0002CF01C0123E0220E311C01C01C0143E06E
:1018C00050E05C8F4B8F56E2529DF001539DF00D1E
:1018D0001124E251FD4F84A095A0A6A0B7A000A5B9
:1018E00011A522A533A5C10101966CE070E00E940C
:1018F000EA141C0166E2689FF001699FF00D112453
:10190000E251FD4F44A055A066A077A060A571A547
:1019100082A593A58092B4029092B502A092B602DD
:10192000B092B7020093B8021093B9022093BA02A2
:101930003093BB02A90198010E94EE126B017C0159
:10194000A5019401C301B2010E94EE124B015C019A
:101950009B01AC010E9416122B013C01A7019601CC
:10196000C701B6010E9416129B01AC01C301B2016E
:101970000E94EF120E945A1420E030E040E251E44D
:101980000E9460132B013C0120E030E040EA50E46B
:101990000E94B01187FF06C0C301B2010E94D2139A
:1019A0008B0102C005E010E01093C5020093C40251
:1019B000B8016F5F7F4F072E000C880B990B0E94B8
:1019C000B7112B013C019B01AC01C501B4010E9480
:1019D00060136093BC027093BD028093BE0290932B
:1019E000BF02A3019201C701B6010E946013609378
:1019F000C0027093C1028093C2029093C3021092FE
:101A0000C7021092C6028091C6029091C702801749
:101A1000910734F401969093C7028093C602F3CFE6
:101A20008B8D9C8D01979C8F8B8F892B09F04BCFD1
:101A30008091040290910502029799F48091CF025F
:101A4000882379F08091C9029091CA02019749F4E4
:101A50008CE292E00E94E703882309F459C11092B6
:101A6000CF0286EF91E00E94DB0380E092E00E94CB
:101A7000DB030E945D016FC960FE25CCC30177FCCA
:101A800001969595879508969093E1048093E004DC
:101A900016E2169DC001179D900D1124825E9C4F89
:101AA0000E945703F82E092F2091DA043091DB04AD
:101AB00021503109129FC001139F900D1124825EA5
:101AC0009C4F0E94570389839A83FB820C8362EEAA
:101AD00074E0CE0101960E94A2030091F6021091DB
:101AE000F70286E0809FB001819F700D11248091E4
:101AF000E0049091E1046E5E7A4FDB018D939D933B
:101B0000BD0182EE94E00E94A203F801E05DFA4F6D
:101B100081E08083D8CB02891389602F617088E0CF
:101B20000E941102B80176956795617087E00E9466
:101B30001102B801769567957695679561708BE08F
:101B40000E94110253E0169507955A95E1F7602F10
:101B500061708AE00E94110281E08093DC040E949F
:101B6000D5030E9401036093EB047093EC0480930F
:101B7000ED049093EE04E091D204F091D3049081AF
:101B80008091CC04892B8083E091CE04F091CF0426
:101B900090818091CC048095892380838BE090E0B4
:101BA0000197F1F7E091CE04F091CF0490818091FC
:101BB000CC04892B808383E290E00197F1F7E091D8
:101BC000CE04F091CF0490818091CC04809589233C
:101BD0008083E091D204F091D30490818091CC0471
:101BE000809589238083E091D004F091D104908185
:101BF0008091CD04892309F091CB0E94DC022091D1
:101C0000D4043091D504890120E030E00855194E04
:101C10002F4F3F4FDC01CB01800F911FA21FB31F3D
:101C20008093D6049093D704A093D804B093D9049A
:101C3000E091D004F091D10490818091CD0489236A
:101C400081F40E94DC020091D6041091D704209107
:101C5000D8043091D904061717072807390740F729
:101C60005DCB0E94DC022091D4043091D504DC01CC
:101C7000CB01820F931FA11DB11D8093D6049093B9
:101C8000D704A093D804B093D9048FE094E0909344
:101C90003B0180933A010E94D5038091B6008F7D6D
:101CA0008093B60082E08093B00084E08093B1001E
:101CB0001092B20085E08093B30080917000826042
:101CC000809370002BCBE6E0F1E004CA0215130507
:101CD0000CF44CCA14C0201631060CF447CA621525
:101CE00073056CF443CA97014DCACFA0D8A44FCA5C
:101CF0004C155D0554F0241735073CF073CAD2012A
:101D00001D963C922E921C977FCA319640E06BCA7A
:101D10001092CB021092CC021092CD021092CE0201
:101D2000A0CE2F923F924F925F926F927F928F92AE
:101D30009F92AF92BF92CF92DF92EF92FF920F935A
:101D40001F93CF93EBE4F1E01382128288EE93E0CD
:101D5000A0E0B0E084839583A683B78320E131E0DF
:101D60003183208325EC30E03587248724EC30E074
:101D70003787268720EC30E0318B208B21EC30E058
:101D8000338B228B22EC30E0358B248B26EC30E039
:101D9000378B268B118E128E138E148EEEEEF1E0A1
:101DA0002FE72083CFEFC183C283C383E9E3F5E04C
:101DB00010821182128221E02383E5E3F5E0108294
:101DC000118212821382E8EEF1E0118210821282F7
:101DD000138214821582EFEEF4E044E150E060E0FB
:101DE00070E0408351836283738382879387A487E3
:101DF000B58714AE13AE1092340560E080E00E9407
:101E0000410261E081E00E9441021092300510928F
:101E10002C051092310510922D051092320510926A
:101E20002E051092330510922F05AEEEB2E02FE092
:101E300030E040E050E02D933D934D935C93139739
:101E400044E650E060E070E01A964D935D936D9328
:101E50007C931D97E8EDF0E0E491E093CC04E9ED8C
:101E6000F0E0E491E093CD0484EC90E0FC01249157
:101E7000E22FF0E0EE0FFF1FE255FF4F2591349166
:101E80003093CF042093CE04E5ECF0E0E491F0E051
:101E9000EE0FFF1FEC55FF4F259134913093D10485
:101EA0002093D004FC018491E82FF0E0EE0FFF1F97
:101EB000E656FF4F859194919093D3048093D2047A
:101EC00081EC9CE29093D5048093D4042AE030E026
:101ED00040E050E02093E7043093E8044093E904A5
:101EE0005093EA041092DD0420E030E040E850E432
:101EF00094962D933D934D935C939797412C512C41
:101F0000612C50E4752E98964D925D926D927C9264
:101F10009B9749EA55ED63E874E49C964D935D9375
:101F20006D937C939F978BE090E053969C938E9358
:101F3000529706E616E626EE30E400933803109337
:101F4000390320933A0330933B0340E050E060E2D2
:101F500071E440933C0350933D0360933E037093C0
:101F60003F03EDEECE2EE7E0DE2EE4E8EE2EE4ECCD
:101F7000FE2EC0924003D0924103E0924203F092C1
:101F800043038CE090E0D9969C938E93D897FAE91E
:101F9000CF2EF9E9DF2EF9E1EF2EF0E4FF2EC0920B
:101FA0005E03D0925F03E0926003F092610340937E
:101FB000620350936303609364037093650310920C
:101FC000660310926703109268031092690322243B
:101FD0002394312C30924D0320924C03BAE98B2E7E
:101FE000B9E99B2EB9E1AB2EB0ECBB2E80928403F5
:101FF00090928503A0928603B09287034093880352
:102000005093890360938A0370938B0310928C031F
:1020100010928D0310928E0310928F0382E090E055
:10202000909373038093720386E696E6A6EEB0EC77
:102030008093AA039093AB03A093AC03B093AD033A
:102040004093AE035093AF036093B0037093B1031A
:102050004DEE57E064E874E44093B2035093B30349
:102060006093B4037093B50343E050E05093990339
:102070004093980340E050E060E870EC4093D00358
:102080005093D1036093D2037093D3034092D4034F
:102090005092D5036092D6037092D703E9EA4E2E90
:1020A000E5ED5E2EE3E86E2EE4EC7E2E4092D80342
:1020B0005092D9036092DA037092DB03E4E0F0E01F
:1020C000F093BF03E093BE034093F6035093F703EE
:1020D0006093F8037093F90346E656E666E670E40B
:1020E0004093FA035093FB036093FC037093FD034A
:1020F000F1E34F2EFAE35F2EF4E86F2EF4E47F2E27
:102100004092FE035092FF0360920004709201041B
:10211000E5E0F0E0F093E503E093E40380931C0432
:1021200090931D04A0931E04B0931F0480E090E0E0
:10213000A0E2B1EC8093200490932104A0932204A8
:10214000B0932304E5E64E2EE3EA5E2EE3E86E2E1E
:10215000E4EC7E2E409224045092250460922604E2
:1021600070922704E6E0F0E0F0930B04E0930A0499
:102170008092420490924304A0924404B092450499
:102180008093460490934704A0934804B093490475
:10219000FBED8F2EFFE09F2EF9E4AF2EF0E4BF2E73
:1021A00080924A0490924B04A0924C04B0924D0449
:1021B000E7E0F0E0F0933104E0933004C09268046B
:1021C000D0926904E0926A04F0926B0480936C04EC
:1021D00090936D04A0936E04B0936F04809270048A
:1021E00090927104A0927204B0927304E8E0F0E05F
:1021F000F0935704E093560400938E0410938F04D9
:1022000020939004309391048093920490939304CC
:10221000A0939404B093950485E693EAA3E8B4E40C
:102220008093960490939704A0939804B093990494
:102230008DE090E090937D0480937C0480E090E0BA
:10224000A0E8B0E48093B4049093B504A093B604DE
:10225000B093B7044093B8045093B9046093BA04A0
:102260007093BB0481E39AE3A4E8B4EC8093BC04CC
:102270009093BD04A093BE04B093BF048AE090E0A5
:102280009093A3048093A204E0EDF2E02FE030E00D
:1022900040E050E0208331834283538388EC90E018
:1022A000A0E0B0E082879387A487B587E2EFF1E0F2
:1022B00085E090E0A0E0B0E080839183A283B383C7
:1022C00082E390E0A0E0B0E082879387A487B5879F
:1022D000338A228A8AE090E0A0E0B0E0848B958B7C
:1022E000A68BB78B80E090E0A0E0BFE3848F958F52
:1022F000A68FB78F8DEC9CECACECBDE380A391A3D3
:10230000A2A3B3A314A215A216A217A210A611A6E7
:1023100012A613A614AAC5AB82E286AB86E987ABE8
:1023200011AE10AE88EB9BE0A0E0B0E082AF93AFBF
:10233000A4AFB5AF1092C8021092CF02CF911F91F7
:102340000F91FF90EF90DF90CF90BF90AF909F9054
:102350008F907F906F905F904F903F902F90089557
:102360000E94F21108F481E00895E89409C097FBF7
:102370003EF490958095709561957F4F8F4F9F4F5C
:102380009923A9F0F92F96E9BB279395F6958795A0
:1023900077956795B795F111F8CFFAF4BB0F11F463
:1023A00060FF1BC06F5F7F4F8F4F9F4F16C088230A
:1023B00011F096E911C0772321F09EE8872F762F40
:1023C00005C0662371F096E8862F70E060E02AF081
:1023D0009A95660F771F881FDAF7880F969587956D
:1023E00097F90895990F0008550FAA0BE0E8FEEF42
:1023F00016161706E807F907C0F012161306E407C9
:10240000F50798F0621B730B840B950B39F40A26C1
:1024100061F0232B242B252B21F408950A2609F49F
:10242000A140A6958FEF811D811D08950E9429125C
:102430000C949A120E948C1238F00E94931220F091
:10244000952311F00C9483120C94891211240C948E
:10245000CE120E94AB1270F3959FC1F3950F50E01E
:10246000551F629FF001729FBB27F00DB11D639F46
:10247000AA27F00DB11DAA1F649F6627B00DA11DEC
:10248000661F829F2227B00DA11D621F739FB00D92
:10249000A11D621F839FA00D611D221F749F332702
:1024A000A00D611D231F849F600D211D822F762F9B
:1024B0006A2F11249F5750409AF0F1F088234AF078
:1024C000EE0FFF1FBB1F661F771F881F91505040E4
:1024D000A9F79E3F510580F00C9483120C94CE1204
:1024E0005F3FE4F3983ED4F3869577956795B7956B
:1024F000F795E7959F5FC1F7FE2B880F911D969585
:10250000879597F9089597F99F6780E870E060E0F4
:1025100008959FEF80EC089500240A94161617067C
:1025200018060906089500240A94121613061406C4
:1025300005060895092E0394000C11F4882352F027
:10254000BB0F40F4BF2B11F460FF04C06F5F7F4FDF
:102550008F4F9F4F089557FD9058440F551F59F0C6
:102560005F3F71F04795880F97FB991F61F09F3F80
:1025700079F087950895121613061406551FF2CFA9
:102580004695F1DF08C0161617061806991FF1CFF9
:1025900086957105610508940895E894BB27662720
:1025A0007727CB0197F908950E94DF12A59F900D20
:1025B000B49F900DA49F800D911D11240895A29F9A
:1025C000B001B39FC001A39F700D811D1124911D07
:1025D000B29F700D811D1124911D08955058BB2785
:1025E000AA270E9406130C949A120E948C1238F0AB
:1025F0000E94931220F039F49F3F19F426F40C94B2
:1026000089120EF4E095E7FB0C948312E92F0E94E7
:10261000AB1258F3BA17620773078407950720F0C7
:1026200079F4A6F50C94CD120EF4E0950B2EBA2F8A
:10263000A02D0B01B90190010C01CA01A0011124C8
:10264000FF27591B99F0593F50F4503E68F11A1674
:10265000F040A22F232F342F4427585FF3CF469505
:1026600037952795A795F0405395C9F77EF41F1627
:10267000BA0B620B730B840BBAF09150A1F0FF0FF1
:10268000BB1F661F771F881FC2F70EC0BA0F621FDD
:10269000731F841F48F4879577956795B795F795CD
:1026A0009E3F08F0B0CF9395880F08F09927EE0F62
:1026B0009795879508950E940A14E3950C94331416
:1026C0000E9474130C949A120E94931258F00E9464
:1026D0008C1240F029F45F3F29F00C9483125111C1
:1026E0000C94CE120C9489120E94AB1268F39923B9
:1026F000B1F3552391F3951B550BBB27AA276217FE
:102700007307840738F09F5F5F4F220F331F441F0A
:10271000AA1FA9F335D00E2E3AF0E0E832D091503E
:102720005040E695001CCAF72BD0FE2F29D0660F2B
:10273000771F881FBB1F261737074807AB07B0E86E
:1027400009F0BB0B802DBF01FF2793585F4F3AF074
:102750009E3F510578F00C9483120C94CE125F3F8B
:10276000E4F3983ED4F3869577956795B795F795FA
:102770009F5FC9F7880F911D9695879597F90895E2
:10278000E1E0660F771F881FBB1F6217730784077E
:10279000BA0720F0621B730B840BBA0BEE1F88F78D
:1027A000E09508950E94D9136894B1110C94CE124B
:1027B00008950E94B31288F09F5798F0B92F992777
:1027C000B751B0F0E1F0660F771F881F991F1AF01C
:1027D000BA95C9F714C0B13091F00E94CD12B1E0A2
:1027E00008950C94CD12672F782F8827B85F39F0A1
:1027F000B93FCCF3869577956795B395D9F73EF4B5
:1028000090958095709561957F4F8F4F9F4F08955C
:102810000C9489120E94B312D8F3E894E0E0BB272D
:102820009F57F0F02AED3FE049EC06C0EE0FBB0FDA
:10283000661F771F881F28F0B23A62077307840764
:1028400028F0B25A620B730B840BE3959A9572F7DA
:10285000803830F49A95BB0F661F771F881FD2F718
:1028600090480C949C14EF93E0FF07C0A2EA2AED75
:102870003FE049EC5FEB0E9406130E949A120F9012
:10288000039401FC9058E8E6F0E00C94AF140E9429
:10289000F21108F48FEF08959F930E940A140F908D
:1028A00007FCEE5F0C94331419F416F40C9489129F
:1028B0000C949A140E94B312B8F39923C9F3B6F397
:1028C0009F57550B87FF0E94A8140024A0E640EAFA
:1028D000900180585695979528F4805C660F771F75
:1028E000881F20F026173707480730F4621B730B48
:1028F000840B202931294A2BA6951794079420256B
:1029000031254A2758F7660F771F881F20F02617B2
:102910003707480730F4620B730B840B200D311D11
:10292000411DA09581F7B901842F9158880F969584
:10293000879508959F3F31F0915020F487957795C2
:102940006795B795880F911D9695879597F9089586
:1029500091505040660F771F881FD2F708959F93BC
:102960008F937F936F93FF93EF939B01AC010E9432
:102970001612EF91FF910E94C3142F913F914F9136
:102980005F910C941612DF93CF931F930F93FF92D6
:10299000EF92DF927B018C01689406C0DA2EEF0182
:1029A0000E942912FE01E894A59125913591459147
:1029B0005591A6F3EF010E940613FE019701A801AD
:1029C000DA9469F7DF90EF90FF900F911F91CF910C
:1029D000DF91089597FB072E16F4009407D077FD3A
:1029E00009D00E94471507FC05D03EF490958195CB
:1029F0009F4F0895709561957F4F0895A1E21A2E1B
:102A0000AA1BBB1BFD010DC0AA1FBB1FEE1FFF1F92
:102A1000A217B307E407F50720F0A21BB30BE40BE2
:102A2000F50B661F771F881F991F1A9469F7609529
:102A30007095809590959B01AC01BD01CF010895E3
:102A4000052E97FB1EF400940E94371557FD07D002
:102A50000E94FE1407FC03D04EF40C9437155095D9
:102A60004095309521953F4F4F4F5F4F089590957A
:102A70008095709561957F4F8F4F9F4F0895B7FF59
:102A80000C94D4120E94D412821B930B0895AA1B9B
:102A9000BB1B51E107C0AA1FBB1FA617B70710F049
:102AA000A61BB70B881F991F5A95A9F7809590957B
:102AB000BC01CD010895EE0FFF1F0590F491E02DAC
:102AC000099481E090E0F8940C946615F894FFCF97
:102AD00002000000003F05000000000000000000B0
:102AE000F400B404BD009B00AF003B01556C747250
:102AF00061736F6E69635461736B2074696D656493
:0A2B0000206F75742E000D0A00000E
:00000001FF
