:100000000C9499000C94C1000C94C1000C94C10094
:100010000C94C1000C94C1000C94C1000C94060611
:100020000C94C1000C94C1000C94C1000C94C1004C
:100030000C94C1000C94C1000C94C1000C94C1003C
:100040000C94BC050C94C1000C9465040C943F0402
:100050000C94C1000C94C1000C94C1000C94C1001C
:100060000C94C1000C94C100084AD73B3BCE016EF2
:1000700084BCBFFDC12F3D6C74319ABD56833DDAFF
:100080003D00C77F11BED9E4BB4C3E916BAAAABE0E
:10009000000000803F05A84CCDB2D44EB93836A937
:1000A000020C50B9918688083CA6AAAA2ABE000074
:1000B00000803F0664EC1B3C04BC163E3BE5B93CAB
:1000C000C93C37C29E5A3D660498083EEA69AAAA0E
:1000D0003E000000803F00000000240027002A00AE
:1000E0000000000023002600290000000000250079
:1000F00028002B0004040404040404040202020285
:1001000002020303030303030102040810204080DA
:100110000102040810200102040810200000000859
:1001200000020100000304070000000000000000BE
:10013000C91911241FBECFEFD8E0DEBFCDBF11E03B
:10014000A0E0B1E0E6EFF5E402C005900D92A43323
:10015000B107D9F727E0A4E3B1E001C01D92A839A7
:10016000B207E1F710E0C9E9D0E004C02197FE0131
:100170000E94D422C839D107C9F70E9491070C9474
:10018000F9220C940000CF92DF92EF92FF920F932E
:100190001F93CF93DF936C017A018B01C0E0D0E015
:1001A000CE15DF0589F0D8016D918D01D601ED9155
:1001B000FC910190F081E02DC6010995892B11F485
:1001C0007E0102C02196ECCFC701DF91CF911F9134
:1001D0000F91FF90EF90DF90CF9008950E94F4224E
:1001E000E8E3F1E0A089B18982E08C93A485B5852C
:1001F0001C92A685B7858FEC8C93108EA489B58947
:1002000086E08C93A289B3898C9180618C93A289BA
:10021000B3898C9188608C93A289B3898C91806812
:100220008C930288F389E02D80818F7D80830895EF
:10023000CF92DF92EF92FF920F931F93CF93DF93B2
:100240008B010358184FF801C081D1E0CD2701F18F
:100250009B01FC0189E0829FB001839F700D1124F6
:10026000DB01A75DB84FC080D180E280F3809A9611
:10027000CD92DD92ED92FC929D9784819E968C9317
:10028000685A784FCF0105960E94AB06F801D083DB
:100290008C2FDF91CF911F910F91FF90EF90DF9006
:1002A000CF900895FC0121816281862F90E0A0E02B
:1002B000B0E0DC0199278827922B2081822B2381B3
:1002C000BC01CD01922B0895CF92DF92EF92FF9265
:1002D00021EE3EE245E652E40E94562120E030E065
:1002E00040EC5FEB0E94562120E030E040EA52E40F
:1002F0000E94E41E0E94FB1F6C3871058105910568
:1003000064F4DC01CB0184319105A105B1054CF405
:1003100084E190E0A0E0B0E004C08CE890E0A0E0D0
:10032000B0E080936702C09068022091690230E0DB
:100330002C193109D12CE12CF12CFE2CED2CDC2CCC
:10034000CC24A901330F660B770B2227342F452FBE
:10035000562FDC010E94B82224EB30E040E050E050
:100360000E949922C701B601620F731F841F951F57
:1003700028E030E040E050E00E949922809166023F
:10038000893029F4309389002093880004C0309389
:100390008B0020938A00FF90EF90DF90CF9008951C
:1003A0004F925F926F927F928F929F92AF92BF9285
:1003B000CF92DF92EF92FF92CF93DF93CDB7DEB76C
:1003C0002C970FB6F894DEBF0FBECDBF3C012B01BA
:1003D0004F3F8FEF580781F14130510509F00AC1B5
:1003E000DB01CD90DD90ED90FC90F3018080918059
:1003F000A280B3802CEA35EC47E257E3C701B6018F
:100400000E94E31E9B01AC01C501B4010E94492179
:1004100087FD62C02CEA35EC47E257E3C701B6011D
:100420000E94E41E9B01AC01C501B4010E947F1F24
:1004300018160CF451C02EC0DB011496CD90DD903F
:10044000ED90FC901797F301608171818281938117
:100450009B01AC010E94E41ED2012D913D914D9172
:100460005C910E94E31E69837A838B839C83CD8297
:10047000DE82EF82F88641E050E0BE016F5F7F4F81
:10048000C3010E94D0016B017C01F7FAF094F7F8E8
:10049000F094B0C0F3012481358146815781D201A7
:1004A00014966D917D918D919C9117970E94492191
:1004B00018164CF49BEDC92E9FE0D92E99ECE92E2D
:1004C0009FE3F92E97C084EEC82E8BECD82E86E9D8
:1004D000E82E80E4F82E8EC0A5019401C701B60174
:1004E0000E94492118160CF05FC0D20114968D911C
:1004F0009D910D90BC91A02D89879A87AB87BC8771
:10050000F3014480558066807780A3019201BC018D
:10051000CD010E944921A301920187FD2AC069856E
:100520007A858B859C850E94E31E2B013C01A501E9
:100530009401C701B6010E94E31E9B01AC01C301F7
:10054000B2010E94891F2C960FB6F894DEBF0FBE31
:10055000CDBFDF91CF91FF90EF90DF90CF90BF9014
:10056000AF909F908F907F906F905F904F900C9482
:10057000501F69857A858B859C850E94E31E2B011F
:100580003C01A5019401C701B6010E94E31E9B0135
:10059000AC01C301B2010E94891F0E94501F2BEDC4
:1005A0003FE049EC50E422C0D30114962D913D91D7
:1005B0004D915C911797F2016481758186819781D5
:1005C0000E94E31E2B013C01A5019401C701B60165
:1005D0000E94E31E9B01AC01C301B2010E94891F6E
:1005E0000E94501F2BED3FE049E450E40E94E41EBE
:1005F0006B017C01C701B6012C960FB6F894DEBFE3
:100600000FBECDBFDF91CF91FF90EF90DF90CF90E5
:10061000BF90AF909F908F907F906F905F904F9022
:1006200008951F93CF93DF934FEF50E061E07FEF8A
:100630000E943306EC011D2F1095111F1127111F69
:1006400011F0BC0102C060E070E085E00E942C0562
:10065000111105C0662777276C1B7D0B02C060E077
:1006600070E086E0DF91CF911F910C942C050895E6
:1006700080E090E00895FC01538D448D252F30E0FB
:10068000842F90E0821B930B541710F0CF9608959F
:1006900001970895FC01918D828D981761F0828DEC
:1006A000DF01A80FB11D5D968C91928D9F5F9F73A6
:1006B000928F90E008958FEF9FEF0895FC01918D48
:1006C000828D981731F0828DE80FF11D858D90E0B5
:1006D00008958FEF9FEF0895FC01918D228D892F52
:1006E00090E0805C9F4F821B91098F73992708953A
:1006F00088E391E00E946C0321E0892B09F420E05B
:10070000822F0895FC01848DDF01A80FB11DA35A2B
:10071000BF4F2C91848D90E001968F739927848F21
:10072000A689B7892C93A089B1898C9180648C9318
:10073000938D848D981306C00288F389E02D808103
:100740008F7D80830895EF92FF920F931F93CF9335
:10075000DF93EC0181E0888F9B8D8C8D981305C011
:10076000E889F989808185FD24C0F62E0B8D10E083
:100770000F5F1F4F0F731127E02E8C8DE8120CC0F6
:100780000FB607FCFACFE889F989808185FFF5CF9C
:10079000CE010E948203F1CF8B8DFE01E80FF11D87
:1007A000E35AFF4FF0820B8FEA89FB8980818062D8
:1007B00007C0EE89FF896083E889F98980818064B8
:1007C000808381E090E0DF91CF911F910F91FF90A6
:1007D000EF900895CF93DF93EC01888D8823C9F0C3
:1007E000EA89FB89808185FD05C0A889B9898C913A
:1007F00086FD0FC00FB607FCF5CF808185FFF2CFD5
:10080000A889B9898C9185FFEDCFCE010E94820322
:10081000E7CFDF91CF91089580E090E0892B29F018
:100820000E94780381110C9400000895833081F0B8
:1008300028F4813099F08230A1F008958730A9F032
:100840008830B9F08430D1F4809180008F7D03C06E
:10085000809180008F7780938000089584B58F7792
:1008600002C084B58F7D84BD08958091B0008F77DC
:1008700003C08091B0008F7D8093B00008951F92D7
:100880000F920FB60F9211242F933F934F935F93C4
:100890006F937F938F939F93AF93BF93EF93FF9348
:1008A00088E391E00E948203FF91EF91BF91AF91A5
:1008B0009F918F917F916F915F914F913F912F9178
:1008C0000F900FBE0F901F9018951F920F920FB6AA
:1008D0000F9211242F938F939F93EF93FF93E091A7
:1008E0004801F09149018081E0914E01F0914F0162
:1008F00082FD12C09081809151018F5F8F73209192
:100900005201821751F0E0915101F0E0E85CFE4F96
:10091000958F8093510101C08081FF91EF919F914C
:100920008F912F910F900FBE0F901F901895CF931E
:10093000DF93282F30E0F901E45EFE4F8491F90146
:10094000E85FFE4FD491F901EC50FF4FC491CC23E6
:1009500091F081110E941604EC2FF0E0EE0FFF1FC2
:10096000E052FF4FA591B491EC91ED2381E090E02E
:1009700021F480E002C080E090E0DF91CF91089503
:100980001F93CF93DF93282F30E0F901E45EFE4FF1
:100990008491F901E85FFE4FD491F901EC50FF4FCB
:1009A000C491CC23C9F0162F81110E941604EC2F9C
:1009B000F0E0EE0FFF1FE651FF4FA591B4918FB706
:1009C000F894111105C09C91ED2FE095E92302C028
:1009D000EC91ED2BEC938FBFDF91CF911F91089598
:1009E000CF93DF9390E0FC01E85FFE4F2491FC0180
:1009F000EC50FF4F8491882361F190E0880F991F9C
:100A0000FC01EA52FF4FC591D491FC01E651FF4F22
:100A1000A591B491611109C09FB7F8948881209580
:100A200082238883EC912E230BC0623061F49FB740
:100A3000F8943881822F809583238883EC912E2B24
:100A40002C939FBF06C08FB7F894E8812E2B288384
:100A50008FBFDF91CF9108951F93CF93DF93182F0E
:100A6000EB0161E00E94F004209711F460E004C003
:100A7000CF3FD10539F461E0812FDF91CF911F91F4
:100A80000C94C004E12FF0E0E45EFE4FE491E3300B
:100A9000F9F048F4E130B9F0E230A1F584B58062B4
:100AA00084BDC8BD34C0E730E9F0E83019F1E43066
:100AB00049F580918000806280938000D0938B0004
:100AC000C0938A0024C084B5806884BDC7BD1FC0A0
:100AD00080918000806880938000D0938900C093CB
:100AE000880015C08091B00080688093B000C093EA
:100AF000B3000DC08091B00080628093B000C093BD
:100B0000B40005C0C038D1050CF0B5CFAFCFDF9130
:100B1000CF911F9108953FB7F894809194079091D9
:100B20009507A0919607B091970726B5A89B05C099
:100B30002F3F19F00196A11DB11D3FBFBA2FA92F5C
:100B4000982F8827820F911DA11DB11DBC01CD01D9
:100B500042E0660F771F881F991F4A95D1F70895C5
:100B60002FB7F89460919007709191078091920748
:100B7000909193072FBF08951F920F920FB60F9277
:100B800011242F933F938F939F93AF93BF938091A3
:100B9000900790919107A0919207B091930730919F
:100BA0008F0723E0230F2D3720F40196A11DB11DDF
:100BB00005C026E8230F0296A11DB11D20938F07C3
:100BC0008093900790939107A0939207B093930717
:100BD0008091940790919507A0919607B0919707FF
:100BE0000196A11DB11D8093940790939507A09342
:100BF0009607B0939707BF91AF919F918F913F91C7
:100C00002F910F900FBE0F901F9018951F920F926B
:100C10000FB60F9211242F933F934F935F936F93CF
:100C20007F938F939F93AF93BF93EF93FF93E09145
:100C30003401F09135010995FF91EF91BF91AF918A
:100C40009F918F917F916F915F914F913F912F91E4
:100C50000F900FBE0F901F901895E0E7F0E0808195
:100C60008D7F808308956417750764F4681779078A
:100C70001CF48417950774F4AB016817790754F4D2
:100C8000AC0108C0481759070CF4AC01641775078C
:100C90000CF4AB01CA010895FF920F931F93CF93F9
:100CA000DF938C01EB0120E030E040E053E4FC01F5
:100CB00060817181828193810E94562120E030E021
:100CC00048E453E40E94891F0E94FB1FDC01CB0112
:100CD0004FE750E060E87FEF0E943306F82E20E0F7
:100CE00030E040E053E4F8016481758186819781AA
:100CF0000E94562120E030E048E453E40E94891F1E
:100D00000E94FB1FDC01CB014FE750E060E87FEF62
:100D10000E943306F8828983DF91CF911F910F9152
:100D2000FF90089520E030E0F901EE51FE4F408140
:100D30005181938198236281691303C04930510521
:100D400041F42C5F3F4F2432310571F789E090E088
:100D50000895CA010895FB019C012C5F3F4FDC01FF
:100D60004D91CD014193A217B307C9F70895CF92D2
:100D7000DF92EF92FF920F931F93CF93DF93FC01CB
:100D800020853185232BA9F0EC010E94B005C88095
:100D9000D980EA80FB800C811D812E813F81C00EAD
:100DA000D11EE21EF31E21E06C157D058E059F0508
:100DB00008F420E0822FDF91CF911F910F91FF90D7
:100DC000EF90DF90CF9008958F929F92AF92BF9255
:100DD000CF92DF92EF92FF920F931F93CF93DF9307
:100DE0000E948B050091AA061091AB062091AC06DB
:100DF0003091AD06061717072807390718F40E9427
:100E00002D064CC0E091A406F091A506908180913A
:100E1000A106892309F042C00E942D060E948B057D
:100E20002091A8063091A9066901E12CF12C0091CE
:100E3000AA061091AB062091AC063091AD06460192
:100E40005701801A910AA20AB30A950184010D5034
:100E5000110921093109600F711F821F931F6093CF
:100E60009C0670939D0680939E0690939F0620910A
:100E7000AE063091AF064CE1429FE001439FD00D9A
:100E80001124CA5CDA4F29E330E040E050E00E94D0
:100E90007722398F288F1092B00626C08FEB96E00C
:100EA0000E94B706882301F18091AE069091AF06AB
:100EB0002CE1289FF001299FF00D1124EA5CFA4FE4
:100EC00088EC90E0918F808F1092B006DF91CF91E7
:100ED0001F910F91FF90EF90DF90CF90BF90AF9058
:100EE0009F908F900C942D06DF91CF911F910F91C1
:100EF000FF90EF90DF90CF90BF90AF909F908F903A
:100F00000895CF93DF93EC010E94B0056C837D833D
:100F10008E839F8381E090E099878887DF91CF91CE
:100F20000895CF93DF93CDB7DEB7CD56D1090FB675
:100F3000F894DEBF0FBECDBF789484B5826084BDC7
:100F400084B5816084BD85B5826085BD85B58160CD
:100F500085BD80916E00816080936E00109281004B
:100F60008091810082608093810080918100816006
:100F700080938100809180008160809380008091C7
:100F8000B10084608093B1008091B0008160809353
:100F9000B00080917A00846080937A0080917A001A
:100FA000826080937A0080917A00816080937A00D9
:100FB00080917A00806880937A001092C1000E942C
:100FC000F00048E050E068E271E088E391E00E94C0
:100FD000C30042E050E061E371E088E391E00E94E9
:100FE000C30088E391E00E94EA031092790710920F
:100FF0007D0710927A0710927E0710927B0710925D
:101000007F0710927C07109280070E94F0001092D8
:1010100049071092480761E088E00E94F00461E00F
:1010200087E00E94F00461E08BE00E94F00461E040
:101030008AE00E94F004EEE4F5E088EC90E0958709
:10104000848791838083938382839583848397832A
:10105000868391878087938782877C9626E0EE3906
:10106000F20769F781E08093B1061092B0068BE039
:1010700090E09093AF068093AE0684E090E090936A
:10108000B3068093B2061092BD0660E082E00E9433
:10109000F00460E084E00E94F00460E083E00E94DD
:1010A000F00460E08EE00E94F00460E08FE00E94B7
:1010B000F00460E080E10E94F00460E081E10E94C1
:1010C000F00460E082E10E94F00461E083E10E94AC
:1010D000F0040E94B00560932C0570932D05809359
:1010E0002E0590932F051092310510923005109225
:1010F000320510923305109234051092350561E0E7
:1011000085E00E94F00461E086E00E94F00489E03E
:10111000809366028FEF8093670260E089E00E940F
:10112000C00461E0809166020E94F0048091370162
:10113000811122C08091360181111EC02FB7F89411
:1011400082E0809380008AE18093810088EB9BE0BD
:10115000909389008093880090938B0080938A00FD
:1011600080E49CE9909387008093860080916F00D3
:10117000887F80936F002FBF80916602893041F491
:1011800081E080933701809180008F73806807C071
:1011900081E080933601809180008F7C8062809313
:1011A0008000109262021092630210926402109208
:1011B000650260E070E0CB010E94640110925E0263
:1011C00010925F02109260021092610210928902E6
:1011D000109295021092940289E297E00E94B7065D
:1011E000882309F42AC185E397E00E94B70681119C
:1011F00020C188E391E00E946C03009709F4B5C018
:10120000409148075091490729E030E0241B350BF5
:101210008C01281739070CF48901A12CB12C912CD1
:10122000F2E0EF2EF12CCC24C394D12CA016B10601
:101230000CF06AC088E391E00E944A03209177078E
:10124000309178072130310541F122303105E1F14B
:10125000232B09F055C02091480730914907F90127
:10126000E252FE4F9081891313C0A9014F5F5F4F77
:101270005093490740934807F901E75DF84F868B83
:1012800044305105E9F5D0927807C092770738C00D
:10129000109249071092480733C0209148073091B7
:1012A0004907A9014F5F5F4F509349074093480793
:1012B000F901E75DF84F868B4530510509F5F0924D
:1012C0007807E09277071CC02091480730914907C2
:1012D000A9014F5F5F4F5093490740934807F901B9
:1012E000E75DF84F868B4930510551F4109249075C
:1012F00010924807109278071092770799249394D8
:101300003FEFA31AB30A92CF992079F18091430756
:1013100080934E070E949206880F991F880F991F8D
:10132000FC01EE51FE4F80819181A281B3818093B7
:101330004A0790934B07A0934C07B0934D07BE010B
:101340006F5F7F4F84E497E00E94AB066FE477E025
:10135000CE0101960E94AB0681E0809379078093CD
:101360007A0780937B0780937C076DE7E62E67E022
:10137000F62E00E010E075E0B72E6E0146E0C40ED8
:10138000D11CD7018C91882309F446C01C92F80126
:10139000E75DF84FA6A4BE016F5F7F4F8EED91E031
:1013A0000E94AB06AD82FE013196DE015C968B2D6C
:1013B00001900D928A95E1F7FE017C96DE019196EF
:1013C0008B2D01900D928A95E1F7FE01B196DE0119
:1013D00011968B2D01900D928A95E1F7C801885ADC
:1013E000984FFE013196DE01539621912D93EC1515
:1013F000FD05D9F7BE01685E7F4F0E94AB0649E04C
:1014000050E0BE016D5E7F4F88E391E00E94C30013
:1014100088E391E00E94EA03BFEFEB1AFB0A075F43
:101420001F4F0432110509F0ACCF89E297E00E940A
:10143000810785E397E00E94810786E395E00E949B
:10144000B706882309F425C382E495E00E94B70615
:1014500081111BC38091B106882309F412C3E09166
:101460004005F0914105E758F84F80818823A9F1A4
:10147000108280914A0790914B07A0914C07B09140
:101480004D078093B4069093B506A093B606B0932B
:10149000B70680914E078093B80669EB76E08FE43B
:1014A00097E00E94AB068091B4069091B50605972F
:1014B000A1F489EB96E00E94520121E0672B682B92
:1014C000692B09F420E02093BD06609140057091DE
:1014D000410585ED91E00E9418018091B0068823B6
:1014E00039F08FEB96E00E94B70681110C944019F9
:1014F0008091B0068111C5C28091BD06882309F490
:101500005FC08091BE0681115BC00091AE06109154
:10151000AF0600FF55C0C80117FD01969595879548
:101520009091FC01890F8093B8060E949206880F63
:10153000991F880F991FFC01EE51FE4F8081918108
:10154000A281B3818093B4069093B506A093B606AA
:10155000B093B706C80143E0880F991F4A95E1F799
:10156000BE016A5D7F4F8F53994F0E944C06809158
:10157000AE069091AF0653E0880F991F5A95E1F798
:10158000BE01665F7F4F8753994F0E944C062FA183
:101590009A858B853EA139832A839B838C8369EB53
:1015A00076E0CE0101960E94AB06609140057091F5
:1015B000410584EB96E00E94180181E08093BE060D
:1015C0002090AE063090AF06EBE02E16310469F4A1
:1015D0008091B2069091B306019665E070E00E949A
:1015E00063229093B3068093B2062091B2063091A5
:1015F000B3063BA72AA78CE1829DF001839DF00DE5
:101600001124EA5CFA4FE08CF18CE114F10411F042
:10161000670103C008ECC02ED12C8EE0829DF00142
:10162000839DF00D11244AA55BA5E40FF51FEE0F75
:10163000FF1FE05BFA4FD182C08258ECE516F1043F
:1016400019F0E0E0F1E002C0E6E0F1E08081918194
:101650009DAF8CAF82809380A480B5808CE1829D09
:10166000F001839DF00D1124EA5CFA4FA4A1B5A10D
:10167000BBABAAABBD01BB0F880B990B0E943320FB
:101680002B013C0120E030E040E85FE3C501B401FC
:101690000E94E41E6EA77FA788AB99AB9B01AC01AB
:1016A000C301B2010E9456210E94FB1F8B01A501BC
:1016B000940160E070E080E89FE30E94E31E4B012C
:1016C0005C019B01AC01C301B2010E9456210E9442
:1016D000FB1F061717073CF0C616D7065CF00C1563
:1016E0001D0544F074C0C016D10624F06C157D05AC
:1016F0000CF06DC08AA59BA5049665E070E00E9481
:1017000063222C0100E010E08EE0829DD001839DD9
:10171000B00D1124BBAFAAAF9701FF0C440B550BC2
:1017200024962CAF3DAF4EAF5FAF2497EAA5FBA543
:101730004E165F0609F443C02CAD3DAD02171307EA
:10174000F4F5EAADFBADE40DF51DEE0FFF1FE05B18
:10175000FA4F6080718024966CAD7DAD8EAD9FADEB
:1017600024970E9433206EAB7FAB88AF99AF2EA534
:101770003FA548A959A90E9456210E94FB1F7B0141
:10178000A50194016EA97FA988AD99AD0E9456214B
:101790000E94FB1FE616F70614F40C945C196616FB
:1017A000770614F00C94561921E0C201049665E006
:1017B00070E00E9463222C01222309F4B7CF8CAD84
:1017C0009DAD01970817190714F4CAA8DBA88CE18E
:1017D000829DF001839DF00D1124EA5CFA4FD5A2A1
:1017E000C4A23CE1329DC001339D900D1124AC0197
:1017F0004A5C5A4F7A01DA0194966D917C919597E3
:10180000072E000C880B990B0E9433202B013C0102
:101810002BED3FE049EC5FE3F70166A577A580A9D2
:1018200091A90E94E41E4B015C010E94841F9B0150
:10183000AC01810163E0000F111F6A95E1F70A5CBA
:101840001A4F6801FDE6CF1AFEEFDF0AC301B201AD
:101850000E9456219B01AC01D70196966D917D9116
:101860008D919C9199970E94E41EF601608371838B
:1018700082839383C501B4010E94C3219B01AC0103
:1018800009561E4FC301B2010E9456219B01AC01B3
:10189000D7019A966D917D918D919C919D970E9413
:1018A000E41EF8016083718382839383C1010196F2
:1018B0006CE070E00E9463229093AF068093AE06C6
:1018C0001092BE062CE1289FF001299FF00D1124F3
:1018D000EA5CFA4F06891789602F617088E00E94E0
:1018E000C004B80176956795617087E00E94C004D6
:1018F000B801769567957695679561708BE00E9443
:10190000C004A3E016950795AA95E1F7602F6170D2
:101910008AE00E94C00481E08093B0060E942D06F8
:101920008FEB96E00E94810781EC9CE29093A906E0
:101930008093A806E091A606F091A7069081809179
:10194000A006892B8083E091A206F091A3069081E6
:101950008091A0068095892380838BE090E0019799
:10196000F1F7E091A206F091A30690818091A00684
:10197000892B808383E290E00197F1F7E091A20642
:10198000F091A30690818091A006809589238083A1
:10199000E091A606F091A70690818091A00680951F
:1019A00089238083E091A406F091A506908180911F
:1019B000A106892309F065C00E948B052091A80625
:1019C0003091A906890120E030E00855194E2F4FCB
:1019D0003F4FDC01CB01800F911FA21FB31F8093EB
:1019E000AA069093AB06A093AC06B093AD06E09127
:1019F000A406F091A50690818091A106892381F427
:101A00000E948B050091AA061091AB062091AC06AE
:101A10003091AD06061717072807390740F731C080
:101A20000E948B052091A8063091A906DC01CB010C
:101A3000820F931FA11DB11D8093AA069093AB0640
:101A4000A093AC06B093AD0684EE96E0909335017A
:101A5000809334010E942D068091B6008F7D809383
:101A6000B60082E08093B00084E08093B1001092D1
:101A7000B20085E08093B300809170008260809313
:101A8000700086E395E00E94810782E495E00E9461
:101A9000810786E195E00E94B706882309F4D3C048
:101AA00082E295E00E94B7068111C9C00E94B0058C
:101AB0006B017C0160E083E10E94C00482E10E942E
:101AC0009704082F81E10E9497048295880F880F60
:101AD000807C182F30E8039F1019112480E10E94A8
:101AE0009704882E8FE00E949704982E8EE00E9423
:101AF0009704A82E83E00E949704082F84E00E9498
:101B00009704B82E82E00E949704810F182F40E2BC
:101B1000849E100D112450E1959E100D112488E033
:101B2000A89E100D1124000F000F010FBB0C0B0D10
:101B3000002E000C110B61E083E10E94C004409173
:101B40003005509131059801241B350BC90137FF31
:101B500004C088279927821B930B81389105CCF00C
:101B6000C90193953A95DC0197FF04C0AA27BB27CA
:101B7000A81BB90BF90137FF04C0EE27FF27E21BB2
:101B8000F30BEA17FB070CF4C901BA01680F791FC0
:101B900001C0B80180912C0590912D05A0912E05D2
:101BA000B0912F0546015701881A990AAA0ABB0A63
:101BB000C0922C05D0922D05E0922E05F0922F05B3
:101BC000109331050093300581149104A104B104F0
:101BD00039F1641B750B072E000C880B990B0E94C2
:101BE000332020E030E046E155E40E94891F26E6DC
:101BF00036E642EA51E40E9456216B017C01C501A0
:101C0000B4010E9431209B01AC01C701B6010E94C2
:101C1000891F20E030E04AE754E40E94562103C0C7
:101C200060E070E0CB0160933205709333058093E0
:101C300034059093350586E195E00E94810782E2A4
:101C400095E00E94810786E092E00E94B706882313
:101C500011F40C943C1982E192E00E94B70621969F
:101C60008FAF219781110C94381920913205309152
:101C7000330540913405509135052CAF3DAF4EAF43
:101C80005FAF8091620290916302A0916402B09173
:101C900065028AA79BA7ACA7BDA78CE392E00E9430
:101CA000B706882309F429C1C0905E02D0905F0274
:101CB000E0906002F090610220E030E0A901C701ED
:101CC000B6010E947F1F81111BC020E030E040E878
:101CD0005FEB6CAD7DAD8EAD9FAD0E94492187FD60
:101CE0000FC020E030E040E85FE36CAD7DAD8EAD2D
:101CF0009FAD0E947F1F18161CF080E090E0F7C097
:101D00002CAD3DAD4EAD5FADC701B6010E94E31EE7
:101D10004B015C010E94B0056B017C0110915A02DD
:101D200000915B0230905C0220905D02909156021F
:101D30009AABA0915702AEA7B0915802BEABE0910A
:101D40005902EAAF20914602309147024091480281
:101D500050914902C501B4010E94562120915202BE
:101D60003091530240915402509155020E94E41E5A
:101D700028966CAF7DAF8EAF9FAF289720914E0213
:101D800030914F024091500250915102C501B4016F
:101D90000E94E31E2B013C01809140029091410280
:101DA000A0914202B0914302A7019601281B390B72
:101DB0004A0B5B0BCA01B9010E9431209B01AC01A7
:101DC000C301B2010E94891F20914A0230914B0247
:101DD00040914C0250914D020E9456219B01AC0152
:101DE00028966CAD7DAD8EAD9FAD28970E94E41E08
:101DF0006B017C012AA93EA54EA95AAD612F702F17
:101E0000832D922D0E944921181654F52AA93EA52A
:101E10004EA95AADB601C7010E94492118162CF0EF
:101E2000BAA9AEA5FEA9EAAD04C0BC2DAD2DFE2D0C
:101E3000EF2D212F302F432D522D6B2F7A2F8F2FE7
:101E40009E2F0E947F1F87FF32C02AA93EA54EA960
:101E50005AADB601C7010E94492118168CF12CC059
:101E6000212F302F432D522DB601C7010E94492149
:101E700018161CF0D801F10104C0BC2DAD2DFE2DAB
:101E8000EF2D2AA93EA54EA95AAD6B2F7A2F8F2F81
:101E90009E2F0E947F1F87FF0FC0212F302F432DC1
:101EA000522DB601C7010E94492118164CF0C12ECF
:101EB000D02EE32CF22C04C0CAA8DEA4EEA8FAAC03
:101EC000C601D7018093520290935302A09354020B
:101ED000B093550280924E0290924F02A09250020F
:101EE000B0925102B601C7010E94FB1FCB010E94B4
:101EF00011038CE392E00E9481078EED94E00E9432
:101F0000B706882309F4DBC10E94B0050091E20402
:101F10001091E3042091E4043091E504601B710BFF
:101F2000820B930B0E94312020E030E04AE754E41A
:101F30000E94891F2B013C012090E8043090E904A5
:101F40008CAD9DADAEADBFADF10180879187A2870D
:101F5000B3872AA53BA54CA55DA5648575858685B7
:101F600097850E947F1F882309F4F1C02AA53BA50D
:101F70004CA55DA5D1011C962D933D934D935C938B
:101F80001F9720E030E0A9016AA57BA58CA59DA53F
:101F90000E94492187FF03C00FEF1FEF02C001E03D
:101FA00010E0F101118B008B20E030E0A9016AA55F
:101FB0007BA58CA59DA50E944921FF24F3941816AA
:101FC0006CF42DEC3CEC4CE45DE36AA57BA58CA5A0
:101FD0009DA50E947F1F181664F00CC02DEC3CECF0
:101FE0004CE45DEB6AA57BA58CA59DA50E944921CB
:101FF00087FDF12CF092FE04F11081C06AA57BA54B
:102000008CA59DA50E9415229B01AC0160E070E0AB
:1020100080EA91E40E94891F4B015C016093EA040D
:102020007093EB048093EC049093ED04B801110FCE
:10203000880B990B0E9433206AAB7BAB8CAB9DABBA
:1020400020E030E040E051E40E9456216EA77FA7D7
:1020500088AB99AB9B01AC01C501B4010E94E41EA1
:102060006B017C019B01AC010E94562123EC35EFF2
:1020700048E354E40E94E41E0E94D1212AA93BA90E
:102080004CA95DA90E9456216093F2047093F30459
:102090008093F4049093F5042EA53FA548A959A96F
:1020A000C501B4010E94E31E6093EE047093EF0437
:1020B0008093F0049093F104C092FA04D092FB0450
:1020C000E092FC04F092FD049B01AC010E945621B9
:1020D00020E030E048EC53E40E94E41E0E94D1214D
:1020E0002AA93BA94CA95DA90E9456216093F60438
:1020F0007093F7048093F8049093F90428C0109229
:10210000F6041092F7041092F8041092F904109259
:10211000FA041092FB041092FC041092FD04109239
:10212000EE041092EF041092F0041092F104109259
:10213000F2041092F3041092F4041092F504109239
:10214000EA041092EB041092EC041092ED048091DA
:10215000FE04811170C02CAD3DAD4EAD5FADC3012D
:10216000B2010E9456212091FA043091FB04409163
:10217000FC045091FD040E94891FD10152962D91BB
:102180003D914D915C9155970E94E41E6B017C013D
:102190002BED3FE049E450E40E94492187FF06C04F
:1021A000F101C28AD38AE48AF58A0FC02BED3FE0A1
:1021B00049EC50E4C701B6010E94E31ED1015296DA
:1021C0006D937D938D939C935597F101C288D3882D
:1021D000E488F58820E030E0A901C701B6010E943B
:1021E0007F1F87FF0FC02BED3FE049EC50E4C70194
:1021F000B6010E94E41ED10152966D937D938D939A
:102200009C935597F101C288D388E488F588C7016B
:10221000B6010E94841FD10156966D937D938D93D4
:102220009C935997C701B6010E94C321F101628FA7
:10223000738F848F958FD10156962D913D914D913D
:102240005C9159976CAD7DAD8EAD9FAD0E945621CE
:10225000A30192010E9456219B01AC01F101608112
:102260007181828193810E94E41ED1016D937D93DF
:102270008D939C9313975A962D913D914D915C911E
:102280005D976CAD7DAD8EAD9FAD0E945621A301D3
:1022900092010E9456219B01AC01F101648175817C
:1022A000868197810E94E41ED10114966D937D93DF
:1022B0008D939C9317978EED94E00E9481078091F7
:1022C0008902882309F416C28AE892E00E94B706C0
:1022D000882309F4DFC0212C312CE091DC04F0913B
:1022E000DD04E20DF31D20813181428153812AAB4F
:1022F0003BAB4CAB5DAB0091960210919702D801BD
:1023000056968D909D90AD90BC90599724813581C3
:10231000468157812EA73FA748AB59AB5A964D909F
:102320005D906D907C905D976AA97BA98CA99DA911
:102330009058A50194010E9456216B017C01A301D4
:1023400092016EA57FA588A999A90E9456219B019B
:10235000AC01C701B6010E94E41ED80114962D916C
:102360003D914D915C9117970E94E41E20E030E072
:1023700040E05EE30E9456219B01AC0160E070E00A
:1023800080E092E40E94E31E0E94FB1F6B017C012F
:10239000613471058105910528F040E4C42ED12CEB
:1023A000E12CF12CCEAAA30192016AA97BA98CA9E8
:1023B0009DA90E9456212B013C01A50194016EA507
:1023C0007FA588A999A90E9456219B01AC01C30150
:1023D000B2010E94E41EF8012081318142815381C3
:1023E0000E94E41E20E030E040E05EE30E945621BF
:1023F00020E030E040E052E40E94E41E0E94FB1F17
:10240000613471058105910520F060E470E080E0A1
:1024100090E0F0E4CF16D104E104F10479F16034E6
:1024200071058105910551F1262F2770A22FB0E08B
:10243000A45FBE4F862F8695869586954EA938E077
:10244000439FF0011124E80FF11DE656FD4F4C911A
:102450003081842F832390E0022E02C095958795CA
:102460000A94E2F7892B51F44095342381E090E0FF
:1024700001C0880F2A95EAF7382B308358E0250EE3
:10248000311C80E62816310409F027CF8AE892E053
:102490000E948107E0911002F0911102E358F84F79
:1024A0008081811127C1809194029091950297FDBE
:1024B00019C18230910584F0029709F013C100918F
:1024C0009A04B0909D0480919E0490919F04FE0117
:1024D000B69610E07F0192C000919602109197028B
:1024E00020E030E040E05EE3D8016D917D918D9178
:1024F0009C910E94562120E030E040E052E40E948E
:10250000E41E0E94FB1F4B015C01613471058105D3
:10251000910528F030E4832E912CA12CB12C2BEDC9
:102520003FE049EC50E460913002709131028091BB
:102530003202909133020E94891F20E03FEF4FE763
:1025400057E40E9456210E94FB1F7B01DD24CC240E
:10255000C828D928EA28FB2820E030E040E05EE3E4
:10256000F80164817581868197810E9456219B01C3
:10257000AC0160E070E080E092E40E94E31E0E9403
:10258000FB1F613471058105910520F060E470E066
:1025900080E090E0B82FA72F962F8827C82AD92A45
:1025A000EA2AFB2A4091F2015091F3016091F40173
:1025B0007091F50149835A836B837C838B818D8372
:1025C000CE82DF82E886F9864A875B876C877D87C3
:1025D0008E87BE01615F7F4FCE0106960E94AB06DB
:1025E00082E090E07BC0DC01A20FB11D3C913193F1
:1025F0001F5F2F5F20939D04143021F020919D04D4
:10260000283088F380919D048830C1F510929D0494
:102610001123A1F181E0800F21E0803421F020E03E
:1026200080939A0402C010929A0430919A04809187
:102630009B0490919C04F8E03F9F800D911D112414
:1026400090939F0480939E04211118C0143009F0C8
:1026500042C614C0283070F4DC01A20FB11D4C91A9
:1026600041932F5F20939D0420919D044E2F4C1980
:10267000431784F3283011F410929D0480910402D2
:10268000800F8D830E949206880F991F880F991FD3
:10269000FC01EE51FE4F80819181A281B38189833B
:1026A0009A83AB83BC83BE016A5F7F4FC7010E94E0
:1026B000AB0689819A81AB81BC818A879B87AC8775
:1026C000BD878D818E87BE01615F7F4FCE010696EB
:1026D0000E94AB06B11006C081E090E09093950295
:1026E000809394026091100270911102CE010A96BB
:1026F0000E941801E0911002F0911102E758F84F82
:1027000020816C962FAF6C972223D9F01082809194
:102710004A0790914B07A0914C07B0914D078093C9
:10272000FF0490930005A0930105B09302058091EA
:102730004E078093030564E075E08FE497E00E9404
:10274000AB0680911C0290911D028130910509F425
:10275000F2C4029709F088C521EE3EE245E652E454
:10276000609164057091650580916605909167059B
:102770000E9456219B01AC016AA57BA58CA59DA555
:102780000E94E31E6B017C0120E030E0A9010E9461
:102790004921181624F0F7FAF094F7F8F094B0E80D
:1027A000AB2EB5E0BB2E1FAA1EAA01E010E021EE61
:1027B0003EE245E652E4D5016D917D918D919C916B
:1027C0000E9456219B01AC016AA57BA58CA59DA505
:1027D0000E94E31E2B013C0120E030E0A9010E9491
:1027E0004921181624F077FA709477F87094A701AD
:1027F0009601C301B2010E947F1F87FF04C01FAB77
:102800000EAB730162010F5F1F4FBCE1AB0EB11C39
:102810000C30110561F68EA99FA995958795EEA9B3
:10282000FFA91C0136971CF0F3E02F0E311C6096B7
:102830003FAE2EAE609728E035E06B963FAF2EAFEF
:102840006B971AAE25961FAE259729961FAE29972E
:102850002A961FAE2A9760962EAD3FAD6097C901AC
:1028600001966CE070E00E94632260969FAF8EAF8D
:102870006097E3E0220F331FEA95E1F72A5C3A4FB5
:10288000F901ED56FE4F80819181A281B381659659
:102890008CAF9DAFAEAFBFAF65978093C8049093E8
:1028A000C904A093CA04B093CB043496208131812B
:1028B0004281538169962CAF3DAF4EAF5FAF6997B0
:1028C0002093CC043093CD044093CE045093CF0496
:1028D00060960EAD1FAD6097F3E0000F111FFA95E3
:1028E000E1F70A5C1A4FF801E956FE4F60817181E9
:1028F000828193810E94E31E4B015C01F801ED5639
:10290000FE4F65962CAD3DAD4EAD5FAD65976081D8
:102910007181828193810E94E31E6B017C019B0186
:10292000AC010E9456212B013C01A5019401C50177
:10293000B4010E9456219B01AC01C301B2010E9467
:10294000E41E0E94D12120E030E040E251E40E94E8
:10295000891F20E030E040E85FE30E94E41E2B0185
:102960003C0120E030E040EA50E40E947F1F87FFF6
:1029700006C0C301B2010E94FB1F8B0102C005E02B
:1029800010E01093D9040093D804B801012E000C74
:10299000880B990B0E9433202B013C019B01AC0159
:1029A000C501B4010E94891FA0966CAF7DAF8EAFA8
:1029B0009FAFA097A3019201C701B6010E94891F92
:1029C000A4966CAF7DAF8EAF9FAFA4976093D004F9
:1029D0007093D1048093D2049093D304A0968CADCD
:1029E0009DADAEADBFADA0978093D4049093D504B8
:1029F000A093D604B093D7041092DB041092DA04AB
:102A000061961FAE61976091DA047091DB046017E4
:102A100071070CF0E1C2CB0101969093DB04809327
:102A2000DA04072E000C880B990B0E9433206B01EF
:102A30007C019B01AC01A0966CAD7DAD8EAD9FADD0
:102A4000A0970E9456219B01AC0169966CAD7DADAB
:102A50008EAD9FAD69970E94E41E6AA77BA78CA7E5
:102A60009DA7A7019601A4966CAD7DAD8EAD9FADDF
:102A7000A4970E9456219B01AC0165966CAD7DAD7B
:102A80008EAD9FAD65970E94E41E4B015C01809165
:102A9000FE04882309F470C0A501940160E070E091
:102AA00080E091EC0E94E31E6B017C0120E030E0AD
:102AB000A9010E944921181624F0F7FAF094F7F8BA
:102AC000F094A501940160E070E080E091E40E9440
:102AD000E31E2B013C0120E030E0A9010E944921C6
:102AE000181624F077FA709477F8709420E030E0AC
:102AF00040E051ECC501B4010E94492187FD11C09D
:102B000020E030E040E051E4C501B4010E947F1FA5
:102B100018163CF0812C912C70E8A72E7FEBB72E75
:102B200006C0812C912C60E8A62E6FE3B62EA3017F
:102B30009201C701B6010E947F1F87FD05C0742D59
:102B4000652D962D872D04C07C2D6D2D9E2D8F2DEE
:102B5000272F362F492F582FC501B4010E94562127
:102B60004B015C0120E030E040E050E40E947F1F18
:102B700018160CF0C4C3D4C14090EA045090EB0482
:102B80006090EC047090ED04D301C201B0588A87C4
:102B90009B87AC87BD871E861F86188A198AA3016A
:102BA0009201C501B4010E94E41EA8966CAF7DAFEE
:102BB0008EAF9FAFA89769837A838B839C8320E035
:102BC00030E040E251E46AA57BA58CA59DA50E945A
:102BD000E41E4B015C016D837E838F839887A091F7
:102BE000E804B091E904AA96BFAFAEAFAA97509699
:102BF0004D915C915197BE016F5F7F4FCE010A9658
:102C00000E94D001AE966CAF7DAF8EAF9FAFAE97F6
:102C10002091EE043091EF044091F0045091F104C2
:102C20002AAB3BAB4CAB5DAB20E030E0A9016AA91D
:102C30007BA98CA99DA90E944921181654F08AA944
:102C40009BA9ACA9BDA9B0588EA79FA7A8ABB9AB4B
:102C500008C02AA93BA94CA95DA92EA73FA748AB4C
:102C600059ABC090F204D090F304E090F404F090DB
:102C7000F50420E030E0A901C701B6010E94492116
:102C8000181624F0F7FAF094F7F8F094A3019201E3
:102C9000A8966CAD7DAD8EAD9FADA8970E94E41E49
:102CA0009B01AC010E9456212B013C01A50194011E
:102CB000C501B4010E9456219B01AC01C301B201C0
:102CC0000E94E41E0E94D1214B015C012EA53FA56C
:102CD00048A959A90E94E31E6AA77BA78CA79DA7B4
:102CE00020E030E0A9010E94492118164CF08AA585
:102CF0009BA5ACA5BDA5B0588AA79BA7ACA7BDA7AF
:102D0000A7019601C501B4010E94E31E2B013C01FD
:102D100020E030E0A9010E944921181624F077FA3A
:102D2000709477F870942EA53FA548A959A9C701BA
:102D3000B6010E94492187FD0DC02EA53FA548A9D7
:102D400059A9C501B4010E94492187FD1CC0A701F2
:102D500096010CC0A7019601C501B4010E9449214A
:102D600087FD11C02EA53FA548A959A9C501B401E9
:102D70000E947F1F18163CF0C12CD12C50E8E52E84
:102D80005FEBF52E06C0C12CD12C40E8E42E4FE3BA
:102D9000F42EA30192016AA57BA58CA59DA50E9496
:102DA0007F1F87FD05C0742D652D962D872D04C0CE
:102DB0007AA56BA59CA58DA5272F362F492F582FB7
:102DC000C701B6010E9456214B015C0120E030E0B2
:102DD00040E050E40E947F1F18160CF4A1C02AA9FD
:102DE0003BA94CA95DA96091F6047091F70480910C
:102DF000F8049091F9040E94E31E6B017C0120E02D
:102E000030E0A9010E944921A7019601181684F01B
:102E100050582EA73FA748AB59ABC301B2010E943F
:102E20007F1F87FD0BC07EA56FA598A989A90AC041
:102E3000C301B2010E947F1F87FF92C2742D652DCE
:102E4000962D872D272F362F492F582F6AA57BA522
:102E50008CA59DA50E947F1F87FF2AC02AA93BA998
:102E60004CA95DA960E070E080EA91E40E94891FAE
:102E70000E94501F2B013C0120E030E0A901C70156
:102E8000B6010E944921181624F0F7FAF094F7F8D9
:102E9000F094A70196016AA57BA58CA59DA50E942B
:102EA000891F9B01AC01C301B2010E9456210CC0D5
:102EB0002AA93BA94CA95DA960E070E080EA91E4F1
:102EC0000E94891F0E94501F9B01AC01AE966CAD01
:102ED0007DAD8EAD9FADAE970E94E31E2091FA04AA
:102EE0003091FB044091FC045091FD040E94562156
:102EF000AA96AEADBFADAA9718962D913D914D9172
:102F00005C911B970E94891F2B966FAF2B972C9675
:102F10007FAF2C972D968FAF2D972E969FAF2E9724
:102F200020E030E040E050E4C501B4010E947F1F82
:102F300018160CF468CD6196BFAD6197BB2389F17B
:102F40002AAD25963FAD259729964FAD29972A960C
:102F50005FAD2A972B966FAD2B972C967FAD2C9754
:102F60002D968FAD2D972E969FAD2E970E947F1F89
:102F700087FF49CD2B96EFAD2B97EAAF2C96FFAD8F
:102F80002C972596FFAF25972D962FAD2D97299637
:102F90002FAF29972E963FAD2E972A963FAF2A97AF
:102FA00032CD2B964FAD2B974AAF2C965FAD2C9719
:102FB00025965FAF25972D968FAD2D9729968FAFCC
:102FC00029972E969FAD2E972A969FAF2A97A1E01C
:102FD0006196AFAF619717CD6196BFAD6197BB2387
:102FE00059F08AAD25969FAD25972996AFAD2997C3
:102FF0002A96BFAD2A9703C080E090E0DC016B9673
:10300000EEADFFAD6B9781939193A193B1936B96C6
:10301000FFAFEEAF6B97E451F54009F01CCC109177
:103020001405EEA9FFA9E219F309EE0FFF1FEE0F39
:10303000FF1FE85FFA4FC080D180E280F380A701D4
:103040009601C701B6010E947F1F81111AC020E0BE
:1030500030E0A901C701B6010E94492118168CF47D
:1030600031E021963FAF21972DEC3CEC4CE45FE33F
:10307000C701B6010E947F1F18161CF421961FAECF
:10308000219721968FAD2197812B809314051111E3
:1030900052C0882309F44FC020E030E0A9016CAD94
:1030A0007DAD8EAD9FAD0E94492118166CF4E4E011
:1030B000F0E0E219F309EE0FFF1FEE0FFF1FE85FCC
:1030C000FA4FA1E0B0E00CC0E7E0F0E0E219F3094C
:1030D000EE0FFF1FEE0FFF1FE85FFA4FAAE0B0E010
:1030E000A219B309AA0FBB1FAA0FBB1FA85FBA4F33
:1030F0002D913D914D915C9160817181828193818F
:103100000E94492118162CF462EC78EB82E39FE3CD
:1031100004C062EC78EB82E39FEB609362027093F1
:10312000630280936402909365020E94640185E7C4
:1031300092E00E9481076C964FAD6C97442309F48E
:103140005DC08091FF049091000582309105D9F017
:103150001CF4019739F04DC08330910539F1079780
:1031600071F147C080911505811143C084E095E05D
:103170000E94520160935E0270935F02809360022E
:103180009093610236C080911405811132C084E0B1
:1031900095E00E94520160936202709363028093F3
:1031A0006402909365020E94640123C084E095E06C
:1031B0000E94520170931D0260931C0212C084E0B1
:1031C00095E00E94520121E0672B682B692B09F4DE
:1031D00020E020938902222321F08AE892E00E94D5
:1031E0008107609110027091110285ED91E00E94BB
:1031F00018018BE692E00E9481070DC08BE692E0F9
:103200000E94B706882339F08FE792E00E94810779
:1032100081E08093150580911405882361F085E78E
:1032200092E00E94B706882331F010927E0210923D
:103230007D0210921405809115058823A9F08FE76F
:1032400092E00E94B706882339F01092880210920B
:1032500087021092150508C010925E0210925F025C
:10326000109260021092610286E092E00E94810753
:1032700082E192E00E9481070E940C040C94EC0809
:103280008091AE069091AF062CE1289FF001299F16
:10329000F00D1124EA5CFA4F88EC90E0918F808F5A
:1032A0001092B0060E942D060C94780AE614F704DA
:1032B00014F40C94D40B0AC06E147F0414F40C9410
:1032C000D40B6615770514F40C94D40B0F5F1F4FC5
:1032D00020E00C94D50BAE014F5F5F4F6A01BA013D
:1032E000C701810F911D17FD9A950E94AB0634E02E
:1032F000311B80919E0490919F04F601B5C920E096
:1033000030E0A9016AA57BA58CA59DA50E94492155
:1033100018162CF02AE939E949E851EC04C02AE9E9
:1033200039E949E851E46AA57BA58CA59DA50E94D1
:10333000E31EE091E804F091E9042085318542859F
:1033400053850E94891F2B966FAF2B972C967FAFCA
:103350002C972D968FAF2D972E969FAF2E97EBCD56
:10336000A70196016AA57BA58CA59DA50E947F1F3C
:1033700087FF9ECD2AA93BA94CA95DA960E070E01A
:1033800080EA91E40E94891F0E94501F2B013C019A
:1033900080CD2F923F924F925F926F927F928F9249
:1033A0009F92AF92BF92CF92DF92EF92FF920F93D4
:1033B0001F93CF93DF9310923B0110923A0188EE56
:1033C000882E83E0982EA12CB12C80923C01909203
:1033D0003D01A0923E01B0923F0188E191E09093BF
:1033E00039018093380185EC90E0909345018093FA
:1033F000440184EC90E0909347018093460180EC77
:1034000090E0909349018093480181EC90E0909383
:103410004B0180934A0182EC90E090934D018093A0
:103420004C0186EC90E090934F0180934E011092F6
:1034300051011092520110925301109254011092B6
:10344000E3011092E2011092E4012FEF2093E501D5
:1034500081E090E09093E7018093E60131E03093C2
:10346000E8012093E901C2E0D0E0D093EB01C093E2
:10347000EA0142E04093EC012093ED0103E010E00B
:103480001093EF010093EE0143E04093F00120938D
:10349000F10144E0242E312C3092F3012092F2010C
:1034A00045E04093F4012093F50155E0A52EB12CA1
:1034B000B092F701A092F60147E04093F801209303
:1034C000F90146E050E05093FB014093FA0148E0D7
:1034D0004093FC0148EF4093FD0167E070E070937A
:1034E000FF016093FE0144E040930002209301023B
:1034F000A8E0B0E0B0930302A093020240E440933E
:10350000040240EC409305022093DE012093DF018A
:103510002093E0014FE74093E1013093850710923B
:1035200086071092870710928807109281071092E1
:10353000820710928307109284074091E201509114
:10354000E3016091E4017091E5014093D50150934E
:10355000D6016093D7017093D8011092D9011092CF
:10356000DA011092DB011092DC011092DD016AE0B9
:10357000862E912CA12CB12C8092290790922A079B
:10358000A0922B07B0922C079093320780933107BB
:1035900048EE53E060E070E0409335075093360703
:1035A000609337077093380790933E0780933D07E9
:1035B000A0918907B0918A07B0933407A09333078D
:1035C00010927807109277077FE0872E912CA12C1C
:1035D000B12C8092360590923705A0923805B092B2
:1035E000390590933F0580933E0544E650E060E046
:1035F00070E04093420550934305609344057093F7
:10360000450590934B0580934A05AD014F5F5F4F91
:103610005093410540934005E4E1F1E0E491E093EB
:10362000A006E5E1F1E0E491E093A10640E051E07D
:10363000FA013491E32FF0E0EE0FFF1FE651FF4F48
:10364000659174917093A3066093A206E1E0F1E0A6
:10365000E491F0E0EE0FFF1FE052FF4F659174918F
:103660007093A5066093A406FA014491E42FF0E05C
:10367000EE0FFF1FEA52FF4F659174917093A706FA
:103680006093A60641EC5CE25093A9064093A8061D
:10369000EAE08E2E912CA12CB12C8092BF06909244
:1036A000C006A092C106B092C2069093C80680934D
:1036B000C7061092B10640E050E060E870E4409325
:1036C0005C0550935D0560935E0570935F05C12CAA
:1036D000D12CE12CF0E4FF2EC0926005D092610560
:1036E000E0926205F092630549EA55ED63E874E4FF
:1036F0004093640550936505609366057093670574
:103700004BE050E050934D0540934C0536E6832E38
:10371000982C36EEA32E30E4B32E8092780590924A
:103720007905A0927A05B0927B0540E050E060E216
:1037300071E440937C0550937D0560937E05709302
:103740007F05EDEE8E2EE7E09E2EE4E8AE2EE4EC53
:10375000BE2E8092800590928105A0928205B09243
:103760008305ECE0F0E0F0936905E0936805FAE981
:103770008F2EF9E99F2EF9E1AF2EF0E4BF2E809253
:10378000940590929505A0929605B0929705409366
:1037900098055093990560939A0570939B05109234
:1037A0009C0510929D0510929E0510929F05909386
:1037B0008505809384053AE9432E39E9532E39E192
:1037C000632E30EC732E4092B0055092B10560929A
:1037D000B2057092B3054093B4055093B50560935C
:1037E000B6057093B7051092B8051092B9051092FE
:1037F000BA051092BB05D093A105C093A005E6E6DB
:103800008E2E982CE6EEAE2EE0ECBE2E8092CC05ED
:103810009092CD05A092CE05B092CF054093D005F1
:103820005093D1056093D2057093D3054DEE57E0C8
:1038300064E874E44093D4055093D5056093D605AD
:103840007093D7051093BD050093BC0540E050E090
:1038500060E870EC4093E8055093E9056093EA0551
:103860007093EB05C092EC05D092ED05E092EE0569
:10387000F092EF05F9EACF2EF5EDDF2EF3E8EF2E0B
:10388000F4ECFF2EC092F005D092F105E092F20523
:10389000F092F3053092D9052092D80540930406A2
:1038A000509305066093060670930706C6E6CC2E75
:1038B000DC2CEC2CC0E4FC2EC0920806D092090649
:1038C000E0920A06F0920B0641E35AE364E874E4DE
:1038D00040930C0650930D0660930E0670930F06EE
:1038E000D5E0AD2EB12CB092F505A092F40546E6D8
:1038F00056E666EE70EC40932006509321066093E6
:1039000022067093230640E050E060E271EC4093A1
:10391000240650932506609326067093270615E625
:10392000812E13EA912E13E8A12E14ECB12E809271
:10393000280690922906A0922A06B0922B0606E04D
:10394000A02EB12CB0921106A092100640923C0617
:1039500050923D0660923E0670923F0640934006AC
:103960005093410660934206709343063BED432E0D
:103970003FE0532E39E4632E30E4732E4092440628
:10398000509245066092460670924706E7E0F0E0E6
:10399000F0932D06E0932C06EAE98E2EE9E99E2E9F
:1039A000E9E1AE2EE0E4BE2E8092580690925906D0
:1039B000A0925A06B0925B0640935C0650935D0657
:1039C00060935E0670935F064092600650926106B7
:1039D0006092620670926306F8E0AF2EB12CB0924E
:1039E0004906A0924806C6E68C2E982CC6EEAC2E50
:1039F000C0E4BC2E8092740690927506A092760662
:103A0000B0927706409378065093790660937A06D1
:103A100070937B0645E653EA63E874E440937C06C2
:103A200050937D0660937E0670937F064DE050E0D4
:103A3000509365064093640640E050E060E870E40F
:103A4000409390065093910660939206709393066C
:103A5000C0929406D0929506E0929606F092970650
:103A600041E35AE364E874EC409398065093990656
:103A700060939A0670939B064AE050E0509381064B
:103A800040938006DFE08D2E912CA12CB12C8092EA
:103A9000160590921705A0921805B09219059093FB
:103AA0001F0580931E0548EC50E060E070E04093F5
:103AB0002205509323056093240570932505909368
:103AC0002B0580932A05AD014E5F5F4F5093210572
:103AD0004093200545E050E060E070E0409306022E
:103AE00050930702609308027093090290930F02AB
:103AF00080930E0242E350E060E070E040931202D7
:103B000050931302609314027093150290931B025A
:103B100080931A02AD014C5F5F4F50938A07409328
:103B200089071396B0931102A093100290931D027F
:103B300080931C0210921E0210921F02109220020B
:103B4000109221021092220210922302109224025B
:103B5000109225021092260210922702109228023B
:103B60001092290210922A0210922B0210922C021B
:103B700010922D024BED5FE069EC7FE34093300241
:103B800050933102609332027093330210923402E8
:103B900010923502109236021092370240E050E047
:103BA00060E87FE3409338025093390260933A0211
:103BB00070933B024AE050E060E070E040933C02CA
:103BC00050933D0260933E0270933F0290934502F2
:103BD0008093440240E050E060E07FE3409346027F
:103BE0005093470260934802709349024DEC5CEC9D
:103BF0006CEC7DE340934A0250934B0260934C027D
:103C000070934D0210924E0210924F021092500289
:103C100010925102109252021092530210925402CA
:103C20001092550240E050E06FE773EC409356026B
:103C300050935702609358027093590240E050E04D
:103C40006FE773E440935A0250935B0260935C0207
:103C500070935D02109266022093670232E2309305
:103C6000680236E93093690218EE812E13E0912E36
:103C7000A12CB12C80926B0290926C02A0926D02EA
:103C8000B0926E02909374028093730244EF51E0FD
:103C900060E070E040937502509376026093770283
:103CA0007093780210927E0210927D0248EB5BE0E6
:103CB00060E070E040937F02509380026093810245
:103CC00070938202109288021092870244E650E0BC
:103CD00060E070E040938A0250938B0260938C0204
:103CE00070938D0290939302809392028EE192E002
:103CF000909397028093960220939A0420939D04B8
:103D000089EC96E09093DD048093DC0480E0E82F5A
:103D1000E770F0E0E45FFE4F90819095E82FE69524
:103D2000E695E695F0E0E656FD4F20E030E0408174
:103D3000492340832F5F3F4F389620343105B9F730
:103D40008F5F803421F78AE992E090939C048093FE
:103D50009B0410929A0490939F0480939E04109267
:103D60009D0482E390E0A0E0B0E08093DE049093B5
:103D7000DF04A093E004B093E10481E090E090932D
:103D8000E7048093E6048EE192E09093E904809347
:103D9000E80481E08093FE0410921405109215054A
:103DA000DF91CF911F910F91FF90EF90DF90CF9017
:103DB000BF90AF909F908F907F906F905F904F904B
:103DC0003F902F9008955058BB27AA270E94FB1EB2
:103DD0000C94FB200E94C22038F00E94C92020F0E1
:103DE00039F49F3F19F426F40C9498200EF4E095D2
:103DF000E7FB0C949220E92F0E94202158F3BA1778
:103E0000620773078407950720F079F4A6F50C94F0
:103E100042210EF4E0950B2EBA2FA02D0B01B90113
:103E200090010C01CA01A0011124FF27591B99F030
:103E3000593F50F4503E68F11A16F040A22F232F3C
:103E4000342F4427585FF3CF469537952795A7958C
:103E5000F0405395C9F77EF41F16BA0B620B730B33
:103E6000840BBAF09150A1F0FF0FBB1F661F771FA4
:103E7000881FC2F70EC0BA0F621F731F841F48F459
:103E8000879577956795B795F7959E3F08F0B0CFE2
:103E90009395880F08F09927EE0F979587950895C9
:103EA000DF93DD27B92FBF7740E85FE316161706CB
:103EB00048075B0718F4D92F0E944E219F938F93D8
:103EC0007F936F930E941122E8E6F0E00E949B200E
:103ED0000E94FB202F913F914F915F910E94692199
:103EE000DD2351F09058A2EA2AED3FE049EC5FE370
:103EF000D0785D270E94FB1EDF910C94FB200E946E
:103F00006E2008F481E008950E94D220E3950C947D
:103F10000C210E949D1F0C94FB200E94C92058F088
:103F20000E94C22040F029F45F3F29F00C949220B7
:103F300051110C9443210C9498200E94202168F385
:103F40009923B1F3552391F3951B550BBB27AA2752
:103F500062177307840738F09F5F5F4F220F331F8C
:103F6000441FAA1FA9F335D00E2E3AF0E0E832D054
:103F700091505040E695001CCAF72BD0FE2F29D057
:103F8000660F771F881FBB1F261737074807AB0729
:103F9000B0E809F0BB0B802DBF01FF2793585F4F9E
:103FA0003AF09E3F510578F00C9492200C944321F6
:103FB0005F3FE4F3983ED4F3869577956795B79580
:103FC000F7959F5FC9F7880F911D9695879597F98B
:103FD0000895E1E0660F771F881FBB1F6217730704
:103FE0008407BA0720F0621B730B840BBA0BEE1F19
:103FF00088F7E09508950E9402206894B1110C940E
:10400000432108950E94282188F09F5798F0B92FE6
:104010009927B751B0F0E1F0660F771F881F991FFD
:104020001AF0BA95C9F714C0B13091F00E9442213C
:10403000B1E008950C944221672F782F8827B85F4C
:1040400039F0B93FCCF3869577956795B395D9F755
:104050003EF490958095709561957F4F8F4F9F4F5F
:104060000895E89409C097FB3EF49095809570956B
:1040700061957F4F8F4F9F4F9923A9F0F92F96E9B4
:10408000BB279395F695879577956795B795F11129
:10409000F8CFFAF4BB0F11F460FF1BC06F5F7F4FC6
:1040A0008F4F9F4F16C0882311F096E911C07723D8
:1040B00021F09EE8872F762F05C0662371F096E8E1
:1040C000862F70E060E02AF09A95660F771F881FB0
:1040D000DAF7880F9695879597F90895990F000854
:1040E000550FAA0BE0E8FEEF16161706E807F907CA
:1040F000C0F012161306E407F50798F0621B730B65
:10410000840B950B39F40A2661F0232B242B252BE5
:1041100021F408950A2609F4A140A6958FEF811D88
:10412000811D089597F99F6780E870E060E0089529
:104130009FEF80EC0895DF93CF931F930F93FF922F
:10414000EF92DF927B018C01689406C0DA2EEF01BA
:104150000E946921FE01E894A59125913591459130
:104160005591A6F3EF010E94FB1EFE019701A801E5
:10417000DA9469F7DF90EF90FF900F911F91CF9144
:10418000DF91089500240A941616170618060906EA
:10419000089500240A9412161306140605060895BD
:1041A0000C9498200E942821D8F3E894E0E0BB27E3
:1041B0009F57F0F02AED3FE049EC06C0EE0FBB0F31
:1041C000661F771F881F28F0B23A620773078407BB
:1041D00028F0B25A620B730B840BE3959A9572F731
:1041E000803830F49A95BB0F661F771F881FD2F76F
:1041F00090480C943C22092E0394000C11F488235F
:1042000052F0BB0F40F4BF2B11F460FF04C06F5F8E
:104210007F4F8F4F9F4F0895EF93E0FF07C0A2EAB3
:104220002AED3FE049EC5FEB0E94FB1E0E94FB2061
:104230000F90039401FC9058E5E9F0E00C944F22B4
:1042400057FD9058440F551F59F05F3F71F0479547
:10425000880F97FB991F61F09F3F79F0879508952C
:10426000121613061406551FF2CF4695F1DF08C04B
:10427000161617061806991FF1CF86957105610568
:1042800008940895E894BB2766277727CB0197F910
:1042900008950E946E2008F48FEF08959B01AC01F1
:1042A00060E070E080E89FE30C94891F0E94692120
:1042B0000C94FB200E94C22038F00E94C92020F0FC
:1042C000952311F00C9492200C94982011240C94B6
:1042D00043210E94202170F3959FC1F3950F50E078
:1042E000551F629FF001729FBB27F00DB11D639FA8
:1042F000AA27F00DB11DAA1F649F6627B00DA11D4E
:10430000661F829F2227B00DA11D621F739FB00DF3
:10431000A11D621F839FA00D611D221F749F332763
:10432000A00D611D231F849F600D211D822F762FFC
:104330006A2F11249F5750409AF0F1F088234AF0D9
:10434000EE0FFF1FBB1F661F771F881F9150504045
:10435000A9F79E3F510580F00C9492200C944321C4
:104360005F3FE4F3983ED4F3869577956795B795CC
:10437000F795E7959F5FC1F7FE2B880F911D9695E6
:10438000879597F908959F930E94D2200F9007FC7C
:10439000EE5F0C940C2119F416F40C9498200C94F4
:1043A0003A220E942821B8F39923C9F3B6F39F5704
:1043B000550B87FF0E9448220024A0E640EA9001A6
:1043C00080585695979528F4805C660F771F881F54
:1043D00020F026173707480730F4621B730B840B55
:1043E000202931294A2BA695179407942025312599
:1043F0004A2758F7660F771F881F20F026173707C0
:10440000480730F4620B730B840B200D311D411DE6
:10441000A09581F7B901842F9158880F96958795BB
:1044200008959B01AC010C945621DF93D92F0E9473
:10443000D220E695D7952AED3FE049E45FE3B33A11
:104440006207730784079507D7953AF0A2EA49EC0B
:1044500090680E94FB1E0E94FB20E3EBF0E00E94AC
:104460004F22DD0F13F00E944E21DD0F0BF4905808
:10447000DF9108959F3F31F0915020F48795779513
:104480006795B795880F911D9695879597F908952B
:1044900091505040660F771F881FD2F708959F9361
:1044A0008F937F936F93FF93EF939B01AC010E94D7
:1044B0005621EF91FF910E949B202F913F914F91A8
:1044C0005F910C94562197FB072E16F4009407D0A9
:1044D00077FD09D00E94C02207FC05D03EF49095DC
:1044E00081959F4F0895709561957F4F0895A1E242
:1044F0001A2EAA1BBB1BFD010DC0AA1FBB1FEE1F5E
:10450000FF1FA217B307E407F50720F0A21BB30BA8
:10451000E40BF50B661F771F881F991F1A9469F724
:1045200060957095809590959B01AC01BD01CF0180
:104530000895052E97FB1EF400940E94B02257FDAB
:1045400007D00E94772207FC03D04EF40C94B022CF
:1045500050954095309521953F4F4F4F5F4F0895AF
:1045600090958095709561957F4F8F4F9F4F0895DF
:10457000B7FF0C94DA220E94DA22821B930B089573
:10458000AA1BBB1B51E107C0AA1FBB1FA617B70779
:1045900010F0A61BB70B881F991F5A95A9F7809595
:1045A0009095BC01CD010895EE0FFF1F0590F49189
:1045B000E02D09940E94E522A59F900DB49F900DD7
:1045C000A49F800D911D11240895A29FB001B39F57
:1045D000C001A39F700D811D1124911DB29F700D0C
:1045E000811D1124911D089581E090E0F8940C94B0
:0645F000F922F894FFCF50
:1045F60002000000003F0500000000000102040860
:104606001020408000000000A303C3003B03EA0320
:104616006C034A035E030C0173657475702E2E2EAF
:04462600000D0A0079
:107E0000112484B714BE81FFF0D085E080938100F7
:107E100082E08093C00088E18093C10086E0809377
:107E2000C20080E18093C4008EE0C9D0259A86E02C
:107E300020E33CEF91E0309385002093840096BBD3
:107E4000B09BFECF1D9AA8958150A9F7CC24DD24C4
:107E500088248394B5E0AB2EA1E19A2EF3E0BF2EE7
:107E6000A2D0813461F49FD0082FAFD0023811F036
:107E7000013811F484E001C083E08DD089C08234E0
:107E800011F484E103C0853419F485E0A6D080C0E4
:107E9000853579F488D0E82EFF2485D0082F10E0AE
:107EA000102F00270E291F29000F111F8ED06801E7
:107EB0006FC0863521F484E090D080E0DECF843638
:107EC00009F040C070D06FD0082F6DD080E0C81688
:107ED00080E7D80618F4F601B7BEE895C0E0D1E017
:107EE00062D089930C17E1F7F0E0CF16F0E7DF06D8
:107EF00018F0F601B7BEE89568D007B600FCFDCFD4
:107F0000A601A0E0B1E02C9130E011968C91119780
:107F100090E0982F8827822B932B1296FA010C0160
:107F200087BEE89511244E5F5F4FF1E0A038BF0790
:107F300051F7F601A7BEE89507B600FCFDCF97BE46
:107F4000E89526C08437B1F42ED02DD0F82E2BD052
:107F50003CD0F601EF2C8F010F5F1F4F84911BD097
:107F6000EA94F801C1F70894C11CD11CFA94CF0C13
:107F7000D11C0EC0853739F428D08EE10CD085E9AC
:107F80000AD08FE07ACF813511F488E018D01DD067
:107F900080E101D065CF982F8091C00085FFFCCF94
:107FA0009093C60008958091C00087FFFCCF809118
:107FB000C00084FD01C0A8958091C6000895E0E648
:107FC000F0E098E1908380830895EDDF803219F02E
:107FD00088E0F5DFFFCF84E1DECF1F93182FE3DFCA
:107FE0001150E9F7F2DF1F91089580E0E8DFEE27F6
:047FF000FF270994CA
:027FFE00040479
:0400000300007E007B
:00000001FF