:100000000C9499000C94C1000C94C1000C94C10094
:100010000C94C1000C94C1000C94C1000C94EA062D
:100020000C94C1000C94C1000C94C1000C94C1004C
:100030000C94C1000C94C1000C94C1000C94C1003C
:100040000C94A0060C94C1000C9449050C94230553
:100050000C94C1000C94C1000C94C1000C94C1001C
:100060000C94C1000C94C100084AD73B3BCE016EF2
:1000700084BCBFFDC12F3D6C74319ABD56833DDAFF
:100080003D00C77F11BED9E4BB4C3E916BAAAABE0E
:10009000000000803F05A84CCDB2D44EB93836A937
:1000A000020C50B9918688083CA6AAAA2ABE000074
:1000B00000803F0664EC1B3C04BC163E3BE5B93CAB
:1000C000C93C37C29E5A3D660498083EEA69AAAA0E
:1000D0003E000000803F00000000240027002A00AE
:1000E0000000000023002600290000000000250079
:1000F00028002B0004040404040404040202020285
:1001000002020303030303030102040810204080DA
:100110000102040810200102040810200000000859
:1001200000020100000304070000000000000000BE
:10013000D51B11241FBECFEFD8E0DEBFCDBF11E02D
:10014000A0E0B1E0E4E0FAE402C005900D92A03333
:10015000B107D9F727E0A0E3B1E001C01D92A63DA9
:10016000B207E1F710E0C9E9D0E004C02197FE0131
:100170000E94DB24C839D107C9F70E94D9080C9422
:1001800000250C940000E4E3F1E0A089B18982E04D
:100190008C93A485B5851C92A685B7858FEC8C932E
:1001A000108EA489B58986E08C93A289B3898C913D
:1001B00080618C93A289B3898C9188608C93A28989
:1001C000B3898C9180688C930288F389E02D8081BB
:1001D0008F7D80830895CF92DF92EF92FF920F93ED
:1001E0001F93CF93DF938B010554184FF801C08103
:1001F000D1E0CD2701F19B01FC0189E0829FB00194
:10020000839F700D1124DB01A959B84FC080D180A4
:10021000E280F3809A96CD92DD92ED92FC929D97CA
:1002200084819E968C936A56784FCF0105960E94E2
:100230009907F801D0838C2FDF91CF911F910F91F7
:10024000FF90EF90DF90CF900895FC0120816181B5
:10025000862F90E0A0E0B0E0DC0199278827B22B40
:100260002381822B2281BC01CD01722B0895CF9274
:10027000DF92EF92FF922FE832EC45E95FE30E94B4
:100280005D2320E030E044EB52E40E94EB200E942A
:100290000222663971053CF4DB016E3171052CF4E4
:1002A000AEE1B0E002C0A6E9B0E0A53BB10514F0B4
:1002B000A4EBB0E0A0936702C090680220916902AD
:1002C00030E02C193109D12CE12CF12CFE2CED2C35
:1002D000DC2CCC24A901330F660B770B2227342F9B
:1002E000452F562F0E94BF2424EB30E040E050E021
:1002F0000E94A024C701B601620F731F841F951FBF
:1003000028E030E040E050E00E94A02480916602A6
:10031000893029F4309389002093880004C03093F9
:100320008B0020938A00FF90EF90DF90CF9008958C
:100330004F925F926F927F928F929F92AF92BF92F5
:10034000CF92DF92EF92FF92CF93DF93CDB7DEB7DC
:100350002C970FB6F894DEBF0FBECDBF3C012B012A
:100360004F3F8FEF580781F14130510509F00AC125
:10037000DB01CD90DD90ED90FC90F30180809180C9
:10038000A280B3802CEA35EC47E257E3C701B601FF
:100390000E94EA209B01AC01C501B4010E945023D8
:1003A00087FD62C02CEA35EC47E257E3C701B6018E
:1003B0000E94EB209B01AC01C501B4010E94862183
:1003C00018160CF451C02EC0DB011496CD90DD90B0
:1003D000ED90FC901797F301608171818281938188
:1003E0009B01AC010E94EB20D2012D913D914D91DA
:1003F0005C910E94EA2069837A838B839C83CD82FF
:10040000DE82EF82F88641E050E0BE016F5F7F4FF1
:10041000C3010E9498016B017C01F7FAF094F7F890
:10042000F094B0C0F3012481358146815781D20117
:1004300014966D917D918D919C9117970E945023F8
:1004400018164CF49BEDC92E9FE0D92E99ECE92E9D
:100450009FE3F92E97C084EEC82E8BECD82E86E948
:10046000E82E80E4F82E8EC0A5019401C701B601E4
:100470000E94502318160CF05FC0D20114968D9183
:100480009D910D90BC91A02D89879A87AB87BC87E1
:10049000F3014480558066807780A3019201BC01FE
:1004A000CD010E945023A301920187FD2AC06985D6
:1004B0007A858B859C850E94EA202B013C01A50151
:1004C0009401C701B6010E94EA209B01AC01C3015F
:1004D000B2010E9490212C960FB6F894DEBF0FBE99
:1004E000CDBFDF91CF91FF90EF90DF90CF90BF9085
:1004F000AF909F908F907F906F905F904F900C94F3
:10050000572169857A858B859C850E94EA202B017D
:100510003C01A5019401C701B6010E94EA209B019C
:10052000AC01C301B2010E9490210E9457212BED22
:100530003FE049EC50E422C0D30114962D913D9147
:100540004D915C911797F201648175818681978145
:100550000E94EA202B013C01A5019401C701B601CC
:100560000E94EA209B01AC01C301B2010E949021CC
:100570000E9457212BED3FE049E450E40E94EB201C
:100580006B017C01C701B6012C960FB6F894DEBF53
:100590000FBECDBFDF91CF91FF90EF90DF90CF9056
:1005A000BF90AF909F908F907F906F905F904F9093
:1005B000089591E0681708F490E0892F08958F92CC
:1005C0009F92AF92BF92CF92DF92EF92FF92CF9322
:1005D000DF93FC01DB01F0806F2D70E0CC916115A1
:1005E000710509F453C01196DC91CC2309F459C06C
:1005F000618170E080E090E00E943A224B015C0152
:100600006F2D70E080E090E00E9438229B01AC01E9
:10061000C501B4010E9490216B017C016D2F70E037
:1006200080E090E00E943A224B015C016C2F70E068
:1006300080E090E00E9438229B01AC01C501B4012A
:100640000E9490219B01AC01C701B6010E94EA20E3
:100650006B017C0120E030E0A9010E9450231816B4
:1006600094F0C1E0D0E020E030E0A901C701B6017C
:100670000E94862187FD02C0C0E0D0E0882799272C
:100680008C1B9D0B1AC081E090E017C081818823EC
:1006900019F06C2F70E007C06C2F70E080E090E0E4
:1006A00009C0D11103C0719561957109072E000C25
:1006B000880B990B0E943A22CBCFDF91CF91FF900C
:1006C000EF90DF90CF90BF90AF909F908F90089564
:1006D0002F923F924F925F927F928F929F92AF9212
:1006E000BF92CF92DF92EF92FF920F931F93CF931F
:1006F000DF93CDB7DEB72A970FB6F894DEBF0FBEF3
:10070000CDBF8C01DB018D919D910D90BC91A02DF1
:1007100089839A83AB83BC83E0919402F091950224
:10072000FA87E987C688D788E08CF18CDB011496BC
:100730002D903D904D905C901797828C938CA48C5B
:10074000B58C69817A818B819C819058A701960133
:100750000E945D236D837E838F839887A50194011A
:10076000C201B1010E945D239B01AC016D817E81BC
:100770008F8198850E94EB20E985FA852481358157
:10078000468157810E94EB2020E030E040E05EE3AC
:100790000E945D2320E030E040EC51E40E94EB2019
:1007A0000E940922762EA501940169817A818B81AC
:1007B0009C810E945D234B015C01A7019601C2014F
:1007C000B1010E945D239B01AC01C501B4010E94EF
:1007D000EB20A985BA852D913D914D915C910E94A8
:1007E000EB2020E030E040E05EE30E945D2320E06B
:1007F00030E040EC51E40E94EB200E940922F80115
:1008000060837182C8012A960FB6F894DEBF0FBECE
:10081000CDBFDF91CF911F910F91FF90EF90DF90AF
:10082000CF90BF90AF909F908F907F905F904F90B0
:100830003F902F900895089580E090E00895FC0186
:10084000538D448D252F30E0842F90E0821B930B35
:10085000541710F0CF96089501970895FC01918DDB
:10086000828D981761F0828DDF01A80FB11D5D9612
:100870008C91928D9F5F9F73928F90E008958FEF80
:100880009FEF0895FC01918D828D981731F0828D34
:10089000E80FF11D858D90E008958FEF9FEF08958B
:1008A000FC01918D228D892F90E0805C9F4F821BEF
:1008B00091098F739927089584E391E00E94500471
:1008C00021E0892B09F420E0822F0895FC01848D1A
:1008D000DF01A80FB11DA35ABF4F2C91848D90E06A
:1008E00001968F739927848FA689B7892C93A08945
:1008F000B1898C9180648C93938D848D981306C0FC
:100900000288F389E02D80818F7D80830895EF92A6
:10091000FF920F931F93CF93DF93EC0181E0888FB9
:100920009B8D8C8D981305C0E889F989808185FDA0
:1009300024C0F62E0B8D10E00F5F1F4F0F73112791
:10094000E02E8C8DE8120CC00FB607FCFACFE889B8
:10095000F989808185FFF5CFCE010E946604F1CF31
:100960008B8DFE01E80FF11DE35AFF4FF0820B8FD4
:10097000EA89FB898081806207C0EE89FF896083F4
:10098000E889F98980818064808381E090E0DF914B
:10099000CF911F910F91FF90EF900895CF93DF9328
:1009A000EC01888D8823C9F0EA89FB89808185FD67
:1009B00005C0A889B9898C9186FD0FC00FB607FCC8
:1009C000F5CF808185FFF2CFA889B9898C9185FF09
:1009D000EDCFCE010E946604E7CFDF91CF9108955D
:1009E00080E090E0892B29F00E945C0481110C9436
:1009F00000000895833081F028F4813099F082302E
:100A0000A1F008958730A9F08830B9F08430D1F48E
:100A1000809180008F7D03C0809180008F778093CC
:100A20008000089584B58F7702C084B58F7D84BD22
:100A300008958091B0008F7703C08091B0008F7DC2
:100A40008093B00008951F920F920FB60F92112459
:100A50002F933F934F935F936F937F938F939F93C6
:100A6000AF93BF93EF93FF9384E391E00E946604FA
:100A7000FF91EF91BF91AF919F918F917F916F9176
:100A80005F914F913F912F910F900FBE0F901F904C
:100A900018951F920F920FB60F9211242F938F93D8
:100AA0009F93EF93FF93E0914401F0914501808182
:100AB000E0914A01F0914B0182FD12C0908180913A
:100AC0004D018F5F8F7320914E01821751F0E0919D
:100AD0004D01F0E0EC5CFE4F958F80934D0101C01D
:100AE0008081FF91EF919F918F912F910F900FBE79
:100AF0000F901F901895CF93DF93282F30E0F901C6
:100B0000E45EFE4F8491F901E85FFE4FD491F90154
:100B1000EC50FF4FC491CC2391F081110E94FA0454
:100B2000EC2FF0E0EE0FFF1FE052FF4FA591B491C4
:100B3000EC91ED2381E090E021F480E002C080E0C0
:100B400090E0DF91CF9108951F93CF93DF93282FEB
:100B500030E0F901E45EFE4F8491F901E85FFE4F59
:100B6000D491F901EC50FF4FC491CC23C9F0162F5A
:100B700081110E94FA04EC2FF0E0EE0FFF1FE65106
:100B8000FF4FA591B4918FB7F894111105C09C91B6
:100B9000ED2FE095E92302C0EC91ED2BEC938FBF94
:100BA000DF91CF911F910895CF93DF9390E0FC01E7
:100BB000E85FFE4F2491FC01EC50FF4F84918823A5
:100BC00061F190E0880F991FFC01EA52FF4FC59137
:100BD000D491FC01E651FF4FA591B491611109C078
:100BE0009FB7F8948881209582238883EC912E23E7
:100BF0000BC0623061F49FB7F8943881822F8095E2
:100C000083238883EC912E2B2C939FBF06C08FB734
:100C1000F894E8812E2B28838FBFDF91CF91089520
:100C20001F93CF93DF93182FEB0161E00E94D4054F
:100C3000209711F460E004C0CF3FD10539F461E0A2
:100C4000812FDF91CF911F910C94A405E12FF0E04B
:100C5000E45EFE4FE491E330F9F048F4E130B9F09E
:100C6000E230A1F584B5806284BDC8BD34C0E730F0
:100C7000E9F0E83019F1E43049F5809180008062B4
:100C800080938000D0938B00C0938A0024C084B5E9
:100C9000806884BDC7BD1FC080918000806880933C
:100CA0008000D0938900C093880015C08091B00067
:100CB00080688093B000C093B3000DC08091B000F5
:100CC00080628093B000C093B40005C0C038D105E5
:100CD0000CF0B5CFAFCFDF91CF911F9108953FB703
:100CE000F8948091D2079091D307A091D407B09146
:100CF000D50726B5A89B05C02F3F19F00196A11D69
:100D0000B11D3FBFBA2FA92F982F8827820F911DA1
:100D1000A11DB11DBC01CD0142E0660F771F881FE8
:100D2000991F4A95D1F708952FB7F8946091CE078F
:100D30007091CF078091D0079091D1072FBF089570
:100D40001F920F920FB60F9211242F933F938F9300
:100D50009F93AF93BF938091CE079091CF07A091BF
:100D6000D007B091D1073091CD0723E0230F2D3765
:100D700020F40196A11DB11D05C026E8230F02969F
:100D8000A11DB11D2093CD078093CE079093CF076F
:100D9000A093D007B093D1078091D2079091D30749
:100DA000A091D407B091D5070196A11DB11D8093E4
:100DB000D2079093D307A093D407B093D507BF91E0
:100DC000AF919F918F913F912F910F900FBE0F90F8
:100DD0001F9018951F920F920FB60F9211242F9308
:100DE0003F934F935F936F937F938F939F93AF93B3
:100DF000BF93EF93FF93E0913001F091310109959A
:100E0000FF91EF91BF91AF919F918F917F916F91E2
:100E10005F914F913F912F910F900FBE0F901F90B8
:100E20001895E0E7F0E080818D7F80830895EF9250
:100E3000FF920F931F93CF93DF937C018B0120E0F0
:100E400030E040E053E4FC01608171818281938154
:100E50000E945D2320E030E048E453E40E949021AA
:100E60000E940222EB016138FFEF7F0734F06F37F9
:100E700071052CF0CFE7D0E002C0C0E8DFEF20E042
:100E800030E040E053E4F701648175818681978109
:100E90000E945D2320E030E048E453E40E9490216A
:100EA0000E9402226138FFEF7F0734F06F3771052F
:100EB0002CF06FE770E002C060E87FEFF801C083BC
:100EC0006183DF91CF911F910F91FF90EF90089573
:100ED00020E030E0F901E252FE4F408151819381E0
:100EE00098236281691303C04A30510541F42C5F95
:100EF0003F4F2832310571F78AE090E00895CA012A
:100F00000895262F237066956695FC01E60FF11D66
:100F100030E0D901A050BF4F9C919095508195230E
:100F2000220F331F01C0440F2A95EAF7492B408353
:100F30000895FB019C012C5F3F4FDC014D91CD01D9
:100F40004193A217B307C9F70895CF92DF92EF92AA
:100F5000FF920F931F93CF93DF93FC012085318580
:100F6000232BA9F0EC010E949406C880D980EA8066
:100F7000FB800C811D812E813F81C00ED11EE21E9F
:100F8000F31E21E06C157D058E059F0508F420E019
:100F9000822FDF91CF911F910F91FF90EF90DF9003
:100FA000CF9008958F929F92AF92BF92CF92DF928F
:100FB000EF92FF920F931F93CF93DF930E946F06E0
:100FC0000091E8061091E9062091EA063091EB06BF
:100FD000061717072807390718F40E9411074CC095
:100FE000E091E206F091E30690818091DF0689238B
:100FF00009F042C00E9411070E946F062091E60688
:101000003091E7066901E12CF12C0091E80610917E
:10101000E9062091EA063091EB0646015701801A55
:10102000910AA20AB30A950184010D501109210900
:101030003109600F711F821F931F6093DA0670934E
:10104000DB068093DC069093DD062091EC06309160
:10105000ED064CE1429FE001439FD00D1124CC5896
:10106000DA4F29E330E040E050E00E947E24398FDF
:10107000288F1092EE0626C08DEF96E00E94A507FD
:10108000882301F18091EC069091ED062CE1289FD8
:10109000F001299FF00D1124EC58FA4F88EC90E0F4
:1010A000918F808F1092EE06DF91CF911F910F915B
:1010B000FF90EF90DF90CF90BF90AF909F908F9078
:1010C0000C941107DF91CF911F910F91FF90EF903A
:1010D000DF90CF90BF90AF909F908F900895CF9367
:1010E000DF93EC010E9494066C837D838E839F8343
:1010F00081E090E099878887DF91CF910895CF9222
:10110000DF92EF92FF920F931F93CF93DF936C01C7
:101110007A018B01C0E0D0E0CE15DF0589F0D8015F
:101120006D918D01D601ED91FC910190F081E02D42
:10113000C6010995892B11F47E0102C02196ECCFDE
:10114000C701DF91CF911F910F91FF90EF90DF903A
:10115000CF9008950E94FB241F93CF93DF9382309A
:101160002FEF920734F08F3F910534F0CFEFD0E0AE
:1011700004C0C1E0DFEF01C0EC011D2F1095111F6D
:101180001127111F11F0BE0102C060E070E085E080
:101190000E941006111105C0662777276C1B7D0B76
:1011A00002C060E070E086E0DF91CF911F910C9467
:1011B0001006CF93DF93CDB7DEB7CD57D1090FB669
:1011C000F894DEBF0FBECDBF789484B5826084BD35
:1011D00084B5816084BD85B5826085BD85B581603B
:1011E00085BD80916E00816080936E0010928100B9
:1011F0008091810082608093810080918100816074
:101200008093810080918000816080938000809134
:10121000B10084608093B1008091B00081608093C0
:10122000B00080917A00846080937A0080917A0087
:10123000826080937A0080917A00816080937A0046
:1012400080917A00806880937A001092C1000E9499
:10125000C30048E050E064E271E084E391E00E9462
:101260007F0842E050E06DE271E084E391E00E948B
:101270007F0884E391E00E94CE041092B707109299
:10128000BB071092B8071092BC071092B9071092D2
:10129000BD071092BA071092BE070E94C3001092B9
:1012A00087071092860761E088E00E94D40561E01C
:1012B00087E00E94D40561E08BE00E94D40561E0E4
:1012C0008AE00E94D405ECE8F5E088EC90E0958790
:1012D0008487918380839383828395838483978398
:1012E000868391878087938782877C9626E0EC3D72
:1012F000F20769F781E08093EF061092EE068BE02B
:1013000090E09093ED068093EC0684E090E090935B
:10131000F1068093F0061092FB0660E082E00E94E6
:10132000D40560E084E00E94D40560E083E00E9480
:10133000D40560E08EE00E94D40560E08FE00E945A
:10134000D40560E080E10E94D40560E081E10E9464
:10135000D40560E082E10E94D40561E083E10E944F
:10136000D4050E94940660936A0570936B05809380
:101370006C0590936D0510926F0510926E0510929A
:10138000700510927105109272051092730561E05C
:1013900085E00E94D40561E086E00E94D40589E0E2
:1013A000809366028FEF8093670260E089E00E947D
:1013B000A40561E0809166020E94D405809133010A
:1013C000811122C08091320181111EC02FB7F89483
:1013D00082E0809380008AE18093810088EB9BE02B
:1013E000909389008093880090938B0080938A006B
:1013F00080E49CE9909387008093860080916F0041
:10140000887F80936F002FBF80916602893041F4FE
:1014100081E080933301809180008F73806807C0E2
:1014200081E080933201809180008F7C8062809384
:101430008000109262021092630210926402109275
:10144000650260E070E0CB010E94370110925E02FD
:1014500010925F0210926002109261021092890253
:101460009DE088E10FB6F894A895809360000FBEC8
:101470009093600087E697E00E94A507882309F40F
:101480002BC183E797E00E94A507811121C1A89590
:1014900084E391E00E945004009709F4B5C04091A4
:1014A00086075091870729E030E0241B350B8C011B
:1014B000281739070CF48901A12CB12C912CF2E0EA
:1014C000EF2EF12CCC24C394D12CA016B1060CF035
:1014D0006AC084E391E00E942E042091B507309108
:1014E000B6072130310541F122303105E1F1232BDE
:1014F00009F055C02091860730918707F901E6521F
:10150000FE4F9081891313C0A9014F5F5F4F509325
:10151000870740938607F901E959F84F868B4430D5
:101520005105E9F5D092B607C092B50738C01092C0
:1015300087071092860733C020918607309187076E
:10154000A9014F5F5F4F5093870740938607F901CA
:10155000E959F84F868B4530510509F5F092B607E9
:10156000E092B5071CC02091860730918707A9013A
:101570004F5F5F4F5093870740938607F901E95902
:10158000F84F868B4930510551F41092870710921D
:1015900086071092B6071092B507992493943FEFEF
:1015A000A31AB30A92CF992079F180918107809391
:1015B0008C070E946807880F991F880F991FFC01EC
:1015C000E252FE4F80819181A281B381809388078E
:1015D00090938907A0938A07B0938B07BE016F5F32
:1015E0007F4F82E897E00E9499076DE877E0CE018F
:1015F00001960E94990781E08093B7078093B8070E
:101600008093B9078093BA076BEBE62E67E0F62E5E
:1016100000E010E075E0B72E6E0146E0C40ED11C6C
:10162000D7018C91882309F446C01C92F801E9592E
:10163000F84FA6A4BE016F5F7F4F8AED91E00E9434
:101640009907AD82FE013196DE015B968B2D0190EC
:101650000D928A95E1F7FE017B96DE0190968B2D27
:1016600001900D928A95E1F7FE01B096DE01119688
:101670008B2D01900D928A95E1F7C8018A56984FFB
:10168000FE013196DE011A9621912D93EC15FD0590
:10169000D9F7BE01615F7F4F0E94990749E050E092
:1016A000BE01665F7F4F84E391E00E947F0884E380
:1016B00091E00E94CE04BFEFEB1AFB0A075F1F4FB9
:1016C0000432110509F0ACCF87E697E00E946F085D
:1016D00083E797E00E946F0884E795E00E94A507E2
:1016E000882309F437C380E895E00E94A50781119B
:1016F0002DC3A8958091EF06882309F423C3E091B8
:101700007E05F0917F05E954F84F80818823A9F187
:1017100010828091880790918907A0918A07B091E3
:101720008B078093F2069093F306A093F406B09390
:10173000F50680918C078093F60667EF76E08DE8DA
:1017400097E00E9499078091F2069091F306069720
:10175000A1F487EF96E00E94250121E0672B682B1A
:10176000692B09F420E02093FB0660917E057091BF
:101770007F0581ED91E00E94EB008091EE068823C9
:1017800039F08DEF96E00E94A50781110C945A194B
:101790008091EE068111D6C28091FB06882309F460
:1017A0005FC08091FC0681115BC00091EC06109136
:1017B000ED0600FF55C0C80117FD01969595879568
:1017C0009091FC01890F8093F6060E946807880FAC
:1017D000991F880F991FFC01E252FE4F8081918171
:1017E000A281B3818093F2069093F306A093F4064E
:1017F000B093F506C80143E0880F991F4A95E1F7B9
:10180000BE016B5D7F4F8150994F0E9417078091F9
:10181000EC069091ED0653E0880F991F5A95E1F779
:10182000BE016D5E7F4F895F984F0E9417072EA102
:101830009B898C893DA139832A839B838C8367EFA5
:1018400076E0CE0101960E94990760917E05709125
:101850007F0582EF96E00E94EB0081E08093FC061A
:101860002090EC063090ED06EBE02E16310469F482
:101870008091F0069091F106019665E070E00E947B
:101880006A249093F1068093F0062091F00630913F
:10189000F1063EAB2DAB8CE1829DF001839DF00DF6
:1018A0001124EC58FA4FE08CF18CE114F10411F0A2
:1018B000670103C008ECC02ED12C8EE0829DF001A0
:1018C000839DF00D11244DA95EA9E40FF51FEE0FC5
:1018D000FF1FE257FA4FD182C08258ECE516F1049F
:1018E00019F0E4E0F1E002C0EAE0F1E080819181EA
:1018F0009AAF89AF82809380A480B5808CE1829D6D
:10190000F001839DF00D1124EC58FA4FA4A1B5A16C
:101910002B96BFAFAEAF2B97BD01BB0F880B990BBA
:101920000E943A222B013C0120E030E040E85FE3D6
:10193000C501B4010E94EB2021966CAF7DAF8EAF44
:101940009FAF21979B01AC01C301B2010E945D23AF
:101950000E9402228B01A501940160E070E080E802
:101960009FE30E94EA204B015C019B01AC01C30193
:10197000B2010E945D230E940222061717073CF065
:10198000C616D7065CF00C151D0544F081C0C016C4
:10199000D10624F06C157D050CF07AC08DA99EA9A6
:1019A000049665E070E00E946A242C0100E010E0DB
:1019B0008EE0829DD001839DB00D11242796BFAF8C
:1019C000AEAF27979701FF0C440B550B25962CAF14
:1019D0003DAF4EAF5FAF2597EDA9FEA94E165F064E
:1019E00009F44CC029AD3AAD021713070CF046C0FC
:1019F0002796EEADFFAD2797E40DF51DEE0FFF1F07
:101A0000E257FA4F6080718025966CAD7DAD8EAD4A
:101A10009FAD25970E943A2265966CAF7DAF8EAF41
:101A20009FAF659721962CAD3DAD4EAD5FAD219733
:101A30000E945D230E9402227B01A501940165960C
:101A40006CAD7DAD8EAD9FAD65970E945D230E940C
:101A50000222E616F70614F40C9476196616770639
:101A600014F00C94701921E0C201049665E070E056
:101A70000E946A242C01222309F4AECF89AD9AADCD
:101A800001970817190724F42B96CEACDFAC2B97DF
:101A90008CE1829DF001839DF00D1124EC58FA4FEA
:101AA000D5A2C4A23CE1329DC001339D900D11240A
:101AB000AC014C585A4F7A01DA0194966D917C91A1
:101AC0009597072E000C880B990B0E943A222B0148
:101AD0003C012BED3FE049EC5FE3F70166A577A5FC
:101AE00080A991A90E94EB204B015C010E948B21EF
:101AF0009B01AC01810163E0000F111F6A95E1F7C2
:101B00000C581A4F6801FDE6CF1AFEEFDF0AC30139
:101B1000B2010E945D239B01AC01D70196966D91A5
:101B20007D918D919C9199970E94EB20F6016083A5
:101B3000718382839383C501B4010E94CA239B01F0
:101B4000AC0109561E4FC301B2010E945D239B01E7
:101B5000AC01D7019A966D917D918D919C919D9745
:101B60000E94EB20F8016083718382839383C1011B
:101B700001966CE070E00E946A249093ED068093D9
:101B8000EC061092FC062CE1289FF001299FF00D35
:101B90001124EC58FA4F06891789602F617088E08C
:101BA0000E94A405B80176956795617087E00E9450
:101BB000A405B801769567957695679561708BE079
:101BC0000E94A405A3E016950795AA95E1F7602F5A
:101BD00061708AE00E94A40581E08093EE060E9475
:101BE00011078DEF96E00E946F0881EC9CE29093C4
:101BF000E7068093E606E091E406F091E506908121
:101C00008091DE06892B8083E091E006F091E10669
:101C100090818091DE068095892380838BE090E01F
:101C20000197F1F7E091E006F091E1069081809153
:101C3000DE06892B808383E290E00197F1F7E09143
:101C4000E006F091E10690818091DE06809589237F
:101C50008083E091E406F091E50690818091DE06B4
:101C6000809589238083E091E206F091E3069081DC
:101C70008091DF06892309F065C00E946F062091DC
:101C8000E6063091E706890120E030E00855194E5C
:101C90002F4F3F4FDC01CB01800F911FA21FB31FBD
:101CA0008093E8069093E906A093EA06B093EB06CA
:101CB000E091E206F091E30690818091DF068923AE
:101CC00081F40E946F060091E8061091E9062091C8
:101CD000EA063091EB06061717072807390740F781
:101CE00031C00E946F062091E6063091E706DC01C4
:101CF000CB01820F931FA11DB11D8093E806909325
:101D0000E906A093EA06B093EB0682ED97E0909384
:101D10003101809330010E9411078091B6008F7DC0
:101D20008093B60082E08093B00084E08093B1009D
:101D30001092B20085E08093B300809170008260C1
:101D40008093700084E795E00E946F0880E895E03A
:101D50000E946F0884E595E00E94A507882309F496
:101D6000D4C080E695E00E94A5078111CAC0A8955D
:101D70000E9494066B017C0160E083E10E94A4054F
:101D800082E10E947B05082F81E10E947B058295FC
:101D9000880F880F807C182F30E8039F10191124BA
:101DA00080E10E947B05882E8FE00E947B05982EA3
:101DB0008EE00E947B05A82E83E00E947B05082F01
:101DC00084E00E947B05B82E82E00E947B05810F93
:101DD000182F40E2849E100D112450E1959E100DA5
:101DE000112488E0A89E100D1124000F000F010F90
:101DF000BB0C0B0D002E000C110B61E083E10E9467
:101E0000A40540916E0550916F059801241B350B78
:101E1000C90137FF04C088279927821B930B81389B
:101E20009105CCF0C90193953A95DC0197FF04C068
:101E3000AA27BB27A81BB90BF90137FF04C0EE275F
:101E4000FF27E21BF30BEA17FB070CF4C901BA01E9
:101E5000680F791F01C0B80180916A0590916B05E8
:101E6000A0916C05B0916D0546015701881A990A39
:101E7000AA0ABB0AC0926A05D0926B05E0926C0573
:101E8000F0926D0510936F0500936E058114910417
:101E9000A104B10439F1641B750B072E000C880BEB
:101EA000990B0E943A2220E030E046E155E40E947E
:101EB000902126E636E642EA51E40E945D236B015A
:101EC0007C01C501B4010E9438229B01AC01C7010D
:101ED000B6010E94902120E030E04AE754E40E94DD
:101EE0005D2303C060E070E0CB01609370057093E8
:101EF0007105809372059093730584E595E00E94C7
:101F00006F0880E695E00E946F0886E092E00E94EC
:101F1000A507882311F40C94561982E192E00E94DF
:101F2000A50762968FAF629781110C945219A895FC
:101F300020917005309171054091720550917305A3
:101F40002D962CAF3DAF4EAF5FAF2D9780916202C3
:101F500090916302A0916402B09165028DAB9EAB3B
:101F6000AFABB8AF8CE392E00E94A507882309F4D9
:101F700011C1C0905E02D0905F02E0906002F090CC
:101F8000610220E030E0A901C701B6010E9486216C
:101F900081111FC020E030E040E85FEB2D966CAD72
:101FA0007DAD8EAD9FAD2D970E94502387FD11C052
:101FB00020E030E040E85FE32D966CAD7DAD8EAD66
:101FC0009FAD2D970E94862118161CF080E090E0AE
:101FD000DBC02D962CAD3DAD4EAD5FAD2D97C7014D
:101FE000B6010E94EA204B015C010E9494066B013D
:101FF0007C0110915A0200915B0230905C022090AB
:102000005D029091560299AFA0915702ADAFB09189
:1020100058022696BFAF2697E09159022296EFAF5D
:1020200022972091460230914702409148025091F8
:102030004902C501B4010E945D23209152023091F2
:10204000530240915402509155020E94EB20619638
:102050006CAF7DAF8EAF9FAF619720914E023091F4
:102060004F024091500250915102C501B4010E94AB
:10207000EA202B013C018091400290914102A09105
:102080004202B0914302A7019601281B390B4A0B6B
:102090005B0BCA01B9010E9438229B01AC01C3014C
:1020A000B2010E94902120914A0230914B0240914E
:1020B0004C0250914D020E945D239B01AC01619640
:1020C0006CAD7DAD8EAD9FAD61970E94EB206B0135
:1020D0007C0129AD3DAD26964FAD269722965FAD8A
:1020E00022970E94502318164CF0B9ADADAD26963C
:1020F000FFAD26972296EFAD229704C0BC2DAD2DE3
:10210000FE2DEF2D212F302F432D522D6B2F7A2FA7
:102110008F2F9E2F0E94862187FF1BC029AD3DADCA
:1021200026964FAD269722965FAD2297B601C7013E
:102130000E94502318164CF019AD0DAD26963FACF9
:10214000269722962FAC229704C01C2D0D2D3E2CD5
:102150002F2C812F902FA32DB22D8093520290937C
:102160005302A0935402B093550280924E02909273
:102170004F02A0925002B0925102612F702F832D16
:10218000922D0E940222CB010E94AC088CE392E0C7
:102190000E946F088CE195E00E94A507882309F44E
:1021A0003CC10E94940621966CAF7DAF8EAF9FAF6D
:1021B00021978091200590912105A0912205B09151
:1021C000230529968CAF9DAFAEAFBFAF2997209066
:1021D0002605309027052D962CAD3DAD4EAD5FAD5B
:1021E0002D97D10118962D933D934D935C931B979A
:1021F0002DA93EA94FA958AD1C966D917D918D9149
:102200009C911F970E948621882309F4C2C02DA9A2
:102210003EA94FA958ADD1011C962D933D934D93E6
:102220005C931F9720E030E0A9016DA97EA98FA9DA
:1022300098AD0E94502387FF03C00FEF1FEF02C02D
:1022400001E010E0F101118B008B20E030E0A901EA
:102250006DA97EA98FA998AD0E945023FF24F39405
:1022600018166CF42DEC3CEC4CE45DE36DA97EA9F2
:102270008FA998AD0E948621181664F00CC02DEC31
:102280003CEC4CE45DEB6DA97EA98FA998AD0E9452
:10229000502387FDF12CF0923C05F1107AC06DA916
:1022A0007EA98FA998AD0E941C249B01AC0160E01F
:1022B00070E080EA91E40E9490214B015C01609300
:1022C00028057093290580932A0590932B05B80162
:1022D000110F880B990B0E943A222B013C0120E040
:1022E00030E040E051E40E945D2369AF7AAF8BAFEC
:1022F0009CAF9B01AC01C501B4010E94EB206B01B6
:102300007C019B01AC010E945D2323EC35EF48E387
:1023100054E40E94EB200E94D823A30192010E9462
:102320005D2360933005709331058093320590935F
:10233000330529AD3AAD4BAD5CADC501B4010E948A
:10234000EA2060932C0570932D0580932E059093C1
:102350002F05C0923805D0923905E0923A05F092E7
:102360003B059B01AC010E945D2320E030E048EC7E
:1023700053E40E94EB200E94D823A30192010E9403
:102380005D236093340570933505809336059093F3
:10239000370580913C0581113CC021966CAD7DAD27
:1023A0008EAD9FAD219729962CAD3DAD4EAD5FAD65
:1023B0002997621B730B840B950B28EE33E040E0EA
:1023C00050E00E947E24CA01B9010E9438222D9655
:1023D0002CAD3DAD4EAD5FAD2D970E945D2320919C
:1023E00038053091390540913A0550913B050E94DE
:1023F00090219B01AC01D10152966D917D918D91FF
:102400009C9155970E94EB20F101628B738B848B1A
:10241000958B8CE195E00E946F088091890288235A
:1024200009F45CC18AE892E00E94A507882309F4B8
:10243000D0C000911A0510911B052CE030E02796C2
:102440003FAF2EAF27971EAE1DAE8DAD9EAD019650
:102450006CE070E00E946A249EAF8DAF23E0880F8D
:10246000991F2A95E1F720911A0530911B05A901C2
:10247000480F591F5AAF49AFD8018D909D90AD902C
:10248000BC9013978092060590920705A0920805CC
:10249000B092090514962D913D914D915C9117973D
:1024A00020930A0530930B0540930C0550930D05BE
:1024B000E9ADFAAD64817581868197810E94EA2039
:1024C0006B017C01A5019401A9ADBAAD6D917D911F
:1024D0008D919C910E94EA204B015C019B01AC0113
:1024E0000E945D232B013C01A7019601C701B601A3
:1024F0000E945D239B01AC01C301B2010E94EB204D
:102500000E94D82320E030E040E05EE30E945D239B
:102510000E9402227093170560931605072E000C87
:10252000880B990B0E943A222B013C019B01AC01C4
:10253000C501B4010E94902160930E0570930F05B0
:102540008093100590931105A3019201C701B60174
:102550000E949021609312057093130580931405D7
:102560009093150510921905109218056091940228
:1025700070919502CE01C3960E946803EBA8FCA857
:10258000212C312C3CE0D32E609118057091190557
:102590008091160590911705681779070CF0B5C65C
:1025A000F3E12F1631040CF4A1C7AFC627964EAD48
:1025B0005FAD27974150510927965FAF4EAF2797E0
:1025C00009AD1AAD452B09F040CF8AE892E00E9490
:1025D0006F08E0911002F0911102E554F84F8081EC
:1025E00081117CC0D090D8048091DC049091DD04EE
:1025F000FE01739620E07F013091DB043C3058F4FB
:10260000DC01A30FB11D4C9141932F5F3F5F3093CD
:10261000DB04243089F78091DB048E010F5F1F4FAC
:102620008C30C9F51092DB042223A9F181E08D0DD5
:102630008093D80431E0803311F030E002C0109272
:10264000D8044091D8048091D9049091DA045CE0D8
:10265000459F800D911D11249093DD048093DC042F
:10266000311119C0243011F00C94741B14C02C309B
:1026700070F4DC01A20FB11D4C9141932F5F2093A8
:10268000DB042091DB044E2F401B431784F32C30D6
:1026900011F41092DB04A0901002B090110280910E
:1026A00004028D0D8D830E946807880F991F880F83
:1026B000991FFC01E252FE4F80819181A281B3817A
:1026C00089839A83AB83BC83BE016A5F7F4FC70156
:1026D0000E949907B501C8010E94EB00E091100229
:1026E000F0911102E954F84F8081AA968FAFAA9712
:1026F0008823D9F010828091880790918907A09152
:102700008A07B0918B0780933D0590933E05A09377
:102710003F05B093400580918C078093410562E4AA
:1027200075E08DE897E00E94990780911C029091D6
:102730001D028130910509F418C5029709F0AEC554
:1027400021EE3EE245E652E46091A2057091A305B8
:102750008091A4059091A5050E945D239B01AC0189
:102760006DA97EA98FA998AD0E94EA206B017C011A
:1027700020E030E0A9010E945023181624F0F7FA57
:10278000F094F7F8F094FEEBAF2EF5E0BF2E27960D
:102790001FAE1EAE279701E010E021EE3EE245E6B7
:1027A00052E4D5016D917D918D919C910E945D23A4
:1027B0009B01AC016DA97EA98FA998AD0E94EA206A
:1027C0002B013C0120E030E0A9010E9450231816A3
:1027D00024F077FA709477F87094A7019601C301FA
:1027E000B2010E94862187FF06C027961FAF0EAF59
:1027F0002797730162010F5F1F4FBCE1AB0EB11C45
:102800000C30110551F627968EAD9FAD2797959503
:1028100087952796EEADFFAD27971C0136971CF0E4
:10282000F3E02F0E311C69963FAE2EAE699726E479
:1028300035E0A5963FAF2EAFA59722961FAE229703
:102840002E961FAE2E9766961FAE669767961FAEA2
:10285000679769962EAD3FAD6997C90101966CE007
:1028600070E00E946A2469969FAF8EAF699763E01B
:10287000220F331F6A95E1F72C583A4FF901ED56B4
:10288000FE4F80819181A281B3816F968CAF9DAF05
:10289000AEAFBFAF6F978093060590930705A093E7
:1028A0000805B09309053496208131814281538116
:1028B000A3962CAF3DAF4EAF5FAFA39720930A0511
:1028C00030930B0540930C0550930D0569960EADA2
:1028D0001FAD699773E0000F111F7A95E1F70C584F
:1028E0001A4FF801E956FE4F608171818281938110
:1028F0000E94EA202B013C01F801ED56FE4F6F9635
:102900002CAD3DAD4EAD5FAD6F9760817181828121
:1029100093810E94EA206B017C019B01AC010E9423
:102920005D234B015C01A3019201C301B2010E942E
:102930005D239B01AC01C501B4010E94EB200E9404
:10294000D82320E030E040E251E40E94902120E0D2
:1029500030E040E85FE30E94EB204B015C0120E0A7
:1029600030E040EA50E40E94862187FF06C0C5019E
:10297000B4010E9402228B0102C005E010E0109316
:10298000170500931605B801012E000C880B990B52
:102990000E943A224B015C019B01AC01C301B201D0
:1029A0000E949021AF966CAF7DAF8EAF9FAFAF9777
:1029B000A5019401C701B6010E949021E3966CAF76
:1029C0007DAF8EAF9FAFE39760930E0570930F05B9
:1029D0008093100590931105AF968CAD9DADAEAD73
:1029E000BFADAF978093120590931305A093140584
:1029F000B093150510921905109218056A961FAE2E
:102A00006A976091180570911905601771070CF0AD
:102A1000F7C2CB0101969093190580931805072EF4
:102A2000000C880B990B0E943A226B017C019B01E0
:102A3000AC01AF966CAD7DAD8EAD9FADAF970E94F2
:102A40005D239B01AC01A3966CAD7DAD8EAD9FADBA
:102A5000A3970E94EB206DAB7EAB8FAB98AFA70125
:102A60009601E3966CAD7DAD8EAD9FADE3970E9470
:102A70005D239B01AC016F966CAD7DAD8EAD9FADBE
:102A80006F970E94EB204B015C0180913C058823ED
:102A900009F470C0A501940160E070E080E091EC61
:102AA0000E94EA206B017C0120E030E0A9010E9435
:102AB0005023181624F0F7FAF094F7F8F094A501D3
:102AC000940160E070E080E091E40E94EA202B0134
:102AD0003C0120E030E0A9010E945023181624F0A8
:102AE00077FA709477F8709420E030E040E051EC91
:102AF000C501B4010E94502387FD11C020E030E0E1
:102B000040E051E4C501B4010E94862118163CF052
:102B1000812C912C50E8A52E5FEBB52E06C0812CA0
:102B2000912C40E8A42E4FE3B42EA3019201C701DB
:102B3000B6010E94862187FD05C0742D652D962D56
:102B4000872D04C07C2D6D2D9E2D8F2D272F362F88
:102B5000492F582FC501B4010E945D234B015C0130
:102B600020E030E040E050E40E94862118160CF08E
:102B7000D2C5E4C1409028055090290560902A05EF
:102B800070902B05D301C201B0588B8B9C8BAD8B01
:102B9000BE8B1F8A188E198E1A8EA3019201C50151
:102BA000B4010E94EB20E7966CAF7DAF8EAF9FAF74
:102BB000E79769837A838B839C8320E030E040E24F
:102BC00051E46DA97EA98FA998AD0E94EB204B011D
:102BD0005C016D837E838F839887A0912605B091D9
:102BE0002705E996BFAFAEAFE99750964D915C913E
:102BF0005197BE016F5F7F4FCE0143960E949801AF
:102C0000ED966CAF7DAF8EAF9FAFED9720912C0509
:102C100030912D0540912E0550912F0529AF3AAFE7
:102C20004BAF5CAF20E030E0A90169AD7AAD8BAD70
:102C30009CAD0E945023181664F089AD9AADABADDF
:102C4000BCADB05821968CAF9DAFAEAFBFAF219752
:102C50000AC029AD3AAD4BAD5CAD21962CAF3DAF6E
:102C60004EAF5FAF2197C0903005D0903105E09016
:102C70003205F090330520E030E0A901C701B6012C
:102C80000E945023181624F0F7FAF094F7F8F09405
:102C9000A3019201E7966CAD7DAD8EAD9FADE79738
:102CA0000E94EB209B01AC010E945D232B013C01A3
:102CB000A5019401C501B4010E945D239B01AC01F3
:102CC000C301B2010E94EB200E94D8234B015C019A
:102CD00021962CAD3DAD4EAD5FAD21970E94EA200F
:102CE0006DAB7EAB8FAB98AF20E030E0A9010E94C6
:102CF000502318164CF08DA99EA9AFA9B8ADB058B5
:102D00008DAB9EABAFABB8AFA7019601C501B401C7
:102D10000E94EA202B013C0120E030E0A9010E9442
:102D20005023181624F077FA709477F8709421964F
:102D30002CAD3DAD4EAD5FAD2197C701B6010E94F0
:102D4000502387FD0FC021962CAD3DAD4EAD5FAD3C
:102D50002197C501B4010E94502387FD1EC0A70121
:102D600096010EC0A7019601C501B4010E9450232F
:102D700087FD13C021962CAD3DAD4EAD5FAD2197C3
:102D8000C501B4010E94862118163CF0C12CD12C3B
:102D900030E8E32E3FEBF32E06C0C12CD12C20E807
:102DA000E22E2FE3F22EA30192016DA97EA98FA935
:102DB00098AD0E94862187FD05C0742D652D962D46
:102DC000872D04C07DA96EA99FA988AD272F362F16
:102DD000492F582FC701B6010E945D234B015C01AA
:102DE00020E030E040E050E40E94862118160CF408
:102DF000A5C029AD3AAD4BAD5CAD60913405709185
:102E0000350580913605909137050E94EA206B01C7
:102E10007C0120E030E0A9010E945023A701960127
:102E20001816A4F0505821962CAF3DAF4EAF5FAFAF
:102E30002197C301B2010E94862187FD0DC07DAD9F
:102E40006EAD9FAD21968FAD21970AC0C301B2012F
:102E50000E94862187FF90C4742D652D962D872DA5
:102E6000272F362F492F582F6DA97EA98FA998ADEE
:102E70000E94862187FF2AC029AD3AAD4BAD5CADDB
:102E800060E070E080EA91E40E9490210E94572166
:102E90002B013C0120E030E0A901C701B6010E94EE
:102EA0005023181624F0F7FAF094F7F8F094A701DD
:102EB00096016DA97EA98FA998AD0E9490219B01D2
:102EC000AC01C301B2010E945D230CC029AD3AAD33
:102ED0004BAD5CAD60E070E080EA91E40E9490212F
:102EE0000E9457219B01AC01ED966CAD7DAD8EAD7E
:102EF0009FADED970E94EA20209138053091390569
:102F000040913A0550913B050E945D23E996AEAD94
:102F1000BFADE99718962D913D914D915C911B970E
:102F20000E949021A6966FAFA697A7967FAFA7970E
:102F3000A8968FAFA897A9969FAFA99720E030E0F9
:102F400040E050E4C501B4010E94862118160CF43B
:102F500058CD6A96BFAD6A97BB23A9F122962FADD3
:102F600022972E963FAD2E9766964FAD6697679641
:102F70005FAD6797A6966FADA697A7967FADA7970B
:102F8000A8968FADA897A9969FADA9970E94862174
:102F900087FF37CDA6965FADA69722965FAF2297A3
:102FA000A7968FADA7972E968FAF2E97A8969FAD19
:102FB000A89766969FAF6697A996AFADA9976796B3
:102FC000AFAF67971ECDA696EFADA6972296EFAF4F
:102FD0002297A796FFADA7972E96FFAF2E97A8969C
:102FE0002FADA89766962FAF6697A9963FADA99784
:102FF00067963FAF679741E06A964FAF6A9701CDFA
:103000006A96BFAD6A97BB2369F022968FAD22976F
:103010002E969FAD2E976696AFAD66976796BFAD1D
:10302000679703C080E090E0DC01A596EEADFFADB0
:10303000A59781939193A193B193A596FFAFEEAF1E
:10304000A597E255F54009F004CC1091520527965A
:10305000EEADFFAD2797E219F309EE0FFF1FEE0F5C
:10306000FF1FEA5BFA4FC080D180E280F380A701A6
:103070009601C701B6010E94862181111AC020E085
:1030800030E0A901C701B6010E94502318168CF444
:1030900031E062963FAF62972DEC3CEC4CE45FE38D
:1030A000C701B6010E94862118161CF462961FAE55
:1030B000629762968FAD6297812B809352051111B2
:1030C00054C0882309F451C020E030E0A9012D96B6
:1030D0006CAD7DAD8EAD9FAD2D970E94502318161F
:1030E0006CF4E4EDF0E0E219F309EE0FFF1FEE0FD0
:1030F000FF1FEA5FFD4FA1EDB0E00CC0E7EDF0E08F
:10310000E219F309EE0FFF1FEE0FFF1FEA5FFD4FFD
:10311000AAEDB0E0A219B309AA0FBB1FAA0FBB1FEB
:10312000AA5FBD4F2D913D914D915C916081718160
:10313000828193810E94502318162CF466E676E66D
:103140008CE892E404C066E676E68CE892EC609344
:1031500062027093630280936402909365020E94FE
:10316000370185E792E00E946F08AA964FADAA97B3
:10317000442309F45DC080913D0590913E05823065
:103180009105D9F01CF4019739F04DC083309105B9
:1031900039F1089771F147C080915305811143C0FF
:1031A00082E495E00E94250160935E0270935F02C5
:1031B000809360029093610236C080915205811124
:1031C00032C082E495E00E94250160936202709310
:1031D000630280936402909365020E94370123C0CA
:1031E00082E495E00E94250170931D0260931C0209
:1031F00012C082E495E00E94250121E0672B682B34
:10320000692B09F420E020938902222321F08AE827
:1032100092E00E946F08609110027091110281ED9E
:1032200091E00E94EB008BE692E00E946F080DC0D7
:103230008BE692E00E94A507882339F08FE792E0A1
:103240000E946F0881E08093530580915205882386
:1032500061F085E792E00E94A507882331F0109283
:103260007E0210927D0210925205809153058823B0
:10327000A9F08FE792E00E94A507882339F0109209
:103280008802109287021092530508C010925E02C5
:1032900010925F02109260021092610286E092E04A
:1032A0000E946F0882E192E00E946F080E94F00481
:1032B0000C943A0A8091EC069091ED062CE1289F3F
:1032C000F001299FF00D1124EC58FA4F88EC90E0A2
:1032D000918F808F1092EE060E9411070C94C80BFC
:1032E000E614F70414F40C94330D0AC06E147F0432
:1032F00014F40C94330D6615770514F40C94330D07
:103300000F5F1F4F20E00C94340DB801CE01C19621
:103310000E94680369AD7AADCE018F960E94680362
:10332000FBA8F9828CA98A8349A94B839AA99C831B
:103330002FA52D8328A92E83242F392F4F1510F068
:103340002F2DF42E981710F0382F892F9D81EE80A5
:10335000921720F0F91608F4F92E922FE31620F0B8
:103360008E1508F48E2DE32E892E912C4CE0E49ED0
:10337000900111246B963FAF2EAF6B97282F30E052
:10338000AD963FAF2EAFAD976B962EAD3FAD6B9721
:103390002E563F4FE1963FAF2EAFE1978F2D90E035
:1033A000881599050CF402C9AE2CB12CC82C882DB7
:1033B000837090E09C01220F331FA1963FAF2EAF88
:1033C000A197282D269526956B964EAD5FAD6B97F0
:1033D000420F511DA5965FAF4EAFA597612C712C82
:1033E0009C0120503F4FAB963FAF2EAFAB97AD96B1
:1033F0002EAD3FADAD972A153B050CF473C06C960E
:10340000AFAE6C978CA9DBA84C2C4D184DA69A2D0D
:10341000981B9EA73AA949A95C2D541B66965FAFDD
:1034200066975BA79A2D931B9CA798A92FA55C2D47
:10343000521B67965FAF679759A75A2D591B5AA71A
:10344000542F5D1968965FAF68975FA3532F581B81
:1034500058A7522E541A5DA2A92FA31BAEA3D21AAD
:10346000DB8A891B8C8BBE01635D7F4FCE01879603
:103470000E94DF0223969FAF8EAF2397BE01655D4A
:103480007F4FCE0185960E94DF028C01BE01675DF1
:103490007F4FCE0143960E94DF022F969FAF8EAFE3
:1034A0002F9723962EAD3FAD2397232B41F468969B
:1034B0006FAD6897842D0E94D902882361F00115B1
:1034C000110509F09CC0652D66968FAD66970E9428
:1034D000D902811194C0FFEFAF1ABF0A2CE0620E2F
:1034E000711C85CF3FEF831A930A58CFCB01019609
:1034F0009093190580931805072E000C880B990BE3
:103500000E943A224B015C01209112053091130573
:1035100040911405509115050E945D2320910A05E4
:1035200030910B0540910C0550910D050E94EB2048
:103530002B013C0120910E0530910F0540911005A3
:1035400050911105C501B4010E945D239B01AC019E
:103550006091060570910705809108059091090515
:103560000E94EB2069837A838B839C834D825E82E9
:103570006F827886BE016F5F7F4FCE0143960E94B7
:1035800068036B898C896E1102C08F15A9F1262FF3
:10359000237030E0D901A050BF4FD89EC001112444
:1035A000462F46954695FC01E40FF11DE856FD4F68
:1035B0005C914081452350E0220F331F02C0559596
:1035C00047952A95E2F7433051052CF44F5F885612
:1035D0009D4F0E9481076B89FC88F101EE0FFF1F50
:1035E000E252FB4F6083F101EE0FFF1FE152FB4FF0
:1035F000F082F10131961F01E62E0C94C4122F9631
:103600004EAD5FAD2F97452B49F46D2D67968FAD6D
:1036100067970E94D902882309F45DCF002E000C21
:10362000110B22965FAD2297050F111D57FD1A95BC
:103630002E968FAD2E97080F111D87FD1A9517FF37
:1036400003C0119501951109023011050CF443CF07
:10365000EFEDF4E020E030E022153305B9F0DF01B2
:1036600011978C918C1108C080816C964FAD6C972E
:10367000841302C0C90102C08FEF9FEF2F5F3F4F3D
:1036800032968F3F5FEF950739F302C08FEF9FEFC0
:10369000019609F020CFA596EEADFFADA597E60DFA
:1036A000F71DE856FD4F4081AB96EEADFFADAB97F1
:1036B0008081482350E0A0960FACA09702C055959A
:1036C00047950A94E2F74115510509F404CF41509A
:1036D0006C2DE1968EAD9FADE197860D971D8A5FAB
:1036E0009D4F0E948107F7CEB801C701820F911D3F
:1036F00027FD9A95EE962FAFEE970E94990734E03A
:10370000EE962FADEE97321B8091DC049091DD0494
:10371000F8010C94411320E030E0A9016DA97EA9C5
:103720008FA998AD0E94502318162CF02AE939E988
:1037300049E851EC04C02AE939E949E851E46DA9A6
:103740007EA98FA998AD0E94EA20E0912605F0910C
:10375000270520853185428553850E949021A696B4
:103760006FAFA697A7967FAFA797A8968FAFA8979A
:10377000A9969FAFA997EDCBA70196016DA97EA948
:103780008FA998AD0E94862187FFA0CB29AD3AADC5
:103790004BAD5CAD60E070E080EA91E40E94902166
:1037A0000E9457212B013C0182CB2F923F924F92D6
:1037B0005F926F927F928F929F92AF92BF92CF92C1
:1037C000DF92EF92FF920F931F93CF93DF931092AC
:1037D00037011092360188EE882E83E0982EA12CB6
:1037E000B12C8092380190923901A0923A01B092A6
:1037F0003B0186E191E0909335018093340185ECA3
:1038000090E0909341018093400184EC90E090938C
:1038100043018093420180EC90E0909345018093B6
:10382000440181EC90E0909347018093460182EC43
:1038300090E0909349018093480186EC90E090934A
:103840004B0180934A0110924D0110924E0110924B
:103850004F01109250011092DF011092DE01109280
:10386000E0012FEF2093E10181E090E09093E301EC
:103870008093E20131E03093E4012093E501C2E05E
:10388000D0E0D093E701C093E60142E04093E80125
:103890002093E90103E010E01093EB010093EA01AB
:1038A00043E04093EC012093ED0144E0242E312CC1
:1038B0003092EF012092EE0145E04093F001209319
:1038C000F10155E0A52EB12CB092F301A092F201C6
:1038D00046E04093F4012093F50146E050E0509318
:1038E000F7014093F60147E04093F8012093F90176
:1038F00067E070E07093FB016093FA0148E0409349
:10390000FC0148EF4093FD01A8E0B0E0B093FF0157
:10391000A093FE0144E0409300022093010249E09D
:1039200050E0509303024093020240E440930402AB
:1039300040EC409305024FE74093DA012093DB010E
:103940002093DC012093DD011092C3071092C4077D
:103950001092C5073093C6071092BF071092C00798
:103960001092C1071092C2074091DE015091DF0111
:103970006091E0017091E1014093D1015093D20137
:103980006093D3017093D4011092D5011092D601A7
:103990001092D7011092D8011092D90144E150E061
:1039A00060E070E040936707509368076093690791
:1039B00070936A079093700780936F0768EE862E66
:1039C00063E0962EA12CB12C80927307909274071D
:1039D000A0927507B092760790937C0780937B073F
:1039E000A091C707B091C807B0937207A093710761
:1039F0001092B6071092B5074FE050E060E070E01B
:103A00004093740550937505609376057093770520
:103A100090937D0580937C0544E650E060E070E083
:103A200040938005509381056093820570938305D0
:103A30009093890580938805AD014F5F5F4F509348
:103A40007F0540937E05E4E1F1E0E491E093DE063A
:103A5000E5E1F1E0E491E093DF0640E051E0FA01B6
:103A60003491E32FF0E0EE0FFF1FE651FF4F659119
:103A700074917093E1066093E006E1E0F1E0E49177
:103A8000F0E0EE0FFF1FE052FF4F659174917093CD
:103A9000E3066093E206FA014491E42FF0E0EE0FB2
:103AA000FF1FEA52FF4F659174917093E506609392
:103AB000E40641EC5CE25093E7064093E6065AE0E8
:103AC000852E912CA12CB12C8092FD069092FE06A1
:103AD000A092FF06B0920007909306078093050717
:103AE0001092EF0640E050E060E870E440939A05E1
:103AF00050939B0560939C0570939D05C12CD12C20
:103B0000E12C60E4F62EC0929E05D0929F05E092D3
:103B1000A005F092A10549EA55ED63E874E44093ED
:103B2000A2055093A3056093A4057093A5054BE0EF
:103B300050E050938B0540938A0576E6872E982CAB
:103B400076EEA72E70E4B72E8092B6059092B70558
:103B5000A092B805B092B90540E050E060E271E48F
:103B60004093BA055093BB056093BC057093BD05A7
:103B7000EDEE8E2EE7E09E2EE4E8AE2EE4ECBE2EB7
:103B80008092BE059092BF05A092C005B092C1057B
:103B9000ECE0F0E0F093A705E093A605FAE98F2E9C
:103BA000F9E99F2EF9E1AF2EF0E4BF2E8092D20505
:103BB0009092D305A092D405B092D5054093D60536
:103BC0005093D7056093D8057093D9051092DA0504
:103BD0001092DB051092DC051092DD059093C30571
:103BE0008093C2053AE9432E39E9532E39E1632E19
:103BF00030EC732E4092EE055092EF056092F00586
:103C00007092F1054093F2055093F3056093F4052B
:103C10007093F5051092F6051092F7051092F805CD
:103C20001092F905D093DF05C093DE05E6E68E2EEF
:103C3000982CE6EEAE2EE0ECBE2E80920A06909214
:103C40000B06A0920C06B0920D0640930E06509300
:103C50000F0660931006709311064DEE57E064E86E
:103C600074E4409312065093130660931406709305
:103C700015061093FB050093FA0540E050E060E85C
:103C800070EC4093260650932706609328067093A5
:103C90002906C0922A06D0922B06E0922C06F092BA
:103CA0002D06F9EACF2EF5EDDF2EF3E8EF2EF4EC3A
:103CB000FF2EC0922E06D0922F06E0923006F09290
:103CC0003106309217062092160640934206509312
:103CD00043066093440670934506C6E6CC2EDC2C62
:103CE000EC2CC0E4FC2EC0924606D0924706E0922F
:103CF0004806F092490641E35AE364E874E44093CD
:103D00004A0650934B0660934C0670934D06D5E0DF
:103D1000AD2EB12CB0923306A092320646E656E69E
:103D200066EE70EC40935E0650935F06609360060B
:103D30007093610640E050E060E271EC40936206EF
:103D400050936306609364067093650615E6812EB2
:103D500013EA912E13E8A12E14ECB12E8092660680
:103D600090926706A0926806B092690606E0A02EBF
:103D7000B12CB0924F06A0924E0640927A06509215
:103D80007B0660927C0670927D0640937E0650937F
:103D90007F0660938006709381063BED432E3FE0E3
:103DA000532E39E4632E30E4732E409282065092F3
:103DB00083066092840670928506E7E0F0E0F09357
:103DC0006B06E0936A06EAE98E2EE9E99E2EE9E1A8
:103DD000AE2EE0E4BE2E8092960690929706A092B8
:103DE0009806B092990640939A0650939B0660936A
:103DF0009C0670939D0640929E0650929F0660928C
:103E0000A0067092A106F8E0AF2EB12CB092870602
:103E1000A0928606C6E68C2E982CC6EEAC2EC0E488
:103E2000BC2E8092B2069092B306A092B406B092D5
:103E3000B5064093B6065093B7066093B8067093E4
:103E4000B90645E653EA63E874E44093BA06509332
:103E5000BB066093BC067093BD064DE050E05093E6
:103E6000A3064093A20640E050E060E870E440936F
:103E7000CE065093CF066093D0067093D106C092C1
:103E8000D206D092D306E092D406F092D50641E352
:103E90005AE364E874EC4093D6065093D7066093D7
:103EA000D8067093D9064AE050E05093BF0640937D
:103EB000BE06DFE08D2E912CA12CB12C80925405F2
:103EC00090925505A0925605B092570590935D05C6
:103ED00080935C0548EC50E060E070E04093600542
:103EE0005093610560936205709363059093690533
:103EF00080936805AD014E5F5F4F50935F0540931F
:103F00005E0545E050E060E070E0409306025093AB
:103F10000702609308027093090290930F02809346
:103F20000E0242E350E060E070E0409312025093D2
:103F30001302609314027093150290931B028093F6
:103F40001A02AD014C5F5F4F5093C8074093C707FB
:103F50001396B0931102A093100290931D028093C8
:103F60001C0210921E0210921F0210922002109248
:103F70002102109222021092230210922402109227
:103F80002502109226021092270210922802109207
:103F9000290210922A0210922B0210922C021092E7
:103FA0002D024BED5FE069EC7FE3409330025093CC
:103FB00031026093320270933302109234021092F5
:103FC0003502109236021092370240E050E060E86D
:103FD0007FE3409338025093390260933A02709322
:103FE0003B024AE050E060E070E040933C025093B6
:103FF0003D0260933E0270933F029093450280938E
:10400000440240E050E060E07FE34093460250937A
:10401000470260934802709349024DEC5CEC6CECF3
:104020007DE340934A0250934B0260934C0270939D
:104030004D0210924E0210924F02109250021092B6
:104040005102109252021092530210925402109296
:10405000550240E050E06FE773EC409356025093F6
:104060005702609358027093590240E050E06FE7A6
:1040700073E440935A0250935B0260935C02709326
:104080005D02109266022093670232E2309368026A
:1040900036E93093690218EE812E13E0912EA12C9F
:1040A000B12C80926B0290926C02A0926D02B09241
:1040B0006E02909374028093730244EF51E060E0CB
:1040C00070E040937502509376026093770270938C
:1040D000780210927E0210927D0208EBC02E0BE057
:1040E000D02EE12CF12CC0927F02D0928002E0927F
:1040F0008102F0928202109288021092870240930D
:104100008A0250938B0260938C0270938D0290937D
:104110009302809392028EE192E0909395028093B5
:1041200094022093D8042093DB0487E097E09093D7
:104130001B0580931A0510E0C0E0D0E040E0612F3D
:10414000CE0188569D4F0E9481072C96C03442E0D4
:10415000D407A1F71F5F103379F788E992E09093B5
:10416000DA048093D9041092D8049093DD048093EC
:10417000DC041092DB0482E390E0A0E0B0E08093E6
:104180001C0590931D05A0931E05B0931F0581E0AB
:1041900090E090932505809324058EE192E0909322
:1041A0002705809326051092520510925305DF9142
:1041B000CF911F910F91FF90EF90DF90CF90BF9024
:1041C000AF909F908F907F906F905F904F903F90B7
:1041D0002F9008955058BB27AA270E9402210C94C3
:1041E00002230E94C92238F00E94D02220F039F424
:1041F0009F3F19F426F40C949F220EF4E095E7FB00
:104200000C949922E92F0E94272358F3BA176207CA
:1042100073078407950720F079F4A6F50C944923D9
:104220000EF4E0950B2EBA2FA02D0B01B9019001D1
:104230000C01CA01A0011124FF27591B99F0593F15
:1042400050F4503E68F11A16F040A22F232F342F5D
:104250004427585FF3CF469537952795A795F040AB
:104260005395C9F77EF41F16BA0B620B730B840BC0
:10427000BAF09150A1F0FF0FBB1F661F771F881F78
:10428000C2F70EC0BA0F621F731F841F48F48795D0
:1042900077956795B795F7959E3F08F0B0CF9395C2
:1042A000880F08F09927EE0F979587950895DF936B
:1042B000DD27B92FBF7740E85FE3161617064807DA
:1042C0005B0718F4D92F0E9455239F938F937F93F8
:1042D0006F930E941824E8E6F0E00E94A2220E9458
:1042E00002232F913F914F915F910E947023DD2314
:1042F00051F09058A2EA2AED3FE049EC5FE3D07814
:104300005D270E940221DF910C9402230E947522F6
:1043100008F481E008950E94D922E3950C941323B8
:104320000E94A4210C9402230E94D02258F00E94E3
:10433000C92240F029F45F3F29F00C9499225111D1
:104340000C944A230C949F220E94272368F39923FC
:10435000B1F3552391F3951B550BBB27AA27621781
:104360007307840738F09F5F5F4F220F331F441F8E
:10437000AA1FA9F335D00E2E3AF0E0E832D09150C2
:104380005040E695001CCAF72BD0FE2F29D0660FAF
:10439000771F881FBB1F261737074807AB07B0E8F2
:1043A00009F0BB0B802DBF01FF2793585F4F3AF0F8
:1043B0009E3F510578F00C9499220C944A235F3F5C
:1043C000E4F3983ED4F3869577956795B795F7957E
:1043D0009F5FC9F7880F911D9695879597F9089566
:1043E000E1E0660F771F881FBB1F62177307840702
:1043F000BA0720F0621B730B840BBA0BEE1F88F711
:10440000E09508950E9409226894B1110C944A2302
:1044100008950E942F2388F09F5798F0B92F99276D
:10442000B751B0F0E1F0660F771F881F991F1AF09F
:10443000BA95C9F714C0B13091F00E944923B1E098
:1044400008950C944923672F782F8827B85F39F097
:10445000B93FCCF3869577956795B395D9F73EF438
:1044600090958095709561957F4F8F4F9F4F0895E0
:10447000E89409C097FB3EF49095809570956195FE
:104480007F4F8F4F9F4F9923A9F0F92F96E9BB27B4
:104490009395F695879577956795B795F111F8CF30
:1044A000FAF4BB0F11F460FF1BC06F5F7F4F8F4F9B
:1044B0009F4F16C0882311F096E911C0772321F091
:1044C0009EE8872F762F05C0662371F096E8862F29
:1044D00070E060E02AF09A95660F771F881FDAF780
:1044E000880F9695879597F90895990F0008550FAD
:1044F000AA0BE0E8FEEF16161706E807F907C0F06A
:1045000012161306E407F50798F0621B730B840B71
:10451000950B39F40A2661F0232B242B252B21F44B
:1045200008950A2609F4A140A6958FEF811D811DEB
:10453000089597F99F6780E870E060E008959FEF25
:1045400080EC0895DF93CF931F930F93FF92EF9228
:10455000DF927B018C01689406C0DA2EEF010E9485
:104560007023FE01E894A5912591359145915591CF
:10457000A6F3EF010E940221FE019701A801DA943F
:1045800069F7DF90EF90FF900F911F91CF91DF912E
:10459000089500240A9416161706180609060895A9
:1045A00000240A94121613061406050608950C94A6
:1045B0009F220E942F23D8F3E894E0E0BB279F5767
:1045C000F0F02AED3FE049EC06C0EE0FBB0F661F8E
:1045D000771F881F28F0B23A62077307840728F014
:1045E000B25A620B730B840BE3959A9572F780387D
:1045F00030F49A95BB0F661F771F881FD2F790483B
:104600000C944324092E0394000C11F4882352F0D7
:10461000BB0F40F4BF2B11F460FF04C06F5F7F4FEE
:104620008F4F9F4F0895EF93E0FF07C0A2EA2AED56
:104630003FE049EC5FEB0E9402210E9402230F90B1
:10464000039401FC9058E5E9F0E00C94562457FDE2
:104650009058440F551F59F05F3F71F04795880FF0
:1046600097FB991F61F09F3F79F087950895121687
:1046700013061406551FF2CF4695F1DF08C0161633
:1046800017061806991FF1CF8695710561050894E4
:104690000895E894BB2766277727CB0197F90895FB
:1046A0000E94752208F48FEF08959B01AC0160E031
:1046B00070E080E89FE30C9490210E9470230C949A
:1046C00002230E94C92238F00E94D02220F09523B4
:1046D00011F00C9499220C949F2211240C944A23DB
:1046E0000E94272370F3959FC1F3950F50E0551F4B
:1046F000629FF001729FBB27F00DB11D639FAA2737
:10470000F00DB11DAA1F649F6627B00DA11D661F85
:10471000829F2227B00DA11D621F739FB00DA11DA6
:10472000621F839FA00D611D221F749F3327A00D60
:10473000611D231F849F600D211D822F762F6A2FFC
:1047400011249F5750409AF0F1F088234AF0EE0F61
:10475000FF1FBB1F661F771F881F91505040A9F78E
:104760009E3F510580F00C9499220C944A235F3FA0
:10477000E4F3983ED4F3869577956795B795F795CA
:10478000E7959F5FC1F7FE2B880F911D9695879542
:1047900097F908959F930E94D9220F9007FCEE5F2E
:1047A0000C94132319F416F40C949F220C944124B6
:1047B0000E942F23B8F39923C9F3B6F39F57550BE3
:1047C00087FF0E944F240024A0E640EA9001805811
:1047D0005695979528F4805C660F771F881F20F008
:1047E00026173707480730F4621B730B840B202908
:1047F00031294A2BA69517940794202531254A275D
:1048000058F7660F771F881F20F0261737074807CD
:1048100030F4620B730B840B200D311D411DA095EC
:1048200081F7B901842F9158880F9695879508953F
:104830009B01AC010C945D23DF93D92F0E94D922F8
:10484000E695D7952AED3FE049E45FE3B33A620786
:10485000730784079507D7953AF0A2EA49EC906868
:104860000E9402210E940223E3EBF0E00E94562402
:10487000DD0F13F00E945523DD0F0BF49058DF91EC
:1048800008959F3F31F0915020F487957795679573
:10489000B795880F911D9695879597F90895915032
:1048A0005040660F771F881FD2F708959F938F930C
:1048B0007F936F93FF93EF939B01AC010E945D2365
:1048C000EF91FF910E94A2222F913F914F915F9112
:1048D0000C945D2397FB072E16F4009407D077FD08
:1048E00009D00E94C72407FC05D03EF4909581951D
:1048F0009F4F0895709561957F4F0895A1E21A2EFC
:10490000AA1BBB1BFD010DC0AA1FBB1FEE1FFF1F73
:10491000A217B307E407F50720F0A21BB30BE40BC3
:10492000F50B661F771F881F991F1A9469F760950A
:104930007095809590959B01AC01BD01CF010895C4
:10494000052E97FB1EF400940E94B72457FD07D054
:104950000E947E2407FC03D04EF40C94B72450959B
:104960004095309521953F4F4F4F5F4F089590955B
:104970008095709561957F4F8F4F9F4F0895B7FF3A
:104980000C94E1240E94E124821B930B0895AA1B3E
:10499000BB1B51E107C0AA1FBB1FA617B70710F02A
:1049A000A61BB70B881F991F5A95A9F7809590955C
:1049B000BC01CD010895EE0FFF1F0590F491E02D8D
:1049C00009940E94EC24A59F900DB49F900DA49F84
:1049D000800D911D11240895A29FB001B39FC001C5
:1049E000A39F700D811D1124911DB29F700D811D1B
:1049F0001124911D089581E090E0F8940C94002515
:044A0000F894FFCF58
:104A0400030C30C002000000003F0500000000005D
:104A140000010000000087047F081F04CE04500436
:104A24002E04420473657475702E2E2E000D0A0038
:00000001FF
