:100000000C94FC000C9425060C94FE050C94D7056A
:100010000C94B0050C9424010C9424010C948905D3
:100020000C9424010C94CC090C94D20D0C94440E25
:100030000C9424010C9424010C9424010C942401AC
:100040000C9424010C940B090C9424010C942401AD
:100050000C9424010C94460A0C9424010C943F0542
:100060000C9424010C9424010C9424010C9424017C
:100070000C9424010C9424010C9424010C9424016C
:100080000C9424010C9424010C9424010C9424015C
:100090000C9424010C9424010C9424010C9424014C
:1000A0000C9424010C9461080C94240179017C01C6
:1000B0006B016F0175019D019D019D01800184010E
:1000C00088018E0192019D01980118041D042204EB
:1000D0002C04360480048004800440044A04540440
:1000E0005E046B04800473040000000200090F002A
:1000F00000030401000C00000000000000000000EC
:100100000000000000000000000000240027002A7A
:10011000002D00300000000000250028002B002EDC
:10012000003100000000002300260029002C002FD1
:10013000000404040404030405020202020403028E
:10014000020202060606060606040402020204046F
:1001500004080201104080401020408040800802C6
:10016000040180402010020110801020404020082F
:100170000B0002020201000904000001020200005B
:1001800005240010010524010101042402060524B0
:100190000600010705810310004009040100020A5E
:1001A000000000070502024000000705830240002E
:1001B000000403090441726475696E6F204C4C435E
:1001C0000041726475696E6F204C656F6E61726478
:1001D0006F00120100020000004041233680000140
:1001E0000102030112010002EF02014041233680A7
:1001F000000101020301871811241FBECFEFDAE0CE
:10020000DEBFCDBF11E0A0E0B1E0ECE1FFE302C052
:1002100005900D92A63CB107D9F722E0A6ECB1E01B
:1002200001C01D92A23CB207E1F710E0CCEFD0E094
:1002300004C02197FE010E94671ACB3FD107C9F77E
:100240000E9481100C948C1F0C940000CF93DF93BC
:100250001F92CDB7DEB76983DC01ED91FC9102807E
:10026000F381E02D41E050E0BE016F5F7F4F0995C3
:100270000F90DF91CF91089583E08093E900809102
:10028000F200882319F08AE38093E8000895FC01C6
:100290008485958597FD0BC09FB7F89482E0809385
:1002A000E9008091F2009FBF90E0019608959FB70A
:1002B000F89482E08093E9008091F2009FBF90E083
:1002C000089590E0FC013197EF30F105B0F5EA5A5E
:1002D000FF4F0C94671A809180008F7703C0809144
:1002E00080008F7D80938000089580918000877FBB
:1002F000F9CF84B58F7702C084B58F7D84BD089512
:10030000809190008F7707C0809190008F7D03C00F
:1003100080919000877F8093900008958091C00025
:100320008F7703C08091C0008F7D8093C0000895B7
:100330008091C200877F8093C2000895CF93DF939E
:10034000282F30E0F901E851FF4F8491F901E05B7B
:10035000FE4FD491F901EF5CFE4FC491CC2391F094
:1003600081110E946101EC2FF0E0EE0FFF1FED5DA7
:10037000FE4FA591B491EC91ED2381E090E021F442
:1003800080E002C080E090E0DF91CF910895089571
:10039000FC018481882349F02281338121153105B4
:1003A00011F021503109338322830895CF93DF93D5
:1003B000C091A502D091A60283E00E949E012B81EC
:1003C000422F50E08417950769F081E082278B83E4
:1003D000882341F08A81811105C08C819D8101971C
:1003E0009D838C83DF91CF910895CF93DF93C0914C
:1003F000A502D091A60282E00E949E012A81422F8E
:1004000050E08417950769F081E082278A8388236A
:1004100041F08B81811105C08C819D8101969D8366
:100420008C83DF91CF9108952091C8013091C9014B
:100430002817390771F49091C6018091C701981768
:1004400041F0E091C601F0E0E052FE4F808190E083
:1004500008958FEF9FEF089508951F93CF93DF9333
:10046000DC015C962D913C915D972115310539F4A5
:1004700081E090E013969C938E9312973DC0519625
:10048000ED91FC91529750969C915097892F8095B1
:100490001FB75E964C915E9741FB772770F941FD3F
:1004A0006095F8944081772311F0492B01C04823CF
:1004B0004083E9012197F1F748E0508160FF02C0D5
:1004C000592B01C058235083E9012197F1F7669514
:1004D000415099F7772321F090818923808303C0CD
:1004E0008081982B90831FBF5C968D919C915D9726
:1004F0000197F1F721E030E0C901DF91CF911F9121
:1005000008952091C8013091C9012817390771F465
:100510008091C7012091C60190E0805C9F4F821BB3
:10052000910960E470E00E94531A089580E090E021
:1005300008952091C8013091C90128173907B9F4ED
:100540009091C6018091C701981789F0E091C6018A
:10055000F0E0E052FE4F80812091C60130E02F5F35
:100560003F4F2F7333272093C60190E008958FEFFC
:100570009FEF08958F929F92AF92BF92CF92DF929A
:10058000EF92FF920F931F93CF93DF935C016B0168
:100590008A0180911501882309F459C080912B02AA
:1005A000882309F454C08091B70280FF05C0809170
:1005B000E00082608093E000E8018AEFF82E93E08B
:1005C000E92E2FE3822E3AE3932E2097C9F18FB7BD
:1005D000F894E092E9009091E80095FF06C09091B0
:1005E000F200282D291B922F01C090E08FBF91119E
:1005F00006C0FA94FF2059F10E945D0BE6CF292F27
:1006000030E0C217D3070CF49C2F8FB7F894E09218
:10061000E9002091E80025FF11C0292F30E0C21B1E
:10062000D30BF601915020F041914093F100FACFA5
:10063000C20ED31E9091E80095FF13C08FBFC5CFA7
:100640005D9884E68093B8021016110644F081E0AC
:1006500090E0F5019383828380E090E005C0C801BB
:1006600003C09092E800EACFDF91CF911F910F91E4
:10067000FF90EF90DF90CF90BF90AF909F908F90C2
:1006800008950F931F93CF93DF931F92CDB7DEB7DB
:100690008C01FC018485958597FF0EC0CE010196E3
:1006A0000E94770B019719F4298130E002C02FEFE7
:1006B0003FEFF80135872487F801848595850F90F1
:1006C000DF91CF911F910F910895CF93DF931F92E8
:1006D000CDB7DEB7FC018485958597FD05C02FEF6A
:1006E0003FEF358724870BC0CE0101960E94770B20
:1006F000019719F4898190E002C08FEF9FEF0F906E
:10070000DF91CF9108950E94661D1F93CF93DF93D1
:10071000282F30E0F901E851FF4F8491F901E05BA7
:10072000FE4FD491F901EF5CFE4FC491CC23C9F088
:10073000162F81110E946101EC2FF0E0EE0FFF1FD8
:10074000EB5EFE4FA591B4918FB7F894111105C0DF
:100750009C91ED2FE095E92302C0EC91ED2BEC93F9
:100760008FBFDF91CF911F910895CF93DF9390E0DA
:10077000FC01E05BFE4F2491FC01EF5CFE4F849195
:10078000882361F190E0880F991FFC01E95FFE4F1B
:10079000C591D491FC01EB5EFE4FA591B49161111E
:1007A00009C09FB7F8948881209582238883EC91B3
:1007B0002E230BC0623061F49FB7F8943881822FEA
:1007C000809583238883EC912E2B2C939FBF06C0AA
:1007D0008FB7F894E8812E2B28838FBFDF91CF91BC
:1007E00008951F93CF93DF93182FEB0161E00E94D0
:1007F000B503209711F460E004C0CF3FD10539F470
:1008000061E0812FDF91CF911F910C948503E12F3F
:10081000F0E0E851FF4FE4914E2F50E0FA0131979C
:10082000EF30F10508F06CC0EB59FF4F0C94671ADC
:1008300084B5806884BDC7BD68C084B5806284BD4E
:10084000C8BD63C080918000806880938000D09391
:100850008900C093880059C0809180008062809395
:100860008000D0938B00C0938A004FC0809180009D
:10087000886080938000D0938D00C0938C0045C029
:1008800080919000806880939000D0939900C093ED
:1008900098003BC080919000806280939000D0933C
:1008A0009B00C0939A0031C0809190008860809333
:1008B0009000D0939D00C0939C0027C08091C00001
:1008C00080688093C0008091C0008F7B8093C000BF
:1008D000C093CF001AC08091C00080628093C00096
:1008E000C093D00012C08091C20088608093C20083
:1008F0008091C2008B7F8093C200C093D20005C05C
:10090000C038D1050CF07CCF76CFDF91CF911F910D
:1009100008953FB7F8948091260290912702A09104
:100920002802B091290226B5A89B05C02F3F19F0D7
:100930000196A11DB11D3FBFBA2FA92F982F88275F
:10094000820F911DA11DB11DBC01CD0142E0660FBA
:10095000771F881F991F4A95D1F708958F929F920C
:10096000AF92BF92CF92DF92EF92FF920F931F93BD
:10097000CF93DF93E0917C02F0917D020481158199
:10098000D801CD91DC910E948904CE84DF84E8886F
:10099000F988C616D706E806F90618F41092720010
:1009A00061C0E885F98590818D81892309F05AC05D
:1009B000109272000E9489042C853D854901A12C6A
:1009C000B12CCE84DF84E888F988A50194012C1924
:1009D0003D094E095F0969017A013DE0C31AD1085A
:1009E000E108F108DC01CB018C0D9D1DAE1DBF1D82
:1009F00088839983AA83BB83D8015596ED91FC9196
:100A00005697808191819383828314821296CD912F
:100A1000DC911397ED91FC916081718182819381CA
:100A200029E330E040E050E00E945B1FCE01880FD8
:100A3000991F880F991FF801E80FF91F211531053B
:100A40004105510529F0258336834783508708C027
:100A500048EC50E060E070E0458356836783708720
:100A6000F8011482DF91CF911F910F91FF90EF90C9
:100A7000DF90CF90BF90AF909F908F9008951F927E
:100A80000F920FB60F9211242F933F938F939F9342
:100A9000AF93BF938091220290912302A0912402F0
:100AA000B09125023091210223E0230F2D3720F44D
:100AB0000196A11DB11D05C026E8230F0296A11DB8
:100AC000B11D209321028093220290932302A093D0
:100AD0002402B09325028091260290912702A091D2
:100AE0002802B09129020196A11DB11D8093260212
:100AF00090932702A0932802B0932902BF91AF914F
:100B00009F918F913F912F910F900FBE0F901F904B
:100B100018951F920F920FB60F9211242F933F93A7
:100B20004F935F936F937F938F939F93AF93BF93F5
:100B3000EF93FF93E0910801F09109010995FF916E
:100B4000EF91BF91AF919F918F917F916F915F9145
:100B50004F913F912F910F900FBE0F901F901895BE
:100B60001F920F920FB60F9211242F933F934F9322
:100B70005F936F937F938F939F93AF93BF93EF9305
:100B8000FF93E0910601F09107010995FF91EF9124
:100B9000BF91AF919F918F917F916F915F914F9195
:100BA0003F912F910F900FBE0F901F9018951F929D
:100BB0000F920FB60F9211242F933F934F935F9391
:100BC0006F937F938F939F93AF93BF93EF93FF9315
:100BD000E0910401F09105010995FF91EF91BF911A
:100BE000AF919F918F917F916F915F914F913F91C5
:100BF0002F910F900FBE0F901F9018951F920F927C
:100C00000FB60F9211242F933F934F935F936F93DF
:100C10007F938F939F93AF93BF93EF93FF93E09155
:100C20000201F09103010995FF91EF91BF91AF91FE
:100C30009F918F917F916F915F914F913F912F91F4
:100C40000F900FBE0F901F9018951F920F920FB626
:100C50000F9211242F933F934F935F936F937F9342
:100C60008F939F93AF93BF93EF93FF93E091000116
:100C7000F09101010995FF91EF91BF91AF919F9183
:100C80008F917F916F915F914F913F912F910F9035
:100C90000FBE0F901F901895FC01F89482819381EC
:100CA000892B41F48081918193838283148278948B
:100CB00081E00895789480E00895FC01F8948081A3
:100CC00091819383828381E08483789408952F9225
:100CD0003F924F925F926F927F928F929F92AF92CC
:100CE000BF92CF92DF92EF92FF920F931F93CF9319
:100CF000DF93CDB7DEB762970FB6F894DEBF0FBEB5
:100D0000CDBF9A8389837A8B698B2F8338874987F4
:100D10005A87FC01E45AFE4F208131813C832B83AA
:100D2000C90109966AE070E00E943F1A1C012AE09E
:100D300049895A89249FC001259F900D1124FC01E7
:100D4000E20DF31DBF96EE0FFF1FEE0FFF1F69812F
:100D50007A81E60FF71FC080D180E280F380AB81FB
:100D6000BC818A0F9B1F880F991F880F991F680FDE
:100D7000791F7E836D83FB01848C958CA68CB78C48
:100D8000A985BA85AC59BF4FA70196010E94111FD2
:100D900044E6442E512C612C712CA30192010E9437
:100DA0005B1F2B873C874D875E87A4E6B0E02985D3
:100DB0003A85A21BB30BA70196010E94111FA30144
:100DC00092010E945B1F89019A014B855C856D85AC
:100DD0007E85481559056A057B0530F08016910619
:100DE000A206B30608F05FC0E0E0F0E08AE069899F
:100DF0007A89869FA001879F500D1124588B4F87B9
:100E00004B815C812416350671F18F859889820D9E
:100E1000931DDC011796AD01440F551F440F551F5C
:100E200089819A81480F591FDA014D915D916D9129
:100E30007C918C149D04AE04BF0438F04B845C8418
:100E40006D847E84D701C60104C026013701D90113
:100E5000C8014416550666067706B0F048175907CC
:100E60006A077B0788F08F81988501972D813E81E5
:100E700024543F4FE817F90780F0D9018D929D92D5
:100E8000AD92BC92139717C03196C10109966AE0E2
:100E900070E00E943F1A1C01B3CFF901C082D182D9
:100EA000E282F38208C0ED81FE81E454FF4F80822C
:100EB0009182A282B38262960FB6F894DEBF0FBE13
:100EC000CDBFDF91CF911F910F91FF90EF90DF90F9
:100ED000CF90BF90AF909F908F907F906F905F90DA
:100EE0004F903F902F900895CF92DF92EF92FF9214
:100EF000CF93DF93EC016A017B0181EB91E00E94CB
:100F0000B70A4AE0C701B6010E94CF0A8EEA91E013
:100F10000E94B70AC882D982EA82FB82DF91CF9110
:100F2000FF90EF90DF90CF900895CF93DF93EC0187
:100F30002EE630E0DB010E946D1A24E630E040E04E
:100F400050E00E94F21EDA01C901C797A109B10958
:100F50009D838C83DF91CF910895CF92DF92EF92A2
:100F6000FF920F931F93FC01A681B7811396ED9119
:100F7000FC91149715968D919C9116976F01C81A44
:100F8000D90A0D2C000CEE08FF088B01770F220BFD
:100F9000330BA90198012C593F4F4F4F5F4FBF01B1
:100FA000680F791FCB01770FAA0BBB0BBC01CD01DA
:100FB0006C197D098E099F090E94231A28EC30E0E4
:100FC00040E050E00E94F21EDA01C9018C0D9D1D27
:100FD000AE1DBF1D1F910F91FF90EF90DF90CF903E
:100FE00008958F929F92AF92BF92EF92FF920F93CC
:100FF0001F93CF93DF9300D000D000D0CDB7DEB7E2
:101000007C01FC0184819581892B69F0A080B180ED
:101010006AE370E0C5010E94741D009721F08C0105
:101020000A191B0902C00FEF1FEF980140E050E0C2
:10103000B701CE0101960E94260CCE0101960E94B6
:10104000B50B4B015C01CE0101960E94B80DF70172
:101050002481358121503109A8014F5F5F4FB701CD
:10106000CE0101960E94260C88E090E00E946F1B42
:101070008C017C01F2E0EF0EF11C60EB71E0C70126
:101080000E94BD0DF80191828082BE016F5F7F4F8B
:10109000C7010E946C0CCE0101960E94B80DC801D8
:1010A00026960FB6F894DEBF0FBECDBFDF91CF916D
:1010B0001F910F91FF90EF90BF90AF909F908F90F6
:1010C00008951F920F920FB60F9211242F933F9302
:1010D0004F935F936F937F938F939F93AF93BF9340
:1010E000EF93FF93E091CA01F091CB010995FF9135
:1010F000EF91BF91AF919F918F917F916F915F9190
:101100004F913F912F910F900FBE0F901F90189508
:10111000CF92DF92EF92FF92CF93DF93EC01603298
:1011200082E078070CF03DC077FD06C0653B710595
:101130002CF064EB70E002C060E070E0898128E888
:1011400030E06901C81AD10887FDD394CC0CDD1CAE
:10115000CC0CDD1C0D2C000CEE08FF088A8128E564
:1011600032E0281B310987FD3395220F331F220FF0
:10117000331FC901330FAA0BBB0B9C01AD012C1906
:101180003D094E095F09DB010E941C1F24EB30E082
:1011900040E050E00E94F21EC20ED31EE41EF51E77
:1011A000B60188818C3080F5998148E850E0491B70
:1011B000510997FD5395440F551F440F551F641750
:1011C000750784F09A8128E532E0291B310997FDE3
:1011D0003395220F331F220F331FAB01261737071A
:1011E0000CF4A90142505109440F551F2FB7F89430
:1011F00090E0FC01EE0FFF1F8E0F9F1FFC01E258D5
:10120000FD4F528341832FBFDF91CF91FF90EF902D
:10121000DF90CF9008951F920F920FB60F92112476
:101220002F933F934F935F936F937F938F939F93EE
:10123000AF93BF93EF93FF938091200287FF05C088
:1012400010928500109284001BC020912002022E73
:10125000000C330B8091A20290E02817390784F428
:1012600080912002082E000C990BFC01EE0FFF1F4D
:101270008E0F9F1FFC01E258FD4F808186FD15C037
:10128000809120028F5F8093200220912002022E05
:10129000000C330B8091A20290E028173907C4F4A8
:1012A000809120028C3064F113C080912002082EBE
:1012B000000C990BFC01EE0FFF1F8E0F9F1FFC010E
:1012C000E258FD4F808160E08F730E948503D8CF84
:1012D0008091840090918500049680349C4918F494
:1012E00080E49CE905C0809184009091850004967B
:1012F00090938900809388008FEF809320023BC0F9
:10130000209184003091850080912002082E000CED
:10131000990BFC01EE0FFF1F8E0F9F1FFC01E2587F
:10132000FD4F81819281820F931F9093890080935A
:10133000880080912002082E000C990BFC01EE0F12
:10134000FF1F8E0F9F1FFC01E258FD4F808186FF1B
:1013500012C080912002082E000C990BFC01EE0FA8
:10136000FF1F8E0F9F1FFC01E258FD4F808161E03F
:101370008F730E948503FF91EF91BF91AF919F9171
:101380008F917F916F915F914F913F912F910F902E
:101390000FBE0F901F9018951F920F920FB60F92CD
:1013A00011242F933F934F935F936F937F938F936A
:1013B0009F93AF93BF93EF93FF93E091C801F09198
:1013C000C901309709F451C0968DA685B7858585EA
:1013D00091FF04C09C91892329F447C09C918923E3
:1013E00009F043C0A389B4899C918589809589239C
:1013F0008C93868997890197F1F7608D718DA68509
:10140000B785558538E020E0CB010197F1F7822FB1
:1014100090E095958795282F4C91452309F02068F9
:10142000315091F7868D81FD20958091C70190E024
:1014300001968F7399273091C601381749F0A09112
:10144000C701B0E0A052BE4F2C938093C70103C0E8
:10145000868D8160868F828D938D0197F1F7A389A8
:10146000B4899C918589892B8C93FF91EF91BF91D1
:10147000AF919F918F917F916F915F914F913F912C
:101480002F910F900FBE0F901F9018951F920F92E3
:101490000FB60F9211242F933F934F935F936F9347
:1014A0007F938F939F93AF93BF93EF93FF9320917D
:1014B000CC013091CD014091CE015091CF0160918E
:1014C000D0017091D1018091D2019091D301A1E01E
:1014D0000E94741A2093CC013093CD014093CE0129
:1014E0005093CF016093D0017093D1018093D201CA
:1014F0009093D301E091A702F091A802848595858D
:101500000E94C801E0917C02F0917D020480F58187
:10151000E02D858996890E94C801E091A302F0918F
:10152000A4020280F381E02D0284F385E02D808DFA
:10153000918D0E94C801E091A302F091A4028581DF
:101540009681009709F0019796838583FF91EF912B
:10155000BF91AF919F918F917F916F915F914F91CB
:101560003F912F910F900FBE0F901F901895BC01C7
:10157000009791F0FC0101900020E9F73197AF014D
:10158000481B590BE0912C02F0912D020280F3814F
:10159000E02D8CE292E0099480E090E008958F9233
:1015A0009F92AF92BF920F931F93CF93DF93CDB7CC
:1015B000DEB7A1970FB6F894DEBF0FBECDBF19A25C
:1015C000423008F44AE08E010F5D1F4F842E912CAB
:1015D000A12CB12CA50194010E945B1FE62FB9013B
:1015E000CA0101501109EA3014F4E05D01C0E95C60
:1015F000D801EC93232B242B252B61F7C8010E94E3
:10160000B70AA1960FB6F894DEBF0FBECDBFDF912B
:10161000CF911F910F91BF90AF909F908F900895A1
:10162000CF92DF92EF92FF92CF93DF936B017C0119
:10163000E0912C02F0912D020190F081E02D6DE2FD
:101640008CE292E00995EC0166277727CB016C19B3
:101650007D098E099F094AE00E94CF0A8C0F9D1FC9
:10166000DF91CF91FF90EF90DF90CF900895CF93CF
:10167000DF93BC01990F880B990B97FF03C00E9461
:10168000100B03C04AE00E94CF0AEC018EEA91E001
:101690000E94B70A8C0F9D1FDF91CF910895CF93C1
:1016A000DF930E94B70AEC018EEA91E00E94B70A2C
:1016B0008C0F9D1FDF91CF910895CF92DF92EF9213
:1016C000FF920E9489046B017C010E948904DC0165
:1016D000CB018C199D09AE09BF09883E9340A10535
:1016E000B10598F3FF90EF90DF90CF900895FC0143
:1016F00080912B02811103C08FEF9FEF08959FB758
:10170000F89482E08093E9002091F20030E0121614
:10171000130614F421E030E02115310559F0289822
:1017200084E680932A028091F10080838091F20008
:10173000882319F09FBFC90108958BE68093E800C4
:10174000F9CF8091AD0281110DC082E08093A90292
:1017500084E08093AA021092AC021092AB0281E066
:101760008093AD0289EA92E00895FC018081918125
:10177000009711F00C94861D60E070E0CB01089595
:10178000EF92FF920F931F93CF93DF93FC0124817D
:1017900035816115710511F480E019C041155105BD
:1017A000A9F07B01EC018A01020F131FB8010E940E
:1017B0007F0D882389F3288139818C819D81B70130
:1017C000820F931F0E947F1D1D830C8381E0DF9198
:1017D000CF911F910F91FF90EF900895EF92FF929C
:1017E0000F931F93CF93DF93EC017B018A01BA0122
:1017F0000E947F0D811104C0CE010E94A60D07C07A
:101800001D830C83B701888199810E947F1DCE01C1
:10181000DF91CF911F910F91FF90EF900895CF939B
:10182000DF93EC016115710559F0FB010190002077
:10183000E9F73197AF01461B570B0E94EE0B02C030
:101840000E94A60DCE01DF91CF910895BF92CF9255
:10185000DF92EF92FF920F931F93CF93DF937C0160
:101860006B018A01E9012417350720F4812F8901D2
:10187000C42FD82F60EB71E0C7010E94BD0DD601C7
:1018800014968D919C91159708171907D0F48C1711
:101890009D0708F4EC01D601ED91FC911197EC0F36
:1018A000FD1FB08010824D915C91BA01600F711FD5
:1018B000C7010E940F0CD601ED91FC91EC0FFD1FAA
:1018C000B082C701DF91CF911F910F91FF90EF90F0
:1018D000DF90CF90BF900895CF93DF93EC01FB0191
:1018E0008617970761F0608171816115710529F094
:1018F000448155810E94EE0B02C00E94A60DCE01CC
:10190000DF91CF9108954091BC025091BD0220918A
:10191000BA023091BB0242175307B4F49091E80029
:101920009570E1F39091E80092FD19C08093F10069
:101930008091BC029091BD0201968F739927892BEB
:1019400019F48EEF8093E8008091BC029091BD0263
:1019500001969093BD028093BC0281E0089580E0DF
:101960000895CF92DF92EF92FF920F931F93CF9340
:10197000DF931F92CDB7DEB7182F062FE42E862FE8
:10198000880F8E5F99830E94830C83E00E94830CF2
:10199000F12EC12E9981D92E8C2D8F19801798F494
:1019A000F601E7FE02C0849101C080810E94830C91
:1019B000182F80E00E94830C8123FFEFCF1ADF0AEB
:1019C0008111EACF01C081E00F90DF91CF911F918B
:1019D0000F91FF90EF90DF90CF900895DF92EF92FC
:1019E000FF920F931F93CF93DF93D82E8A017B0131
:1019F000E40EF51EEB01CE15DF0571F0D7FE03C036
:101A0000FE01849101C088810E94830C219681117E
:101A1000F2CF8FEF9FEF01C0C801DF91CF911F91EF
:101A20000F91FF90EF90DF900895615030F020917A
:101A3000F100FC0120830196F8CF289884E680937A
:101A40002A020895CF92DF92EF92FF920F931F9395
:101A5000CF93DF936C017A018B01C0E0D0E0CE150B
:101A6000DF0589F0D8016D918D01D601ED91FC91D2
:101A70000190F081E02DC6010995892B11F47E01BA
:101A800002C02196ECCFC701DF91CF911F910F913A
:101A9000FF90EF90DF90CF9008950F931F93CF9317
:101AA000DF931F92CDB7DEB782E0898342E450E036
:101AB0006FE671E080E80E94EE0C0E94A10BDC0151
:101AC00012960D911C9113970115110569F0D8011B
:101AD000ED91FC910280F381E02DBE016F5F7F4F9D
:101AE000C801099597FF07C089810F90DF91CF91B9
:101AF0001F910F910895F80100851185E5CF0F938F
:101B00001F93CF93DF93EC0188819981009729F08F
:101B10002A813B812617370788F48B016F5F7F4F3F
:101B20000E949C1C009761F0998388831B830A8321
:101B30002C813D81232B11F4FC01108281E001C036
:101B400080E0DF91CF911F910F910895CF93DF93A4
:101B5000EC0188819981009711F00E94041C198280
:101B600018821D821C821B821A82DF91CF910895F8
:101B7000FC01808191810C94041CFC011182108273
:101B800013821282158214826115710551F0FB01D6
:101B900001900020E9F73197AF01461B570B0C94D9
:101BA000EE0B08951F920F920FB60F9211248F9390
:101BB0009F938091E1009091E100937F9093E100E9
:101BC00083FF0FC01092E90091E09093EB00109218
:101BD000EC0092E39093ED0010922B0298E090932A
:101BE000F00082FF20C093E09093E9009091F20012
:101BF000992319F09AE39093E8009091B802992301
:101C000039F09091B80291509093B802992389F1DC
:101C100090912A02992339F090912A029150909341
:101C20002A02992341F184FF10C08091E2008E7E48
:101C300081608093E2008091E1008F7E8093E100DB
:101C40008091B7028E7E806111C080FF16C08091A6
:101C5000E2008E7E80618093E2008091E1008E7EC2
:101C60008093E1008091B7028E7E81608093B702FD
:101C700004C05D9ACDCF289AD6CF9F918F910F90B7
:101C80000FBE0F901F9018951F920F920FB60F92D4
:101C90001124CF92DF92EF92FF920F931F932F9315
:101CA0003F934F935F936F937F938F939F93AF93E4
:101CB000BF93EF93FF93CF93DF93CDB7DEB76C97CE
:101CC000DEBFCDBF1092E9008091E80083FFFAC12A
:101CD00068E0CE0145960E94150D82EF8093E800E2
:101CE0008D8987FF05C09091E80090FFFCCF03C06D
:101CF0009EEF9093E800982F907609F0C6C09E89D9
:101D00002F89188D91110CC0803829F48091B6026A
:101D10008093F10002C01092F1001092F10047C1CF
:101D2000422F50E0512B913051F4811140C141308C
:101D3000510509F03CC18091B6028D7F0BC09330F4
:101D400061F4811134C14130510509F030C18091F5
:101D5000B60282608093B6022AC1953041F4809128
:101D6000E80080FFFCCF20682093E30020C196307C
:101D700009F05FC0EB8CFC8C1092E9001092BD0260
:101D80001092BC02123091F51092BB021092BA026E
:101D90000E944D0D99E0BE016F5F7F4FDB01E92F7F
:101DA0001D92EA95E9F799831A8391E09E8390EA60
:101DB00098879AEF99872091BC023091BD02275FE6
:101DC0003F4F3C832B838D831092E9001092BD021C
:101DD0001092BC02F092BB02E092BA0249E050E0DD
:101DE00080E00E94EE0C0E944D0DE1C0F092BB021B
:101DF000E092BA020E94A10BDC011296ED90FC90D9
:101E00001397E114F10409F4C0C0D701ED91FC91DE
:101E10000480F581E02DBE016B5E7F4FC7010995FF
:101E2000009719F00CF0C3C0C6C0F701E084F1843C
:101E3000E8CF973009F4BFC0983021F481E0809357
:101E4000F100B5C0993009F0B2C0837009F0B3C099
:101E5000E9E4F1E081E021E036E39081992361F04B
:101E60008093E9002093EB0091919093EC003093E4
:101E7000ED008F5F873089F78EE78093EA0010923C
:101E8000EA008F8980932B0292C08B8D9C8D1092DB
:101E9000E9001092BD021092BC029093BB028093A5
:101EA000BA02898D811156C08E899D89913A59F463
:101EB000813209F080C047E050E06EE071E080E0E0
:101EC0000E94EE0C74C0913209F075C0833289F41F
:101ED000888D90E0982F88272F89822BA0E0B0E092
:101EE00080930A0190930B01A0930C01B0930D0114
:101EF0005EC0803269F48091E80082FFFCCF67E029
:101F00008EE091E00E94150D8BEF8093E80006C0F3
:101F1000823209F04CC08F89809315018091B502FF
:101F2000882319F0EEEFFAE002C0E0E0F8E08091DB
:101F30000E0190910F01A0911001B0911101803B11
:101F40009440A105B10509F088C08091150180FF7A
:101F5000A0C083C00E94A10BDC0112960D911C91C0
:101F600013970115110539F1D801ED91FC910190FC
:101F7000F081E02DBE016B5E7F4FC8010995811194
:101F800016C0F80100851185ECCF1130C1F0133077
:101F900091F48F89882309F455C08230E9F440E830
:101FA00060E181EC91E00E94B10C882321F08EEF7A
:101FB0008093E80087C081E28093EB0083C08B8D23
:101FC0009C8D089711F41093B9028091B902811188
:101FD00036C062ED71E038C0813029F440E86BE032
:101FE00085EB91E0E0CF833031F70E94A10BDC015B
:101FF0001296ED90FC9013978E010F5F1F4F6801B2
:10200000E114F10479F0D701ED91FC910680F7819C
:10201000E02DB801C7010995080F111DF701E084F3
:10202000F184EECFD8011C92F60101900020E9F76F
:102030003197BF016C197D0940E0C601B4CF64EE51
:1020400071E002C061EB71E06115710509F4B3CF75
:10205000FB01449150E080E833CF0FB6F894A89587
:1020600080916000886180936000109260000FBED4
:10207000A895EE3F2AE0F20739F08091FE0A909190
:10208000FF0A9183808393CF1092FF0A1092FE0A79
:102090008ECFEE3F8AE0F80731F0808191819093F6
:1020A000FF0A8093FE0A87E797E7918380839BE08E
:1020B00088E10FB6F894A895809360000FBE9093C6
:1020C000600075CF6C960FB6F894DEBF0FBECDBF23
:1020D000DF91CF91FF91EF91BF91AF919F918F9140
:1020E0007F916F915F914F913F912F911F910F9130
:1020F000FF90EF90DF90CF900F900FBE0F901F904A
:102100001895CF93DF93CDB7DEB7A9970FB6F894A4
:10211000DEBF0FBECDBF789484B5826084BD84B528
:10212000816084BD85B5826085BD85B5816085BDD2
:1021300080916E00816080936E001092810080918A
:102140008100826080938100809181008160809312
:102150008100809180008160809380008091910057
:1021600082608093910080919100816080939100C2
:10217000809190008160809390008091C100846084
:102180008093C1008091C10082608093C1008091E2
:10219000C10081608093C1008091C3008160809301
:1021A000C3008091C00082608093C0008091C20013
:1021B00081608093C20080917A00846080937A006D
:1021C00080917A00826080937A0080917A008160A9
:1021D00080937A0080917A00806880937A001092D0
:1021E0002B021092B6021092B7028091D700816044
:1021F0008093D70080EA8093D80089B5806189BD3B
:1022000089B5826089BD09B400FEFDCF0E945D0BD7
:102210008091D8008F7C80618093D8008091E0000D
:10222000807F8093E0008091E1008E7E8093E100CA
:102230008DE08093E200559A209AEEEFFFE78591BA
:1022400094918B3F9C4D19F481E08093B5028FEF00
:102250009FEF90933902809338028FE491E00E94BF
:102260004F0B2091A7023091A802D9011496ED914D
:10227000FC911597138E128E118E108E178A168A66
:102280008DE991E0958F848F848598EF980F943035
:1022900048F042EF480F443028F046EE480F4330F4
:1022A00008F055C04DEB50E0578B468B4BE951E0A1
:1022B000518F408F4CE251E0538F428F943058F051
:1022C00092EF980F943038F08A51833008F417C792
:1022D00040E050E016C748E650E0A8E6B0E08C9138
:1022E0008160DA018C93848598EF980F943058F0D0
:1022F00042EF480F443038F046EE480F433018F0B4
:1023000040E050E002C04BE650E0548B438B9430E9
:1023100010F49CEF09C08E3071F08F3071F0803175
:1023200071F0813171F09AEE980F81E001C0880F51
:102330009A95EAF707C088E005C082E003C084E010
:1023400001C081E0858B848D958D0197F1F7828D99
:10235000938D892B49F16091C8017091C9016E1765
:102360007F0711F16115710571F0DB0153964D91F5
:102370005C915497DA019C91DB0155968C91809584
:102380008923DA018C93868D8E7F868F1092C70108
:102390001092C601F093C901E093C801A389B489E2
:1023A0009C918589892B8C93F901848595850E9460
:1023B0005D06E091A302F091A40202811381D8018D
:1023C0001696AD90BC901797F50180818C3008F07F
:1023D00052C061E089E00E94B503D5018C91E82FDD
:1023E000F0E09F01220F331FE20FF31FE258FD4F71
:1023F0009081907C9960908311961C92119712960F
:102400001C926CE00E94331ABCE08B9FB001112437
:1024100040E050E09A01260F371FF901EE0FFF1F31
:102420002E0F3F1FF901E258FD4F908196FD16C017
:102430004F5F5F4F4C30510569F781110FC010920B
:10244000800082E0809381001092850010928400C9
:10245000B19A80916F00826080936F00D501EC91FA
:10246000F0E0CF01880F991FE80FF91FE258FD4FE8
:1024700080818064808360E070E0C8010E94AD07C5
:10248000BC01F801868197810E94880862E370E0B0
:10249000C8010E949507D8011A960D911C911B97AF
:1024A00060E082E00E94B50360E083E00E94B50333
:1024B00061E082E00E94850361E083E00E94850381
:1024C00085EF91E090930101809300018091690074
:1024D0008C7F816080936900E89A86ED91E090930B
:1024E00003018093020180916900837F846080935F
:1024F0006900E99AF801808D918D0E945D06D801EE
:1025000015961C921E92149716961C921697179663
:102510001C92179718961C92189719961C92199747
:102520001A961C921A971B961C921B971C961C922B
:102530001C971D961C921D971E961C921E971F9607
:102540001C921F9750961C92509751961C9251972F
:1025500052961C92529753961C92539754961C92E3
:10256000549755961C92559757961C921E925697C3
:10257000E0917C02F0917D020481158161E082E1AD
:102580000E94B50361E083E10E94B50361E084E14C
:102590000E94B50361E085E10E94B50348EC50E07C
:1025A00060E070E0F801458356836783708781E0BF
:1025B000878B4187528763877487808F45875687CB
:1025C0006787708B818F418B528B638B748B828F6B
:1025D0009801B80160567F4FA801F8EC8F2E912C1E
:1025E000A12CB12C80E090E0FA01E80FF91F848E55
:1025F000958EA68EB78E049688329105A9F7485D10
:102600005F4F4617570771F7E8EC8E2E912CA12CDF
:10261000B12C80E090E0FC01E454FF4FE20FF31F87
:1026200080829182A282B38204968832910599F7C2
:10263000285D3F4F2617370761F781E0F801838F48
:10264000148283E090E093838283E45AFE4F89E012
:1026500090E091838083F8948FEA87BD80916E002B
:10266000826080936E0078941092D7011092D60108
:102670001092D5011092D401E091A302F091A4022E
:1026800082E090E0918380838091200190912101EC
:10269000A0912201B091230188A399A3AAA3BBA36F
:1026A0008091240190912501A0912601B0912701EC
:1026B0008CA39DA3AEA3BFA38091D8019091D90113
:1026C000A091DA01B091DB01BC01CD016F5F7F4FBA
:1026D0008F4F9F4F6093D8017093D9018093DA0197
:1026E0009093DB012091D6013091D701211531055E
:1026F00021F02F32310539F024C1AFE2B0E0B093C0
:10270000D701A093D6018090A7029090A802F4016F
:1027100020813181428153810E945B1F672B682B8E
:10272000692B09F012C1D40114968D919C911597D3
:10273000DC01ED91FC910480F581E02D09958C017F
:10274000612C712C5401B6E0AB0EB11C6016710601
:102750000CF0CFC0F40184819581DC01ED91FC91F6
:102760000680F781E02D0995F82E89831A8241E0D1
:1027700050E0BE016F5F7F4FC5010E94C00BBBE3FD
:10278000FB1621F0EFEF6E1A7E0AE0CFA090A702B1
:10279000B090A802B6E0AB0EB11C1A8219821C825E
:1027A0001B821E821D82B501CE0101960E946C0C17
:1027B000CE0101960E94F1078C01CE0101960E9484
:1027C000B80D60EB71E0C5010E940F0CF80180812B
:1027D00091811C8A1B8A1E8A1D8A188E1F8A4AE0D4
:1027E000BE016F5F7F4F0E94AD1DBE016F5F7F4FC7
:1027F000CE0143960E940F0C1A8219821C821B8202
:102800001E821D82BE016D5E7F4FCE0101960E9429
:102810006C0C8AE3898F1A8E41E050E0BE01675E3E
:102820007F4FCE0101960E94C00B811104C0CE01E2
:1028300001960E94A60DD80116964D915C911797AE
:1028400012966D917C911397CE0101960E94C00B58
:10285000811104C0CE0101960E94A60D8BE3898FE1
:102860001A8E41E050E0BE01675E7F4FCE010196B7
:102870000E94C00B811104C0CE0101960E94A60DDA
:102880001A8E198E1C8E1B8E1E8E1D8EBE016F5FC2
:102890007F4FCE0149960E946C0CCE0101960E949A
:1028A000B80DCE0143960E94B80D4D8D5E8D411539
:1028B000510509F03DC3F12CCE0149960E94B80D97
:1028C000FF2009F4E4C3F8018081918182309105F1
:1028D00009F49DC30CF058C3019709F468C30115AE
:1028E000110539F0C80102960E94B80DC8010E9476
:1028F000041CE091A702F091A802848595850E94AE
:102900004C068823B1F0E091A302F091A40262E3A7
:1029100070E0828193810E94950781E791E00E9497
:102920004F0BE091A702F091A802848595850E9443
:102930005D06E091A702F091A802848595850E942A
:102940005D061092D7011092D6018091D40190912A
:10295000D501009721F08136910539F0DDC281E67D
:1029600090E09093D5018093D401E0917C02F091A6
:102970007D026091D8017091D9018091DA01909126
:10298000DB0120813181428153810E945B1F672BD3
:10299000682B692B09F0C4C2E091A302F091A40254
:1029A00022803380D1011A968D909C901B97F40160
:1029B000008D118DC8010E944C06782E882309F4E1
:1029C00079C0C8010E945D06F091CC01FF8F409054
:1029D000CD015090CE016090CF01A091D001A8A769
:1029E000B091D101B9A7F091D201E091D3012F8D1F
:1029F000342D452D562DBD018F2F9E2FD4011696B7
:102A0000AC9016971796BC9017971896CC9018977D
:102A10001996DC9019971A96EC901A971B96FC90D1
:102A20001B971C960C911C971D961C911D970E943C
:102A3000801A1E962C931E971F963C931F975096B4
:102A40004C93509751965C93519752966C93529732
:102A500053967C93539754968C93549755969C9386
:102A6000559714968D919C91159757969C938E939C
:102A700056972F8D16962C93169717964C9217975C
:102A800018965C92189719966C92199738A51A9611
:102A90003C931A9789A51B968C931B971C96FC93C5
:102AA0001C971D96EC931D97F89415961C921E92F8
:102AB00014977894F401F68407851089D188E28808
:102AC00043885488658866897789772009F4C6C069
:102AD000072E000C880B990B0E94F91D20E030E0B6
:102AE00040EA51E40E94891A26E636E642EA51E4B9
:102AF0000E94341E4B015C012F2D302F412F5D2D84
:102B00006E2D742D852D962D0E94311B9B01AC01DD
:102B1000C501B4010E94891A20E030E04AE754E47C
:102B20000E94341E0E94FB1A4B015C01D1011496D5
:102B30000D911C911597061B170B8D919C91119768
:102B4000F801E81BF90B1396FC93EE93129788E8B3
:102B500091E00E94B70AD10114966D917C9115976E
:102B6000072E000C880B990B97FF03C00E94100BD7
:102B700003C04AE00E94CF0A82E991E00E94B70AAE
:102B8000C4010E94370B8CE991E00E94B70AD10181
:102B90001896ED91FC91199764817581072E000CB0
:102BA000880B990B97FF03C00E94100B03C04AE0EB
:102BB0000E94CF0A83EA91E00E94B70A000F111F1A
:102BC000D1011896ED91FC91199724813581200F40
:102BD000311F12968D919C911397880F991F820F28
:102BE000931F0E94370B8EEA91E00E94B70AF10111
:102BF000A084B184D50114968D919C911597080FEE
:102C0000191F82819381880F991F080F191F0F3F89
:102C1000110509F03CF40130BFEF1B072CF401E073
:102C20001FEF02C00FEF10E0B80117FF02C060E015
:102C300070E0F50180810E94F10317FF05C066274F
:102C40007727601B710B02C060E070E0D50112961F
:102C50008C910E94F103F50115830483E0917C02BD
:102C6000F0917D0284809580D4015B968C915B9776
:102C7000882309F43AC114968C91811136C1D4018C
:102C800012968D919C911397039709F045C02401EA
:102C9000B5E04B0E511C612C712C1AE01401E4EAD2
:102CA0002E1AEEEF3E0AF20141915191619171911C
:102CB0002F01169D9001179D300D1124D1018D918A
:102CC0009C91F901E80FF91F3796EE0FFF1FEE0FE9
:102CD000FF1FE80DF91D4083518362837383483CD5
:102CE00051056105710509F005C22CA13DA14EA158
:102CF0005FA1B301C4010E946706BFEF6B1A7B0A94
:102D0000E4E06E16710479F6E091A302F091A4025A
:102D100081E090E091838083E0917C02F0917D02DC
:102D2000A480B580D5015B968C915B97882309F4CC
:102D3000DCC014968C918111FECFF5012281338184
:102D40002330310559F4E45AFE4F80819181019678
:102D50006AE070E00E943F1A91838083C901019666
:102D600064E070E00E94531AD50113969C938E93F1
:102D7000129781E014968C93149710927200129619
:102D80000D911C911397F801EE0FFF1FEE0FFF1F1F
:102D9000EA0DFB1D88EC90E0A0E0B0E0858396830F
:102DA000A783B087602F617082E10E94850311279D
:102DB000B80176956795617083E10E948503B8013B
:102DC0007695679576956795617084E10E94850395
:102DD00033E0169507953A95E1F7602F617085E12C
:102DE0000E948503D5010D911C91D8011A96ED9191
:102DF000FC911B97908114968C911497892B80835A
:102E00001696ED91FC911797908114968C911497DA
:102E10008095892380838BE090E00197F1F71696E7
:102E2000ED91FC911797908114968C911497892BB2
:102E3000808383E290E00197F1F71696ED91FC9183
:102E40001797908114968C9114978095892380838D
:102E50001A96ED91FC911B97908114968C91149782
:102E60008095892380831896ED91FC911997908124
:102E700015968C91892391F50E948904F801248587
:102E800035852901612C712CF8EA4F0EF6E15F1EA1
:102E9000611C711CDC01CB01840D951DA61DB71DA5
:102EA000F80186879787A08BB18BD8011896ED9192
:102EB000FC911997908115968C91892309F0ECC0AB
:102EC0000E948904D8011E964D905D906D907C9073
:102ED0005197461657066806790638F7D501559674
:102EE0008D919C9156970E945D06E0917C02F09135
:102EF0007D020480F581E02D858996890E944C062B
:102F0000882351F0E0917C02F0917D020480F581EC
:102F1000E02D1092720014821092D5011092D4010B
:102F200080E090E0892B09F4C7CB0E940000C4CB5D
:102F3000E98DFA8D8081882309F4BDCC20E030E052
:102F4000309729F0DF01A20FB31F8C9101C080E000
:102F500090ED980F9C3040F42F5F3F4F24173507BA
:102F600079F7FF24F394A8CC9FE9980F9230A0F34F
:102F70009FEB980F9A3180F3803271F38F3561F3B4
:102F80008D3209F098CCE8CF8330910509F456C012
:102F9000049709F0A4CCA090A302B090A402C801A9
:102FA00002960E94B50BF5017183608398CCA090C6
:102FB000A302B090A402D5018D919C91813091051E
:102FC00091F0029709F08BCCD50114968C9114974F
:102FD000882389F015968D919C911697892B09F07D
:102FE0007ECC14961C92C80102960E94B50BF50186
:102FF0008281938109C0C80102960E94B50BD50158
:1030000012968D919C9113970E94950768CCA09081
:10301000A302B090A402C80102960E94B50BF5016C
:10302000A280B380C5010E94AD07BC01D5011696F0
:103030008D919C9117970E94880851CCA090A30273
:10304000B090A402C80102960E94B50BF501A280BF
:10305000B380C5010E94AD07D5011696ED91FC9194
:10306000179794838383582F492F8734910514F041
:1030700056E440E024EB30E0281B390B852F942FD9
:10308000281739070CF4C9019683858328CC88E575
:1030900091E00E944F0B23CC0E948904F801248503
:1030A0003585DC01CB01820F931FA11DB11D8687E1
:1030B0009787A08BB18B8EEA94E09093CB0180939D
:1030C000CA01109272001092C4001092C3001092B4
:1030D000C2001092C00087E48093C10084E089BBE5
:1030E0001092BF001092BE0095E09093D1008093A3
:1030F0007200F4CE28A139A14AA15BA1FACD48E61D
:1031000050E0833008F4E9C8A0E0B0E0E8C8CF920E
:10311000DF92EF92FF920F931F93CF93DF93109262
:103120002F0210922E0228EEC22E23E0D22EE12C86
:10313000F12CC0923002D0923102E0923202F09231
:1031400033028CE291E090932D0280932C028FEF5A
:103150009FEF909339028093380286E090E00E94BE
:103160006F1B8C0141E050E060E070E00E9474074A
:103170008EE591E00E946F1BEC0182E190E00E94DD
:103180006F1BDC01E6E6F1E0849114968C931497B2
:10319000E4911596EC93159727E431E0F9018491B9
:1031A000E82FF0E0EE0FFF1FEB5EFE4F859194914C
:1031B00017969C938E931697F9018491E82FF0E06F
:1031C000EE0FFF1FED5DFE4F8591949119969C9334
:1031D0008E931897F9012491E22FF0E0EE0FFF1F74
:1031E000E95FFE4F859194911B969C938E931A975D
:1031F00081EC9CE21D969C938E931C97B983A883C7
:1032000085E090E00E946F1B2AE030E0FC013183F2
:10321000208314829E8B8D8B1B8EF801D583C483F3
:1032200010937D0200937C028AE190E00E946F1B64
:10323000EC011A821B821D821C8285E090E00E94B4
:103240006F1B28EC30E0FC01318320831482998FBE
:10325000888F82E0888383E08983D093A602C0931D
:10326000A5028EE090E00E946F1B8C0141E050E0CF
:1032700060E070E00E94740760EB71E0C8010696A0
:103280000E94BD0D85E090E00E946F1B28EE33E0A8
:10329000FC01318320831482F801958784878FE1B4
:1032A00090E00E946F1BEC011B821A82CC82DD82AF
:1032B000EE82FF828CE391E0998388831F8A1E8AC5
:1032C000198E188E1B8E1A8E1D8E1C8E6E8D6E7F23
:1032D0006D7F6E8F6695617081E068278AE00E943D
:1032E000850361E08AE00E94B503EAE5F1E0E4913C
:1032F000E88BEBE3F1E0E491F0E0EE0FFF1FEB5E13
:10330000FE4F859194919A8B898B60E088E00E94B2
:10331000B5038E8D81FD04C061E088E00E948503C5
:1033200088E08C87E8E5F1E0E491ED87E9E3F1E0FE
:10333000E491F0E0EE0FFF1FED5DFE4F859194915B
:103340009F878E87F801D583C4831093A8020093CA
:10335000A70287E090E00E946F1B8C01E090A5021D
:10336000F090A602FC0114828CE090E00E946F1B9A
:10337000EC01198218821B821A8287E090E00E9479
:103380006F1BDC0187E0FD0111928A95E9F720911E
:10339000A2022C3098F481E0820F8093A2022C9339
:1033A00030E0F901EE0FFF1F2E0F3F1FF901E25829
:1033B000FD4F88EB9BE09283818302C08FEF8C935B
:1033C0008DE490E014969C938E93139786E490E09E
:1033D00016969C938E931597BF83AE8386E090E0FC
:1033E0000E946F1B6C01FC011582148285E090E045
:1033F000918380838BE090E09383828361E085E01A
:103400000E94B50361E08BE00E94B503D986C886AF
:10341000FB86EA8660E070E0CE010E949507F80125
:10342000D383C28381E090E0918380831093A402D0
:103430000093A302DF91CF911F910F91FF90EF9026
:10344000DF90CF900895DB018F939F930E94111F0F
:10345000BF91AF91A29F800D911DA39F900DB29F30
:10346000900D11240895991B79E004C0991F9617B7
:1034700008F0961B881F7A95C9F780950895AA1BB6
:10348000BB1B51E107C0AA1FBB1FA617B70710F04F
:10349000A61BB70B881F991F5A95A9F78095909581
:1034A000BC01CD01089597FB072E16F4009407D0B8
:1034B00077FD09D00E943F1A07FC05D03EF4909595
:1034C00081959F4F0895709561957F4F0895EE0FF8
:1034D000FF1F0590F491E02D09940E947D1FB7FF16
:1034E0000895821B930B08950024A7FD00942A0FD2
:1034F000301D401D501D601D701D801D901D0895C4
:103500002A193B094C095D096E097F09800B910B53
:1035100008950E949D1A0C94B81E0E94B11E58F086
:103520000E94AA1E40F029F45F3F29F00C94A11ECE
:1035300051110C94EC1E0C94A71E0E94C91E68F336
:103540009923B1F3552391F3951B550BBB27AA275C
:1035500062177307840738F09F5F5F4F220F331F96
:10356000441FAA1FA9F335D00E2E3AF0E0E832D05E
:1035700091505040E695001CCAF72BD0FE2F29D061
:10358000660F771F881FBB1F261737074807AB0733
:10359000B0E809F0BB0B802DBF01FF2793585F4FA8
:1035A0003AF09E3F510578F00C94A11E0C94EC1E4D
:1035B0005F3FE4F3983ED4F3869577956795B7958A
:1035C000F7959F5FC9F7880F911D9695879597F995
:1035D0000895E1E0660F771F881FBB1F621773070E
:1035E0008407BA0720F0621B730B840BBA0BEE1F23
:1035F00088F7E09508950E94021B6894B1110C941D
:10360000EC1E08950E94D11E88F09F5798F0B92FA4
:103610009927B751B0F0E1F0660F771F881F991F07
:103620001AF0BA95C9F714C0B13091F00E94EB1EA0
:10363000B1E008950C94EB1E672F782F8827B85FB0
:1036400039F0B93FCCF3869577956795B395D9F75F
:103650003EF490958095709561957F4F8F4F9F4F69
:103660000895E894F92F96EBFF2381F012161306C4
:103670001406440B9395F69587957795679557951E
:103680004040FF23B9F71BC099270895882351F4C0
:103690009850D2F7872B762F652F542F432F322F38
:1036A00020E0B1F3121613061406440B88233AF0F7
:1036B0009A95440F551F661F771F881FCAF7552319
:1036C0004AF4440F551F11F460FF04C06F5F7F4F31
:1036D0008F4F9F4F880F9695879597F90895CF93B1
:1036E000DF938230910510F482E090E0E091C00217
:1036F000F091C10220E030E0C0E0D0E0309711F15D
:103700004081518148175907C0F04817590761F4A3
:1037100082819381209719F09B838A832BC0909399
:10372000C1028093C00226C02115310519F042174D
:10373000530718F49A01BE01DF01EF010280F38103
:10374000E02DDCCF2115310509F1281B390B243080
:10375000310590F412968D919C9113976115710526
:1037600021F0FB019383828304C09093C102809374
:10377000C002FD01329644C0FD01E20FF31F8193A8
:103780009193225031092D933C933AC02091BE026F
:103790003091BF02232B41F420911801309119017F
:1037A0003093BF022093BE02209116013091170181
:1037B0002115310541F42DB73EB740911A015091C2
:1037C0001B01241B350BE091BE02F091BF02E217F2
:1037D000F307A0F42E1B3F0B2817390778F0AC0134
:1037E0004E5F5F4F2417350748F04E0F5F1F509311
:1037F000BF024093BE028193919302C0E0E0F0E0EB
:10380000CF01DF91CF9108950F931F93CF93DF9353
:10381000009709F48CC0FC01329713821282009148
:10382000C0021091C1020115110581F4208131817E
:10383000820F931F2091BE023091BF0228173907D3
:1038400079F5F093BF02E093BE0271C0D80140E069
:1038500050E0AE17BF0750F412962D913C9113978C
:10386000AD012115310509F1D901F3CF9D01DA012F
:103870003383228360817181860F971F821793079C
:1038800069F4EC0128813981260F371F2E5F3F4FE5
:10389000318320838A819B8193838283452B29F402
:1038A000F093C102E093C00242C01396FC93EE93E2
:1038B0001297ED01499159919E01240F351FE2178E
:1038C000F30771F480819181840F951F0296119600
:1038D0009C938E938281938113969C938E931297DF
:1038E000E0E0F0E0D80112968D919C91139700973B
:1038F00019F0F8018C01F6CF8D919C9198012E5F03
:103900003F4F820F931F2091BE023091BF022817B4
:10391000390769F4309729F41092C1021092C0025D
:1039200002C0138212821093BF020093BE02DF9185
:10393000CF911F910F910895A0E0B0E0E2EAFCE181
:103940000C94281FEC01009721F4CB010E946F1BFF
:10395000B8C0FC01E60FF71F9C0122503109E217A5
:10396000F30708F4ACC0D9010D911C91119706170B
:103970001707B0F00530110508F49FC0C80104977F
:103980008617970708F499C002501109061B170BF8
:10399000019311936D937C93CF010E94041C8DC001
:1039A0005B01A01AB10A4C01800E911EA091C002C9
:1039B000B091C10240E050E0E12CF12C109709F4E5
:1039C0004AC0A815B905D1F56D907C901197630197
:1039D00082E0C80ED11CCA14DB0480F1A3014A198D
:1039E0005B096A0182E0C80ED11C1296BC90129746
:1039F0001396AC91B5E0CB16D10440F0B282A3830C
:103A000051834083D9016D937C930AC00E5F1F4F91
:103A1000C301800F911FF90191838083EB2DFA2F51
:103A2000E114F10431F0D7011396FC93EE93129751
:103A300044C0F093C102E093C0023FC08D919C91BD
:103A400011974817590708F4AC017D0112960D90A3
:103A5000BC91A02DB3CF8091BE029091BF0288157A
:103A60009905E1F446175707C8F480911601909123
:103A70001701009741F48DB79EB740911A015091FC
:103A80001B01841B950BE817F907C8F4F093BF02DC
:103A9000E093BE02F901718360830FC0CB010E94E5
:103AA0006F1B7C01009759F0A801BE010E946B1D9D
:103AB000CE010E94041CC70104C0CE0102C080E0F8
:103AC00090E0CDB7DEB7EEE00C94441F81E090E0CB
:103AD000F8940C948C1FFB01DC0102C001900D9244
:103AE00041505040D8F70895FC018191861721F08C
:103AF0008823D9F7992708953197CF010895FB01BD
:103B0000DC0101900D920020E1F708951F93FC0164
:103B100099278827BC01E89411911032E9F31930F4
:103B200010F01E30C8F31B3251F01D3249F4689476
:103B300006C00E94B81D610F711D811D911D11915C
:103B400010531A30B0F33EF49095809570956195BE
:103B50007F4F8F4F9F4F1F910895BB274A3031F4FD
:103B6000992322F4BDE2909581959F4F0C94CE1D30
:103B7000592F482F372F262F660F771F881F991F21
:103B8000660F771F881F991F620F731F841F951F71
:103B9000660F771F881F991F0895BB27FB015527C4
:103BA000AA27880F991FAA1FA41710F0A41B83959A
:103BB0005051B9F7A05DAA3308F0A95DA193009711
:103BC00079F7B111B1931192CB010C94E71DDC018F
:103BD000FC01672F71917723E1F7329704C07C9144
:103BE0006D9370836291AE17BF07C8F30895E89490
:103BF00009C097FB3EF490958095709561957F4F35
:103C00008F4F9F4F9923A9F0F92F96E9BB279395E2
:103C1000F695879577956795B795F111F8CFFAF4F2
:103C2000BB0F11F460FF1BC06F5F7F4F8F4F9F4F23
:103C300016C0882311F096E911C0772321F09EE881
:103C4000872F762F05C0662371F096E8862F70E0E7
:103C500060E02AF09A95660F771F881FDAF7880FC1
:103C60009695879597F908950E94471E0C94B81E63
:103C70000E94AA1E38F00E94B11E20F0952311F078
:103C80000C94A11E0C94A71E11240C94EC1E0E94EF
:103C9000C91E70F3959FC1F3950F50E0551F629FA9
:103CA000F001729FBB27F00DB11D639FAA27F00D95
:103CB000B11DAA1F649F6627B00DA11D661F829FBC
:103CC0002227B00DA11D621F739FB00DA11D621FA1
:103CD000839FA00D611D221F749F3327A00D611DBE
:103CE000231F849F600D211D822F762F6A2F1124A0
:103CF0009F5750409AF0F1F088234AF0EE0FFF1FD3
:103D0000BB1F661F771F881F91505040A9F79E3F29
:103D1000510580F00C94A11E0C94EC1E5F3FE4F35F
:103D2000983ED4F3869577956795B795F795E7957F
:103D30009F5FC1F7FE2B880F911D9695879597F988
:103D4000089597F99F6780E870E060E008959FEF1D
:103D500080EC089500240A94161617061806090622
:103D6000089500240A9412161306140605060895F1
:103D7000092E0394000C11F4882352F0BB0F40F479
:103D8000BF2B11F460FF04C06F5F7F4F8F4F9F4FB9
:103D9000089557FD9058440F551F59F05F3F71F03B
:103DA0004795880F97FB991F61F09F3F79F08795A2
:103DB0000895121613061406551FF2CF4695F1DF2B
:103DC00008C0161617061806991FF1CF86957105BB
:103DD000610508940895E894BB2766277727CB01EF
:103DE00097F90895052E97FB1EF400940E94091F71
:103DF00057FD07D00E945B1F07FC03D04EF40C94C4
:103E0000091F50954095309521953F4F4F4F5F4F7B
:103E1000089590958095709561957F4F8F4F9F4F36
:103E200008950E947D1FA59F900DB49F900DA49FA3
:103E3000800D911D11240895B7FF0C94111F0E944D
:103E4000111F821B930B08952F923F924F925F9206
:103E50006F927F928F929F92AF92BF92CF92DF929A
:103E6000EF92FF920F931F93CF93DF93CDB7DEB7FF
:103E7000CA1BDB0B0FB6F894DEBF0FBECDBF099493
:103E80002A88398848885F846E847D848C849B84EA
:103E9000AA84B984C884DF80EE80FD800C811B81F8
:103EA000AA81B981CE0FD11D0FB6F894DEBF0FBE27
:103EB000CDBFED010895A1E21A2EAA1BBB1BFD0187
:103EC0000DC0AA1FBB1FEE1FFF1FA217B307E407F9
:103ED000F50720F0A21BB30BE40BF50B661F771F51
:103EE000881F991F1A9469F7609570958095909531
:103EF0009B01AC01BD01CF010895A29FB001B39F0A
:103F0000C001A39F700D811D1124911DB29F700DE2
:0C3F1000811D1124911D0895F894FFCF2D
:103F1C00C701C701C701C701C701FFFFFFFF00E1D0
:103F2C000000000000000000C20280000100000040
:103F3C000200320005000000000000002601BA0259
:103F4C004701650341033C01000000002D02220DD6
:103F5C008102990214022C0200C1808100000073BE
:103F6C00657475702E2E2E00696E76616C696420F6
:103F7C00636F6D6D616E64207265636569766564EF
:103F8C0000636F6D6D756E696361746F7220746917
:103F9C006D6564206F757400646573697265643A4D
:103FAC0020000961637475616C3A2000707265764B
:103FBC003A20000977726974696E673A20000D0A1D
:103FCC00006379636C65506572696F642073657406
:063FDC0020746F200000BC
:00000001FF
