:100000000C9488000C94B0000C94B0000C94B000D8
:100010000C94B0000C94B0000C94B0000C94B60595
:100020000C94B0000C94B0000C94B0000C94B00090
:100030000C94B0000C94B0000C94B0000C94B00080
:100040000C946C050C94B0000C9415040C94EF0304
:100050000C94B0000C94B0000C94B0000C94B00060
:100060000C94B0000C94B000084AD73B3BCE016E14
:1000700084BCBFFDC12F3D6C74319ABD56833DDAFF
:100080003D00C77F11BED9E4BB4C3E916BAAAABE0E
:10009000000000803F05A84CCDB2D44EB93836A937
:1000A000020C50B9918688083CA6AAAA2ABE000074
:1000B00000803F0000000000240027002A0000000C
:1000C0000000230026002900000000002500280071
:1000D0002B000404040404040404020202020202C9
:1000E00003030303030301020408102040800102FC
:1000F000040810200102040810200000000800027B
:1001000001000003040700000000000000000A16C0
:1001100011241FBECFEFD8E0DEBFCDBF27E0A0E2A5
:10012000B1E001C01D92A63FB207E1F711E0A0E0E7
:10013000B1E0E8ECFEE302C005900D92A032B107F9
:10014000D9F710E0C8E8D0E004C02197FE010E9472
:10015000571FC738D107C9F70E9433070C94621F95
:100160000C940000CF92DF92EF92FF920F931F93B7
:10017000CF93DF936C017A018B01C0E0D0E0CE1504
:10018000DF0589F0D8016D918D01D601ED91FC91CB
:100190000190F081E02DC6010995892B11F47E01B3
:1001A00002C02196ECCFC701DF91CF911F910F9133
:1001B000FF90EF90DF90CF9008950E945D1FCF9247
:1001C000DF92EF92FF922FE832EC45E95FE30E9465
:1001D000BF1B20E030E044EB52E40E94981C0E94D8
:1001E000AA1D663971053CF4DB016E3171052CF4F2
:1001F000AEE1B0E002C0A6E9B0E0A53BB10514F065
:10020000A4EBB0E0A0933102C090320220913302FF
:1002100030E02C193109D12CE12CF12CFE2CED2CE5
:10022000DC2CCC24A901330F660B770B2227342F4B
:10023000452F562F0E94231F24EB30E040E050E072
:100240000E94041FC701B601620F731F841F951F10
:1002500028E030E040E050E00E94041F809130022E
:10026000893029F4309389002093880004C03093AA
:100270008B0020938A00FF90EF90DF90CF9008953D
:10028000CF92DF92EF92FF920F931F93CF93DF9362
:100290008B010154184FF801C081D1E0CD2701F145
:1002A0009B01FC0189E0829FB001839F700D1124A6
:1002B000DB01A559B84FC080D180E280F3809A96C7
:1002C000CD92DD92ED92FC929D9784819E968C93C7
:1002D0006656784FCF0105960E944D06F801D083EF
:1002E0008C2FDF91CF911F910F91FF90EF90DF90B6
:1002F000CF900895FC0120816181862F90E0A0E0DD
:10030000B0E0DC0199278827B22B2381822B228140
:10031000BC01CD01722B08954F925F926F927F9234
:100320008F929F92AF92BF92CF92DF92EF92FF9205
:10033000CF93DF93CDB7DEB72C970FB6F894DEBF1F
:100340000FBECDBF3C012B014F3F8FEF580781F10E
:100350004130510509F00AC1DB01CD90DD90ED90EF
:10036000FC90F30180809180A280B3802CEA35EC70
:1003700047E257E3C701B6010E94971C9B01AC01FD
:10038000C501B4010E94461E87FD62C02CEA35EC0F
:1003900047E257E3C701B6010E94981C9B01AC01DC
:1003A000C501B4010E94591B18160CF451C02EC08F
:1003B000DB011496CD90DD90ED90FC901797F30142
:1003C00060817181828193819B01AC010E94981CA4
:1003D000D2012D913D914D915C910E94971C6983B2
:1003E0007A838B839C83CD82DE82EF82F88641E024
:1003F00050E0BE016F5F7F4FC3010E948C016B0113
:100400007C01F7FAF094F7F8F094B0C0F30124817E
:10041000358146815781D20114966D917D918D91E0
:100420009C9117970E94461E18164CF49BEDC92EFE
:100430009FE0D92E99ECE92E9FE3F92E97C084EE28
:10044000C82E8BECD82E86E9E82E80E4F82E8EC0DC
:10045000A5019401C701B6010E94461E18160CF0B2
:100460005FC0D20114968D919D910D90BC91A02DED
:1004700089879A87AB87BC87F30144805580668063
:100480007780A3019201BC01CD010E94461EA30109
:10049000920187FD2AC069857A858B859C850E949B
:1004A000971C2B013C01A5019401C701B6010E94D4
:1004B000971C9B01AC01C301B2010E94381D2C9610
:1004C0000FB6F894DEBF0FBECDBFDF91CF91FF9086
:1004D000EF90DF90CF90BF90AF909F908F907F90E4
:1004E0006F905F904F900C94041D69857A858B8581
:1004F0009C850E94971C2B013C01A5019401C7011A
:10050000B6010E94971C9B01AC01C301B2010E947D
:10051000381D0E94041D2BED3FE049EC50E422C041
:10052000D30114962D913D914D915C911797F20155
:1005300064817581868197810E94971C2B013C0103
:10054000A5019401C701B6010E94971C9B01AC0153
:10055000C301B2010E94381D0E94041D2BED3FE033
:1005600049E450E40E94981C6B017C01C701B6016C
:100570002C960FB6F894DEBF0FBECDBFDF91CF91A2
:10058000FF90EF90DF90CF90BF90AF909F908F90B3
:100590007F906F905F904F9008951F93CF93DF935C
:1005A00082302FEF920734F08F3F910534F0CFEF78
:1005B000D0E004C0C1E0DFEF01C0EC011D2F1095B9
:1005C000111F1127111F11F0BE0102C060E070E081
:1005D00085E00E94DC04111105C0662777276C1B9B
:1005E0007D0B02C060E070E086E0DF91CF911F914B
:1005F0000C94DC04FC01918D828D981761F0828D42
:10060000DF01A80FB11D5D968C91928D9F5F9F7346
:10061000928F90E008958FEF9FEF0895FC01918DE8
:10062000828D981731F0828DE80FF11D858D90E055
:1006300008958FEF9FEF0895FC01918D228D892FF2
:1006400090E0805C9F4F821B91098F7399270895DA
:1006500084E291E00E941C0321E0892B09F420E050
:10066000822F0895FC01848DDF01A80FB11DA35ACC
:10067000BF4F2C91848D90E001968F739927848FC2
:10068000A689B7892C93A089B1898C9180648C93B9
:10069000938D848D981306C00288F389E02D8081A4
:1006A0008F7D80830895EF92FF920F931F93CF93D6
:1006B000DF93EC0181E0888F9B8D8C8D981305C0B2
:1006C000E889F989808185FD24C0F62E0B8D10E024
:1006D0000F5F1F4F0F731127E02E8C8DE8120CC097
:1006E0000FB607FCFACFE889F989808185FFF5CF3D
:1006F000CE010E943203F1CF8B8DFE01E80FF11D78
:10070000E35AFF4FF0820B8FEA89FB898081806278
:1007100007C0EE89FF896083E889F9898081806458
:10072000808381E090E0DF91CF911F910F91FF9046
:10073000EF900895CF93DF93EC01888D8823C9F063
:10074000EA89FB89808185FD05C0A889B9898C91DA
:1007500086FD0FC00FB607FCF5CF808185FFF2CF75
:10076000A889B9898C9185FFEDCFCE010E94320313
:10077000E7CFDF91CF91089580E090E0892B29F0B9
:100780000E94280381110C9400000895833081F0A9
:1007900028F4813099F08230A1F008958730A9F0D3
:1007A0008830B9F08430D1F4809180008F7D03C00F
:1007B000809180008F7780938000089584B58F7733
:1007C00002C084B58F7D84BD08958091B0008F777D
:1007D00003C08091B0008F7D8093B00008951F9278
:1007E0000F920FB60F9211242F933F934F935F9365
:1007F0006F937F938F939F93AF93BF93EF93FF93E9
:1008000084E291E00E943203FF91EF91BF91AF919A
:100810009F918F917F916F915F914F913F912F9118
:100820000F900FBE0F901F9018951F920F920FB64A
:100830000F9211242F938F939F93EF93FF93E09147
:100840003401F09135018081E0913A01F0913B0152
:1008500082FD12C0908180913D018F5F8F73209146
:100860003E01821751F0E0913D01F0E0EC5DFE4F5A
:10087000958F80933D0101C08081FF91EF919F9101
:100880008F912F910F900FBE0F901F901895CF93BF
:10089000DF93282F30E0F901E650FF4F8491F901F2
:1008A000EA51FF4FD491F901EE52FF4FC491CC238E
:1008B00091F081110E94C603EC2FF0E0EE0FFF1FB4
:1008C000E254FF4FA591B491EC91ED2381E090E0CB
:1008D00021F480E002C080E090E0DF91CF910895A4
:1008E0001F93CF93DF93282F30E0F901E650FF4F9D
:1008F0008491F901EA51FF4FD491F901EE52FF4F73
:10090000C491CC23C9F0162F81110E94C603EC2F8D
:10091000F0E0EE0FFF1FE853FF4FA591B4918FB7A2
:10092000F894111105C09C91ED2FE095E92302C0C8
:10093000EC91ED2BEC938FBFDF91CF911F91089538
:10094000CF93DF9390E0FC01EA51FF4F2491FC012B
:10095000EE52FF4F8491882361F190E0880F991F38
:10096000FC01EC54FF4FC591D491FC01E853FF4FBB
:10097000A591B491611109C09FB7F8948881209521
:1009800082238883EC912E230BC0623061F49FB7E1
:10099000F8943881822F809583238883EC912E2BC5
:1009A0002C939FBF06C08FB7F894E8812E2B288325
:1009B0008FBFDF91CF9108951F93CF93DF93182FAF
:1009C000EB0161E00E94A004209711F460E004C0F4
:1009D000CF3FD10539F461E0812FDF91CF911F9195
:1009E0000C947004E12FF0E0E650FF4FE491E33007
:1009F000F9F048F4E130B9F0E230A1F584B5806255
:100A000084BDC8BD34C0E730E9F0E83019F1E43006
:100A100049F580918000806280938000D0938B00A4
:100A2000C0938A0024C084B5806884BDC7BD1FC040
:100A300080918000806880938000D0938900C0936B
:100A4000880015C08091B00080688093B000C0938A
:100A5000B3000DC08091B00080628093B000C0935D
:100A6000B40005C0C038D1050CF0B5CFAFCFDF91D1
:100A7000CF911F9108953FB7F8948091F20790911C
:100A8000F307A091F407B091F50726B5A89B05C020
:100A90002F3F19F00196A11DB11D3FBFBA2FA92FFD
:100AA000982F8827820F911DA11DB11DBC01CD017A
:100AB00042E0660F771F881F991F4A95D1F7089566
:100AC0002FB7F8946091EE077091EF078091F007CF
:100AD0009091F1072FBF08951F920F920FB60F92BA
:100AE00011242F933F938F939F93AF93BF93809144
:100AF000EE079091EF07A091F007B091F1073091C8
:100B0000ED0723E0230F2D3720F40196A11DB11D21
:100B100005C026E8230F0296A11DB11D2093ED0705
:100B20008093EE079093EF07A093F007B093F1073F
:100B30008091F2079091F307A091F407B091F50727
:100B40000196A11DB11D8093F2079093F307A09326
:100B5000F407B093F507BF91AF919F918F913F91AB
:100B60002F910F900FBE0F901F9018951F920F920C
:100B70000FB60F9211242F933F934F935F936F9370
:100B80007F938F939F93AF93BF93EF93FF93E091E6
:100B90002001F09121010995FF91EF91BF91AF9153
:100BA0009F918F917F916F915F914F913F912F9185
:100BB0000F900FBE0F901F901895E0E7F0E0808136
:100BC0008D7F80830895EF92FF920F931F93CF93B1
:100BD000DF937C018B0120E030E040E053E4FC0136
:100BE00060817181828193810E94BF1B20E030E08F
:100BF00048E453E40E94381D0E94AA1DEB016138AD
:100C0000FFEF7F0734F06F3771052CF0CFE7D0E0AE
:100C100002C0C0E8DFEF20E030E040E053E4F7013D
:100C200064817581868197810E94BF1B20E030E03E
:100C300048E453E40E94381D0E94AA1D6138FFEF6A
:100C40007F0734F06F3771052CF06FE770E002C05A
:100C500060E87FEFF801C0836183DF91CF911F913E
:100C60000F91FF90EF90089540E050E0283031055B
:100C700091F44032510579F0FA01E253FE4F708150
:100C8000618193819823E281E91302C0272F362FD7
:100C90004C5F5F4FEBCFC9010895FB019C012C5FB6
:100CA0003F4FDC014D91CD014193A217B307C9F726
:100CB0000895CF92DF92EF92FF920F931F93CF93FD
:100CC000DF93FC0120853185232BA9F0EC010E94E4
:100CD0006005C880D980EA80FB800C811D812E814F
:100CE0003F81C00ED11EE21EF31E21E06C157D0572
:100CF0008E059F0508F420E0822FDF91CF911F9190
:100D00000F91FF90EF90DF90CF9008958F929F9278
:100D1000AF92BF92CF92DF92EF92FF920F931F9309
:100D2000CF93DF930E943B050091EC061091ED06F6
:100D30002091EE063091EF060617170728073907AE
:100D400018F40E94DD054CC0E091E606F091E7063C
:100D500090818091E306892309F042C00E94DD055D
:100D60000E943B052091EA063091EB066901E12CD7
:100D7000F12C0091EC061091ED062091EE063091D9
:100D8000EF0646015701801A910AA20AB30A95019B
:100D900084010D50110921093109600F711F821F53
:100DA000931F6093DE067093DF068093E0069093B6
:100DB000E1062091F0063091F1064CE1429FE001FE
:100DC000439FD00D1124C858DA4F29E330E040E0AA
:100DD00050E00E94E21E398F288F1092F20626C042
:100DE00081E097E00E945906882301F18091F00686
:100DF0009091F1062CE1289FF001299FF00D11241C
:100E0000E858FA4F88EC90E0918F808F1092F206AC
:100E1000DF91CF911F910F91FF90EF90DF90CF90D6
:100E2000BF90AF909F908F900C94DD05DF91CF9194
:100E30001F910F91FF90EF90DF90CF90BF90AF90F8
:100E40009F908F900895CF93DF93EC010E946005EF
:100E50006C837D838E839F8381E090E09987888770
:100E6000DF91CF910895CF93DF93CDB7DEB7CB5508
:100E7000D1090FB6F894DEBF0FBECDBF789484B50C
:100E8000826084BD84B5816084BD85B5826085BD86
:100E900085B5816085BD80916E00816080936E0014
:100EA0001092810080918100826080938100809106
:100EB00081008160809381008091800081608093B7
:100EC00080008091B10084608093B1008091B00077
:100ED00081608093B00080917A00846080937A0072
:100EE00080917A00826080937A0080917A0081609C
:100EF00080937A0080917A00806880937A001092C3
:100F0000C10060E080E00E94A00461E081E00E94F6
:100F1000A0041092BB071092BF071092BC0710925A
:100F2000C0071092BD071092C1071092BE07109221
:100F3000C207E0913401F091350182E08083E091B5
:100F40003001F09131011082E0913201F0913301D2
:100F50008FEC808310923C01E0913801F0913901CF
:100F600086E08083E0913601F091370180818061D5
:100F70008083E0913601F091370180818860808321
:100F8000E0913601F0913701808180688083E091A3
:100F90003601F091370180818F7D808310928B071D
:100FA00010928A0761E088E00E94A00461E087E077
:100FB0000E94A00461E08BE00E94A00461E08AE04E
:100FC0000E94A004E0E9F5E088EC90E09587848732
:100FD000918380839383828395838483978386839D
:100FE00091878087938782877C9626E0E03EF20790
:100FF00069F781E08093F3061092F2068BE090E0AF
:101000009093F1068093F00684E090E09093F506CB
:101010008093F4061092FF0660E082E00E94A00434
:1010200060E084E00E94A00460E083E00E94A004ED
:1010300060E08EE00E94A00460E08FE00E94A004C7
:1010400060E080E10E94A00460E081E10E94A004D1
:1010500060E082E10E94A00461E083E10E94A004BC
:101060000E94600560936E0570936F058093700514
:101070009093710510927305109272051092740589
:1010800010927505109276051092770561E085E063
:101090000E94A00461E086E00E94A00489E08093A1
:1010A00030028FEF8093310260E089E00E9470048B
:1010B00061E0809130020E94A0048091230181119F
:1010C00022C08091220181111EC02FB7F89482E0C6
:1010D000809380008AE18093810088EB9BE090936D
:1010E00089008093880090938B0080938A0080E42D
:1010F0009CE9909387008093860080916F00887FA1
:1011000080936F002FBF80913002893041F481E0DD
:1011100080932301809180008F73806807C081E0F5
:1011200080932201809180008F7C80628093800078
:1011300010922C0210922D0210922E0210922F0269
:1011400060E070E0CB010E94DF0010922802109254
:10115000290210922A0210922B0210923D058BE672
:1011600097E00E945906882309F426C187E797E093
:101170000E94590681111CC184E291E00E941C0367
:10118000009709F4B5C040918A0750918B0729E078
:1011900030E0241B350B8C01281739070CF489012A
:1011A000A12CB12C912C82E0E82EF12CCC24C394FC
:1011B000D12CA016B1060CF06AC084E291E00E9426
:1011C000FA022091B9073091BA072130310541F177
:1011D00022303105E1F1232B09F055C020918A0717
:1011E00030918B07F901E653FE4F9081891313C0AC
:1011F000A9014F5F5F4F50938B0740938A07F90116
:10120000E559F84F868B44305105E9F5D092BA077D
:10121000C092B90738C010928B0710928A0733C06A
:1012200020918A0730918B07A9014F5F5F4F509340
:101230008B0740938A07F901E559F84F868B4530B3
:10124000510509F5F092BA07E092B9071CC0209148
:101250008A0730918B07A9014F5F5F4F50938B072F
:1012600040938A07F901E559F84F868B49305105BB
:1012700051F410928B0710928A071092BA071092BD
:10128000B907992493943FEFA31AB30A92CF9920F8
:1012900079F180918507809390070E943406880F2A
:1012A000991F880F991FFC01E253FE4F80819181A5
:1012B000A281B38180938C0790938D07A0938E07B2
:1012C000B0938F07BE016F5F7F4F86E897E00E9463
:1012D0004D0661E977E0CE0101960E944D0681E05E
:1012E0008093BB078093BC078093BD078093BE07A4
:1012F000AFEBEA2EA7E0FA2E00E010E0B5E0BB2E3F
:101300006E014FE0C40ED11CD7018C91882309F4E3
:1013100042C01C92F801E559F84FA6A4BE016F5FC8
:101320007F4F8AEC91E00E944D06AD82FE0131961E
:10133000DE0152968B2D01900D928A95E1F7FE0108
:101340007296DE0157968B2D01900D928A95E1F7EA
:10135000FE017796DE011A968B2D01900D928A95EB
:10136000E1F7C8018656984FFE013A96DE011196C4
:1013700021912D93EC15FD05D9F7BE016A5F7F4FD2
:101380000E944D0649E050E0BE016F5F7F4F84E24E
:1013900091E00E94B200BFEFEB1AFB0A075F1F4FFC
:1013A0000432110509F0B0CF8BE697E00E942307C5
:1013B00087E797E00E94230788E795E00E94590697
:1013C000882309F416C384E895E00E945906811128
:1013D0000CC38091F306882309F403C3E0918205CE
:1013E000F0918305E554F84F80818823A9F110829C
:1013F00080918C0790918D07A0918E07B0918F07F7
:101400008093F6069093F706A093F806B093F9063A
:10141000809190078093FA066BEF76E081E997E080
:101420000E944D068091F6069091F7060497A1F46C
:101430008BEF96E00E947A0121E0672B682B692BE5
:1014400009F420E02093FF066091820570918305E6
:1014500081EC91E00E9440018091F2068111C1C2AD
:101460008091FF06882309F45FC0809100078111F5
:101470005BC00091F0061091F10600FF55C0C80155
:1014800017FD0196959587959091E401890F8093BA
:10149000FA060E943406880F991F880F991FFC01D5
:1014A000E253FE4F80819181A281B3818093F60641
:1014B0009093F706A093F806B093F906C801E3E00D
:1014C000880F991FEA95E1F7BE01645E7F4F8D5F3B
:1014D000984F0E94E3058091F0069091F106F3E0A9
:1014E000880F991FFA95E1F7BE01665F7F4F855F10
:1014F000984F0E94E3052D8D9A858B853C8D39830D
:101500002A839B838C836BEF76E0CE0101960E9449
:101510004D06609182057091830586EF96E00E94EA
:10152000400181E0809300072090F0063090F106A2
:10153000EBE02E16310469F48091F4069091F506E3
:10154000019665E070E00E94CE1E9093F5068093B0
:10155000F4062091F4063091F5063BA32AA38CE112
:10156000829DF001839DF00D1124E858FA4FC08C44
:10157000D18CC114D10411F0860102C008EC10E036
:101580008EE0829DF001839DF00D11244AA15BA1A4
:10159000E40FF51FEE0FFF1FEE56FA4F1183008385
:1015A00058ECC516D10419F0E0E0F1E002C0E6E025
:1015B000F1E0808191819BA78AA782809380A4809B
:1015C000B5808CE1829DF001839DF00D1124E858D7
:1015D000FA4FA4A1B5A1BFA3AEA3BD01BB0F880B59
:1015E000990B0E94601B2B013C0120E030E040E899
:1015F0005FE3C501B4010E94981C6EAB7FAB88AF5E
:1016000099AF9B01AC01C301B2010E94BF1B0E94B4
:10161000AA1D7B01A501940160E070E080E89FE3D2
:101620000E94971C4B015C019B01AC01C301B201FC
:101630000E94BF1B0E94AA1DE616F7063CF0061783
:1016400017075CF0E016F10644F077C00E151F0591
:1016500024F0601771070CF070C08AA19BA104965A
:1016600065E070E00E94CE1E9F8F8E8FE12CF12CE2
:101670008EE0829DD001839DB00D1124B9ABA8AB43
:101680009601DD0C440B550B2AAB3BAB4CAB5DAB71
:10169000AE8DBF8DEAA1FBA1AE17BF0709F445C00F
:1016A0002AA53BA5E216F3060CF03FC0E8A9F9A96C
:1016B0002E8D3F8DE20FF31FEE0FFF1FEE56FA4FF8
:1016C000C080D1806AA97BA98CA99DA90E94601BBA
:1016D0002B013C012EA93FA948AD59AD0E94BF1B6B
:1016E0000E94AA1D7DA76CA7A5019401C301B201A8
:1016F0000E94BF1B0E94AA1D4CA55DA54617570757
:1017000014F40C94B015C616D70614F00C94AA1550
:1017100021E08E8D9F8D049665E070E00E94CE1EC4
:101720009F8F8E8F222309F4B3CF8AA59BA50197A3
:10173000E816F90614F40EA11FA18CE1829DF001B8
:10174000839DF00D1124E858FA4F15A304A33CE142
:10175000329DC001339D900D1124AC0148585A4F61
:101760007A01DA0194966D917C919597072E000C81
:10177000880B990B0E94601B2B013C012BED3FE075
:1017800049EC5FE3F70166A577A580A991A90E94BE
:10179000981C4B015C010E94331D9B01AC0181012F
:1017A00083E0000F111F8A95E1F708581A4F68016E
:1017B000FDE6CF1AFEEFDF0AC301B2010E94BF1B94
:1017C0009B01AC01D70196966D917D918D919C9175
:1017D00099970E94981CF60160837183828393839A
:1017E000C501B4010E94531E9B01AC0109561E4F56
:1017F000C301B2010E94BF1B9B01AC01D7019A96A5
:101800006D917D918D919C919D970E94981CF801FE
:101810006083718382839383C10101966CE070E0E1
:101820000E94CE1E9093F1068093F006109200075E
:101830002CE1289FF001299FF00D1124E858FA4F60
:1018400006891789602F617088E00E947004B801D2
:1018500076956795617087E00E947004B80176956F
:1018600067957695679561708BE00E94700433E010
:10187000169507953A95E1F7602F61708AE00E940E
:10188000700481E08093F2060E94DD0581E097E01C
:101890000E942307E091E806F091E906908180918B
:1018A000E206892B8083E091E406F091E5069081C1
:1018B0008091E2068095892380838BE090E00197F8
:1018C000F1F7E091E406F091E50690818091E2065F
:1018D000892B808383E290E00197F1F7E091E406A1
:1018E000F091E50690818091E206809589238083BE
:1018F000E091E806F091E90690818091E2068095FA
:1019000089238083E091E606F091E706908180913B
:10191000E306892309F065C00E943B052091EA0691
:101920003091EB06890120E030E00855194E2F4F29
:101930003F4FDC01CB01800F911FA21FB31F80938B
:10194000EC069093ED06A093EE06B093EF06E091BF
:10195000E606F091E70690818091E306892381F401
:101960000E943B050091EC061091ED062091EE06D9
:101970003091EF06061717072807390740F731C0DF
:101980000E943B052091EA063091EB06DC01CB0179
:10199000820F931FA11DB11D8093EC069093ED065D
:1019A000A093EE06B093EF0686E896E090932101AF
:1019B000809320010E94DD058091B6008F7D809389
:1019C000B60082E08093B00084E08093B100109272
:1019D000B20085E08093B3008091700082608093B4
:1019E000700088E795E00E94230784E895E00E9454
:1019F000230788E595E00E945906882309F4D3C09F
:101A000084E695E00E9459068111C9C00E946005D4
:101A10006B017C0160E083E10E94700482E10E941E
:101A20004704082F81E10E9447048295880F880FA0
:101A3000807C182F30E8039F1019112480E10E9448
:101A40004704882E8FE00E944704982E8EE00E9463
:101A50004704A82E83E00E944704082F84E00E94D8
:101A60004704B82E82E00E944704810F182F40E2FD
:101A7000849E100D112450E1959E100D112488E0D4
:101A8000A89E100D1124000F000F010FBB0C0B0DB1
:101A9000002E000C110B61E083E10E947004409164
:101AA0007205509173059801241B350BC90137FF4E
:101AB00004C088279927821B930B81389105CCF0AD
:101AC000C90193953A95DC0197FF04C0AA27BB276B
:101AD000A81BB90BF90137FF04C0EE27FF27E21B53
:101AE000F30BEA17FB070CF4C901BA01680F791F61
:101AF00001C0B80180916E0590916F05A0917005AD
:101B0000B091710546015701881A990AAA0ABB0AC1
:101B1000C0926E05D0926F05E0927005F09271054B
:101B2000109373050093720581149104A104B1040C
:101B300039F1641B750B072E000C880B990B0E9462
:101B4000601B20E030E046E155E40E94381D26E6A7
:101B500036E642EA51E40E94BF1B6B017C01C501DD
:101B6000B4010E945E1B9B01AC01C701B6010E943B
:101B7000381D20E030E04AE754E40E94BF1B03C058
:101B800060E070E0CB0160937405709375058093FD
:101B900076059093770588E595E00E94230784E613
:101BA00095E00E9423078EEE91E00E94590688235B
:101BB00009F4CCC78AEF91E00E9459068EAB8111DF
:101BC000C1C72091740530917505409176055091FB
:101BD00077052CA73DA74EA75FA780912C02909177
:101BE0002D02A0912E02B0912F028E8F9F8FA8A35D
:101BF000B9A386E092E00E945906882309F4F1C057
:101C0000C0902802D0902902E0902A02F0902B0286
:101C100020E030E0A901C701B6010E94591B8111E3
:101C200019C020E030E040E85FEB6CA57DA58EA5F3
:101C30009FA50E94461E87FD0DC020E030E040E8D1
:101C40005FE36CA57DA58EA59FA50E94591B181664
:101C50000CF0C6C72CA53DA54EA55FA5C701B601D2
:101C60000E94971C4B015C010E9460056B017C0186
:101C70001091240200912502309026022090270224
:101C8000909120029AA3A0912102AAA7B0912202CA
:101C9000BEA3E0912302E8AB209110023091110223
:101CA0004091120250911302C501B4010E94BF1B62
:101CB00020911C0230911D0240911E0250911F0282
:101CC0000E94981C6AAB7BAB8CAB9DAB2091180239
:101CD0003091190240911A0250911B02C501B401C2
:101CE0000E94971C2B013C0180910A0290910B02EB
:101CF000A0910C02B0910D02A7019601281B390B8F
:101D00004A0B5B0BCA01B9010E945E1B9B01AC012F
:101D1000C301B2010E94381D2091140230911502B6
:101D200040911602509117020E94BF1B9B01AC010B
:101D30006AA97BA98CA99DA90E94981C6B017C01B2
:101D40002AA13AA54EA158A90E94461E18162CF0A9
:101D5000BAA1AAA5FEA1E8A904C0BC2DAD2DFE2DF7
:101D6000EF2D212F302F432D522D6B2F7A2F8F2FB8
:101D70009E2F0E94591B87FF13C02AA13AA54EA18E
:101D800058A9B601C7010E94461E18162CF01AA1C8
:101D90000AA53EA028A804C01C2D0D2D3E2C2F2CDA
:101DA000812F902FA32DB22D80931C0290931D02A2
:101DB000A0931E02B0931F02809218029092190203
:101DC000A0921A02B0921B02612F702F832D922DC8
:101DD0000E94AA1DCB010E94CD0286E092E00E94E3
:101DE0002307E091F801F091F901E554F84F3081B3
:101DF00060963FAF60973323D9F0108280918C07B3
:101E000090918D07A0918E07B0918F078093340534
:101E100090933505A0933605B093370580919007D0
:101E20008093380569E375E081E997E00E944D06EB
:101E300080913D05882331F08EE395E00E9459069C
:101E40008111A0C680910402909105028130910514
:101E500009F4DBC5029709F071C68E8D9F8DA8A18C
:101E6000B9A18093190590931A05A0931B05B0930F
:101E70001C0520E030E0A901BC01CD010E94461EF6
:101E800087FF05C0AFEFBFEFBBABAAAB04C0E1E07B
:101E9000F0E0FBABEAAB2AA93BA930931E052093E7
:101EA0001D058CA59DA5AEA5BFA580931505909396
:101EB0001605A0931705B09318056E8D7F8D88A128
:101EC00099A10E94531E6B017C012CEA35EC47E27C
:101ED00057EB0E94461E87FD0CC091E09AA72CEAA2
:101EE00035EC47E257E3C701B6010E94591B1816AB
:101EF0000CF41AA6AAA5A0933305A11182C06E8D79
:101F00007F8D88A199A10E94331D9B01AC01C7015F
:101F1000B6010E94381D9B01AC0160E070E080EAD0
:101F200091E40E94381D4B015C0160931F05709382
:101F300020058093210590932205EAA9FBA9BF0102
:101F4000FF0F880B990B0E94601B2B013C0120E0C6
:101F500030E040E051E40E94BF1B6AA37BA38CA346
:101F60009DA39B01AC01C501B4010E94981C6B01AB
:101F70007C019B01AC010E94BF1B23EC35EF48E3C1
:101F800054E40E94981C0E94611EA30192010E94C9
:101F9000BF1B6093270570932805809329059093B4
:101FA0002A052AA13BA14CA15DA1C501B4010E9453
:101FB000971C6093230570932405809325059093C7
:101FC00026059B01AC010E94BF1B20E030E048ECDD
:101FD00053E40E94981C0E94611EA30192010E947A
:101FE000BF1B60932B0570932C0580932D05909358
:101FF0002E05C0922F05D0923005E0923105F09267
:10200000320521EE3EE245E652E46091A60570916C
:10201000A7058091A8059091A9050E94BF1B9B016F
:10202000AC016E8D7F8D88A199A10E94971C6B01D8
:102030007C0120E030E0A9010E94461E181624F021
:10204000F7FAF094F7F8F094B2ECAB2EB5E0BB2EB3
:1020500019AA18AA01E010E021EE3EE245E652E49A
:10206000D5016D917D918D919C910E94BF1B9B012B
:10207000AC016E8D7F8D88A199A10E94971C2B01C8
:102080003C0120E030E0A9010E94461E181624F011
:1020900077FA709477F87094A7019601C301B201A2
:1020A0000E94591B87FF04C019AB08AB7301620182
:1020B0000F5F1F4FBCE1AB0EB11C0C30110561F678
:1020C00088A999A995958795E8A9F9A91C0136973A
:1020D0001CF0F3E02F0E311C24963FAE2EAE249759
:1020E00028E435E026963FAF2EAF26971AAE1BAEFA
:1020F0001CAE1DAE24962EAD3FAD2497C9010196AE
:102100006CE070E00E94CE1E24969FAF8EAF2497A5
:10211000E3E0220F331FEA95E1F728583A4FF9011F
:10212000ED56FE4F80819181A281B3812B968CAFB9
:102130009DAFAEAFBFAF2B978093FF049093000588
:10214000A0930105B093020534962081318142812C
:1021500053812F962CAF3DAF4EAF5FAF2F9720939B
:102160000305309304054093050550930605249616
:102170000EAD1FAD2497F3E0000F111FFA95E1F7A4
:1021800008581A4FF801E956FE4F6081718182812B
:1021900093810E94971C4B015C01F801ED56FE4FA4
:1021A0002B962CAD3DAD4EAD5FAD2B97608171810F
:1021B000828193810E94971C6B017C019B01AC0181
:1021C0000E94BF1B2B013C01A5019401C501B40174
:1021D0000E94BF1B9B01AC01C301B2010E94981C6D
:1021E0000E94611E20E030E040E251E40E94381D70
:1021F00020E030E040E85FE30E94981C2B013C01A6
:1022000020E030E040EA50E40E94591B87FF06C0FE
:10221000C301B2010E94AA1D8B0102C005E010E0BB
:102220001093100500930F05B801012E000C880BC8
:10223000990B0E94601B2B013C019B01AC01C50165
:10224000B4010E94381D64966CAF7DAF8EAF9FAF16
:102250006497A3019201C701B6010E94381D6896D8
:102260006CAF7DAF8EAF9FAF68976093070570939B
:1022700008058093090590930A0564968CAD9DAD81
:10228000AEADBFAD649780930B0590930C05A09302
:102290000D05B0930E0510921205109211052796A8
:1022A0001FAE279760911105709112056017710795
:1022B0000CF008C3CB010196909312058093110591
:1022C000072E000C880B990B0E94601B6B017C0190
:1022D0009B01AC0164966CAD7DAD8EAD9FAD6497F6
:1022E0000E94BF1B9B01AC012F966CAD7DAD8EADE6
:1022F0009FAD2F970E94981C6E8F7F8F88A399A304
:10230000A701960168966CAD7DAD8EAD9FAD6897C7
:102310000E94BF1B9B01AC012B966CAD7DAD8EADB9
:102320009FAD2B970E94981C2B013C019AA59923E5
:1023300009F470C0A301920160E070E080E091ECCC
:102340000E94971C6B017C0120E030E0A9010E94F3
:10235000461E181624F0F7FAF094F7F8F094A3014B
:10236000920160E070E080E091E40E94971C4B01D4
:102370005C0120E030E0A9010E94461E181624F0FE
:10238000B7FAB094B7F8B09420E030E040E051ECF8
:10239000C301B2010E94461E87FD11C020E030E05B
:1023A00040E051E4C301B2010E94591B18163CF0F1
:1023B000412C512C70E8672E7FEB772E06C0412C04
:1023C000512C60E8662E6FE3762EA5019401C701BB
:1023D000B6010E94591B87FD05C0782D692D9A2DE5
:1023E0008B2D04C07C2D6D2D9E2D8F2D272F362FEC
:1023F000492F582FC301B2010E94BF1B4B015C0142
:1024000020E030E040E050E40E94591B18160CF028
:10241000BEC31AC2C0901F05D0902005E0902105D0
:10242000F0902205D701C601B0588A879B87AC87F8
:10243000BD871E861F86188A198AA7019601C301C7
:10244000B2010E94981C4B015C0169837A838B83E3
:102450009C8320E030E040E251E46E8D7F8D88A1C6
:1024600099A10E94981C6E8F7F8F88A399A36D837A
:102470007E838F8398874AA95BA9BE016F5F7F4FD8
:10248000CE010A960E948C016C966CAF7DAF8EAF28
:102490009FAF6C97409023055090240560902505D0
:1024A0007090260520E030E0A901C301B2010E942E
:1024B000591B8823F9F0A7019601C501B4010E94B8
:1024C000981C9B01AC010E94BF1B6B017C012E8DEF
:1024D0003F8D48A159A1CA01B9010E94BF1B9B01B0
:1024E000AC01C701B6010E94981C0E94611E4B01FD
:1024F0005C010DC020E030E0A901C501B4010E94DB
:10250000461E181624F0B7FAB094B7F8B09420E03D
:1025100030E0A901C301B2010E94461EA30192014D
:1025200018160CF05058C501B4010E94971C20E009
:1025300030E0A9010E94461E20E030E0A9011816F3
:1025400094F4C301B2010E94461EA3019201181621
:102550000CF05058C501B4010E94971C6AA37BA3DC
:102560008CA39DA314C0C301B2010E94461EA30107
:10257000920118160CF05058C501B4010E94971C26
:102580009B01AC0150582AA33BA34CA35DA3C09070
:102590002705D0902805E0902905F0902A0520E035
:1025A00030E0A901C701B6010E94461EA7019601AD
:1025B00018160CF05058C501B4010E94971C20E079
:1025C00030E0A9010E94461E20E030E0A901181663
:1025D00094F4C701B6010E94461EA7019601181681
:1025E0000CF05058C501B4010E94971C6E8F7F8F6C
:1025F00088A399A314C0C701B6010E94461EA70173
:10260000960118160CF05058C501B4010E94971C91
:102610009B01AC0150582E8F3F8F48A359A320E057
:1026200030E0A901C701B6010E94461E181624F029
:10263000F7FAF094F7F8F09420E030E0A901C30134
:10264000B2010E94461E181644F0D301C201B058D0
:102650008EA39FA3A8A7B9A704C04EA25FA268A695
:1026600079A62EA13FA148A559A5C701B6010E9490
:10267000461E87FD0DC02EA13FA148A559A5C50145
:10268000B4010E94461E87FD1CC0A70196010CC024
:10269000A7019601C501B4010E94461E87FD11C025
:1026A0002EA13FA148A559A5C501B4010E94591BFF
:1026B00018163CF0C12CD12C50E8E52E5FEBF52E1E
:1026C00006C0C12CD12C40E8E42E4FE3F42E2E8D11
:1026D0003F8D48A159A16AA17BA18CA19DA10E9417
:1026E000591B87FD05C07E8D6F8D98A189A104C0FF
:1026F0007AA16BA19CA18DA1272F362F492F582F8E
:10270000C701B6010E94BF1B4B015C0120E030E015
:1027100040E050E40E94591B18160CF495C0A30128
:10272000920160912B0570912C0580912D0590915F
:102730002E050E94971C6B017C0120E030E0A9016E
:102740000E94461EA7019601181694F050582EA319
:102750003FA348A759A76E8D7F8D88A199A10E949C
:10276000591B87FD0DC07EA16FA198A589A50CC03E
:102770006E8D7F8D88A199A10E94591B87FF33C25E
:102780007E8D6F8D98A189A1272F362F492F582F25
:102790006AA17BA18CA19DA10E94591B87FF28C023
:1027A000A301920160E070E080EA91E40E94381D8C
:1027B0000E94041D2B013C0120E030E0A901C7016B
:1027C000B6010E94461E181624F0F7FAF094F7F8A6
:1027D000F094A70196016AA17BA18CA19DA10E9402
:1027E000381D9B01AC01C301B2010E94BF1B0AC08E
:1027F000A301920160E070E080EA91E40E94381D3C
:102800000E94041D9B01AC016C966CAD7DAD8EAD3C
:102810009FAD6C970E94971C20912F053091300539
:1028200040913105509132050E94BF1B2CA53DA55A
:102830004EA55FA50E94381D6EAF7FAF21968FAF6A
:10284000219722969FAF229720E030E040E050E4AD
:10285000C501B4010E94591B18160CF423CD27960C
:102860003FAD27973323E9F02AAD3BAD4CAD5DADCD
:102870006EAD7FAD21968FAD219722969FAD2297A9
:102880000E94591B87FF0ECDBEADBAAFEFADEBAFC7
:102890002196FFAD2197FCAF22962FAD22972DAF49
:1028A00001CD4EAD4AAF5FAD5BAF21968FAD2197A5
:1028B0008CAF22969FAD22979DAFA1E02796AFAF38
:1028C0002797F0CC27963FAD2797332329F08AAD81
:1028D0009BADACADBDAD03C080E090E0DC012696C1
:1028E000EEADFFAD269781939193A193B193269678
:1028F000FFAFEEAF2697E455F54009F0FBCB109102
:102900005405E8A9F9A9E219F309EE0FFF1FEE0F2C
:10291000FF1FE85BFA4FC080D180E280F380A701FF
:102920009601C701B6010E94591B811116C020E013
:1029300030E0A901C701B6010E94461E18166CF4CA
:1029400031E03EAB2DEC3CEC4CE45FE3C701B6015B
:102950000E94591B18160CF41EAA8EA9812B809375
:102960005405111152C0882309F44FC020E030E013
:10297000A9016CA57DA58EA59FA50E94461E1816CF
:102980006CF4E4E0F0E0E219F309EE0FFF1FEE0F44
:10299000FF1FE85BFA4FA1E0B0E00CC0E7E0F0E019
:1029A000E219F309EE0FFF1FEE0FFF1FE85BFA4F6E
:1029B000AAE0B0E0A219B309AA0FBB1FAA0FBB1F60
:1029C000A85BBA4F2D913D914D915C9160817181D1
:1029D000828193810E94461E18162CF466E676E6E4
:1029E0008CE892E404C066E676E68CE892EC6093AC
:1029F0002C0270932D0280932E0290932F020E943E
:102A0000DF008FE392E00E94230760964FAD60974E
:102A1000442309F45DC080913405909135058230DE
:102A20009105D9F01CF4019739F04DC08330910520
:102A300039F1069771F147C080915505811143C066
:102A400089E395E00E947A0160932802709329023D
:102A500080932A0290932B0236C0809154058111F5
:102A600032C089E395E00E947A0160932C02709352
:102A70002D0280932E0290932F020E94DF0023C02C
:102A800089E395E00E947A01709305026093040245
:102A900012C089E395E00E947A0121E0672B682B40
:102AA000692B09F420E020933D05222321F08EE3D9
:102AB00095E00E9423076091F8017091F90181EC83
:102AC00091E00E94400185E392E00E9423070DC03F
:102AD00085E392E00E945906882339F089E492E068
:102AE0000E94230781E08093550580915405882337
:102AF00061F08FE392E00E945906882331F0109232
:102B0000480210924702109254058091550588237F
:102B1000A9F089E492E00E945906882339F01092C6
:102B20005202109251021092550508C010922802CC
:102B30001092290210922A0210922B028EEE91E03E
:102B40000E9423078AEF91E00E9423070E94BC03A2
:102B50000C94AF084C155D0514F40C94880B0CC054
:102B60008CA59DA5C816D90614F40C94880B6C1579
:102B70007D0514F40C94880B3FEFE31AF30A20E070
:102B80000C94890B8EE395E00E9423075BC920E03B
:102B900030E0A9016E8D7F8D88A199A10E94461E0B
:102BA00018162CF02AE939E949E851EC04C02AE961
:102BB00039E949E851E46E8D7F8D88A199A10E9481
:102BC000971C2CA53DA54EA55FA50E94381D6EAF94
:102BD0007FAF21968FAF219722969FAF22973FCE4E
:102BE00080E090E0F8C8A70196016AA17BA18CA1C2
:102BF0009DA10E94591B87FFFBCDA301920160E0BC
:102C000070E080EA91E40E94381D0E94041D2B01AF
:102C10003C01DFCD2F923F924F925F926F927F9255
:102C20008F929F92AF92BF92CF92DF92EF92FF92DC
:102C30000F931F93CF93DF931092270110922601D9
:102C400088EE93E0A0E0B0E0809328019093290102
:102C5000A0932A01B0932B0184E191E09093250188
:102C60008093240185EC90E09093310180933001B2
:102C700084EC90E0909333018093320180EC90E0FB
:102C8000909335018093340181EC90E0909337016B
:102C90008093360182EC90E0909339018093380163
:102CA00086EC90E090933B0180933A0110923D01B5
:102CB00010923E0110923F01109240011092CF01FC
:102CC0001092CE011092D0018FEF8093D10121E0BC
:102CD00030E03093D3012093D20191E09093D4015E
:102CE0008093D50122E030E03093D7012093D601C4
:102CF0002093D8018093D90123E030E03093DB01A9
:102D00002093DA012093DC018093DD0124E030E0A0
:102D10003093DF012093DE0127E02093E0018093D0
:102D2000E10125E030E03093E3012093E20128E067
:102D30002093E40128EF2093E50126E030E0309372
:102D4000E7012093E60124E02093E8018093E90164
:102D500027E030E03093EB012093EA0120E4209358
:102D6000EC0120EC2093ED012FE72093CA01809322
:102D7000CB018093CC018093CD011092C7071092B4
:102D8000C8071092C9079093CA071092C307109200
:102D9000C4071092C5071092C6078091CE0190918A
:102DA000CF01A091D001B091D1018093C101909346
:102DB000C201A093C301B093C4011092C501109247
:102DC000C6011092C7011092C8011092C90120914A
:102DD000D7073091D8074091D9075091DA07609111
:102DE000DB077091DC078091DD079091DE07A1E0A1
:102DF0000E942B1F2093D7073093D8074093D90701
:102E00005093DA076093DB077093DC078093DD074C
:102E10009093DE070E94371F81F41092DF07109213
:102E2000E0071092E1071092E2071092E307109278
:102E3000E4071092E5071092E6072091CF07309142
:102E4000D0074091D1075091D2076091D30770917C
:102E5000D4078091D5079091D607A1E00E942B1F3F
:102E60002093CF073093D0074093D1075093D207D8
:102E70006093D3077093D4078093D5079093D607B8
:102E80000E94371F41F41092CC071092CB0710928A
:102E9000CE071092CD0784E190E0A0E0B0E08093EF
:102EA0006B0790936C07A0936D07B0936E07C1E01A
:102EB000D0E0D0937407C093730788EE93E0A0E04E
:102EC000B0E08093770790937807A0937907B09349
:102ED0007A07D0938007C0937F072090E707309050
:102EE000E80730927607209275071092BA07109281
:102EF000B9078FE090E0A0E0B0E080937805909370
:102F00007905A0937A05B0937B05D0938105C09392
:102F1000800584E690E0A0E0B0E080938405909383
:102F20008505A0938605B0938705D0938D05C09342
:102F30008C05C10101969093830580938205E2EF91
:102F4000F0E0E491E093E206E3EFF0E0E491E09357
:102F5000E3068EED90E0FC012491E22FF0E0EE0F0D
:102F6000FF1FE853FF4F259134913093E5062093DE
:102F7000E406EFEDF0E0E491F0E0EE0FFF1FE25425
:102F8000FF4F259134913093E7062093E606FC012C
:102F90008491E82FF0E0EE0FFF1FEC54FF4F859176
:102FA00094919093E9068093E80681EC9CE29093DB
:102FB000EB068093EA068AE090E0A0E0B0E0809320
:102FC000010790930207A0930307B0930407D093DF
:102FD0000A07C09309071092F30680E090E0A0E88A
:102FE000B0E480939E0590939F05A093A005B093B5
:102FF000A10540E050E060E070E44093A2055093EA
:10300000A3056093A4057093A50589EA95EDA3E84F
:10301000B4E48093A6059093A705A093A805B09368
:10302000A9058BE090E090938F0580938E0506E6CE
:1030300016E626EE30E40093BA051093BB05209304
:10304000BC053093BD0580E090E0A0E2B1E4809340
:10305000BE059093BF05A093C005B093C105EDEEEA
:10306000CE2EE7E0DE2EE4E8EE2EE4ECFE2EC0925B
:10307000C205D092C305E092C405F092C505ECE00C
:10308000F0E0F093AB05E093AA05FAE9CF2EF9E959
:10309000DF2EF9E1EF2EF0E4FF2EC092D605D0929C
:1030A000D705E092D805F092D9058093DA05909380
:1030B000DB05A093DC05B093DD051092DE051092D0
:1030C000DF051092E0051092E105D093C705C0938B
:1030D000C605EAE98E2EE9E99E2EE9E1AE2EE0EC86
:1030E000BE2E8092F2059092F305A092F405B09264
:1030F000F5058093F6059093F705A093F805B09336
:10310000F9051092FA051092FB051092FC05109239
:10311000FD05E2E0F0E0F093E305E093E205F6E67A
:103120004F2E542CF6EE6F2EF0EC7F2E40920E06B2
:1031300050920F066092100670921106809312064C
:1031400090931306A0931406B09315068DEE97E0A6
:10315000A4E8B4E48093160690931706A09318068B
:10316000B093190683E090E09093FF058093FE05ED
:1031700080E090E0A0E8B0EC80932A0690932B06C4
:10318000A0932C06B0932D0640932E0650932F0645
:10319000609330067093310649EA55ED63E874ECAC
:1031A000409332065093330660933406709335068D
:1031B00044E050E050931B0640931A068093460665
:1031C00090934706A0934806B093490646E656E614
:1031D00066E670E440934A0650934B0660934C06B3
:1031E00070934D0681E39AE3A4E8B4E480934E061D
:1031F00090934F06A0935006B093510685E090E05F
:10320000909337068093360640926206509263068A
:10321000609264067092650680E090E0A0E2B1ECF6
:103220008093660690936706A0936806B09369063C
:10323000E5E64E2EE3EA5E2EE3E86E2EE4EC7E2E0B
:1032400040926A0650926B0660926C0670926D0610
:10325000E6E0F0E0F0935306E093520680927E069B
:1032600090927F06A0928006B0928106809382069B
:1032700090938306A0938406B0938506FBED8F2E72
:10328000FFE09F2EF9E4AF2EF0E4BF2E8092860679
:1032900090928706A0928806B0928906E7E0F0E057
:1032A000F0936F06E0936E06C0929A06D0929B064A
:1032B000E0929C06F0929D0680939E0690939F0656
:1032C000A093A006B093A1068092A2069092A306B6
:1032D000A092A406B092A506E8E0F0E0F0938B0679
:1032E000E0938A060093B6061093B7062093B806BB
:1032F0003093B9068093BA069093BB06A093BC06A0
:10330000B093BD0685E693EAA3E8B4E48093BE06D5
:103310009093BF06A093C006B093C1068DE090E0E5
:103320009093A7068093A60680E090E0A0E8B0E422
:103330008093D2069093D306A093D406B093D5067B
:103340004093D6065093D7066093D8067093D9065B
:1033500081E39AE3A4E8B4EC8093DA069093DB0669
:10336000A093DC06B093DD068AE090E09093C3065C
:103370008093C2068FE090E0A0E0B0E08093580513
:1033800090935905A0935A05B0935B05D0936105BE
:10339000C093600588EC90E0A0E0B0E08093640505
:1033A00090936505A0936605B0936705D0936D056E
:1033B000C0936C05C10102969093630580936205EA
:1033C00085E090E0A0E0B0E08093EE019093EF0103
:1033D000A093F001B093F101D093F701C093F601EF
:1033E00082E390E0A0E0B0E08093FA019093FB01CB
:1033F000A093FC01B093FD01D0930302C09302029D
:10340000C10104969093E8078093E70793E0290EA3
:10341000311C3092F9012092F801A2E0B0E0B093A3
:103420000502A09304028AE090E0A0E0B0E080935F
:10343000060290930702A0930802B0930902D0936A
:103440000F02C0930E0280E090E0A0E0BFE3809303
:10345000100290931102A0931202B09313028DEC0C
:103460009CECACECBDE38093140290931502A09306
:103470001602B093170210921802109219021092BD
:103480001A0210921B0210921C0210921D0210923E
:103490001E0210921F0280E090E0AFE7B3EC809331
:1034A000200290932102A0932202B093230280E095
:1034B00090E0AFE7B3E48093240290932502A093B9
:1034C0002602B0932702109230028FEF80933102D0
:1034D00082E28093320286E98093330288EE93E0A1
:1034E000A0E0B0E08093350290933602A0933702BB
:1034F000B0933802D0933E02C0933D0284EF91E036
:10350000A0E0B0E080933F0290934002A09341027C
:10351000B0934202109248021092470288EB9BE05F
:10352000A0E0B0E08093490290934A02A0934B023E
:10353000B0934C0210925202109251028091DF0718
:103540009091E007A091E107B091E20780935302C8
:1035500090935402A0935502B09356028091E307D2
:103560009091E407A091E507B091E6078093570298
:1035700090935802A0935902B0935A028BED9FE0AA
:10358000A9ECBFE380935B0290935C02A0935D0281
:10359000B0935E0210925F0210926002109261027C
:1035A0001092620280E090E0A0E8BFE380936302A3
:1035B00090936402A0936502B09366028FEF9FEF31
:1035C0009093A8048093A7049093AC048093AB04D9
:1035D0008BE097E0909314058093130580E090E0D2
:1035E000FC01E370FF27E45FFE4F40814095FC0142
:1035F000F595E795F595E795E959FD4F20E030E021
:103600005081542350832F5F3F4F3C962033310528
:10361000B9F701968033910519F7A091A904B091EB
:10362000AA0480E492E0E7E6F2E001900D920197AF
:10363000E1F71092A8041092A704A091AD04B091F4
:10364000AE048CE0E7E6F2E001900D928A95E1F796
:103650001092AC041092AB0488EE93E0A0E0B0E0CE
:1036600080933E0590933F05A0934005B09341059C
:1036700081E090E0909347058093460510925405B1
:10368000109255051092570510925605DF91CF9173
:103690001F910F91FF90EF90DF90CF90BF90AF9070
:1036A0009F908F907F906F905F904F903F902F9062
:1036B00008950E949B1B08F481E00895E89409C0D6
:1036C00097FB3EF490958095709561957F4F8F4F55
:1036D0009F4F9923A9F0F92F96E9BB279395F6956B
:1036E000879577956795B795F111F8CFFAF4BB0FE9
:1036F00011F460FF1BC06F5F7F4F8F4F9F4F16C04D
:10370000882311F096E911C0772321F09EE8872FD6
:10371000762F05C0662371F096E8862F70E060E092
:103720002AF09A95660F771F881FDAF7880F96950B
:10373000879597F90895990F0008550FAA0BE0E8AF
:10374000FEEF16161706E807F907C0F01216130663
:10375000E407F50798F0621B730B840B950B39F4A3
:103760000A2661F0232B242B252B21F408950A2609
:1037700009F4A140A6958FEF811D811D08950E9437
:10378000D21B0C94431C0E94351C38F00E943C1C38
:1037900020F0952311F00C942C1C0C94321C112455
:1037A0000C94771C0E94541C70F3959FC1F3950FE5
:1037B00050E0551F629FF001729FBB27F00DB11DB5
:1037C000639FAA27F00DB11DAA1F649F6627B00D45
:1037D000A11D661F829F2227B00DA11D621F739F2E
:1037E000B00DA11D621F839FA00D611D221F749F3C
:1037F0003327A00D611D231F849F600D211D822F83
:10380000762F6A2F11249F5750409AF0F1F08823A9
:103810004AF0EE0FFF1FBB1F661F771F881F9150D6
:103820005040A9F79E3F510580F00C942C1C0C943D
:10383000771C5F3FE4F3983ED4F3869577956795C0
:10384000B795F795E7959F5FC1F7FE2B880F911D00
:103850009695879597F9089597F99F6780E870E0A6
:1038600060E008959FEF80EC089500240A941616F6
:10387000170618060906089500240A94121613065E
:10388000140605060895092E0394000C11F48823EC
:1038900052F0BB0F40F4BF2B11F460FF04C06F5F08
:1038A0007F4F8F4F9F4F089557FD9058440F551FDE
:1038B00059F05F3F71F04795880F97FB991F61F0B2
:1038C0009F3F79F087950895121613061406551F29
:1038D000F2CF4695F1DF08C0161617061806991F95
:1038E000F1CF86957105610508940895E894BB278A
:1038F00066277727CB0197F908950E94881CA59F1A
:10390000900DB49F900DA49F800D911D11240895DA
:10391000A29FB001B39FC001A39F700D811D112410
:10392000911DB29F700D811D1124911D0895505855
:10393000BB27AA270E94AF1C0C94431C0E94351C75
:1039400038F00E943C1C20F039F49F3F19F426F413
:103950000C94321C0EF4E095E7FB0C942C1CE92F20
:103960000E94541C58F3BA1762077307840795071F
:1039700020F079F4A6F50C94761C0EF4E0950B2E4D
:10398000BA2FA02D0B01B90190010C01CA01A001B1
:103990001124FF27591B99F0593F50F4503E68F10C
:1039A0001A16F040A22F232F342F4427585FF3CF4D
:1039B000469537952795A795F0405395C9F77EF41E
:1039C0001F16BA0B620B730B840BBAF09150A1F067
:1039D000FF0FBB1F661F771F881FC2F70EC0BA0FED
:1039E000621F731F841F48F4879577956795B79575
:1039F000F7959E3F08F0B0CF9395880F08F0992770
:103A0000EE0F979587950895DF93DD27B92FBF7740
:103A100040E85FE31616170648075B0718F4D92F2E
:103A20000E944B1E9F938F937F936F930E94A11EC2
:103A3000E8E6F0E00E94E01D0E94431C2F913F91B8
:103A40004F915F910E94D21BDD2351F09058A2EA62
:103A50002AED3FE049EC5FE3D0785D270E94AF1C80
:103A6000DF910C94431C0E94091EE3950C94321EB6
:103A70000E944C1D0C94431C0E943C1C58F00E9458
:103A8000351C40F029F45F3F29F00C942C1C511197
:103A90000C94771C0C94321C0E94541C68F39923DC
:103AA000B1F3552391F3951B550BBB27AA2762173A
:103AB0007307840738F09F5F5F4F220F331F441F47
:103AC000AA1FA9F335D00E2E3AF0E0E832D091507B
:103AD0005040E695001CCAF72BD0FE2F29D0660F68
:103AE000771F881FBB1F261737074807AB07B0E8AB
:103AF00009F0BB0B802DBF01FF2793585F4F3AF0B1
:103B00009E3F510578F00C942C1C0C94771C5F3F61
:103B1000E4F3983ED4F3869577956795B795F79536
:103B20009F5FC9F7880F911D9695879597F908951E
:103B3000E1E0660F771F881FBB1F621773078407BA
:103B4000BA0720F0621B730B840BBA0BEE1F88F7C9
:103B5000E09508950E94B11D6894B1110C94771CF2
:103B600008950E945C1C88F09F5798F0B92F992700
:103B7000B751B0F0E1F0660F771F881F991F1AF058
:103B8000BA95C9F714C0B13091F00E94761CB1E02B
:103B900008950C94761C672F782F8827B85F39F02A
:103BA000B93FCCF3869577956795B395D9F73EF4F1
:103BB00090958095709561957F4F8F4F9F4F089599
:103BC000DF93CF931F930F93FF92EF92DF927B01CE
:103BD0008C01689406C0DA2EEF010E94D21BFE0110
:103BE000E894A5912591359145915591A6F3EF0162
:103BF0000E94AF1CFE019701A801DA9469F7DF90DB
:103C0000EF90FF900F911F91CF91DF9108950C9449
:103C1000321C0E945C1CD8F3E894E0E0BB279F575D
:103C2000F0F02AED3FE049EC06C0EE0FBB0F661F37
:103C3000771F881F28F0B23A62077307840728F0BD
:103C4000B25A620B730B840BE3959A9572F7803826
:103C500030F49A95BB0F661F771F881FD2F79048E4
:103C60000C94A71EEF93E0FF07C0A2EA2AED3FE005
:103C700049EC5FEB0E94AF1C0E94431C0F90039421
:103C800001FC9058E5E9F0E00C94BA1E0E949B1BE1
:103C900008F48FEF08959B01AC0160E070E080E8CC
:103CA0009FE30C94381D9F930E94091E0F9007FC00
:103CB000EE5F0C94321E19F416F40C94321C0C9422
:103CC000A51E0E945C1CB8F39923C9F3B6F39F5755
:103CD000550B87FF0E94B31E0024A0E640EA900126
:103CE00080585695979528F4805C660F771F881F3B
:103CF00020F026173707480730F4621B730B840B3C
:103D0000202931294A2BA69517940794202531257F
:103D10004A2758F7660F771F881F20F026173707A6
:103D2000480730F4620B730B840B200D311D411DCD
:103D3000A09581F7B901842F9158880F96958795A2
:103D400008959B01AC010C94BF1B9F3F31F0915033
:103D500020F4879577956795B795880F911D96956F
:103D6000879597F9089591505040660F771F881FE7
:103D7000D2F708959F938F937F936F93FF93EF9361
:103D80009B01AC010E94BF1BEF91FF910E94E01DBF
:103D90002F913F914F915F910C94BF1B97FB072E82
:103DA00016F4009407D077FD09D00E94431F07FC4A
:103DB00005D03EF4909581959F4F0895709561953B
:103DC0007F4F0895A1E21A2EAA1BBB1BFD010DC057
:103DD000AA1FBB1FEE1FFF1FA217B307E407F507BB
:103DE00020F0A21BB30BE40BF50B661F771F881F97
:103DF000991F1A9469F760957095809590959B012D
:103E0000AC01BD01CF010895052E97FB1EF400946F
:103E10000E941B1F57FD07D00E94E21E07FC03D023
:103E20004EF40C941B1F50954095309521953F4FB3
:103E30004F4F5F4F089590958095709561957F4F96
:103E40008F4F9F4F0895B7FF0C947D1C0E947D1CDF
:103E5000821B930B08950024A7FD00942A0F301DA8
:103E6000401D501D601D701D801D901D0895002473
:103E7000A7FD00942A173005400550056005700520
:103E8000800590050895AA1BBB1B51E107C0AA1F1E
:103E9000BB1FA617B70710F0A61BB70B881F991FEB
:103EA0005A95A9F780959095BC01CD010895EE0F24
:103EB000FF1F0590F491E02D099481E090E0F894C3
:083EC0000C94621FF894FFCF7F
:103EC80002000000003F050000000000030C30C0A5
:103ED800000000005303B2001C03FA020E039A0309
:107E0000112484B714BE81FFF0D085E080938100F7
:107E100082E08093C00088E18093C10086E0809377
:107E2000C20080E18093C4008EE0C9D0259A86E02C
:107E300020E33CEF91E0309385002093840096BBD3
:107E4000B09BFECF1D9AA8958150A9F7CC24DD24C4
:107E500088248394B5E0AB2EA1E19A2EF3E0BF2EE7
:107E6000A2D0813461F49FD0082FAFD0023811F036
:107E7000013811F484E001C083E08DD089C08234E0
:107E800011F484E103C0853419F485E0A6D080C0E4
:107E9000853579F488D0E82EFF2485D0082F10E0AE
:107EA000102F00270E291F29000F111F8ED06801E7
:107EB0006FC0863521F484E090D080E0DECF843638
:107EC00009F040C070D06FD0082F6DD080E0C81688
:107ED00080E7D80618F4F601B7BEE895C0E0D1E017
:107EE00062D089930C17E1F7F0E0CF16F0E7DF06D8
:107EF00018F0F601B7BEE89568D007B600FCFDCFD4
:107F0000A601A0E0B1E02C9130E011968C91119780
:107F100090E0982F8827822B932B1296FA010C0160
:107F200087BEE89511244E5F5F4FF1E0A038BF0790
:107F300051F7F601A7BEE89507B600FCFDCF97BE46
:107F4000E89526C08437B1F42ED02DD0F82E2BD052
:107F50003CD0F601EF2C8F010F5F1F4F84911BD097
:107F6000EA94F801C1F70894C11CD11CFA94CF0C13
:107F7000D11C0EC0853739F428D08EE10CD085E9AC
:107F80000AD08FE07ACF813511F488E018D01DD067
:107F900080E101D065CF982F8091C00085FFFCCF94
:107FA0009093C60008958091C00087FFFCCF809118
:107FB000C00084FD01C0A8958091C6000895E0E648
:107FC000F0E098E1908380830895EDDF803219F02E
:107FD00088E0F5DFFFCF84E1DECF1F93182FE3DFCA
:107FE0001150E9F7F2DF1F91089580E0E8DFEE27F6
:047FF000FF270994CA
:027FFE00040479
:0400000300007E007B
:00000001FF