:100000000C9471000C9499000C9499000C94990034
:100010000C9499000C9499000C9499000C94C309C9
:100020000C9499000C9499000C9499000C94EA0992
:100030000C9499000C9499000C9499000C949900DC
:100040000C9479090C9499000C948D0D0C94670D07
:100050000C9499000C9499000C9499000C949900BC
:100060000C9499000C94990005A84CCDB2D44EB9CB
:100070003836A9020C50B9918688083CA6AAAA2A4B
:10008000BE000000803F00000008000201000003E5
:100090000407000000000000000000000000240031
:1000A00027002A000000000023002600290000008D
:1000B0000000250028002B000404040404040404A8
:1000C0000202020202020303030303030102040803
:1000D00010204080010204081020010204081020B2
:1000E000540E11241FBECFEFD8E0DEBFCDBF11E00C
:1000F000A0E0B1E0EAEFFBE202C005900D92A4356A
:10010000B107D9F726E0A4E5B1E001C01D92AE37F2
:10011000B207E1F710E0C1E7D0E004C02197FE018B
:100120000E94F015C037D107C9F70E94B8110C948E
:10013000FB150C9400003FB7F894809160019091FA
:100140006101A0916201B091630126B5A89B05C031
:100150002F3F19F00196A11DB11D3FBFBA2FA92F46
:10016000982F8827820F911DA11DB11DBC01CD01C3
:1001700042E0660F771F881F991F4A95D1F70895AF
:100180002FB7F89460915C0170915D0180915E01E0
:1001900090915F012FBF08950F931F93CF93DF932B
:1001A0008C0120E030E040E053E4FC01608171818B
:1001B000828193810E94F11220E030E048E453E410
:1001C0000E9484140E94F614EB016138FFEF7F0750
:1001D00034F06F3771052CF0CFE7D0E002C0C0E8F3
:1001E000DFEF20E030E040E053E4F8016481758106
:1001F000868197810E94F11220E030E048E453E4C8
:100200000E9484140E94F6146138FFEF7F0734F0D7
:100210006F3771052CF06FE770E002C060E87FEF88
:100220008C2F962FDF91CF911F910F9108950895F4
:10023000CF93DF93EC01E881F9810190F081E02D0B
:1002400009950E94C0006C837D838E839F83DF911C
:10025000CF910895CF93DF93EC0160E070E00E94AE
:1002600018010E94C0006C877D878E879F87DF9171
:10027000CF9108954F925F926F927F928F929F924B
:10028000AF92BF92CF92DF92EF92FF920F931F93A4
:10029000CF93DF9300D000D0CDB7DEB78C01FB0148
:1002A000C080D180E280F3800E94C00069837A839D
:1002B0008B839C83F8012085318542855385C70156
:1002C000B6010E94F112F8012489358946895789BF
:1002D0000E9413144B015C01F80120893189428985
:1002E0005389C701B6010E9412142B013C01F80189
:1002F00084819581A681B78129813A814B815C8176
:10030000281B390B4A0B5B0BCA01B9010E94B412BE
:100310009B01AC01C301B2010E948414F801248541
:100320003585468557850E94F1129B01AC01C501B8
:10033000B4010E941314F801648B758B868B978B24
:10034000C08AD18AE28AF38A0F900F900F900F90A3
:10035000DF91CF911F910F91FF90EF90DF90CF90A1
:10036000BF90AF909F908F907F906F905F904F90D5
:100370000895BF92CF92DF92EF92FF920F931F9357
:10038000CF93DF93EC01CB01BA012BED3FE049ECB9
:100390005FE30E94131421EE3EE245E652E40E9420
:1003A000F1120E94F614DB016F3171050CF463C089
:1003B000663971050CF062C0B98088E890E06C0184
:1003C000CB18D108B7FCD394CC0CDD1CCC0CDD1CB5
:1003D0000D2C000CEE08FF08A53BB10514F0A4EBB2
:1003E000B0E08A8108E512E0081B110987FD13952A
:1003F000000F111F000F111FA801012E000C660B2A
:10040000770B9A01AB012C193D094E095F090E9437
:10041000D91324EB30E040E050E00E94AF13C20E4D
:10042000D31EE41EF51E38813C3058F588E890E074
:100430008B199109B7FC9395880F991F880F991F05
:10044000C816D9062CF0C6010C151D050CF4C80100
:100450000297880F991F4FB7F894232F30E0F901C6
:10046000EE0FFF1F2E0F3F1FF901E55FFD4F928337
:1004700081834FBF06C0AEE1B0E09ECFA6E9B0E0F9
:100480009BCFDF91CF911F910F91FF90EF90DF9065
:10049000CF90BF9008950895FB019C012C5F3F4FC2
:1004A000DC014D91CD014193A217B307C9F708951F
:1004B000FC01ED5BFF4F81E080830895E0E7F0E011
:1004C00080818D7F808308958F929F92AF92BF929B
:1004D000CF92DF92EF92FF920F931F93CF93DF9310
:1004E0000E949B0000916A0510916B0520916C059C
:1004F00030916D05061717072807390770F4DF914B
:10050000CF911F910F91FF90EF90DF90CF90BF9010
:10051000AF909F908F900C945E02E0916405F091F3
:100520006505908180916105892309F047C00E948B
:100530005E020E949B002091680530916905690167
:10054000E12CF12C00916A0510916B0520916C054E
:1005500030916D0546015701801A910AA20AB30A2B
:10056000950184010D50110921093109600F711F96
:10057000821F931F60935C0570935D0580935E05F9
:1005800090935F05C0916E05D0916F0529E330E02F
:1005900040E050E00E94E113CE0146E0880F991F31
:1005A0004A95E1F7FC01E45BFD4F2115310511F49B
:1005B00028EC30E0318B208B10927005DF91CF91C9
:1005C0001F910F91FF90EF90DF90CF90BF90AF9071
:1005D0009F908F900895CF93DF93EC010E945E026D
:1005E000CC5DDC4F1882DF91CF910895CF93DF93DC
:1005F000EC01E4E6F1E0A089B18982E08C93A48566
:10060000B5851C92A685B7858FEC8C93108EA48936
:10061000B58986E08C93A289B3898C9180618C9393
:10062000A289B3899C9198609C93A289B3899C917B
:1006300090689C930288F389E02D90819F7D908340
:1006400060E08DE00E94E80D1A8E198EDF91CF9147
:1006500008951F93CF93DF93182FEB0161E00E9461
:10066000180E209711F460E004C0CF3FD10539F493
:1006700061E0812FDF91CF911F910C94E80DE12F64
:10068000F0E0EA57FF4FE491E330F9F048F4E1304D
:10069000B9F0E230A1F584B5806284BDC8BD34C034
:1006A000E730E9F0E83019F1E43049F58091800055
:1006B000806280938000D0938B00C0938A0024C016
:1006C00084B5806884BDC7BD1FC0809180008068EC
:1006D00080938000D0938900C093880015C08091DA
:1006E000B00080688093B000C093B3000DC08091CB
:1006F000B00080628093B000C093B40005C0C038E1
:10070000D1050CF0B5CFAFCFDF91CF911F910895F8
:10071000CF93DF93EC0161E088E00E94180E61E066
:1007200087E00E94180E61E086E00E94180E61E0EA
:100730008AE00E94180EFE01AE015D5F28EC30E0F9
:10074000318B208B80E090E0DF01A80FB91F53961A
:100750003C932E93529797963C932E93969702969E
:100760008431910589F713AE12AEE05CFF4FE417B8
:10077000F50731F7FE01EB5DFC4F81E08083319797
:10078000108232978BE090E091838083CA5DDC4FCA
:1007900089E090E099838883DF91CF910895CF938A
:1007A000DF93EC0160E082E00E94180E60E084E0DC
:1007B0000E94180E60E085E00E94180E60E08EE056
:1007C0000E94180E60E08FE00E94180E60E080E149
:1007D0000E94180E60E081E10E94180E60E082E144
:1007E0000E94180E61E083E10E94180E0E94C00072
:1007F000688B798B8A8B9B8B1D8A1C8A1E8A1F8A29
:10080000188E198E1B8E1A8EDF91CF910895CF937B
:10081000DF93EC0161E083E00E94180E61E08BE061
:100820000E94180E8AA98C3008F04DC061E089E062
:100830000E94180E8AA9E82FF0E09F01220F331FB3
:10084000E20FF31FE55FFD4F9081907C99609083EC
:100850001BAA1CAA6CE00E94BC159CE0899FB001F9
:10086000112440E050E09A01260F371FF901EE0FE6
:10087000FF1F2E0F3F1FF901E55FFD4F908196FD91
:1008800016C04F5F5F4F4C30510569F781110FC0A3
:100890001092800082E08093810010928500109277
:1008A0008400B19A80916F00826080936F00EAA902
:1008B000F0E0CF01880F991FE80FF91FE55FFD4FAA
:1008C0008081806480831EA61FA618AA19AA40E012
:1008D00050E0BA01CE01C2960E94B9011AA61BA629
:1008E0001CA61DA60E94C0006E8B7F8B888F998FDF
:1008F000DF91CF9108952F923F924F925F926F9226
:100900007F928F929F92AF92BF92CF92DF92EF929F
:10091000FF920F931F93CF93DF93CDB7DEB7689706
:100920000FB6F894DEBF0FBECDBFFC01EB5DFC4FF0
:100930002081222309F4FDC2319720812111F9C2BF
:100940008C01FC01EE5DFC4F808191810B9709F4D5
:10095000A0C1D8011896ED91FC911997F894ED512A
:10096000FA4F83AD13AE7894F801EA56FC4F6F014D
:10097000882341F1F8948091FE059091FF0578015C
:10098000F8EDEF1AFCEFFF0AD7018D939C93580105
:10099000B6EDAB1ABCEFBB0AB50180E096E00E9451
:1009A0004C027894F701808191810C9759F4C5012C
:1009B0000E94550D21E0672B682B692B09F420E07C
:1009C000D6012C93F601808198012E5D3C4F790170
:1009D000882309F457C0D9018D919C9180FF52C0A2
:1009E0006801B8EDCB1ABCEFDB0A9C0197FF02C08F
:1009F0002F5F3F4F359527952C5F3F4FF601318391
:100A0000208326E0880F991F2A95E1F7885B9F4F86
:100A1000800F911F0E94CC005C01D7012D913C9169
:100A200046E0220F331F4A95E1F7C9010896800F6F
:100A3000911F0E94CC0089839A83AB82BC824801BB
:100A4000B6ED8B1ABCEF9B0AB401CE0101960E9451
:100A50004C02F801A084B18486E08A9DF0018B9D50
:100A6000F00D1124D6018D919C91EC5FF94F81938B
:100A70009193BF01C4010E944C02F501EE5DF94F54
:100A800081E08083F701208131812B30310561F4D1
:100A9000F801EA5DFC4F8081918101966AE070E087
:100AA0000E94C81591838083C90101966CE070E0B3
:100AB0000E94C815D7018D939C93A6E0880F991FBB
:100AC000AA95E1F7F801E80FF91F82AD93AD0B97F6
:100AD0000CF02FC2F801EC5DFC4F81E080830E9496
:100AE0005E02F701E080F180F70146E0EE0FFF1FA4
:100AF0004A95E1F7E00FF11F88EC90E0918B808B35
:100B00006E2D617088E00E94E80DFF24B701769594
:100B10006795617087E00E94E80DB701769567954B
:100B200076956795617086E00E94E80DB701F3E065
:100B300076956795FA95E1F761708AE00E94E80D75
:100B4000005F1C4FD8011A96ED91FC911B97908184
:100B500014968C911497892B80831696ED91FC91B5
:100B60001797908114968C91149780958923808390
:100B70008BE090E00197F1F71696ED91FC911797B5
:100B8000908114968C911497892B808383E290E056
:100B90000197F1F71696ED91FC91179790811496B5
:100BA0008C9114978095892380831A96ED91FC91FE
:100BB0001B97908114968C9114978095892380833C
:100BC0001896ED91FC911997908115968C91892337
:100BD00009F0AFC10E949B00F801248535856901A9
:100BE000E12CF12CF8EACF0EF6E1DF1EE11CF11C3E
:100BF000DC01CB018C0D9D1DAE1DBF1DF80186874C
:100C00009787A08BB18BD8011896ED91FC9119971D
:100C1000908115968C91892379F40E949B00D801CC
:100C20001E96CD90DD90ED90FC905197C616D7069C
:100C3000E806F90640F77DC10E949B00F801248573
:100C40003585DC01CB01820F931FA11DB11D868765
:100C50009787A08BB18B84E692E090935A018093A2
:100C600059010E945E028091B6008F7D8093B6008C
:100C700082E08093B00084E08093B1001092B200D3
:100C800085E08093B3008091700082608093700053
:100C900050C13496208131813A872987275F3F4FA1
:100CA000C9016AE070E00E94C8159A8B898B220FF7
:100CB000331F2801420E531E38013CE3630E711CA2
:100CC00089859A85880F991F44275527481B590BFA
:100CD0005E8B4D8B89899A89880F991F988F8F8B8E
:100CE00018861F82F301BC9720803180D2012D929B
:100CF0003C92B8EC2B16310419F0E0E0F1E002C0B0
:100D0000E6E0F1E0208131813C8B2B8BC280D380E7
:100D1000E480F580ED89FE89E40DF51D4F89588D3D
:100D2000E40FF51F848995899E838D83BC01990FFB
:100D3000880B990B0E94B6124B015C0120E030E059
:100D400040E85FE3C701B6010E9413149B01AC01A8
:100D5000C501B4010E94F1120E94F6146D877E87CE
:100D60008F87988BAD85BE85BC87AB87A701960121
:100D700060E070E080E89FE30E9412149B01AC01E8
:100D8000C501B4010E94F1120E94F614EB85FC85A6
:100D9000E617F7073CF0261637064CF0E215F30588
:100DA00034F061C04B855C852416350624F541E09E
:100DB00050E0AD81BE812A163B0614F040E050E0C1
:100DC0004130510511F49B0102C02D813E8141301B
:100DD000510519F4CD80DE8002C0CD84DE8489897E
:100DE0009A89E0E0F0E0EF80F88465E0EE0CFF1C0B
:100DF0006A95E1F721C062157305ACF5D8CFD7012C
:100E0000A80FB91F1996AA0FBB1FA00FB11F4D91B4
:100E10005C91C216D306B4F0421753070CF486C097
:100E2000C416D5060CF482C041E009966AE070E071
:100E30000E94C81541110FC049855A85841795072E
:100E4000F1F609C04C155D050CF470C02417350788
:100E50000CF46CC0E9CF8B899C890197E817F907DE
:100E600014F42D803E80D20155963C922E925497D8
:100E7000F20164897589072E000C880B990B0E947A
:100E8000B6126B017C012BED3FE049EC5FE3D3012F
:100E900018966D917D918D919C911B970E941314D2
:100EA0004B015C010E947F149B01AC01C701B6019C
:100EB0000E94F1129B01AC01F3016081718182817A
:100EC00093810E941314D3011C966D937D938D938F
:100ED0009C931F97C501B4010E946B159B01AC0147
:100EE000C701B6010E94F1129B01AC01F3016481BC
:100EF0007581868197810E941314D30150966D935A
:100F00007D938D939C935397EF81F8853196F88765
:100F1000EF83F0E44F0E511C20E4620E711C4F81F0
:100F200058854C30510509F0DDCE13CD319640E0A7
:100F30007CCF68960FB6F894DEBF0FBECDBFDF91B1
:100F4000CF911F910F91FF90EF90DF90CF90BF90C6
:100F5000AF909F908F907F906F905F904F903F9059
:100F60002F9008958F929F92AF92BF92CF92DF926F
:100F7000EF92FF920F931F93CF93DF938C010E9408
:100F8000C0006B017C0160E083E10E94E80D82E11A
:100F90000E94BF0DD82F81E10E94BF0D8295880F5E
:100FA000880F807CC82F20E8D29FC019112480E1CF
:100FB0000E94BF0D882E8FE00E94BF0D982E8EE0FC
:100FC0000E94BF0DA82E85E00E94BF0DB82E84E0C0
:100FD0000E94BF0DD82F82E00E94BF0D8C0FC82F3A
:100FE00030E2839EC00D112480E1989EC00D112433
:100FF00098E0A99EC00D1124BB0CBB0CCB0DDD0FDE
:10100000CD0F0C2E000CDD0B61E083E10E94E80D9A
:10101000F801848995899E01281B390BA90137FFA6
:1010200004C044275527421B530B45315105BCF0E2
:10103000E901D3953A95BE01D7FF04C0662777270B
:101040006C1B7D0BA90137FF04C044275527421BA9
:10105000530B461757070CF4E901C80FD91FF801C5
:10106000408951896289738946015701841A950A1A
:10107000A60AB70A868A978AA08EB18E4E01881A70
:10108000990A938E828EC08AD18AE28AF38AD58B9E
:10109000C48BDF91CF911F910F91FF90EF90DF9064
:1010A000CF90BF90AF909F908F9008957F928F9236
:1010B0009F92AF92BF92CF92DF92EF92FF920F93E7
:1010C0001F93CF93DF93CDB7DEB768970FB6F89431
:1010D000DEBF0FBECDBFFC01ED5BFF4F20812111B4
:1010E000F4C08C0184E691E00E94800C009709F422
:1010F0008EC0F801418D528D29E030E0241B350B64
:101100007C01281739070CF47901812C912C712C62
:1011100082E0C82ED12CAA24A394B12C8E149F0453
:101120000CF05AC084E691E00E945E0CF80121ADFB
:1011300032AD2130310519F12230310599F1232BDF
:1011400009F046C0218D328DF901E95FFD4F908194
:10115000891311C0A9014F5F5F4FF801528F418F72
:10116000E20FF31F808BF801818D928D049781F53A
:10117000B2AEA1AE2DC0F801128E118E29C0F801B9
:10118000218D328DA9014F5F5F4F528F418FE20F4A
:10119000F31F808BF801818D928D0597C9F4D2AE33
:1011A000C1AE16C0F801218D328DA9014F5F5F4F8E
:1011B000528F418FE20FF31F808BF801818D928D4A
:1011C000099731F4128E118E12AE11AE77247394FA
:1011D000FFEF8F1A9F0AA2CF7720C9F0F801848908
:1011E00090E0948F838FBE016F5F7F4FC80145965B
:1011F0000E944C02B801635E7F4FCE0101960E94AF
:101200004C0281E0F80183AF84AF85AF86AF6801FF
:10121000FFE3CF0ED11C780183E2E80EF11C5801E8
:10122000EBE3AE0EB11C15E04E01F9E18F0E911CFF
:10123000F894F601808111926F0178948823F1F17E
:10124000F70132970081BE016F5F7F4F87E092E028
:101250000E944C020D83FE013196DE011A96812F09
:1012600001900D928A95E1F7FE013A96DE011F96F4
:10127000812F01900D928A95E1F7FE013F96DE01E4
:101280005496812F01900D928A95E1F7FE01749694
:10129000DE01119681918D93E815F905D9F7BE010C
:1012A0006A5F7F4FC7010E944C0249E050E0BE01D7
:1012B0006F5F7F4F84E691E00E94330CF6E0EF0E03
:1012C000F11CEA14FB0409F0B3CF68960FB6F8944A
:1012D000DEBF0FBECDBFDF91CF911F910F91FF9069
:1012E000EF90DF90CF90BF90AF909F908F907F90C6
:1012F00008951F920F920FB60F9211242F933F93D0
:101300008F939F93AF93BF9380915C0190915D0108
:10131000A0915E01B0915F0130915B0123E0230F4A
:101320002D3720F40196A11DB11D05C026E8230F1D
:101330000296A11DB11D20935B0180935C019093E7
:101340005D01A0935E01B0935F0180916001909177
:101350006101A0916201B09163010196A11DB11DCF
:101360008093600190936101A0936201B093630147
:10137000BF91AF919F918F913F912F910F900FBE91
:101380000F901F9018951F920F920FB60F92112475
:101390002F933F934F935F936F937F938F939F937D
:1013A000AF93BF93EF93FF93E0915901F0915A01EE
:1013B0000995FF91EF91BF91AF919F918F917F918F
:1013C0006F915F914F913F912F910F900FBE0F90B2
:1013D0001F9018951F920F920FB60F9211242F9302
:1013E0003F934F935F936F937F938F939F93AF93AD
:1013F000BF93EF93FF938091580187FF05C0109230
:101400008500109284001BC020915801022E000C10
:10141000330B80912F0290E02817390784F48091D4
:101420005801082E000C990BFC01EE0FFF1F8E0FC8
:101430009F1FFC01E55FFD4F808186FD15C08091F7
:1014400058018F5F8093580120915801022E000CA3
:10145000330B80912F0290E028173907C4F4809154
:1014600058018C3064F113C080915801082E000C93
:10147000990BFC01EE0FFF1F8E0F9F1FFC01E55F14
:10148000FD4F808160E08F730E94E80DD8CF80917E
:10149000840090918500049680349C4918F480E47F
:1014A0009CE905C0809184009091850004969093FA
:1014B0008900809388008FEF809358013BC0209172
:1014C00084003091850080915801082E000C990B02
:1014D000FC01EE0FFF1F8E0F9F1FFC01E55FFD4F0C
:1014E00081819281820F931F90938900809388005D
:1014F00080915801082E000C990BFC01EE0FFF1F84
:101500008E0F9F1FFC01E55FFD4F808186FF12C09B
:1015100080915801082E000C990BFC01EE0FFF1F63
:101520008E0F9F1FFC01E55FFD4F808161E08F738F
:101530000E94E80DFF91EF91BF91AF919F918F9124
:101540007F916F915F914F913F912F910F900FBEBF
:101550000F901F901895CF92DF92EF92FF920F930A
:101560001F93CF93DF93EC010E94C0004881598103
:101570006A01550FEE08FF080A811B812C813D810D
:10158000C00ED11EE21EF31E21E06C157D058E05F6
:101590009F0508F420E0822FDF91CF911F910F91DA
:1015A000FF90EF90DF90CF900895CF93DF93EC0101
:1015B0000A960E94AB0A882349F0E881F9810680E7
:1015C000F781E02DCE01DF91CF910994DF91CF918A
:1015D00008954F925F926F927F928F929F92AF92F7
:1015E000BF92CF92DF92EF92FF920F931F93CF9310
:1015F000DF9300D000D000D0CDB7DEB78C01C09013
:101600004A02D0904B028090460290904702A090F0
:101610004802B09049027C0182E1E80EF11CC80149
:1016200044960E94AB0A882309F469C0B601DD0C18
:10163000880B990B0E94B61220E030E048EC52E48F
:101640000E94841426E636E642EA51E40E94F11232
:101650002B013C01C501B4010E94B4129B01AC01F5
:10166000C301B2010E94841420E030E04AE754E450
:101670000E94F1129B01AC01D8019A966D917D9167
:101680008D919C919D970E94121469837A838B831C
:101690009C83BE016F5F7F4FC7010E941801F80154
:1016A00066A177A180A591A50E94F6147B01623006
:1016B0007F4F44F08FEFE816F10444F0EE24EA94F3
:1016C000F12C04C0EE24E394FF24FA94DF2CD09490
:1016D000DD1CDD24DD1C11F0B70102C060E070E00C
:1016E00083E00E942903D11005C0662777276E1971
:1016F0007F0902C060E070E08BE00E942903D801FE
:101700001896ED91FC911997F894ED51FA4FF3ACBE
:1017100013AE7894FF2081F0F8948091FE059091AB
:10172000FF05F80197AF86AFB801605C7F4F80E09E
:1017300096E00E944C027894D801DD96FC92DD97E9
:10174000FF2041F11896ED90FC90199780910102CD
:10175000909102029A838983BE016D5F7F4F83E07F
:1017600092E00E944C0286E08E9DB0018F9D700D2C
:10177000112489819A816C5F794FFB018193919348
:10178000BF01CE0103960E944C02F701EE5DF94FB6
:1017900081E08083F894D801DD961C927894F8015A
:1017A000808991890297A9F47801F4E4EF0EF11C85
:1017B000D7018C91882369F0F80186AD97AD019728
:1017C00041F4C801C7960E94AB0A882351F1D701A2
:1017D0001C92F80186AD97AD8230910551F08330AF
:1017E0009105A1F0019741F512A613A614A615A61E
:1017F00023C0F80116A617A610AA11AA40E050E0CF
:10180000BA01C801C2960E94B90116C0C801805C25
:101810009F4F0E94550DD80151967C936E9350971F
:101820000BC0F801E05CFF4F1082319610823196B8
:10183000108231961082CDCF26960FB6F894DEBF77
:101840000FBECDBFDF91CF911F910F91FF90EF9011
:10185000DF90CF90BF90AF909F908F907F906F90D0
:101860005F904F900895CF92DF92EF92FF920F9387
:101870001F93CF93DF936C017A018B01C0E0D0E01E
:10188000CE15DF0589F0D8016D918D01D601ED915E
:10189000FC910190F081E02DC6010995892B11F48E
:1018A0007E0102C02196ECCFC701DF91CF911F913D
:1018B0000F91FF90EF90DF90CF900895FC01918DF4
:1018C000828D981761F0828DDF01A80FB11D5D96A2
:1018D0008C91928D9F5F9F73928F90E008958FEF10
:1018E0009FEF0895FC01918D828D981731F0828DC4
:1018F000E80FF11D858D90E008958FEF9FEF08951B
:10190000FC01918D228D892F90E0805C9F4F821B7E
:1019100091098F739927089584E691E00E94800CC5
:1019200021E0892B09F420E0822F0895FC01848DA9
:10193000DF01A80FB11DA35ABF4F2C91848D90E0F9
:1019400001968F739927848FA689B7892C93A089D4
:10195000B1898C9180648C93938D848D981306C08B
:101960000288F389E02D80818F7D80830895EF9236
:10197000FF920F931F93CF93DF93EC0181E0888F49
:101980009B8D8C8D981305C0E889F989808185FD30
:1019900024C0F62E0B8D10E00F5F1F4F0F73112721
:1019A000E02E8C8DE8120CC00FB607FCFACFE88948
:1019B000F989808185FFF5CFCE010E94960CF1CF89
:1019C0008B8DFE01E80FF11DE35AFF4FF0820B8F64
:1019D000EA89FB898081806207C0EE89FF89608384
:1019E000E889F98980818064808381E090E0DF91DB
:1019F000CF911F910F91FF90EF900895CF93DF93B8
:101A0000EC01888D8823C9F0EA89FB89808185FDF6
:101A100005C0A889B9898C9186FD0FC00FB607FC57
:101A2000F5CF808185FFF2CFA889B9898C9185FF98
:101A3000EDCFCE010E94960CE7CFDF91CF910895B4
:101A400080E090E0892B29F00E948C0C81110C948D
:101A500000000895833081F028F4813099F08230BD
:101A6000A1F008958730A9F08830B9F08430D1F41E
:101A7000809180008F7D03C0809180008F7780935C
:101A80008000089584B58F7702C084B58F7D84BDB2
:101A900008958091B0008F7703C08091B0008F7D52
:101AA0008093B00008950E94F615FC0120816181A9
:101AB000862F90E0A0E0B0E0DC0199278827B22BC8
:101AC0002381822B2281BC01CD01722B08951F92AC
:101AD0000F920FB60F9211242F933F934F935F9362
:101AE0006F937F938F939F93AF93BF93EF93FF93E6
:101AF00084E691E00E94960CFF91EF91BF91AF9127
:101B00009F918F917F916F915F914F913F912F9115
:101B10000F900FBE0F901F9018951F920F920FB647
:101B20000F9211242F938F939F93EF93FF93E09144
:101B30007401F09175018081E0917A01F0917B014F
:101B400082FD12C0908180917D018F5F8F73209103
:101B50007E01821751F0E0917D01F0E0EC59FE4FDB
:101B6000958F80937D0101C08081FF91EF919F91BE
:101B70008F912F910F900FBE0F901F901895CF93BC
:101B8000DF93282F30E0F901EA57FF4F8491F901E4
:101B9000E453FF4FD491F901E854FF4FC491CC2393
:101BA00091F081110E942A0DEC2FF0E0EE0FFF1F43
:101BB000EC55FF4FA591B491EC91ED2381E090E0BD
:101BC00021F480E002C080E090E0DF91CF910895A1
:101BD0001F93CF93DF93282F30E0F901EA57FF4F8F
:101BE0008491F901E453FF4FD491F901E854FF4F78
:101BF000C491CC23C9F0162F81110E942A0DEC2F1D
:101C0000F0E0EE0FFF1FE255FF4FA591B4918FB7A3
:101C1000F894111105C09C91ED2FE095E92302C0C5
:101C2000EC91ED2BEC938FBFDF91CF911F91089535
:101C3000CF93DF9390E0FC01E453FF4F2491FC012C
:101C4000E854FF4F8491882361F190E0880F991F39
:101C5000FC01E656FF4FC591D491FC01E255FF4FC0
:101C6000A591B491611109C09FB7F894888120951E
:101C700082238883EC912E230BC0623061F49FB7DE
:101C8000F8943881822F809583238883EC912E2BC2
:101C90002C939FBF06C08FB7F894E8812E2B288322
:101CA0008FBFDF91CF9108952F923F924F925F9215
:101CB0006F927F928F929F92AF92BF92CF92DF925C
:101CC000EF92FF920F931F93CF93DF9310926701D0
:101CD0001092660188EE93E0A0E0B0E08093680186
:101CE00090936901A0936A01B0936B0180E191E048
:101CF000909365018093640185EC90E0909371016D
:101D00008093700184EC90E0909373018093720152
:101D100080EC90E0909375018093740181EC90E0E9
:101D2000909377018093760182EC90E09093790113
:101D30008093780186EC90E090937B0180937A0108
:101D400010927D0110927E0110927F01109280010D
:101D50008FE78093070244244A94409208024092FD
:101D6000090240920A02109202021092010210929D
:101D7000030210920402109205021092060234E14E
:101D8000632E712C7092E6056092E50588EE93E073
:101D90009093EE058093ED05C0913706D0913806FB
:101DA0007E014FEFE41AF40AD093EC05C093EB05E3
:101DB000FE01EE0FFF1FE15DF94F83EE95E0918389
:101DC00080838CE491E09093E4058093E305109286
:101DD0001D0610921C061092260661E08DE00E94FE
:101DE000180E60E080E00E94180E61E081E00E9421
:101DF000180E1092220610921E06109223061092C0
:101E00001F061092240610922006109225061092AA
:101E1000210621E030E030934F0220934E020AE089
:101E200010E010935702009356021E0152E0250E57
:101E3000311CF0925502E0925402F701EE0FFF1FA1
:101E4000E15DF94F8CE492E09183808380E491E03E
:101E500090934D0280934C02E8EDF0E084918093E2
:101E60006005E491E093610584EC90E0FC0144910D
:101E7000E42FF0E0EE0FFF1FE255FF4F4591549124
:101E80005093630540936205FC014491E42FF0E018
:101E9000EE0FFF1FEC55FF4F459154915093650590
:101EA00040936405FC018491E82FF0E0EE0FFF1FE2
:101EB000E656FF4F85919491909367058093660550
:101EC00081EC9CE290936905809368051092E2058D
:101ED00010927105B6E64B2E542CB6EE6B2EB0E484
:101EE0007B2E409288025092890260928A02709200
:101EF0008B0280E090E0A0E2B1E480938C029093AA
:101F00008D02A0938E02B0938F024DEE57E064E8ED
:101F100074EC4093900250939102609392027093FC
:101F200093024AE9642E49E9742E49E1842E40E483
:101F3000942E6092C8027092C9028092CA02909256
:101F4000CB028093CC029093CD02A093CE02B093AB
:101F5000CF021092D0021092D1021092D2021092AF
:101F6000D3025AE9852E59E9952E59E1A52E50EC58
:101F7000B52E8092080390920903A0920A03B092B2
:101F80000B0380930C0390930D03A0930E03B09367
:101F90000F0310921003109211031092120310926B
:101FA000130346E656E666EE70EC40934803509302
:101FB000490360934A0370934B0380934C039093BF
:101FC0004D03A0934E03B0934F038DEE97E0A4E82A
:101FD000B4E48093500390935103A0935203B093C1
:101FE0005303C12CD12CE0E8EE2EE0ECFE2EC09283
:101FF0008803D0928903E0928A03F0928B0380E0F9
:1020000090E0A0E0B0E480938C0390938D03A093C4
:102010008E03B0938F03F9EA4F2EF5ED5F2EF3E8B0
:102020006F2EF4EC7F2E40929003509291036092B9
:10203000920370929303C092C803D092C903E092B6
:10204000CA03F092CB03E6E6CE2EDC2CEC2CE0E4C7
:10205000FE2EC092CC03D092CD03E092CE03F0923C
:10206000CF03F1E34F2EFAE35F2EF4E86F2EF4E492
:102070007F2E4092D0035092D1036092D20370928F
:10208000D303409308045093090460930A047093A7
:102090000B0440E050E060E271EC40930C0450937C
:1020A0000D0460930E0470930F04E5E64E2EE3EAF0
:1020B0005E2EE3E86E2EE4EC7E2E409210045092E9
:1020C000110460921204709213048092480490925A
:1020D0004904A0924A04B0924B0440934C0450939C
:1020E0004D0460934E0470934F04FBED8F2EFFE080
:1020F0009F2EF9E4AF2EF0E4BF2E80925004909210
:102100005104A0925204B0925304EAE94E2EE9E938
:102110005E2EE9E16E2EE0E47E2E4092880450921D
:10212000890460928A0470928B0440938C045093CB
:102130008D0460938E0470938F048092900490922B
:102140009104A0929204B0929304F6E66F2E762C3E
:10215000F6EE8F2EF0E49F2E6092C8047092C904B0
:102160008092CA049092CB044093CC045093CD0447
:102170006093CE047093CF0445E653EA63E874E4B9
:102180004093D0045093D1046093D2047093D3044D
:1021900040E050E060E870E4409308055093090582
:1021A00060930A0570930B05C0920C05D0920D0543
:1021B000E0920E05F0920F05E1E3CE2EEAE3DE2E6B
:1021C000E4E8EE2EE4ECFE2EC0921005D09211054C
:1021D000E0921205F092130540934805509349058B
:1021E00060934A0570934B0580934C0590934D0581
:1021F000A0934E05B0934F0549EA55ED63E874E4AA
:1022000040935005509351056093520570935305C8
:1022100042E350E0509333024093320248EC50E0E6
:1022200050933B0240933A02AE014D5F5F4F3092B4
:10223000390220923802F101EE0FFF1FE15DF94FE4
:1022400060E372E07183608364E371E07093310254
:102250006093300230933C0620933B0674E1872E56
:10226000912C90924406809243062496D09338068F
:10227000C09337065093420640934106440F551FC2
:10228000FA01E15DF94F49E356E05183408348E2AA
:1022900051E050933A064093390630934A06209312
:1022A000490610934E0600934D0620E231E030932C
:1022B0004C0620934B068093530690935406A093AC
:1022C0005506B09356068093570690935806A093F0
:1022D0005906B0935A0610925B0610925C06109253
:1022E0005D0610925E0610925F06109260061092D4
:1022F00061061092620680912F028C30A0F491E06A
:10230000980F90932F0280936B0690E0FC01EE0FE4
:10231000FF1F8E0F9F1FFC01E55FFD4F88EB9BE0C9
:102320009283818304C099249A9490926B061092B0
:102330006F0610926E0688EB9BE090937106809377
:1023400070061092760610927D06DF91CF911F9154
:102350000F91FF90EF90DF90CF90BF90AF909F9044
:102360008F907F906F905F904F903F902F90089547
:10237000789484B5826084BD84B5816084BD85B560
:10238000826085BD85B5816085BD80916E0081606C
:1023900080936E0010928100809181008260809312
:1023A0008100809181008160809381008091800014
:1023B0008160809380008091B10084608093B1003F
:1023C0008091B00081608093B00080917A00846039
:1023D00080937A0080917A00826080937A00809165
:1023E0007A00816080937A0080917A00806880937F
:1023F0007A001092C1000FE216E0C0E0D0E08091B8
:10240000370690913806C817D9076CF4D8018D911A
:102410009D918D01DC01ED91FC910480F581E02D11
:1024200009952196ECCF10922E0610922D0610924F
:102430002C0610922B061092280610922706109256
:102440002A0610922906CDE2D0E003E310E08FE3E4
:10245000E82EF12C99E3C92ED12C80912D06909174
:102460002E06009719F08D9729F014C0D0932E06F0
:10247000C0932D0685EE95E00E94AB0A882371F08B
:1024800083EE95E00E94D50A60E070E083EE95E06F
:102490000E942A0110922E0610922D0680912B0682
:1024A00090912C06009719F0C39729F014C010934F
:1024B0002C0600932B068EE492E00E94AB0A882340
:1024C00071F08CE492E00E94D50A60E070E08CE448
:1024D00092E00E942A0110922C0610922B06809105
:1024E000290690912A06009719F0CF9729F014C079
:1024F000F0922A06E092290682E392E00E94AB0A5B
:10250000882371F080E392E00E94D50A60E070E0D9
:1025100080E392E00E942A0110922A061092290676
:102520008091270690912806009719F0C99729F005
:1025300014C0D0922806C09227068BE396E00E9432
:10254000AB0A882371F089E396E00E94D50A60E027
:1025500070E089E396E00E942A011092280610920A
:1025600027060E94200D79CFE89409C097FB3EF41E
:1025700090958095709561957F4F8F4F9F4F9923D0
:10258000A9F0F92F96E9BB279395F695879577954E
:102590006795B795F111F8CFFAF4BB0F11F460FF0E
:1025A0001BC06F5F7F4F8F4F9F4F16C0882311F066
:1025B00096E911C0772321F09EE8872F762F05C07A
:1025C000662371F096E8862F70E060E02AF09A9515
:1025D000660F771F881FDAF7880F9695879597F90A
:1025E00008950E9404130C9475130E94671338F029
:1025F0000E946E1320F0952311F00C945E130C943E
:10260000641311240C94A9130E94861370F3959FF0
:10261000C1F3950F50E0551F629FF001729FBB27D9
:10262000F00DB11D639FAA27F00DB11DAA1F649F75
:102630006627B00DA11D661F829F2227B00DA11D28
:10264000621F739FB00DA11D621F839FA00D611DAE
:10265000221F749F3327A00D611D231F849F600DCF
:10266000211D822F762F6A2F11249F5750409AF0F8
:10267000F1F088234AF0EE0FFF1FBB1F661F771F84
:10268000881F91505040A9F79E3F510580F00C944F
:102690005E130C94A9135F3FE4F3983ED4F3869540
:1026A00077956795B795F795E7959F5FC1F7FE2BEF
:1026B000880F911D9695879597F9089597F99F67CB
:1026C00080E870E060E008959FEF80EC08950024BA
:1026D0000A941616170618060906089500240A9487
:1026E00012161306140605060895092E0394000C0D
:1026F00011F4882352F0BB0F40F4BF2B11F460FF9C
:1027000004C06F5F7F4F8F4F9F4F089557FD9058C4
:10271000440F551F59F05F3F71F04795880F97FBA5
:10272000991F61F09F3F79F087950895121613065F
:102730001406551FF2CF4695F1DF08C0161617068E
:102740001806991FF1CF86957105610508940895C3
:10275000E894BB2766277727CB0197F90895052EC4
:1027600097FB1EF400940E94C61357FD07D00E94E9
:10277000E11307FC03D04EF40C94C613509540951A
:10278000309521953F4F4F4F5F4F0895909580951D
:10279000709561957F4F8F4F9F4F08950E9403144E
:1027A000A59F900DB49F900DA49F800D911D1124A5
:1027B0000895B7FF0C94CE130E94CE13821B930B87
:1027C0000895A1E21A2EAA1BBB1BFD010DC0AA1F72
:1027D000BB1FEE1FFF1FA217B307E407F50720F08A
:1027E000A21BB30BE40BF50B661F771F881F991F05
:1027F0001A9469F760957095809590959B01AC014E
:10280000BD01CF010895A29FB001B39FC001A39F56
:10281000700D811D1124911DB29F700D811D112419
:10282000911D08955058BB27AA270E942A140C9482
:1028300075130E94671338F00E946E1320F039F46C
:102840009F3F19F426F40C9464130EF4E095E7FB13
:102850000C945E13E92F0E94861358F3BA1762078F
:1028600073078407950720F079F4A6F50C94A81354
:102870000EF4E0950B2EBA2FA02D0B01B90190019B
:102880000C01CA01A0011124FF27591B99F0593FDF
:1028900050F4503E68F11A16F040A22F232F342F27
:1028A0004427585FF3CF469537952795A795F04075
:1028B0005395C9F77EF41F16BA0B620B730B840B8A
:1028C000BAF09150A1F0FF0FBB1F661F771F881F42
:1028D000C2F70EC0BA0F621F731F841F48F487959A
:1028E00077956795B795F7959E3F08F0B0CF93958C
:1028F000880F08F09927EE0F9795879508950E9405
:102900002E15E3950C9457150E9498140C9475138A
:102910000E946E1358F00E94671340F029F45F3F45
:1029200029F00C945E1351110C94A9130C946413A8
:102930000E94861368F39923B1F3552391F3951BF5
:10294000550BBB27AA2762177307840738F09F5FD0
:102950005F4F220F331F441FAA1FA9F335D00E2E3D
:102960003AF0E0E832D091505040E695001CCAF7AA
:102970002BD0FE2F29D0660F771F881FBB1F26176D
:1029800037074807AB07B0E809F0BB0B802DBF0144
:10299000FF2793585F4F3AF09E3F510578F00C9413
:1029A0005E130C94A9135F3FE4F3983ED4F386952D
:1029B00077956795B795F7959F5FC9F7880F911D34
:1029C0009695879597F90895E1E0660F771F881F20
:1029D000BB1F621773078407BA0720F0621B730BD3
:1029E000840BBA0BEE1F88F7E09508950E94FD1442
:1029F0006894B1110C94A91308950E948E1388F065
:102A00009F5798F0B92F9927B751B0F0E1F0660FB2
:102A1000771F881F991F1AF0BA95C9F714C0B130F3
:102A200091F00E94A813B1E008950C94A813672FA9
:102A3000782F8827B85F39F0B93FCCF38695779522
:102A40006795B395D9F73EF490958095709561950B
:102A50007F4F8F4F9F4F08950C9464130E948E13E5
:102A6000D8F3E894E0E0BB279F57F0F02AED3FE071
:102A700049EC06C0EE0FBB0F661F771F881F28F0BA
:102A8000B23A62077307840728F0B25A620B730BDD
:102A9000840BE3959A9572F7803830F49A95BB0FC2
:102AA000661F771F881FD2F790480C947515EF9317
:102AB000E0FF07C0A2EA2AED3FE049EC5FEB0E948D
:102AC0002A140E9475130F90039401FC9058E8E6B5
:102AD000F0E00C9481159F930E942E150F9007FC37
:102AE000EE5F0C9457159F3F31F0915020F487957D
:102AF00077956795B795880F911D9695879597F966
:102B000008959F938F937F936F93FF93EF939B0110
:102B1000AC010E94F112EF91FF910E9495152F9147
:102B20003F914F915F910C94F112DF93CF931F93DC
:102B30000F93FF92EF92DF927B018C01689406C0A5
:102B4000DA2EEF010E940413FE01E894A59125916D
:102B5000359145915591A6F3EF010E942A14FE018B
:102B60009701A801DA9469F7DF90EF90FF900F9139
:102B70001F91CF91DF910895991B79E004C0991FAF
:102B8000961708F0961B881F7A95C9F780950895C7
:102B900097FB072E16F4009407D077FD09D00E940A
:102BA000DC1507FC05D03EF4909581959F4F089564
:102BB000709561957F4F0895AA1BBB1B51E107C01B
:102BC000AA1FBB1FA617B70710F0A61BB70B881FBD
:102BD000991F5A95A9F780959095BC01CD0108954C
:102BE000EE0FFF1F0590F491E02D099481E090E035
:0A2BF000F8940C94FB15F894FFCF45
:102BFA0002000000003F0500000000000000000085
:102C0A00B70C330C800C5E0C720CFE0C000000003A
:102C1A003A01180100000000E90A2A0107044B02E0
:102C2A0000000000B2072A01CF03170100000000CC
:102C3A007B042A018803EB020000000056082A01DF
:042C4A00F602580234
:107E0000112484B714BE81FFF0D085E080938100F7
:107E100082E08093C00088E18093C10086E0809377
:107E2000C20080E18093C4008EE0C9D0259A86E02C
:107E300020E33CEF91E0309385002093840096BBD3
:107E4000B09BFECF1D9AA8958150A9F7CC24DD24C4
:107E500088248394B5E0AB2EA1E19A2EF3E0BF2EE7
:107E6000A2D0813461F49FD0082FAFD0023811F036
:107E7000013811F484E001C083E08DD089C08234E0
:107E800011F484E103C0853419F485E0A6D080C0E4
:107E9000853579F488D0E82EFF2485D0082F10E0AE
:107EA000102F00270E291F29000F111F8ED06801E7
:107EB0006FC0863521F484E090D080E0DECF843638
:107EC00009F040C070D06FD0082F6DD080E0C81688
:107ED00080E7D80618F4F601B7BEE895C0E0D1E017
:107EE00062D089930C17E1F7F0E0CF16F0E7DF06D8
:107EF00018F0F601B7BEE89568D007B600FCFDCFD4
:107F0000A601A0E0B1E02C9130E011968C91119780
:107F100090E0982F8827822B932B1296FA010C0160
:107F200087BEE89511244E5F5F4FF1E0A038BF0790
:107F300051F7F601A7BEE89507B600FCFDCF97BE46
:107F4000E89526C08437B1F42ED02DD0F82E2BD052
:107F50003CD0F601EF2C8F010F5F1F4F84911BD097
:107F6000EA94F801C1F70894C11CD11CFA94CF0C13
:107F7000D11C0EC0853739F428D08EE10CD085E9AC
:107F80000AD08FE07ACF813511F488E018D01DD067
:107F900080E101D065CF982F8091C00085FFFCCF94
:107FA0009093C60008958091C00087FFFCCF809118
:107FB000C00084FD01C0A8958091C6000895E0E648
:107FC000F0E098E1908380830895EDDF803219F02E
:107FD00088E0F5DFFFCF84E1DECF1F93182FE3DFCA
:107FE0001150E9F7F2DF1F91089580E0E8DFEE27F6
:047FF000FF270994CA
:027FFE00040479
:0400000300007E007B
:00000001FF