:100000000C94FC000C9424010C9424010C94240105
:100010000C9424010C9424010C9424010C942401CC
:100020000C9424010C9490080C94440F0C944A0AEC
:100030000C9424010C9424010C9424010C942401AC
:100040000C9424010C94CF070C9424010C942401EB
:100050000C9424010C940A090C9424010C9424059A
:100060000C9424010C9424010C9424010C9424017C
:100070000C9424010C9424010C9424010C9424016C
:100080000C9424010C9424010C9424010C9424015C
:100090000C9424010C9424010C9424010C9424014C
:1000A0000C9424010C9456070C94240176027902D6
:1000B00068026C0270029A029A029A027D02810220
:1000C00085028B028F029A029502110316031B030D
:1000D00025032F03790379037903390343034D0380
:1000E0005703640379036C03000000002500280017
:1000F0002B002E0031000000000023002600290004
:100100002C002F000404040404030405020202026C
:1001100004030202020206060606060604040202A0
:100120000204040408020110408040102040804076
:10013000800802040180402010020110801020403D
:10014000402000000000240027002A002D0030007D
:100150000000000200090F0000030401000C000071
:100160000000000000000000000000000000000887
:100170000B0002020201000904000001020200005B
:1001800005240010010524010101042402060524B0
:100190000600010705810310004009040100020A5E
:1001A000000000070502024000000705830240002E
:1001B000000403090441726475696E6F204C4C435E
:1001C0000041726475696E6F204C656F6E61726478
:1001D0006F00120100020000004041233680000140
:1001E0000102030112010002EF02014041233680A7
:1001F0000001010203010D1A11241FBECFEFDAE046
:10020000DEBFCDBF11E0A0E0B1E0EAECFFE302C049
:1002100005900D92AC3FB107D9F723E0ACEFB1E008
:1002200001C01D92AE33B207E1F710E0CCEFD0E091
:1002300004C02197FE010E94681ACB3FD107C9F77D
:100240000E94B60F0C94E31F0C940000CF93DF9331
:100250001F92CDB7DEB76983DC01ED91FC9102807E
:10026000F381E02D41E050E0BE016F5F7F4F0995C3
:100270000F90DF91CF91089583E08093E900809102
:10028000F200882319F08AE38093E8000895FC01C6
:100290008485958597FD0BC09FB7F89482E0809385
:1002A000E9008091F2009FBF90E0019608959FB70A
:1002B000F89482E08093E9008091F2009FBF90E083
:1002C00008952091FF01309100022817390771F439
:1002D0009091FD018091FE01981741F0E091FD01A0
:1002E000F0E0EF5BFD4F808190E008958FEF9FEF8E
:1002F000089508951F93CF93DF93DC015C962D91B1
:100300003C915D972115310539F481E090E0139619
:100310009C938E9312973DC05196ED91FC9152970C
:1003200050969C915097892F80951FB75E964C915F
:100330005E9741FB772770F941FD6095F894408105
:10034000772311F0492B01C048234083E90121970D
:10035000F1F748E0508160FF02C0592B01C05823DB
:100360005083E9012197F1F76695415099F777237A
:1003700021F090818923808303C08081982B908312
:100380001FBF5C968D919C915D970197F1F721E0DD
:1003900030E0C901DF91CF911F9108952091FF01B5
:1003A000309100022817390771F48091FE012091E5
:1003B000FD0190E0805C9F4F821B910960E470E03A
:1003C0000E94541A089580E090E008952091FF0162
:1003D0003091000228173907B9F49091FD018091FE
:1003E000FE01981789F0E091FD01F0E0EF5BFD4F11
:1003F00080812091FD0130E02F5F3F4F2F73332725
:100400002093FD0190E008958FEF9FEF08950F93E3
:100410001F93CF93DF931F92CDB7DEB78C01FC0102
:100420008485958597FF0EC0CE0101960E94320EFD
:10043000019719F4298130E002C02FEF3FEFF80156
:1004400035872487F801848595850F90DF91CF91BA
:100450001F910F910895CF93DF931F92CDB7DEB711
:10046000FC018485958597FD05C02FEF3FEF35870B
:1004700024870BC0CE0101960E94320E019719F419
:10048000898190E002C08FEF9FEF0F90DF91CF91B5
:1004900008950E94841D362F90E0FC01E05BFE4F22
:1004A0004491FC01ED5DFE4F2491FC01EC5FFE4F99
:1004B0008491882309F451C04423E1F150E0FA010A
:1004C0003197EF30F105B0F5EA5AFF4F0C94681AF6
:1004D000909180009F7707C0909180009F7D03C01E
:1004E00090918000977F9093800024C094B59F776F
:1004F00002C094B59F7D94BD1DC0909190009F77E0
:1005000007C0909190009F7D03C090919000977FCD
:10051000909390000FC09091C0009F7703C090917E
:10052000C0009F7D9093C00005C09091C200977F4E
:100530009093C200E82FF0E0EE0FFF1FE851FF4F4D
:10054000A591B4918FB7F894EC91311103C0209527
:100550002E2301C02E2B2C938FBF0895CF93DF93B2
:1005600090E0FC01ED5DFE4F2491FC01EC5FFE4F3D
:100570008491882361F190E0880F991FFC01EE5B64
:10058000FE4FC591D491FC01E851FF4FA591B49164
:10059000611109C09FB7F8948881209582238883D0
:1005A000EC912E230BC0623061F49FB7F894388130
:1005B000822F809583238883EC912E2B2C939FBFD1
:1005C00006C08FB7F894E8812E2B28838FBFDF9168
:1005D000CF9108951F93CF93DF93182FEB0161E024
:1005E0000E94AE02209711F460E004C0CF3FD10515
:1005F00039F461E0812FDF91CF911F910C944B0270
:10060000E12FF0E0E05BFE4FE4914E2F50E0FA0165
:100610003197EF30F10508F06CC0EB59FF4F0C94A7
:10062000681A84B5806884BDC7BD68C084B580621F
:1006300084BDC8BD63C080918000806880938000C5
:10064000D0938900C093880059C080918000806257
:1006500080938000D0938B00C0938A004FC080911C
:100660008000886080938000D0938D00C0938C00C0
:1006700045C080919000806880939000D09399004D
:10068000C09398003BC0809190008062809390005E
:10069000D0939B00C0939A0031C0809190008860F5
:1006A00080939000D0939D00C0939C0027C08091C0
:1006B000C00080688093C0008091C0008F7B8093D1
:1006C000C000C093CF001AC08091C00080628093A8
:1006D000C000C093D00012C08091C2008860809397
:1006E000C2008091C2008B7F8093C200C093D20071
:1006F00005C0C038D1050CF07CCF76CFDF91CF910B
:100700001F9108953FB7F8948091870290918802D5
:10071000A0918902B0918A0226B5A89B05C02F3FFF
:1007200019F00196A11DB11D3FBFBA2FA92F982F17
:100730008827820F911DA11DB11DBC01CD0142E092
:10074000660F771F881F991F4A95D1F708958F92DA
:100750009F92AF92BF92CF92DF92EF92FF926B0186
:100760007C010E9482034B015C01C114D104E104AD
:10077000F104F1F00E948203DC01CB018819990990
:10078000AA09BB09883E9340A105B10570F321E099
:10079000C21AD108E108F10888EE880E83E0981E9D
:1007A000A11CB11CC114D104E104F10419F7DDCF7F
:1007B000FF90EF90DF90CF90BF90AF909F908F9081
:1007C00008958F929F92AF92BF92CF92DF92EF9255
:1007D000FF920F931F93CF93DF935C016B018A010C
:1007E00080910B01882309F45EC0809195028823D3
:1007F00009F459C08091920280FF05C08091E00009
:1008000082608093E000E8018AEFF82E93E0E92E01
:100810002FE3822E3AE3932E209709F43DC08FB741
:10082000F894E092E9009091E80095FF06C090915D
:10083000F200282D291B922F01C090E08FBF91114B
:100840000AC0FA94FF2079F161E070E080E090E066
:100850000E94A703E1CF292F30E0C217D3070CF481
:100860009C2F8FB7F894E092E9002091E80025FFD3
:1008700011C0292F30E0C21BD30BF601915020F09C
:1008800041914093F100FACFC20ED31E9091E8003F
:1008900095FF13C08FBFC0CF5D9884E6809393020D
:1008A0001016110644F081E090E0F50193838283F5
:1008B00080E090E005C0C80103C09092E800EACF54
:1008C000DF91CF911F910F91FF90EF90DF90CF902C
:1008D000BF90AF909F908F9008954F925F926F92CC
:1008E0007F928F929F92AF92BF92DF92EF92FF9290
:1008F0000F931F93CF93DF93E0912B02F0912C0283
:1009000004811581780128E4E20EF11CF701A08032
:10091000B1800E94820322E1D22EDA9CE001DB9CAE
:10092000D00D1124C00FD11F8E849F84A888B98850
:1009300086169706A806B90618F41092720068C0C9
:10094000E885F98590818D81892309F061C0109235
:1009500072000E9482032C853D852901612C712C37
:100960008E849F84A888B988A30192012819390927
:100970004A095B0949015A013DE0831A9108A1081F
:10098000B108DC01CB01880D991DAA1DBB1D888310
:100990009983AA83BB83F801E55AFF4F0190F08148
:1009A000E02D80819181938382831482F701C0813D
:1009B000D181DC9EF001DD9EF00D1124E00FF11FCE
:1009C000608171818281938129E330E040E050E0D1
:1009D0000E94491FCC0FDD1FCC0FDD1FC00FD11FA0
:1009E000C55BDF4F211531054105510529F02883ED
:1009F00039834A835B8308C088EC90E0A0E0B0E0D4
:100A000088839983AA83BB83F801E65BFF4F10823A
:100A1000DF91CF911F910F91FF90EF90DF90BF90EA
:100A2000AF909F908F907F906F905F904F900895C0
:100A30002FB7F894609183027091840280918502AF
:100A4000909186022FBF08951F920F920FB60F92BA
:100A500011242F933F938F939F93AF93BF938091D4
:100A6000830290918402A0918502B0918602309118
:100A7000820223E0230F2D3720F40196A11DB11D22
:100A800005C026E8230F0296A11DB11D2093820206
:100A90008093830290938402A0938502B093860290
:100AA0008091870290918802A0918902B0918A0278
:100AB0000196A11DB11D8093870290938802A09397
:100AC0008902B0938A02BF91AF919F918F913F911C
:100AD0002F910F900FBE0F901F901895CF92DF921D
:100AE000EF92FF92CF93DF93EC016A017B0161EDFE
:100AF00071E086E992E00E94F90C2AE0B701A601B4
:100B000086E992E00E949C0C64E671E086E992E03E
:100B10000E94870CC882D982EA82FB82DF91CF9142
:100B2000FF90EF90DF90CF9008950F931F93CF9396
:100B3000DF938C01EB01FC017583648365EE71E04A
:100B400086E992E00E94F90CCE010E94180DBE01C8
:100B5000D7FF02C060E070E0F80180810E94EA02E5
:100B6000D7FF05C0662777276C1B7D0B02C060E0AE
:100B700070E0F8018281DF91CF911F910F910C9469
:100B8000EA02CF93DF93EC012EEF31E0DB010E940C
:100B90006E1A24E630E040E050E00E946B1FCA016C
:100BA000B9016F5F710981099109CE01DF91CF9180
:100BB0000C9495058F929F92AF92BF92CF92DF9245
:100BC000EF92FF92CF93DF93EC01EB81FC818D815B
:100BD0009E814F01881A990A092C000CAA08BB08AB
:100BE000AB01770F660B770B9A01AB012C593F4F86
:100BF0004F4F5F4FBF01680F791FCB01770FAA0BD3
:100C0000BB0BBC01CD01681979098A099B090E94B7
:100C1000391F28EC30E040E050E00E946B1F820E4C
:100C2000931EA41EB51EC4012F81388528153905D1
:100C300009F47AC020E2821622E092060CF03EC04F
:100C400097FC05C0853B91052CF4D40105C0A0E0BC
:100C5000B0E002C0A4EBB0E0898128E830E069018F
:100C6000C81AD10887FDD394CC0CDD1CCC0CDD1C3C
:100C70000D2C000CEE08FF088A8128E532E0281BC5
:100C8000310987FD3395220F331F220F331FA9012E
:100C9000330F660B770B9A01AB012C193D094E09F6
:100CA0005F090E94951F24EB30E040E050E00E9475
:100CB0006B1FC20ED31EE41EF51E01C064018881A5
:100CC0008C3080F5998148E850E0491B510997FD27
:100CD0005395440F551F440F551FC416D50684F075
:100CE0009A8128E532E0291B310997FD3395220FBF
:100CF000331F220F331FA6012C153D050CF4A9014B
:100D000042505109440F551F2FB7F89490E0FC0151
:100D1000EE0FFF1F8E0F9F1FFC01EF5FFD4F5283F1
:100D200041832FBF98868F82DF91CF91FF90EF9004
:100D3000DF90CF90BF90AF909F908F900895CF930A
:100D4000DF93EC01CB0102960E94700EEA81FB81D9
:100D50000190F081E02D748363839B0167347105FA
:100D600014F026E430E044EB50E0461B570B4217EA
:100D700053070CF49A013683258360E070E0CF01BD
:100D8000DF91CF910C94DA05CF93DF93EC01CB0187
:100D9000288139812130310559F02230310599F40B
:100DA0002C81222329F02D813E81232B61F41C828A
:100DB00002960E94700EEA81FB8182819381DF910D
:100DC000CF910C94C105DF91CF9108958F929F929E
:100DD000AF92BF92EF92FF920F931F93CF93DF9347
:100DE00000D000D000D0CDB7DEB77C01FC018481FB
:100DF0009581892B69F0A080B1806AE370E0C5011C
:100E00000E94921D009721F08C010A191B0902C053
:100E10000FEF1FEF980140E050E0B701CE010196BF
:100E20000E94EF0ECE0101960E94700E4B015C01F4
:100E300089819A810E94221CF701248135812150E9
:100E40003109A8014F5F5F4FB701CE0101960E94A3
:100E5000EF0E88E090E00E948D1B8C017C01F2E097
:100E6000EF0EF11C69EB71E0C7010E94DA0EF80188
:100E700091828082BE016F5F7F4FC7010E94C30EC7
:100E800089819A810E94221CC80126960FB6F89487
:100E9000DEBF0FBECDBFDF91CF911F910F91FF90AD
:100EA000EF90BF90AF909F908F9008951F920F92F8
:100EB0000FB60F9211242F933F934F935F936F932D
:100EC0007F938F939F93AF93BF93EF93FF93E091A3
:100ED0002702F09128020995FF91EF91BF91AF9100
:100EE0009F918F917F916F915F914F913F912F9142
:100EF0000F900FBE0F901F901895DC0170E0FB0162
:100F0000ED5DFE4FE4911496EC93149750E0FA01D6
:100F1000ED5DFE4FE4911596EC9315976C5F7E4F57
:100F2000FB018491E82FF0E0EE0FFF1FE851FF4F27
:100F30008591949117969C938E931697FA01EC5F86
:100F4000FE4F449150E0440F551F4A505F4FFA0145
:100F50008591949119969C938E931897FB016491B7
:100F6000E62FF0E0EE0FFF1FEE5BFE4F85919491B0
:100F70001B969C938E931A972F5F3F4F49E3429F96
:100F8000C001439F900D11248E38FFE69F0710F09B
:100F90008DE89FE61D969C938E931C9708951F9253
:100FA0000F920FB60F9211242F933F934F935F939D
:100FB0006F937F938F939F93AF93BF93EF93FF9321
:100FC0008091810287FF05C01092850010928400F5
:100FD0001BC020918102022E000C330B8091FC017A
:100FE00090E02817390784F480918102082E000CC4
:100FF000990BFC01EE0FFF1F8E0F9F1FFC01EF5F8F
:10100000FD4F808186FD15C0809181028F5F8093A6
:10101000810220918102022E000C330B8091FC0191
:1010200090E028173907C4F4809181028C3064F174
:1010300013C080918102082E000C990BFC01EE0F69
:10104000FF1F8E0F9F1FFC01EF5FFD4F808160E04F
:101050008F730E944B02D8CF8091840090918500BD
:10106000049680349C4918F480E49CE905C0809182
:101070008400909185000496909389008093880065
:101080008FEF809381023BC02091840030918500D6
:1010900080918102082E000C990BFC01EE0FFF1FBE
:1010A0008E0F9F1FFC01EF5FFD4F81819281820FA8
:1010B000931F909389008093880080918102082E6D
:1010C000000C990BFC01EE0FFF1F8E0F9F1FFC0100
:1010D000EF5FFD4F808186FF12C080918102082E54
:1010E000000C990BFC01EE0FFF1F8E0F9F1FFC01E0
:1010F000EF5FFD4F808161E08F730E944B02FF9193
:10110000EF91BF91AF919F918F917F916F915F917F
:101110004F913F912F910F900FBE0F901F901895F8
:101120001F920F920FB60F9211242F933F934F935C
:101130005F936F937F938F939F93AF93BF93EF933F
:10114000FF93E091FF01F0910002309709F451C044
:10115000968DA685B785858591FF04C09C918923CE
:1011600029F447C09C91892309F043C0A389B4891D
:101170009C918589809589238C938689978901978D
:10118000F1F7608D718DA685B785558538E020E033
:10119000CB010197F1F7822F90E095958795282F45
:1011A0004C91452309F02068315091F7868D81FDDF
:1011B00020958091FE0190E001968F7399273091E0
:1011C000FD01381749F0A091FE01B0E0AF5BBD4FC3
:1011D0002C938093FE0103C0868D8160868F828D63
:1011E000938D0197F1F7A389B4899C918589892B07
:1011F0008C93FF91EF91BF91AF919F918F917F91D0
:101200006F915F914F913F912F910F900FBE0F9073
:101210001F9018951F920F920FB60F9211248F9363
:101220009F93EF93FF93E0912502F09126020684AD
:10123000F785E02D8481882339F08281938100979E
:1012400009F0019793838283E0912B02F0912C02A5
:101250000480F581E02DE55AFF4F0190F081E02DEB
:101260008481882339F082819381009709F0019766
:1012700093838283E0912902F0912A0285819681ED
:10128000009709F0019796838583FF91EF919F91D5
:101290008F910F900FBE0F901F9018954091900264
:1012A0005091910220918E0230918F024217530784
:1012B000B4F49091E8009570E1F39091E80092FD0C
:1012C00019C08093F1008091900290919102019653
:1012D0008F739927892B19F48EEF8093E800809102
:1012E00090029091910201969093910280939002C6
:1012F00081E0089580E00895CF92DF92EF92FF920F
:101300000F931F93CF93DF931F92CDB7DEB7182FA4
:10131000062FE42E862F880F8E5F99830E944E0938
:1013200083E00E944E09F12EC12E9981D92E8C2D79
:101330008F19801798F4F601E7FE02C0849101C06E
:1013400080810E944E09182F80E00E944E0981235F
:10135000FFEFCF1ADF0A8111EACF01C081E00F90C1
:10136000DF91CF911F910F91FF90EF90DF90CF9081
:101370000895DF92EF92FF920F931F93CF93DF9325
:10138000D82E8A017B01E40EF51EEB01CE15DF0598
:1013900071F0D7FE03C0FE01849101C088810E94D4
:1013A0004E0921968111F2CF8FEF9FEF01C0C80146
:1013B000DF91CF911F910F91FF90EF90DF900895F3
:1013C000615030F02091F100FC0120830196F8CFAC
:1013D000289884E6809394020895CF92DF92EF924A
:1013E000FF920F931F93CF93DF936C017A018B01D0
:1013F000C0E0D0E0CE15DF0589F0D8016D918D01F8
:10140000D601ED91FC910190F081E02DC601099586
:10141000892B11F47E0102C02196ECCFC701DF9128
:10142000CF911F910F91FF90EF90DF90CF90089593
:101430000F931F93CF93DF931F92CDB7DEB782E058
:10144000898342E450E06FE671E080E80E94B909C8
:101450000E945C0EDC0112960D911C9113970115F0
:10146000110569F0D801ED91FC910280F381E02D26
:10147000BE016F5F7F4FC801099597FF07C0898143
:101480000F90DF91CF911F910F910895F801008582
:101490001185E5CF1F920F920FB60F921124CF92B4
:1014A000DF92EF92FF920F931F932F933F934F93EF
:1014B0005F936F937F938F939F93AF93BF93EF93BC
:1014C000FF93CF93DF93CDB7DEB76C97DEBFCDBF71
:1014D0001092E9008091E80083FFFAC168E0CE0134
:1014E00045960E94E00982EF8093E8008D8987FF8E
:1014F00005C09091E80090FFFCCF03C09EEF909351
:10150000E800982F907609F0C6C09E892F89188D23
:1015100091110CC0803829F480918C028093F100E5
:1015200002C01092F1001092F10047C1422F50E02A
:10153000512B913051F4811140C14130510509F0D6
:101540003CC180918C028D7F0BC0933061F481117E
:1015500034C14130510509F030C180918C02826064
:1015600080938C022AC1953041F48091E80080FF7D
:10157000FCCF20682093E30020C1963009F05FC0C3
:10158000EB8CFC8C1092E900109291021092900268
:10159000123091F510928F0210928E020E94180A5A
:1015A00099E0BE016F5F7F4FDB01E92F1D92EA9545
:1015B000E9F799831A8391E09E8390EA98879AEFDE
:1015C00099872091900230919102275F3F4F3C8391
:1015D0002B838D831092E900109291021092900259
:1015E000F0928F02E0928E0249E050E080E00E948B
:1015F000B9090E94180AE1C0F0928F02E0928E02AF
:101600000E945C0EDC011296ED90FC901397E114A1
:10161000F10409F4C0C0D701ED91FC910480F5817B
:10162000E02DBE016B5E7F4FC7010995009719F051
:101630000CF0C3C0C6C0F701E084F184E8CF973056
:1016400009F4BFC0983021F481E08093F100B5C067
:10165000993009F0B2C0837009F0B3C0E7E2F1E05D
:1016600081E021E036E39081992361F08093E900E5
:101670002093EB0091919093EC003093ED008F5FFD
:10168000873089F78EE78093EA001092EA008F890D
:101690008093950292C08B8D9C8D1092E9001092E0
:1016A00091021092900290938F0280938E02898D06
:1016B000811156C08E899D89913A59F4813209F081
:1016C00080C047E050E064E071E080E00E94B9092A
:1016D00074C0913209F075C0833289F4888D90E02E
:1016E000982F88272F89822BA0E0B0E080930001FB
:1016F00090930101A0930201B09303015EC0803278
:1017000069F48091E80082FFFCCF67E084E091E01B
:101710000E94E0098BEF8093E80006C0823209F056
:101720004CC08F8980930B0180918B02882319F024
:10173000EEEFFAE002C0E0E0F8E080910401909161
:101740000501A0910601B0910701803B9440A105DD
:10175000B10509F088C080910B0180FFA0C083C053
:101760000E945C0EDC0112960D911C9113970115DD
:10177000110539F1D801ED91FC910190F081E02D36
:10178000BE016B5E7F4FC8010995811116C0F8013B
:1017900000851185ECCF1130C1F0133091F48F89A1
:1017A000882309F455C08230E9F440E860E181EC17
:1017B00091E00E947C09882321F08EEF8093E8005D
:1017C00087C081E28093EB0083C08B8D9C8D08974E
:1017D00011F410938D0280918D02811136C062ED5B
:1017E00071E038C0813029F440E86BE085EB91E08E
:1017F000E0CF833031F70E945C0EDC011296ED9051
:10180000FC9013978E010F5F1F4F6801E114F104E4
:1018100079F0D701ED91FC910680F781E02DB801B8
:10182000C7010995080F111DF701E084F184EECF7F
:10183000D8011C92F60101900020E9F73197BF0111
:101840006C197D0940E0C601B4CF64EE71E002C0BE
:1018500061EB71E06115710509F4B3CFFB014491AF
:1018600050E080E833CF0FB6F894A89580916000DF
:10187000886180936000109260000FBEA895EE3FD3
:101880002AE0F20739F08091FE0A9091FF0A9183D5
:10189000808393CF1092FF0A1092FE0A8ECFEE3F04
:1018A0008AE0F80731F0808191819093FF0A80935C
:1018B000FE0A87E797E7918380839BE088E10FB674
:1018C000F894A895809360000FBE9093600075CF48
:1018D0006C960FB6F894DEBF0FBECDBFDF91CF91EF
:1018E000FF91EF91BF91AF919F918F917F916F91F8
:1018F0005F914F913F912F911F910F91FF90EF902A
:10190000DF90CF900F900FBE0F901F90189561152C
:10191000710579F0FB0101900020E9F73197AF01E3
:10192000461B570BDC01ED91FC910280F381E02D09
:10193000099480E090E008954F925F926F927F92B9
:10194000EF92FF920F931F93CF93DF93CDB7DEB744
:10195000A1970FB6F894DEBF0FBECDBF7C01FA0190
:10196000CB0119A2223008F42AE08E010F5D1F4F2F
:10197000422E512C612C712CBF01A30192010E94B7
:10198000491FF901CA01015011096A3014F4605D60
:1019900001C0695CD8016C93232B242B252B61F7A4
:1019A000B801C7010E94870CA1960FB6F894DEBF5C
:1019B0000FBECDBFDF91CF911F910F91FF90EF90A0
:1019C0007F906F905F904F9008950F931F93CF93E8
:1019D000DF93EC010E94870C8C0164E671E0CE017C
:1019E0000E94870C800F911FDF91CF911F910F9163
:1019F00008950C94870CE0919602F0919702019063
:101A0000F081E02D682F86E992E00994CF93DF936F
:101A1000EC0188819981009711F00E94221C1982A3
:101A200018821D821C821B821A82DF91CF91089539
:101A30000F931F93CF93DF9300D000D0CDB7DEB7C5
:101A4000AC01990F660B770B77FF1BC08DE24983C2
:101A50005A836B837C830E94FB0C8C0149815A81E1
:101A60006B817C8170956095509541955F4F6F4F6C
:101A70007F4F2AE086E992E00E949C0C080F191F14
:101A800006C02AE086E992E00E949C0C8C0164E684
:101A900071E086E992E00E94870C800F911F0F9001
:101AA0000F900F900F90DF91CF911F910F9108959C
:101AB0004F925F926F927F928F929F92AF92BF925E
:101AC000CF92DF92EF92FF926B017C01B42E9B01CB
:101AD000AC010E94881B882319F060EF71E027C0D9
:101AE00026013701E89477F82FEF3FEF4FE75FE7E4
:101AF000C301B2010E94881B81110DC02FEF3FEF7F
:101B00004FE75FE7C301B2010E94151E18161CF4CF
:101B100064EF71E00CC02FEF3FEF4FE75FE4C701C8
:101B2000B6010E94831B181694F468EF71E086E9F1
:101B300092E0FF90EF90DF90CF90BF90AF909F909A
:101B40008F907F906F905F904F900C94870C2FEF49
:101B50003FEF4FE75FECC701B6010E94151E87FDFE
:101B6000E4CF20E030E0A901C701B6010E94151EB4
:101B700087FF09C08DE20E94FB0C4C01F7FAF0943C
:101B8000F7F8F09402C0812C912CA12C60E070E059
:101B900080E09FE3AB1441F020E030E040E251E40C
:101BA0000E94E21AA394F6CF9B01AC01C701B601D3
:101BB0000E94761A2B013C010E94541B6B017C0190
:101BC0000E941A1E9B01AC01C301B2010E94751A4A
:101BD0002B013C012AE0B701A60186E992E00E94B0
:101BE0009C0C7C01E80CF91CBB2029F08EE20E94C1
:101BF000FB0CE80EF91EDB2CDD2031F120E030E09B
:101C000040E251E4C301B2010E947B1E2B013C0162
:101C10000E94541B4B01A12CB12C2AE0B501A40158
:101C200086E992E00E949C0CE80EF91EC501B40101
:101C30000E941A1E9B01AC01C301B2010E94751AD9
:101C40002B013C01DA94D8CFC701FF90EF90DF90D1
:101C5000CF90BF90AF909F908F907F906F905F904C
:101C60004F900895FC0180919502811103C08FEF80
:101C70009FEF08959FB7F89482E08093E900209148
:101C8000F20030E01216130614F421E030E02115C2
:101C9000310559F0289884E6809394028091F100F0
:101CA00080838091F200882319F09FBFC9010895B5
:101CB0008BE68093E800F9CF8091320381110DC04B
:101CC00082E080932E0384E080932F0310923103EF
:101CD0001092300381E0809332038EE293E0089506
:101CE000FC0180819181009711F00C94A41D60E0AB
:101CF00070E0CB0108950F931F93CF93DF93EC0116
:101D000088819981009729F02A813B81261737071E
:101D100088F48B016F5F7F4F0E94BA1C009761F0BF
:101D2000998388831B830A832C813D81232B11F4A3
:101D3000FC01108281E001C080E0DF91CF911F9112
:101D40000F910895EF92FF920F931F93CF93DF931C
:101D5000EC017B018A01BA010E947B0E811104C053
:101D6000CE010E94060D07C01D830C83B701888138
:101D700099810E949D1DCE01DF91CF911F910F91FE
:101D8000FF90EF900895CF93DF93EC01FB0186174E
:101D9000970761F0608171816115710529F04481B7
:101DA00055810E94A20E02C00E94060DCE01DF9155
:101DB000CF910895FC011182108213821282158244
:101DC00014826115710551F0FB0101900020E9F7C3
:101DD0003197AF01461B570B0C94A20E0895BF928A
:101DE000CF92DF92EF92FF920F931F93CF93DF93E7
:101DF0007C016B01EA0189012417350720F48D2F3E
:101E0000E901042F182F69EB71E0C7010E94DA0E77
:101E1000D60114968D919C911597C817D90748F54E
:101E20008017910708F48C01D601ED91FC91119770
:101E3000E00FF11FB08010824D915C91BA016C0FE0
:101E40007D1F6115710561F0FB0101900020E9F72C
:101E50003197AF01461B570BC7010E94A20E03C06A
:101E6000C7010E94060DD601ED91FC91E00FF11F14
:101E7000B082C701DF91CF911F910F91FF90EF903A
:101E8000DF90CF90BF9008951F920F920FB60F92E0
:101E900011248F939F938091E1009091E100937FB3
:101EA0009093E10083FF0FC01092E90091E09093BE
:101EB000EB001092EC0092E39093ED0010929502EB
:101EC00098E09093F00082FF20C093E09093E900A7
:101ED0009091F200992319F09AE39093E800909181
:101EE0009302992339F09091930291509093930229
:101EF000992389F190919402992339F09091940259
:101F0000915090939402992341F184FF10C08091E5
:101F1000E2008E7E81608093E2008091E1008F7EFE
:101F20008093E100809192028E7E806111C080FFDB
:101F300016C08091E2008E7E80618093E2008091E5
:101F4000E1008E7E8093E100809192028E7E81601E
:101F50008093920204C05D9ACDCF289AD6CF9F91EC
:101F60008F910F900FBE0F901F901895CF93DF9316
:101F7000CDB7DEB76B970FB6F894DEBF0FBECDBFFF
:101F8000789484B5826084BD84B5816084BD85B554
:101F9000826085BD85B5816085BD80916E00816060
:101FA00080936E0010928100809181008260809306
:101FB0008100809181008160809381008091800008
:101FC0008160809380008091910082608093910075
:101FD0008091910081608093910080919000816058
:101FE000809390008091C10084608093C1008091B3
:101FF000C10082608093C1008091C10081608093A4
:10200000C1008091C30081608093C3008091C000B3
:1020100082608093C0008091C20081608093C20082
:1020200080917A00846080937A0080917A00826047
:1020300080937A0080917A00816080937A00809109
:102040007A00806880937A001092950210928C0238
:10205000109292028091D70081608093D70080EA2D
:102060008093D80089B5806189BD89B5826089BDBA
:1020700009B400FEFDCF61E070E080E090E00E94D6
:10208000A7038091D8008F7C80618093D8008091D5
:10209000E000807F8093E0008091E1008E7E80935D
:1020A000E1008DE08093E200559A209AEEEFFFE781
:1020B000859194918B3F9C4D19F481E080938B0224
:1020C00010922A0310922B0310922C0310922D03CE
:1020D0001092E8021092E9021092EA021092EB02CA
:1020E00060ED77E080E090E00E94A70386E992E04F
:1020F00090932903809328030BE110E0F0900B01EB
:102100006AE070E080E090E00E94A703F1100AC04E
:102110000150110939F064E670E080E090E00E941F
:10212000A703ECCFE0912803F09129030FEF1FEFF5
:10213000158704870E9418056093E8027093E902EE
:102140008093EA029093EB0265E571E080912803A9
:10215000909129030E94F90C6AE070E080E090E021
:102160000E94A703DD24D394D092FC021093A30213
:102170000093A20267E671E086E992E00E94E50C16
:1021800080E190E00E948D1B7C0141E050E060E026
:1021900070E00E946E0580E895E2D70115969C9349
:1021A0008E93149769EB71E0C70108960E94DA0ECE
:1021B00085E090E00E948D1B28EE33E0FC01318326
:1021C00020831482D7011F969C938E931E978FE1D4
:1021D00090E00E948D1B8C01FC011382128288EE1C
:1021E00093E0A0E0B0E084839583A683B7838AE17F
:1021F00091E091838083178A168A118E108E138E38
:10220000128E158E148E868D8E7F8D7F868F86958D
:102210008170682F6D258AE00E944B0261E08AE0A0
:102220000E94AE02EDE2F1E0E491D8015096EC9309
:10223000EEE0F1E0E491F0E0EE0FFF1FE851FF4F18
:1022400085919491F801928B818B60E088E00E94E7
:10225000AE02D8015E968C9181FD04C061E088E0F9
:102260000E944B0288E0F8018487EBE2F1E0E49100
:10227000D8011D96EC93ECE0F1E0E491F0E0EE0F74
:10228000FF1FEA50FF4F85919491F8019787868749
:10229000D70117961C930E931697F0922602E092A0
:1022A000250287E090E00E948D1B8C01FC011482C6
:1022B00084E090E00E948D1B7C0189E090E00E9408
:1022C0008D1BDC0189E0FD0111928A95E9F72091CF
:1022D000FC012C3098F481E0820F8093FC012C9358
:1022E00030E0F901EE0FFF1F2E0F3F1FF901EF5FE6
:1022F000FD4F88EB9BE09283818302C08FEF8C932C
:102300008DE490E014969C938E93139786E490E06E
:1023100016969C938E931597F701B183A08386E060
:1023200090E00E948D1B6C0183E090E0D601119635
:102330009C938E938BE090E013969C938E931297D0
:1023400061E083E00E94AE0261E08BE00E94AE0299
:10235000F701D382C282D8011396FC92EE921297B3
:1023600081E090E08D939C9310932A0200932902C0
:1023700086E090E00E948D1B7C0141E050E060E02F
:1023800070E00E946E0584EA91E00E948D1B8C0132
:1023900028EC30E043E162E10E947D0728EC30E068
:1023A00045E164E1C80142960E947D0728EC30E0D7
:1023B00046E065E0C80184960E947D0728EC30E085
:1023C0004DE066E0C801C6960E947D0785E090E07A
:1023D0000E948D1B2AE030E0FC01318320831482AF
:1023E000F801E55AFF4F9183808336961082D7011A
:1023F00015961C930E931497F0922C02E0922B02E8
:10240000E0902502F0902602F70124813581032E09
:10241000000C440B550B06811781D8015B961C926A
:102420001E925A9759961C921E92589757961C9234
:102430001E92569760E079E08DE390E00E946B1F5A
:10244000F9012430310518F0C901039702C081E079
:1024500090E0D8015D969C938E935C971C968C912E
:1024600098EF980F943048F062EF680F643028F0CE
:1024700066EE680F633008F07EC0B9017695679507
:102480006431710518F06351710902C061E070E0B8
:10249000D80157967C936E935697369720F0B901E2
:1024A0006550710902C061E070E0F801718F608FC2
:1024B000B901660F771F260F371F3695279536957A
:1024C00027952D30310518F02C50310902C021E03C
:1024D00030E0D8015B963C932E935A97943058F095
:1024E00092EF980F943038F08A51833008F48DC7FA
:1024F000A0E0B0E08CC7A8E6B0E0E8E6F0E08081BC
:1025000081608C93F801848598EF980F943058F08F
:1025100022EF280F243038F026EE280F233018F051
:1025200020E030E002C02BE630E0D80154963C9326
:102530002E935397943010F49CEF09C08E3071F0B5
:102540008F3071F0803171F0813171F09AEE980F17
:1025500081E001C0880F9A95EAF707C088E005C0BE
:1025600082E003C084E001C081E0F801858B848DA6
:10257000958D0197F1F7D8015A968D919C915B97B3
:10258000892B29F1E091FF01F0910002E017F1079A
:10259000F1F0309739F0A389B4899C9185898095B1
:1025A00089238C93F801868D8E7F868F1092FE0191
:1025B0001092FD01109300020093FF010388F4893B
:1025C000E02D9081D80155968C91892B8083D7017D
:1025D0001E96ED91FC911F97808191819383828358
:1025E00081E08483E0912902F0912A020281138123
:1025F000F801E080F180D7018C918C3008F053C055
:1026000061E089E00E94AE02F7018081E82FF0E0EE
:102610009F01220F331FE20FF31FEF5FFD4F9081E9
:10262000907C99609083D70111961C921197129615
:102630001C926CE00E94341ABCE08B9FB001112404
:1026400040E050E09A01260F371FF901EE0FFF1FFF
:102650002E0F3F1FF901EF5FFD4F908196FD16C0D1
:102660004F5F5F4F4C30510569F781110FC01092D9
:10267000800082E080938100109285001092840097
:10268000B19A80916F00826080936F00D701EC91C6
:10269000F0E0CF01880F991FE80FF91FEF5FFD4FA2
:1026A00080818064808360E070E0F80180819181A6
:1026B0000E94DA0560E070E0D80112968D919C913D
:1026C00013970E949505E0912B02F0912C028481D2
:1026D0009581FC01E55BFF4F48EC50E060E070E065
:1026E0004083518362837383729621E020833E97F7
:1026F00040835183628373833F9620833B9740835B
:102700005183628373833C9620833897408351833F
:102710006283738339962083AC01DC01A056BF4FDE
:10272000BC01F8ECCF2ED12CE12CF12C20E030E0D4
:10273000F901EE59FF4FE60FF71FC082D182E28206
:10274000F3822C5F3F4F2832310591F7685D7F4F50
:102750006A177B0759F7E8ECCE2ED12CE12CF12C2F
:1027600020E030E0F901EE5FFE4FE40FF51FC0827C
:10277000D182E282F3822C5F3F4F2832310591F7FC
:10278000485D5F4F4A175B0759F7FC01EF59FF4F50
:1027900021E0208377971082329723E030E0318365
:1027A0002083E65AFE4F89E090E091838083F8947D
:1027B0008FEA87BD80916E00826080936E0078946E
:1027C0001092300210922F0210922E0210922D02BF
:1027D000E0912902F0912A0282E090E091838083C7
:1027E0000E941805672B682B692B41F40E9418057D
:1027F000623071058105910508F408C10E94180531
:102800006093390270933A0280933B0290933C02AA
:102810000091350210913602209137023091380232
:10282000601771078207930740F460933502709335
:10283000360280933702909338020091350210914E
:10284000360220913702309138026B017C01C01AA8
:10285000D10AE20AF30A970186010A3F1105210510
:10286000310508F4D3C0609335027093360280932B
:1028700037029093380224EF31E040E050E020939B
:10288000F4023093F5024093F6025093F70210924F
:10289000F8021092F9021092FA021092FB02809153
:1028A000EC029091ED02A091EE02B091EF028093C4
:1028B000F0029093F102A093F202B093F3020E940F
:1028C00018056093EC027093ED028093EE029093F2
:1028D000EF020E9418056093E8027093E90280936A
:1028E000EA029093EB020E9418056B017C0160E7FD
:1028F00071E080912803909129030E94F90C2AE04D
:1029000041E050E060E070E080912803909129035D
:102910000E949C0C67E771E0809128039091290345
:102920000E94F90C2AE0B701A6018091280390913A
:1029300029030E949C0C69E771E080912803909123
:1029400029030E94F90C8091EC029091ED02A09174
:10295000EE02B091EF02B701A601481B590B6A0BBA
:102960007B0B2AE080912803909129030E949C0C04
:1029700069E771E080912803909129030E94F90C86
:102980004091EC025091ED026091EE027091EF02E5
:102990008091F0029091F102A091F202B091F302C5
:1029A000481B590B6A0B7B0B2AE0809128039091FE
:1029B00029030E949C0C6BE771E0809128039091A1
:1029C00029030E94F90C0E941805AB01BC012AE002
:1029D00080912803909129030E949C0C6DE771E07F
:1029E00080912803909129030E94E50C65E070E036
:1029F00080E090E00E94A7030E9418056093EC021B
:102A00007093ED028093EE029093EF028091310279
:102A100090913202A0913302B0913402BC01CD01F9
:102A20006F5F7F4F8F4F9F4F6093310270933202E1
:102A3000809333029093340220912F023091300220
:102A40002115310521F02532310539F025C145E246
:102A500050E05093300240932F02009125021091D4
:102A60002602D8012D913D914D915C910E94491F04
:102A7000672B682B692B09F013C1F80186819781B8
:102A8000DC01ED91FC910480F581E02D09954C016C
:102A9000C12CD12C3801B8E06B0E711CC814D904BC
:102AA0000CF048C0F80186819781DC01ED91FC9122
:102AB0000680F781E02D0995B82E89831A82F801E6
:102AC000E484F584FFEFEF1AFF0AB701C3010E9407
:102AD0007B0E882399F0D80118962D913C91199777
:102AE0001C968D919C911D97BE016F5F7F4F820F49
:102AF000931F0E949D1DF801F586E486FBE3BF1637
:102B000009F44BC22FEFC21AD20AC8CF019739F489
:102B1000B8018091290290912A020E94C4060115F1
:102B2000110541F0F801828193810E94221CC801A5
:102B30000E94221C60913102709132028091330216
:102B40009091340222E330E040E050E00E94491FBF
:102B5000672B682B692B09F062C04AE0BE016F5EEB
:102B60007F4F86E490E00E94CB1DBE016F5E7F4FD9
:102B7000CE0101960E94DA0E88E090E00E948D1B43
:102B80008C017C01F2E0EF0EF11C69EB71E0C701F2
:102B90000E94DA0EE1E0F0E0D801ED93FC93BE0173
:102BA0006F5F7F4FC7010E94C30E89819A810E9487
:102BB000221CD8018D919C918230910569F083305F
:102BC0009105D9F0019701F5B80180912902909102
:102BD0002A020E94C40618C0C0902902D0902A027E
:102BE000C7010E94700ED6011296ED91FC911397C9
:102BF000808191810E94DA0507C0B8018091290285
:102C000090912A020E949F060115110541F0F801DA
:102C1000828193810E94221CC8010E94221CE091A3
:102C20002502F09126020684F785E02D82819381AA
:102C3000892B29F580819181938382831482E0918D
:102C40002902F0912A020280F381E02D62E370E014
:102C5000828193810E94C10564E871E086E992E077
:102C60000E94E50CE0912502F09126020684F7858A
:102C7000E02D808191819383828381E08483E09140
:102C80002502F09126020684F785E02D808191814E
:102C90009383828381E084831092300210922F020A
:102CA00080912D0290912E02009721F08936910596
:102CB00039F067C189E690E090932E0280932D024F
:102CC00000912B0210912C0260913102709132021E
:102CD0008091330290913402D8012D913D914D9114
:102CE0005C910E94491F672B682B692B09F04DC12D
:102CF000F80124813581F901EF59FF4F8081882344
:102D000009F424C177978081811120C1F901E85B22
:102D1000FF4F80819181039709F0DDC01901BBE469
:102D20002B0E311C612C712CE65AFE4F2F01D10164
:102D30008D909D90AD90BD901D01B8EC8B169104C7
:102D4000A104B10409F085C2D201ED91FC918F017B
:102D5000075F1F4FC8016AE070E00E94401AE12C33
:102D6000F12CBAE0B69D6001B79DD00C11248E17EE
:102D70009F07A9F0D601A80FB91FAA0FBB1FAA0F62
:102D8000BB1FA20FB31FAE59BF4F4D915D916D9107
:102D90007C91483C51056105710509F425C244E068
:102DA000E416F10408F429C2AAE0A69DC001A79D7B
:102DB000900D1124E80FF91FEE0FFF1FEE0FFF1FFC
:102DC000E20FF31FEE5FFE4F68ECC62ED12CE12C14
:102DD000F12CC082D182E282F382F2018081918162
:102DE000EAE0CE2EC69CF001C79CF00D1124E80F3E
:102DF000F91FEE0FFF1FEE0FFF1FE20FF31FEE593B
:102E0000FF4F80829182A282B3824FEF641A740ACC
:102E100054E06516710409F08ACFFC01EE0FFF1F24
:102E2000EE0FFF1FE20FF31FEE5FFE4F4081518157
:102E30006281738149835A836B837C83FC013A9658
:102E4000EE0FFF1FEE0FFF1FE20FF31FEE5FFE4FAF
:102E500040815181628173814D835E836F83788766
:102E6000FC017496EE0FFF1FEE0FFF1FE20FF31F22
:102E7000EE5FFE4F408151816281738149875A879D
:102E80006B877C87FC017E96EE0FFF1FEE0FFF1F06
:102E90002E0F3F1FF901EE5FFE4F80819181A281CD
:102EA000B3818D879E87AF87B88BC0902902D09061
:102EB0002A02DD8ACC8AD6011296ED91FC911397F5
:102EC0000280F381E02D948185812D913C91223007
:102ED000310509F4D6C1E0912B02F0912C02E48077
:102EE000F580F701EF59FF4F8081882379F1870141
:102EF000065B1F4FF80180818111FECFF701E85B6F
:102F0000FF4F208131812330310581F467014EE587
:102F1000C41A4EEFD40AD6018D919C9101966AE0B5
:102F200070E00E94401AD6018D939C93C9010196CE
:102F300064E070E00E94541A918380838E0D9F1D7F
:102F4000DC01A35ABF4F8C9181116DC0E0912B021F
:102F5000F0912C0284819581FC01E55AFF4F01908C
:102F6000F081E02D22813381232B59F4208131819E
:102F700033832283148210927200FC01E65BFF4FC0
:102F8000108210922E0210922D0280E090E0892B88
:102F900009F426CC0E94000023CCE0902502F0909A
:102FA0002602F8E0EF0EF11C1A8219821C821B82A5
:102FB0001E821D82B701CE0101960E94C30ECE0172
:102FC00001960E94E6068C0189819A810E94221C4A
:102FD00040E050E069EB71E0C7010E94A20ED80109
:102FE0008D919C918230910591F4E0902902F090AE
:102FF0002A02C80102960E94700ED7011296ED9126
:10300000FC911397808191810E94DA0588CD8330ED
:10301000910509F07BCDB8018091290290912A0297
:103020000E949F067CCD81E0D8018C9310927200A3
:1030300080819181FC01EE0FFF1FEE0FFF1FEE0D4F
:10304000FF1DE55BFF4F28EC30E040E050E02083BF
:1030500031834283538322E1289F8001299F100DF1
:1030600011240E0D1F1DD8011A96ED91FC911B978E
:10307000908114968C911497892B80831696ED91EC
:10308000FC911797908114968C91149780958923C1
:1030900080838BE090E00197F1F71696ED91FC911B
:1030A0001797908114968C911497892B808383E2D3
:1030B00090E00197F1F71696ED91FC9117979081AA
:1030C00014968C9114978095892380831A96ED919C
:1030D000FC911B97908114968C9180958923808315
:1030E0005801B8E0AB0EB11CD8011896ED91FC91D7
:1030F000199790816801B5E0CB0ED11CF80185814C
:10310000892309F064C00E948203D8011C962D9186
:103110003C911D972901612C712CB8EA4B0EB6E148
:103120005B1E611C711CDC01CB01840D951DA61D6D
:10313000B71DF80186879787A08BB18B9801225F16
:103140003F4F4901D501ED91FC919081F6018081BD
:10315000892369F40E948203D4014D905D906D90A3
:103160007C90461657066806790660F730C00E94C4
:103170008203D8011C962D913C911D97DC01CB0157
:10318000820F931FA11DB11DF80186879787A08B21
:10319000B18B8DE694E090932802809327021092E1
:1031A00072001092C4001092C3001092C2001092DC
:1031B000C00087E48093C10084E089BB1092BF0007
:1031C0001092BE0095E09093D10080937200F701B9
:1031D000E55AFF4F0190F081E02D8081918193832A
:1031E000828381E08483B2CE5FEFE51AF50A099607
:1031F0006AE070E00E94401ABACD4AE0469D600144
:10320000479DD00C1124EC0DFD1DEE0FFF1FEE0F9E
:10321000FF1FE20FF31FEE5FFE4FC8018E199F09DB
:103220006AE070E00E94401A8C0D9D1D880F991F66
:10323000880F991F820F931FDC01AE59BF4F8D91EC
:103240009D910D90BC91A02D80839183A283B38327
:10325000C4CD5AE0569DF001579DF00D1124D201C6
:103260008D919C91E80FF91FEE0FFF1FEE0FFF1FCE
:10327000E20FF31FEE5FFE4F80829182A282B38243
:10328000ACCD292E382E37FE03C0BFEF2B1A3B0AD8
:1032900035942794FE013196FF8BEE8B00E010E011
:1032A0006101032C000CEE08FF08C88ED98EEA8E4F
:1032B000FB8EAE89BF898D909D90AD90BD90BF8BE8
:1032C000AE8B2114310409F482C0C501B4010E94FF
:1032D0001A1E2B013C01688D798D8A8D9B8D0E9471
:1032E0001C1E6B017C0120E030E0A9010E94831BC1
:1032F000181624F0F7FAF094F7F8F094A701960165
:10330000C301B2010E94E21A6B017C011214130482
:103310000CF04FC00230110508F059C06BE971E0A4
:1033200086E992E00E94F90C2AE0B501A40186E941
:1033300092E00E949C0C66EA71E086E992E00E94AD
:10334000F90CC1010E94180D42E0C701B6010E94AC
:10335000580D60EB71E086E992E00E94F90C42E0C2
:1033600060E070E080E09FE30E94580D64E671E049
:1033700086E992E00E94870C64E671E086E992E0BB
:103380000E94870C20E030E040E05FE3C701B60117
:103390000E94151E1816DCF065EB71E086E992E0DC
:1033A0000E94F90C6AEB71E086E992E00E94E50C5C
:1033B00015C0C8010297029750F420E030E040E0C9
:1033C0005FE3C701B6010E94151E18163CF40F5F9B
:1033D0001F4F0430110509F06CCF7DCDAC89BD893C
:1033E0001296ED91FC91139762E370E082819381D4
:1033F0000E94C10581E0EC89FD89848388EBC82E99
:103400008BE0D82ED682C58266CDA8E6B0E08330A8
:1034100008F473C8E0E0F0E072C8E6E9F2E0138275
:10342000128288EE93E0A0E0B0E084839583A683C7
:10343000B78381E391E0918380838FEF9FEF95873E
:103440008487E6EEF2E016821782108611861286D5
:1034500013861486158616861786108A118A128A94
:10346000138A148A158A0895991B79E004C0991F5C
:10347000961708F0961B881F7A95C9F780950895CE
:10348000AA1BBB1B51E107C0AA1FBB1FA617B7078A
:1034900010F0A61BB70B881F991F5A95A9F78095A6
:1034A0009095BC01CD01089597FB072E16F400946A
:1034B00007D077FD09D00E94401A07FC05D03EF4E2
:1034C000909581959F4F0895709561957F4F0895D0
:1034D000EE0FFF1F0590F491E02D09940E94D41F78
:1034E000B7FF0895821B930B08955058BB27AA2756
:1034F0000E948D1A0C94FF1E0E94F11E38F00E944B
:10350000F81E20F039F49F3F19F426F40C94EE1EB7
:103510000EF4E095E7FB0C94E81EE92F0E94101FC3
:1035200058F3BA17620773078407950720F079F4F8
:10353000A6F50C94321F0EF4E0950B2EBA2FA02D99
:103540000B01B90190010C01CA01A0011124FF2750
:10355000591B99F0593F50F4503E68F11A16F0404B
:10356000A22F232F342F4427585FF3CF469537954A
:103570002795A795F0405395C9F77EF41F16BA0B0F
:10358000620B730B840BBAF09150A1F0FF0FBB1FBD
:10359000661F771F881FC2F70EC0BA0F621F731F06
:1035A000841F48F4879577956795B795F7959E3F63
:1035B00008F0B0CF9395880F08F09927EE0F9795F4
:1035C000879508950E94F61A0C94FF1E0E94F81E1B
:1035D00058F00E94F11E40F029F45F3F29F00C944E
:1035E000E81E51110C94331F0C94EE1E0E94101F04
:1035F00068F39923B1F3552391F3951B550BBB2722
:10360000AA2762177307840738F09F5F5F4F220F66
:10361000331F441FAA1FA9F335D00E2E3AF0E0E85D
:1036200032D091505040E695001CCAF72BD0FE2FA7
:1036300029D0660F771F881FBB1F2617370748073B
:10364000AB07B0E809F0BB0B802DBF01FF279358F3
:103650005F4F3AF09E3F510578F00C94E81E0C94B1
:10366000331F5F3FE4F3983ED4F3869577956795D3
:10367000B795F7959F5FC9F7880F911D9695879528
:1036800097F90895E1E0660F771F881FBB1F621747
:1036900073078407BA0720F0621B730B840BBA0B05
:1036A000EE1F88F7E09508950E94181F88F09F5735
:1036B00098F0B92F9927B751B0F0E1F0660F771F56
:1036C000881F991F1AF0BA95C9F714C0B13091F04C
:1036D0000E94321FB1E008950C94321F672F782F9B
:1036E0008827B85F39F0B93FCCF386957795679511
:1036F000B395D9F73EF490958095709561957F4F7D
:103700008F4F9F4F08950E94571E08F48FEF089522
:103710000E94571E880B990B0895CF93DF93823038
:10372000910510F482E090E0E0913C03F0913D03BC
:1037300020E030E0C0E0D0E0309711F140815181CD
:1037400048175907C0F04817590761F482819381DF
:10375000209719F09B838A832BC090933D0380931D
:103760003C0326C02115310519F04217530718F400
:103770009A01BE01DF01EF010280F381E02DDCCF71
:103780002115310509F1281B390B2430310590F43E
:1037900012968D919C9113976115710521F0FB0193
:1037A0009383828304C090933D0380933C03FD0187
:1037B000329644C0FD01E20FF31F81939193225092
:1037C00031092D933C933AC020913A0330913B0349
:1037D000232B41F420910E0130910F0130933B03D4
:1037E00020933A0320910C0130910D0121153105F0
:1037F00041F42DB73EB74091100150911101241BA7
:10380000350BE0913A03F0913B03E217F307A0F484
:103810002E1B3F0B2817390778F0AC014E5F5F4F26
:103820002417350748F04E0F5F1F50933B0340931A
:103830003A038193919302C0E0E0F0E0CF01DF9181
:10384000CF9108950F931F93CF93DF93009709F4BF
:103850008CC0FC0132971382128200913C031091BC
:103860003D030115110581F420813181820F931FE1
:1038700020913A0330913B032817390779F5F093EB
:103880003B03E0933A0371C0D80140E050E0AE172B
:10389000BF0750F412962D913C911397AD0121155D
:1038A000310509F1D901F3CF9D01DA013383228378
:1038B00060817181860F971F8217930769F4EC016D
:1038C00028813981260F371F2E5F3F4F3183208398
:1038D0008A819B8193838283452B29F4F0933D0356
:1038E000E0933C0342C01396FC93EE931297ED01D4
:1038F000499159919E01240F351FE217F30771F486
:1039000080819181840F951F029611969C938E93CE
:103910008281938113969C938E931297E0E0F0E05E
:10392000D80112968D919C911397009719F0F80188
:103930008C01F6CF8D919C9198012E5F3F4F820FA5
:10394000931F20913A0330913B032817390769F4FC
:10395000309729F410923D0310923C0302C0138269
:10396000128210933B0300933A03DF91CF911F9192
:103970000F910895A0E0B0E0E0ECFCE10C94A11FF1
:10398000EC01009721F4CB010E948D1BB8C0FC0113
:10399000E60FF71F9C0122503109E217F30708F4E4
:1039A000ACC0D9010D911C91119706171707B0F003
:1039B0000530110508F49FC0C801049786179707C2
:1039C00008F499C002501109061B170B01931193BB
:1039D0006D937C93CF010E94221C8DC05B01A01AC5
:1039E000B10A4C01800E911EA0913C03B0913D03A1
:1039F00040E050E0E12CF12C109709F44AC0A815E2
:103A0000B905D1F56D907C901197630182E0C80EE5
:103A1000D11CCA14DB0480F1A3014A195B096A01B5
:103A200082E0C80ED11C1296BC9012971396AC91EE
:103A3000B5E0CB16D10440F0B282A383518340831A
:103A4000D9016D937C930AC00E5F1F4FC301800F95
:103A5000911FF90191838083EB2DFA2FE114F1047A
:103A600031F0D7011396FC93EE93129744C0F09374
:103A70003D03E0933C033FC08D919C911197481703
:103A8000590708F4AC017D0112960D90BC91A02D50
:103A9000B3CF80913A0390913B0388159905E1F4E7
:103AA00046175707C8F480910C0190910D010097BB
:103AB00041F48DB79EB74091100150911101841BC4
:103AC000950BE817F907C8F4F0933B03E0933A032A
:103AD000F901718360830FC0CB010E948D1B7C01B3
:103AE000009759F0A801BE010E94891DCE010E94D5
:103AF000221CC70104C0CE0102C080E090E0CDB717
:103B0000DEB7EEE00C94BD1F81E090E0F8940C94D9
:103B1000E31FFB01DC0102C001900D9241505040B7
:103B2000D8F70895FC018191861721F08823D9F7F1
:103B3000992708953197CF010895FB01DC01019089
:103B40000D920020E1F708951F93FC019927882723
:103B5000BC01E89411911032E9F3193010F01E30D5
:103B6000C8F31B3251F01D3249F4689406C00E941C
:103B7000D61D610F711D811D911D119110531A30B9
:103B8000B0F33EF490958095709561957F4F8F4F7F
:103B90009F4F1F910895BB274A3031F4992322F497
:103BA000BDE2909581959F4F0C94EC1D592F482FA5
:103BB000372F262F660F771F881F991F660F771FD5
:103BC000881F991F620F731F841F951F660F771F31
:103BD000881F991F0895BB27FB015527AA27880F27
:103BE000991FAA1FA41710F0A41B83955051B9F771
:103BF000A05DAA3308F0A95DA193009779F7B111F0
:103C0000B1931192CB010C94051EDC01FC01672FCE
:103C100071917723E1F7329704C07C916D937083A3
:103C20006291AE17BF07C8F308950E94571E08F4AB
:103C300081E00895E89409C097FB3EF49095809543
:103C4000709561957F4F8F4F9F4F9923A9F0F92F62
:103C500096E9BB279395F695879577956795B795E0
:103C6000F111F8CFFAF4BB0F11F460FF1BC06F5FC6
:103C70007F4F8F4F9F4F16C0882311F096E911C0D8
:103C8000772321F09EE8872F762F05C0662371F0F9
:103C900096E8862F70E060E02AF09A95660F771F0D
:103CA000881FDAF7880F9695879597F90895990FE9
:103CB0000008550FAA0BE0E8FEEF16161706E807F6
:103CC000F907C0F012161306E407F50798F0621B17
:103CD000730B840B950B39F40A2661F0232B242BEC
:103CE000252B21F408950A2609F4A140A6958FEF0B
:103CF000811D811D08950E948E1E0C94FF1E0E943E
:103D0000F11E38F00E94F81E20F0952311F00C945B
:103D1000E81E0C94EE1E11240C94331F0E94101FF9
:103D200070F3959FC1F3950F50E0551F629FF0010E
:103D3000729FBB27F00DB11D639FAA27F00DB11D27
:103D4000AA1F649F6627B00DA11D661F829F2227B0
:103D5000B00DA11D621F739FB00DA11D621F839F37
:103D6000A00D611D221F749F3327A00D611D231F0D
:103D7000849F600D211D822F762F6A2F11249F575B
:103D800050409AF0F1F088234AF0EE0FFF1FBB1F5E
:103D9000661F771F881F91505040A9F79E3F51051D
:103DA00080F00C94E81E0C94331F5F3FE4F3983EC0
:103DB000D4F3869577956795B795F795E7959F5FC7
:103DC000C1F7FE2B880F911D9695879597F9089559
:103DD00097F99F6780E870E060E008959FEF80ECBE
:103DE000089500240A941616170618060906089561
:103DF00000240A9412161306140605060895092EC7
:103E00000394000C11F4882352F0BB0F40F4BF2B35
:103E100011F460FF04C06F5F7F4F8F4F9F4F089575
:103E200057FD9058440F551F59F05F3F71F047956B
:103E3000880F97FB991F61F09F3F79F08795089550
:103E4000121613061406551FF2CF4695F1DF08C06F
:103E5000161617061806991FF1CF8695710561058C
:103E600008940895E894BB2766277727CB0197F934
:103E70000895DB018F939F930E948A1FBF91AF919A
:103E8000A29F800D911DA39F900DB29F900D1124B4
:103E90000895A1E21A2EAA1BBB1BFD010DC0AA1F8B
:103EA000BB1FEE1FFF1FA217B307E407F50720F0A3
:103EB000A21BB30BE40BF50B661F771F881F991F1E
:103EC0001A9469F760957095809590959B01AC0167
:103ED000BD01CF010895052E97FB1EF400940E94AA
:103EE000821F57FD07D00E94491F07FC03D04EF4E4
:103EF0000C94821F50954095309521953F4F4F4F20
:103F00005F4F089590958095709561957F4F8F4F85
:103F10009F4F08950E94D41FA59F900DB49F900DB0
:103F2000A49F800D911D11240895B7FF0C948A1F42
:103F30000E948A1F821B930B08952F923F924F92EB
:103F40005F926F927F928F929F92AF92BF92CF9229
:103F5000DF92EF92FF920F931F93CF93DF93CDB732
:103F6000DEB7CA1BDB0B0FB6F894DEBF0FBECDBFAA
:103F700009942A88398848885F846E847D848C847B
:103F80009B84AA84B984C884DF80EE80FD800C8184
:103F90001B81AA81B981CE0FD11D0FB6F894DEBF67
:103FA0000FBECDBFED010895A29FB001B39FC00128
:103FB000A39F700D811D1124911DB29F700D811D55
:0A3FC0001124911D0895F894FFCF1D
:103FCA00FFFFFFFF00E100000000000000003E03C9
:103FDA00800001000000000000007A01ED09CE0116
:103FEA00E6016101790100C1808100000000000042
:103FFA00002601E10347012B0207023C01000000F1
:10400A00004902ED09490249024902490200000039
:10401A00004902ED09564D4450565F317C315F56D6
:10402A004D4450560D0A0073657475702E2E2E007D
:10403A00564D4450455F003A323A007C005F564D77
:10404A0044504500636F6D6D756E696361746F727C
:10405A002074696D6564206F757400646973746196
:10406A006E63653A2000090973706565643A200039
:10407A00203C3D2000092D3E090043524954494342
:10408A00414C2121212121212121212121212121CB
:10409A00006379636C65506572696F642073657437
:1040AA0020746F20004443206D6F746F723A2000B1
:0C40BA006E616E00696E66006F76660035
:00000001FF
