:100000000C9471000C9499000C9499000C94990034
:100010000C9499000C9499000C9499000C948D0503
:100020000C9499000C9499000C9499000C949900EC
:100030000C9499000C9499000C9499000C949900DC
:100040000C9443050C9499000C94EC030C94C60397
:100050000C9499000C9499000C9499000C949900BC
:100060000C9499000C94990005A84CCDB2D44EB9CB
:100070003836A9020C50B9918688083CA6AAAA2A4B
:10008000BE000000803F00000000240027002A007E
:1000900000000000230026002900000000002500C9
:1000A00028002B00040404040404040402020202D5
:1000B000020203030303030301020408102040802B
:1000C00001020408102001020408102000000008AA
:1000D000000201000003040700000000000000000F
:1000E0001A1811241FBECFEFD8E0DEBFCDBF11E03C
:1000F000A0E0B1E0EAE8F1E402C005900D92A03979
:10010000B107D9F728E0A0E9B1E001C01D92A037FE
:10011000B207E1F710E0C1E7D0E004C02197FE018B
:100120000E94B820C037D107C9F70E94910A0C94E9
:10013000C3200C940000CF92DF92EF92FF920F93B6
:100140001F93CF93DF9377FF21C06A017B01EC01FE
:10015000E881F9810190F081E02D6DE209958C0133
:1001600044275527BA014C195D096E097F092AE019
:10017000CE010E94300A800F911FDF91CF911F9115
:100180000F91FF90EF90DF90CF9008952AE0DF91DC
:10019000CF911F910F91FF90EF90DF90CF900C9433
:1001A000300ACF92DF92EF92FF922FE832EC45E9CE
:1001B0005FE30E94731D20E030E044EB52E40E94B4
:1001C0006E1E0E94511F663971053CF4DB016E31D1
:1001D00071052CF4AEE1B0E002C0A6E9B0E0A53BA9
:1001E000B10514F0A4EBB0E0A093ED02C090EE02D4
:1001F0002091EF0230E02C193109D12CE12CF12CA7
:10020000FE2CED2CDC2CCC24A901330F660B770BD4
:100210002227342F452F562F0E949C2024EB30E0BC
:1002200040E050E00E947D20C701B601620F731FBD
:10023000841F951F28E030E040E050E00E947D20C0
:100240008091EC02893029F4309389002093880052
:1002500004C030938B0020938A00FF90EF90DF90D2
:10026000CF900895E8E9F1E0A089B18982E08C930C
:10027000A485B5851C92A685B7858FEC8C93108ECE
:10028000A489B58986E08C93A289B3898C91806119
:100290008C93A289B3898C9188608C93A289B3894D
:1002A0008C9180688C930288F389E02D80818F7D0A
:1002B000808308958F929F92AF92BF92CF92DF92E8
:1002C000EF92FF926B017C010E9437054B015C01AC
:1002D000C60ED71EE81EF91E0E943705681579055F
:1002E0008A059B0528F0C616D706E806F906A0F78A
:1002F000FF90EF90DF90CF90BF90AF909F908F9046
:1003000008950C945A01CF93DF9300D0CDB7DEB798
:1003100020916C0830916D08CE01019621153105B0
:1003200019F48057984018C0AC01421B530BE09160
:100330006E08F0916F0880E090E0309759F09C01D2
:100340002E5F3F4F80819181820F931F0280F38146
:10035000E02DF3CF840F951F9A83898349815A81B9
:10036000052E000C660B770B809177029091780236
:100370000E949B000F900F90DF91CF910895CF9333
:1003800090914B02992309F458C0C82F80917702AD
:1003900090917802DC01ED91FC910480F581E02DD3
:1003A0000995811114C085E649C08091770290912A
:1003B0007802DC01ED91FC910680F781E02D099532
:1003C0008836D9F190F08137C1F18637B9F1809143
:1003D000770290917802DC01ED91FC910480F58127
:1003E000E02D09958111E1CFDECF883521F18336EB
:1003F00071F76FE471E080917702909178020E942A
:100400008F0A4C2F50E060E070E02AE08091770284
:10041000909178020E94300A66E571E0809177023F
:10042000909178020E948F0A62E370E080E090E091
:100430000E94810102C010924B0283E6CF91089581
:10044000CF92DF92EF92FF920F931F93CF93DF93A0
:100450008B010F5A174FF801C081D1E0CD2701F170
:100460009B01FC0189E0829FB001839F700D1124E4
:10047000DB01A350B84FC080D180E280F3809A9610
:10048000CD92DD92ED92FC929D9784819E968C9305
:10049000645D774FCF0105960E946F07F801D08306
:1004A0008C2FDF91CF911F910F91FF90EF90DF90F4
:1004B000CF900895FC0120816181862F90E0A0E01B
:1004C000B0E0DC0199278827B22B2381822B22817F
:1004D000BC01CD01722B0895BF92CF92DF92EF92B3
:1004E000FF920F931F93CF93DF93B82E0E9437058F
:1004F0006B017C0105E312E0C7E7D2E06FE571E034
:10050000888199810E948F0A4B2D50E060E070E055
:100510002AE0888199810E94300A66E671E088812C
:1005200099810E948F0A2AE0B701A60188819981EA
:100530000E94300A68E671E0888199810E948F0AE2
:10054000F80186819781A085B185B701A601481B76
:10055000590B6A0B7B0B2AE0888199810E94300A33
:1005600068E671E0888199810E948F0AF8014681CE
:1005700057816085718582859385A485B585481BE3
:10058000590B6A0B7B0B2AE088819981DF91CF910F
:100590001F910F91FF90EF90DF90CF90BF900C9440
:1005A000300AFC01918D828D981761F0828DDF01F8
:1005B000A80FB11D5D968C91928D9F5F9F73928F56
:1005C00090E008958FEF9FEF0895FC01918D828D4B
:1005D000981731F0828DE80FF11D858D90E0089518
:1005E0008FEF9FEF0895FC01918D228D892F90E070
:1005F000805C9F4F821B91098F739927089588E92A
:1006000091E00E94F30221E0892B09F420E0822F7F
:100610000895FC01848DDF01A80FB11DA35ABF4FBF
:100620002C91848D90E001968F739927848FA689F1
:10063000B7892C93A089B1898C9180648C93938D18
:10064000848D981306C00288F389E02D80818F7D08
:1006500080830895EF92FF920F931F93CF93DF93C0
:10066000EC0181E0888F9B8D8C8D981305C0E88903
:10067000F989808185FD24C0F62E0B8D10E00F5F77
:100680001F4F0F731127E02E8C8DE8120CC00FB690
:1006900007FCFACFE889F989808185FFF5CFCE0183
:1006A0000E940903F1CF8B8DFE01E80FF11DE35A83
:1006B000FF4FF0820B8FEA89FB898081806207C03F
:1006C000EE89FF896083E889F9898081806480836D
:1006D00081E090E0DF91CF911F910F91FF90EF901B
:1006E0000895CF93DF93EC01888D8823C9F0EA89C0
:1006F000FB89808185FD05C0A889B9898C9186FD1B
:100700000FC00FB607FCF5CF808185FFF2CFA88917
:10071000B9898C9185FFEDCFCE010E940903E7CF07
:10072000DF91CF91089580E090E0892B29F00E941D
:10073000FF0281110C9400000895833081F028F4A9
:10074000813099F08230A1F008958730A9F0883087
:10075000B9F08430D1F4809180008F7D03C0809106
:1007600080008F7780938000089584B58F7702C0D2
:1007700084B58F7D84BD08958091B0008F7703C0CC
:100780008091B0008F7D8093B00008951F920F92EA
:100790000FB60F9211242F933F934F935F936F9354
:1007A0007F938F939F93AF93BF93EF93FF9388E9CA
:1007B00091E00E940903FF91EF91BF91AF919F914A
:1007C0008F917F916F915F914F913F912F910F90FA
:1007D0000FBE0F901F9018951F920F920FB60F9299
:1007E00011242F938F939F93EF93FF93E091A80190
:1007F000F091A9018081E091AE01F091AF0182FDFD
:1008000012C090818091B1018F5F8F732091B201EE
:10081000821751F0E091B101F0E0E856FE4F958F5C
:100820008093B10101C08081FF91EF919F918F91E1
:100830002F910F900FBE0F901F901895CF93DF93BD
:10084000282F30E0F901E453FF4F8491F901E85477
:10085000FF4FD491F901EC55FF4FC491CC2391F097
:1008600081110E949D03EC2FF0E0EE0FFF1FE05777
:10087000FF4FA591B491EC91ED2381E090E021F43C
:1008800080E002C080E090E0DF91CF9108951F9357
:10089000CF93DF93282F30E0F901E453FF4F849189
:1008A000F901E854FF4FD491F901EC55FF4FC49181
:1008B000CC23C9F0162F81110E949D03EC2FF0E08C
:1008C000EE0FFF1FE656FF4FA591B4918FB7F89436
:1008D000111105C09C91ED2FE095E92302C0EC9128
:1008E000ED2BEC938FBFDF91CF911F910895CF93A4
:1008F000DF9390E0FC01E854FF4F2491FC01EC559C
:10090000FF4F8491882361F190E0880F991FFC01CB
:10091000EA57FF4FC591D491FC01E656FF4FA591D0
:10092000B491611109C09FB7F89488812095822302
:100930008883EC912E230BC0623061F49FB7F8944A
:100940003881822F809583238883EC912E2B2C93E2
:100950009FBF06C08FB7F894E8812E2B28838FBFE6
:10096000DF91CF9108951F93CF93DF93182FEB0161
:1009700061E00E947704209711F460E004C0CF3F4B
:10098000D10539F461E0812FDF91CF911F910C9453
:100990004704E12FF0E0E453FF4FE491E330F9F036
:1009A00048F4E130B9F0E230A1F584B5806284BD4D
:1009B000C8BD34C0E730E9F0E83019F1E43049F55A
:1009C00080918000806280938000D0938B00C093E0
:1009D0008A0024C084B5806884BDC7BD1FC08091D3
:1009E0008000806880938000D0938900C093880045
:1009F00015C08091B00080688093B000C093B300B0
:100A00000DC08091B00080628093B000C093B400AC
:100A100005C0C038D1050CF0B5CFAFCFDF91CF9175
:100A20001F9108953FB7F8948091680890916908E4
:100A3000A0916A08B0916B0826B5A89B05C02F3F0E
:100A400019F00196A11DB11D3FBFBA2FA92F982FF4
:100A50008827820F911DA11DB11DBC01CD0142E06F
:100A6000660F771F881F991F4A95D1F708952FB7F2
:100A7000F89460916408709165088091660890917F
:100A800067082FBF08951F920F920FB60F9211247F
:100A90002F933F938F939F93AF93BF93809164085D
:100AA00090916508A0916608B0916708309163083D
:100AB00023E0230F2D3720F40196A11DB11D05C0A1
:100AC00026E8230F0296A11DB11D20936308809391
:100AD000640890936508A0936608B09367088091B6
:100AE000680890916908A0916A08B0916B08019616
:100AF000A11DB11D8093680890936908A0936A08AE
:100B0000B0936B08BF91AF919F918F913F912F91BF
:100B10000F900FBE0F901F9018951F920F920FB657
:100B20000F9211242F933F934F935F936F937F9373
:100B30008F939F93AF93BF93EF93FF93E0919001B7
:100B4000F09191010995FF91EF91BF91AF919F9124
:100B50008F917F916F915F914F913F912F910F9066
:100B60000FBE0F901F901895E0E7F0E080818D7F19
:100B700080830895EF92FF920F931F93CF93DF939B
:100B80007C018B0120E030E040E053E4FC01608117
:100B90007181828193810E94731D20E030E048E4DE
:100BA00053E40E94DF1E0E94511FEB016138FFEFEA
:100BB0007F0734F06F3771052CF0CFE7D0E002C02B
:100BC000C0E8DFEF20E030E040E053E4F70164816B
:100BD0007581868197810E94731D20E030E048E492
:100BE00053E40E94DF1E0E94511F6138FFEF7F0710
:100BF00034F06F3771052CF06FE770E002C060E8E9
:100C00007FEFF801C0836183DF91CF911F910F9136
:100C1000FF90EF90089540E050E02830310591F4C6
:100C20004032510579F0FA01E657FD4F708161813C
:100C300093819823E281E91302C0272F362F4C5F5E
:100C40005F4FEBCFC9010895BF92CF92DF92EF9231
:100C5000FF920F931F93CF93DF937C01062FC42F36
:100C6000D22F6EE671E088E991E00E948F0A402F52
:100C700050E060E070E088E991E00E949B0060E74E
:100C800071E088E991E00E948F0ACC2ED12C4C2F84
:100C900050E060E070E088E991E00E949B0063E72B
:100CA00071E088E991E00E948F0A4D2F50E060E0EA
:100CB00070E088E991E00E949B0088E991E00E9441
:100CC000790A802F8370B82E6EE771E088E991E091
:100CD0000E948F0A0695069510E08CE08C9DD0014D
:100CE0008D9DB00D1124A00FB11FAE0DBF1DCC9175
:100CF000C7FD03C06CE671E002C06AE671E088E9F6
:100D000091E00E948F0AC6FD03C06CE671E002C04C
:100D10006AE671E088E991E00E948F0AC5FD03C090
:100D20006CE671E002C06AE671E088E991E00E9439
:100D30008F0AC4FD03C06CE671E002C06AE671E090
:100D400088E991E00E948F0AC3FD03C06CE671E060
:100D500002C06AE671E088E991E00E948F0AC2FD54
:100D600003C06CE671E002C06AE671E088E991E0D8
:100D70000E948F0AC1FD03C06CE671E002C06AE602
:100D800071E088E991E00E948F0AC0FD03C06CE623
:100D900071E002C06AE671E088E991E00E947D0A94
:100DA0008B2D90E0FC01E45EFE4FC081C0952CE0ED
:100DB0002C9DF0012D9DF00D11240E0F1F1FF7012A
:100DC000E00FF11F3081C3232D2F880F991F01C021
:100DD000220F8A95EAF7C22BC08367E871E088E9A1
:100DE00091E00E948F0AC7FD03C06CE671E002C06B
:100DF0006AE671E088E991E00E948F0AC6FD03C0AF
:100E00006CE671E002C06AE671E088E991E00E9458
:100E10008F0AC5FD03C06CE671E002C06AE671E0AE
:100E200088E991E00E948F0AC4FD03C06CE671E07E
:100E300002C06AE671E088E991E00E948F0AC3FD72
:100E400003C06CE671E002C06AE671E088E991E0F7
:100E50000E948F0AC2FD03C06CE671E002C06AE620
:100E600071E088E991E00E948F0AC1FD03C06CE641
:100E700071E002C06AE671E088E991E00E948F0AA1
:100E8000C0FD03C06CE671E002C06AE671E088E96B
:100E900091E00E947D0A88E991E0DF91CF911F9156
:100EA0000F91FF90EF90DF90CF90BF900C94790A54
:100EB000262F237030E0D901A45EBE4F669566955B
:100EC000FC01E60FF11D9C918081892390E0220FA7
:100ED000331F02C0959587952A95E2F70895FB0187
:100EE0009C012C5F3F4FDC014D91CD014193A21736
:100EF000B307C9F70895CF92DF92EF92FF920F9355
:100F00001F93CF93DF93FC0120853185232BA9F01C
:100F1000EC010E943705C880D980EA80FB800C81F3
:100F20001D812E813F81C00ED11EE21EF31E21E0E5
:100F30006C157D058E059F0508F420E0822FDF915A
:100F4000CF911F910F91FF90EF90DF90CF90089578
:100F50008F929F92AF92BF92CF92DF92EF92FF92C9
:100F60000F931F93CF93DF930E94120500917E078A
:100F700010917F072091800730918107061717078E
:100F80002807390718F40E94B4054CC0E09178078F
:100F9000F0917907908180917507892309F042C00B
:100FA0000E94B4050E94120520917C0730917D07B4
:100FB0006901E12CF12C00917E0710917F072091AF
:100FC00080073091810746015701801A910AA20AD1
:100FD000B30A950184010D50110921093109600FEF
:100FE000711F821F931F6093700770937107809326
:100FF00072079093730720918207309183074CE129
:10100000429FE001439FD00D1124C65FD94F29E3D1
:1010100030E040E050E00E94311E398F288F10925E
:10102000840726C083E997E00E947B07882301F1AB
:1010300080918207909183072CE1289FF001299FDE
:10104000F00D1124E65FF94F88EC90E0918F808FCE
:1010500010928407DF91CF911F910F91FF90EF9035
:10106000DF90CF90BF90AF909F908F900C94B4057D
:10107000DF91CF911F910F91FF90EF90DF90CF9074
:10108000BF90AF909F908F900895CF93DF93EC0126
:101090000E9437056C837D838E839F8381E090E07F
:1010A00099878887DF91CF910895CF92DF92EF9251
:1010B000FF920F931F93CF93DF936C017A018B0103
:1010C000C0E0D0E0CE15DF0589F0D8016D918D012B
:1010D000D601ED91FC910190F081E02DC6010995BA
:1010E000892B11F47E0102C02196ECCFC701DF915C
:1010F000CF911F910F91FF90EF90DF90CF900895C7
:101100000E94BE206115710579F0FB01019000205D
:10111000E9F73197AF01461B570BDC01ED91FC91CC
:101120000280F381E02D099480E090E0089591E041
:10113000681708F490E0892F08958F929F92AF92DC
:10114000BF92CF92DF92EF92FF92CF93DF93FC0199
:10115000DB01F0806F2D70E0CC916115710509F411
:1011600053C01196DC91CC2309F459C0618170E021
:1011700080E090E00E94141D4B015C016F2D70E037
:1011800080E090E00E94121D9B01AC01C501B401FA
:101190000E94DF1E6B017C016D2F70E080E090E00B
:1011A0000E94141D4B015C016C2F70E080E090E008
:1011B0000E94121D9B01AC01C501B4010E94DF1EFB
:1011C0009B01AC01C701B6010E946D1E6B017C0141
:1011D00020E030E0A9010E94C61F181694F0C1E07B
:1011E000D0E020E030E0A901C701B6010E940D1D4A
:1011F00087FD02C0C0E0D0E0882799278C1B9D0B9B
:101200001AC081E090E017C08181882319F06C2F0B
:1012100070E007C06C2F70E080E090E009C0D11151
:1012200003C0719561957109072E000C880B990B0D
:101230000E94141DCBCFDF91CF91FF90EF90DF90F4
:10124000CF90BF90AF909F908F9008954F925F92F4
:101250006F927F928F929F92AF92BF92CF92DF92C6
:10126000EF92FF920F931F93CF93DF93CDB7DEB72B
:1012700028970FB6F894DEBF0FBECDBF8C01DB01FF
:101280008D909D90AD90BC9080912A0390912B03FE
:10129000A0912C03B0912D0389839A83AB83BC83E7
:1012A000DB0114968D919D910D90BC91A02D8D83A5
:1012B0009E83AF83B88740902603509027036090A9
:1012C00028037090290329813A814B815C81C501F3
:1012D000B4010E94731D6B017C01A30192016D8119
:1012E0007E818F8198850E94731D9B01AC01C7018F
:1012F000B6010E946E1E20911E0330911F03409183
:101300002003509121030E946E1E6B017C01A301FA
:101310009201C501B4010E94731D4B015C0129813A
:101320003A814B815C816D817E818F8198850E949D
:10133000731D9B01AC01C501B4010E946D1E20917B
:101340001A0330911B0340911C0350911D030E940E
:101350006E1E4B015C0120E030E0A901C701B6011F
:101360000E94C61F20E030E040E850E418162CF43C
:10137000C701B6010E946E1E04C0C701B6010E94DB
:101380006D1E20E030E040E05EE30E94731D0E948D
:10139000511FF62E20E030E0A901C501B4010E94E2
:1013A000C61F20E030E040E850E418162CF4C501D8
:1013B000B4010E946E1E04C0C501B4010E946D1EDE
:1013C00020E030E040E05EE30E94731D0E94511F68
:1013D000F8016083F182C80128960FB6F894DEBF49
:1013E0000FBECDBFDF91CF911F910F91FF90EF9076
:1013F000DF90CF90BF90AF909F908F907F906F9035
:101400005F904F9008951F93CF93DF9382302FEF1B
:10141000920734F08F3F910534F0CFEFD0E004C055
:10142000C1E0DFEF01C0EC011D2F1095111F112746
:10143000111F11F0BE0102C060E070E085E00E9463
:10144000B304111105C0662777276C1B7D0B02C002
:1014500060E070E086E0DF91CF911F910C94B304BF
:101460004F925F926F927F92EF92FF920F931F9332
:10147000CF93DF93CDB7DEB7A1970FB6F894DEBF59
:101480000FBECDBF7C01FA01CB0119A2223008F4B6
:101490002AE08E010F5D1F4F422E512C612C712CC2
:1014A000BF01A30192010E94311EF901CA0101503E
:1014B00011096A3014F4605D01C0695CD8016C9355
:1014C000232B242B252B61F7B801C7010E9482082A
:1014D000A1960FB6F894DEBF0FBECDBFDF91CF91BE
:1014E0001F910F91FF90EF907F906F905F904F90C2
:1014F00008956CE571E00C9482080F931F93CF93CD
:10150000DF93EC010E9482088C01CE010E94790ACF
:10151000800F911FDF91CF911F910F9108950C942F
:101520008208CF93DF93CDB7DEB7C354D1090FB68E
:10153000F894DEBF0FBECDBF789484B5826084BDC1
:1015400084B5816084BD85B5826085BD85B58160C7
:1015500085BD80916E00816080936E001092810045
:101560008091810082608093810080918100816000
:1015700080938100809180008160809380008091C1
:10158000B10084608093B1008091B000816080934D
:10159000B00080917A00846080937A0080917A0014
:1015A000826080937A0080917A00816080937A00D3
:1015B00080917A00806880937A001092C100109226
:1015C000790210927A0210927B0210927C021092A1
:1015D0003702109238021092390210923A0268EBE8
:1015E0007BE080E090E00E94810188E991E09093A7
:1015F0007802809377020E94320160E271E080916C
:101600007702909178020E948F0A6AE070E080E091
:1016100090E00E94810181E080934B0262E371E0DF
:1016200080917702909178020E948F0A69E371E0BD
:1016300080917702909178020E948F0A69E371E0AD
:1016400080917702909178020E948F0A69E371E09D
:1016500080917702909178020E948F0A0E94830104
:1016600069E371E080917702909178020E948F0A7D
:101670006BE371E080917702909178020E948F0A6B
:101680006AE070E080E090E00E94810110924D08D5
:101690001092510810924E081092520810924F0862
:1016A0001092530810925008109254080E94320170
:1016B00010921D0810921C0861E088E00E947704D7
:1016C00061E087E00E94770461E08BE00E9477048C
:1016D00061E08AE00E947704E2E2F6E088EC90E0C4
:1016E0009587848791838083938382839583848382
:1016F0009783868391878087938782877C9627E06C
:10170000E237F20769F781E080938507109284073A
:101710008BE090E0909383078093820784E090E0D1
:1017200090938707809386071092910760E082E08C
:101730000E94770460E084E00E94770460E083E028
:101740000E94770460E08EE00E94770460E08FE002
:101750000E94770460E080E10E94770460E081E10C
:101760000E94770460E082E10E94770461E083E1F7
:101770000E9477040E94370560930006709301066B
:1017800080930206909303061092050610920406B9
:10179000109206061092070610920806109209068B
:1017A00061E085E00E94770461E086E00E947704B2
:1017B00089E08093EC028FEF8093ED0260E089E096
:1017C0000E94470461E08091EC020E9477048091BE
:1017D0009301811122C08091920181111EC02FB707
:1017E000F89482E0809380008AE18093810088EB06
:1017F0009BE0909389008093880090938B00809366
:101800008A0080E49CE99093870080938600809111
:101810006F00887F80936F002FBF8091EC0289302A
:1018200041F481E080939301809180008F73806800
:1018300007C081E080939201809180008F7C80625C
:10184000809380001092E8021092E9021092EA025E
:101850001092EB0260E070E0CB010E94D100109288
:10186000E4021092E5021092E6021092E702109252
:101870000F030E943705009194011091950120916A
:10188000960130919701DC01CB01801B910BA20BDB
:10189000B30B86399105A105B10508F4C1C00E94BA
:1018A000370560939401709395018093960190930E
:1018B000970161E070E080E090E00E94810162E3C6
:1018C00071E080917702909178020E948F0A69E31B
:1018D00071E080917702909178020E948F0A00E077
:1018E00010E0C12CD12C760120E0822F002E01C007
:1018F000880F0A94EAF7182B0F5F083031F04DE09B
:10190000C416D104E104F104A9F4412F50E060E0D1
:1019100070E02AE080917702909178020E94300A6C
:1019200068E671E080917702909178020E948F0AB8
:1019300000E010E061E070E080E090E00E94810152
:101940005FEFC51AD50AE50AF50A8EE0C816D1047C
:10195000E104F10471F031E0C316D104E104F104B3
:1019600019F28C2D0E941E0421E0892B09F0BDCFB5
:10197000BBCF61E070E080E090E00E94810169E30C
:1019800071E080917702909178020E948F0A10E0B6
:10199000812F806480937C0080917A0080648093A2
:1019A0007A0080917A0086FDFCCF4091780080918A
:1019B000790050E0582B052E000C660B770B8091B8
:1019C0007702909178020E949B0068E671E0809116
:1019D0007702909178020E948F0A1F5F1630C1F63D
:1019E00069E371E080917702909178020E948F0AFA
:1019F0000E94830169E371E08091770290917802FF
:101A00000E948F0A6BE371E08091770290917802D7
:101A10000E948F0A61E070E080E090E00E94810106
:101A20008DEF97E00E947B07882309F426C189E0A7
:101A300098E00E947B0781111CC188E991E00E9417
:101A4000F302009709F4B5C040911C0850911D089D
:101A500029E030E0241B350B8C01281739070CF4E2
:101A60008901A12CB12C912CA2E0EA2EF12CCC24DE
:101A7000C394D12CA016B1060CF06AC088E991E09D
:101A80000E94D10220914B0830914C082130310541
:101A900041F122303105E1F1232B09F055C02091AD
:101AA0001C0830911D08F901EA57FD4F90818913F8
:101AB00013C0A9014F5F5F4F50931D0840931C084E
:101AC000F901E350F84F868B44305105E9F5D09287
:101AD0004C08C0924B0838C010921D0810921C0888
:101AE00033C020911C0830911D08A9014F5F5F4F42
:101AF00050931D0840931C08F901E350F84F868B62
:101B00004530510509F5F0924C08E0924B081CC095
:101B100020911C0830911D08A9014F5F5F4F509321
:101B20001D0840931C08F901E350F84F868B49309B
:101B3000510551F410921D0810921C0810924C0887
:101B400010924B08992493949FEFA91AB90A92CF47
:101B5000992079F180911708809322080E940B0642
:101B6000880F991F880F991FFC01E657FD4F808150
:101B70009181A281B38180931E0890931F08A09346
:101B80002008B0932108BE016F5F7F4F88E198E085
:101B90000E946F0763E278E0CE0101960E946F0712
:101BA00081E080934D0880934E0880934F08809386
:101BB000500871E5E72E78E0F72E00E010E0E5E050
:101BC000DE2E5E01A9E1AA0EB11CF70180818823F7
:101BD00009F442C01082F801E350F84FC6A4BE01D8
:101BE0006F5F7F4F86E892E00E946F07CD82FE0113
:101BF0003196DE011A968D2D01900D928A95E1F7AE
:101C0000FE013A96DE011F968D2D01900D928A9568
:101C1000E1F7FE013F96DE0154968D2D01900D9265
:101C20008A95E1F7C801845D974FFE017496DE0145
:101C3000119621912D93EA15FB05D9F7BE016A5F34
:101C40007F4F0E946F0749E050E0BE016F5F7F4FFA
:101C500088E991E00E945508FFEFEF1AFF0A075F3D
:101C60001F4F0432110509F0B0CF8DEF97E00E94AD
:101C7000450889E098E00E9445088AE096E00E94C5
:101C80007B07882309F410C386E196E00E947B0756
:101C9000811106C380918507882309F4FDC2E09174
:101CA0001406F0911506E35BF74F80818823A9F1B4
:101CB000108280911E0890911F08A0912008B09179
:101CC00021088093880790938907A0938A07B0938F
:101CD0008B078091220880938C076DE877E083E280
:101CE00098E00E946F078091880790918907049778
:101CF000A1F48DE897E00E945A0221E0672B682B3F
:101D0000692B09F420E020939107609114067091EB
:101D100015068DE792E00E942002809184078111D0
:101D2000BBC280919107882309F45FC0809192071C
:101D300081115BC0009182071091830700FF55C09D
:101D4000C80117FD0196959587959091A002890F7E
:101D500080938C070E940B06880F991F880F991F8C
:101D6000FC01E657FD4F80819181A281B381809370
:101D7000880790938907A0938A07B0938B07C801BF
:101D800053E0880F991F5A95E1F7BE01675E7F4FB8
:101D90008B56984F0E94BA058091820790918307D5
:101DA00063E0880F991F6A95E1F7BE016C5E7F4F73
:101DB0008356984F0E94BA052A8D9C898D89398D4A
:101DC00039832A839B838C836DE877E0CE0101966B
:101DD0000E946F07609114067091150688E897E0DD
:101DE0000E94200281E08093920720908207309029
:101DF00083072BE02216310469F4809186079091C5
:101E00008707019665E070E00E946920909387073C
:101E10008093860740908607509087075AA649A668
:101E20008CE1829DF001839DF00D1124E65FF94F56
:101E3000E08CF18CE114F10411F0670103C028EC8F
:101E4000C22ED12C8EE0829DF001839DF00D1124D5
:101E500069A47AA4E60DF71DEE0FFF1FEC5DF94FA4
:101E6000D182C08228ECE216F10419F0E0E0F1E042
:101E700002C0E6E0F1E0408051805CA64BA6828083
:101E80009380A480B5808CE1829DF001839DF00D4C
:101E90001124E65FF94F64A075A07EA66DA6B3017C
:101EA000770C880B990B0E94141D2B013C0120E03C
:101EB00030E040E85FE3C501B4010E946E1E6FA7E9
:101EC00078AB89AB9AAB9B01AC01C301B2010E9414
:101ED000731D0E94511F8B01A501940160E070E009
:101EE00080E89FE30E946D1E4B015C019B01AC01E9
:101EF000C301B2010E94731D0E94511F06171707EC
:101F00003CF0C616D7065CF00C151D0544F06EC0FB
:101F1000C016D10624F06C157D050CF067C089A5AC
:101F20009AA5049665E070E00E9469203C0100E0FB
:101F300010E08EE0829D2001839D500C112458AE4C
:101F40004FAA9701FF0C440B550B29AF3AAF4BAF8B
:101F50005CAF49A45AA46414750409F43FC04BA4AF
:101F60005CA404151505D4F5EFA9F8ADE60DF71D31
:101F7000EE0FFF1FEC5DF94F4080518069AD7AADE7
:101F80008BAD9CAD0E94141D6BAB7CAB8DAB9EAB3F
:101F90002FA538A949A95AA90E94731D0E94511F53
:101FA0007B01A50194016BA97CA98DA99EA90E9422
:101FB000731D0E94511FE616F7060CF458C646160C
:101FC00057060CF04FC621E0C301049665E070E0AF
:101FD0000E9469203C01222309F4BBCF8BA59CA55C
:101FE00001970817190714F4CDA4DEA48CE1829D93
:101FF000F001839DF00D1124E65FF94FD5A2C4A234
:102000006CE1562E529CC001539C900D11249C01F2
:10201000265F394F7901D90194966D917C919597FE
:10202000072E000C880B990B0E94141D2B013C01FC
:102030002BED3FE049EC5FE3F70166A577A580A9AA
:1020400091A90E946E1E4B015C010E94DA1E9B0149
:10205000AC01810173E0000F111F7A95E1F7065F73
:10206000194F6801FDE6CF1AFEEFDF0AC301B20186
:102070000E94731D9B01AC01D70196966D917D91D5
:102080008D919C9199970E946E1EF60160837183D9
:1020900082839383C501B4010E94CB1F9B01AC01D5
:1020A00009561E4FC301B2010E94731D9B01AC0172
:1020B000D7019A966D917D918D919C919D970E94EB
:1020C0006E1EF8016083718382839383C101019640
:1020D0006CE070E00E9469209093830780938207F0
:1020E00010929207ECE14E2E489EF001499EF00DB1
:1020F0001124E65FF94F06891789602F617088E027
:102100000E944704B80176956795617087E00E9448
:102110004704B801769567957695679561708BE071
:102120000E944704B3E016950795BA95E1F7602F32
:1021300061708AE00E94470481E0809384070E94D6
:10214000B40583E997E00E944508E0917A07F09191
:102150007B07908180917407892B8083E0917607BB
:10216000F09177079081809174078095892380830F
:102170008BE090E00197F1F7E0917607F091770717
:10218000908180917407892B808383E290E001978E
:10219000F1F7E0917607F0917707908180917407CD
:1021A000809589238083E0917A07F0917B07908165
:1021B00080917407809589238083E0917807F0915E
:1021C0007907908180917507892309F065C00E9485
:1021D000120520917C0730917D07890120E030E0D5
:1021E0000855194E2F4F3F4FDC01CB01800F911F37
:1021F000A21FB31F80937E0790937F07A093800751
:10220000B0938107E0917807F091790790818091F0
:102210007507892381F40E94120500917E071091B1
:102220007F0720918007309181070617170728073D
:10223000390740F731C00E94120520917C07309188
:102240007D07DC01CB01820F931FA11DB11D80937F
:102250007E0790937F07A0938007B093810788EA59
:1022600097E090939101809390010E94B405809132
:10227000B6008F7D8093B60082E08093B00084E04A
:102280008093B1001092B20085E08093B3008091FA
:1022900070008260809370008AE096E00E9445089A
:1022A00086E196E00E9445088AEE95E00E947B0751
:1022B000882309F4D2C086EF95E00E947B07811144
:1022C000C8C00E9437054B015C0160E083E10E94B9
:1022D000470482E10E941E04082F81E10E941E042F
:1022E0008295880F880F807C182F20E8029F101994
:1022F000112480E10E941E04C82E8FE00E941E045B
:10230000D82E8EE00E941E04E82E83E00E941E0458
:10231000082F84E00E941E04F82E82E00E941E0412
:10232000810F182F30E2C39E100D112440E1D49E7E
:10233000100D112458E0E59E100D1124000F000F20
:10234000010FFF0C0F0D002E000C110B61E083E15B
:102350000E94470440910406509105069801241BF1
:10236000350BC90137FF04C088279927821B930BBF
:1023700081389105C4F0C90193953A95FC0197FF06
:1023800004C0EE27FF27E81BF90BB90137FF04C093
:1023900066277727621B730B6E177F070CF4C90142
:1023A000840F951F01C0C801C0900006D09001069F
:1023B000E0900206F0900306240135014C185D08F8
:1023C0006E087F088092000690920106A092020695
:1023D000B0920306109305060093040641145104BD
:1023E0006104710439F1841B950BBC01990F880BB2
:1023F000990B0E94141D20E030E046E155E40E9454
:10240000DF1E26E636E642EA51E40E94731D4B01C8
:102410005C01C301B2010E94121D9B01AC01C50108
:10242000B4010E94DF1E20E030E04AE754E40E943D
:10243000731D03C060E070E0CB01609306067093EB
:10244000070680930806909309068AEE95E00E949D
:10245000450886EF95E00E9445088AEA92E00E94CE
:102460007B07882309F4FAC386EB92E00E947B077E
:102470008111F0C364E471E088E991E00E947D0A73
:10248000C0900606D0900706E0900806F090090676
:1024900084EF91E0A0E0B0E0809343029093440287
:1024A000A0934502B0934602109247021092480250
:1024B0001092490210924A0280913B0290913C0294
:1024C000A0913D02B0913E0280933F029093400262
:1024D000A0934102B09342020E94370560933B02F1
:1024E00070933C0280933D0290933E026AE070E05C
:1024F00080E090E00E94810185E680934C0280910B
:102500004C02833609F440C08536A1F5809147021C
:1025100090914802A0914902B0914A020196A11DF2
:10252000B11D8093470290934802A0934902B09353
:102530004A024091430250914402609145027091D9
:102540004602452B462B472B21F4892B8A2B8B2BBC
:1025500089F482E00E946C0268E471E08091770265
:10256000909178020E947D0A64EF71E080E090E033
:102570000E945A016AE070E080E090E00E948101D0
:1025800082E00E94BF01B9CF0E94370560933B02F1
:1025900070933C0280933D0290933E0282EC92E065
:1025A0000E947B07882309F4EDC08090E40290909C
:1025B000E502A090E602B090E70220E030E0A90139
:1025C000C501B4010E940D1D811117C020E030E04B
:1025D00040E85FEBC701B6010E94C61F87FD0DC032
:1025E00020E030E040E85FE3C701B6010E940D1D26
:1025F00018161CF080E090E0BFC0A7019601C5014D
:10260000B4010E946D1E6B017C010E9437056BAB0B
:102610007CAB8DAB9EAB1091E0020091E10230905B
:10262000E2022090E3025090DC0259A66090DD02A5
:102630006BA67090DE027DA64090DF024FA620912F
:10264000CC023091CD024091CE025091CF02C70111
:10265000B6010E94731D2091D8023091D902409199
:10266000DA025091DB020E946E1E4B015C01209148
:10267000D4023091D5024091D6025091D702C701C1
:10268000B6010E946D1E2B013C018091C602909103
:10269000C702A091C802B091C9022BA93CA94DA9BB
:1026A0005EA9281B390B4A0B5B0BCA01B9010E94BA
:1026B000121D9B01AC01C301B2010E94DF1E2091DB
:1026C000D0023091D1024091D2025091D3020E94A7
:1026D000731D9B01AC01C501B4010E946E1E4B012C
:1026E0005C0129A53BA54DA55FA50E94C61F181634
:1026F0002CF0B9A5ABA5FDA5EFA504C0B82DA92D5B
:10270000FA2DEB2D212F302F432D522D6B2F7A2FA9
:102710008F2F9E2F0E940D1D87FF13C029A53BA55B
:102720004DA55FA5B401C5010E94C61F18162CF067
:1027300019A50BA53DA42FA404C0182D092D3A2CD2
:102740002B2C812F902FA32DB22D8093D802909304
:10275000D902A093DA02B093DB02C092D402D092E5
:10276000D502E092D602F092D702612F702F832D0E
:10277000922D0E94511FCB010E94030A82EC92E02D
:102780000E944508E091B402F091B502E35BF74F77
:1027900040804FA64420D9F0108280911E0890916D
:1027A0001F08A0912008B09121088093D105909333
:1027B000D205A093D305B093D405809122088093CD
:1027C000D50566ED75E083E298E00E946F07809181
:1027D0000F03882309F45CC080E193E00E947B072B
:1027E000882309F455C080E193E00E944508E090F9
:1027F000B402F090B502F701EF5AF74F80818111D2
:1028000047C080916E0530917105409172055091DD
:1028100073058E010C5E1F4FF80194E0900F20911C
:102820007105203350F4DA01A20FB11D6C91619350
:102830002F5F209371059E13F2CF90917105903315
:1028400011F4109271059091A802980F892F20E140
:10285000329F800D11248D830E940B06880F991FD3
:10286000880F991FFC01E657FD4F80819181A2815D
:10287000B38189839A83AB83BC83BE016A5F7F4F38
:10288000C8010E946F07B701CE0101960E94200285
:102890008091C0029091C1028130910509F43FC13D
:1028A000029709F0D3C10091B0051091B1054CE039
:1028B000242E312C1EA61DA68DA59EA501966CE08A
:1028C00070E00E9469209EA78DA723E0880F991FC2
:1028D0002A95E1F72091B0053091B1052901480E04
:1028E000591E5CA64BA6D8018D909D90AD90BC90D2
:1028F000139780929C0590929D05A0929E05B092A0
:102900009F0514962D913D914D915C9117972093C1
:10291000A0053093A1054093A2055093A305F201B1
:1029200064817581868197810E946D1E6B017C0197
:10293000A5019401D2016D917D918D919C910E9490
:102940006D1E4B015C019B01AC010E94731D2B01AC
:102950003C01A7019601C701B6010E94731D9B01AE
:10296000AC01C301B2010E946E1E0E94D91F20E07B
:1029700030E040E05EE30E94731D0E94511F70939F
:10298000AD056093AC05072E000C880B990B0E94D7
:10299000141D2B013C019B01AC01C501B4010E9437
:1029A000DF1E6093A4057093A5058093A605909300
:1029B000A705A3019201C701B6010E94DF1E609323
:1029C000A8057093A9058093AA059093AB05109272
:1029D000AF051092AE056AE173E0CE0187960E94C2
:1029E0002609EFA0F8A41AA619A63CE0D32E609100
:1029F000AE057091AF058091AC059091AD0568175B
:102A000079070CF040C129A53AA5243131050CF411
:102A100037C239C131E0231A31080BA51CA5211496
:102A2000310409F049CFA101425D5C4F7A0110E009
:102A3000612FC7010E945807482F50E060E070E006
:102A400088E991E00E949B006EE871E088E991E0DE
:102A50000E948F0A1F5F1F3259F76FE2C7010E9461
:102A60005807482F50E060E070E088E991E00E944C
:102A70009B0088E991E00E94790A5CE0250E311CF8
:102A800080E4281682E0380671F688E991E00E9419
:102A9000790A84EF91E0A0E0B0E080934302909344
:102AA0004402A0934502B09346021092470210924E
:102AB00048021092490210924A0280913B02909182
:102AC0003C02A0913D02B0913E0280933F02909360
:102AD0004002A0934102B09342020E9437056093E6
:102AE0003B0270933C0280933D0290933E026AE069
:102AF00070E080E090E00E94810185E680934C02C6
:102B000080914C02833609F07BC10E9437056093A7
:102B10003B0270933C0280933D0290933E024FA48F
:102B2000442009F45DC08091D1059091D205823096
:102B30009105D9F01CF4019739F04DC0833091050F
:102B400039F1069771F147C08091E705811143C0C3
:102B500086ED95E00E945A026093E4027093E502CC
:102B60008093E6029093E70236C08091E6058111DA
:102B700032C086ED95E00E945A026093E80270939D
:102B8000E9028093EA029093EB020E94D10023C0F5
:102B900086ED95E00E945A027093C1026093C002D4
:102BA00012C086ED95E00E945A0221E0672B682B47
:102BB000692B09F420E020930F03222321F080E108
:102BC00093E00E9445086091B4027091B5028DE7D0
:102BD00092E00E94200281EF92E00E9445080DC021
:102BE00081EF92E00E947B07882339F085E093E033
:102BF0000E94450881E08093E7058091E6058823DF
:102C000061F08BEF92E00E947B07882331F01092F5
:102C10000403109203031092E6058091E7058823D0
:102C2000A9F085E093E00E947B07882339F0109299
:102C30000E0310920D031092E70508C01092E402F3
:102C40001092E5021092E6021092E7028AEA92E000
:102C50000E94450886EB92E00E9445080E9493037B
:102C60000C94390CE414F5040CF4ADC908C04E14EE
:102C70005F040CF4A8C9641575050CF4A4C90F5FB2
:102C80001F4F20E0A1C9B801CE0185960E942609F8
:102C90006BA57CA5CE0183960E942609FFA0F98230
:102CA00088A58A834DA14B832EA12C839BA19D8354
:102CB0009CA19E83942F322F4F1510F09F2DF42E40
:102CC000281710F0382F822F4D80EE80491620F003
:102CD000F41408F4F42C492EE31620F08E1508F4B1
:102CE0008E2DE32E512C4CE0E49E90011124682E91
:102CF000712C21967FAE6EAE21972C573F4F2396B5
:102D00003FAF2EAF23978F2D90E0841595050CF4DF
:102D100081CEAE2CB12C812C912CC42C21966EAC82
:102D20007FAC21976A147B040CF466C0ABAA88A51B
:102D3000DFA0642C6D1869A29A2D981B9AA34EA14E
:102D40005DA1342D351B3DAF3F8F9A2D941B98A369
:102D50009CA13BA1742C731A7EAE7D8E2A2D291B5B
:102D60002E8F252F2D192B8F642F681B6C8F732EA0
:102D7000751A798E592F541B5A8FD31ADC8A891BE6
:102D80008D8BBE016F5D7F4FCE014B9624962FAF8A
:102D900024970E949D0898AF8FABBE01615E7F4F64
:102DA000CE0149960E949D088C01BE01635E7F4F53
:102DB000CE0144960E949D089AAF89AF24962FAD0C
:102DC00024974FA958AD452B31F4622F862D0E94D0
:102DD0009708882351F00115110509F0D0C0672D1F
:102DE0008DAD0E9497088111CAC03FEFA31AB30AA4
:102DF0004CE0840E911C92CF2FEF421A520A83CFDF
:102E00008536A1F58091470290914802A091490230
:102E1000B0914A020196A11DB11D80934702909383
:102E20004802A0934902B0934A0240914302509154
:102E300044026091450270914602452B462B472B78
:102E400021F4892B8A2B8B2B89F484E00E946C025D
:102E500068E471E080917702909178020E947D0A87
:102E600064EF71E080E090E00E945A016AE070E057
:102E700080E090E00E94810184E00E94BF013ECE8C
:102E8000CB0101969093AF058093AE05072E000C01
:102E9000880B990B0E94141D4B015C012091A80521
:102EA0003091A9054091AA055091AB050E94731D70
:102EB0002091A0053091A1054091A2055091A30554
:102EC0000E946E1E2B013C012091A4053091A505A6
:102ED0004091A6055091A705C501B4010E94731D3C
:102EE0009B01AC0160919C0570919D0580919E05B0
:102EF00090919F050E946E1E69837A838B839C83C9
:102F00004D825E826F827886BE016F5F7F4FCE01F9
:102F100044960E942609CC884D89CE1002C04F15D8
:102F200061F1E9A5FAA5EE0FFF1FEC58FA4FC08238
:102F3000E9A5FAA5EE0FFF1FEB58FA4F4083D49E88
:102F4000C00111246C2D825D9C4F24964FAF2497B5
:102F50000E94580724964FAD2497833038F421E01F
:102F6000280F6C2D8EE293E00E942406E9A5FAA5B5
:102F70003196FAA7E9A7CC88FD88EC2C38CD49AD6D
:102F80005AAD452B39F46D2D8EAD0E9497088823DC
:102F900009F42BCF002E000C110B5FA9050F111D9A
:102FA00057FD1A9589AD080F111D87FD1A9517FF5A
:102FB00003C0119501951109023011050CF415CFCC
:102FC000E5E7F5E020E030E069A47AA426153705AE
:102FD000A9F0DF0111978C918C1104C080815BA94D
:102FE000851719F08FEF9FEF01C0C9012F5F3F4F89
:102FF00032968F3FAFEF9A0739F302C08FEF9FEF02
:10300000019609F0F2CE6C2D23968EAD9FAD2397DD
:10301000880D991D86559D4F0E945807882309F4F5
:10302000E4CE2FEF280F4BA96C2D8EE293E00E9487
:103030002406DBCE2F923F924F925F926F927F9247
:103040008F929F92AF92BF92CF92DF92EF92FF92B8
:103050000F931F93CF93DF9310929B0110929A01CD
:1030600088EE882E83E0982EA12CB12C80929C01B2
:1030700090929D01A0929E01B0929F0180E191E00B
:10308000909399018093980185EC90E09093A5012D
:103090008093A40184EC90E09093A7018093A60113
:1030A00080EC90E09093A9018093A80181EC90E0DE
:1030B0009093AB018093AA0182EC90E09093AD01D4
:1030C0008093AC0186EC90E09093AF018093AE01C9
:1030D0001092B1011092B2011092B3011092B4019A
:1030E00010923B0210923C0210923D0210923E025E
:1030F00010923F021092400210924102109242023E
:10310000109243021092440210924502109246021D
:1031100010924702109248021092490210924A02FD
:1031200010928B0210928A0210928C022FEF209341
:103130008D0281E090E090938F0280938E0231E0C7
:103140003093900220939102C2E0D0E0D09393029A
:10315000C093920242E0409394022093950243E090
:10316000A42EB12CB0929702A092960243E0409315
:1031700098022093990204E010E010939B020093C0
:103180009A0247E040939C0220939D0255E0252E31
:10319000312C30929F0220929E0248E04093A00280
:1031A00048EF4093A10246E050E05093A3024093C1
:1031B000A20244E04093A4022093A50267E070E0DD
:1031C0007093A7026093A60240E44093A80240ECEB
:1031D0004093A9024FE740938602209387022093F1
:1031E0008802209389021092590810925A0810926E
:1031F0005B0830935C0810925508109256081092A4
:1032000057081092580840918A0250918B026091A1
:103210008C0270918D0240937D0250937E026093E8
:103220007F027093800210928102109282021092AB
:103230008302109284021092850244E150E060E023
:1032400070E04093FD075093FE076093FF07709373
:103250000008909306088093050868EE862E63E0C8
:10326000962EA12CB12C8092090890920A08A09267
:103270000B08B0920C089093120880931108A0914B
:103280005D08B0915E08B0930808A09307081092FB
:103290004C0810924B084FE050E060E070E0409323
:1032A0000A0650930B0660930C0670930D069093DC
:1032B00013068093120644E650E060E070E040930D
:1032C000160650931706609318067093190690938C
:1032D0001F0680931E06AD014F5F5F4F509315068A
:1032E00040931406E4ECF0E0E491E0937407E5EC1D
:1032F000F0E0E491E093750740EB50E0FA0134917F
:10330000E32FF0E0EE0FFF1FE656FF4F659174913B
:103310007093770760937607E1EBF0E0E491F0E0DB
:10332000EE0FFF1FE057FF4F65917491709379077F
:1033300060937807FA014491E42FF0E0EE0FFF1F4D
:10334000EA57FF4F6591749170937B0760937A07FA
:1033500041EC5CE250937D0740937C075AE0852E58
:10336000912CA12CB12C8092930790929407A0925B
:103370009507B092960790939C0780939B071092B5
:10338000850740E050E060E870E4409330065093D9
:1033900031066093320670933306C12CD12CE12C98
:1033A00060E4F62EC0923406D0923506E0923606DE
:1033B000F092370649EA55ED63E874E44093380625
:1033C0005093390660933A0670933B064BE050E009
:1033D000509321064093200676E6872E982C76EEB1
:1033E000A72E70E4B72E80924C0690924D06A092C4
:1033F0004E06B0924F0640E050E060E271E4409328
:103400005006509351066093520670935306EDEEAA
:103410008E2EE7E09E2EE4E8AE2EE4ECBE2E8092E7
:10342000540690925506A0925606B0925706ECE0CC
:10343000F0E0F0933D06E0933C06FAE98F2EF9E9BF
:103440009F2EF9E1AF2EF0E4BF2E80926806909295
:103450006906A0926A06B0926B0640936C06509380
:103460006D0660936E0670936F0610927006109250
:10347000710610927206109273069093590680930B
:1034800058063AE9432E39E9532E39E1632E30ECE0
:10349000732E409284065092850660928606709242
:1034A0008706409388065093890660938A06709336
:1034B0008B0610928C0610928D0610928E0610923A
:1034C0008F06D0937506C0937406E6E68E2E982C70
:1034D000E6EEAE2EE0ECBE2E8092A0069092A10603
:1034E000A092A206B092A3064093A4065093A5060C
:1034F0006093A6067093A7064DEE57E064E874E467
:103500004093A8065093A9066093AA067093AB0651
:10351000F3E0AF2EB12CB0929106A092900640E05D
:1035200050E060E870EC4093BC065093BD06609399
:10353000BE067093BF06C092C006D092C106E0924C
:10354000C206F092C30639EAC32E35EDD32E33E816
:10355000E32E34ECF32EC092C406D092C506E0925E
:10356000C606F092C7061093AD060093AC064093D2
:10357000D8065093D9066093DA067093DB0646E6C8
:10358000C42EDC2CEC2C40E4F42EC092DC06D0924D
:10359000DD06E092DE06F092DF0641E35AE364E8DE
:1035A00074E44093E0065093E1066093E206709362
:1035B000E3063092C9062092C80646E656E666EE55
:1035C00070EC4093F4065093F5066093F606709302
:1035D000F70640E050E060E271EC4093F80650934B
:1035E000F9066093FA067093FB06E5E68E2EE3EA91
:1035F0009E2EE3E8AE2EE4ECBE2E8092FC06909266
:10360000FD06A092FE06B092FF06F6E0AF2EB12CAA
:10361000B092E506A092E40640921007509211077E
:103620006092120770921307409314075093150786
:1036300060931607709317071BED412E1FE0512E64
:1036400019E4612E10E4712E409218075092190768
:1036500060921A0770921B07E7E0F0E0F093010711
:10366000E09300070AE9802E09E9902E09E1A02ED7
:1036700000E4B02E80922C0790922D07A0922E0786
:10368000B0922F0740933007509331076093320771
:103690007093330740923407509235076092360793
:1036A00070923707E8E0F0E0F0931D07E0931C0705
:1036B00036E6832E982C36EEA32E30E4B32E80927D
:1036C000480790924907A0924A07B0924B0740934F
:1036D0004C0750934D0760934E0770934F0745E694
:1036E00053EA63E874E440935007509351076093A2
:1036F0005207709353074DE050E0509339074093C1
:10370000380740E050E060E870E44093640750936D
:1037100065076093660770936707C0926807D09249
:103720006907E0926A07F0926B0741E35AE364E8A5
:1037300074EC40936C0750936D0760936E07709321
:103740006F074AE050E050935507409354074FE00D
:10375000842E912CA12CB12C8092EA059092EB053D
:10376000A092EC05B092ED059093F3058093F205DD
:1037700048EC50E060E070E04093F6055093F705A8
:103780006093F8057093F9059093FF058093FE050B
:10379000AD014E5F5F4F5093F5054093F40545E052
:1037A00050E060E070E04093AA025093AB02609357
:1037B000AC027093AD029093B3028093B20242E3E5
:1037C00050E060E070E04093B6025093B70260931F
:1037D000B8027093B9029093BF028093BE02AD010C
:1037E0004C5F5F4F50935E0840935D081396B09313
:1037F000B502A093B402D093C102C093C0024AE0C4
:1038000050E060E070E04093C2025093C3026093C6
:10381000C4027093C5029093CB028093CA0240E029
:1038200050E060E07FE34093CC025093CD02609380
:10383000CE027093CF024DEC5CEC6CEC7DE34093D8
:10384000D0025093D1026093D2027093D3021092AF
:10385000D4021092D5021092D6021092D702109282
:10386000D8021092D9021092DA021092DB0240E0E4
:1038700050E06FE773EC4093DC025093DD026093FD
:10388000DE027093DF0240E050E06FE773E44093A4
:10389000E0025093E1026093E2027093E30210921F
:1038A000EC022093ED0232E23093EE0236E93093DF
:1038B000EF0258EE852E53E0952EA12CB12C80926C
:1038C000F1029092F202A092F302B092F40290936D
:1038D000FA028093F90244EF51E060E070E0409317
:1038E000FB025093FC026093FD027093FE02109263
:1038F00004031092030348EB5BE060E070E0409348
:103900000503509306036093070370930803109216
:103910000E0310920D0342E050E060E070E040932F
:103920001003509311036093120370931303909349
:1039300019038093180310921A0310921B0310921C
:103940001C0310921D0310921E0310921F0310926D
:103950002003109221038BED9FE0A9ECBFE380933D
:10396000220390932303A0932403B0932503109282
:10397000260310922703109228031092290380E057
:1039800090E0A0E8BFE380932A0390932B03A093D9
:103990002C03B0932D0320936E05209371058DE9C0
:1039A00097E09093B1058093B005D0E0C0E020E0AF
:1039B0004C2F6D2F8EE293E00E942406CF5FC03320
:1039C000B1F7DF5FD03391F78EE293E0909370050B
:1039D00080936F0510926E05909373058093720526
:1039E000109271051092E6051092E7051092E90514
:1039F0001092E805DF91CF911F910F91FF90EF900A
:103A0000DF90CF90BF90AF909F908F907F906F90FE
:103A10005F904F903F902F9008950E944F1D08F4A3
:103A200081E00895E89409C097FB3EF49095809555
:103A3000709561957F4F8F4F9F4F9923A9F0F92F74
:103A400096E9BB279395F695879577956795B795F2
:103A5000F111F8CFFAF4BB0F11F460FF1BC06F5FD8
:103A60007F4F8F4F9F4F16C0882311F096E911C0EA
:103A7000772321F09EE8872F762F05C0662371F00B
:103A800096E8862F70E060E02AF09A95660F771F1F
:103A9000881FDAF7880F9695879597F90895990FFB
:103AA0000008550FAA0BE0E8FEEF16161706E80708
:103AB000F907C0F012161306E407F50798F0621B29
:103AC000730B840B950B39F40A2661F0232B242BFE
:103AD000252B21F408950A2609F4A140A6958FEF1D
:103AE000811D811D08950E94861D0C94F71D0E9462
:103AF000E91D38F00E94F01D20F0952311F00C9480
:103B0000E01D0C94E61D11240C942B1E0E94081E2F
:103B100070F3959FC1F3950F50E0551F629FF00120
:103B2000729FBB27F00DB11D639FAA27F00DB11D39
:103B3000AA1F649F6627B00DA11D661F829F2227C2
:103B4000B00DA11D621F739FB00DA11D621F839F49
:103B5000A00D611D221F749F3327A00D611D231F1F
:103B6000849F600D211D822F762F6A2F11249F576D
:103B700050409AF0F1F088234AF0EE0FFF1FBB1F70
:103B8000661F771F881F91505040A9F79E3F51052F
:103B900080F00C94E01D0C942B1E5F3FE4F3983EE4
:103BA000D4F3869577956795B795F795E7959F5FD9
:103BB000C1F7FE2B880F911D9695879597F908956B
:103BC00097F99F6780E870E060E008959FEF80ECD0
:103BD000089500240A941616170618060906089573
:103BE00000240A9412161306140605060895092ED9
:103BF0000394000C11F4882352F0BB0F40F4BF2B48
:103C000011F460FF04C06F5F7F4F8F4F9F4F089587
:103C100057FD9058440F551F59F05F3F71F047957D
:103C2000880F97FB991F61F09F3F79F08795089562
:103C3000121613061406551FF2CF4695F1DF08C081
:103C4000161617061806991FF1CF8695710561059E
:103C500008940895E894BB2766277727CB0197F946
:103C60000895A1E21A2EAA1BBB1BFD010DC0AA1FBD
:103C7000BB1FEE1FFF1FA217B307E407F50720F0D5
:103C8000A21BB30BE40BF50B661F771F881F991F50
:103C90001A9469F760957095809590959B01AC0199
:103CA000BD01CF0108950E945E1EA59F900DB49F97
:103CB000900DA49F800D911D11240895A29FB00125
:103CC000B39FC001A39F700D811D1124911DB29F50
:103CD000700D811D1124911D08955058BB27AA27EE
:103CE0000E94851E0C94F71D0E94E91D38F00E9469
:103CF000F01D20F039F49F3F19F426F40C94E61DD2
:103D00000EF4E095E7FB0C94E01DE92F0E94081EDD
:103D100058F3BA17620773078407950720F079F400
:103D2000A6F50C942A1E0EF4E0950B2EBA2FA02DAA
:103D30000B01B90190010C01CA01A0011124FF2758
:103D4000591B99F0593F50F4503E68F11A16F04053
:103D5000A22F232F342F4427585FF3CF4695379552
:103D60002795A795F0405395C9F77EF41F16BA0B17
:103D7000620B730B840BBAF09150A1F0FF0FBB1FC5
:103D8000661F771F881FC2F70EC0BA0F621F731F0E
:103D9000841F48F4879577956795B795F7959E3F6B
:103DA00008F0B0CF9395880F08F09927EE0F9795FC
:103DB000879508950E94891FE3950C94B21F0E9475
:103DC000F31E0C94F71D0E94F01D58F00E94E91D8F
:103DD00040F029F45F3F29F00C94E01D51110C9440
:103DE0002B1E0C94E61D0E94081E68F39923B1F364
:103DF000552391F3951B550BBB27AA276217730711
:103E0000840738F09F5F5F4F220F331F441FAA1FA4
:103E1000A9F335D00E2E3AF0E0E832D09150504060
:103E2000E695001CCAF72BD0FE2F29D0660F771F0E
:103E3000881FBB1F261737074807AB07B0E809F0F4
:103E4000BB0B802DBF01FF2793585F4F3AF09E3F79
:103E5000510578F00C94E01D0C942B1E5F3FE4F3A9
:103E6000983ED4F3869577956795B795F7959F5FBC
:103E7000C9F7880F911D9695879597F90895E1E008
:103E8000660F771F881FBB1F621773078407BA0767
:103E900020F0621B730B840BBA0BEE1F88F7E095C2
:103EA00008950E94581F6894B1110C942B1E089518
:103EB0000E94101E88F09F5798F0B92F9927B7518C
:103EC000B0F0E1F0660F771F881F991F1AF0BA95BE
:103ED000C9F714C0B13091F00E942A1EB1E00895D4
:103EE0000C942A1E672F782F8827B85F39F0B93FC6
:103EF000CCF3869577956795B395D9F73EF4909571
:103F00008095709561957F4F8F4F9F4F08950C94CA
:103F1000E61D0E94101ED8F3E894E0E0BB279F57EF
:103F2000F0F02AED3FE049EC06C0EE0FBB0F661F34
:103F3000771F881F28F0B23A62077307840728F0BA
:103F4000B25A620B730B840BE3959A9572F7803823
:103F500030F49A95BB0F661F771F881FD2F79048E1
:103F60000C941B20EF93E0FF07C0A2EA2AED3FE08C
:103F700049EC5FEB0E94851E0E94F71D0F90039491
:103F800001FC9058E8E6F0E00C942E200E944F1DB2
:103F900008F48FEF08959F930E94891F0F9007FCEC
:103FA000EE5F0C94B21F19F416F40C94E61D0C94F9
:103FB00019200E94101EB8F39923C9F3B6F39F5736
:103FC000550B87FF0E9427200024A0E640EA9001BD
:103FD00080585695979528F4805C660F771F881F48
:103FE00020F026173707480730F4621B730B840B49
:103FF000202931294A2BA69517940794202531258D
:104000004A2758F7660F771F881F20F026173707B3
:10401000480730F4620B730B840B200D311D411DDA
:10402000A09581F7B901842F9158880F96958795AF
:1040300008959F3F31F0915020F4879577956795CB
:10404000B795880F911D9695879597F9089591508A
:104050005040660F771F881FD2F708959F938F9364
:104060007F936F93FF93EF939B01AC010E94731DAD
:10407000EF91FF910E9442202F913F914F915F91CC
:104080000C94731DDF93CF931F930F93FF92EF92C6
:10409000DF927B018C01689406C0DA2EEF010E944A
:1040A000861DFE01E894A591259135914591559184
:1040B000A6F3EF010E94851EFE019701A801DA9484
:1040C00069F7DF90EF90FF900F911F91CF91DF91F3
:1040D000089597FB072E16F4009407D077FD09D0BA
:1040E0000E94A42007FC05D03EF4909581959F4F37
:1040F0000895709561957F4F0895052E97FB1EF4E6
:1041000000940E94942057FD07D00E94311E07FCA6
:1041100003D04EF40C949420509540953095219501
:104120003F4F4F4F5F4F08959095809570956195E3
:104130007F4F8F4F9F4F0895B7FF0C94531E0E94DF
:10414000531E821B930B0895AA1BBB1B51E107C092
:10415000AA1FBB1FA617B70710F0A61BB70B881F17
:10416000991F5A95A9F780959095BC01CD010895A6
:10417000EE0FFF1F0590F491E02D099481E090E08F
:0A418000F8940C94C320F894FFCFCC
:10418A0002000000003F05000000000000000000DF
:10419A002A035508F302D102E5027103030C30C069
:1041AA00564D4450565F317C315F564D4450560D42
:1041BA000A00564D4450525F007C005F564D4450F1
:1041CA00520D0A0072756E005F564D4450450056F6
:1041DA004D4450435F005F564D4450430D0A00560C
:1041EA004D4450455F003A323A0031003000280011
:1041FA002C2000292073657420746F3A20004265D0
:10420A00666F72653A200041667465723A20200032
:00000001FF
