:100000000C9471000C9499000C9499000C94990034
:100010000C9499000C9499000C9499000C948D0503
:100020000C9499000C9499000C9499000C949900EC
:100030000C9499000C9499000C9499000C949900DC
:100040000C9443050C9499000C94EC030C94C60397
:100050000C9499000C9499000C9499000C949900BC
:100060000C9499000C94990005A84CCDB2D44EB9CB
:100070003836A9020C50B9918688083CA6AAAA2A4B
:10008000BE000000803F00000000240027002A007E
:1000900000000000230026002900000000002500C9
:1000A00028002B00040404040404040402020202D5
:1000B000020203030303030301020408102040802B
:1000C00001020408102001020408102000000008AA
:1000D000000201000003040700000000000000000F
:1000E0009C1911241FBECFEFD8E0DEBFCDBF11E0B9
:1000F000A0E0B1E0EEEDF4E402C005900D92A0396D
:10010000B107D9F728E0A0E9B1E001C01D92A038FD
:10011000B207E1F710E0C1E7D0E004C02197FE018B
:100120000E946222C037D107C9F70E94670A0C9467
:100130006D220C940000CF92DF92EF92FF920F930A
:100140001F93CF93DF9377FF21C06A017B01EC01FE
:10015000E881F9810190F081E02D6DE209958C0133
:1001600044275527BA014C195D096E097F092AE019
:10017000CE010E94060A800F911FDF91CF911F913F
:100180000F91FF90EF90DF90CF9008952AE0DF91DC
:10019000CF911F910F91FF90EF90DF90CF900C9433
:1001A000060ACF92DF92EF92FF922FE832EC45E9F8
:1001B0005FE30E941D1F20E030E044EB52E40E9408
:1001C00018200E94FB20663971053CF4DB016E317A
:1001D00071052CF4AEE1B0E002C0A6E9B0E0A53BA9
:1001E000B10514F0A4EBB0E0A0930B03C0900C0396
:1001F00020910D0330E02C193109D12CE12CF12C88
:10020000FE2CED2CDC2CCC24A901330F660B770BD4
:100210002227342F452F562F0E94462224EB30E010
:1002200040E050E00E942722C701B601620F731F11
:10023000841F951F28E030E040E050E00E94272214
:1002400080910A03893029F4309389002093880033
:1002500004C030938B0020938A00FF90EF90DF90D2
:10026000CF900895E8E9F1E0A089B18982E08C930C
:10027000A485B5851C92A685B7858FEC8C93108ECE
:10028000A489B58986E08C93A289B3898C91806119
:100290008C93A289B3898C9188608C93A289B3894D
:1002A0008C9180688C930288F389E02D80818F7D0A
:1002B000808308958F929F92AF92BF92CF92DF92E8
:1002C000EF92FF926B017C010E9437054B015C01AC
:1002D000C60ED71EE81EF91E0E943705681579055F
:1002E0008A059B0528F0C616D706E806F906A0F78A
:1002F000FF90EF90DF90CF90BF90AF909F908F9046
:1003000008950C945A01CF93DF9300D0CDB7DEB798
:1003100020917C0830917D08CE0101962115310590
:1003200019F48058984018C0AC01421B530BE0915F
:100330007E08F0917F0880E090E0309759F09C01B2
:100340002E5F3F4F80819181820F931F0280F38146
:10035000E02DF3CF840F951F9A83898349815A81B9
:10036000052E000C660B770B809177029091780236
:100370000E949B000F900F90DF91CF910895CF9333
:1003800090914B02992309F458C0C82F80917702AD
:1003900090917802DC01ED91FC910480F581E02DD3
:1003A0000995811114C085E649C08091770290912A
:1003B0007802DC01ED91FC910680F781E02D099532
:1003C0008836D9F190F08137C1F18637B9F1809143
:1003D000770290917802DC01ED91FC910480F58127
:1003E000E02D09958111E1CFDECF883521F18336EB
:1003F00071F76FE471E080917702909178020E942A
:10040000650A4C2F50E060E070E02AE080917702AE
:10041000909178020E94060A66E571E08091770269
:10042000909178020E94650A62E370E080E090E0BB
:100430000E94810102C010924B0283E6CF91089581
:10044000CF92DF92EF92FF920F931F93CF93DF93A0
:100450008B010F59174FF801C081D1E0CD2701F171
:100460009B01FC0189E0829FB001839F700D1124E4
:10047000DB01A35FB74FC080D180E280F3809A9602
:10048000CD92DD92ED92FC929D9784819E968C9305
:10049000645C774FCF0105960E946F07F801D08307
:1004A0008C2FDF91CF911F910F91FF90EF90DF90F4
:1004B000CF900895FC0120816181862F90E0A0E01B
:1004C000B0E0DC0199278827B22B2381822B22817F
:1004D000BC01CD01722B0895BF92CF92DF92EF92B3
:1004E000FF920F931F93CF93DF93B82E0E9437058F
:1004F0006B017C0105E312E0C7E7D2E06FE571E034
:10050000888199810E94650A4B2D50E060E070E07F
:100510002AE0888199810E94060A66E671E0888156
:1005200099810E94650A2AE0B701A6018881998114
:100530000E94060A68E671E0888199810E94650A36
:10054000F80186819781A085B185B701A601481B76
:10055000590B6A0B7B0B2AE0888199810E94060A5D
:1005600068E671E0888199810E94650AF8014681F8
:1005700057816085718582859385A485B585481BE3
:10058000590B6A0B7B0B2AE088819981DF91CF910F
:100590001F910F91FF90EF90DF90CF90BF900C9440
:1005A000060AFC01918D828D981761F0828DDF0122
:1005B000A80FB11D5D968C91928D9F5F9F73928F56
:1005C00090E008958FEF9FEF0895FC01918D828D4B
:1005D000981731F0828DE80FF11D858D90E0089518
:1005E0008FEF9FEF0895FC01918D228D892F90E070
:1005F000805C9F4F821B91098F739927089588E92A
:1006000091E00E94F30221E0892B09F420E0822F7F
:100610000895FC01848DDF01A80FB11DA35ABF4FBF
:100620002C91848D90E001968F739927848FA689F1
:10063000B7892C93A089B1898C9180648C93938D18
:10064000848D981306C00288F389E02D80818F7D08
:1006500080830895EF92FF920F931F93CF93DF93C0
:10066000EC0181E0888F9B8D8C8D981305C0E88903
:10067000F989808185FD24C0F62E0B8D10E00F5F77
:100680001F4F0F731127E02E8C8DE8120CC00FB690
:1006900007FCFACFE889F989808185FFF5CFCE0183
:1006A0000E940903F1CF8B8DFE01E80FF11DE35A83
:1006B000FF4FF0820B8FEA89FB898081806207C03F
:1006C000EE89FF896083E889F9898081806480836D
:1006D00081E090E0DF91CF911F910F91FF90EF901B
:1006E0000895CF93DF93EC01888D8823C9F0EA89C0
:1006F000FB89808185FD05C0A889B9898C9186FD1B
:100700000FC00FB607FCF5CF808185FFF2CFA88917
:10071000B9898C9185FFEDCFCE010E940903E7CF07
:10072000DF91CF91089580E090E0892B29F00E941D
:10073000FF0281110C9400000895833081F028F4A9
:10074000813099F08230A1F008958730A9F0883087
:10075000B9F08430D1F4809180008F7D03C0809106
:1007600080008F7780938000089584B58F7702C0D2
:1007700084B58F7D84BD08958091B0008F7703C0CC
:100780008091B0008F7D8093B00008951F920F92EA
:100790000FB60F9211242F933F934F935F936F9354
:1007A0007F938F939F93AF93BF93EF93FF9388E9CA
:1007B00091E00E940903FF91EF91BF91AF919F914A
:1007C0008F917F916F915F914F913F912F910F90FA
:1007D0000FBE0F901F9018951F920F920FB60F9299
:1007E00011242F938F939F93EF93FF93E091A80190
:1007F000F091A9018081E091AE01F091AF0182FDFD
:1008000012C090818091B1018F5F8F732091B201EE
:10081000821751F0E091B101F0E0E856FE4F958F5C
:100820008093B10101C08081FF91EF919F918F91E1
:100830002F910F900FBE0F901F901895CF93DF93BD
:10084000282F30E0F901E453FF4F8491F901E85477
:10085000FF4FD491F901EC55FF4FC491CC2391F097
:1008600081110E949D03EC2FF0E0EE0FFF1FE05777
:10087000FF4FA591B491EC91ED2381E090E021F43C
:1008800080E002C080E090E0DF91CF9108951F9357
:10089000CF93DF93282F30E0F901E453FF4F849189
:1008A000F901E854FF4FD491F901EC55FF4FC49181
:1008B000CC23C9F0162F81110E949D03EC2FF0E08C
:1008C000EE0FFF1FE656FF4FA591B4918FB7F89436
:1008D000111105C09C91ED2FE095E92302C0EC9128
:1008E000ED2BEC938FBFDF91CF911F910895CF93A4
:1008F000DF9390E0FC01E854FF4F2491FC01EC559C
:10090000FF4F8491882361F190E0880F991FFC01CB
:10091000EA57FF4FC591D491FC01E656FF4FA591D0
:10092000B491611109C09FB7F89488812095822302
:100930008883EC912E230BC0623061F49FB7F8944A
:100940003881822F809583238883EC912E2B2C93E2
:100950009FBF06C08FB7F894E8812E2B28838FBFE6
:10096000DF91CF9108951F93CF93DF93182FEB0161
:1009700061E00E947704209711F460E004C0CF3F4B
:10098000D10539F461E0812FDF91CF911F910C9453
:100990004704E12FF0E0E453FF4FE491E330F9F036
:1009A00048F4E130B9F0E230A1F584B5806284BD4D
:1009B000C8BD34C0E730E9F0E83019F1E43049F55A
:1009C00080918000806280938000D0938B00C093E0
:1009D0008A0024C084B5806884BDC7BD1FC08091D3
:1009E0008000806880938000D0938900C093880045
:1009F00015C08091B00080688093B000C093B300B0
:100A00000DC08091B00080628093B000C093B400AC
:100A100005C0C038D1050CF0B5CFAFCFDF91CF9175
:100A20001F9108953FB7F8948091780890917908C4
:100A3000A0917A08B0917B0826B5A89B05C02F3FEE
:100A400019F00196A11DB11D3FBFBA2FA92F982FF4
:100A50008827820F911DA11DB11DBC01CD0142E06F
:100A6000660F771F881F991F4A95D1F708952FB7F2
:100A7000F89460917408709175088091760890914F
:100A800077082FBF08951F920F920FB60F9211246F
:100A90002F933F938F939F93AF93BF93809174084D
:100AA00090917508A0917608B091770830917308FD
:100AB00023E0230F2D3720F40196A11DB11D05C0A1
:100AC00026E8230F0296A11DB11D20937308809381
:100AD000740890937508A0937608B0937708809176
:100AE000780890917908A0917A08B0917B080196D6
:100AF000A11DB11D8093780890937908A0937A087E
:100B0000B0937B08BF91AF919F918F913F912F91AF
:100B10000F900FBE0F901F9018951F920F920FB657
:100B20000F9211242F933F934F935F936F937F9373
:100B30008F939F93AF93BF93EF93FF93E0919001B7
:100B4000F09191010995FF91EF91BF91AF919F9124
:100B50008F917F916F915F914F913F912F910F9066
:100B60000FBE0F901F901895E0E7F0E080818D7F19
:100B700080830895EF92FF920F931F93CF93DF939B
:100B80007C018B0120E030E040E053E4FC01608117
:100B90007181828193810E941D1F20E030E048E432
:100BA00053E40E9489200E94FB20EB016138FFEF93
:100BB0007F0734F06F3771052CF0CFE7D0E002C02B
:100BC000C0E8DFEF20E030E040E053E4F70164816B
:100BD0007581868197810E941D1F20E030E048E4E6
:100BE00053E40E9489200E94FB206138FFEF7F07B9
:100BF00034F06F3771052CF06FE770E002C060E8E9
:100C00007FEFF801C0836183DF91CF911F910F9136
:100C1000FF90EF90089540E050E02830310591F4C6
:100C20004032510579F0FA01E657FD4F708161813C
:100C300093819823E281E91302C0272F362F4C5F5E
:100C40005F4FEBCFC9010895BF92CF92DF92EF9231
:100C5000FF920F931F93CF93DF937C01062FC42F36
:100C6000D22F6EE671E088E991E00E94650A402F7C
:100C700050E060E070E088E991E00E949B0060E74E
:100C800071E088E991E00E94650ACC2ED12C4C2FAE
:100C900050E060E070E088E991E00E949B0063E72B
:100CA00071E088E991E00E94650A4D2F50E060E014
:100CB00070E088E991E00E949B0088E991E00E9441
:100CC0004F0A802F8370B82E6EE771E088E991E0BB
:100CD0000E94650A0695069510E08CE08C9DD00177
:100CE0008D9DB00D1124A00FB11FAE0DBF1DCC9175
:100CF000C7FD03C06CE671E002C06AE671E088E9F6
:100D000091E00E94650AC6FD03C06CE671E002C076
:100D10006AE671E088E991E00E94650AC5FD03C0BA
:100D20006CE671E002C06AE671E088E991E00E9439
:100D3000650AC4FD03C06CE671E002C06AE671E0BA
:100D400088E991E00E94650AC3FD03C06CE671E08A
:100D500002C06AE671E088E991E00E94650AC2FD7E
:100D600003C06CE671E002C06AE671E088E991E0D8
:100D70000E94650AC1FD03C06CE671E002C06AE62C
:100D800071E088E991E00E94650AC0FD03C06CE64D
:100D900071E002C06AE671E088E991E00E94530ABE
:100DA0008B2D90E0FC01E45EFE4FC081C0952CE0ED
:100DB0002C9DF0012D9DF00D11240E0F1F1FF7012A
:100DC000E00FF11F3081C3232D2F880F991F01C021
:100DD000220F8A95EAF7C22BC08367E871E088E9A1
:100DE00091E00E94650AC7FD03C06CE671E002C095
:100DF0006AE671E088E991E00E94650AC6FD03C0D9
:100E00006CE671E002C06AE671E088E991E00E9458
:100E1000650AC5FD03C06CE671E002C06AE671E0D8
:100E200088E991E00E94650AC4FD03C06CE671E0A8
:100E300002C06AE671E088E991E00E94650AC3FD9C
:100E400003C06CE671E002C06AE671E088E991E0F7
:100E50000E94650AC2FD03C06CE671E002C06AE64A
:100E600071E088E991E00E94650AC1FD03C06CE66B
:100E700071E002C06AE671E088E991E00E94650ACB
:100E8000C0FD03C06CE671E002C06AE671E088E96B
:100E900091E00E94530A88E991E0DF91CF911F9180
:100EA0000F91FF90EF90DF90CF90BF900C944F0A7E
:100EB000262F237030E0D901A45EBE4F669566955B
:100EC000FC01E60FF11D9C918081892390E0220FA7
:100ED000331F02C0959587952A95E2F70895FB0187
:100EE0009C012C5F3F4FDC014D91CD014193A21736
:100EF000B307C9F70895CF92DF92EF92FF920F9355
:100F00001F93CF93DF93FC0120853185232BA9F01C
:100F1000EC010E943705C880D980EA80FB800C81F3
:100F20001D812E813F81C00ED11EE21EF31E21E0E5
:100F30006C157D058E059F0508F420E0822FDF915A
:100F4000CF911F910F91FF90EF90DF90CF90089578
:100F50008F929F92AF92BF92CF92DF92EF92FF92C9
:100F60000F931F93CF93DF930E94120500918E077A
:100F700010918F072091900730919107061717075E
:100F80002807390718F40E94B4054CC0E09188077F
:100F9000F0918907908180918507892309F042C0EB
:100FA0000E94B4050E94120520918C0730918D0794
:100FB0006901E12CF12C00918E0710918F0720918F
:100FC00090073091910746015701801A910AA20AB1
:100FD000B30A950184010D50110921093109600FEF
:100FE000711F821F931F6093800770938107809306
:100FF00082079093830720919207309193074CE1E9
:10100000429FE001439FD00D1124C65ED94F29E3D2
:1010100030E040E050E00E94DB1F398F288F1092B3
:10102000940726C083EA97E00E947B07882301F19A
:1010300080919207909193072CE1289FF001299FBE
:10104000F00D1124E65EF94F88EC90E0918F808FCF
:1010500010929407DF91CF911F910F91FF90EF9025
:10106000DF90CF90BF90AF909F908F900C94B4057D
:10107000DF91CF911F910F91FF90EF90DF90CF9074
:10108000BF90AF909F908F900895CF93DF93EC0126
:101090000E9437056C837D838E839F8381E090E07F
:1010A00099878887DF91CF910895CF92DF92EF9251
:1010B000FF920F931F93CF93DF936C017A018B0103
:1010C000C0E0D0E0CE15DF0589F0D8016D918D012B
:1010D000D601ED91FC910190F081E02DC6010995BA
:1010E000892B11F47E0102C02196ECCFC701DF915C
:1010F000CF911F910F91FF90EF90DF90CF900895C7
:101100000E9468226115710579F0FB0101900020B1
:10111000E9F73197AF01461B570BDC01ED91FC91CC
:101120000280F381E02D099480E090E0089591E041
:10113000681708F490E0892F08958F929F92AF92DC
:10114000BF92CF92DF92EF92FF92CF93DF93FC0199
:10115000DB01F0806F2D70E0CC916115710509F411
:1011600053C01196DC91CC2309F459C0618170E021
:1011700080E090E00E94BE1E4B015C016F2D70E08C
:1011800080E090E00E94BC1E9B01AC01C501B4014F
:101190000E9489206B017C016D2F70E080E090E05F
:1011A0000E94BE1E4B015C016C2F70E080E090E05D
:1011B0000E94BC1E9B01AC01C501B4010E948920A4
:1011C0009B01AC01C701B6010E9417206B017C0195
:1011D00020E030E0A9010E947021181694F0C1E0CF
:1011E000D0E020E030E0A901C701B6010E94B71E9F
:1011F00087FD02C0C0E0D0E0882799278C1B9D0B9B
:101200001AC081E090E017C08181882319F06C2F0B
:1012100070E007C06C2F70E080E090E009C0D11151
:1012200003C0719561957109072E000C880B990B0D
:101230000E94BE1ECBCFDF91CF91FF90EF90DF9049
:10124000CF90BF90AF909F908F9008952F923F9234
:101250004F925F927F928F929F92AF92BF92CF9266
:10126000DF92EF92FF920F931F93CF93DF93CDB74F
:10127000DEB72A970FB6F894DEBF0FBECDBF8C0144
:10128000DB01CD90DD90ED90FC90E0913803F09182
:101290003903FA87E987828D938DA48DB58D898373
:1012A0009A83AB83BC83FB012480358046805780C2
:1012B000A985BA8556968D909D90AD90BC90599712
:1012C00029813A814B815C81C701B6010E941D1FB3
:1012D0006D837E838F839887A5019401C201B1013C
:1012E0000E941D1F9B01AC016D817E818F819885BD
:1012F0000E941820E985FA8524813581468157812D
:101300000E94182020E030E040E850E40E941820BD
:1013100020E030E040E05EE30E941D1F0E940221B9
:10132000762EA5019401C701B6010E941D1F6B0115
:101330007C0129813A814B815C81C201B1010E940B
:101340001D1F9B01AC01C701B6010E941720A98592
:10135000BA852D913D914D915C910E94182020E01D
:1013600030E040E850E40E94182020E030E040E007
:101370005EE30E941D1F0E940221F80160837182BA
:10138000C8012A960FB6F894DEBF0FBECDBFDF911D
:10139000CF911F910F91FF90EF90DF90CF90BF9072
:1013A000AF909F908F907F905F904F903F902F9045
:1013B00008951F93CF93DF9382302FEF920734F07D
:1013C0008F3F910534F0CFEFD0E004C0C1E0DFEFF4
:1013D00001C0EC011D2F1095111F1127111F11F0D5
:1013E000BE0102C060E070E085E00E94B30411110C
:1013F00005C0662777276C1B7D0B02C060E070E09C
:1014000086E0DF91CF911F910C94B3044F925F92CD
:101410006F927F92EF92FF920F931F93CF93DF9380
:10142000CDB7DEB7A1970FB6F894DEBF0FBECDBF24
:101430007C01FA01CB0119A2223008F42AE08E01C6
:101440000F5D1F4F422E512C612C712CBF01A30147
:1014500092010E94DB1FF901CA01015011096A3093
:1014600014F4605D01C0695CD8016C93232B242BBC
:10147000252B61F7B801C7010E948208A1960FB61B
:10148000F894DEBF0FBECDBFDF91CF911F910F91BA
:10149000FF90EF907F906F905F904F9008956CE574
:1014A00071E00C9482080F931F93CF93DF93EC01AC
:1014B0000E9482088C01CE010E944F0A800F911F6A
:1014C000DF91CF911F910F9108950C948208CF93D3
:1014D000DF93CDB7DEB7CE54D1090FB6F894DEBF97
:1014E0000FBECDBF789484B5826084BD84B5816021
:1014F00084BD85B5826085BD85B5816085BD8091DF
:101500006E00816080936E00109281008091810056
:10151000826080938100809181008160809381004E
:10152000809180008160809380008091B100846010
:101530008093B1008091B00081608093B000809171
:101540007A00846080937A0080917A008260809330
:101550007A0080917A00816080937A0080917A008D
:10156000806880937A001092C100109279021092E4
:101570007A0210927B0210927C0210923702109233
:1015800038021092390210923A0268EB7BE080E058
:1015900090E00E94810188E991E090937802809325
:1015A00077020E94320160E271E0809177029091AF
:1015B00078020E94650A6AE070E080E090E00E9494
:1015C000810181E080934B0262E371E080917702B8
:1015D000909178020E94650A69E371E08091770238
:1015E000909178020E94650A69E371E08091770228
:1015F000909178020E94650A69E371E08091770218
:10160000909178020E94650A0E94830169E371E06B
:1016100080917702909178020E94650A6BE371E0F5
:1016200080917702909178020E94650A6AE070E0EA
:1016300080E090E00E94810110925D0810926108A4
:1016400010925E081092620810925F081092630870
:1016500010926008109264080E94320110922D08C6
:1016600010922C0861E088E00E94770461E087E036
:101670000E94770461E08BE00E94770461E08AE0D9
:101680000E947704E2E3F6E088EC90E09587848797
:1016900091838083938382839583848397838683D6
:1016A00091878087938782877C9627E0E238F207CC
:1016B00069F781E080939507109294078BE090E0A2
:1016C000909393078093920784E090E0909397071C
:1016D000809396071092A10760E082E00E94770451
:1016E00060E084E00E94770460E083E00E94770479
:1016F00060E08EE00E94770460E08FE00E94770453
:1017000060E080E10E94770460E081E10E9477045C
:1017100060E082E10E94770461E083E10E94770447
:101720000E9437056093100670931106809312068D
:101730009093130610921506109214061092160636
:1017400010921706109218061092190661E085E0B3
:101750000E94770461E086E00E94770489E080932C
:101760000A038FEF80930B0360E089E00E94470437
:1017700061E080910A030E947704809193018111B6
:1017800022C08091920181111EC02FB7F89482E08F
:10179000809380008AE18093810088EB9BE09093A6
:1017A00089008093880090938B0080938A0080E466
:1017B0009CE9909387008093860080916F00887FDA
:1017C00080936F002FBF80910A03893041F481E03C
:1017D00080939301809180008F73806807C081E0BF
:1017E00080939201809180008F7C80628093800042
:1017F0001092060310920703109208031092090337
:1018000060E070E0CB010E94D100109202031092C0
:101810000303109204031092050310922D030E94FB
:101820003705009194011091950120919601309116
:101830009701DC01CB01801B910BA20BB30B863906
:101840009105A105B10508F4C1C00E943705609358
:10185000940170939501809396019093970161E0B4
:1018600070E080E090E00E94810162E371E080918D
:101870007702909178020E94650A69E371E0809195
:101880007702909178020E94650A00E010E0C12C76
:10189000D12C760120E0822F002E01C0880F0A94FF
:1018A000EAF7182B0F5F083031F04DE0C416D10471
:1018B000E104F104A9F4412F50E060E070E02AE077
:1018C00080917702909178020E94060A68E671E0A2
:1018D00080917702909178020E94650A00E010E002
:1018E00061E070E080E090E00E9481015FEFC51A46
:1018F000D50AE50AF50A8EE0C816D104E104F10420
:1019000071F031E0C316D104E104F10419F28C2D19
:101910000E941E0421E0892B09F0BDCFBBCF61E0FE
:1019200070E080E090E00E94810169E371E08091C5
:101930007702909178020E94650A10E0812F8064FE
:1019400080937C0080917A00806480937A008091FB
:101950007A0086FDFCCF409178008091790050E0BC
:10196000582B052E000C660B770B80917702909117
:1019700078020E949B0068E671E080917702909166
:1019800078020E94650A1F5F1630C1F669E371E0B4
:1019900080917702909178020E94650A0E948301EB
:1019A00069E371E080917702909178020E94650A64
:1019B0006BE371E080917702909178020E94650A52
:1019C00061E070E080E090E00E9481018DE098E0AD
:1019D0000E947B07882309F426C189E198E00E94D0
:1019E0007B0781111CC188E991E00E94F3020097F6
:1019F00009F4B5C040912C0850912D0829E030E041
:101A0000241B350B8C01281739070CF48901A12CF4
:101A1000B12C912CA2E0EA2EF12CCC24C394D12C31
:101A2000A016B1060CF06AC088E991E00E94D102CC
:101A300020915B0830915C082130310541F1223062
:101A40003105E1F1232B09F055C020912C0830918C
:101A50002D08F901EA57FD4F9081891313C0A901A0
:101A60004F5F5F4F50932D0840932C08F901E35FBF
:101A7000F74F868B44305105E9F5D0925C08C0924F
:101A80005B0838C010922D0810922C0833C02091AA
:101A90002C0830912D08A9014F5F5F4F50932D08FE
:101AA00040932C08F901E35FF74F868B45305105D1
:101AB00009F5F0925C08E0925B081CC020912C08AC
:101AC00030912D08A9014F5F5F4F50932D0840932F
:101AD0002C08F901E35FF74F868B4930510551F42B
:101AE00010922D0810922C0810925C0810925B083E
:101AF000992493949FEFA91AB90A92CF992079F16A
:101B000080912708809332080E940B06880F991F46
:101B1000880F991FFC01E657FD4F80819181A281BA
:101B2000B38180932E0890932F08A0933008B09330
:101B30003108BE016F5F7F4F88E298E00E946F0717
:101B400063E378E0CE0101960E946F0781E0809305
:101B50005D0880935E0880935F088093600871E65B
:101B6000E72E78E0F72E00E010E0E5E0DE2E5E01E3
:101B7000A9E1AA0EB11CF7018081882309F442C0B3
:101B80001082F801E35FF74FC6A4BE016F5F7F4F7D
:101B900086E892E00E946F07CD82FE013196DE0159
:101BA0001A968D2D01900D928A95E1F7FE013A96D5
:101BB000DE011F968D2D01900D928A95E1F7FE01B1
:101BC0003F96DE0154968D2D01900D928A95E1F796
:101BD000C801845C974FFE017496DE011196219135
:101BE0002D93EA15FB05D9F7BE016A5F7F4F0E946E
:101BF0006F0749E050E0BE016F5F7F4F88E991E0D9
:101C00000E945508FFEFEF1AFF0A075F1F4F0432CB
:101C1000110509F0B0CF8DE098E00E94450889E1F8
:101C200098E00E9445088AE196E00E947B0788239D
:101C300009F415C386E296E00E947B0781110BC36D
:101C400080919507882309F402C3E0912406F0915E
:101C50002506E35AF74F80818823A9F110828091ED
:101C60002E0890912F08A0913008B09131088093F0
:101C7000980790939907A0939A07B0939B07809138
:101C8000320880939C076DE977E083E398E00E9437
:101C90006F0780919807909199070497A1F48DE9B7
:101CA00097E00E945A0221E0672B682B692B09F408
:101CB00020E02093A10760912406709125068DE70E
:101CC00092E00E942002809194078111C0C280910D
:101CD000A107882309F45FC08091A20781115BC02E
:101CE000009192071091930700FF55C0C80117FD9E
:101CF0000196959587959091A002890F80939C07F6
:101D00000E940B06880F991F880F991FFC01E65748
:101D1000FD4F80819181A281B38180939807909338
:101D20009907A0939A07B0939B07C80153E0880FC7
:101D3000991F5A95E1F7BE01675E7F4F8B55984F0B
:101D40000E94BA05809192079091930763E0880FF3
:101D5000991F6A95E1F7BE016C5E7F4F8355984FDE
:101D60000E94BA052A8D9C898D89398D39832A83F1
:101D70009B838C836DE977E0CE0101960E946F070B
:101D8000609124067091250688E997E00E94200260
:101D900081E08093A20720909207309093072BE078
:101DA0002216310469F48091960790919707019665
:101DB00065E070E00E941322909397078093960746
:101DC00040909607509097075AA649A68CE1829DAD
:101DD000F001839DF00D1124E65EF94FE08CF18C4B
:101DE000E114F10411F0670103C028ECC22ED12CDC
:101DF0008EE0829DF001839DF00D112469A47AA4E8
:101E0000E60DF71DEE0FFF1FEC5CF94FD182C0828B
:101E100028ECE216F10419F0E0E0F1E002C0E6E09F
:101E2000F1E0408051805EA64DA682809380A48020
:101E3000B5808CE1829DF001839DF00D1124E65E5A
:101E4000F94F64A075A07AAA69AAB301770C880B30
:101E5000990B0E94BE1E2B013C0120E030E040E8BF
:101E60005FE3C501B4010E9418206DAB7EAB8FAB60
:101E700098AF9B01AC01C301B2010E941D1F0E94DB
:101E8000FB208B01A501940160E070E080E89FE3F6
:101E90000E9417204B015C019B01AC01C301B20100
:101EA0000E941D1F0E94FB20061717073CF0C61654
:101EB000D7065CF00C151D0544F073C0C016D106A2
:101EC00024F06C157D050CF06CC089A59AA50496CC
:101ED00065E070E00E9413223C0100E010E08EE01B
:101EE000829D2001839D500C11245EAE4DAE970162
:101EF000FF0C440B550B25962CAF3DAF4EAF5FAF9B
:101F00002597E9A4FAA46E147F0409F442C04DA4F5
:101F10005EA404151505ECF5EDADFEADE60DF71D5F
:101F2000EE0FFF1FEC5CF94F4080518025966CADA1
:101F30007DAD8EAD9FAD25970E94BE1E69AF7AAF75
:101F40008BAF9CAF2DA93EA94FA958AD0E941D1F74
:101F50000E94FB207B01A501940169AD7AAD8BAD98
:101F60009CAD0E941D1F0E94FB20E616F70614F48C
:101F70000C94A817461657060CF0E5C721E0C301DC
:101F8000049665E070E00E9413223C01222309F4CC
:101F9000B8CF8DA59EA501970817190714F4C9A8F5
:101FA000DAA88CE1829DF001839DF00D1124E65E9C
:101FB000F94FD5A2C4A26CE1562E529CC001539C8D
:101FC000900D11249C01265E394F7901D901949618
:101FD0006D917C919597072E000C880B990B0E94B0
:101FE000BE1E2B013C012BED3FE049EC5FE3F70106
:101FF00066A577A580A991A90E9418204B015C01D4
:102000000E9484209B01AC01810173E0000F111F2D
:102010007A95E1F7065E194F6801FDE6CF1AFEEFEB
:10202000DF0AC301B2010E941D1F9B01AC01D70151
:1020300096966D917D918D919C9199970E94182013
:10204000F6016083718382839383C501B4010E948A
:1020500075219B01AC0109561E4FC301B2010E94BC
:102060001D1F9B01AC01D7019A966D917D918D91B9
:102070009C919D970E941820F80160837183828350
:102080009383C10101966CE070E00E94132290934B
:102090009307809392071092A207ECE14E2E489E80
:1020A000F001499EF00D1124E65EF94F068917896B
:1020B000602F617088E00E944704B80176956795AB
:1020C000617087E00E944704B80176956795769520
:1020D000679561708BE00E944704B3E01695079501
:1020E000BA95E1F7602F61708AE00E94470481E0B1
:1020F000809394070E94B40583EA97E00E94450804
:10210000E0918A07F0918B07908180918407892B59
:102110008083E0918607F091870790818091840702
:102120008095892380838BE090E00197F1F7E0911F
:102130008607F0918707908180918407892B80839F
:1021400083E290E00197F1F7E0918607F09187072D
:10215000908180918407809589238083E0918A070C
:10216000F0918B07908180918407809589238083EB
:10217000E0918807F09189079081809185078923F4
:1021800009F065C00E94120520918C0730918D07DF
:10219000890120E030E00855194E2F4F3F4FDC01F8
:1021A000CB01800F911FA21FB31F80938E079093C6
:1021B0008F07A0939007B0939107E0918807F09163
:1021C0008907908180918507892381F40E941205F7
:1021D00000918E0710918F07209190073091910701
:1021E000061717072807390740F731C00E94120564
:1021F00020918C0730918D07DC01CB01820F931F5A
:10220000A11DB11D80938E0790938F07A093900717
:10221000B093910788EA97E09093910180939001A1
:102220000E94B4058091B6008F7D8093B60082E055
:102230008093B00084E08093B1001092B20085E0FA
:102240008093B300809170008260809370008AE177
:1022500096E00E94450886E296E00E9445088AEFD3
:1022600095E00E947B07882309F4D2C086E096E0BF
:102270000E947B078111C8C00E9437054B015C0199
:1022800060E083E10E94470482E10E941E04082F5F
:1022900081E10E941E048295880F880F807C182F90
:1022A00020E8029F1019112480E10E941E04C82E0C
:1022B0008FE00E941E04D82E8EE00E941E04E82E9D
:1022C00083E00E941E04082F84E00E941E04F82E62
:1022D00082E00E941E04810F182F30E2C39E100D71
:1022E000112440E1D49E100D112458E0E59E100DFC
:1022F0001124000F000F010FFF0C0F0D002E000C1A
:10230000110B61E083E10E94470440911406509153
:1023100015069801241B350BC90137FF04C0882717
:102320009927821B930B81389105C4F0C9019395BD
:102330003A95FC0197FF04C0EE27FF27E81BF90B35
:10234000B90137FF04C066277727621B730B6E172E
:102350007F070CF4C901840F951F01C0C801C0900C
:102360001006D0901106E0901206F090130624019A
:1023700035014C185D086E087F0880921006909217
:102380001106A0921206B092130610931506009340
:102390001406411451046104710439F1841B950B36
:1023A000BC01990F880B990B0E94BE1E20E030E003
:1023B00046E155E40E94892026E636E642EA51E4E9
:1023C0000E941D1F4B015C01C301B2010E94BC1E93
:1023D0009B01AC01C501B4010E94892020E030E0DE
:1023E0004AE754E40E941D1F03C060E070E0CB0187
:1023F000609316067093170680931806909319063B
:102400008AEF95E00E94450886E096E00E94450824
:102410008AEA92E00E947B07882309F490C586EB44
:1024200092E00E947B0789A7811185C564E471E071
:1024300088E991E00E94530A809016069090170652
:10244000A0901806B090190640900603509007031C
:10245000609008037090090384EF91E0A0E0B0E081
:102460008093430290934402A0934502B0934602A6
:1024700010924702109248021092490210924A02AA
:1024800080913B0290913C02A0913D02B0913E02AE
:1024900080933F0290934002A0934102B093420286
:1024A0000E94370560933B0270933C0280933D028B
:1024B00090933E026AE070E080E090E00E9481012B
:1024C00085E680934C0280914C02833609F440C02B
:1024D0008536A1F58091470290914802A09149026A
:1024E000B0914A020196A11DB11D809347029093BD
:1024F0004802A0934902B0934A024091430250918E
:1025000044026091450270914602452B462B472BB1
:1025100021F4892B8A2B8B2B89F482E00E946C0298
:1025200068E471E080917702909178020E94530AEA
:1025300064EF71E080E090E00E945A016AE070E090
:1025400080E090E00E94810182E00E94BF01B9CF4B
:102550000E94370560933B0270933C0280933D02DA
:1025600090933E0280EE92E00E947B07882309F45C
:1025700007C1C0900203D0900303E0900403F090E1
:10258000050320E030E0A901C701B6010E94B71E93
:10259000811117C020E030E040E85FEBC501B401D5
:1025A0000E94702187FD0DC020E030E040E85FE32D
:1025B000C501B4010E94B71E18161CF080E090E01F
:1025C000D9C0A5019401C701B6010E941720219628
:1025D0006CAF7DAF8EAF9FAF21970E9437056B0127
:1025E0007C013090FE022090FF02009100031091C8
:1025F00001032091FA022DA73091FB0239AB4091E3
:10260000FC024DAB5091FD0259AF2091EA0230918E
:10261000EB024091EC025091ED0221966CAD7DAD44
:102620008EAD9FAD21970E941D1F2091F602309123
:10263000F7024091F8025091F9020E941820259665
:102640006CAF7DAF8EAF9FAF25972091F202309196
:10265000F3024091F4025091F50221966CAD7DADEC
:102660008EAD9FAD21970E94172029966CAF7DAF4C
:102670008EAF9FAF29978091E4029091E502A091DF
:10268000E602B091E702A7019601281B390B4A0B1D
:102690005B0BCA01B9010E94BC1E9B01AC012996CB
:1026A0006CAD7DAD8EAD9FAD29970E9489202091A4
:1026B000EE023091EF024091F0025091F1020E943F
:1026C0001D1F9B01AC0125966CAD7DAD8EAD9FAD00
:1026D00025970E9418207B016C012DA539A94DA9D1
:1026E00059AD0E94702118162CF0BDA5A9A9FDA90D
:1026F000E9AD04C0BE2DAF2DFC2DED2D232D322DC7
:10270000A8016B2F7A2F8F2F9E2F0E94B71E87FF55
:1027100012C02DA539A94DA959ADB701C6010E9416
:10272000702118162CF03DA429A80DA919AD03C0DD
:102730003E2C2F2C8601832D922DD8018093F602FA
:102740009093F702A093F802B093F9022196CCACD3
:10275000DDACEEACFFAC2197C092F202D092F30256
:10276000E092F402F092F502632D722DC8010E94EE
:10277000FB20CB010E94D90980EE92E00E9445081F
:1027800080EC95E00E947B07882309F46AC10E94CF
:1027900037050091C4051091C5052091C6053091FB
:1027A000C7056B017C01C01AD10AE20AF30ACDA663
:1027B000DEA6EFA6F8AA2090CA053090CB05D1017D
:1027C00018968D929D92AD92BC921B97A301920197
:1027D0001C966D917D918D919C911F970E94B71EC3
:1027E000882309F4BCC0F101448655866686778645
:1027F00020E030E0A901C301B2010E94702187FFEF
:1028000003C00FEF1FEF02C001E010E0D1015196AD
:102810001C930E935097C301B2010E9475216B0166
:102820007C012CEA35EC47E257EB0E94702187FDD2
:102830000DC0B1E0B9A72CEA35EC47E257E3C70178
:10284000B6010E94B71E18160CF419A6E9A5E0936C
:10285000E005E11184C0C301B2010E9484209B0104
:10286000AC01C701B6010E9489209B01AC0160E068
:1028700070E080EA91E40E9489202B013C01609382
:10288000CC057093CD058093CE059093CF05B8010C
:10289000110F880B990B0E94BE1E69A77AA78BA700
:1028A0009CA720E030E040E051E40E941D1F69AB8E
:1028B0007AAB8BAB9CAB9B01AC01C301B2010E9414
:1028C00018206B017C019B01AC010E941D1F23ECB1
:1028D00035EF48E354E40E9418200E94832129A583
:1028E0003AA54BA55CA50E941D1F6093D40570936B
:1028F000D5058093D6059093D70529A93AA94BA968
:102900005CA9C301B2010E9417206093D0057093A7
:10291000D1058093D2059093D3059B01AC010E9411
:102920001D1F20E030E048EC53E40E9418200E9474
:10293000832129A53AA54BA55CA50E941D1F609384
:10294000D8057093D9058093DA059093DB05C09282
:10295000DC05D092DD05E092DE05F092DF05809186
:10296000E005811136C06DA57EA58FA598A90E94AE
:10297000BC1EA50194010E941D1F2091DC05309111
:10298000DD054091DE055091DF050E948920D101CF
:1029900052962D913D914D915C9155970E94182032
:1029A0006B017C01F101628B738B848B958B0E9490
:1029B0008420D10156966D937D938D939C93599766
:1029C000C701B6010E947521F101628F738F848F58
:1029D000958F6DA57EA58FA598A90E94BC1E6B0141
:1029E0007C01D10156962D913D914D915C91599765
:1029F000C501B4010E941D1FA70196010E941D1F61
:102A00009B01AC01F10160817181828193810E94FF
:102A10001820D1016D937D938D939C9313975A96B3
:102A20002D913D914D915C915D97C501B4010E943E
:102A30001D1FA70196010E941D1F9B01AC01F10102
:102A400064817581868197810E941820D101149636
:102A50006D937D938D939C93179780EC95E00E94E6
:102A60004508E091B402F091B502E35AF74F408077
:102A70004DAA4420D9F0108280912E0890912F0801
:102A8000A0913008B09131088093E1059093E20560
:102A9000A093E305B093E405809132088093E505A7
:102AA00066EE75E083E398E00E946F0780912D0346
:102AB000882309F45CC08EE293E00E947B078823A0
:102AC00009F455C08EE293E00E944508E090B402FC
:102AD000F090B502F701EF59F74F8081811147C09F
:102AE00080917C0530917F05409180055091810552
:102AF0008E010C5E1F4FF80194E0900F20917F052E
:102B0000203350F4DA01A20FB11D6C9161932F5F55
:102B100020937F059E13F2CF90917F05903311F49F
:102B200010927F059091A802980F892F20E1329F83
:102B3000800D11248D830E940B06880F991F880F2A
:102B4000991FFC01E657FD4F80819181A281B381DD
:102B500089839A83AB83BC83BE016A5F7F4FC801C0
:102B60000E946F07B701CE0101960E94200280915A
:102B7000C0029091C1028130910509F441C10297D0
:102B800009F0D5C10091BE051091BF054CE0242E7F
:102B9000312C1AAA19AA89A99AA901966CE070E0A9
:102BA0000E9413229AAB89AB23E0880F991F2A95C4
:102BB000E1F72091BE053091BF052901480E591E4D
:102BC0005EA64DA6D8018D909D90AD90BC901397B8
:102BD0008092AA059092AB05A092AC05B092AD058B
:102BE00014962D913D914D915C9117972093AE05D0
:102BF0003093AF054093B0055093B105F201648165
:102C00007581868197810E9417206B017C01A50147
:102C10009401D2016D917D918D919C910E9417201C
:102C20004B015C019B01AC010E941D1F2B013C016B
:102C3000A7019601C701B6010E941D1F9B01AC01AF
:102C4000C301B2010E9418200E94832120E030E0DD
:102C500040E05EE30E941D1F0E94FB207093BB05B5
:102C60006093BA05072E000C880B990B0E94BE1EBC
:102C70002B013C019B01AC01C501B4010E948920DC
:102C80006093B2057093B3058093B4059093B50536
:102C9000A3019201C701B6010E9489206093B60585
:102CA0007093B7058093B8059093B9051092BD0550
:102CB0001092BC056091380370913903CE0187965C
:102CC0000E942609EFA0F8A41AA619A63CE0D32E6C
:102CD0006091BC057091BD058091BA059091BB05CE
:102CE000681779070CF043C129A53AA524313105AD
:102CF0000CF442C23CC131E0231A31080DA51EA5D7
:102D00002114310409F047CFA101445C5C4F7A01E2
:102D100010E0612FC7010E945807482F50E060E083
:102D200070E088E991E00E949B006EE871E088E91C
:102D300091E00E94650A1F5F1F3259F76FE2C701D9
:102D40000E945807482F50E060E070E088E991E069
:102D50000E949B0088E991E00E944F0A5CE0250EEA
:102D6000311C80E4281682E0380671F688E991E08B
:102D70000E944F0A84EF91E0A0E0B0E0809343020C
:102D800090934402A0934502B093460210924702EA
:102D9000109248021092490210924A0280913B021E
:102DA00090913C02A0913D02B0913E0280933F027F
:102DB00090934002A0934102B09342020E943705D3
:102DC00060933B0270933C0280933D0290933E02DD
:102DD0006AE070E080E090E00E94810185E68093E7
:102DE0004C0280914C02833609F086C10E9437055F
:102DF00060933B0270933C0280933D0290933E02AD
:102E00004DA8442009F45DC08091E1059091E20550
:102E100082309105D9F01CF4019739F04DC0833010
:102E2000910539F1069771F147C08091F70581113D
:102E300043C086EE95E00E945A02609302037093AD
:102E40000303809304039093050336C08091F60535
:102E5000811132C086EE95E00E945A02609306030B
:102E60007093070380930803909309030E94D10095
:102E700023C086EE95E00E945A027093C1026093CF
:102E8000C00212C086EE95E00E945A0221E0672B34
:102E9000682B692B09F420E020932D03222321F0D5
:102EA0008EE293E00E9445086091B4027091B502F1
:102EB0008DE792E00E9420028FE093E00E94450897
:102EC0000DC08FE093E00E947B07882339F083E2F6
:102ED00093E00E94450881E08093F7058091F60514
:102EE000882361F089E193E00E947B07882331F019
:102EF00010922203109221031092F6058091F7059B
:102F00008823A9F083E293E00E947B07882339F0AD
:102F100010922C0310922B031092F70508C0109208
:102F200002031092030310920403109205038AEA2D
:102F300092E00E94450886EB92E00E9445080E94BC
:102F400093030C940F0CE414F5040CF417C80AC096
:102F50004E145F0414F40C94BE0F6415750514F43C
:102F60000C94BE0F0F5F1F4F20E00C94BF0FB801F1
:102F7000CE0185960E9426096DA57EA5CE01839679
:102F80000E942609FFA0F98288A58A834DA14B8360
:102F90002EA12C839BA19D839CA19E83942F322FD5
:102FA0004F1510F09F2DF42E281710F0382F822F78
:102FB0004D80EE80491620F0F41408F4F42C492ECC
:102FC000E31620F08E1508F48E2DE32E512C4CE0E4
:102FD000E49E90011124682E712C2C967FAE6EAE6B
:102FE0002C972E563F4F2E963FAF2EAF2E978F2DFC
:102FF00090E0841595050CF47ECEAE2CB12C812C7E
:10300000912CC42C2C966EAC7FAC2C976A147B044C
:103010000CF46EC0A9AE88A5DFA0642C6D1869A25F
:103020009A2D981B9AA34EA15DA1342D351B26968F
:103030003FAF26973F8F9A2D941B98A39CA13BA14D
:10304000742C731A2A967FAE2A977D8E2A2D291BFF
:103050002E8F252F2D192B8F642F681B6C8F732EAD
:10306000751A798E592F541B5A8FD31ADC8A891BF3
:103070008D8BBE016F5D7F4FCE014B962F962FAF8C
:103080002F970E949D089EAF8DAFBE01615E7F4F5E
:10309000CE0149960E949D088C01BE01635E7F4F60
:1030A000CE0144960E949D0823969FAF8EAF239732
:1030B0002F962FAD2F974DAD5EAD452B31F4622F7E
:1030C000862D0E949708882361F00115110509F0EB
:1030D000D2C0672D26968FAD26970E949708811142
:1030E000CAC03FEFA31AB30A4CE0840E911C8ACFEA
:1030F0002FEF421A520A7BCF8536A1F58091470205
:1031000090914802A0914902B0914A020196A11DF6
:10311000B11D8093470290934802A0934902B09357
:103120004A024091430250914402609145027091DD
:103130004602452B462B472B21F4892B8A2B8B2BC0
:1031400089F484E00E946C0268E471E08091770267
:10315000909178020E94530A64EF71E080E090E061
:103160000E945A016AE070E080E090E00E948101D4
:1031700084E00E94BF0133CECB0101969093BD0540
:103180008093BC05072E000C880B990B0E94BE1E75
:103190004B015C012091B6053091B7054091B8050F
:1031A0005091B9050E941D1F2091AE053091AF05C9
:1031B0004091B0055091B1050E9418202B013C01AF
:1031C0002091B2053091B3054091B4055091B505F9
:1031D000C501B4010E941D1F9B01AC016091AA05AD
:1031E0007091AB058091AC059091AD050E941820BF
:1031F00069837A838B839C834D825E826F8278861B
:10320000BE016F5F7F4FCE0144960E942609CC8895
:103210004D89CE1002C04F1561F1E9A5FAA5EE0F58
:10322000FF1FEE57FA4FC082E9A5FAA5EE0FFF1F68
:10323000ED57FA4F4083D49EC00111246C2D845C5D
:103240009C4F2F964FAF2F970E9458072F964FAD48
:103250002F97833038F421E0280F6C2D8CE393E016
:103260000E942406E9A5FAA53196FAA7E9A7CC8819
:10327000FD88EC2C2DCD23964EAD5FAD2397452BCD
:1032800049F46D2D2A968FAD2A970E9497088823BE
:1032900009F427CF002E000C110B5DAD050F111D99
:1032A00057FD1A9522968FAD2297080F111D87FDA5
:1032B0001A9517FF03C011950195110902301105E8
:1032C0000CF40FCFE3E8F5E020E030E069A47AA445
:1032D00026153705A9F0DF0111978C918C1104C0D8
:1032E000808159AD851719F08FEF9FEF01C0C9019B
:1032F0002F5F3F4F32968F3FAFEF9A0739F302C0EF
:103300008FEF9FEF019609F0ECCE6C2D2E968EADCF
:103310009FAD2E97880D991D86559D4F0E94580789
:10332000882309F4DECE2FEF280F49AD6C2D8CE3F6
:1033300093E00E942406D5CE2F923F924F925F9247
:103340006F927F928F929F92AF92BF92CF92DF92B5
:10335000EF92FF920F931F93CF93DF9310929B01F5
:1033600010929A0188EE882E83E0982EA12CB12C21
:1033700080929C0190929D01A0929E01B0929F012B
:1033800080E191E0909399018093980185EC90E021
:103390009093A5018093A40184EC90E09093A70101
:1033A0008093A60180EC90E09093A9018093A801FE
:1033B00081EC90E09093AB018093AA0182EC90E0C5
:1033C0009093AD018093AC0186EC90E09093AF01B7
:1033D0008093AE011092B1011092B2011092B3012C
:1033E0001092B40110923B0210923C0210923D02E6
:1033F00010923E0210923F0210924002109241023F
:10340000109242021092430210924402109245021E
:1034100010924602109247021092480210924902FE
:1034200010924A0210928B0210928A0210928C0221
:103430002FEF20938D0281E090E090938F02809394
:103440008E0231E03093900220939102C2E0D0E0EE
:10345000D0939302C093920242E04093940220934F
:10346000950243E0A42EB12CB0929702A09296024E
:1034700043E0409398022093990204E010E01093F7
:103480009B0200939A0247E040939C0220939D0286
:1034900055E0252E312C30929F0220929E0248E06A
:1034A0004093A00248EF4093A10246E050E05093C1
:1034B000A3024093A20244E04093A4022093A502F9
:1034C00067E070E07093A7026093A60240E4409327
:1034D000A80240EC4093A9024FE740938602209354
:1034E0008702209388022093890210926908109223
:1034F0006A0810926B0830936C081092650810925D
:103500006608109267081092680840918A025091EC
:103510008B0260918C0270918D0240937D025093DA
:103520007E0260937F02709380021092810210925B
:10353000820210928302109284021092850244E16A
:1035400050E060E070E040930D0850930E086093E7
:103550000F0870931008909316088093150868EE72
:10356000862E63E0962EA12CB12C809219089092A1
:103570001A08A0921B08B0921C089093220880930E
:103580002108A0916D08B0916E08B0931808A0931F
:10359000170810925C0810925B084FE050E060E062
:1035A00070E040931A0650931B0660931C067093BC
:1035B0001D06909323068093220644E650E060E0C7
:1035C00070E0409326065093270660932806709378
:1035D000290690932F0680932E06AD014F5F5F4F13
:1035E0005093250640932406E4ECF0E0E491E09348
:1035F0008407E5ECF0E0E491E093850740EB50E0D0
:10360000FA013491E32FF0E0EE0FFF1FE656FF4F73
:10361000659174917093870760938607E1EBF0E002
:10362000E491F0E0EE0FFF1FE057FF4F65917491BA
:103630007093890760938807FA014491E42FF0E0C2
:10364000EE0FFF1FEA57FF4F6591749170938B0740
:1036500060938A0741EC5CE250938D0740938C079E
:103660005AE0852E912CA12CB12C8092A307909228
:10367000A407A092A507B092A6079093AC078093E9
:10368000AB071092950740E050E060E870E440938B
:103690004006509341066093420670934306C12C46
:1036A000D12CE12C60E4F62EC0924406D09245065F
:1036B000E0924606F092470649EA55ED63E874E465
:1036C000409348065093490660934A0670934B0610
:1036D0004BE050E0509331064093300676E6872E5B
:1036E000982C76EEA72E70E4B72E80925C0690920E
:1036F0005D06A0925E06B0925F0640E050E060E298
:1037000071E4409360065093610660936206709383
:103710006306EDEE8E2EE7E09E2EE4E8AE2EE4EC9E
:10372000BE2E8092640690926506A0926606B092C4
:103730006706ECE0F0E0F0934D06E0934C06FAE902
:103740008F2EF9E99F2EF9E1AF2EF0E4BF2E809283
:10375000780690927906A0927A06B0927B06409302
:103760007C0650937D0660937E0670937F061092D0
:103770008006109281061092820610928306909322
:103780006906809368063AE9432E39E9532E39E1F8
:10379000632E30EC732E4092940650929506609200
:1037A00096067092970640939806509399066093F8
:1037B0009A0670939B0610929C0610929D0610929A
:1037C0009E0610929F06D0938506C0938406E6E677
:1037D0008E2E982CE6EEAE2EE0ECBE2E8092B00639
:1037E0009092B106A092B206B092B3064093B4068E
:1037F0005093B5066093B6067093B7064DEE57E04A
:1038000064E874E44093B8065093B9066093BA062E
:103810007093BB06F3E0AF2EB12CB092A106A0923C
:10382000A00640E050E060E870EC4093CC06509376
:10383000CD066093CE067093CF06C092D006D0928C
:10384000D106E092D206F092D30639EAC32E35EDC6
:10385000D32E33E8E32E34ECF32EC092D406D0926C
:10386000D506E092D606F092D7061093BD060093D7
:10387000BC064093E8065093E9066093EA0670930D
:10388000EB0646E6C42EDC2CEC2C40E4F42EC09271
:10389000EC06D092ED06E092EE06F092EF0641E3E0
:1038A0005AE364E874E44093F0065093F1066093A1
:1038B000F2067093F3063092D9062092D80646E6B7
:1038C00056E666EE70EC409304075093050760934C
:1038D00006077093070740E050E060E271EC409308
:1038E00008075093090760930A0770930B07E5E6F2
:1038F0008E2EE3EA9E2EE3E8AE2EE4ECBE2E8092FE
:103900000C0790920D07A0920E07B0920F07F6E0F9
:10391000AF2EB12CB092F506A092F406409220078B
:103920005092210760922207709223074093240748
:103930005093250760932607709327071BED412EB0
:103940001FE0512E19E4612E10E4712E40922807D9
:103950005092290760922A0770922B07E7E0F0E067
:10396000F0931107E09310070AE9802E09E9902EE1
:1039700009E1A02E00E4B02E80923C0790923D0712
:10398000A0923E07B0923F074093400750934107F3
:103990006093420770934307409244075092450753
:1039A0006092460770924707E8E0F0E0F0932D0739
:1039B000E0932C0736E6832E982C36EEA32E30E4C7
:1039C000B32E8092580790925907A0925A07B0924E
:1039D0005B0740935C0750935D0760935E077093AD
:1039E0005F0745E653EA63E874E440936007509349
:1039F000610760936207709363074DE050E0509356
:103A000049074093480740E050E060E870E4409385
:103A10007407509375076093760770937707C09289
:103A20007807D0927907E0927A07F0927B0741E31A
:103A30005AE364E874EC40937C0750937D076093ED
:103A40007E0770937F074AE050E0509365074093EC
:103A500064074FE0842E912CA12CB12C8092FA05A2
:103A60009092FB05A092FC05B092FD059093030691
:103A70008093020648EC50E060E070E04093060658
:103A800050930706609308067093090690930F06FB
:103A900080930E06AD014E5F5F4F50930506409335
:103AA000040645E050E060E070E04093AA025093C5
:103AB000AB026093AC027093AD029093B30280931B
:103AC000B20242E350E060E070E04093B6025093EF
:103AD000B7026093B8027093B9029093BF028093CB
:103AE000BE02AD014C5F5F4F50936E0840936D086E
:103AF0001396B093B502A093B402D093C102C093C1
:103B0000C0021092C2021092C3021092C40210921C
:103B1000C5021092C6021092C7021092C8021092FB
:103B2000C9021092CA021092CB021092CC021092DB
:103B3000CD021092CE021092CF021092D0021092BB
:103B4000D1024BED5FE069EC7FE34093D4025093E8
:103B5000D5026093D6027093D7021092D8021092C9
:103B6000D9021092DA021092DB0240E050E060E8E5
:103B70007FE34093DC025093DD026093DE0270939A
:103B8000DF024AE050E060E070E04093E0025093D2
:103B9000E1026093E2027093E3029093E902809362
:103BA000E80240E050E060E07FE34093EA02509397
:103BB000EB026093EC027093ED024DEC5CEC6CEC6C
:103BC0007DE34093EE025093EF026093F002709316
:103BD000F1021092F2021092F3021092F40210928B
:103BE000F5021092F6021092F7021092F80210926B
:103BF000F90240E050E06FE773EC4093FA02509313
:103C0000FB026093FC027093FD0240E050E06FE71E
:103C100073E44093FE025093FF026093000370939D
:103C2000010310920A0320930B0332E230930C033A
:103C300036E930930D0358EE852E53E0952EA12CD6
:103C4000B12C80920F0390921003A0921103B092B6
:103C50001203909318038093170344EF51E060E040
:103C600070E04093190350931A0360931B03709301
:103C70001C03109222031092210348EB5BE060E0EA
:103C800070E04093230350932403609325037093C3
:103C9000260310922C0310922B0342E050E060E0C8
:103CA00070E040932E0350932F0360933003709382
:103CB0003103909337038093360382EC92E0909324
:103CC00039038093380320937C0520937F058DEA88
:103CD00097E09093BF058093BE05D0E0C0E020E060
:103CE0004C2F6D2F8CE393E00E942406CF5FC033EE
:103CF000B1F7DF5FD03391F78CE393E090937E05CB
:103D000080937D0510927C059093810580938005BA
:103D100010927F058AE090E0A0E0B0E08093C005BB
:103D20009093C105A093C205B093C30581E090E0D4
:103D30009093C9058093C8051092F6051092F70577
:103D40001092F9051092F805DF91CF911F910F9114
:103D5000FF90EF90DF90CF90BF90AF909F908F90AB
:103D60007F906F905F904F903F902F9008950E94AA
:103D7000F91E08F481E00895E89409C097FB3EF429
:103D800090958095709561957F4F8F4F9F4F9923A8
:103D9000A9F0F92F96E9BB279395F6958795779526
:103DA0006795B795F111F8CFFAF4BB0F11F460FFE6
:103DB0001BC06F5F7F4F8F4F9F4F16C0882311F03E
:103DC00096E911C0772321F09EE8872F762F05C052
:103DD000662371F096E8862F70E060E02AF09A95ED
:103DE000660F771F881FDAF7880F9695879597F9E2
:103DF0000895990F0008550FAA0BE0E8FEEF16167C
:103E00001706E807F907C0F012161306E407F507CE
:103E100098F0621B730B840B950B39F40A2661F042
:103E2000232B242B252B21F408950A2609F4A140E5
:103E3000A6958FEF811D811D08950E94301F0C945F
:103E4000A11F0E94931F38F00E949A1F20F0952313
:103E500011F00C948A1F0C94901F11240C94D51F00
:103E60000E94B21F70F3959FC1F3950F50E0551F4C
:103E7000629FF001729FBB27F00DB11D639FAA27BF
:103E8000F00DB11DAA1F649F6627B00DA11D661F0E
:103E9000829F2227B00DA11D621F739FB00DA11D2F
:103EA000621F839FA00D611D221F749F3327A00DE9
:103EB000611D231F849F600D211D822F762F6A2F85
:103EC00011249F5750409AF0F1F088234AF0EE0FEA
:103ED000FF1FBB1F661F771F881F91505040A9F717
:103EE0009E3F510580F00C948A1F0C94D51F5F3FB4
:103EF000E4F3983ED4F3869577956795B795F79553
:103F0000E7959F5FC1F7FE2B880F911D96958795CA
:103F100097F9089597F99F6780E870E060E0089549
:103F20009FEF80EC089500240A94161617061806D1
:103F30000906089500240A941216130614060506AD
:103F40000895092E0394000C11F4882352F0BB0F3E
:103F500040F4BF2B11F460FF04C06F5F7F4F8F4FA1
:103F60009F4F089557FD9058440F551F59F05F3FDC
:103F700071F04795880F97FB991F61F09F3F79F08B
:103F800087950895121613061406551FF2CF46950D
:103F9000F1DF08C0161617061806991FF1CF86958F
:103FA0007105610508940895E894BB276627772773
:103FB000CB0197F90895A1E21A2EAA1BBB1BFD01A4
:103FC0000DC0AA1FBB1FEE1FFF1FA217B307E407F8
:103FD000F50720F0A21BB30BE40BF50B661F771F50
:103FE000881F991F1A9469F7609570958095909530
:103FF0009B01AC01BD01CF0108950E940820A59F3F
:10400000900DB49F900DA49F800D911D11240895D3
:10401000A29FB001B39FC001A39F700D811D112409
:10402000911DB29F700D811D1124911D089550584E
:10403000BB27AA270E942F200C94A11F0E94931F28
:1040400038F00E949A1F20F039F49F3F19F426F4AB
:104050000C94901F0EF4E095E7FB0C948A1FE92F57
:104060000E94B21F58F3BA176207730784079507B7
:1040700020F079F4A6F50C94D41F0EF4E0950B2EE5
:10408000BA2FA02D0B01B90190010C01CA01A001AA
:104090001124FF27591B99F0593F50F4503E68F105
:1040A0001A16F040A22F232F342F4427585FF3CF46
:1040B000469537952795A795F0405395C9F77EF417
:1040C0001F16BA0B620B730B840BBAF09150A1F060
:1040D000FF0FBB1F661F771F881FC2F70EC0BA0FE6
:1040E000621F731F841F48F4879577956795B7956E
:1040F000F7959E3F08F0B0CF9395880F08F0992769
:10410000EE0F9795879508950E943321E3950C94BF
:104110005C210E949D200C94A11F0E949A1F58F0C0
:104120000E94931F40F029F45F3F29F00C948A1FEE
:1041300051110C94D51F0C94901F0E94B21F68F36C
:104140009923B1F3552391F3951B550BBB27AA2750
:1041500062177307840738F09F5F5F4F220F331F8A
:10416000441FAA1FA9F335D00E2E3AF0E0E832D052
:1041700091505040E695001CCAF72BD0FE2F29D055
:10418000660F771F881FBB1F261737074807AB0727
:10419000B0E809F0BB0B802DBF01FF2793585F4F9C
:1041A0003AF09E3F510578F00C948A1F0C94D51F6D
:1041B0005F3FE4F3983ED4F3869577956795B7957E
:1041C000F7959F5FC9F7880F911D9695879597F989
:1041D0000895E1E0660F771F881FBB1F6217730702
:1041E0008407BA0720F0621B730B840BBA0BEE1F17
:1041F00088F7E09508950E9402216894B1110C940B
:10420000D51F08950E94BA1F88F09F5798F0B92FC4
:104210009927B751B0F0E1F0660F771F881F991FFB
:104220001AF0BA95C9F714C0B13091F00E94D41FAA
:10423000B1E008950C94D41F672F782F8827B85FBA
:1042400039F0B93FCCF3869577956795B395D9F753
:104250003EF490958095709561957F4F8F4F9F4F5D
:1042600008950C94901F0E94BA1FD8F3E894E0E0E0
:10427000BB279F57F0F02AED3FE049EC06C0EE0F58
:10428000BB0F661F771F881F28F0B23A62077307BB
:10429000840728F0B25A620B730B840BE3959A954E
:1042A00072F7803830F49A95BB0F661F771F881F0E
:1042B000D2F790480C94C521EF93E0FF07C0A2EA23
:1042C0002AED3FE049EC5FEB0E942F200E94A11FE6
:1042D0000F90039401FC9058E8E6F0E00C94D8218C
:1042E0000E94F91E08F48FEF08959F930E943321D6
:1042F0000F9007FCEE5F0C945C2119F416F40C94FB
:10430000901F0C94C3210E94BA1FB8F39923C9F3DC
:10431000B6F39F57550B87FF0E94D1210024A0E6DA
:1043200040EA900180585695979528F4805C660F76
:10433000771F881F20F026173707480730F4621BC5
:10434000730B840B202931294A2BA69517940794C7
:10435000202531254A2758F7660F771F881F20F040
:1043600026173707480730F4620B730B840B200DB8
:10437000311D411DA09581F7B901842F9158880FF7
:104380009695879508959F3F31F0915020F4879539
:1043900077956795B795880F911D9695879597F9AD
:1043A000089591505040660F771F881FD2F70895E7
:1043B0009F938F937F936F93FF93EF939B01AC0138
:1043C0000E941D1FEF91FF910E94EC212F913F91C0
:1043D0004F915F910C941D1FDF93CF931F930F9309
:1043E000FF92EF92DF927B018C01689406C0DA2E77
:1043F000EF010E94301FFE01E894A59125913591AF
:1044000045915591A6F3EF010E942F20FE019701DF
:10441000A801DA9469F7DF90EF90FF900F911F9158
:10442000CF91DF91089597FB072E16F4009407D0E3
:1044300077FD09D00E944E2207FC05D03EF49095EE
:1044400081959F4F0895709561957F4F0895052E32
:1044500097FB1EF400940E943E2257FD07D00E9455
:10446000DB1F07FC03D04EF40C943E225095409580
:10447000309521953F4F4F4F5F4F08959095809510
:10448000709561957F4F8F4F9F4F0895B7FF0C94A4
:10449000FD1F0E94FD1F821B930B0895AA1BBB1BCF
:1044A00051E107C0AA1FBB1FA617B70710F0A61B34
:1044B000B70B881F991F5A95A9F780959095BC0155
:1044C000CD010895EE0FFF1F0590F491E02D0994A2
:0E44D00081E090E0F8940C946D22F894FFCFF8
:1044DE0002000000003F0500000000000000000088
:1044EE002A035508F302D102E5027103030C30C012
:1044FE00564D4450565F317C315F564D4450560DEB
:10450E000A00564D4450525F007C005F564D445099
:10451E00520D0A0072756E005F564D44504500569E
:10452E004D4450435F005F564D4450430D0A0056B4
:10453E004D4450455F003A323A00310030002800B9
:10454E002C2000292073657420746F3A2000426578
:10455E00666F72653A200041667465723A202000DB
:00000001FF
