:100000000C9488000C94B0000C94B0000C94B000D8
:100010000C94B0000C94B0000C94B0000C943B0411
:100020000C94B0000C94B0000C94B0000C94B00090
:100030000C94B0000C94B0000C94B0000C94B00080
:100040000C9424030C94B0000C94CD010C94A701E3
:100050000C94B0000C94B0000C94B0000C94B00060
:100060000C94B0000C94B000084AD73B3BCE016E14
:1000700084BCBFFDC12F3D6C74319ABD56833DDAFF
:100080003D00C77F11BED9E4BB4C3E916BAAAABE0E
:10009000000000803F05A84CCDB2D44EB93836A937
:1000A000020C50B9918688083CA6AAAA2ABE000074
:1000B00000803F0000000008000201000003040768
:1000C00000000000000000000000000024002700E5
:1000D0002A00000000002300260029000000000084
:1000E000250028002B000404040404040404020274
:1000F00002020202030303030303010204081020A7
:100100004080010204081020010204081020F017AA
:1001100011241FBECFEFD8E0DEBFCDBF26E0A2E3A3
:10012000B1E001C01D92A339B207E1F711E0A0E0F0
:10013000B1E0EEEEF0E402C005900D92A233B107FB
:10014000D9F710E0C8E8D0E004C02197FE010E9472
:100150006A20C738D107C9F70E942E080C94752071
:100160000C940000FC01918D828D981761F0828DB6
:10017000DF01A80FB11D5D968C91928D9F5F9F73DB
:10018000928F90E008958FEF9FEF0895FC01918D7D
:10019000828D981731F0828DE80FF11D858D90E0EA
:1001A00008958FEF9FEF0895FC01918D228D892F87
:1001B00090E0805C9F4F821B91098F73992708956F
:1001C00083E491E00E94D40021E0892B09F420E02F
:1001D000822F0895FC01848DDF01A80FB11DA35A61
:1001E000BF4F2C91848D90E001968F739927848F57
:1001F000A689B7892C93A089B1898C9180648C934E
:10020000938D848D981306C00288F389E02D808138
:100210008F7D80830895EF92FF920F931F93CF936A
:10022000DF93EC0181E0888F9B8D8C8D981305C046
:10023000E889F989808185FD24C0F62E0B8D10E0B8
:100240000F5F1F4F0F731127E02E8C8DE8120CC02B
:100250000FB607FCFACFE889F989808185FFF5CFD1
:10026000CE010E94EA00F1CF8B8DFE01E80FF11D57
:10027000E35AFF4FF0820B8FEA89FB89808180620D
:1002800007C0EE89FF896083E889F98980818064ED
:10029000808381E090E0DF91CF911F910F91FF90DB
:1002A000EF900895CF93DF93EC01888D8823C9F0F8
:1002B000EA89FB89808185FD05C0A889B9898C916F
:1002C00086FD0FC00FB607FCF5CF808185FFF2CF0A
:1002D000A889B9898C9185FFEDCFCE010E94EA00F3
:1002E000E7CFDF91CF91089580E090E0892B29F04E
:1002F0000E94E00081110C9400000895833081F089
:1003000028F4813099F08230A1F008958730A9F067
:100310008830B9F08430D1F4809180008F7D03C0A3
:10032000809180008F7780938000089584B58F77C7
:1003300002C084B58F7D84BD08958091B0008F7711
:1003400003C08091B0008F7D8093B00008951F920C
:100350000F920FB60F9211242F933F934F935F93F9
:100360006F937F938F939F93AF93BF93EF93FF937D
:1003700083E491E00E94EA00FF91EF91BF91AF9179
:100380009F918F917F916F915F914F913F912F91AD
:100390000F900FBE0F901F9018951F920F920FB6DF
:1003A0000F9211242F938F939F93EF93FF93E091DC
:1003B0005301F09154018081E0915901F0915A016B
:1003C00082FD12C0908180915C018F5F8F732091BC
:1003D0005D01821751F0E0915C01F0E0ED5BFE4FB2
:1003E000958F80935C0101C08081FF91EF919F9177
:1003F0008F912F910F900FBE0F901F901895CF9354
:10040000DF93282F30E0F901EC54FF4F8491F9017C
:10041000E650FF4FD491F901EA51FF4FC491CC232C
:1004200091F081110E947E01EC2FF0E0EE0FFF1F92
:10043000EE52FF4FA591B491EC91ED2381E090E055
:1004400021F480E002C080E090E0DF91CF91089538
:100450001F93CF93DF93282F30E0F901EC54FF4F27
:100460008491F901E650FF4FD491F901EA51FF4F11
:10047000C491CC23C9F0162F81110E947E01EC2F6C
:10048000F0E0EE0FFF1FE452FF4FA591B4918FB73C
:10049000F894111105C09C91ED2FE095E92302C05D
:1004A000EC91ED2BEC938FBFDF91CF911F910895CD
:1004B000CF93DF9390E0FC01E650FF4F2491FC01C5
:1004C000EA51FF4F8491882361F190E0880F991FD2
:1004D000FC01E853FF4FC591D491FC01E452FF4F5A
:1004E000A591B491611109C09FB7F89488812095B6
:1004F00082238883EC912E230BC0623061F49FB776
:10050000F8943881822F809583238883EC912E2B59
:100510002C939FBF06C08FB7F894E8812E2B2883B9
:100520008FBFDF91CF9108951F93CF93DF93182F43
:10053000EB0161E00E945802209711F460E004C0D2
:10054000CF3FD10539F461E0812FDF91CF911F9129
:100550000C942802E12FF0E0EC54FF4FE491E330DB
:10056000F9F048F4E130B9F0E230A1F584B58062E9
:1005700084BDC8BD34C0E730E9F0E83019F1E4309B
:1005800049F580918000806280938000D0938B0039
:10059000C0938A0024C084B5806884BDC7BD1FC0D5
:1005A00080918000806880938000D0938900C09300
:1005B000880015C08091B00080688093B000C0931F
:1005C000B3000DC08091B00080628093B000C093F2
:1005D000B40005C0C038D1050CF0B5CFAFCFDF9166
:1005E000CF911F9108953FB7F89480913F0190916A
:1005F0004001A0914101B091420126B5A89B05C0E0
:100600002F3F19F00196A11DB11D3FBFBA2FA92F91
:10061000982F8827820F911DA11DB11DBC01CD010E
:1006200042E0660F771F881F991F4A95D1F70895FA
:100630002FB7F89460913B0170913C0180913D018E
:1006400090913E012FBF08951F920F920FB60F9207
:1006500011242F933F938F939F93AF93BF938091D8
:100660003B0190913C01A0913D01B0913E01309140
:100670003A0123E0230F2D3720F40196A11DB11D6F
:1006800005C026E8230F0296A11DB11D20933A0153
:1006900080933B0190933C01A0933D01B0933E01B8
:1006A00080913F0190914001A0914101B0914201A0
:1006B0000196A11DB11D80933F0190934001A0932D
:1006C0004101B0934201BF91AF919F918F913F91B2
:1006D0002F910F900FBE0F901F9018952F923F9261
:1006E0004F925F926F927F928F929F92AF92BF9242
:1006F000CF92DF92EF92FF920F931F93CF93DF93EE
:10070000EC011B0169017A014C01092E000CAA08B9
:10071000BB0801301105D1F0C501B4010E94731C62
:100720002B013C0120E030E040E85FE3C701B60167
:100730000E94AB1D9B01AC01C301B2010E94D21CFF
:100740000E94BD1E3B01012BC9F001C03C01C50147
:10075000B4010E94731C4B015C01A701960160E08B
:1007600070E080E89FE30E94AA1D9B01AC01C501D7
:10077000B4010E94D21C0E94BD1EEB016C167D06C6
:1007800044F02C163D0664F081E0621473044CF4CE
:1007900007C02614370424F081E0C215D3050CF4F9
:1007A00080E0DF91CF911F910F91FF90EF90DF904C
:1007B000CF90BF90AF909F908F907F906F905F9001
:1007C0004F903F902F9008950F931F93CF93DF93F7
:1007D0008C0120E030E040E053E4FC016081718155
:1007E000828193810E94D21C20E030E048E453E4EF
:1007F0000E944B1E0E94BD1EEB016138FFEF7F0778
:1008000034F06F3771052CF0CFE7D0E002C0C0E8BC
:10081000DFEF20E030E040E053E4F80164817581CF
:10082000868197810E94D21C20E030E048E453E4A6
:100830000E944B1E0E94BD1E6138FFEF7F0734F0FF
:100840006F3771052CF06FE770E002C060E87FEF52
:100850008C2F962FDF91CF911F910F910895FB015F
:100860009C012C5F3F4FDC014D91CD014193A217BC
:10087000B307C9F708951F920F920FB60F92112474
:100880002F933F934F935F936F937F938F939F9398
:10089000AF93BF93EF93FF93E0913201F091330157
:1008A0000995FF91EF91BF91AF919F918F917F91AA
:1008B0006F915F914F913F912F910F900FBE0F90CD
:1008C0001F901895E0E7F0E080818D7F8083089588
:1008D000CF92DF92EF92FF920F931F93CF93DF930C
:1008E000FC0120853185232BA9F0EC010E9418031F
:1008F000C880D980EA80FB800C811D812E813F81D8
:10090000C00ED11EE21EF31E21E06C157D058E0582
:100910009F0508F420E0822FDF91CF911F910F9166
:10092000FF90EF90DF90CF9008958F929F92AF92BB
:10093000BF92CF92DF92EF92FF920F931F93CF93CC
:10094000DF930E94F30200910D0610910E06209194
:100950000F0630911006061717072807390718F4F5
:100960000E9462044CC0E0910706F0910806908155
:1009700080910406892309F042C00E9462040E940B
:10098000F30220910B0630910C066901E12CF12C49
:1009900000910D0610910E0620910F063091100661
:1009A00046015701801A910AA20AB30A95018401EF
:1009B0000D50110921093109600F711F821F931F0A
:1009C0006093FF05709300068093010690930206E2
:1009D000209111063091120646E2429FE001439FAA
:1009E000D00D1124CF5DDB4F29E330E040E050E033
:1009F0000E94F51F398F288F1092130626C08EE1B2
:100A000096E00E946804882301F18091110690917C
:100A1000120626E2289FF001299FF00D1124EF5DB8
:100A2000FB4F88EC90E0918F808F10921306DF913E
:100A3000CF911F910F91FF90EF90DF90CF90BF90DB
:100A4000AF909F908F900C946204DF91CF911F9193
:100A50000F91FF90EF90DF90CF90BF90AF909F905D
:100A60008F900895CF93DF93EC010E9418036C835D
:100A70007D838E839F8381E090E099878887DF91D3
:100A8000CF910895CF92DF92EF92FF920F931F9331
:100A9000CF93DF936C017A018B01C0E0D0E0CE15DB
:100AA000DF0589F0D8016D918D01D601ED91FC91A2
:100AB0000190F081E02DC6010995892B11F47E018A
:100AC00002C02196ECCFC701DF91CF911F910F910A
:100AD000FF90EF90DF90CF9008950E947020CF920A
:100AE000DF92EF92FF9297FD06C0853B91052CF0B7
:100AF00084EB90E002C080E090E080932502C090FB
:100B000026022091270230E02C193109D12CE12C4A
:100B1000F12CFE2CED2CDC2CCC24A901330F660B20
:100B2000770B2227342F452F562FDC010E943620C9
:100B300024EB30E040E050E00E941720C701B601EE
:100B4000620F731F841F951F28E030E040E050E0E3
:100B50000E94172080912402893029F43093890063
:100B60002093880004C030938B0020938A00FF906C
:100B7000EF90DF90CF900895FC0120816181862F56
:100B800090E0A0E0B0E0DC0199278827B22B238118
:100B9000822B2281BC01CD01722B08954F925F926E
:100BA0006F927F928F929F92AF92BF92CF92DF927D
:100BB000EF92FF92CF93DF93CDB7DEB72C970FB6AE
:100BC000F894DEBF0FBECDBF3C012B014F3F8FEF2E
:100BD000580781F14130510509F00AC1DB01CD9080
:100BE000DD90ED90FC90F30180809180A280B38035
:100BF00027E137EB41ED58E3C701B6010E94AA1D7A
:100C00009B01AC01C501B4010E94591F87FD62C060
:100C100027E137EB41ED58E3C701B6010E94AB1D58
:100C20009B01AC01C501B4010E946C1C18160CF4A8
:100C300051C02EC0DB011496CD90DD90ED90FC905C
:100C40001797F30160817181828193819B01AC01CF
:100C50000E94AB1DD2012D913D914D915C910E945E
:100C6000AA1D69837A838B839C83CD82DE82EF8287
:100C7000F88641E050E0BE016F5F7F4FC3010E94E4
:100C8000CE056B017C01F7FAF094F7F8F094B0C050
:100C9000F3012481358146815781D20114966D91EB
:100CA0007D918D919C9117970E94591F18164CF4B5
:100CB0009BEDC92E9FE0D92E99ECE92E9FE3F92EEA
:100CC00097C084EEC82E8BECD82E86E9E82E80E4FF
:100CD000F82E8EC0A5019401C701B6010E94591FCC
:100CE00018160CF05FC0D20114968D919D910D9055
:100CF000BC91A02D89879A87AB87BC87F30144807C
:100D0000558066807780A3019201BC01CD010E94CD
:100D1000591FA301920187FD2AC069857A858B85B9
:100D20009C850E94AA1D2B013C01A5019401C701CD
:100D3000B6010E94AA1D9B01AC01C301B2010E9431
:100D40004B1E2C960FB6F894DEBF0FBECDBFDF91C1
:100D5000CF91FF90EF90DF90CF90BF90AF909F909A
:100D60008F907F906F905F904F900C94171E6985C5
:100D70007A858B859C850E94AA1D2B013C01A501CB
:100D80009401C701B6010E94AA1D9B01AC01C301D9
:100D9000B2010E944B1E0E94171E2BED3FE049EC52
:100DA00050E422C0D30114962D913D914D915C9158
:100DB0001797F20164817581868197810E94AA1D2F
:100DC0002B013C01A5019401C701B6010E94AA1D97
:100DD0009B01AC01C301B2010E944B1E0E94171E71
:100DE0002BED3FE049E450E40E94AB1D6B017C0118
:100DF000C701B6012C960FB6F894DEBF0FBECDBF6B
:100E0000DF91CF91FF90EF90DF90CF90BF90AF90A8
:100E10009F908F907F906F905F904F9008958F92EA
:100E20009F92AF92BF92EF92FF920F931F93CF9337
:100E3000DF93CDB7DEB728970FB6F894DEBF0FBEAD
:100E4000CDBFECECF3E060817181CB010196918321
:100E50008083072E000C880B990B0E94731C4B019A
:100E60005C012091C6033091C7034091C8035091A3
:100E7000C9030E94D21C2091BE033091BF03409150
:100E8000C0035091C1030E94AB1D162FE72EF82E10
:100E9000092F2091C2033091C3034091C4035091A4
:100EA000C503C501B4010E94D21C9B01AC01609135
:100EB000BA037091BB038091BC039091BD030E9463
:100EC000AB1D9B01AB01BC0149835A836B837C83BF
:100ED000412F5E2D6F2D702F4D835E836F8378873A
:100EE0003A814B815C81612F7E818F819885289624
:100EF0000FB6F894DEBF0FBECDBFDF91CF911F912B
:100F00000F91FF90EF90BF90AF909F908F900895BA
:100F10004F925F926F927F928F929F92AF92BF9209
:100F2000CF92DF92EF92FF92CF93DF93EB01FC0120
:100F300080809180A280B3808092BA039092BB039C
:100F4000A092BC03B092BD032481358146815781B4
:100F50002093BE033093BF034093C0035093C1035B
:100F60006C817D818E819F810E94AA1D6B017C0115
:100F7000A5019401688179818A819B810E94AA1DC3
:100F80004B015C019B01AC010E94D21C2B013C0176
:100F9000A7019601C701B6010E94D21C9B01AC01BA
:100FA000C301B2010E94AB1D0E94741F20E030E01B
:100FB00040E251E40E944B1E20E030E040E85FE355
:100FC0000E94AB1D2B013C0120E030E040EA50E4E0
:100FD0000E946C1C87FF05C0C301B2010E94BD1EA8
:100FE00002C065E070E07093CB036093CA03072EE4
:100FF000000C880B990B0E94731C2B013C019B0178
:10100000AC01C501B4010E944B1E6093C2037093F2
:10101000C3038093C4039093C503A3019201C70146
:10102000B6010E944B1E6093C6037093C703809362
:10103000C8039093C9031092CD031092CC03DF91A3
:10104000CF91FF90EF90DF90CF90BF90AF909F90A7
:101050008F907F906F905F904F900895CF93DF9324
:10106000CDB7DEB7CC57D1090FB6F894DEBF0FBEAF
:10107000CDBF789484B5826084BD84B5816084BD21
:1010800085B5826085BD85B5816085BD80916E0026
:10109000816080936E001092810080918100826057
:1010A0008093810080918100816080938100809194
:1010B00080008160809380008091B1008460809383
:1010C000B1008091B00081608093B00080917A007F
:1010D000846080937A0080917A00826080937A00A5
:1010E00080917A00816080937A0080917A00806894
:1010F00080937A001092C100E0915301F091540165
:1011000082E08083E0914F01F09150011082E091E4
:101110005101F09152018FEC808310925B01E091BC
:101120005701F091580186E08083E0915501F091DC
:101130005601808180618083E0915501F0915601D4
:10114000808188608083E0915501F0915601808113
:1011500080688083E0915501F091560180818F7DF8
:101160008083109248061092470661E088E00E9452
:10117000580261E087E00E94580261E08BE00E9423
:10118000580261E08AE00E945802E9E3F4E088EC4A
:1011900090E0918380839383828395838483978374
:1011A0008683918780879387828795878487178630
:1011B0001686B69626E0E130F20759F781E0809373
:1011C0001406109213068BE090E090931206809321
:1011D000110684E090E09093160680931506109215
:1011E0001D0660E082E00E94580260E084E00E94F8
:1011F000580260E083E00E94580260E08EE00E94A6
:10120000580260E08FE00E94580260E080E10E9496
:10121000580260E081E10E94580260E082E10E9491
:10122000580261E083E10E9458020E941803609313
:101230001504709316048093170490931804109269
:101240001A041092190410921B0410921C0410929C
:101250001D0410921E041092200410921F0461E0DD
:1012600085E00E94580261E086E00E94580289E011
:10127000809324028FEF8093250260E089E00E9432
:10128000280261E0809124020E9458028091350179
:10129000811122C08091340181111EC02FB7F894B2
:1012A00082E0809380008AE18093810088EB9BE05C
:1012B000909389008093880090938B0080938A009C
:1012C00080E49CE9909387008093860080916F0072
:1012D000887F80936F002FBF80912402893041F472
:1012E00081E080933501809180008F73806807C012
:1012F00081E080933401809180008F7C80628093B4
:10130000800010922002109221021092220210926C
:1013100023028AE590E00E946F0510921C02109251
:101320001D0210921E0210921F0288E296E00E9497
:101330006804882309F424C184E396E00E946804C9
:1013400081111AC183E491E00E94D400009709F44E
:10135000ACC0409147065091480629E030E0241B7C
:10136000350B8C01281739070CF48901A12CB12CFD
:10137000912C42E0E42EF12CCC24C394D12CA01665
:10138000B1060CF06AC083E491E00E94B2002091A3
:101390006706309168062130310541F12230310570
:1013A000E1F1232B09F055C0209147063091480602
:1013B000F901EA51FE4F9081891313C0A9014F5FD3
:1013C0005F4F5093480640934706F901E85DF94F97
:1013D000868B44305105E9F5D0926806C0926706C5
:1013E00038C0109248061092470633C02091470635
:1013F00030914806A9014F5F5F4F509348064093D4
:101400004706F901E85DF94F868B4530510509F52E
:10141000F0926806E09267061CC020914706309162
:101420004806A9014F5F5F4F509348064093470617
:10143000F901E85DF94F868B4930510551F410925E
:101440004806109247061092680610926706992483
:1014500093943FEFA31AB30A92CF992031F1809170
:10146000420690E090934A0680934906BE016F5F62
:101470007F4F83E496E00E942F046BE476E0CE0178
:1014800001960E942F0481E090E090936A06809379
:10149000690690936C0680936B0690936E0680931A
:1014A0006D069093700680936F0621E7E22E26E08A
:1014B000F22E00E010E035E0B32E6E0142E1C40EE2
:1014C000D11CD7018D919C911197892B09F447C0AC
:1014D0001D921C92F801E85DF94FA7A0BE016F5F55
:1014E0007F4F86EE91E00E942F04AD82FE0131967F
:1014F000DE01A35BBF4F8B2D01900D928A95E1F722
:10150000FE01E35BFF4FDE01AE5ABF4F8B2D019012
:101510000D928A95E1F7FE01EE5AFF4FDE011D960E
:101520008B2D01900D928A95E1F7C8018F5A994F42
:10153000FE013D96DE01119621912D93EC15FD05DE
:10154000D9F7BE016A5F7F4F0E942F0449E050E047
:10155000BE016F5F7F4F83E491E00E944205B2E0DD
:10156000EB0EF11C0A5F1F4F0831110509F0A9CFDE
:1015700088E296E00E94320584E396E00E943205FC
:1015800081E294E00E946804882309F4AEC28DE2EF
:1015900094E00E9468048111A4C2809114068823FB
:1015A00009F49BC2E0912B04F0912C04EE0FFF1F75
:1015B000E759F94F80819181892B09F443C0118249
:1015C00010828091490690914A0690931806809364
:1015D000170669E176E08BE496E00E942F04809183
:1015E000170690911806409769F589E196E00E94E8
:1015F000BC0521E0672B682B692B09F420E02093C0
:101600001D0600912B0410912C0486E0809FB001F0
:10161000819F700D11248091E0019091E101615B47
:10162000794FFB0181939193BF0182EE91E00E947B
:101630002F04000F111FF801EF58F94F81E090E0DF
:101640009183808380911306811147C220901106F7
:1016500030901206FBE02F16310429F080911D0610
:10166000811124C133C14090150650901606A796EB
:101670005FAE4EAEA797C201049665E070E00E948F
:10168000E11FAE968FAFAE97AF969FAFAF97440C6A
:10169000551CA9965FAE4EAEA99709E3E02E04E073
:1016A000F02E6B961FAE1EAE6B97D7018D919C915D
:1016B000009711F05C0103C0B8ECAB2EB12CA996D9
:1016C000EEADFFADA997EE0DFF1DB382A282883C5F
:1016D000910519F0E0E0F1E002C0E6E0F1E04080C1
:1016E0005180A3965FAE4EAEA39742805380648034
:1016F0007580D7011C960D90BC91A02D6F96BFAF41
:10170000AEAF6F9702E010E0A3019201B501CD01E9
:101710000E946E03882321F0F701B586A48665C078
:10172000AE96CFACAE97AF96DFACAF97812C912C35
:10173000A3E16B968EAD9FAD6B97A89FA001A99F6B
:10174000500D1124AD965FAF4EAFAD97A796EEAD9D
:10175000FFADA797CE16DF06B9F1A3962EAD3FAD2C
:10176000A3978216930684F501E010E06F962EADE4
:101770003FAD6F97A216B30614F000E010E0AD96EF
:10178000EEADFFADAD97EC0DFD1DEE0FFF1FE55C5F
:10179000FB4F60817181A30192016F968EAD9FAD69
:1017A0006F970E946E03811105C03FEF831A930A61
:1017B00020E001C021E0C601049665E070E00E94CF
:1017C000E11F6C01222311F2A3968EAD9FADA3976A
:1017D00001978816990624F46F96AEACBFAC6F974C
:1017E000D7011D96BC92AE921C97F7016485758552
:1017F000072E000C880B990B0E94731C4B015C0197
:101800002BED3FE049EC5FE3D70158966D917D9158
:101810008D919C915B970E94AB1D2B013C010E9416
:10182000461E9B01AC01C501B4010E94D21C9B0164
:10183000AC01F70160897189828993890E94AB1D8F
:10184000D7015C966D937D938D939C935F97C301B5
:10185000B2010E94661F9B01AC01C501B4010E9448
:10186000D21C9B01AC01F70164897589868997892F
:101870000E94AB1DD70190966D937D938D939C93A1
:1018800093976B96EEADFFAD6B9731966B96FFAF6E
:10189000EEAF6B97F6E2EF0EF11C6B962EAD3FADFF
:1018A0006B972C30310509F000CFD8CE20FE0EC04A
:1018B000E0912B04F0912C04EE0FFF1FEF58F94F2D
:1018C00080819181029714F40C94A816209111063E
:1018D000309112062B30310569F4809115069091F4
:1018E0001606019665E070E00E94E11F90931606CF
:1018F00080931506C90101966CE070E00E94E11F1B
:101900009093120680931106AC014F5F5F4F26E261
:10191000249FF001259FF00D1124EF5DFB4F4081C6
:1019200051814B3051050CF0D8C0289FF001299F00
:10193000F00D1124EF5DFB4F06891789602F617050
:1019400088E00E942802B80176956795617087E06B
:101950000E942802B8017695679576956795617023
:101960008BE00E94280263E0169507956A95E1F7DF
:10197000602F61708AE00E94280281E08093130644
:101980000E9462048EE196E00E943205E091090611
:10199000F0910A06908180910306892B8083E09163
:1019A0000506F091060690818091030680958923B3
:1019B00080838BE090E00197F1F7E0910506F091CC
:1019C0000606908180910306892B808383E290E054
:1019D0000197F1F7E0910506F0910606908180915C
:1019E0000306809589238083E0910906F0910A0619
:1019F000908180910306809589238083E09107067A
:101A0000F0910806908180910406892309F065C051
:101A10000E94F30220910B0630910C06890120E010
:101A200030E00855194E2F4F3F4FDC01CB01800F9E
:101A3000911FA21FB31F80930D0690930E06A093D3
:101A40000F06B0931006E0910706F091080690810A
:101A500080910406892381F40E94F30200910D060F
:101A600010910E0620910F063091100606171707E9
:101A70002807390740F731C00E94F30220910B0676
:101A800030910C06DC01CB01820F931FA11DB11D0B
:101A900080930D0690930E06A0930F06B093100648
:101AA00085E994E090933301809332010E946204AF
:101AB0008091B6008F7D8093B60082E08093B00065
:101AC00084E08093B1001092B20085E08093B3006F
:101AD0008091700082608093700081E294E00E94A7
:101AE00032058DE294E00E9432058FEF93E00E9470
:101AF0006804882309F4A9C08BE094E00E9468047C
:101B000081119FC00E9418036B017C0160E083E19A
:101B10000E94280282E10E94FF01082F81E10E94B9
:101B2000FF018295880F880F807C182F30E8039F73
:101B30001019112480E10E94FF01882E8FE00E947D
:101B4000FF01982E8EE00E94FF01A82E83E00E94E4
:101B5000FF01082F84E00E94FF01B82E82E00E945E
:101B6000FF01810F182F40E2849E100D112450E1D7
:101B7000959E100D112488E0A89E100D1124000FD1
:101B8000000F010FBB0C0B0D002E000C110B61E0C0
:101B900083E10E9428024091190450911A0498018F
:101BA000241B350BC90137FF04C088279927821BE6
:101BB000930B81389105C4F0C90193953A95DC01E6
:101BC00097FF04C0AA27BB27A81BB90BF90137FF51
:101BD00004C0EE27FF27E21BF30BEA17FB070CF408
:101BE000C901840F951F01C0C80180901504909011
:101BF0001604A0901704B090180426013701481865
:101C000059086A087B0840921B0450921C04609299
:101C10001D0470921E04841B950B909320048093E6
:101C20001F04C0921504D0921604E0921704F0929B
:101C3000180410931A04009319048FEF93E00E9484
:101C400032058BE094E00E9432058AEE91E00E941A
:101C50006804882311F40C94A41686EF91E00E9486
:101C60006804A6968FAFA69781110C94A016C09019
:101C70001B04D0901C04E0901D04F0901E04C114BD
:101C8000D104E104F10459F180911F0490912004E2
:101C9000BC01990F880B990B0E94731C20E030E067
:101CA00046E155E40E944B1E26E636E642EA51E440
:101CB0000E94D21C4B015C01C701B6010E94711C3D
:101CC0009B01AC01C501B4010E944B1E20E030E035
:101CD0004AE754E40E94D21C1B012C0103C0212CB2
:101CE000312C2101209120023091210240912202C9
:101CF000509123026D962CAF3DAF4EAF5FAF6D9705
:101D000082E092E00E946804882309F4FAC0C0903F
:101D10001C02D0901D02E0901E02F0901F0220E0F5
:101D200030E0A901C701B6010E946C1C811115C0E9
:101D300020E030E040E85FEBC201B1010E94591F92
:101D400087FD0BC020E030E040E85FE3C201B10155
:101D50000E946C1C18160CF0C6C0A2019101C701AC
:101D6000B6010E94AA1D6B017C010E9418034B0161
:101D70005C0120910C0230910D0240910E025091B5
:101D80000F02C701B6010E94D21CA1966CAF7DAFB5
:101D90008EAF9FAFA1972091140230911502409110
:101DA000160250911702C701B6010E94AA1DA596FE
:101DB0006CAF7DAF8EAF9FAFA597809106029091DB
:101DC0000702A0910802B0910902A5019401281B05
:101DD000390B4A0B5B0BCA01B9010E94711C9B01B4
:101DE000AC01A5966CAD7DAD8EAD9FADA5970E9463
:101DF0004B1E20911002309111024091120250911D
:101E000013020E94D21C9B01AC01A1966CAD7DAD6A
:101E10008EAD9FADA1970E94AB1D2091180230910D
:101E2000190240911A0250911B020E94AB1D4B01F6
:101E30005C0120E030E04FE753E40E94591F181680
:101E40002CF480E090E0AFE7B3E417C020E030E08E
:101E50004FE753ECC501B4010E946C1C87FD09C01B
:101E60008092180290921902A0921A02B0921B025C
:101E70000CC080E090E0AFE7B3EC80931802909341
:101E80001902A0931A02B0931B02C0921402D092BE
:101E90001502E0921602F0921702609118027091FA
:101EA000190280911A0290911B020E94BD1E6B01C3
:101EB0007C01CB0181509F4F8F3F9140F0F41D2D4D
:101EC0001095111F1127111F11F0B60102C060E01B
:101ED00070E085E00E94940211110AC066277727FE
:101EE0006C197D0907C060E070E085E00E949402F3
:101EF00060E070E086E00E94940282E092E00E943E
:101F00003205E091F401F091F501EE0FFF1FE75962
:101F1000F94F60807180E9967FAE6EAEE9976728D1
:101F200081F0118210828091490690914A06909327
:101F3000F5038093F40366EF73E08BE496E00E9470
:101F40002F0480910002909101028130910509F4E3
:101F500038C6029709F0F0C62CE030E06F963FAF2C
:101F60002EAF6F97612C712CC30101966CE070E06D
:101F70000E94E11F3C0136E2389FF001399FF00DCD
:101F80001124EF5DFB4F84A995A9A6A9B7A9898360
:101F90009A83AB83BC8380AD91ADA2ADB3AD8D838D
:101FA0009E83AF83B887BE016F5F7F4FCE010D96D2
:101FB0000E9488072091CC033091CD038091CA0301
:101FC0009091CB03281739070CF092C00E940F079D
:101FD0002D8F3E8F4F8F58A369A37AA38BA39CA309
:101FE000FE017D96DE01959688E001900D928A951E
:101FF000E1F78DA09EA0AFA0B8A4C9A4DAA4EBA479
:10200000FCA420E030E0A901C501B4010E94591FE1
:1020100087FD0BC0C501B4010E94BD1E072E000C38
:10202000880B990B0E94731C08C020E030E040EE42
:1020300050E4C501B4010E94AA1D20E030E040E058
:102040005EE30E94D21C20E030E048EC51E40E94A4
:10205000AB1D0E94BD1E8B0120E030E0A901C7012D
:10206000B6010E94591F87FD0BC0C701B6010E942F
:10207000BD1E072E000C880B990B0E94731C08C014
:1020800020E030E040EE50E4C701B6010E94AA1DF6
:1020900020E030E040E05EE30E94D21C20E030E02F
:1020A00048EC51E40E94AB1D0E94BD1E0233110595
:1020B00008F080CF6233710508F07CCFCB0123E0BC
:1020C000959587952A95E1F747E0409FD001419F7C
:1020D000B00D1124A80FB91FA45ABD4F6770772700
:1020E000FB01E45EFE4F90818C91892B8C9362CF33
:1020F00089819A81AB81BC818D879E87AF87B88BA0
:102100008D819E81AF81B885898B9A8BAB8BBC8B7F
:102110006F968EAD9FAD6F9701976F969FAF8EAF05
:102120006F97892B09F020CF8091FD039091FE03DA
:1021300001969093FE038093FD036D962CAD3DAD0B
:102140004EAD5FAD6D972093D2033093D303409390
:10215000D4035093D50320E030E0A9016D966CAD17
:102160007DAD8EAD9FAD6D970E94591F87FF03C057
:102170000FEF1FEF02C001E010E01093D7030093B0
:10218000D6032092CE033092CF034092D0035092D8
:10219000D10327E137EB41ED58EB6D966CAD7DAD8A
:1021A0008EAD9FAD6D970E94591F87FD23C627E115
:1021B00037EB41ED58E36D966CAD7DAD8EAD9FADC7
:1021C0006D970E946C1C18160CF414C61092E40350
:1021D0001092E5031092E6031092E7031092E803D1
:1021E0001092E9031092EA031092EB031092E003BD
:1021F0001092E1031092E2031092E3031092DC03C9
:102200001092DD031092DE031092DF031092D803C8
:102210001092D9031092DA031092DB0321EE3EE212
:1022200045E652E460915104709152048091530448
:10223000909154040E94D21C9B01AC016D966CAD30
:102240007DAD8EAD9FAD6D970E94AA1D6B017C0187
:1022500020E030E0A9010E94591F181624F0F7FA77
:10226000F094F7F8F094B7E7AB2EB4E0BB2E212C36
:10227000312C01E010E021EE3EE245E652E4D501CA
:102280006D917D918D919C910E94D21C9B01AC011E
:102290006D966CAD7DAD8EAD9FAD6D970E94AA1D04
:1022A0002B013C0120E030E0A9010E94591F1816C3
:1022B00024F077FA709477F87094A7019601C3011F
:1022C000B2010E946C1C87FF03C0180173016201F8
:1022D0000F5F1F4FB6E2AB0EB11C0C30110559F663
:1022E000C10195958795E6E02E16310444F09C01D6
:1022F0002D5F3F4FE7963FAF2EAFE79704C0E796BD
:102300009FAF8EAFE797E7964EAC5FACE797A3968B
:102310005FAE4EAEA3979E012F5F3F4FE5963FAF56
:102320002EAFE597AE01435F5F4F69965FAF4EAF4B
:102330006997AC961FAEAC97AE961FAEAE9700E015
:1023400010E026E2A3964EAC5FACA397249DF0016B
:10235000259DF00D1124EF5DFB4F84A995A9A6A939
:10236000B7A929968CAF9DAFAEAFBFAF299780AD0F
:1023700091ADA2ADB3AD2D968CAF9DAFAEAFBFAF5B
:102380002D97C20101966CE070E00E94E11FA396B8
:102390009FAF8EAFA397289FF001299FF00D1124C6
:1023A000EF5DFB4F84A995A9A6A9B7A921968CAF8B
:1023B0009DAFAEAFBFAF219780AD91ADA2ADB3AD34
:1023C00025968CAF9DAFAEAFBFAF2597BE01635CC6
:1023D0007F4FCE018B5B9F4F0E948807AF961FAE49
:1023E000AF972091CC033091CD038091CA03909197
:1023F000CB03281739070CF029C30E940F072DA71C
:102400003EA74FA758AB69AB7AAB8BAB9CABFE0139
:10241000BD96DE01D59688E001900D928A95E1F790
:102420004DA85EA86FA878AC29AD3AAD4BAD5CADB8
:102430006D962CAF3DAF4EAF5FAF6D9720E030E0B3
:10244000A9016091E0037091E1038091E203909112
:10245000E3030E946C1C882309F438C2C090DC039B
:10246000D090DD03E090DE03F090DF03D701C601DA
:10247000B0588D8B9E8BAF8BB88F198E1A8E1B8E9A
:102480001C8EA7019601C301B2010E94AB1D4B0136
:102490005C016D877E878F87988B20E030E040E27B
:1024A00051E46D966CAD7DAD8EAD9FAD6D970E9484
:1024B000AB1D6D966CAF7DAF8EAF9FAF6D97698B87
:1024C0007A8B8B8B9C8B4091D6035091D703BE01A6
:1024D000635F7F4FCE0145960E94CE05ED966CAFAF
:1024E0007DAF8EAF9FAFED974090E4035090E50332
:1024F0006090E6037090E70320E030E0A901C3019B
:10250000B2010E946C1C882309F1A7019601C50144
:10251000B4010E94AB1D9B01AC010E94D21C6B0157
:102520007C016D962CAD3DAD4EAD5FAD6D97CA0192
:10253000B9010E94D21C9B01AC01C701B6010E94E7
:10254000AB1D0E94741F4B015C010DC020E030E008
:10255000A901C501B4010E94591F181624F0B7FA49
:10256000B094B7F8B09420E030E0A901C301B20103
:102570000E94591FA301920118160CF05058C50172
:10258000B4010E94AA1D20E030E0A9010E94591F59
:1025900020E030E0A9011816A4F4C301B2010E94A2
:1025A000591FA301920118160CF05058C501B4012F
:1025B0000E94AA1D6D966CAF7DAF8EAF9FAF6D97D9
:1025C00016C0C301B2010E94591FA301920118163F
:1025D0000CF05058C501B4010E94AA1D9B01AC012A
:1025E00050586D962CAF3DAF4EAF5FAF6D97C0901A
:1025F000E803D090E903E090EA03F090EB0320E0D9
:1026000030E0A901C701B6010E94591FA701960138
:1026100018160CF05058C501B4010E94AA1D20E004
:1026200030E0A9010E94591F20E030E0A9011816EE
:10263000A4F4C701B6010E94591FA70196011816FC
:102640000CF05058C501B4010E94AA1DA1966CAFB0
:102650007DAF8EAF9FAFA19716C0C701B6010E9494
:10266000591FA701960118160CF05058C501B40166
:102670000E94AA1D9B01AC015058A1962CAF3DAF02
:102680004EAF5FAFA19720E030E0A901C701B601CE
:102690000E94591F181624F0F7FAF094F7F8F094F6
:1026A00020E030E0A901C301B2010E94591F1816B1
:1026B00054F0D301C201B058AB968CAF9DAFAEAF12
:1026C000BFAFAB9706C0AB964CAE5DAE6EAE7FAE05
:1026D000AB97AB962CAD3DAD4EAD5FADAB97C701A3
:1026E000B6010E94591F87FD0FC0AB962CAD3DADC2
:1026F0004EAD5FADAB97C501B4010E94591F87FD78
:102700001EC0A70196010EC0A7019601C501B40124
:102710000E94591F87FD13C0AB962CAD3DAD4EAD49
:102720005FADAB97C501B4010E946C1C18163CF05C
:10273000C12CD12CF0E8EF2EFFEBFF2E06C0C12CF0
:10274000D12CE0E8EE2EEFE3FE2EA1962CAD3DADB0
:102750004EAD5FADA1976D966CAD7DAD8EAD9FAD6D
:102760006D970E946C1C87FD0DC06E967FAD6E97B5
:102770006F966FAD6F97A0969FADA097A1968FAD06
:10278000A1970CC06A967FAD6A976B966FAD6B97F9
:102790006C969FAD6C976D968FAD6D97272F362FEA
:1027A000492F582FC701B6010E94D21C4B015C0172
:1027B00020E030E040E050E40E946C1C18160CF45D
:1027C000F4C0A1962CAD3DAD4EAD5FADA1976D9619
:1027D0006CAD7DAD8EAD9FAD6D970E946C1CA3015D
:1027E000920187FF40C06091EC037091ED038091EE
:1027F000EE039091EF030E94AA1D6B017C0120E083
:1028000030E0A9010E94591F181624F0F7FAF0943D
:10281000F7F8F094A70196016D966CAD7DAD8EAD85
:102820009FAD6D970E946C1CA301920187FF1BC096
:1028300060E070E080EA91E40E944B1E0E94171E47
:102840002B013C01A70196016D966CAD7DAD8EAD5F
:102850009FAD6D970E944B1E9B01AC01C301B2015D
:102860000E94D21C08C060E070E080EA91E40E94FF
:102870004B1E0E94171E9B01AC01ED966CAD7DAD09
:102880008EAD9FADED970E94AA1D2091F00330916F
:10289000F1034091F2035091F3030E94D21C209166
:1028A000CE033091CF034091D0035091D1030E94C9
:1028B0004B1EE0966FAFE097E1967FAFE197E2960F
:1028C0008FAFE297E3969FAFE3976FC0A3019201AA
:1028D00060E070E080E091EC0E94AA1D6B017C0139
:1028E00020E030E0A9010E94591F181624F0F7FAE1
:1028F000F094F7F8F094A301920160E070E080E0BA
:1029000091E40E94AA1D4B015C0120E030E0A90186
:102910000E94591F181624F0B7FAB094B7F8B09473
:1029200020E030E040E051ECC301B2010E94591FA9
:1029300087FD11C020E030E040E051E4C301B20166
:102940000E946C1C18163CF0412C512C70E8672E2C
:102950007FEB772E06C0412C512C60E8662E6FE38A
:10296000762EA5019401C701B6010E946C1C87FD5B
:1029700005C0782D692D9A2D8B2D04C07C2D6D2DD1
:102980009E2D8F2D272F362F492F582FC301B2018F
:102990000E94D21C4B015C0120E030E040E050E49A
:1029A0000E946C1C18160CF0E6C220E030E040E0FB
:1029B00050E4C501B4010E946C1C18160CF411CD32
:1029C000AF964FACAF97442051F1AC962FADAC977A
:1029D000AE963FADAE97A801E0966FADE097E19659
:1029E0007FADE197E2968FADE297E3969FADE397D7
:1029F0000E946C1C87FFF5CCE0965FACE097AC962C
:102A00005FAEAC97E1966FACE197AE966FAEAE97C6
:102A1000E2960FADE297E3961FADE397E2CCE09626
:102A20007FACE097AC967FAEAC97E1964FACE19768
:102A3000AE964FAEAE97E2960FADE297E3961FAD1E
:102A4000E39721E0AF962FAFAF97CBCCAF964FACCB
:102A5000AF97442041F0AC968FADAC97AE969FAD4A
:102A6000AE97D80103C080E090E0DC01E596EEADC2
:102A7000FFADE59781939193A193B193E596FFAF55
:102A8000EEAFE59721968CAD9DADAEADBFAD219774
:102A900029968CAF9DAFAEAFBFAF299725968CAD71
:102AA0009DADAEADBFAD25972D968CAF9DAFAEAFB2
:102AB000BFAF2D9769964EAC5FAC6997E415F505ED
:102AC00009F03FCC1091FB03F101E7966EAC7FACAF
:102AD000E797E619F709EE0FFF1FEE0FFF1FEC0F48
:102AE000FD1FC180D280E380F480A7019601C70159
:102AF000B6010E946C1C81111AC020E030E0A901CF
:102B0000C701B6010E94591F18168CF421E0A69641
:102B10002FAFA69720E030E040E85FE3C701B601A1
:102B20000E946C1C18161CF4A6961FAEA697A696BB
:102B30008FADA697812B8093FB03111142C0882390
:102B400009F43FC0C10166E070E00E94E11F0296F7
:102B5000059728F460E070E08CE092EC04C060E03F
:102B600070E08CE092E460932002709321028093E5
:102B700022029093230220E030E044EB52E40E94D2
:102B8000AB1D0E94BD1E9B012E5131092937310515
:102B900018F4CB010E946F0584E392E00E94320595
:102BA00020E030E040E05FE3C701B6010E946C1C0A
:102BB00018163CF08EE392E00E94320581E080938B
:102BC000FC03E9964EAC5FACE997452809F46EC06A
:102BD0008091F4039091F50382309105B9F0833030
:102BE0009105B1F1019709F05CC08091FC0381115E
:102BF00058C086EF93E00E94BC0560931C0270935E
:102C00001D0280931E0290931F024BC08091FB0314
:102C1000811147C086EF93E00E94BC0560932002BB
:102C200070932102809322029093230220E030E0EF
:102C300044EB52E40E94AB1D0E94BD1E9B012E512D
:102C400031092937310568F5CB010E946F0529C08C
:102C500086EF93E00E94BC0570930102609300022E
:102C60000091F4011091F50186E0809FB001819FF1
:102C7000700D11248091E0019091E101615B794F29
:102C8000DB018D939D93BD0182EE91E00E942F04A4
:102C9000000F111FF801EF58F94F81E090E0918388
:102CA00080838AE292E00E9432050DC08AE292E0BF
:102CB0000E946804882339F08EE392E00E94320576
:102CC00081E08093FC038091FB038823E1F084E39F
:102CD00092E00E9468048823B1F049E050E064E289
:102CE00071E083E491E00E94420542E050E06EE230
:102CF00071E083E491E00E94420510923D0210923F
:102D00003C021092FB038091FC038823A9F08EE320
:102D100092E00E946804882339F0109247021092D2
:102D200046021092FC0308C010921C0210921D0271
:102D300010921E0210921F028AEE91E00E9432054C
:102D400086EF91E00E9432050E9474010C9495096F
:102D5000C10137FC019695958795089690931806C2
:102D60008093170616E2129DC001139D900D112449
:102D70008B5A9B4F0E94E403F82E092F20911106D5
:102D80003091120621503109129FC001139F900DFE
:102D900011248B5A9B4F0E94E40389839A83FB8200
:102DA0000C8369E176E0CE0101960E942F04009128
:102DB0002B0410912C0486E0809FB001819F700D40
:102DC00011248091170690911806615B794FFB01E1
:102DD00081939193BF0189E196E00E942F04000F37
:102DE000111FF801EF58F94F81E090E09183808343
:102DF0000C94660C6D966CAD7DAD8EAD9FAD6D97F0
:102E00000E94661F6B017C016D966CAD7DAD8EAD31
:102E10009FAD6D970E94461E4B015C01A701960174
:102E200060E070E080EA91E40E944B1E6093D8035A
:102E30007093D9038093DA039093DB03A501940187
:102E4000C701B6010E944B1E9B01AC0160E070E01F
:102E500080EA91E40E944B1E6B017C016093DC03CD
:102E60007093DD038093DE039093DF039B01AC013D
:102E70000E94D21C20E030E048EC52E40E94AB1DDE
:102E80000E94741F2B013C01B801110F880B990B94
:102E90000E94731C4B015C019B01AC01C301B20198
:102EA0000E94D21C6093E0037093E1038093E203DD
:102EB0009093E30320E030E040E051E4C501B40129
:102EC0000E94D21CA1966CAF7DAF8EAF9FAFA19731
:102ED0009B01AC01C701B6010E94AB1D2B013C0157
:102EE0009B01AC010E94D21C23EC35EF48E354E473
:102EF0000E94AB1D0E94741FA50194010E94D21C68
:102F00006093E8037093E9038093EA039093EB03E3
:102F1000A1962CAD3DAD4EAD5FADA197C701B601F9
:102F20000E94AA1D6093E4037093E5038093E60377
:102F30009093E7039B01AC010E94D21C20E030E09B
:102F400048EC53E40E94AB1D0E94741FA50194013C
:102F50000E94D21C6093EC037093ED038093EE0308
:102F60009093EF034092F0035092F1036092F203CA
:102F70007092F30353C920E030E0A9016D966CAD67
:102F80007DAD8EAD9FAD6D970E94591F18162CF028
:102F90002AE939E949E851EC04C02AE939E949E864
:102FA00051E46D966CAD7DAD8EAD9FAD6D970E9479
:102FB000AA1D2091CE033091CF034091D0035091B0
:102FC000D1030E944B1EE0966FAFE097E1967FAF72
:102FD000E197E2968FAFE297E3969FAFE397F0CC4D
:102FE0002F923F924F925F926F927F928F929F9219
:102FF000AF92BF92CF92DF92EF92FF920F931F9307
:10300000CF93DF93109246011092450188EE93E032
:10301000A0E0B0E08093470190934801A09349015C
:10302000B0934A0180E191E0909344018093430181
:1030300085EC90E09093500180934F0184EC90E0F8
:10304000909352018093510180EC90E09093540151
:103050008093530181EC90E0909356018093550149
:1030600082EC90E0909358018093570186EC90E0B9
:1030700090935A018093590110925C0110925D0166
:1030800010925E0110925F018FE78093E6018FEF4F
:103090008093E7018093E8018093E90110927D0617
:1030A00010927E0610927F0681E080938006109237
:1030B000790610927A0610927B0610927C06109286
:1030C000E1011092E0011092E2011092E3011092EE
:1030D000E4011092E5012091810630918206409131
:1030E00083065091840660918506709186068091D2
:1030F000870690918806A1E00E943E2020938106D9
:10310000309382064093830650938406609385062D
:103110007093860680938706909388060E944A20C3
:1031200081F41092890610928A0610928B061092F2
:103130008C0610928D0610928E0610928F061092B9
:10314000900684E190E0A0E0B0E0809328069093A0
:103150002906A0932A06B0932B06C1E0D0E0D093B5
:103160003106C093300658EEC52E53E0D52EE12C23
:10317000F12CC0923406D0923506E0923606F092D9
:103180003706D0933D06C0933C06209091063090C0
:103190009206309233062092320610926806109200
:1031A000670660E080E00E94580261E081E00E94D2
:1031B000580210926A0610926906109272061092D6
:1031C000710610926C0610926B06109274061092A3
:1031D000730610926E0610926D061092760610928B
:1031E00075061092700610926F0610927806109273
:1031F00077060FE010E020E030E000932104109308
:1032000022042093230430932404D0932A04C093EF
:10321000290484E690E0A0E0B0E080932D04909330
:103220002E04A0932F04B0933004D0933604C0939F
:103230003504C101019690932C0480932B04E6E0A1
:10324000F1E0E491E0930306E7E0F1E0E491E0933C
:10325000040682EF90E0FC012491E22FF0E0EE0FF3
:10326000FF1FE452FF4F25913491309306062093BF
:103270000506E3EFF0E0E491F0E0EE0FFF1FEE5201
:10328000FF4F259134913093080620930706FC01E7
:103290008491E82FF0E0EE0FFF1FE853FF4F859178
:1032A000949190930A068093090681EC9CE2909396
:1032B0000C0680930B060AE010E020E030E000935B
:1032C0001E0610931F062093200630932106D093EC
:1032D0002706C09326061092140680E090E0A0E82E
:1032E000B0E48093490490934A04A0934B04B093B4
:1032F0004C0440E050E060E070E440934D04509393
:103300004E0460934F047093500489EA95EDA3E84E
:10331000B4E48093510490935204A0935304B09367
:1033200054048BE090E0909338048093370406E6D1
:1033300016E626EE30E400936F0410937004209399
:1033400071043093720480E090E0A0E2B1E48093D5
:10335000730490937404A0937504B09376040DEEF7
:1033600017E024E834EC009377041093780420935A
:10337000790430937A042CE030E030935E0420939B
:103380005D040AE919E929E130E4009395041093FA
:103390009604209397043093980480939904909313
:1033A0009A04A0939B04B0939C0410929D041092E5
:1033B0009E0410929F041092A004D0938404C093A2
:1033C0008304EAE98E2EE9E99E2EE9E1AE2EE0ECD7
:1033D000BE2E8092BB049092BC04A092BD04B09219
:1033E000BE048093BF049093C004A093C104B09323
:1033F000C2041092C3041092C4041092C504109227
:10340000C604E2E0F0E0F093AA04E093A904F6E633
:103410004F2E542CF6EE6F2EF0EC7F2E4092E104EE
:103420005092E2046092E3047092E4048093E50415
:103430009093E604A093E704B093E8048DEE97E040
:10344000A4E8B4E48093E9049093EA04A093EB0425
:10345000B093EC0483E090E09093D0048093CF0489
:1034600080E090E0A0E8B0EC809307059093080519
:10347000A0930905B0930A0540930B0550930C05E2
:1034800060930D0570930E0549EA55ED63E874EC01
:1034900040930F055093100560931105709312052A
:1034A00044E050E05093F6044093F50480932D05DA
:1034B00090932E05A0932F05B093300546E656E66F
:1034C00066E670E44093310550933205609333050E
:1034D0007093340581E39AE3A4E8B4E4809335055E
:1034E00090933605A0933705B093380585E090E0BA
:1034F00090931C0580931B054092530550925405F0
:10350000609255057092560580E090E0A0E2B1EC23
:103510008093570590935805A0935905B0935A0589
:10352000E5E64E2EE3EA5E2EE3E86E2EE4EC7E2E18
:1035300040925B0550925C0560925D0570925E055D
:10354000E6E0F0E0F0934205E093410580927905D2
:1035500090927A05A0927B05B0927C0580937D05C0
:1035600090937E05A0937F05B0938005FBED8F2E91
:10357000FFE09F2EF9E4AF2EF0E4BF2E809281058C
:1035800090928205A0928305B0928405E7E0F0E076
:10359000F0936805E093670500939F051093A005DD
:1035A0002093A1053093A2058093A3059093A405D1
:1035B000A093A505B093A6058092A7059092A805B3
:1035C000A092A905B092AA0528E030E030938E05BC
:1035D00020938D0506E616E626EE30E40093C50539
:1035E0001093C6052093C7053093C8058093C9057D
:1035F0009093CA05A093CB05B093CC0585E693EADA
:10360000A3E8B4E48093CD059093CE05A093CF05B5
:10361000B093D0058DE090E09093B4058093B3050E
:1036200080E090E0A0E8B0E48093EB059093EC0597
:10363000A093ED05B093EE054093EF055093F00590
:103640006093F1057093F20581E39AE3A4E8B4EC8A
:103650008093F3059093F405A093F505B093F605D8
:103660008AE090E09093DA058093D9050FE010E0AE
:1036700020E030E00093FF03109300042093010446
:1036800030930204D0930804C093070488EC90E0C0
:10369000A0E0B0E080930B0490930C04A0930D0481
:1036A000B0930E04D0931404C0931304C101029686
:1036B00090930A048093090485E090E0A0E0B0E0D4
:1036C0008093EA019093EB01A093EC01B093ED019C
:1036D000D093F301C093F20182E390E0A0E0B0E068
:1036E0008093F6019093F701A093F801B093F9014C
:1036F000D093FF01C093FE01C101049690939206FE
:103700008093910613E0210E311C3092F501209236
:10371000F40122E030E030930102209300028AE0BD
:1037200090E0A0E0B0E08093020290930302A093A7
:103730000402B0930502D0930B02C0930A0280E00A
:1037400090E0A0E0BFE380930C0290930D02A09361
:103750000E02B0930F028DEC9CECACECBDE38093B9
:10376000100290931102A0931202B09313021092D0
:103770001402109215021092160210921702109263
:1037800018021092190210921A0210921B02109243
:1037900024028FEF8093250282E28093260286E93D
:1037A000809327021092290210922802C0922A02C6
:1037B000D0922B02E0922C02F0922D02D093330291
:1037C000C0933202C0923402D0923502E0923602A7
:1037D000F092370210923D0210923C0288EB9BE07F
:1037E000A0E0B0E080933E0290933F02A09340029D
:1037F000B0934102109247021092460288E0E9E835
:10380000F6E0A8E4B2E001900D928A95E1F78BED25
:103810009FE0A9ECBFE38093500290935102A093E4
:103820005202B09353021092540210925502109219
:1038300056021092570280E090E0A0E8BFE3809328
:10384000580290935902A0935A02B0935B0220E071
:1038500030E0C7E080E090E0C29FB001C39F700DF0
:103860001124FC0143E0F595E7954A95E1F7E60F51
:10387000F71FE45AFD4FDC01A770BB27A45EBE4FC3
:103880004C914095508145234083019682339105A8
:1038900041F72F5F3F4F22333105E1F681E08093FE
:1038A000FA031092FB031092FC031092FE03109295
:1038B000FD03DF91CF911F910F91FF90EF90DF906B
:1038C000CF90BF90AF909F908F907F906F905F90C0
:1038D0004F903F902F9008950E94AE1C08F481E015
:1038E0000895E89409C097FB3EF4909580957095F3
:1038F00061957F4F8F4F9F4F9923A9F0F92F96E93C
:10390000BB279395F695879577956795B795F111B0
:10391000F8CFFAF4BB0F11F460FF1BC06F5F7F4F4D
:103920008F4F9F4F16C0882311F096E911C077235F
:1039300021F09EE8872F762F05C0662371F096E868
:10394000862F70E060E02AF09A95660F771F881F37
:10395000DAF7880F9695879597F90895990F0008DB
:10396000550FAA0BE0E8FEEF16161706E807F90751
:10397000C0F012161306E407F50798F0621B730BEC
:10398000840B950B39F40A2661F0232B242B252B6D
:1039900021F408950A2609F4A140A6958FEF811D10
:1039A000811D08950E94E51C0C94561D0E94481D1F
:1039B00038F00E944F1D20F0952311F00C943F1D0C
:1039C0000C94451D11240C948A1D0E94671D70F3F0
:1039D000959FC1F3950F50E0551F629FF001729FB4
:1039E000BB27F00DB11D639FAA27F00DB11DAA1FC3
:1039F000649F6627B00DA11D661F829F2227B00D10
:103A0000A11D621F739FB00DA11D621F839FA00D9A
:103A1000611D221F749F3327A00D611D231F849FEA
:103A2000600D211D822F762F6A2F11249F57504041
:103A30009AF0F1F088234AF0EE0FFF1FBB1F661FBC
:103A4000771F881F91505040A9F79E3F510580F085
:103A50000C943F1D0C948A1D5F3FE4F3983ED4F311
:103A6000869577956795B795F795E7959F5FC1F729
:103A7000FE2B880F911D9695879597F9089597F9D4
:103A80009F6780E870E060E008959FEF80EC089504
:103A900000240A941616170618060906089500242D
:103AA0000A9412161306140605060895092E0394A7
:103AB000000C11F4882352F0BB0F40F4BF2B11F41B
:103AC00060FF04C06F5F7F4F8F4F9F4F089557FD7A
:103AD0009058440F551F59F05F3F71F04795880F7C
:103AE00097FB991F61F09F3F79F087950895121613
:103AF00013061406551FF2CF4695F1DF08C01616BF
:103B000017061806991FF1CF86957105610508946F
:103B10000895E894BB2766277727CB0197F9089586
:103B20000E949B1DA59F900DB49F900DA49F800D9A
:103B3000911D11240895A29FB001B39FC001A39FBE
:103B4000700D811D1124911DB29F700D811D1124D6
:103B5000911D08955058BB27AA270E94C21D0C949E
:103B6000561D0E94481D38F00E944F1D20F039F468
:103B70009F3F19F426F40C94451D0EF4E095E7FBE5
:103B80000C943F1DE92F0E94671D58F3BA17620776
:103B900073078407950720F079F4A6F50C94891D26
:103BA0000EF4E0950B2EBA2FA02D0B01B901900158
:103BB0000C01CA01A0011124FF27591B99F0593F9C
:103BC00050F4503E68F11A16F040A22F232F342FE4
:103BD0004427585FF3CF469537952795A795F04032
:103BE0005395C9F77EF41F16BA0B620B730B840B47
:103BF000BAF09150A1F0FF0FBB1F661F771F881FFF
:103C0000C2F70EC0BA0F621F731F841F48F4879556
:103C100077956795B795F7959E3F08F0B0CF939548
:103C2000880F08F09927EE0F979587950895DF93F1
:103C3000DD27B92FBF7740E85FE316161706480760
:103C40005B0718F4D92F0E945E1F9F938F937F9379
:103C50006F930E94B41FE8E6F0E00E94F31E0E94FA
:103C6000561D2F913F914F915F910E94E51CDD23DE
:103C700051F09058A2EA2AED3FE049EC5FE3D0789A
:103C80005D270E94C21DDF910C94561D0E941C1FCF
:103C9000E3950C94451F0E945F1E0C94561D0E94D4
:103CA0004F1D58F00E94481D40F029F45F3F29F055
:103CB0000C943F1D51110C948A1D0C94451D0E94BB
:103CC000671D68F39923B1F3552391F3951B550BA9
:103CD000BB27AA2762177307840738F09F5F5F4FDF
:103CE000220F331F441FAA1FA9F335D00E2E3AF01E
:103CF000E0E832D091505040E695001CCAF72BD036
:103D0000FE2F29D0660F771F881FBB1F2617370786
:103D10004807AB07B0E809F0BB0B802DBF01FF27B8
:103D200093585F4F3AF09E3F510578F00C943F1D39
:103D30000C948A1D5F3FE4F3983ED4F38695779503
:103D40006795B795F7959F5FC9F7880F911D969571
:103D5000879597F90895E1E0660F771F881FBB1FCD
:103D6000621773078407BA0720F0621B730B840B7A
:103D7000BA0BEE1F88F7E09508950E94C41E689460
:103D8000B1110C948A1D08950E946F1D88F09F57F1
:103D900098F0B92F9927B751B0F0E1F0660F771F6F
:103DA000881F991F1AF0BA95C9F714C0B13091F065
:103DB0000E94891DB1E008950C94891D672F782F0A
:103DC0008827B85F39F0B93FCCF38695779567952A
:103DD000B395D9F73EF490958095709561957F4F96
:103DE0008F4F9F4F0895DF93CF931F930F93FF92B1
:103DF000EF92DF927B018C01689406C0DA2EEF010E
:103E00000E94E51CFE01E894A5912591359145910C
:103E10005591A6F3EF010E94C21DFE019701A80172
:103E2000DA9469F7DF90EF90FF900F911F91CF9197
:103E3000DF9108950C94451D0E946F1DD8F3E894FE
:103E4000E0E0BB279F57F0F02AED3FE049EC06C0C9
:103E5000EE0FBB0F661F771F881F28F0B23A62076C
:103E60007307840728F0B25A620B730B840BE39537
:103E70009A9572F7803830F49A95BB0F661F771FBA
:103E8000881FD2F790480C94BA1FEF93E0FF07C049
:103E9000A2EA2AED3FE049EC5FEB0E94C21D0E94BE
:103EA000561D0F90039401FC9058E5E9F0E00C9446
:103EB000CD1F0E94AE1C08F48FEF08959B01AC014A
:103EC00060E070E080E89FE30C944B1E9F930E949B
:103ED0001C1F0F9007FCEE5F0C94451F19F416F49D
:103EE0000C94451D0C94B81F0E946F1DB8F39923C4
:103EF000C9F3B6F39F57550B87FF0E94C61F0024D6
:103F0000A0E640EA900180585695979528F4805C89
:103F1000660F771F881F20F026173707480730F4F1
:103F2000621B730B840B202931294A2BA695179409
:103F30000794202531254A2758F7660F771F881FD9
:103F400020F026173707480730F4620B730B840BF9
:103F5000200D311D411DA09581F7B901842F915885
:103F6000880F9695879508959B01AC010C94D21CFF
:103F70009F3F31F0915020F4879577956795B795DD
:103F8000880F911D9695879597F908959150504007
:103F9000660F771F881FD2F708959F938F937F93A3
:103FA0006F93FF93EF939B01AC010E94D21CEF91A2
:103FB000FF910E94F31E2F913F914F915F910C94BE
:103FC000D21C97FB072E16F4009407D077FD09D07A
:103FD0000E94562007FC05D03EF4909581959F4F96
:103FE0000895709561957F4F0895A1E21A2EAA1B3E
:103FF000BB1BFD010DC0AA1FBB1FEE1FFF1FA21799
:10400000B307E407F50720F0A21BB30BE40BF50B95
:10401000661F771F881F991F1A9469F7609570951E
:10402000809590959B01AC01BD01CF010895052EAF
:1040300097FB1EF400940E942E2057FD07D00E948B
:10404000F51F07FC03D04EF40C942E20509540959C
:10405000309521953F4F4F4F5F4F08959095809534
:10406000709561957F4F8F4F9F4F0895B7FF0C94C8
:10407000901D0E94901D821B930B08950024A7FDA4
:1040800000942A0F301D401D501D601D701D801DA5
:10409000901D08950024A7FD00942A1730054005BF
:1040A000500560057005800590050895AA1BBB1B8F
:1040B00051E107C0AA1FBB1FA617B70710F0A61B28
:1040C000B70B881F991F5A95A9F780959095BC0149
:1040D000CD010895EE0FFF1F0590F491E02D099496
:0E40E00081E090E0F8940C947520F894FFCFE6
:1040EE0002000000003F050000000000000000007C
:1040FE000B014205D400B200C600520101020408B1
:10410E001020408054494D4544204F5554000D0A0F
:02411E0000009F
:107E0000112484B714BE81FFF0D085E080938100F7
:107E100082E08093C00088E18093C10086E0809377
:107E2000C20080E18093C4008EE0C9D0259A86E02C
:107E300020E33CEF91E0309385002093840096BBD3
:107E4000B09BFECF1D9AA8958150A9F7CC24DD24C4
:107E500088248394B5E0AB2EA1E19A2EF3E0BF2EE7
:107E6000A2D0813461F49FD0082FAFD0023811F036
:107E7000013811F484E001C083E08DD089C08234E0
:107E800011F484E103C0853419F485E0A6D080C0E4
:107E9000853579F488D0E82EFF2485D0082F10E0AE
:107EA000102F00270E291F29000F111F8ED06801E7
:107EB0006FC0863521F484E090D080E0DECF843638
:107EC00009F040C070D06FD0082F6DD080E0C81688
:107ED00080E7D80618F4F601B7BEE895C0E0D1E017
:107EE00062D089930C17E1F7F0E0CF16F0E7DF06D8
:107EF00018F0F601B7BEE89568D007B600FCFDCFD4
:107F0000A601A0E0B1E02C9130E011968C91119780
:107F100090E0982F8827822B932B1296FA010C0160
:107F200087BEE89511244E5F5F4FF1E0A038BF0790
:107F300051F7F601A7BEE89507B600FCFDCF97BE46
:107F4000E89526C08437B1F42ED02DD0F82E2BD052
:107F50003CD0F601EF2C8F010F5F1F4F84911BD097
:107F6000EA94F801C1F70894C11CD11CFA94CF0C13
:107F7000D11C0EC0853739F428D08EE10CD085E9AC
:107F80000AD08FE07ACF813511F488E018D01DD067
:107F900080E101D065CF982F8091C00085FFFCCF94
:107FA0009093C60008958091C00087FFFCCF809118
:107FB000C00084FD01C0A8958091C6000895E0E648
:107FC000F0E098E1908380830895EDDF803219F02E
:107FD00088E0F5DFFFCF84E1DECF1F93182FE3DFCA
:107FE0001150E9F7F2DF1F91089580E0E8DFEE27F6
:047FF000FF270994CA
:027FFE00040479
:0400000300007E007B
:00000001FF