:100000000C9499000C94C1000C94C1000C94C10094
:100010000C94C1000C94C1000C94C1000C948D068A
:100020000C94C1000C94C1000C94C1000C94C1004C
:100030000C94C1000C94C1000C94C1000C94C1003C
:100040000C9443060C94C1000C94EC040C94C6046C
:100050000C94C1000C94C1000C94C1000C94C1001C
:100060000C94C1000C94C100084AD73B3BCE016EF2
:1000700084BCBFFDC12F3D6C74319ABD56833DDAFF
:100080003D00C77F11BED9E4BB4C3E916BAAAABE0E
:10009000000000803F05A84CCDB2D44EB93836A937
:1000A000020C50B9918688083CA6AAAA2ABE000074
:1000B00000803F0664EC1B3C04BC163E3BE5B93CAB
:1000C000C93C37C29E5A3D660498083EEA69AAAA0E
:1000D0003E000000803F00000000240027002A00AE
:1000E0000000000023002600290000000000250079
:1000F00028002B0004040404040404040202020285
:1001000002020303030303030102040810204080DA
:100110000102040810200102040810200000000859
:1001200000020100000304070000000000000000BE
:10013000C81811241FBECFEFD8E0DEBFCDBF11E03D
:10014000A0E0B1E0EEEFF3E402C005900D92A4321E
:10015000B107D9F727E0A4E2B1E001C01D92AA3CA3
:10016000B207E1F710E0C9E9D0E004C02197FE0131
:100170000E94D821C839D107C9F70E94B9070C9449
:10018000FD210C940000CF92DF92EF92FF920F932B
:100190001F93CF93DF936C017A018B01C0E0D0E015
:1001A000CE15DF0589F0D8016D918D01D601ED9155
:1001B000FC910190F081E02DC6010995892B11F485
:1001C0007E0102C02196ECCFC701DF91CF911F9134
:1001D0000F91FF90EF90DF90CF9008950E94F8214B
:1001E000CF92DF92EF92FF922FE832EC45E95FE386
:1001F0000E945A2020E030E044EB52E40E94E81DC7
:100200000E94FF1E663971053CF4DB016E317105F9
:100210002CF4AEE1B0E002C0A6E9B0E0A53BB10528
:1002200014F0A4EBB0E0A0935B02C0905C022091BC
:100230005D0230E02C193109D12CE12CF12CFE2C7F
:10024000ED2CDC2CCC24A901330F660B770B222775
:10025000342F452F562F0E94BC2124EB30E040E084
:1002600050E00E949D21C701B601620F731F841FD9
:10027000951F28E030E040E050E00E949D218091F1
:100280005A02893029F4309389002093880004C0F1
:1002900030938B0020938A00FF90EF90DF90CF90F7
:1002A0000895CF92DF92EF92FF920F931F93CF9317
:1002B000DF938B010155184FF801C081D1E0CD27A4
:1002C00001F19B01FC0189E0829FB001839F700DC9
:1002D0001124DB01A55AB84FC080D180E280F380A1
:1002E0009A96CD92DD92ED92FC929D9784819E9696
:1002F0008C936657784FCF0105960E94D306F8017C
:10030000D0838C2FDF91CF911F910F91FF90EF90B1
:10031000DF90CF900895FC0120816181862F90E0CD
:10032000A0E0B0E0DC0199278827B22B2381822B43
:100330002281BC01CD01722B08954F925F926F9282
:100340007F928F929F92AF92BF92CF92DF92EF9265
:10035000FF92CF93DF93CDB7DEB72C970FB6F8940B
:10036000DEBF0FBECDBF3C012B014F3F8FEF5807C3
:1003700081F14130510509F00AC1DB01CD90DD90DA
:10038000ED90FC90F30180809180A280B3802CEAF4
:1003900035EC47E257E3C701B6010E94E71D9B0118
:1003A000AC01C501B4010E944D2087FD62C02CEA5A
:1003B00035EC47E257E3C701B6010E94E81D9B01F7
:1003C000AC01C501B4010E94831E18160CF451C083
:1003D0002EC0DB011496CD90DD90ED90FC90179728
:1003E000F30160817181828193819B01AC010E9444
:1003F000E81DD2012D913D914D915C910E94E71D28
:1004000069837A838B839C83CD82DE82EF82F88638
:1004100041E050E0BE016F5F7F4FC3010E949D012C
:100420006B017C01F7FAF094F7F8F094B0C0F30197
:100430002481358146815781D20114966D917D9139
:100440008D919C9117970E944D2018164CF49BEDAE
:10045000C92E9FE0D92E99ECE92E9FE3F92E97C083
:1004600084EEC82E8BECD82E86E9E82E80E4F82E98
:100470008EC0A5019401C701B6010E944D20181637
:100480000CF05FC0D20114968D919D910D90BC919E
:10049000A02D89879A87AB87BC87F301448055805C
:1004A00066807780A3019201BC01CD010E944D209E
:1004B000A301920187FD2AC069857A858B859C8579
:1004C0000E94E71D2B013C01A5019401C701B60163
:1004D0000E94E71D9B01AC01C301B2010E948D1E69
:1004E0002C960FB6F894DEBF0FBECDBFDF91CF9133
:1004F000FF90EF90DF90CF90BF90AF909F908F9044
:100500007F906F905F904F900C94541E69857A8510
:100510008B859C850E94E71D2B013C01A501940160
:10052000C701B6010E94E71D9B01AC01C301B201E6
:100530000E948D1E0E94541E2BED3FE049EC50E4BA
:1005400022C0D30114962D913D914D915C91179746
:10055000F20164817581868197810E94E71D2B01DC
:100560003C01A5019401C701B6010E94E71D9B0152
:10057000AC01C301B2010E948D1E0E94541E2BEDDE
:100580003FE049E450E40E94E81D6B017C01C70193
:10059000B6012C960FB6F894DEBF0FBECDBFDF912B
:1005A000CF91FF90EF90DF90CF90BF90AF909F9052
:1005B0008F907F906F905F904F9008952F923F9211
:1005C0004F925F927F928F929F92AF92BF92CF9203
:1005D000DF92EF92FF920F931F93CF93DF93CDB7EC
:1005E000DEB72A970FB6F894DEBF0FBECDBF8C01E1
:1005F000DB018D919D910D90BC91A02D89839A83F3
:10060000AB83BC83E0918802F0918902FA87E98785
:10061000C688D788E08CF18CDB0114962D903D9034
:100620004D905C901797828C938CA48CB58C6981CB
:100630007A818B819C819058A70196010E945A2053
:100640006D837E838F839887A5019401C201B101D8
:100650000E945A209B01AC016D817E818F8198851B
:100660000E94E81DE985FA852481358146815781FC
:100670000E94E81D20E030E040E05EE30E945A2046
:1006800020E030E040EC51E40E94E81D0E94061F8B
:10069000762EA501940169817A818B819C810E94CB
:1006A0005A204B015C01A7019601C201B1010E94D1
:1006B0005A209B01AC01C501B4010E94E81DA98527
:1006C000BA852D913D914D915C910E94E81D20E0ED
:1006D00030E040E05EE30E945A2020E030E040EC51
:1006E00051E40E94E81D0E94061FF8016083718298
:1006F000C8012A960FB6F894DEBF0FBECDBFDF91BA
:10070000CF911F910F91FF90EF90DF90CF90BF900E
:10071000AF909F908F907F905F904F903F902F90E1
:1007200008951F93CF93DF9382302FEF920734F019
:100730008F3F910534F0CFEFD0E004C0C1E0DFEF90
:1007400001C0EC011D2F1095111F1127111F11F071
:10075000BE0102C060E070E085E00E94B3051111A7
:1007600005C0662777276C1B7D0B02C060E070E038
:1007700086E0DF91CF911F910C94B305089580E03E
:1007800090E00895FC01538D448D252F30E0842F97
:1007900090E0821B930B541710F0CF9608950197A9
:1007A0000895FC01918D828D981761F0828DDF0193
:1007B000A80FB11D5D968C91928D9F5F9F73928F54
:1007C00090E008958FEF9FEF0895FC01918D828D49
:1007D000981731F0828DE80FF11D858D90E0089516
:1007E0008FEF9FEF0895FC01918D228D892F90E06E
:1007F000805C9F4F821B91098F739927089588E22F
:1008000091E00E94F30321E0892B09F420E0822F7C
:100810000895FC01848DDF01A80FB11DA35ABF4FBD
:100820002C91848D90E001968F739927848FA689EF
:10083000B7892C93A089B1898C9180648C93938D16
:10084000848D981306C00288F389E02D80818F7D06
:1008500080830895EF92FF920F931F93CF93DF93BE
:10086000EC0181E0888F9B8D8C8D981305C0E88901
:10087000F989808185FD24C0F62E0B8D10E00F5F75
:100880001F4F0F731127E02E8C8DE8120CC00FB68E
:1008900007FCFACFE889F989808185FFF5CFCE0181
:1008A0000E940904F1CF8B8DFE01E80FF11DE35A80
:1008B000FF4FF0820B8FEA89FB898081806207C03D
:1008C000EE89FF896083E889F9898081806480836B
:1008D00081E090E0DF91CF911F910F91FF90EF9019
:1008E0000895CF93DF93EC01888D8823C9F0EA89BE
:1008F000FB89808185FD05C0A889B9898C9186FD19
:100900000FC00FB607FCF5CF808185FFF2CFA88915
:10091000B9898C9185FFEDCFCE010E940904E7CF04
:10092000DF91CF91089580E090E0892B29F00E941B
:10093000FF0381110C9400000895833081F028F4A6
:10094000813099F08230A1F008958730A9F0883085
:10095000B9F08430D1F4809180008F7D03C0809104
:1009600080008F7780938000089584B58F7702C0D0
:1009700084B58F7D84BD08958091B0008F7703C0CA
:100980008091B0008F7D8093B00008951F920F92E8
:100990000FB60F9211242F933F934F935F936F9352
:1009A0007F938F939F93AF93BF93EF93FF9388E2CF
:1009B00091E00E940904FF91EF91BF91AF919F9147
:1009C0008F917F916F915F914F913F912F910F90F8
:1009D0000FBE0F901F9018951F920F920FB60F9297
:1009E00011242F938F939F93EF93FF93E0913801FE
:1009F000F09139018081E0913E01F0913F0182FD4B
:100A000012C09081809141018F5F8F7320914201CC
:100A1000821751F0E0914101F0E0E85DFE4F958FC3
:100A20008093410101C08081FF91EF919F918F914F
:100A30002F910F900FBE0F901F901895CF93DF93BB
:100A4000282F30E0F901E45EFE4F8491F901E85F60
:100A5000FE4FD491F901EC50FF4FC491CC2391F09B
:100A600081110E949D04EC2FF0E0EE0FFF1FE05279
:100A7000FF4FA591B491EC91ED2381E090E021F43A
:100A800080E002C080E090E0DF91CF9108951F9355
:100A9000CF93DF93282F30E0F901E45EFE4F84917D
:100AA000F901E85FFE4FD491F901EC50FF4FC4917A
:100AB000CC23C9F0162F81110E949D04EC2FF0E089
:100AC000EE0FFF1FE651FF4FA591B4918FB7F89439
:100AD000111105C09C91ED2FE095E92302C0EC9126
:100AE000ED2BEC938FBFDF91CF911F910895CF93A2
:100AF000DF9390E0FC01E85FFE4F2491FC01EC5095
:100B0000FF4F8491882361F190E0880F991FFC01C9
:100B1000EA52FF4FC591D491FC01E651FF4FA591D8
:100B2000B491611109C09FB7F89488812095822300
:100B30008883EC912E230BC0623061F49FB7F89448
:100B40003881822F809583238883EC912E2B2C93E0
:100B50009FBF06C08FB7F894E8812E2B28838FBFE4
:100B6000DF91CF9108951F93CF93DF93182FEB015F
:100B700061E00E947705209711F460E004C0CF3F48
:100B8000D10539F461E0812FDF91CF911F910C9451
:100B90004705E12FF0E0E45EFE4FE491E330F9F029
:100BA00048F4E130B9F0E230A1F584B5806284BD4B
:100BB000C8BD34C0E730E9F0E83019F1E43049F558
:100BC00080918000806280938000D0938B00C093DE
:100BD0008A0024C084B5806884BDC7BD1FC08091D1
:100BE0008000806880938000D0938900C093880043
:100BF00015C08091B00080688093B000C093B300AE
:100C00000DC08091B00080628093B000C093B400AA
:100C100005C0C038D1050CF0B5CFAFCFDF91CF9173
:100C20001F9108953FB7F8948091C6079091C70728
:100C3000A091C807B091C90726B5A89B05C02F3F52
:100C400019F00196A11DB11D3FBFBA2FA92F982FF2
:100C50008827820F911DA11DB11DBC01CD0142E06D
:100C6000660F771F881F991F4A95D1F708952FB7F0
:100C7000F8946091C2077091C3078091C407909166
:100C8000C5072FBF08951F920F920FB60F92112420
:100C90002F933F938F939F93AF93BF938091C207FE
:100CA0009091C307A091C407B091C5073091C107C7
:100CB00023E0230F2D3720F40196A11DB11D05C09F
:100CC00026E8230F0296A11DB11D2093C107809332
:100CD000C2079093C307A093C407B093C507809140
:100CE000C6079091C707A091C807B091C9070196A0
:100CF000A11DB11D8093C6079093C707A093C80795
:100D0000B093C907BF91AF919F918F913F912F9160
:100D10000F900FBE0F901F9018951F920F920FB655
:100D20000F9211242F933F934F935F936F937F9371
:100D30008F939F93AF93BF93EF93FF93E091240121
:100D4000F09125010995FF91EF91BF91AF919F918E
:100D50008F917F916F915F914F913F912F910F9064
:100D60000FBE0F901F901895E0E7F0E080818D7F17
:100D70008083089520E030E0F901EE52FE4F40817B
:100D80005181938198236281691303C04A305105D0
:100D900041F42C5F3F4F2832310571F78AE090E033
:100DA0000895CA010895FB019C012C5F3F4FDC01AF
:100DB0004D91CD014193A217B307C9F70895CF9282
:100DC000DF92EF92FF920F931F93CF93DF93FC017B
:100DD00020853185232BA9F0EC010E943706C880BD
:100DE000D980EA80FB800C811D812E813F81C00E5D
:100DF000D11EE21EF31E21E06C157D058E059F05B8
:100E000008F420E0822FDF91CF911F910F91FF9086
:100E1000EF90DF90CF9008958F929F92AF92BF9204
:100E2000CF92DF92EF92FF920F931F93CF93DF93B6
:100E30000E9412060091DC061091DD062091DE066C
:100E40003091DF06061717072807390718F40E94A4
:100E5000B4064CC0E091D606F091D70690818091FF
:100E6000D306892309F042C00E94B4060E941206EC
:100E70002091DA063091DB066901E12CF12C00911A
:100E8000DC061091DD062091DE063091DF0646017A
:100E90005701801A910AA20AB30A950184010D50E4
:100EA000110921093109600F711F821F931F60937F
:100EB000CE067093CF068093D0069093D1062091F2
:100EC000E0063091E1064CE1429FE001439FD00DE6
:100ED0001124C859DA4F29E330E040E050E00E9485
:100EE0007B21398F288F1092E20626C081EF96E091
:100EF0000E94DF06882301F18091E0069091E106CF
:100F00002CE1289FF001299FF00D1124E859FA4F98
:100F100088EC90E0918F808F1092E206DF91CF9164
:100F20001F910F91FF90EF90DF90CF90BF90AF9007
:100F30009F908F900C94B406DF91CF911F910F91E9
:100F4000FF90EF90DF90CF90BF90AF909F908F90E9
:100F50000895CF93DF93EC010E9437066C837D8365
:100F60008E839F8381E090E099878887DF91CF917E
:100F70000895CF93DF93CDB7DEB7CB56D1090FB627
:100F8000F894DEBF0FBECDBF789484B5826084BD77
:100F900084B5816084BD85B5826085BD85B581607D
:100FA00085BD80916E00816080936E0010928100FB
:100FB00080918100826080938100809181008160B6
:100FC0008093810080918000816080938000809177
:100FD000B10084608093B1008091B0008160809303
:100FE000B00080917A00846080937A0080917A00CA
:100FF000826080937A0080917A00816080937A0089
:1010000080917A00806880937A001092C1001092DB
:10101000AB071092AF071092AC071092B007109276
:10102000AD071092B1071092AE071092B207E0918F
:101030003801F091390182E08083E0913401F09130
:1010400035011082E0913601F09137018FEC8083F9
:1010500010924001E0913C01F0913D0186E08083D7
:10106000E0913A01F0913B01808180618083E091C1
:101070003A01F0913B01808188608083E0913A01E0
:10108000F0913B01808180688083E0913A01F0918A
:101090003B0180818F7D808310927B0710927A07BD
:1010A00061E088E00E94770561E087E00E947705B3
:1010B00061E08BE00E94770561E08AE00E9477059D
:1010C000E0E8F5E088EC90E0958784879183808361
:1010D0009383828395838483978386839187808794
:1010E000938782877C9626E0E03DF20769F781E0EE
:1010F0008093E3061092E2068BE090E09093E10685
:101100008093E00684E090E09093E5068093E40607
:101110001092EF0660E082E00E94770560E084E0D4
:101120000E94770560E083E00E94770560E08EE032
:101130000E94770560E08FE00E94770560E080E123
:101140000E94770560E081E10E94770560E082E11E
:101150000E94770561E083E10E9477050E943706CF
:1011600060935E0570935F058093600590936105C1
:101170001092630510926205109264051092650545
:10118000109266051092670561E085E00E94770580
:1011900061E086E00E94770589E080935A028FEF34
:1011A00080935B0260E089E00E94470561E08091E6
:1011B0005A020E94770580912701811122C08091F7
:1011C000260181111EC02FB7F89482E08093800021
:1011D0008AE18093810088EB9BE090938900809363
:1011E000880090938B0080938A0080E49CE9909320
:1011F00087008093860080916F00887F80936F00C6
:101200002FBF80915A02893041F481E080932701F9
:10121000809180008F73806807C081E080932601F1
:10122000809180008F7C80628093800010925602B3
:1012300010925702109258021092590260E070E02A
:10124000CB010E94F00010925202109253021092B1
:1012500054021092550210927D029DE088E10FB673
:10126000F894A895809360000FBE90936000A895B5
:101270008BE597E00E94DF06882309F42AC187E600
:1012800097E00E94DF06811120C188E291E00E9470
:10129000F303009709F4B5C040917A0750917B079A
:1012A00029E030E0241B350B8C01281739070CF49A
:1012B0008901A12CB12C912C82E0E82EF12CCC24B8
:1012C000C394D12CA016B1060CF06AC088E291E05C
:1012D0000E94D1032091A9073091AA07213031053E
:1012E00041F122303105E1F1232B09F055C0209165
:1012F0007A0730917B07F901E253FE4F9081891301
:1013000013C0A9014F5F5F4F50937B0740937A074B
:10131000F901E55AF84F868B44305105E9F5D09232
:10132000AA07C092A90738C010927B0710927A07CB
:1013300033C020917A0730917B07A9014F5F5F4F3F
:1013400050937B0740937A07F901E55AF84F868B53
:101350004530510509F5F092AA07E092A9071CC093
:1013600020917A0730917B07A9014F5F5F4F50931F
:101370007B0740937A07F901E55AF84F868B49308D
:10138000510551F410927B0710927A071092AA0728
:101390001092A907992493943FEFA31AB30A92CF0E
:1013A000992079F180917507809380070E94BA0691
:1013B000880F991F880F991FFC01EE52FE4F808104
:1013C0009181A281B38180937C0790937D07A09344
:1013D0007E07B0937F07BE016F5F7F4F86E797E080
:1013E0000E94D30661E877E0CE0101960E94D30601
:1013F00081E08093AB078093AC078093AD07809327
:10140000AE07FFEAEF2EF7E0FF2E00E010E0A5E0C8
:10141000BA2E6E0146E0C40ED11CD7018C918823F0
:1014200009F446C01C92F801E55AF84FA6A4BE0183
:101430006F5F7F4F8EEC91E00E94D306AD82FE017C
:101440003196DE015B968B2D01900D928A95E1F726
:10145000FE017B96DE0190968B2D01900D928A9570
:10146000E1F7FE01B096DE0111968B2D01900D92F1
:101470008A95E1F7C8018657984FFE013196DE0143
:101480001A9621912D93EC15FD05D9F7BE01615FE8
:101490007F4F0E94D30649E050E0BE01665F7F4F58
:1014A00088E291E00E94C30088E291E00E9471040A
:1014B000BFEFEB1AFB0A075F1F4F0432110509F05B
:1014C000ACCF8BE597E00E94A90787E697E00E94E2
:1014D000A90788E695E00E94DF06882309F4B3C2D5
:1014E00084E795E00E94DF068111A9C28091E3069E
:1014F000882309F4A0C2E0917205F0917305E555C7
:10150000F84F80818823A9F1108280917C07909107
:101510007D07A0917E07B0917F078093E6069093A8
:10152000E706A093E806B093E906809180078093D0
:10153000EA066BEE76E081E897E00E94D3068091A0
:10154000E6069091E7060697A1F48BEE96E00E94DE
:101550008B0121E0672B682B692B09F420E0209395
:10156000EF06609172057091730585EC91E00E9421
:1015700051018091E20681115EC22090E006309018
:10158000E106EBE02E16310469F48091E4069091B7
:10159000E506019665E070E00E9467219093E506FC
:1015A0008093E406C090E406D090E506D8A6CFA2CA
:1015B0008CE1829DF001839DF00D1124E859FA4FD2
:1015C000E08CF18CE114F10411F0670103C0E8EC48
:1015D000CE2ED12C8EE0829DF001839DF00D112442
:1015E0002FA138A5E20FF31FEE0FFF1FEE57FA4FA2
:1015F000D182C08238ECE316F10419F0E0E0F1E0AA
:1016000002C0E6E0F1E0408151815AAF49AF8280EB
:101610009380A480B5808CE1829DF001839DF00DC4
:101620001124E859FA4F84A195A198AB8FA7BC016A
:10163000990F880B990B0E94371F2B013C0120E06A
:1016400030E040E85FE3C501B4010E94E81D6BA7EC
:101650007CA78DA79EA79B01AC01C301B2010E948C
:101660005A200E94FF1E8B01A501940160E070E0EA
:1016700080E89FE30E94E71D4B015C019B01AC01E8
:10168000C301B2010E945A200E94FF1E06171707CD
:101690003CF0C616D7065CF00C151D0544F075C06D
:1016A000C016D10624F06C157D050CF06EC08FA11C
:1016B00098A5049665E070E00E9467212C0100E087
:1016C00010E08EE0829D9001839D300D11243CAB93
:1016D0002BABC701FF0CAA0BBB0B8DAB9EABAFAB0B
:1016E000B8AFEFA0F8A44E145F0409F446C0E9AC0B
:1016F000FAAC0E151F050CF040C0EBA9FCA9E40DD7
:10170000F51DEE0FFF1FEE57FA4F608071806DA937
:101710007EA98FA998AD0E94371F25966CAF7DAF2B
:101720008EAF9FAF25972BA53CA54DA55EA50E942A
:101730005A200E94FF1E7B01A501940125966CADE5
:101740007DAD8EAD9FAD25970E945A200E94FF1E51
:10175000E616F70614F40C94C9176616770614F00B
:101760000C94C31721E0C201049665E070E00E946A
:1017700067212C01222309F4B4CF89AD9AAD0197DA
:101780000817190714F4CFA4D8A88CE1829DF001A2
:10179000839DF00D1124E859FA4FD5A2C4A21CE193
:1017A000F12EF29CC001F39C900D11249C0128594C
:1017B0003A4F7901D90194966D917C919597072EB6
:1017C000000C880B990B0E94371F2B013C012BED5D
:1017D0003FE049EC5FE3F70166A577A580A991A9F1
:1017E0000E94E81D4B015C010E94881E9B01AC0118
:1017F000810183E0000F111F8A95E1F708591A4F04
:101800006801FDE6CF1AFEEFDF0AC301B2010E94B4
:101810005A209B01AC01D70196966D917D918D91D7
:101820009C9199970E94E81DF601608371838283E1
:101830009383C501B4010E94C7209B01AC010956E6
:101840001E4FC301B2010E945A209B01AC01D70177
:101850009A966D917D918D919C919D970E94E81D26
:10186000F8016083718382839383C10101966CE0E8
:1018700070E00E9467219093E1068093E006109249
:10188000F0062CE1C22EC89EF001C99EF00D112475
:10189000E859FA4F06891789602F617088E00E9425
:1018A0004705B80176956795617087E00E94470506
:1018B000B801769567957695679561708BE00E9483
:1018C000470553E0169507955A95E1F7602F61702B
:1018D0008AE00E94470581E08093E2060E94B406F8
:1018E00081EF96E00E94A907E091D806F091D90611
:1018F00090818091D206892B8083E091D406F0916B
:10190000D50690818091D2068095892380838BE0D3
:1019100090E00197F1F7E091D406F091D50690811F
:101920008091D206892B808383E290E00197F1F7C2
:10193000E091D406F091D50690818091D2068095F1
:1019400089238083E091D806F091D9069081809117
:10195000D206809589238083E091D606F091D70640
:1019600090818091D306892309F065C00E941206F8
:101970002091DA063091DB06890120E030E008553D
:10198000194E2F4F3F4FDC01CB01800F911FA21F3B
:10199000B31F8093DC069093DD06A093DE06B09320
:1019A000DF06E091D606F091D70690818091D306AC
:1019B000892381F40E9412060091DC061091DD0655
:1019C0002091DE063091DF06061717072807390732
:1019D00040F731C00E9412062091DA063091DB06F2
:1019E000DC01CB01820F931FA11DB11D8093DC068A
:1019F0009093DD06A093DE06B093DF068CE097E0BF
:101A000090932501809324010E94B4068091B60032
:101A10008F7D8093B60082E08093B00084E0809355
:101A2000B1001092B20085E08093B3008091700005
:101A300082608093700088E695E00E94A90784E7A1
:101A400095E00E94A90788E495E00E94DF068823BC
:101A500009F4D3C084E595E00E94DF068111C9C076
:101A60000E9437066B017C0160E083E10E9447051C
:101A700082E10E941E05082F81E10E941E058295C9
:101A8000880F880F807C182F20E8029F10191124DE
:101A900080E10E941E05882E8FE00E941E05982E70
:101AA0008EE00E941E05A82E83E00E941E05082FCE
:101AB00084E00E941E05B82E82E00E941E05810F60
:101AC000182F30E2839E100D112440E1949E100DDA
:101AD000112458E0A59E100D1124000F000F010FD6
:101AE000BB0C0B0D002E000C110B61E083E10E947A
:101AF000470540916205509163059801241B350B01
:101B0000C90137FF04C088279927821B930B8138AE
:101B10009105CCF0C90193953A95DC0197FF04C07B
:101B2000AA27BB27A81BB90BF90137FF04C0EE2772
:101B3000FF27E21BF30BEA17FB070CF4C901BA01FC
:101B4000680F791F01C0B80180915E0590915F0513
:101B5000A0916005B091610546015701881A990A64
:101B6000AA0ABB0AC0925E05D0925F05E0926005AA
:101B7000F09261051093630500936205811491044E
:101B8000A104B10439F1641B750B072E000C880BFE
:101B9000990B0E94371F20E030E046E155E40E9497
:101BA0008D1E26E636E642EA51E40E945A206B0179
:101BB0007C01C501B4010E94351F9B01AC01C70126
:101BC000B6010E948D1E20E030E04AE754E40E94F6
:101BD0005A2003C060E070E0CB016093640570930D
:101BE0006505809366059093670588E495E00E94FB
:101BF000A90784E595E00E94A9078AEF91E00E9479
:101C0000DF06882311F40C94BF1786E092E00E944F
:101C1000DF0622968FAF229781110C94BB17C090DC
:101C20006405D0906505E0906605F0906705C9AE43
:101C3000DAAEEBAEFCAEC0905602D0905702E09008
:101C40005802F0905902CFA2D8A6E9A6FAA680E3DE
:101C500092E00E94DF06882309F4F6C0C090520289
:101C6000D0905302E0905402F090550220E030E012
:101C7000A901C701B6010E94831E81111AC020E08C
:101C800030E040E85FEB69AD7AAD8BAD9CAD0E9472
:101C90004D2087FD0EC020E030E040E85FE369ADF5
:101CA0007AAD8BAD9CAD0E94831E181614F00C9477
:101CB000AB1829AD3AAD4BAD5CADC701B6010E9482
:101CC000E71D4B015C010E9437066B017C011091FE
:101CD0004E0200914F02309050022090510220910C
:101CE0004A022FA730914B023BA740914C024BABCD
:101CF00050914D025DAB20913A0230913B024091F0
:101D00003C0250913D02C501B4010E945A2020912D
:101D100046023091470240914802509149020E9488
:101D2000E81D21966CAF7DAF8EAF9FAF21972091BC
:101D30004202309143024091440250914502C50154
:101D4000B4010E94E71D2B013C0180913402909167
:101D50003502A0913602B0913702A7019601281BE7
:101D6000390B4A0B5B0BCA01B9010E94351F9B015D
:101D7000AC01C301B2010E948D1E20913E02309140
:101D80003F0240914002509141020E945A209B0123
:101D9000AC0121966CAD7DAD8EAD9FAD21970E94BB
:101DA000E81D6B017C012FA53BA54BA95DA90E94F5
:101DB0004D2018162CF0BFA5ABA5FBA9EDA904C0BA
:101DC000BC2DAD2DFE2DEF2D212F302F432D522D6B
:101DD0006B2F7A2F8F2F9E2F0E94831E87FF13C099
:101DE0002FA53BA54BA95DA9B601C7010E944D20B7
:101DF00018162CF01FA50BA53BA82DA804C01C2D60
:101E00000D2D3E2C2F2C812F902FA32DB22D8093A2
:101E1000460290934702A0934802B09349028092F1
:101E2000420290924302A0924402B0924502612F76
:101E3000702F832D922D0E94FF1ECB010E949103D3
:101E400080E392E00E94A90780E195E00E94DF060E
:101E5000882309F47AC10E94370600911405109175
:101E6000150520911605309117056B017C01C01AEC
:101E7000D10AE20AF30ACFA6D8AAE9AAFAAA2090C0
:101E80001A0530901B05C9ACDAACEBACFCACD10147
:101E90001896CD92DD92ED92FC921B972FA138A55A
:101EA00049A55AA51C966D917D918D919C911F9786
:101EB0000E94831E882309F4C0C0CFA0D8A4E9A43F
:101EC000FAA4D1011C96CD92DD92ED92FC921F975F
:101ED00020E030E0A901C701B6010E944D2087FF34
:101EE00003C00FEF1FEF02C001E010E0F101118B02
:101EF000008B20E030E0A9016FA178A589A59AA503
:101F00000E944D20FF24F39418166CF42DEC3CEC49
:101F10004CE45DE36FA178A589A59AA50E94831E74
:101F2000181664F00CC02DEC3CEC4CE45DEB6FA19A
:101F300078A589A59AA50E944D2087FDF12CF092E5
:101F40003005F1107AC06FA178A589A59AA50E94E5
:101F500019219B01AC0160E070E080EA91E40E94ED
:101F60008D1E4B015C0160931C0570931D058093D1
:101F70001E0590931F05B801110F880B990B0E9445
:101F8000371F2B013C0120E030E040E051E40E948B
:101F90005A206BA77CA78DA79EA79B01AC01C5010A
:101FA000B4010E94E81D6B017C019B01AC010E9401
:101FB0005A2023EC35EF48E354E40E94E81D0E94C8
:101FC000D520A30192010E945A20609324057093AA
:101FD000250580932605909327052BA53CA54DA5A7
:101FE0005EA5C501B4010E94E71D609320057093B2
:101FF00021058093220590932305C0922C05D09251
:102000002D05E0922E05F0922F059B01AC010E9458
:102010005A2020E030E048EC53E40E94E81D0E9482
:10202000D520A30192010E945A2060932805709345
:10203000290580932A0590932B0580913005811105
:1020400038C06FA578A989A99AA90E94351F29AD22
:102050003AAD4BAD5CAD0E945A2020912C053091D9
:102060002D0540912E0550912F050E948D1ED10106
:1020700052962D913D914D915C9155970E94E81D8E
:102080006B017C01F101628B738B848B958B0E94B9
:10209000881ED10156966D937D938D939C9359978D
:1020A000C701B6010E94C720F101628F738F848F30
:1020B000958F6FA578A989A99AA90E94351F6B01F0
:1020C0007C01D10156962D913D914D915C9159978E
:1020D00069AD7AAD8BAD9CAD0E945A20A7019601E7
:1020E0000E945A209B01AC01F101608171818281C3
:1020F00093810E94E81DD1016D937D938D939C93F4
:1021000013975A962D913D914D915C915D9769ADD4
:102110007AAD8BAD9CAD0E945A20A70196010E941A
:102120005A209B01AC01F101648175818681978100
:102130000E94E81DD10114966D937D938D939C931D
:10214000179780E195E00E94A90780917D0288237E
:1021500009F45DC18EE792E00E94DF06882309F44E
:10216000D2C0C0900E05D0900F05DCA6CBA62CE007
:1021700030E03CAB2BAB212C312CC10101966CE043
:1021800070E00E9467211C01B3E0880F991FBA9587
:10219000E1F720910E0530910F056901C80ED91E97
:1021A000D8AACFA6ABA5BCA58D909D90AD90BC90B4
:1021B00013978092FA049092FB04A092FC04B092D0
:1021C000FD0414962D913D914D915C9117972093AC
:1021D000FE043093FF044093000550930105F6017F
:1021E00064817581868197810E94E71D6B017C0166
:1021F000A5019401AFA5B8A96D917D918D919C9198
:102200000E94E71D4B015C019B01AC010E945A201A
:102210002B013C01A7019601C701B6010E945A207B
:102220009B01AC01C301B2010E94E81D0E94D520B0
:1022300020E030E040E05EE30E945A200E94FF1E52
:1022400070930B0560930A05072E000C880B990B01
:102250000E94371F2B013C019B01AC01C501B40159
:102260000E948D1E60930205709303058093040500
:1022700090930505A3019201C701B6010E948D1E2E
:1022800060930605709307058093080590930905F0
:1022900010920D0510920C056091880270918902D0
:1022A000CE0185960E94DE02EDA0FEA000E010E0C7
:1022B00060910C0570910D0580910A0590910B05B8
:1022C0006817790724F4043111050CF471C66BA565
:1022D0007CA5CE0143960E94DE026FA578A9CE01AF
:1022E00001960E94DE02ABA9BCA91197BCABABABB7
:1022F000CFA4D8A8DCA6CBA6AB2B09F03ECF8EE7A7
:1023000092E00E94A907E0910402F0910502E155D4
:10231000F84F808181117BC0D090CC048091D00493
:102320009091D104FE01739620E07F013091CF049B
:102330003C3058F4DC01A30FB11D4C9141932F5F49
:102340003F5F3093CF04243089F78091CF048E0112
:102350000F5F1F4F8C30C1F51092CF042223A1F1E3
:1023600081E08D0D31E0803321F030E08093CC04AA
:1023700002C01092CC044091CC048091CD04909185
:10238000CE04BCE04B9F800D911D11249093D1048D
:102390008093D004311118C0243009F095C614C0C0
:1023A0002C3070F4DC01A20FB11D4C9141932F5FD2
:1023B0002093CF042091CF044E2F401B431784F36A
:1023C0002C3011F41092CF04A0900402B0900502BA
:1023D0008091F8018D0D8D830E94BA06880F991F98
:1023E000880F991FFC01EE52FE4F80819181A281DE
:1023F000B38189839A83AB83BC83BE016A5F7F4FBD
:10240000C7010E94D306B501C8010E945101E091A5
:102410000402F0910502E555F84FC0806996CFAEF1
:102420006997CC20D9F0108280917C0790917D072C
:10243000A0917E07B0917F0780933105909332057C
:10244000A0933305B09334058091800780933505C0
:1024500066E375E081E897E00E94D3068091100260
:10246000909111028130910509F4E8C4029709F0B6
:102470007EC521EE3EE245E652E4609196057091FC
:10248000970580919805909199050E945A209B018B
:10249000AC016FA178A589A59AA50E94E71D6B01E3
:1024A0007C0120E030E0A9010E944D20181624F0A4
:1024B000F7FAF094F7F8F094F2EBAF2EF5E0BF2EB8
:1024C0001CAA1BAA01E010E021EE3EE245E652E420
:1024D000D5016D917D918D919C910E945A209B0117
:1024E000AC016FA178A589A59AA50E94E71D2B01D3
:1024F0003C0120E030E0A9010E944D20181624F094
:1025000077FA709477F87094A7019601C301B2012D
:102510000E94831E87FF04C01CAB0BAB73016201DA
:102520000F5F1F4FBCE1AB0EB11C0C30110561F603
:102530008BA99CA995958795EBA9FCA91C013697B9
:102540001CF0F3E02F0E311C2D963FAE2EAE2D97D2
:102550002AE335E068963FAF2EAF68971DAA1DAEFF
:102560002A961FAE2A972B961FAE2B972D962EAD2F
:102570003FAD2D97C90101966CE070E00E94672184
:102580002D969FAF8EAF2D9763E0220F331F6A9574
:10259000E1F728593A4FF901ED56FE4FC080D1803E
:1025A000E280F3806296CCAEDDAEEEAEFFAE629717
:1025B000C092FA04D092FB04E092FC04F092FD0475
:1025C0003496C080D180E280F3806696CCAEDDAEDA
:1025D000EEAEFFAE6697C092FE04D092FF04E0928A
:1025E0000005F09201058C0173E0000F111F7A9530
:1025F000E1F708591A4FF801E956FE4FA701960175
:1026000060817181828193810E94E71D4B015C0191
:10261000F801ED56FE4F62962CAD3DAD4EAD5FAD6F
:10262000629760817181828193810E94E71D6B01B5
:102630007C019B01AC010E945A202B013C01A501A9
:102640009401C501B4010E945A209B01AC01C30151
:10265000B2010E94E81D0E94D52020E030E040E257
:1026600051E40E948D1E20E030E040E85FE30E94CC
:10267000E81D2B013C0120E030E040EA50E40E94DC
:10268000831E87FF06C0C301B2010E94FF1E8B019B
:1026900002C005E010E010930B0500930A05B80195
:1026A000012E000C880B990B0E94371F2B013C0157
:1026B0009B01AC01C501B4010E948D1E6D966CAFEB
:1026C0007DAF8EAF9FAF6D97A3019201C701B60199
:1026D0000E948D1EA1966CAF7DAF8EAF9FAFA1976C
:1026E000609302057093030580930405909305059C
:1026F0006D96CCACDDACEEACFFAC6D97C092060530
:10270000D0920705E0920805F092090510920D0598
:1027100010920C052E961FAE2E9760910C057091AD
:102720000D05601771070CF0DCC2CB010196909388
:102730000D0580930C05072E000C880B990B0E9449
:10274000371F6B017C019B01AC016D966CAD7DADBB
:102750008EAD9FAD6D970E945A209B01AC0166968D
:102760006CAD7DAD8EAD9FAD66970E94E81D6FA3E9
:1027700078A789A79AA7A7019601A1966CAD7DAD10
:102780008EAD9FADA1970E945A209B01AC0162962D
:102790006CAD7DAD8EAD9FAD62970E94E81D4B0183
:1027A0005C0180913005882309F470C0A501940173
:1027B00060E070E080E091EC0E94E71D6B017C011D
:1027C00020E030E0A9010E944D20181624F0F7FA0D
:1027D000F094F7F8F094A501940160E070E080E0D7
:1027E00091E40E94E71D2B013C0120E030E0A901AB
:1027F0000E944D20181624F077FA709477F87094A0
:1028000020E030E040E051ECC501B4010E944D20D1
:1028100087FD11C020E030E040E051E4C501B40183
:102820000E94831E18163CF0812C912C50E8A52E96
:102830005FEBB52E06C0812C912C40E8A42E4FE30F
:10284000B42EA3019201C701B6010E94831E87FD29
:1028500005C0742D652D962D872D04C07C2D6D2D02
:102860009E2D8F2D272F362F492F582FC501B401AC
:102870000E945A204B015C0120E030E040E050E42F
:102880000E94831E18160CF035C4D5C140901C055B
:1028900050901D0560901E0570901F05D301C20168
:1028A000B0588B8B9C8BAD8BBE8B1F8A188E198E6C
:1028B0001A8EA3019201C501B4010E94E81DA596DC
:1028C0006CAF7DAF8EAF9FAFA59769837A838B8303
:1028D0009C8320E030E040E251E46FA178A589A517
:1028E0009AA50E94E81D4B015C016D837E838F8356
:1028F0009887E0901A05F0901B05A796FFAEEEAE04
:10290000A797D70150964D915C915197BE016F5F8B
:102910007F4FCE0143960E949D01AB966CAF7DAF79
:102920008EAF9FAFAB97C0902005D0902105E0906F
:102930002205F0902305CFA6D8AAE9AAFAAA20E09A
:1029400030E0A901C701B6010E944D20181644F0DD
:10295000A701960150582BA73CA74DA75EA708C01A
:10296000CFA4D8A8E9A8FAA8CBA6DCA6EDA6FEA617
:10297000C0902405D0902505E0902605F09027050D
:1029800020E030E0A901C701B6010E944D201816D1
:1029900024F0F7FAF094F7F8F094A3019201A596C9
:1029A0006CAD7DAD8EAD9FADA5970E94E81D9B01DE
:1029B000AC010E945A202B013C01A5019401C501E4
:1029C000B4010E945A209B01AC01C301B2010E94D4
:1029D000E81D0E94D5204B015C012BA53CA54DA50F
:1029E0005EA50E94E71D6FA378A789A79AA720E09C
:1029F00030E0A9010E944D2018164CF02FA138A5F7
:102A000049A55AA550582FA338A749A75AA7A701E7
:102A10009601C501B4010E94E71D2B013C0120E095
:102A200030E0A9010E944D20181624F077FA709426
:102A300077F870942BA53CA54DA55EA5C701B601FE
:102A40000E944D2087FD0DC02BA53CA54DA55EA580
:102A5000C501B4010E944D2087FD1CC0A70196014D
:102A60000CC0A7019601C501B4010E944D2087FD4D
:102A700011C02BA53CA54DA55EA5C501B4010E94C2
:102A8000831E18163CF0C12CD12C30E8E32E3FEB0E
:102A9000F32E06C0C12CD12C20E8E22E2FE3F22E1B
:102AA000A30192016FA178A589A59AA50E94831E12
:102AB00087FD05C0742D652D962D872D04C07FA13F
:102AC00068A599A58AA5272F362F492F582FC7010A
:102AD000B6010E945A204B015C0120E030E040E04A
:102AE00050E40E94831E18160CF4A5C02FA538A927
:102AF00049A95AA9609128057091290580912A0554
:102B000090912B050E94E71D6B017C0120E030E0D5
:102B1000A9010E944D201816A4F0D701C601B05893
:102B20008BA79CA7ADA7BEA79C01AD01C301B201B5
:102B30000E94831E87FD0DC07BA56CA59DA58EA55B
:102B40000CC0A7019601C301B2010E94831E87FF3A
:102B500006C3742D652D962D872D272F362F492FCF
:102B6000582F6FA178A589A59AA50E94831E87FF7B
:102B70002AC02FA538A949A95AA960E070E080EAC7
:102B800091E40E948D1E0E94541E2B013C0120E006
:102B900030E0A901C701B6010E944D20181624F0AB
:102BA000F7FAF094F7F8F094A70196016FA178A5D1
:102BB00089A59AA50E948D1E9B01AC01C301B2019B
:102BC0000E945A200CC02FA538A949A95AA960E033
:102BD00070E080EA91E40E948D1E0E94541E9B01C9
:102BE000AC01AB966CAD7DAD8EAD9FADAB970E9449
:102BF000E71D20912C0530912D0540912E05509117
:102C00002F050E945A20A796AEADBFADA797189684
:102C10002D913D914D915C911B970E948D1E2696A2
:102C20006FAF269727967FAF279728968FAF289765
:102C300029969FAF299720E030E040E050E4C5019D
:102C4000B4010E94831E18160CF467CD2E96CFACEB
:102C50002E97CC2069F12DA93DAD2A964FAD2A972C
:102C60002B965FAD2B9726966FAD269727967FAD57
:102C7000279728968FAD289729969FAD29970E9470
:102C8000831E87FF4ACD2696CFAC2697CDAA2796DE
:102C9000DFAC2797DDAE2896EFAC28972A96EFAEEB
:102CA0002A972996FFAC29972B96FFAE2B9735CD07
:102CB0002696DFAC2697DDAA2796EFAC2797EDAED8
:102CC0002896FFAC28972A96FFAE2A972996CFAC74
:102CD00029972B96CFAE2B9721E02E962FAF2E97CC
:102CE0001CCD2E96CFAC2E97CC2049F08DA99DAD52
:102CF0002A96AFAD2A972B96BFAD2B9703C080E0E5
:102D000090E0DC016896EEADFFAD689781939193FA
:102D1000A193B1936896FFAFEEAF6897E654F54084
:102D200009F024CC10914605EBA9FCA9E219F3099E
:102D3000EE0FFF1FEE0FFF1FE65CFA4FC080D18041
:102D4000E280F380A7019601C701B6010E94831EAD
:102D500081111AC020E030E0A901C701B6010E942C
:102D60004D2018168CF431E022963FAF22972DECBF
:102D70003CEC4CE45FE3C701B6010E94831E1816C9
:102D80001CF422961FAE229722968FAD2297812B9C
:102D900080934605111152C0882309F44FC020E0EA
:102DA00030E0A90169AD7AAD8BAD9CAD0E944D209C
:102DB00018166CF4E4EDF0E0E219F309EE0FFF1FD2
:102DC000EE0FFF1FE650FE4FA1EDB0E00CC0E7EDA7
:102DD000F0E0E219F309EE0FFF1FEE0FFF1FE650C0
:102DE000FE4FAAEDB0E0A219B309AA0FBB1FAA0FAC
:102DF000BB1FA650BE4F2D913D914D915C916081BE
:102E00007181828193810E944D2018162CF466E610
:102E100076E68CE892E404C066E676E68CE892EC0E
:102E20006093560270935702809358029093590210
:102E30000E94F00089E692E00E94A9076996CFAC53
:102E40006997CC2009F45DC08091310590913205DD
:102E500082309105D9F01CF4019739F04DC08330D0
:102E6000910539F1089771F147C0809147058111AB
:102E700043C086E395E00E948B01609352027093F9
:102E80005302809354029093550236C080914605B8
:102E9000811132C086E395E00E948B016093560257
:102EA0007093570280935802909359020E94F00049
:102EB00023C086E395E00E948B017093110260931A
:102EC000100212C086E395E00E948B0121E0672B7F
:102ED000682B692B09F420E020937D02222321F046
:102EE0008EE792E00E94A9076091040270910502AA
:102EF00085EC91E00E9451018FE592E00E94A907C4
:102F00000DC08FE592E00E94DF06882339F083E749
:102F100092E00E94A90781E08093470580914605D1
:102F2000882361F089E692E00E94DF06882331F071
:102F3000109272021092710210924605809147051C
:102F40008823A9F083E792E00E94DF06882339F006
:102F500010927C0210927B021092470508C01092DA
:102F600052021092530210925402109255028AEFAC
:102F700091E00E94A90786E092E00E94A9070E94C2
:102F800093040C943709E614F70414F40C94B20B70
:102F90000AC06E147F0414F40C94B20B6615770506
:102FA00014F40C94B20B0F5F1F4F20E00C94B30B82
:102FB000CB01019690930D0580930C05072E000C14
:102FC000880B990B0E94371F4B015C01209106056D
:102FD0003091070540910805509109050E945A203B
:102FE0002091FE043091FF044091000550910105AD
:102FF0000E94E81D2B013C01209102053091030540
:103000004091040550910505C501B4010E945A2064
:103010009B01AC016091FA047091FB048091FC0467
:103020009091FD040E94E81D69837A838B839C83C1
:103030004D825E826F827886BE016F5F7F4FCE01C8
:1030400043960E94DE025B895E1103C08C898F1556
:10305000C9F1F801EE0FFF1FEE52FB4F5083FC88C1
:10306000F801EE0FFF1FED52FB4FF0829CE09F9D99
:10307000F0011124852F86958695E80FF11DE45700
:10308000FD4F6081252F237030E0D901A45FBE4F32
:103090004C91220F331F842F862390E0022E02C012
:1030A000959587950A94E2F7833091054CF48F5FEC
:1030B00001C0880F2A95EAF740956423862B808308
:1030C0000F5F1F4FE52EF4C8B801C701820F911D95
:1030D00027FD9A95AC962FAFAC970E94D30634E0AB
:1030E000AC962FADAC97321B8091D0049091D10457
:1030F000F80160C920E030E0A9016FA178A589A599
:103100009AA50E944D2018162CF02AE939E949E8C1
:1031100051EC04C02AE939E949E851E46FA178A5E6
:1031200089A59AA50E94E71DE0911A05F0911B055B
:1031300020853185428553850E948D1E26966FAF6E
:10314000269727967FAF279728968FAF289729969F
:103150009FAF29977BCD80E090E00C941E0FA701D4
:1031600096016FA178A589A59AA50E94831E87FF65
:103170002ACD2FA538A949A95AA960E070E080EAB4
:1031800091E40E948D1E0E94541E2B013C010CCD27
:103190002F923F924F925F926F927F928F929F9267
:1031A000AF92BF92CF92DF92EF92FF920F931F9355
:1031B000CF93DF9310922B0110922A0188EE882E74
:1031C00083E0982EA12CB12C80922C0190922D019D
:1031D000A0922E01B0922F0184E191E090932901F9
:1031E0008093280185EC90E0909335018093340121
:1031F00084EC90E0909337018093360180EC90E06E
:10320000909339018093380181EC90E090933B01D9
:1032100080933A0182EC90E090933D0180933C01D1
:1032200086EC90E090933F0180933E011092410123
:103230001092420110924301109244011092D30166
:103240001092D2011092D4012FEF2093D50181E08A
:1032500090E09093D7018093D60131E03093D8016C
:103260002093D901C2E0D0E0D093DB01C093DA0112
:1032700042E04093DC012093DD0103E010E0109375
:10328000DF010093DE0143E04093E0012093E10180
:1032900044E0242E312C3092E3012092E20145E0FB
:1032A0004093E4012093E50155E0A52EB12CB092A6
:1032B000E701A092E60146E04093E8012093E9018E
:1032C00046E050E05093EB014093EA0147E0409321
:1032D000EC012093ED0167E070E07093EF016093E3
:1032E000EE0148E04093F00148EF4093F101A8E07F
:1032F000B0E0B093F301A093F20144E04093F401F5
:103300002093F50149E050E05093F7014093F60116
:1033100040E44093F80140EC4093F9014FE74093BB
:10332000CE012093CF012093D0012093D1011092A0
:10333000B7071092B8071092B9073093BA071092E6
:10334000B3071092B4071092B5071092B6074091D8
:10335000D2015091D3016091D4017091D501409375
:10336000C5015093C6016093C7017093C8011092C4
:10337000C9011092CA011092CB011092CC01109297
:10338000CD0144E150E060E070E040935B07509372
:103390005C0760935D0770935E079093640780936A
:1033A000630768EE862E63E0962EA12CB12C8092E6
:1033B000670790926807A0926907B0926A07909396
:1033C000700780936F07A091BB07B091BC07B093C3
:1033D0006607A09365071092AA071092A9074FE00D
:1033E00050E060E070E04093680550936905609399
:1033F0006A0570936B05909371058093700544E6A0
:1034000050E060E070E04093740550937505609360
:1034100076057093770590937D0580937C05AD01CB
:103420004F5F5F4F5093730540937205E4E1F1E005
:10343000E491E093D206E5E1F1E0E491E093D30674
:1034400040E051E0FA013491E32FF0E0EE0FFF1F6E
:10345000E651FF4F659174917093D5066093D40641
:10346000E1E0F1E0E491F0E0EE0FFF1FE052FF4FEA
:10347000659174917093D7066093D606FA014491D2
:10348000E42FF0E0EE0FFF1FEA52FF4F65917491B9
:103490007093D9066093D80641EC5CE25093DB064A
:1034A0004093DA065AE0852E912CA12CB12C809203
:1034B000F1069092F206A092F306B092F406909371
:1034C000FA068093F9061092E30640E050E060E8C7
:1034D00070E440938E0550938F0560939005709330
:1034E0009105C12CD12CE12C60E4F62EC0929205FE
:1034F000D0929305E0929405F092950549EA55ED36
:1035000063E874E44093960550939705609398059B
:10351000709399054BE050E050937F0540937E05F2
:1035200076E6872E982C76EEA72E70E4B72E809242
:10353000AA059092AB05A092AC05B092AD0540E013
:1035400050E060E271E44093AE055093AF056093A4
:10355000B0057093B105EDEE8E2EE7E09E2EE4E807
:10356000AE2EE4ECBE2E8092B2059092B305A092EE
:10357000B405B092B505ECE0F0E0F0939B05E09364
:103580009A05FAE98F2EF9E99F2EF9E1AF2EF0E4C2
:10359000BF2E8092C6059092C705A092C805B09232
:1035A000C9054093CA055093CB056093CC05709331
:1035B000CD051092CE051092CF051092D005109235
:1035C000D1059093B7058093B6053AE9432E39E9C2
:1035D000532E39E1632E30EC732E4092E205509267
:1035E000E3056092E4057092E5054093E60550938B
:1035F000E7056093E8057093E9051092EA051092DB
:10360000EB051092EC051092ED05D093D305C09315
:10361000D205E6E68E2E982CE6EEAE2EE0ECBE2E1F
:103620008092FE059092FF05A0920006B0920106DE
:1036300040930206509303066093040670930506B8
:103640004DEE57E064E874E4409306065093070695
:1036500060930806709309061093EF050093EE053A
:1036600040E050E060E870EC40931A0650931B066F
:1036700060931C0670931D06C0921E06D0921F0612
:10368000E0922006F0922106F9EACF2EF5EDDF2E2A
:10369000F3E8EF2EF4ECFF2EC0922206D092230620
:1036A000E0922406F092250630920B0620920A063C
:1036B0004093360650933706609338067093390668
:1036C000C6E6CC2EDC2CEC2CC0E4FC2EC0923A06D4
:1036D000D0923B06E0923C06F0923D0641E35AE36D
:1036E00064E874E440933E0650933F0660934006BE
:1036F00070934106D5E0AD2EB12CB0922706A09272
:10370000260646E656E666EE70EC40935206509367
:103710005306609354067093550640E050E060E213
:1037200071EC409356065093570660935806709379
:10373000590615E6812E13EA912E13E8A12E14ECFA
:10374000B12E80925A0690925B06A0925C06B092CF
:103750005D0606E0A02EB12CB0924306A092420670
:1037600040926E0650926F066092700670927106DB
:1037700040937206509373066093740670937506B7
:103780003BED432E3FE0532E39E4632E30E4732E9D
:10379000409276065092770660927806709279068B
:1037A000E7E0F0E0F0935F06E0935E06EAE98E2E34
:1037B000E9E99E2EE9E1AE2EE0E4BE2E80928A0673
:1037C00090928B06A0928C06B0928D0640938E0646
:1037D00050938F06609390067093910640929206E4
:1037E000509293066092940670929506F8E0AF2E80
:1037F000B12CB0927B06A0927A06C6E68C2E982C4D
:10380000C6EEAC2EC0E4BC2E8092A6069092A7060F
:10381000A092A806B092A9064093AA065093AB06C0
:103820006093AC067093AD0645E653EA63E874E432
:103830004093AE065093AF066093B0067093B10606
:103840004DE050E0509397064093960640E050E0DC
:1038500060E870E44093C2065093C3066093C406C8
:103860007093C506C092C606D092C706E092C806FD
:10387000F092C90641E35AE364E874EC4093CA0647
:103880005093CB066093CC067093CD064AE050E08F
:103890005093B3064093B206DFE08D2E912CA12CFD
:1038A000B12C8092480590924905A0924A05B092A9
:1038B0004B05909351058093500548EC50E060E033
:1038C00070E04093540550935505609356057093EE
:1038D000570590935D0580935C05AD014E5F5F4F8A
:1038E000509353054093520545E050E060E070E08E
:1038F0004093FA015093FB016093FC017093FD012A
:10390000909303028093020242E350E060E070E093
:1039100040930602509307026093080270930902D5
:1039200090930F0280930E02AD014C5F5F4F509356
:10393000BC074093BB071396B0930502A093040203
:1039400090931102809310021092120210921302AF
:103950001092140210921502109216021092170281
:10396000109218021092190210921A0210921B0261
:1039700010921C0210921D0210921E0210921F0241
:1039800010922002109221024BED5FE069EC7FE380
:1039900040932402509325026093260270932702DD
:1039A000109228021092290210922A0210922B02E1
:1039B00040E050E060E87FE340932C0250932D02FA
:1039C00060932E0270932F024AE050E060E070E0B6
:1039D000409330025093310260933202709333026D
:1039E000909339028093380240E050E060E07FE33A
:1039F00040933A0250933B0260933C0270933D0225
:103A00004DEC5CEC6CEC7DE340933E0250933F0246
:103A1000609340027093410210924202109243025E
:103A200010924402109245021092460210924702F0
:103A3000109248021092490240E050E06FE773ECA8
:103A400040934A0250934B0260934C0270934D0294
:103A500040E050E06FE773E440934E0250934F0212
:103A6000609350027093510210925A0220935B02AD
:103A700032E230935C0236E930935D0218EE812E1B
:103A800013E0912EA12CB12C80925F0290926002E3
:103A9000A0926102B09262029093680280936702E2
:103AA00044EF51E060E070E04093690250936A0295
:103AB00060936B0270936C0210927202109271020A
:103AC00008EBC02E0BE0D02EE12CF12CC09273023B
:103AD000D0927402E0927502F092760210927C020B
:103AE00010927B0240937E0250937F02609380028B
:103AF00070938102909387028093860282E192E024
:103B000090938902809388022093CC042093CF0461
:103B10008BEF96E090930F0580930E0580E0E82FE1
:103B2000E370F0E0E45FFE4F90819095E82FE6951A
:103B3000E695F0E0E457FD4F20E030E04081492376
:103B400040832F5F3F4F3C9620333105B9F78F5F9D
:103B5000803329F78CE892E09093CE048093CD04D3
:103B60001092CC049093D1048093D0041092CF048F
:103B700082E390E0A0E0B0E08093100590931105FF
:103B8000A0931205B093130581E090E0909319057E
:103B90008093180582E192E090931B0580931A05AB
:103BA0001092460510924705DF91CF911F910F911A
:103BB000FF90EF90DF90CF90BF90AF909F908F904D
:103BC0007F906F905F904F903F902F900895505846
:103BD000BB27AA270E94FF1D0C94FF1F0E94C61F2F
:103BE00038F00E94CD1F20F039F49F3F19F426F4DD
:103BF0000C949C1F0EF4E095E7FB0C94961FE92FA4
:103C00000E94242058F3BA176207730784079507A8
:103C100020F079F4A6F50C9446200EF4E0950B2ED6
:103C2000BA2FA02D0B01B90190010C01CA01A0010E
:103C30001124FF27591B99F0593F50F4503E68F169
:103C40001A16F040A22F232F342F4427585FF3CFAA
:103C5000469537952795A795F0405395C9F77EF47B
:103C60001F16BA0B620B730B840BBAF09150A1F0C4
:103C7000FF0FBB1F661F771F881FC2F70EC0BA0F4A
:103C8000621F731F841F48F4879577956795B795D2
:103C9000F7959E3F08F0B0CF9395880F08F09927CD
:103CA000EE0F979587950895DF93DD27B92FBF779E
:103CB00040E85FE31616170648075B0718F4D92F8C
:103CC0000E9452209F938F937F936F930E941521A0
:103CD000E8E6F0E00E949F1F0E94FF1F2F913F9196
:103CE0004F915F910E946D20DD2351F09058A2EA20
:103CF0002AED3FE049EC5FE3D0785D270E94FF1D8D
:103D0000DF910C94FF1F0E94721F08F481E0089558
:103D10000E94D61FE3950C9410200E94A11E0C94C3
:103D2000FF1F0E94CD1F58F00E94C61F40F029F4CB
:103D30005F3F29F00C94961F51110C9447200C946E
:103D40009C1F0E94242068F39923B1F3552391F31B
:103D5000951B550BBB27AA2762177307840738F0FA
:103D60009F5F5F4F220F331F441FAA1FA9F335D057
:103D70000E2E3AF0E0E832D091505040E695001C0B
:103D8000CAF72BD0FE2F29D0660F771F881FBB1FC5
:103D9000261737074807AB07B0E809F0BB0B802DA3
:103DA000BF01FF2793585F4F3AF09E3F510578F0CF
:103DB0000C94961F0C9447205F3FE4F3983ED4F395
:103DC000869577956795B795F7959F5FC9F7880FA3
:103DD000911D9695879597F90895E1E0660F771FF5
:103DE000881FBB1F621773078407BA0720F0621B86
:103DF000730B840BBA0BEE1F88F7E09508950E94B1
:103E0000061F6894B1110C94472008950E942C203D
:103E100088F09F5798F0B92F9927B751B0F0E1F08B
:103E2000660F771F881F991F1AF0BA95C9F714C03B
:103E3000B13091F00E944620B1E008950C944620E4
:103E4000672F782F8827B85F39F0B93FCCF3869574
:103E500077956795B395D9F73EF4909580957095D1
:103E600061957F4F8F4F9F4F0895E89409C097FB4E
:103E70003EF490958095709561957F4F8F4F9F4F41
:103E80009923A9F0F92F96E9BB279395F695879585
:103E900077956795B795F111F8CFFAF4BB0F11F448
:103EA00060FF1BC06F5F7F4F8F4F9F4F16C08823EF
:103EB00011F096E911C0772321F09EE8872F762F25
:103EC00005C0662371F096E8862F70E060E02AF066
:103ED0009A95660F771F881FDAF7880F9695879552
:103EE00097F90895990F0008550FAA0BE0E8FEEF27
:103EF00016161706E807F907C0F012161306E407AE
:103F0000F50798F0621B730B840B950B39F40A26A6
:103F100061F0232B242B252B21F408950A2609F484
:103F2000A140A6958FEF811D811D089597F99F6788
:103F300080E870E060E008959FEF80EC0895DF93E3
:103F4000CF931F930F93FF92EF92DF927B018C012F
:103F5000689406C0DA2EEF010E946D20FE01E894FD
:103F6000A5912591359145915591A6F3EF010E94B8
:103F7000FF1DFE019701A801DA9469F7DF90EF9029
:103F8000FF900F911F91CF91DF91089500240A9423
:103F90001616170618060906089500240A94121624
:103FA00013061406050608950C949C1F0E942C20ED
:103FB000D8F3E894E0E0BB279F57F0F02AED3FE00C
:103FC00049EC06C0EE0FBB0F661F771F881F28F055
:103FD000B23A62077307840728F0B25A620B730B78
:103FE000840BE3959A9572F7803830F49A95BB0F5D
:103FF000661F771F881FD2F790480C944021092E26
:104000000394000C11F4882352F0BB0F40F4BF2B33
:1040100011F460FF04C06F5F7F4F8F4F9F4F089573
:10402000EF93E0FF07C0A2EA2AED3FE049EC5FEB27
:104030000E94FF1D0E94FF1F0F90039401FC9058E7
:10404000E5E9F0E00C94532157FD9058440F551FBB
:1040500059F05F3F71F04795880F97FB991F61F00A
:104060009F3F79F087950895121613061406551F81
:10407000F2CF4695F1DF08C0161617061806991FED
:10408000F1CF86957105610508940895E894BB27E2
:1040900066277727CB0197F908950E94721F08F4CD
:1040A0008FEF08959B01AC0160E070E080E89FE332
:1040B0000C948D1E0E946D200C94FF1F0E94C61F41
:1040C00038F00E94CD1F20F0952311F00C94961F1C
:1040D0000C949C1F11240C9447200E94242070F300
:1040E000959FC1F3950F50E0551F629FF001729F9D
:1040F000BB27F00DB11D639FAA27F00DB11DAA1FAC
:10410000649F6627B00DA11D661F829F2227B00DF8
:10411000A11D621F739FB00DA11D621F839FA00D83
:10412000611D221F749F3327A00D611D231F849FD3
:10413000600D211D822F762F6A2F11249F5750402A
:104140009AF0F1F088234AF0EE0FFF1FBB1F661FA5
:10415000771F881F91505040A9F79E3F510580F06E
:104160000C94961F0C9447205F3FE4F3983ED4F3E1
:10417000869577956795B795F795E7959F5FC1F712
:10418000FE2B880F911D9695879597F908959F931B
:104190000E94D61F0F9007FCEE5F0C94102019F4BC
:1041A00016F40C949C1F0C943E210E942C20B8F312
:1041B0009923C9F3B6F39F57550B87FF0E944C21F3
:1041C0000024A0E640EA900180585695979528F47F
:1041D000805C660F771F881F20F026173707480777
:1041E00030F4621B730B840B202931294A2BA695CE
:1041F00017940794202531254A2758F7660F771F13
:10420000881F20F026173707480730F4620B730B1E
:10421000840B200D311D411DA09581F7B901842F1C
:104220009158880F9695879508959B01AC010C9441
:104230005A20DF93D92F0E94D61FE695D7952AEDF5
:104240003FE049E45FE3B33A6207730784079507E9
:10425000D7953AF0A2EA49EC90680E94FF1D0E94AF
:10426000FF1FE3EBF0E00E945321DD0F13F00E94EB
:104270005220DD0F0BF49058DF9108959F3F31F0ED
:10428000915020F4879577956795B795880F911D84
:104290009695879597F9089591505040660F771F2E
:1042A000881FD2F708959F938F937F936F93FF9307
:1042B000EF939B01AC010E945A20EF91FF910E9465
:1042C0009F1F2F913F914F915F910C945A2097FB24
:1042D000072E16F4009407D077FD09D00E94C42160
:1042E00007FC05D03EF4909581959F4F08957095F9
:1042F00061957F4F0895A1E21A2EAA1BBB1BFD01F9
:104300000DC0AA1FBB1FEE1FFF1FA217B307E407B4
:10431000F50720F0A21BB30BE40BF50B661F771F0C
:10432000881F991F1A9469F76095709580959095EC
:104330009B01AC01BD01CF010895052E97FB1EF432
:1043400000940E94B42157FD07D00E947B2107FCF6
:1043500003D04EF40C94B42150954095309521959E
:104360003F4F4F4F5F4F08959095809570956195A1
:104370007F4F8F4F9F4F0895B7FF0C94DE210E940F
:10438000DE21821B930B0895AA1BBB1B51E107C0C2
:10439000AA1FBB1FA617B70710F0A61BB70B881FD5
:1043A000991F5A95A9F780959095BC01CD01089564
:1043B000EE0FFF1F0590F491E02D09940E94E92172
:1043C000A59F900DB49F900DA49F800D911D112469
:1043D0000895A29FB001B39FC001A39F700D811DDE
:1043E0001124911DB29F700D811D1124911D0895FE
:0E43F00081E090E0F8940C94FD21F894FFCF4A
:1043FE0002000000003F050000000000030C30C06A
:10440E00000000002A04C300C2037104F303D103A9
:04441E00E5030C01A5
:00000001FF
