:100000000C9471000C9499000C9499000C94990034
:100010000C9499000C9499000C9499000C94D104C0
:100020000C9499000C9499000C9499000C949900EC
:100030000C9499000C9499000C9499000C949900DC
:100040000C9487040C9499000C9430030C940A03CC
:100050000C9499000C9499000C9499000C949900BC
:100060000C9499000C94990005A84CCDB2D44EB9CB
:100070003836A9020C50B9918688083CA6AAAA2A4B
:10008000BE000000803F00000000240027002A007E
:1000900000000000230026002900000000002500C9
:1000A00028002B00040404040404040402020202D5
:1000B000020203030303030301020408102040802B
:1000C00001020408102001020408102000000008AA
:1000D000000201000003040700000000000000000F
:1000E000420F11241FBECFEFD8E0DEBFCDBF27E007
:1000F000A2E4B1E001C01D92AC3EB207E1F711E00D
:10010000A0E0B1E0E6E6F4E302C005900D92A2346F
:10011000B107D9F710E0C1E7D0E004C02197FE0194
:100120000E941F18C037D107C9F70E94E4050C943C
:10013000311A0C940000CF92DF92EF92FF920F934E
:100140001F93CF93DF936C017A018B01C0E0D0E065
:10015000CE15DF0589F0D8016D918D01D601ED91A5
:10016000FC910190F081E02DC6010995892B11F4D5
:100170007E0102C02196ECCFC701DF91CF911F9184
:100180000F91FF90EF90DF90CF9008950E941C1A7E
:10019000CF92DF92EF92FF9297FD06C0853B9105CB
:1001A0002CF084EB90E002C080E090E08093790234
:1001B000C0907A0220917B0230E02C193109D12CB9
:1001C000E12CF12CFE2CED2CDC2CCC24A901330FDE
:1001D000660B770B2227342F452F562FDC010E9408
:1001E000031824EB30E040E050E00E94E417C70120
:1001F000B601620F731F841F951F28E030E040E0B6
:1002000050E00E94E41780917802893029F43093FD
:1002100089002093880004C030938B0020938A00CB
:10022000FF90EF90DF90CF9008950F931F93CF939F
:10023000DF938C010353184FF801C081D1E0CD2723
:1002400001F129E0289FB001299F700D1124FB01C5
:10025000E758F84F8091E3019091E401A091E50106
:10026000B091E60182A793A7A4A7B5A78091E70163
:1002700086A76855784F88EE91E00E94FE04F80149
:10028000D0838C2FDF91CF911F910F910895FC01A6
:1002900020816181862F90E0A0E0B0E0DC01992709
:1002A0008827B22B2381822B2281BC01CD01722BA6
:1002B0000895009769F0FC0101900020E9F731975B
:1002C000AF01481B590BBC0186E491E00C949B00E4
:1002D00080E090E008958F929F92AF92BF920F932B
:1002E0001F93CF93DF93CDB7DEB7A1970FB6F894E6
:1002F000DEBF0FBECDBF19A2423008F44AE08E0126
:100300000F5D1F4F842E912CA12CB12CA5019401BF
:100310000E94C217E62FB901CA0101501109EA3043
:1003200014F4E05D01C0E95CD801EC93232B242B8D
:10033000252B61F7C8010E945901A1960FB6F894C8
:10034000DEBF0FBECDBFDF91CF911F910F91BF9048
:10035000AF909F908F900895E0914601F0914701F2
:100360000190F081E02D682F86E491E00994CF920E
:10037000DF92EF92FF92CF93DF936C01990FEE081B
:10038000FF08F7FE12C08DE20E94AC01EC01662767
:100390007727CB016C197D098E099F094AE00E94DD
:1003A0006B017C01EC0EFD1E06C04AE0C701B601E0
:1003B0000E946B017C0182E391E00E9459018E0D45
:1003C0009F1DDF91CF91FF90EF90DF90CF90089528
:1003D0001F93CF93DF9382302FEF920734F08F3F3C
:1003E000910534F0CFEFD0E004C0C1E0DFEF01C0F1
:1003F000EC011D2F1095111F1127111F11F0BE01C7
:1004000002C060E070E085E00E94F703111105C0B2
:10041000662777276C1B7D0B02C060E070E086E0EA
:10042000DF91CF911F910C94F703FC01918D828D88
:10043000981761F0828DDF01A80FB11D5D968C9138
:10044000928D9F5F9F73928F90E008958FEF9FEF43
:100450000895FC01918D828D981731F0828DE80FFF
:10046000F11D858D90E008958FEF9FEF0895FC01B9
:10047000918D228D892F90E0805C9F4F821B910986
:100480008F739927089586E491E00E94370221E056
:10049000892B09F420E0822F0895FC01848DDF016F
:1004A000A80FB11DA35ABF4F2C91848D90E00196E7
:1004B0008F739927848FA689B7892C93A089B189D6
:1004C0008C9180648C93938D848D981306C00288E0
:1004D000F389E02D80818F7D80830895EF92FF92D4
:1004E0000F931F93CF93DF93EC0181E0888F9B8D57
:1004F0008C8D981305C0E889F989808185FD24C019
:10050000F62E0B8D10E00F5F1F4F0F731127E02E9B
:100510008C8DE8120CC00FB607FCFACFE889F98978
:10052000808185FFF5CFCE010E944D02F1CF8B8DEA
:10053000FE01E80FF11DE35AFF4FF0820B8FEA89AD
:10054000FB898081806207C0EE89FF896083E8892A
:10055000F98980818064808381E090E0DF91CF9190
:100560001F910F91FF90EF900895CF93DF93EC01CF
:10057000888D8823C9F0EA89FB89808185FD05C0C3
:10058000A889B9898C9186FD0FC00FB607FCF5CFFD
:10059000808185FFF2CFA889B9898C9185FFEDCF45
:1005A000CE010E944D02E7CFDF91CF91089580E008
:1005B00090E0892B29F00E94430281110C940000E5
:1005C0000895833081F028F4813099F08230A1F0D1
:1005D00008958730A9F08830B9F08430D1F4809143
:1005E00080008F7D03C0809180008F778093800092
:1005F000089584B58F7702C084B58F7D84BD08953A
:100600008091B0008F7703C08091B0008F7D809380
:10061000B00008951F920F920FB60F9211242F93DE
:100620003F934F935F936F937F938F939F93AF937A
:10063000BF93EF93FF9386E491E00E944D02FF91F8
:10064000EF91BF91AF919F918F917F916F915F914A
:100650004F913F912F910F900FBE0F901F901895C3
:100660001F920F920FB60F9211242F938F939F9387
:10067000EF93FF93E0915601F09157018081E09153
:100680005C01F0915D0182FD12C0908180915F015B
:100690008F5F8F7320916001821751F0E0915F01AD
:1006A000F0E0EA5BFE4F958F80935F0101C080818F
:1006B000FF91EF919F918F912F910F900FBE0F900F
:1006C0001F901895CF93DF93282F30E0F901E45362
:1006D000FF4F8491F901E854FF4FD491F901EC5593
:1006E000FF4FC491CC2391F081110E94E102EC2FC5
:1006F000F0E0EE0FFF1FE057FF4FA591B491EC9192
:10070000ED2381E090E021F480E002C080E090E001
:10071000DF91CF9108951F93CF93DF93282F30E07F
:10072000F901E453FF4F8491F901E854FF4FD4914C
:10073000F901EC55FF4FC491CC23C9F0162F81115C
:100740000E94E102EC2FF0E0EE0FFF1FE656FF4F94
:10075000A591B4918FB7F894111105C09C91ED2F1C
:10076000E095E92302C0EC91ED2BEC938FBFDF9174
:10077000CF911F910895CF93DF9390E0FC01E8544F
:10078000FF4F2491FC01EC55FF4F8491882361F1C8
:1007900090E0880F991FFC01EA57FF4FC591D49153
:1007A000FC01E656FF4FA591B491611109C09FB7B6
:1007B000F8948881209582238883EC912E230BC0A6
:1007C000623061F49FB7F8943881822F809583233B
:1007D0008883EC912E2B2C939FBF06C08FB7F89483
:1007E000E8812E2B28838FBFDF91CF9108951F932F
:1007F000CF93DF93182FEB0161E00E94BB0320979A
:1008000011F460E004C0CF3FD10539F461E0812FDD
:10081000DF91CF911F910C948B03E12FF0E0E45313
:10082000FF4FE491E330F9F048F4E130B9F0E23001
:10083000A1F584B5806284BDC8BD34C0E730E9F05D
:10084000E83019F1E43049F58091800080628093AE
:100850008000D0938B00C0938A0024C084B5806848
:1008600084BDC7BD1FC080918000806880938000D8
:10087000D0938900C093880015C08091B000806833
:100880008093B000C093B3000DC08091B00080622F
:100890008093B000C093B40005C0C038D1050CF0FF
:1008A000B5CFAFCFDF91CF911F9108953FB7F894A7
:1008B0008091E4079091E507A091E607B091E707E2
:1008C00026B5A89B05C02F3F19F00196A11DB11DAB
:1008D0003FBFBA2FA92F982F8827820F911DA11DE6
:1008E000B11DBC01CD0142E0660F771F881F991F23
:1008F0004A95D1F708952FB7F8946091E007709169
:10090000E1078091E2079091E3072FBF08951F92BE
:100910000F920FB60F9211242F933F938F939F93B3
:10092000AF93BF938091E0079091E107A091E20718
:10093000B091E3073091DF0723E0230F2D3720F438
:100940000196A11DB11D05C026E8230F0296A11D29
:10095000B11D2093DF078093E0079093E107A093F8
:10096000E207B093E3078091E4079091E507A09137
:10097000E607B091E7070196A11DB11D8093E4073A
:100980009093E507A093E607B093E707BF91AF9177
:100990009F918F913F912F910F900FBE0F901F90BD
:1009A00018951F920F920FB60F9211242F933F9319
:1009B0004F935F936F937F938F939F93AF93BF9367
:1009C000EF93FF93E0914201F09143010995FF916C
:1009D000EF91BF91AF919F918F917F916F915F91B7
:1009E0004F913F912F910F900FBE0F901F90189530
:1009F000E0E7F0E080818D7F80830895FB019C011A
:100A00002C5F3F4FDC014D91CD014193A217B307FD
:100A1000C9F70895CF92DF92EF92FF920F931F9341
:100A2000CF93DF93FC0120853185232BA9F0EC01C6
:100A30000E947B04C880D980EA80FB800C811D81E4
:100A40002E813F81C00ED11EE21EF31E21E06C15E7
:100A50007D058E059F0508F420E0822FDF91CF9160
:100A60001F910F91FF90EF90DF90CF9008958F929C
:100A70009F92AF92BF92CF92DF92EF92FF920F932D
:100A80001F93CF93DF930E9456040091FA061091B2
:100A9000FB062091FC063091FD0606171707280774
:100AA000390718F40E94F8044CC0E091F406F09164
:100AB000F50690818091F106892309F042C00E94D9
:100AC000F8040E9456042091F8063091F906690155
:100AD000E12CF12C0091FA061091FB062091FC0606
:100AE0003091FD0646015701801A910AA20AB30A05
:100AF000950184010D50110921093109600F711F01
:100B0000821F931F6093EC067093ED068093EE06B0
:100B10009093EF062091FE063091FF064CE1429F34
:100B2000E001439FD00D1124CA57DA4F29E330E08A
:100B300040E050E00E94C217398F288F10920007C2
:100B400026C08FE097E00E940A05882301F180917A
:100B5000FE069091FF062CE1289FF001299FF00DE1
:100B60001124EA57FA4F88EC90E0918F808F109211
:100B70000007DF91CF911F910F91FF90EF90DF90D1
:100B8000CF90BF90AF909F908F900C94F804DF911E
:100B9000CF911F910F91FF90EF90DF90CF90BF907A
:100BA000AF909F908F900895CF93DF93EC010E94B8
:100BB0007B046C837D838E839F8381E090E09987A3
:100BC0008887DF91CF910895CF93DF93CDB7DEB7BC
:100BD000E2970FB6F894DEBF0FBECDBF789484B510
:100BE000826084BD84B5816084BD85B5826085BD29
:100BF00085B5816085BD80916E00816080936E00B7
:100C000010928100809181008260809381008091A8
:100C10008100816080938100809180008160809359
:100C200080008091B10084608093B1008091B00019
:100C300081608093B00080917A00846080937A0014
:100C400080917A00826080937A0080917A0081603E
:100C500080937A0080917A00806880937A00109265
:100C6000C1001092C9071092CD071092CA071092C6
:100C7000CE071092CB071092CF071092CC0710929C
:100C8000D007E0915601F091570182E08083E09116
:100C90005201F09153011082E0915401F0915501FD
:100CA0008FEC808310925E01E0915A01F0915B011C
:100CB00086E08083E0915801F09159018081806144
:100CC0008083E0915801F091590180818860808390
:100CD000E0915801F0915901808180688083E09112
:100CE0005801F091590180818F7D8083109299077E
:100CF0001092980761E088E00E94BB0361E087E002
:100D00000E94BB0361E08BE00E94BB0361E08AE0CC
:100D10000E94BB03EEE9F5E088EC90E095878487BC
:100D2000918380839383828395838483978386834F
:100D300091878087938782877C9626E0EE3EF20734
:100D400069F781E080930107109200078BE090E043
:100D50009093FF068093FE0684E090E09093030753
:100D60008093020710920D0760E082E00E94BB03AF
:100D700060E084E00E94BB0360E083E00E94BB036C
:100D800060E08EE00E94BB0360E08FE00E94BB0346
:100D900060E080E10E94BB0360E081E10E94BB0350
:100DA00060E082E10E94BB0361E083E10E94BB033B
:100DB0000E947B0460937C0570937D0580937E0583
:100DC00090937F0510928105109280051092820504
:100DD00010928305109284051092850561E085E0EC
:100DE0000E94BB0361E086E00E94BB0389E0809320
:100DF00078028FEF8093790260E089E00E948B0394
:100E000061E0809178020E94BB03809145018111CD
:100E100022C08091440181111EC02FB7F89482E056
:100E2000809380008AE18093810088EB9BE090931F
:100E300089008093880090938B0080938A0080E4DF
:100E40009CE9909387008093860080916F00887F53
:100E500080936F002FBF80917802893041F481E048
:100E600080934501809180008F73806807C081E086
:100E700080934401809180008F7C80628093800009
:100E800010927402109275021092760210927702FC
:100E90008AE590E00E94C8001092700210927102E0
:100EA000109272021092730210929B02AE014F5F79
:100EB0005F4F5A8F498FCE0149969C8F8B8F89E760
:100EC00097E00E940A05882309F439C185E897E074
:100ED0000E940A0581112FC186E491E00E94370229
:100EE000009709F4CAC0409198075091990729E0EA
:100EF00030E0241B350B8C01281739070CF48901CD
:100F0000E12CF12CD12CE016F1060CF070C086E437
:100F100091E00E9415022091C7073091C807213047
:100F2000310561F12230310509F441C0232B09F06C
:100F30005AC02091980730919907F901E451FE4F6A
:100F40009081891316C0A9014F5F5F4F5093990795
:100F500040939807F901E758F84F868B44305105C4
:100F600009F041C0A1E0B0E0B093C807A093C70763
:100F70003AC0109299071092980735C020919807AF
:100F800030919907A9014F5F5F4F509399074093A4
:100F90009807F901E758F84F868B4530510519F548
:100FA000E2E0F0E0F093C807E093C7071CC020918F
:100FB000980730919907A9014F5F5F4F50939907A8
:100FC00040939807F901E758F84F868B493051054F
:100FD00051F410929907109298071092C807109236
:100FE000C707DD24D394FFEFEF1AFF0A8CCFDD2073
:100FF00009F443C05091930750939E0720E030E0DE
:10100000F901E051FE4F8081918143814523628146
:10101000641303C08A30910539F42C5F3F4F2832A6
:10102000310571F78AE090E0880F991F880F991FAA
:10103000FC01E051FE4F80819181A281B3818093B8
:101040009A0790939B07A0939C07B0939D07BE01BE
:101050006F5F7F4F84E997E00E94FE046FE977E0BD
:10106000CE0101960E94FE0481E08093C90780931F
:10107000CA078093CB078093CC07FDECEF2EF7E0F7
:10108000FF2E00E010E0A5E0DA2ED7018C91882336
:1010900009F444C01C92F801E758F84FC6A4BE01F9
:1010A0006F5F7F4F8CEE91E00E94FE04CD82FE01C7
:1010B0003196DE011A968D2D01900D928A95E1F7F9
:1010C000FE013A96DE011F968D2D01900D928A95B4
:1010D000E1F7FE013F96DE0154968D2D01900D92B1
:1010E0008A95E1F7C8018855984FFE017496DE0194
:1010F000119621912D934B8C5C8CE415F505C9F765
:10110000BE016A5F7F4F0E94FE0449E050E0BE01CD
:101110006F5F7F4F86E491E00E949B002FEFE21A01
:10112000F20A075F1F4F0432110509F0AECF89E7BD
:1011300097E00E94D40585E897E00E94D40586E8F0
:1011400095E00E940A05882309F4B0C282E995E07F
:101150000E940A058111A6C280910107882309F423
:101160009DC2E0919005F0919105E753F84F808181
:10117000882399F1108280919A0790919B07A09102
:101180009C07B0919D078093040790930507A09357
:101190000607B093070780919E078093080769E0D0
:1011A00077E08FE997E00E94FE0480910407909118
:1011B0000507069791F489E097E00E94470121E036
:1011C000672B682B692B09F420E020930D07809191
:1011D0009005909191050E94150180910007811161
:1011E0005DC2C090FE06D090FF063BE0C316D1045E
:1011F00069F48091020790910307019665E070E021
:101200000E94AE1790930307809302074090020755
:101210005090030758A24F8E8CE18C9DF0018D9D5C
:10122000F00D1124EA57FA4F208C318C211431042F
:1012300011F0710103C0E8ECEE2EF12C8EE08C9DD4
:10124000F0018D9DF00D11246F8C78A0E60DF71D37
:10125000EE0FFF1FE056FA4FF182E08228EC2216D3
:10126000310419F0E6E0F1E002C0ECE0F1E040808A
:1012700051805CA24BA282809380A480B5808CE1D7
:101280008C9DF0018D9DF00D1124EA57FA4F64A05A
:1012900075A07EA26DA2B301770C880B990B0E94FA
:1012A0008C142B013C0120E030E040E85FE3C501F5
:1012B000B4010E94FB1569A77AA78BA79CA79B0185
:1012C000AC01C301B2010E94EB140E94DE168B0137
:1012D000A501940160E070E080E89FE30E94FA15A8
:1012E0004B015C019B01AC01C301B2010E94EB14F4
:1012F0000E94DE16061717073CF0E616F7065CF0AC
:101300000E151F0544F074C0E016F10624F06E15AA
:101310007F050CF06DC08F8D98A1049665E070E09C
:101320000E94AE179E8F8D8F00E010E08EE08C9DA6
:1013300020018D9D500C11245EA64DA62101330C79
:10134000660877084FA658AA69AA7AAA6D8C7E8C7F
:101350004F8C58A06414750409F442C06BA07CA0A3
:1013600006151705ECF5EDA5FEA54D8C5E8CE40D7C
:10137000F51DEE0FFF1FE056FA4F208031806FA55C
:1013800078A989A99AA90E948C142B013C0129A54E
:101390003AA54BA55CA50E94EB140E94DE167AA329
:1013A00069A3A5019401C301B2010E94EB140E943C
:1013B000DE1669A07AA0661677060CF452C52616CA
:1013C00037060CF049C521E08D8D9E8D049665E0B1
:1013D00070E00E94AE179E8F8D8F222309F4B6CF46
:1013E0008BA19CA101970817190714F4EDA0FEA08A
:1013F0008CE18C9DF0018D9DF00D1124EA57FA4F80
:10140000F5A2E4A28CE1782E7C9CC0017D9C900D1D
:1014100011249C012A573A4F7901D90194966D9174
:101420007C919597072E000C880B990B0E948C14C9
:101430002B013C012BED3FE049EC5FE3F70166A592
:1014400077A580A991A90E94FB154B015C010E9420
:1014500067169B01AC01860193E0000F111F9A955E
:10146000E1F70A571A4F1801FDE62F1AFEEF3F0A5F
:10147000C301B2010E94EB149B01AC01D701969607
:101480006D917D918D919C9199970E94FB15F10131
:101490006083718382839383C501B4010E945817CE
:1014A0009B01AC0109561E4FC301B2010E94EB140F
:1014B0009B01AC01D7019A966D917D918D919C9184
:1014C0009D970E94FB15F80160837183828393834B
:1014D000C60101966CE070E00E94AE179093FF0683
:1014E0008093FE0610920E072CE1422E489EF001DA
:1014F000499EF00D1124EA57FA4F06891789602F8B
:10150000617088E00E948B03B801769567956170E1
:1015100087E00E948B03B80176956795769567956D
:1015200061708BE00E948B0353E0169507955A95E6
:10153000E1F7602F61708AE00E948B0381E0809365
:1015400000070E94F8048FE097E00E94D405E09124
:10155000F606F091F70690818091F006892B808342
:10156000E091F206F091F30690818091F00680956B
:10157000892380838BE090E00197F1F7E091F206F8
:10158000F091F30690818091F006892B808383E2AD
:1015900090E00197F1F7E091F206F091F306908167
:1015A0008091F006809589238083E091F606F09182
:1015B000F70690818091F006809589238083E091E1
:1015C000F406F091F50690818091F106892309F0E7
:1015D00065C00E9456042091F8063091F9068901F1
:1015E00020E030E00855194E2F4F3F4FDC01CB0172
:1015F000800F911FA21FB31F8093FA069093FB06E2
:10160000A093FC06B093FD06E091F406F091F50678
:1016100090818091F106892381F40E945604009103
:10162000FA061091FB062091FC063091FD06061784
:1016300017072807390740F731C00E945604209148
:10164000F8063091F906DC01CB01820F931FA11D32
:10165000B11D8093FA069093FB06A093FC06B0930D
:10166000FD0687E395E090934301809342010E9439
:10167000F8048091B6008F7D8093B60082E080935D
:10168000B00084E08093B1001092B20085E08093B6
:10169000B3008091700082608093700086E895E0CE
:1016A0000E94D40582E995E00E94D40586E695E083
:1016B0000E940A05882309F4D3C082E795E00E94BE
:1016C0000A058111C9C00E947B044B015C0160E0E6
:1016D00083E10E948B0382E10E946203082F81E173
:1016E0000E9462038295880F880F807C182F20E863
:1016F000029F1019112480E10E946203C82E8FE01E
:101700000E946203D82E8EE00E946203E82E83E0DE
:101710000E946203082F84E00E946203F82E82E098
:101720000E946203810F182F30E2C39E100D112416
:1017300040E1D49E100D112458E0E59E100D1124B7
:10174000000F000F010FFF0C0F0D002E000C110BEE
:1017500061E083E10E948B034091800550918105F7
:101760009801241B350BC90137FF04C0882799272E
:10177000821B930B81389105C4F0C90193953A956A
:10178000FC0197FF04C0EE27FF27E81BF90BB90106
:1017900037FF04C066277727621B730B6E177F071E
:1017A0000CF4C901840F951F01C0C801C0907C05CD
:1017B000D0907D05E0907E05F0907F0524013501F5
:1017C0004C185D086E087F0880927C0590927D051C
:1017D000A0927E05B0927F0510938105009380054D
:1017E000411451046104710441F1BC01641B750B87
:1017F000072E000C880B990B0E948C1420E030E01F
:1018000046E155E40E946C1626E636E642EA51E4CB
:101810000E94EB144B015C01C301B2010E948A14C7
:101820009B01AC01C501B4010E946C1620E030E0C0
:101830004AE754E40E94EB1403C060E070E0CB017F
:10184000609382057093830580938405909385054A
:1018500086E695E00E94D40582E795E00E94D405D3
:1018600088E192E00E940A05882309F4F2C284E22A
:1018700092E00E940A058111E8C2C0908205D090D2
:101880008305E0908405F09085058EE492E00E9447
:101890000A05882309F4EBC08090700290907102D1
:1018A000A0907202B090730220E030E0A901C5015F
:1018B000B4010E948514811115C020E030E040E899
:1018C0005FEBC701B6010E94531787FD0BC020E0F4
:1018D00030E040E85FE3C701B6010E9485141816A6
:1018E0000CF0CDC2A7019601C501B4010E94FA1502
:1018F0004B015C010E947B046B017C0110916C0226
:1019000000916D0230906E0220906F02509068023C
:101910005D8E609069026F8E70906A0279A240902D
:101920006B024BA2209158023091590240915A0209
:1019300050915B02C501B4010E94EB142091640236
:101940003091650240916602509167020E94FB153A
:101950006DA37EA38FA398A72091600230916102AE
:101960004091620250916302C501B4010E94FA15D0
:101970002B013C018091520290915302A09154029C
:10198000B0915502A7019601281B390B4A0B5B0B3E
:10199000CA01B9010E948A149B01AC01C301B201C2
:1019A0000E946C1620915C0230915D0240915E02B3
:1019B00050915F020E94EB149B01AC016DA17EA1CE
:1019C0008FA198A50E94FB156B017C012D8D3F8D89
:1019D00049A15BA10E94531718162CF0BD8DAF8D45
:1019E000F9A1EBA104C0BC2DAD2DFE2DEF2D212FB3
:1019F000302F432D522D6B2F7A2F8F2F9E2F0E9429
:101A0000851487FF13C02D8D3F8D49A15BA1B601C1
:101A1000C7010E94531718162CF01D8D0F8D39A089
:101A20002BA004C01C2D0D2D3E2C2F2C812F902F70
:101A3000A32DB22D8093640290936502A093660259
:101A4000B09367028092600290926102A09262025B
:101A5000B0926302612F702F832D922D0E94DE16AB
:101A6000CB010E94E8018EE492E00E94D405E0914F
:101A70002202F0912302E753F84F10811123D9F08D
:101A8000108280919A0790919B07A0919C07B0913A
:101A90009D0780934F0590935005A0935105B093F7
:101AA000520580919E078093530564E575E08FE9A8
:101AB00097E00E94FE0480912E0290912F020197E0
:101AC000029708F0BEC1112309F485C18091530526
:101AD0004AE0BE016F5F7F4F90E00E945B14E98D8A
:101AE000FA8D01900020E9F731978F01498C5A8CCB
:101AF00004191509B8016F5F7F4F80E090E00E94E4
:101B000052197C01009741F0DC011C92BE016F5F0D
:101B10007F4F0E942A1A02C000E010E0A801B7011E
:101B200086E491E00E949B00C7010E94BA1886E2F9
:101B300091E00E94590189E291E00E94590104E577
:101B400015E0F80161918F0170E080E090E04AE0DB
:101B50000E946B018CE291E00E945901F5E007358B
:101B60001F0779F76091570570E080E090E04AE048
:101B70000E946B018FE291E00E94590182E391E0A3
:101B80000E94590180914F05909150050E94B70124
:101B900080914F05909150058230910509F4C8C09D
:101BA0001CF4019749F012C18330910509F4EDC08E
:101BB000089709F4F3C00AC184E595E00E94470143
:101BC0006B017C014B015C019B01AC010E94601721
:101BD000882319F085E391E01AC026013701E894C3
:101BE00077F82FEF3FEF4FE75FE7C301B2010E94A5
:101BF000601781110FC02FEF3FEF4FE75FE7C30181
:101C0000B2010E94851418162CF489E391E00E9419
:101C1000590174C02FEF3FEF4FE75FE4C701B601F2
:101C20000E94531718161CF48DE391E0F0CF2FEFAC
:101C30003FEF4FE75FECC701B6010E94851487FDB7
:101C4000F3CF20E030E0A901C701B6010E9485145E
:101C500087FF09C08DE20E94AC0146015701B7FA27
:101C6000B094B7F8B0942AE037ED43EA5BE3C501DE
:101C7000B4010E94FB154B015C010E94E5166B014B
:101C80007C010E948A149B01AC01C501B4010E9431
:101C9000FA154B015C014AE0C701B6010E946B01D5
:101CA0008EE20E94AC0120E030E040E251E4C50148
:101CB000B4010E94EB146B017C010E94E5164B01FC
:101CC000A12CB12C4AE0C501B4010E946B01C501F1
:101CD000B4010E948A149B01AC01C701B6010E94A5
:101CE000FA1520E030E040E251E40E94EB140E943B
:101CF000E51680E090E04AE00E946B0182E391E00B
:101D00000E9459018091650590E00E94B701809181
:101D1000650581115BC084E595E00E9447016093F1
:101D200070027093710280937202909373024EC09E
:101D30008091640581114AC084E595E00E944701C5
:101D40006093740270937502809376029093770289
:101D50002FE832EC45E95FE30E94EB1420E030E02D
:101D600044EB52E40E94FB150E94DE1666397105B1
:101D70003CF4CB016E3171052CF48EE190E002C091
:101D800086E990E00E94C80021C084E595E00E94A9
:101D9000470170932F0260932E0212C084E595E0F4
:101DA0000E94470121E0672B682B692B09F420E092
:101DB00020939B02222321F08CE992E00E94D4051B
:101DC00080912202909123020E9415018DE792E0FA
:101DD0000E94D4050DC08DE792E00E940A05882379
:101DE00039F081E992E00E94D40581E08093650595
:101DF00080916405882361F087E892E00E940A05DB
:101E0000882331F01092900210928F021092640594
:101E1000809165058823A9F081E992E00E940A0576
:101E2000882339F010929A02109299021092650557
:101E300008C01092700210927102109272021092F9
:101E4000730288E192E00E94D40584E292E00E944D
:101E5000D4050E94D70233C8621473040CF4B3CAC9
:101E60000AC049A05AA0241435040CF4ACCA621567
:101E700073050CF4A8CA0F5F1F4F20E0A5CA80E0CD
:101E800090E0EFCD2F923F924F925F926F927F92B0
:101E90008F929F92AF92BF92CF92DF92EF92FF927A
:101EA0000F931F93CF93DF93109249011092480133
:101EB00088EE882E83E0982EA12CB12C80924A01C6
:101EC00090924B01A0924C01B0924D018AE191E0B9
:101ED000909347018093460185EC90E090935301E5
:101EE0008093520184EC90E09093550180935401CB
:101EF00080EC90E0909357018093560181EC90E044
:101F0000909359018093580182EC90E090935B018B
:101F100080935A0186EC90E090935D0180935C0180
:101F200010925F01109260011092610110926201A3
:101F30001092F1011092F0011092F2012FEF209314
:101F4000F30181E090E09093F5018093F40131E09A
:101F50003093F6012093F701C2E0D0E0D093F9016D
:101F6000C093F80142E04093FA012093FB0103E0A3
:101F700010E01093FD010093FC0143E04093FE014B
:101F80002093FF0144E0242E312C30920102209254
:101F9000000245E0409302022093030255E0A52E83
:101FA000B12CB0920502A092040246E040930602D2
:101FB0002093070246E050E0509309024093080244
:101FC00047E040930A0220930B0267E070E07093B1
:101FD0000D0260930C0248E040930E0248EF4093DC
:101FE0000F02A8E0B0E0B0931102A093100244E009
:101FF000409312022093130249E050E050931502DF
:102000004093140240E44093160240EC40931702C0
:102010004FE74093EC012093ED012093EE012093D4
:10202000EF011092D5071092D6071092D707309380
:10203000D8071092D1071092D2071092D3071092AE
:10204000D4074091F0015091F1016091F20170913B
:10205000F3014093E3015093E4016093E501709331
:10206000E6011092E7011092E8011092E901109246
:10207000EA011092EB0144E150E060E070E040932F
:10208000790750937A0760937B0770937C0790934E
:1020900082078093810768EE862E63E0962EA12C3E
:1020A000B12C8092850790928607A0928707B09204
:1020B000880790938E0780938D07A091D907B091E0
:1020C000DA07B0938407A09383071092C807109291
:1020D000C7074FE050E060E070E040938605509302
:1020E0008705609388057093890590938F05809389
:1020F0008E0544E650E060E070E040939205509316
:102100009305609394057093950590939B05809338
:102110009A05AD014F5F5F4F509391054093900535
:10212000E4ECF0E0E491E093F006E5ECF0E0E4911B
:10213000E093F10640EB50E0FA013491E32FF0E038
:10214000EE0FFF1FE656FF4F659174917093F306F3
:102150006093F206E1EBF0E0E491F0E0EE0FFF1F98
:10216000E057FF4F659174917093F5066093F40604
:10217000FA014491E42FF0E0EE0FFF1FEA57FF4F02
:10218000659174917093F7066093F60641EC5CE2FA
:102190005093F9064093F8065AE0852E912CA12C15
:1021A000B12C80920F0790921007A0921107B09265
:1021B000120790931807809317071092010740E0C9
:1021C00050E060E870E44093AC055093AD05609337
:1021D000AE057093AF05C12CD12CE12C60E4F62E36
:1021E000C092B005D092B105E092B205F092B3056D
:1021F00049EA55ED63E874E44093B4055093B5059E
:102200006093B6057093B7054BE050E050939D0581
:1022100040939C0576E6872E982C76EEA72E70E4E8
:10222000B72E8092C8059092C905A092CA05B092B7
:10223000CB0540E050E060E271E44093CC05509360
:10224000CD056093CE057093CF05EDEE8E2EE7E0C1
:102250009E2EE4E8AE2EE4ECBE2E8092D005909245
:10226000D105A092D205B092D305ECE0F0E0F09356
:10227000B905E093B805FAE98F2EF9E99F2EF9E147
:10228000AF2EF0E4BF2E8092E4059092E505A09277
:10229000E605B092E7054093E8055093E9056093A1
:1022A000EA057093EB051092EC051092ED05109283
:1022B000EE051092EF059093D5058093D4053AE989
:1022C000432E39E9532E39E1632E30EC732E4092C0
:1022D0000006509201066092020670920306409337
:1022E0000406509305066093060670930706109245
:1022F00008061092090610920A0610920B06D09357
:10230000F105C093F005E6E68E2E982CE6EEAE2E93
:10231000E0ECBE2E80921C0690921D06A0921E0636
:10232000B0921F0640932006509321066093220628
:10233000709323064DEE57E064E874E4409324065E
:1023400050932506609326067093270610930D067A
:1023500000930C0640E050E060E870EC40933806D3
:102360005093390660933A0670933B06C0923C0640
:10237000D0923D06E0923E06F0923F06F9EACF2E5B
:10238000F5EDDF2EF3E8EF2EF4ECFF2EC0924006C1
:10239000D0924106E0924206F0924306309229061E
:1023A0002092280640935406509355066093560693
:1023B00070935706C6E6CC2EDC2CEC2CC0E4FC2E29
:1023C000C0925806D0925906E0925A06F0925B06E7
:1023D00041E35AE364E874E440935C0650935D067D
:1023E00060935E0670935F06D5E0AD2EB12CB0927F
:1023F0004506A092440646E656E666EE70EC40932B
:10240000700650937106609372067093730640E0F5
:1024100050E060E271EC409374065093750660934F
:1024200076067093770615E6812E13EA912E13E84F
:10243000A12E14ECB12E8092780690927906A0928B
:102440007A06B0927B0606E0A02EB12CB09261060F
:10245000A092600640928C0650928D0660928E0685
:1024600070928F0640939006509391066093920667
:10247000709393063BED432E3FE0532E39E4632ED9
:1024800030E4732E40929406509295066092960620
:1024900070929706E7E0F0E0F0937D06E0937C060B
:1024A000EAE98E2EE9E99E2EE9E1AE2EE0E4BE2EA9
:1024B0008092A8069092A906A092AA06B092AB06B6
:1024C0004093AC065093AD066093AE067093AF0692
:1024D0004092B0065092B1066092B2067092B30676
:1024E000F8E0AF2EB12CB0929906A0929806C6E6FD
:1024F0008C2E982CC6EEAC2EC0E4BC2E8092C40666
:102500009092C506A092C606B092C7064093C80630
:102510005093C9066093CA067093CB0645E653EA0A
:1025200063E874E44093CC065093CD066093CE06E6
:102530007093CF064DE050E05093B5064093B4063B
:1025400040E050E060E870E44093E0065093E1061C
:102550006093E2067093E306C092E406D092E5062B
:10256000E092E606F092E70641E35AE364E874EC91
:102570004093E8065093E9066093EA067093EB06F1
:102580004AE050E05093D1064093D006DFE08D2E14
:10259000912CA12CB12C8092660590926705A09297
:1025A0006805B092690590936F0580936E0548ECBD
:1025B00050E060E070E040937205509373056093C3
:1025C00074057093750590937B0580937A05AD0132
:1025D0004E5F5F4F509371054093700545E050E0AA
:1025E00060E070E0409318025093190260931A0261
:1025F00070931B02909321028093200242E350E0EB
:1026000060E070E04093240250932502609326021C
:102610007093270290932D0280932C02AD014C5FA2
:102620005F4F5093DA074093D9071396B093230274
:10263000A093220290932F0280932E0210923002D8
:102640001092310210923202109233021092340230
:102650001092350210923602109237021092380210
:102660001092390210923A0210923B0210923C02F0
:1026700010923D0210923E0210923F024BED5FE03D
:1026800069EC7FE34093420250934302609344021B
:10269000709345021092460210924702109248022F
:1026A0001092490240E050E060E87FE340934A0224
:1026B00050934B0260934C0270934D024AE050E0FD
:1026C00060E070E040934E0250934F0260935002DE
:1026D00070935102909357028093560240E050E06D
:1026E00060E07FE3409358025093590260935A028E
:1026F00070935B024DEC5CEC6CEC7DE340935C0210
:1027000050935D0260935E0270935F0210926002CC
:10271000109261021092620210926302109264029F
:1027200010926502109266021092670240E050E03B
:102730006FE773EC409368025093690260936A02FA
:1027400070936B0240E050E06FE773E440936C02DB
:1027500050936D0260936E0270936F021092780234
:102760002093790232E230937A0236E930937B0289
:1027700018EE812E13E0912EA12CB12C80927D02B7
:1027800090927E02A0927F02B09280029093860285
:102790008093850244EF51E060E070E0409387024F
:1027A000509388026093890270938A02109290027B
:1027B00010928F0208EBC02E0BE0D02EE12CF12CF2
:1027C000C0929102D0929202E0929302F09294020F
:1027D00010929A021092990240939C0250939D028B
:1027E00060939E0270939F029093A5028093A4022F
:1027F00080E392E09093A7028093A6022093EA04DC
:102800002093ED0489E197E090932D0580932C05AA
:1028100080E0E82FE370F0E0EE5EFE4F908190954F
:10282000E82FE695E695F0E0E655FD4F20E030E034
:102830004081492340832F5F3F4F3C962033310531
:10284000B9F78F5F803329F78AEA92E09093EC041E
:102850008093EB041092EA049093EF048093EE04CB
:102860001092ED048AE090E0A0E0B0E080932E05A5
:1028700090932F05A0933005B093310581E090E04F
:102880009093370580933605109264051092650584
:10289000DF91CF911F910F91FF90EF90DF90CF903C
:1028A000BF90AF909F908F907F906F905F904F9070
:1028B0003F902F900895BB27FB015527AA27880F2B
:1028C000991FAA1FA41710F0A41B83955051B9F7A4
:1028D000A05DAA3308F0A95DA193009779F7B11123
:1028E000B1931192CB010C947514DC01FC01672F9C
:1028F00071917723E1F7329704C07C916D937083D7
:102900006291AE17BF07C8F308950E94C71408F478
:1029100081E00895E89409C097FB3EF49095809576
:10292000709561957F4F8F4F9F4F9923A9F0F92F95
:1029300096E9BB279395F695879577956795B79513
:10294000F111F8CFFAF4BB0F11F460FF1BC06F5FF9
:102950007F4F8F4F9F4F16C0882311F096E911C00B
:10296000772321F09EE8872F762F05C0662371F02C
:1029700096E8862F70E060E02AF09A95660F771F40
:10298000881FDAF7880F9695879597F90895990F1C
:102990000008550FAA0BE0E8FEEF16161706E80729
:1029A000F907C0F012161306E407F50798F0621B4A
:1029B000730B840B950B39F40A2661F0232B242B1F
:1029C000252B21F408950A2609F4A140A6958FEF3E
:1029D000811D811D08950E94FE140C946F150E94A4
:1029E000611538F00E94681520F0952311F00C94C1
:1029F00058150C945E1511240C94A3150E94801593
:102A000070F3959FC1F3950F50E0551F629FF00141
:102A1000729FBB27F00DB11D639FAA27F00DB11D5A
:102A2000AA1F649F6627B00DA11D661F829F2227E3
:102A3000B00DA11D621F739FB00DA11D621F839F6A
:102A4000A00D611D221F749F3327A00D611D231F40
:102A5000849F600D211D822F762F6A2F11249F578E
:102A600050409AF0F1F088234AF0EE0FFF1FBB1F91
:102A7000661F771F881F91505040A9F79E3F510550
:102A800080F00C9458150C94A3155F3FE4F3983E26
:102A9000D4F3869577956795B795F795E7959F5FFA
:102AA000C1F7FE2B880F911D9695879597F908958C
:102AB00097F99F6780E870E060E008959FEF80ECF1
:102AC000089500240A941616170618060906089594
:102AD00000240A9412161306140605060895092EFA
:102AE0000394000C11F4882352F0BB0F40F4BF2B69
:102AF00011F460FF04C06F5F7F4F8F4F9F4F0895A9
:102B000057FD9058440F551F59F05F3F71F047959E
:102B1000880F97FB991F61F09F3F79F08795089583
:102B2000121613061406551FF2CF4695F1DF08C0A2
:102B3000161617061806991FF1CF869571056105BF
:102B400008940895E894BB2766277727CB0197F967
:102B500008950E94EB15A59F900DB49F900DA49F22
:102B6000800D911D112408952F923F924F925F92F4
:102B70006F927F928F929F92AF92BF92CF92DF928D
:102B8000EF92FF920F931F93CF93DF93CDB7DEB7F2
:102B9000CA1BDB0B0FB6F894DEBF0FBECDBF099486
:102BA0002A88398848885F846E847D848C849B84DD
:102BB000AA84B984C884DF80EE80FD800C811B81EB
:102BC000AA81B981CE0FD11D0FB6F894DEBF0FBE1A
:102BD000CDBFED010895A29FB001B39FC001A39F97
:102BE000700D811D1124911DB29F700D811D112446
:102BF000911D08955058BB27AA270E9412160C94C5
:102C00006F150E94611538F00E94681520F039F4A4
:102C10009F3F19F426F40C945E150EF4E095E7FB43
:102C20000C945815E92F0E94801558F3BA176207C3
:102C300073078407950720F079F4A6F50C94A21584
:102C40000EF4E0950B2EBA2FA02D0B01B9019001C7
:102C50000C01CA01A0011124FF27591B99F0593F0B
:102C600050F4503E68F11A16F040A22F232F342F53
:102C70004427585FF3CF469537952795A795F040A1
:102C80005395C9F77EF41F16BA0B620B730B840BB6
:102C9000BAF09150A1F0FF0FBB1F661F771F881F6E
:102CA000C2F70EC0BA0F621F731F841F48F48795C6
:102CB00077956795B795F7959E3F08F0B0CF9395B8
:102CC000880F08F09927EE0F9795879508950E9431
:102CD0001617E3950C943F170E9480160C946F15FD
:102CE0000E94681558F00E94611540F029F45F3F7A
:102CF00029F00C94581551110C94A3150C945E15E1
:102D00000E94801568F39923B1F3552391F3951B25
:102D1000550BBB27AA2762177307840738F09F5FFC
:102D20005F4F220F331F441FAA1FA9F335D00E2E69
:102D30003AF0E0E832D091505040E695001CCAF7D6
:102D40002BD0FE2F29D0660F771F881FBB1F261799
:102D500037074807AB07B0E809F0BB0B802DBF0170
:102D6000FF2793585F4F3AF09E3F510578F00C943F
:102D700058150C94A3155F3FE4F3983ED4F3869561
:102D800077956795B795F7959F5FC9F7880F911D60
:102D90009695879597F90895E1E0660F771F881F4C
:102DA000BB1F621773078407BA0720F0621B730BFF
:102DB000840BBA0BEE1F88F7E09508950E94E51684
:102DC0006894B1110C94A31508950E94881588F099
:102DD0009F5798F0B92F9927B751B0F0E1F0660FDF
:102DE000771F881F991F1AF0BA95C9F714C0B13020
:102DF00091F00E94A215B1E008950C94A215672FDE
:102E0000782F8827B85F39F0B93FCCF3869577954E
:102E10006795B395D9F73EF4909580957095619537
:102E20007F4F8F4F9F4F08950C945E150E94881519
:102E3000D8F3E894E0E0BB279F57F0F02AED3FE09D
:102E400049EC06C0EE0FBB0F661F771F881F28F0E6
:102E5000B23A62077307840728F0B25A620B730B09
:102E6000840BE3959A9572F7803830F49A95BB0FEE
:102E7000661F771F881FD2F790480C946717EF934F
:102E8000E0FF07C0A2EA2AED3FE049EC5FEB0E94B9
:102E900012160E946F150F90039401FC9058E8E6FB
:102EA000F0E00C9473170E94C71408F48FEF089594
:102EB0009F930E9416170F9007FCEE5F0C943F172C
:102EC0000E94C714880B990B08959F3F31F09150D1
:102ED00020F4879577956795B795880F911D9695FE
:102EE000879597F908959F938F937F936F93FF939F
:102EF000EF939B01AC010E94EB14EF91FF910E94B4
:102F000087172F913F914F915F910C94EB14DF93B2
:102F1000CF931F930F93FF92EF92DF927B018C016F
:102F2000689406C0DA2EEF010E94FE14FE01E894B8
:102F3000A5912591359145915591A6F3EF010E94F8
:102F40001216FE019701A801DA9469F7DF90EF905D
:102F5000FF900F911F91CF91DF91089597FB072E5E
:102F600016F4009407D077FD09D00E940B1807FCD7
:102F700005D03EF4909581959F4F08957095619589
:102F80007F4F0895A1E21A2EAA1BBB1BFD010DC0A5
:102F9000AA1FBB1FEE1FFF1FA217B307E407F50709
:102FA00020F0A21BB30BE40BF50B661F771F881FE5
:102FB000991F1A9469F760957095809590959B017B
:102FC000AC01BD01CF010895052E97FB1EF40094BE
:102FD0000E94FB1757FD07D00E94C21707FC03D0C1
:102FE0004EF40C94FB1750954095309521953F4F2A
:102FF0004F4F5F4F089590958095709561957F4FE5
:103000008F4F9F4F0895B7FF0C94A9150E94A915E3
:10301000821B930B0895AA1BBB1B51E107C0AA1F7B
:10302000BB1FA617B70710F0A61BB70B881F991F69
:103030005A95A9F780959095BC01CD010895EE0FA2
:10304000FF1F0590F491E02D0994CF93DF93823018
:10305000910510F482E090E0E091EA07F091EB072F
:1030600020E030E0C0E0D0E0309711F140815181A4
:1030700048175907C0F04817590761F482819381B6
:10308000209719F09B838A832BC09093EB07809342
:10309000EA0726C02115310519F04217530718F425
:1030A0009A01BE01DF01EF010280F381E02DDCCF48
:1030B0002115310509F1281B390B2430310590F415
:1030C00012968D919C9113976115710521F0FB016A
:1030D0009383828304C09093EB078093EA07FD01FA
:1030E000329644C0FD01E20FF31F81939193225069
:1030F00031092D933C933AC02091E8073091E907BC
:10310000232B41F420910201309103013093E90710
:103110002093E8072091000130910101211531052C
:1031200041F42DB73EB74091040150910501241B95
:10313000350BE091E807F091E907E217F307A0F4F7
:103140002E1B3F0B2817390778F0AC014E5F5F4FFD
:103150002417350748F04E0F5F1F5093E90740933F
:10316000E8078193919302C0E0E0F0E0CF01DF91A6
:10317000CF9108950F931F93CF93DF93009709F496
:103180008CC0FC013297138212820091EA071091E1
:10319000EB070115110581F420813181820F931F06
:1031A0002091E8073091E9072817390779F5F0935E
:1031B000E907E093E80771C0D80140E050E0AE179E
:1031C000BF0750F412962D913C911397AD01211534
:1031D000310509F1D901F3CF9D01DA01338322834F
:1031E00060817181860F971F8217930769F4EC0144
:1031F00028813981260F371F2E5F3F4F318320836F
:103200008A819B8193838283452B29F4F093EB077A
:10321000E093EA0742C01396FC93EE931297ED01F8
:10322000499159919E01240F351FE217F30771F45C
:1032300080819181840F951F029611969C938E93A5
:103240008281938113969C938E931297E0E0F0E035
:10325000D80112968D919C911397009719F0F8015F
:103260008C01F6CF8D919C9198012E5F3F4F820F7C
:10327000931F2091E8073091E9072817390769F46F
:10328000309729F41092EB071092EA0702C01382DC
:1032900012821093E9070093E807DF91CF911F9105
:1032A0000F910895A0E0B0E0E8E5F9E10C94B815BD
:1032B000EC01009721F4CB010E942518B8C0FC0155
:1032C000E60FF71F9C0122503109E217F30708F4BB
:1032D000ACC0D9010D911C91119706171707B0F0DA
:1032E0000530110508F49FC0C80104978617970799
:1032F00008F499C002501109061B170B0193119392
:103300006D937C93CF010E94BA188DC05B01A01A07
:10331000B10A4C01800E911EA091EA07B091EB0713
:1033200040E050E0E12CF12C109709F44AC0A815B8
:10333000B905D1F56D907C901197630182E0C80EBC
:10334000D11CCA14DB0480F1A3014A195B096A018C
:1033500082E0C80ED11C1296BC9012971396AC91C5
:10336000B5E0CB16D10440F0B282A38351834083F1
:10337000D9016D937C930AC00E5F1F4FC301800F6C
:10338000911FF90191838083EB2DFA2FE114F10451
:1033900031F0D7011396FC93EE93129744C0F0934B
:1033A000EB07E093EA073FC08D919C911197481776
:1033B000590708F4AC017D0112960D90BC91A02D27
:1033C000B3CF8091E8079091E90788159905E1F45A
:1033D00046175707C8F480910001909101010097AA
:1033E00041F48DB79EB74091040150910501841BB3
:1033F000950BE817F907C8F4F093E907E093E8079D
:10340000F901718360830FC0CB010E9425187C01F4
:10341000009759F0A801BE010E94211ACE010E9416
:10342000BA18C70104C0CE0102C080E090E0CDB759
:10343000DEB7EEE00C94D41581E090E0F8940C94A3
:10344000311AFB01DC0102C001900D924150504045
:10345000D8F70895FB01DC0101900D920020E1F7FF
:063460000895F894FFCF6F
:103466000000EC07800002000000003F050000009D
:103476000000030C30C0000000006E029B00370203
:1034860015022902B5023A20005B20002C200020FC
:103496005D000D0A006E616E00696E66006F7666ED
:0234A600000024
:00000001FF
