:100000000C9471000C9499000C9499000C94990034
:100010000C9499000C9499000C9499000C944A0447
:100020000C9499000C9499000C9499000C949900EC
:100030000C9499000C9499000C9499000C949900DC
:100040000C9400040C9499000C946F030C944903D5
:100050000C9499000C9499000C9499000C949900BC
:100060000C9499000C94990005A84CCDB2D44EB9CB
:100070003836A9020C50B9918688083CA6AAAA2A4B
:10008000BE000000803F00000008000201000003E5
:100090000407000000000000000000000000240031
:1000A00027002A000000000023002600290000008D
:1000B0000000250028002B000404040404040404A8
:1000C0000202020202020303030303030102040803
:1000D00010204080010204081020010204081020B2
:1000E000960E11241FBECFEFD8E0DEBFCDBF11E0CA
:1000F000A0E0B1E0EEECFEE202C005900D92A2326B
:10010000B107D9F727E0A2E2B1E001C01D92A83CF7
:10011000B207E1F710E0C1E7D0E004C02197FE018B
:100120000E944017C037D107C9F70E947C050C9484
:1001300065170C940000089580E090E00895FC019C
:10014000538D448D252F30E0842F90E0821B930B3C
:10015000541710F0CF96089501970895FC01918DE2
:10016000828D981761F0828DDF01A80FB11D5D9619
:100170008C91928D9F5F9F73928F90E008958FEF87
:100180009FEF0895FC01918D828D981731F0828D3B
:10019000E80FF11D858D90E008958FEF9FEF089592
:1001A000FC01918D228D892F90E0805C9F4F821BF6
:1001B00091098F739927089583E391E00E94D000FD
:1001C00021E0892B09F420E0822F0895FC01848D21
:1001D000DF01A80FB11DA35ABF4F2C91848D90E071
:1001E00001968F739927848FA689B7892C93A0894C
:1001F000B1898C9180648C93938D848D981306C003
:100200000288F389E02D80818F7D80830895EF92AD
:10021000FF920F931F93CF93DF93EC0181E0888FC0
:100220009B8D8C8D981305C0E889F989808185FDA7
:1002300024C0F62E0B8D10E00F5F1F4F0F73112798
:10024000E02E8C8DE8120CC00FB607FCFACFE889BF
:10025000F989808185FFF5CFCE010E94E600F1CFBC
:100260008B8DFE01E80FF11DE35AFF4FF0820B8FDB
:10027000EA89FB898081806207C0EE89FF896083FB
:10028000E889F98980818064808381E090E0DF9152
:10029000CF911F910F91FF90EF900895CF93DF932F
:1002A000EC01888D8823C9F0EA89FB89808185FD6E
:1002B00005C0A889B9898C9186FD0FC00FB607FCCF
:1002C000F5CF808185FFF2CFA889B9898C9185FF10
:1002D000EDCFCE010E94E600E7CFDF91CF910895E8
:1002E00080E090E0892B29F00E94DC0081110C94C1
:1002F00000000895833081F028F4813099F0823035
:10030000A1F008958730A9F08830B9F08430D1F495
:10031000809180008F7D03C0809180008F778093D3
:100320008000089584B58F7702C084B58F7D84BD29
:1003300008958091B0008F7703C08091B0008F7DC9
:100340008093B0000895CF93DF93282F30E0F90118
:10035000EA57FF4F8491F901E453FF4FD491F9011B
:10036000E854FF4FC491CC2391F081110E947A018F
:10037000EC2FF0E0EE0FFF1FEC55FF4FA591B4916D
:10038000EC91ED2381E090E021F480E002C080E078
:1003900090E0DF91CF9108951F93CF93DF93282FA3
:1003A00030E0F901EA57FF4F8491F901E453FF4F20
:1003B000D491F901E854FF4FC491CC23C9F0162F12
:1003C00081110E947A01EC2FF0E0EE0FFF1FE25541
:1003D000FF4FA591B4918FB7F894111105C09C916E
:1003E000ED2FE095E92302C0EC91ED2BEC938FBF4C
:1003F000DF91CF911F910895CF93DF9390E0FC019F
:10040000E453FF4F2491FC01E854FF4F849188236B
:1004100061F190E0880F991FFC01E656FF4FC591EE
:10042000D491FC01E255FF4FA591B491611109C02F
:100430009FB7F8948881209582238883EC912E239E
:100440000BC0623061F49FB7F8943881822F809599
:1004500083238883EC912E2B2C939FBF06C08FB7EC
:10046000F894E8812E2B28838FBFDF91CF910895D8
:100470003FB7F89480912B0190912C01A0912D0110
:10048000B0912E0126B5A89B05C02F3F19F001960B
:10049000A11DB11D3FBFBA2FA92F982F8827820F0A
:1004A000911DA11DB11DBC01CD0142E0660F771F5A
:1004B000881F991F4A95D1F708952FB7F894609136
:1004C0002701709128018091290190912A012FBF65
:1004D0000895E0E7F0E080818D7F80830895CF92DA
:1004E000DF92EF92FF920F931F93CF93DF93FC0164
:1004F00020853185232BA9F0EC010E945D02C88084
:10050000D980EA80FB800C811D812E813F81C00E45
:10051000D11EE21EF31E21E06C157D058E059F05A0
:1005200008F420E0822FDF91CF911F910F91FF906F
:10053000EF90DF90CF9008958F929F92AF92BF92ED
:10054000CF92DF92EF92FF920F931F93CF93DF939F
:100550000E9438020091E7061091E8062091E90612
:100560003091EA06061717072807390718F40E9482
:1005700069024CC0E091E106F091E2069081809121
:10058000DE06892309F042C00E9469020E943802F7
:100590002091E5063091E6066901E12CF12C0091ED
:1005A000E7061091E8062091E9063091EA06460137
:1005B0005701801A910AA20AB30A950184010D50CD
:1005C000110921093109600F711F821F931F609368
:1005D000D9067093DA068093DB069093DC062091AF
:1005E000EB063091EC064CE1429FE001439FD00DB9
:1005F0001124CD58DA4F29E330E040E050E00E946A
:10060000E316398F288F1092ED0626C08CEF96E006
:100610000E946F02882301F18091EB069091EC0615
:100620002CE1289FF001299FF00D1124ED58FA4F7D
:1006300088EC90E0918F808F1092ED06DF91CF9142
:100640001F910F91FF90EF90DF90CF90BF90AF90F0
:100650009F908F900C946902DF91CF911F910F9121
:10066000FF90EF90DF90CF90BF90AF909F908F90D2
:100670000895CF93DF93EC010E945D026C837D832C
:100680008E839F8381E090E099878887DF91CF9167
:1006900008951F920F920FB60F9211242F933F933C
:1006A0004F935F936F937F938F939F93AF93BF937A
:1006B000EF93FF9383E391E00E94E600FF91EF91B7
:1006C000BF91AF919F918F917F916F915F914F916A
:1006D0003F912F910F900FBE0F901F9018951F9272
:1006E0000F920FB60F9211242F938F939F93EF9336
:1006F000FF93E0914301F09144018081E091490131
:10070000F0914A0182FD12C0908180914C018F5F6F
:100710008F7320914D01821751F0E0914C01F0E070
:10072000ED5CFE4F958F80934C0101C08081FF915D
:10073000EF919F918F912F910F900FBE0F901F906F
:1007400018951F93CF93DF93182FEB0161E00E9460
:10075000FC01209711F460E004C0CF3FD10539F4CB
:1007600061E0812FDF91CF911F910C94CC01E12F9B
:10077000F0E0EA57FF4FE491E330F9F048F4E1305C
:10078000B9F0E230A1F584B5806284BDC8BD34C043
:10079000E730E9F0E83019F1E43049F58091800064
:1007A000806280938000D0938B00C0938A0024C025
:1007B00084B5806884BDC7BD1FC0809180008068FB
:1007C00080938000D0938900C093880015C08091E9
:1007D000B00080688093B000C093B3000DC08091DA
:1007E000B00080628093B000C093B40005C0C038F0
:1007F000D1050CF0B5CFAFCFDF91CF911F91089508
:100800001F920F920FB60F9211242F933F938F9345
:100810009F93AF93BF938091270190912801A0915E
:100820002901B0912A013091260123E0230F2D37B1
:1008300020F40196A11DB11D05C026E8230F0296E4
:10084000A11DB11D209326018093270190932801BB
:10085000A0932901B0932A0180912B0190912C0142
:10086000A0912D01B0912E010196A11DB11D809383
:100870002B0190932C01A0932D01B0932E01BF91D9
:10088000AF919F918F913F912F910F900FBE0F903D
:100890001F9018951F920F920FB60F9211242F934D
:1008A0003F934F935F936F937F938F939F93AF93F8
:1008B000BF93EF93FF93E0913101F09132010995DD
:1008C000FF91EF91BF91AF919F918F917F916F9128
:1008D0005F914F913F912F910F900FBE0F901F90FE
:1008E0001895FB019C012C5F3F4FDC014D91CD0120
:1008F0004193A217B307C9F70895CF92DF92EF9201
:10090000FF920F931F93CF93DF936C017A018B01BA
:10091000C0E0D0E0CE15DF0589F0D8016D918D01E2
:10092000D601ED91FC910190F081E02DC601099571
:10093000892B11F47E0102C02196ECCFC701DF9113
:10094000CF911F910F91FF90EF90DF90CF9008957E
:100950000E946017CF92DF92EF92FF922FE832EC65
:1009600045E95FE30E94C41520E030E044EB52E427
:100970000E94B0130E949814663971053CF4DB01A3
:100980006E3171052CF4AEE1B0E002C0A6E9B0E032
:10099000A53BB10514F0A4EBB0E0A0936602C090B3
:1009A00067022091680230E02C193109D12CE12C2A
:1009B000F12CFE2CED2CDC2CCC24A901330F660B82
:1009C000770B2227342F452F562F0E94241724EB14
:1009D00030E040E050E00E940517C701B601620F09
:1009E000731F841F951F28E030E040E050E00E9414
:1009F000051780916502893029F43093890020938E
:100A0000880004C030938B0020938A00FF90EF9001
:100A1000DF90CF9008950F931F93CF93DF938C01B6
:100A20000654184FF801C081D1E0CD2701F129E02B
:100A3000289FB001299F700D1124FB01EA59F84F3E
:100A40008091D0019091D101A091D201B091D301B8
:100A500082A793A7A4A7B5A78091D40186A76B56B8
:100A6000784F85ED91E00E947104F801D0838C2FBE
:100A7000DF91CF911F910F910895FC012081618139
:100A8000862F90E0A0E0B0E0DC0199278827B22B08
:100A90002381822B2281BC01CD01722B08951F93EB
:100AA000CF93DF9382302FEF920734F08F3F910581
:100AB00034F0CFEFD0E004C0C1E0DFEF01C0EC01C3
:100AC0001D2F1095111F1127111F11F0BE0102C01B
:100AD00060E070E085E00E94A103111105C0662767
:100AE00077276C1B7D0B02C060E070E086E0DF9131
:100AF000CF911F910C94A103CF93DF93CDB7DEB7B5
:100B0000E2970FB6F894DEBF0FBECDBF789484B5E0
:100B1000826084BD84B5816084BD85B5826085BDF9
:100B200085B5816085BD80916E00816080936E0087
:100B30001092810080918100826080938100809179
:100B4000810081608093810080918000816080932A
:100B500080008091B10084608093B1008091B000EA
:100B600081608093B00080917A00846080937A00E5
:100B700080917A00826080937A0080917A0081600F
:100B800080937A0080917A00806880937A00109236
:100B9000C1001092B6071092BA071092B7071092D0
:100BA000BB071092B8071092BC071092B9071092B9
:100BB000BD07E0914301F091440182E08083E09120
:100BC0003F01F09140011082E0914101F09142011A
:100BD0008FEC808310924B01E0914701F091480126
:100BE00086E08083E0914501F0914601808180613B
:100BF0008083E0914501F091460180818860808387
:100C0000E0914501F0914601808180688083E09108
:100C10004501F091460180818F7D80831092860787
:100C20001092850761E088E00E94FC0161E087E0A6
:100C30000E94FC0161E08BE00E94FC0161E08AE01F
:100C40000E94FC01EBE8F5E088EC90E09587848752
:100C50009183808393838283958384839783868320
:100C600091878087938782877C9626E0EB3DF20709
:100C700069F781E08093EE061092ED068BE090E03C
:100C80009093EC068093EB0684E090E09093F0065E
:100C90008093EF061092FA0660E082E00E94FC0169
:100CA00060E084E00E94FC0160E083E00E94FC01BF
:100CB00060E08EE00E94FC0160E08FE00E94FC0199
:100CC00060E080E10E94FC0160E081E10E94FC01A3
:100CD00060E082E10E94FC0161E083E10E94FC018E
:100CE0000E945D026093690570936A0580936B05AD
:100CF00090936C0510926E0510926D0510926F0521
:100D000010927005109271051092720561E085E0F5
:100D10000E94FC0161E086E00E94FC0189E0809372
:100D200065028FEF8093660260E089E00E94CC014B
:100D300061E0809165020E94FC0180913001811187
:100D400022C080912F0181111EC02FB7F89482E03C
:100D5000809380008AE18093810088EB9BE09093F0
:100D600089008093880090938B0080938A0080E4B0
:100D70009CE9909387008093860080916F00887F24
:100D800080936F002FBF80916502893041F481E02C
:100D900080933001809180008F73806807C081E06C
:100DA00080932F01809180008F7C806280938000EF
:100DB0001092610210926202109263021092640219
:100DC00060E070E0CB010E94AA0410925D021092D4
:100DD0005E0210925F0210926002109288029DE003
:100DE00088E10FB6F894A895809360000FBE9093A9
:100DF0006000AE01475E5F4F5A8F498FA89586E627
:100E000097E00E946F02882309F43DC182E797E0D2
:100E10000E946F02811133C183E391E00E94D000F0
:100E2000009709F4CAC0409185075091860729E0D0
:100E300030E0241B350B8C01281739070CF489018D
:100E4000E12CF12CD12CE016F1060CF070C083E3FC
:100E500091E00E94AE002091B4073091B507213097
:100E6000310561F12230310509F441C0232B09F02D
:100E70005AC02091850730918607F901E752FE4F4D
:100E80009081891316C0A9014F5F5F4F5093860769
:100E900040938507F901EA59F84F868B4430510594
:100EA00009F041C081E090E09093B5078093B407CA
:100EB0003AC0109286071092850735C020918507A9
:100EC00030918607A9014F5F5F4F5093860740938B
:100ED0008507F901EA59F84F868B4530510519F518
:100EE000A2E0B0E0B093B507A093B4071CC0209176
:100EF000850730918607A9014F5F5F4F50938607A2
:100F000040938507F901EA59F84F868B493051051E
:100F100051F410928607109285071092B50710922F
:100F2000B407DD24D394BFEFEB1AFB0A8CCFDD208E
:100F300009F443C05091800750938B0720E030E0C4
:100F4000F901E352FE4F8081918143814523628103
:100F5000641303C08A30910539F42C5F3F4F283267
:100F6000310571F78AE090E0880F991F880F991F6B
:100F7000FC01E352FE4F80819181A281B381809375
:100F8000870790938807A0938907B0938A07BE01CB
:100F90006C5E7F4F81E897E00E9471046CE877E017
:100FA000CE0144960E94710481E08093B60780933D
:100FB000B7078093B8078093B907FAEBEF2EF7E0F5
:100FC000FF2E00E010E0A5E0DA2EF70180818823F3
:100FD00009F448C01082F801EA59F84FC6A4BE01CE
:100FE0006C5E7F4F89ED91E00E947104C88EFE0116
:100FF0007496DE011A968D2D01900D928A95E1F777
:10100000FE013A96DE011F968D2D01900D928A9574
:10101000E1F7FE013F96DE0154968D2D01900D9271
:101020008A95E1F7C8018B56984FFE017496DE0150
:10103000119621912D93498C5A8CE415F505C9F729
:10104000BE016A5F7F4F0E94710449E050E0BE011B
:101050006F5F7F4F83E391E00E947D0483E391E023
:101060000E944E012FEFE21AF20A075F1F4F04326F
:10107000110509F0AACF86E697E00E94390382E7BE
:1010800097E00E94390383E795E00E946F0288236E
:1010900009F4B0C28FE795E00E946F028111A6C2E9
:1010A0008091EE06882309F49DC2E0917D05F091C0
:1010B0007E05EA54F84F8081882399F1108280914F
:1010C000870790918807A0918907B0918A0780933C
:1010D000F1069093F206A093F306B093F406809184
:1010E0008B078093F50666EF76E08CE897E00E9428
:1010F00071048091F1069091F206069791F486EFC3
:1011000096E00E943D0521E0672B682B692B09F4CE
:1011100020E02093FA0680917D0590917E050E9443
:101120000B058091ED0681115DC2C090EB06D09059
:10113000EC063BE0C316D10469F48091EF06909170
:10114000F006019665E070E00E94CF169093F006DD
:101150008093EF064090EF065090F00658A24F8E15
:101160008CE18C9DF0018D9DF00D1124ED58FA4F0E
:10117000208C318C2114310411F0710103C0E8EC92
:10118000EE2EF12C8EE08C9DF0018D9DF00D112442
:101190006F8C78A0E60DF71DEE0FFF1FE357FA4F97
:1011A000F182E08228EC2216310419F0E0E0F1E04F
:1011B00002C0E6E0F1E0408051805CA24BA2828058
:1011C0009380A480B5808CE18C9DF0018D9DF00D05
:1011D0001124ED58FA4F64A075A07EA26DA2B30150
:1011E000770C880B990B0E94D0142B013C0120E056
:1011F00030E040E85FE3C501B4010E94B0136FA383
:1012000078A789A79AA79B01AC01C301B2010E94EC
:10121000C4150E9498148B01A501940160E070E050
:1012200080E89FE30E94AF134B015C019B01AC017E
:10123000C301B2010E94C4150E9498140617170733
:101240003CF0E616F7065CF00E151F0544F074C07E
:10125000E016F10624F06E157F050CF06DC08F8D41
:1012600098A1049665E070E00E94CF169C8F8B8F4A
:1012700000E010E08EE08C9D20018D9D500C11242B
:101280005CA64BA62101330C660877084FA658AA26
:1012900069AA7AAA6B8C7C8C4F8C58A06414750454
:1012A00009F442C06BA07CA006151705ECF5EBA570
:1012B000FCA54B8C5C8CE40DF51DEE0FFF1FE35776
:1012C000FA4F208031806FA578A989A99AA90E9438
:1012D000D0142B013C012FA138A549A55AA50E9485
:1012E000C4150E9498147AA369A3A5019401C301AF
:1012F000B2010E94C4150E94981469A07AA06616D3
:1013000077060CF402C5261637060CF0F9C421E066
:101310008B8D9C8D049665E070E00E94CF169C8FAB
:101320008B8F222309F4B6CF8BA19CA101970817BC
:10133000190714F4EDA0FEA08CE18C9DF0018D9DA9
:10134000F00D1124ED58FA4FF5A2E4A28CE1782EAD
:101350007C9CC0017D9C900D11249C012D583A4F1E
:101360007901D90194966D917C919597072E000C87
:10137000880B990B0E94D0142B013C012BED3FE010
:1013800049EC5FE3F70166A577A580A991A90E94C2
:10139000B0134B015C010E9421149B01AC0186013A
:1013A00093E0000F111F9A95E1F70D581A4F18019D
:1013B000FDE62F1AFEEF3F0AC301B2010E94C415D9
:1013C0009B01AC01D70196966D917D918D919C9179
:1013D00099970E94B013F101608371838283938394
:1013E000C501B4010E9431169B01AC0109561E4F84
:1013F000C301B2010E94C4159B01AC01D7019A96AA
:101400006D917D918D919C919D970E94B013F801F3
:101410006083718382839383C60101966CE070E0E0
:101420000E94CF169093EC068093EB061092FB0679
:101430002CE1422E489EF001499EF00D1124ED58FA
:10144000FA4F06891789602F617088E00E94CC01ED
:10145000B80176956795617087E00E94CC01B8016C
:10146000769567957695679561708BE00E94CC01C3
:1014700053E0169507955A95E1F7602F61708AE061
:101480000E94CC0181E08093ED060E9469028CEFFE
:1014900096E00E943903E091E306F091E406908122
:1014A0008091DD06892B8083E091DF06F091E006D4
:1014B00090818091DD068095892380838BE090E088
:1014C0000197F1F7E091DF06F091E00690818091BD
:1014D000DD06892B808383E290E00197F1F7E091AC
:1014E000DF06F091E00690818091DD0680958923EA
:1014F0008083E091E306F091E40690818091DD061F
:10150000809589238083E091E106F091E206908145
:101510008091DE06892309F065C00E94380220917F
:10152000E5063091E606890120E030E00855194EC5
:101530002F4F3F4FDC01CB01800F911FA21FB31F24
:101540008093E7069093E806A093E906B093EA0635
:10155000E091E106F091E20690818091DE06892318
:1015600081F40E9438020091E7061091E80620916C
:10157000E9063091EA06061717072807390740F7EA
:1015800031C00E9438022091E5063091E606DC0168
:10159000CB01820F931FA11DB11D8093E70690938D
:1015A000E806A093E906B093EA068CE992E09093EE
:1015B0003201809331010E9469028091B6008F7DD3
:1015C0008093B60082E08093B00084E08093B10005
:1015D0001092B20085E08093B30080917000826029
:1015E0008093700083E795E00E9439038FE795E0D0
:1015F0000E94390383E595E00E946F02882309F475
:10160000D3C08FE595E00E946F028111C9C00E948E
:101610005D024B015C0160E083E10E94CC0182E14C
:101620000E94A301082F81E10E94A3018295880FE7
:10163000880F807C182F20E8029F1019112480E168
:101640000E94A301C82E8FE00E94A301D82E8EE035
:101650000E94A301E82E83E00E94A301082F84E0EA
:101660000E94A301F82E82E00E94A301810F182F8F
:1016700030E2C39E100D112440E1D49E100D1124C0
:1016800058E0E59E100D1124000F000F010FFF0C14
:101690000F0D002E000C110B61E083E10E94CC01C4
:1016A00040916D0550916E059801241B350BC901C1
:1016B00037FF04C088279927821B930B8138910537
:1016C000C4F0C90193953A95FC0197FF04C0EE2739
:1016D000FF27E81BF90BB90137FF04C066277727FE
:1016E000621B730B6E177F070CF4C901840F951FE3
:1016F00001C0C801C0906905D0906A05E0906B05F3
:10170000F0906C05240135014C185D086E087F08C7
:101710008092690590926A05A0926B05B0926C0563
:1017200010936E0500936D0541145104610471041A
:1017300041F1BC01641B750B072E000C880B990B43
:101740000E94D01420E030E046E155E40E942614C7
:1017500026E636E642EA51E40E94C4154B015C01DC
:10176000C301B2010E94CE149B01AC01C501B401BA
:101770000E94261420E030E04AE754E40E94C41599
:1017800003C060E070E0CB0160936F05709370055B
:10179000809371059093720583E595E00E9439036B
:1017A0008FE595E00E94390385E092E00E946F0288
:1017B000882309F4A2C281E192E00E946F028B8F1C
:1017C000811197C280906F0590907005A09071056F
:1017D000B090720540906102509062026090630286
:1017E000709064028BE392E00E946F02882309F4F8
:1017F000F5C0C0905D02D0905E02E0905F02F09074
:10180000600220E030E0A901C701B6010E941C146B
:10181000811115C020E030E040E85FEBC501B40164
:101820000E94BF1587FD0BC020E030E040E85FE379
:10183000C501B4010E941C1418160CF074C2A50155
:101840009401C701B6010E94AF136FA378A789A7BF
:101850009AA70E945D026B017C01109159020091D0
:101860005A0220905B0230905C02209155022F8F2B
:101870003091560239A3409157024BA35091580220
:101880005DA320914502309146024091470250915C
:1018900048026FA178A589A59AA50E94C415209138
:1018A00051023091520240915302509154020E94D1
:1018B000B0136BA77CA78DA79EA720914D023091F6
:1018C0004E0240914F02509150026FA178A589A518
:1018D0009AA50E94AF136FA778AB89AB9AAB8091A2
:1018E0003F0290914002A0914102B0914202A701B3
:1018F0009601281B390B4A0B5B0BCA01B9010E94E8
:10190000CE149B01AC016FA578A989A99AA90E9460
:1019100026142091490230914A0240914B02509185
:101920004C020E94C4159B01AC016BA57CA58DA542
:101930009EA50E94B0136B017C012F8D39A14BA194
:101940005DA10E94BF1518162CF0BF8DA9A1FBA1A7
:10195000EDA104C0BC2DAD2DFE2DEF2D212F302F7C
:10196000A1016B2F7A2F8F2F9E2F0E941C1487FFAF
:1019700012C02F8D39A14BA15DA1B601C7010E94F4
:10198000BF1518162CF01F8D09A12BA03DA003C078
:101990001C2D0D2D1701812F902FD1018093510205
:1019A00090935202A0935302B09354028FA198A532
:1019B000A9A5BAA580934D0290934E02A0934F0221
:1019C000B0935002612F702FC1010E949814CB0177
:1019D0000E944F058BE392E00E9439038BE195E072
:1019E0000E946F02882309F4C0C0E0902505F090A2
:1019F0002605D7011C964D925D926D927C921F97A1
:101A000020E030E0A901C301B2010E94BF1587FFA9
:101A100003C00FEF1FEF02C001E010E0F701118BD0
:101A2000008B80869186A286B386C301B2010E9494
:101A300021146B017C012CEA35EC47E257EB0E9444
:101A4000BF1587FD0DC0B1E0BB8F2CEA35EC47E236
:101A500057E3C701B6010E941C1418160CF41B8E24
:101A6000EB8DE0933B05E1117CC0C301B2010E9404
:101A70003116A70196010E9426149B01AC0160E07B
:101A800070E080EA91E40E9426142B013C016093EF
:101A90002705709328058093290590932A05B8019E
:101AA000110F880B990B0E94D0144B015C0120E0B0
:101AB00030E040E051E40E94C4156B8F7C8F8D8F25
:101AC0009E8F9B01AC01C301B2010E94B0136B0158
:101AD0007C019B01AC010E94C41523EC35EF48E367
:101AE00054E40E94B0130E943F16A50194010E9485
:101AF000C41560932F057093300580933105909342
:101B000032052B8D3C8D4D8D5E8DC301B2010E943F
:101B1000AF1360932B0570932C0580932D05909344
:101B20002E059B01AC010E94C41520E030E048EC7A
:101B300053E40E94B0130E943F16A50194010E9435
:101B4000C4156093330570933405809335059093E5
:101B50003605C0923705D0923805E0923905F092EB
:101B60003A058BE195E00E943903E0910F02F09174
:101B70001002EA54F84F10811123D9F0108280919D
:101B8000870790918807A0918907B0918A07809371
:101B90003C0590933D05A0933E05B0933F05809191
:101BA0008B078093400561E475E08CE897E00E9424
:101BB000710480911B0290911C020197029708F01A
:101BC00094C0112309F45BC080913C0590913D05C0
:101BD00082309105D9F01CF4019739F04BC0833065
:101BE000910539F1089771F145C080915205811135
:101BF00041C081E495E00E943D0560935D027093D1
:101C00005E0280935F029093600234C08091510520
:101C1000811130C081E495E00E943D05609361022E
:101C20007093620280936302909364020E94AA04FC
:101C300021C081E495E00E943D0570931C026093F1
:101C40001B0212C081E495E00E943D0521E0672B54
:101C5000682B692B09F420E020938802222321F0CD
:101C600089E892E00E94390380910F02909110025E
:101C70000E940B058AE692E00E9439030DC08AE6B5
:101C800092E00E946F02882339F08EE792E00E9472
:101C9000390381E08093520580915105882361F0DA
:101CA00084E792E00E946F02882331F010927D0257
:101CB00010927C0210925105809152058823A9F060
:101CC0008EE792E00E946F02882339F0109287021B
:101CD000109286021092520508C010925D02109276
:101CE0005E0210925F021092600285E092E00E9414
:101CF000390381E192E00E9439030E9470017EC89D
:101D0000621473040CF403CB0AC049A05AA0241433
:101D100035040CF4FCCA621573050CF4F8CA0F5FA5
:101D20001F4F20E0F5CA80E090E052CE2F923F9204
:101D30004F925F926F927F928F929F92AF92BF92DB
:101D4000CF92DF92EF92FF920F931F93CF93DF9387
:101D5000109236011092350188EE882E83E0982E7D
:101D6000A12CB12C8092370190923801A0923901B8
:101D7000B0923A0184E191E0909334018093330171
:101D800085EC90E09093400180933F0184EC90E0DB
:101D9000909342018093410180EC90E09093440144
:101DA0008093430181EC90E090934601809345013C
:101DB00082EC90E0909348018093470186EC90E09C
:101DC00090934A018093490110924C0110924D0169
:101DD00010924E0110924F011092DE011092DD011F
:101DE0001092DF012FEF2093E00181E090E09093CB
:101DF000E2018093E10131E03093E3012093E401BB
:101E0000C2E0D0E0D093E601C093E50142E0409308
:101E1000E7012093E80103E010E01093EA0100934A
:101E2000E90143E04093EB012093EC0144E0242ED0
:101E3000312C3092EE012092ED0145E04093EF010C
:101E40002093F00155E0A52EB12CB092F201A092A2
:101E5000F10146E04093F3012093F40146E050E0A5
:101E60005093F6014093F50147E04093F70120932A
:101E7000F80167E070E07093FA016093F90148E0BF
:101E80004093FB0148EF4093FC01A8E0B0E0B09321
:101E9000FE01A093FD0144E04093FF012093000266
:101EA00049E050E0509302024093010240E4409325
:101EB000030240EC409304024FE74093D901209382
:101EC000DA012093DB012093DC011092C20710920B
:101ED000C3071092C4073093C5071092BE07109233
:101EE000BF071092C0071092C1074091DD015091C9
:101EF000DE016091DF017091E0014093D0015093C9
:101F0000D1016093D2017093D3011092D401109249
:101F1000D5011092D6011092D7011092D80144E158
:101F200050E060E070E0409366075093670760936D
:101F300068077093690790936F0780936E0768EE48
:101F4000862E63E0962EA12CB12C8092720790927F
:101F50007307A0927407B092750790937B078093E4
:101F60007A07A091C607B091C707B0937107A093F5
:101F700070071092B5071092B4074FE050E060E090
:101F800070E04093730550937405609375057093EA
:101F9000760590937C0580937B0544E650E060E0F5
:101FA00070E040937F0550938005609381057093A6
:101FB00082059093880580938705AD014F5F5F4F41
:101FC00050937E0540937D05E8EDF0E0E491E093C9
:101FD000DD06E9EDF0E0E491E093DE0644EC50E04C
:101FE000FA013491E32FF0E0EE0FFF1FE255FF4FAF
:101FF000659174917093E0066093DF06E5ECF0E084
:10200000E491F0E0EE0FFF1FEC55FF4F65917491E6
:102010007093E2066093E106FA014491E42FF0E048
:10202000EE0FFF1FE656FF4F659174917093E40623
:102030006093E30641EC5CE25093E6064093E506CC
:102040005AE0852E912CA12CB12C8092FC06909206
:10205000FD06A092FE06B092FF06909305078093BE
:1020600004071092EE0640E050E060E870E4409310
:10207000990550939A0560939B0570939C05C12C1C
:10208000D12CE12C60E4F62EC0929D05D0929E05E5
:10209000E0929F05F092A00549EA55ED63E874E4EB
:1020A0004093A1055093A2056093A3057093A405E6
:1020B0004BE050E050938A054093890576E6872EE1
:1020C000982C76EEA72E70E4B72E8092B5059092EC
:1020D000B605A092B705B092B80540E050E060E2C6
:1020E00071E44093B9055093BA056093BB057093B2
:1020F000BC05EDEE8E2EE7E09E2EE4E8AE2EE4EC7D
:10210000BE2E8092BD059092BE05A092BF05B092F2
:10211000C005ECE0F0E0F093A605E093A505FAE930
:102120008F2EF9E99F2EF9E1AF2EF0E4BF2E8092B9
:10213000D1059092D205A092D305B092D4054093D8
:10214000D5055093D6056093D7057093D8051092A6
:10215000D9051092DA051092DB051092DC059093F8
:10216000C2058093C1053AE9432E39E9532E39E17E
:10217000632E30EC732E4092ED055092EE05609286
:10218000EF057092F0054093F1055093F2056093CE
:10219000F3057093F4051092F5051092F605109270
:1021A000F7051092F805D093DE05C093DD05E6E64D
:1021B0008E2E982CE6EEAE2EE0ECBE2E8092090616
:1021C00090920A06A0920B06B0920C0640930D0660
:1021D00050930E0660930F06709310064DEE57E075
:1021E00064E874E44093110650931206609313065A
:1021F000709314061093FA050093F90540E050E03F
:1022000060E870EC409325065093260660932706FD
:1022100070932806C0922906D0922A06E0922B06D7
:10222000F0922C06F9EACF2EF5EDDF2EF3E8EF2E33
:10223000F4ECFF2EC0922D06D0922E06E0922F06CF
:10224000F092300630921606209215064093410611
:10225000509342066093430670934406C6E6CC2E24
:10226000DC2CEC2CC0E4FC2EC0924506D092460635
:10227000E0924706F092480641E35AE364E874E4CA
:102280004093490650934A0660934B0670934C0660
:10229000D5E0AD2EB12CB0923206A092310646E6C2
:1022A00056E666EE70EC40935D0650935E066093D2
:1022B0005F067093600640E050E060E271EC40938E
:1022C000610650936206609363067093640615E698
:1022D000812E13EA912E13E8A12E14ECB12E8092D8
:1022E000650690926606A0926706B092680606E0C0
:1022F000A02EB12CB0924E06A0924D0640927906C7
:1023000050927A0660927B0670927C0640937D061E
:1023100050937E0660937F06709380063BED432EBC
:102320003FE0532E39E4632E30E4732E4092810651
:10233000509282066092830670928406E7E0F0E095
:10234000F0936A06E0936906EAE98E2EE9E99E2E8B
:10235000E9E1AE2EE0E4BE2E8092950690929606BC
:10236000A0929706B09298064093990650939A06C9
:1023700060939B0670939C0640929D0650929E0629
:1023800060929F067092A006F8E0AF2EB12CB0923A
:102390008606A0928506C6E68C2E982CC6EEAC2E3C
:1023A000C0E4BC2E8092B1069092B206A092B30611
:1023B000B092B4064093B5065093B6066093B70644
:1023C0007093B80645E653EA63E874E44093B906AF
:1023D0005093BA066093BB067093BC064DE050E084
:1023E0005093A2064093A10640E050E060E870E4FC
:1023F0004093CD065093CE066093CF067093D006DF
:10240000C092D106D092D206E092D306F092D406C2
:1024100041E35AE364E874EC4093D5065093D60642
:102420006093D7067093D8064AE050E05093BE06FA
:102430004093BD06DFE08D2E912CA12CB12C809213
:10244000530590925405A0925505B092560590936D
:102450005C0580935B0548EC50E060E070E04093E1
:102460005F055093600560936105709362059093DA
:10247000680580936705AD014E5F5F4F50935E0521
:1024800040935D0545E050E060E070E04093050258
:1024900050930602609307027093080290930E0215
:1024A00080930D0242E350E060E070E0409311023F
:1024B00050931202609313027093140290931A02C5
:1024C00080931902AD014C5F5F4F5093C707409353
:1024D000C6071396B0931002A0930F0290931C02AC
:1024E00080931B0210921D0210921E0210921F0276
:1024F00010922002109221021092220210922302C6
:1025000010922402109225021092260210922702A5
:10251000109228021092290210922A0210922B0285
:1025200010922C024BED5FE069EC7FE340932F02A9
:102530005093300260933102709332021092330252
:1025400010923402109235021092360240E050E0B0
:1025500060E87FE34093370250933802609339027A
:1025600070933A024AE050E060E070E040933B0232
:1025700050933C0260933D0270933E02909344025C
:102580008093430240E050E060E07FE340934502E7
:102590005093460260934702709348024DEC5CEC06
:1025A0006CEC7DE34093490250934A0260934B02E6
:1025B00070934C0210924D0210924E0210924F02F4
:1025C0001092500210925102109252021092530235
:1025D0001092540240E050E06FE773EC40935502D4
:1025E00050935602609357027093580240E050E0B7
:1025F0006FE773E44093590250935A0260935B0271
:1026000070935C02109265022093660232E230936E
:10261000670236E93093680218EE812E13E0912E9E
:10262000A12CB12C80926A0290926B02A0926C0253
:10263000B0926D02909373028093720244EF51E066
:1026400060E070E0409374025093750260937602EC
:102650007093770210927D0210927C0208EBC02EDC
:102660000BE0D02EE12CF12CC0927E02D0927F02A2
:10267000E0928002F092810210928702109286020C
:102680004093890250938A0260938B0270938C026C
:1026900090939202809391028DE192E09093940244
:1026A000809393022093D7042093DA0486E097E086
:1026B00090931A058093190580E0E82FE370F0E00D
:1026C000E45FFE4F90819095E82FE695E695F0E067
:1026D000E956FD4F20E030E04081492340832F5FE1
:1026E0003F4F3C9620333105B9F78F5F803329F790
:1026F00087E992E09093D9048093D8041092D7048C
:102700009093DC048093DB041092DA0482E390E07F
:10271000A0E0B0E080931B0590931C05A0931D05DD
:10272000B0931E0581E090E09093240580932305EB
:102730001092510510925205DF91CF911F910F9188
:10274000FF90EF90DF90CF90BF90AF909F908F90D1
:102750007F906F905F904F903F902F9008955058CA
:10276000BB27AA270E94C7130C9471150E94381525
:1027700038F00E943F1520F039F49F3F19F426F4F9
:102780000C9435150EF4E095E7FB0C942F15E92F0A
:102790000E94961558F3BA176207730784079507C6
:1027A00020F079F4A6F50C94B8150EF4E0950B2EF4
:1027B000BA2FA02D0B01B90190010C01CA01A00193
:1027C0001124FF27591B99F0593F50F4503E68F1EE
:1027D0001A16F040A22F232F342F4427585FF3CF2F
:1027E000469537952795A795F0405395C9F77EF400
:1027F0001F16BA0B620B730B840BBAF09150A1F049
:10280000FF0FBB1F661F771F881FC2F70EC0BA0FCE
:10281000621F731F841F48F4879577956795B79556
:10282000F7959E3F08F0B0CF9395880F08F0992751
:10283000EE0F9795879508950E940B1508F481E097
:1028400008950E944815E3950C9482150E943A144D
:102850000C9471150E943F1558F00E94381540F0F5
:1028600029F45F3F29F00C942F1551110C94B915E0
:102870000C9435150E94961568F39923B1F35523EE
:1028800091F3951B550BBB27AA2762177307840783
:1028900038F09F5F5F4F220F331F441FAA1FA9F319
:1028A00035D00E2E3AF0E0E832D091505040E69507
:1028B000001CCAF72BD0FE2F29D0660F771F881F68
:1028C000BB1F261737074807AB07B0E809F0BB0B5B
:1028D000802DBF01FF2793585F4F3AF09E3F51056F
:1028E00078F00C942F150C94B9155F3FE4F3983EE3
:1028F000D4F3869577956795B795F7959F5FC9F758
:10290000880F911D9695879597F90895E1E0660FD8
:10291000771F881FBB1F621773078407BA0720F051
:10292000621B730B840BBA0BEE1F88F7E0950895BA
:102930000E949F146894B1110C94B91508950E94D7
:102940009E1588F09F5798F0B92F9927B751B0F08E
:10295000E1F0660F771F881F991F1AF0BA95C9F723
:1029600014C0B13091F00E94B815B1E008950C94F4
:10297000B815672F782F8827B85F39F0B93FCCF3A7
:10298000869577956795B395D9F73EF490958095A0
:10299000709561957F4F8F4F9F4F0895E89409C0C0
:1029A00097FB3EF490958095709561957F4F8F4F82
:1029B0009F4F9923A9F0F92F96E9BB279395F69598
:1029C000879577956795B795F111F8CFFAF4BB0F16
:1029D00011F460FF1BC06F5F7F4F8F4F9F4F16C07A
:1029E000882311F096E911C0772321F09EE8872F04
:1029F000762F05C0662371F096E8862F70E060E0C0
:102A00002AF09A95660F771F881FDAF7880F969538
:102A1000879597F90895990F0008550FAA0BE0E8DC
:102A2000FEEF16161706E807F907C0F01216130690
:102A3000E407F50798F0621B730B840B950B39F4D0
:102A40000A2661F0232B242B252B21F408950A2636
:102A500009F4A140A6958FEF811D811D089597F976
:102A60009F6780E870E060E008959FEF80EC089534
:102A700000240A941616170618060906089500245D
:102A80000A94121613061406050608950C943515BB
:102A90000E949E15D8F3E894E0E0BB279F57F0F022
:102AA0002AED3FE049EC06C0EE0FBB0F661F771F13
:102AB000881F28F0B23A62077307840728F0B25AD9
:102AC000620B730B840BE3959A9572F7803830F4A0
:102AD0009A95BB0F661F771F881FD2F790480C94FA
:102AE0008116092E0394000C11F4882352F0BB0FB9
:102AF00040F4BF2B11F460FF04C06F5F7F4F8F4F16
:102B00009F4F0895EF93E0FF07C0A2EA2AED3FE050
:102B100049EC5FEB0E94C7130E9471150F9003945C
:102B200001FC9058E8E6F0E00C94941657FD90589C
:102B3000440F551F59F05F3F71F04795880F97FB81
:102B4000991F61F09F3F79F087950895121613063B
:102B50001406551FF2CF4695F1DF08C0161617066A
:102B60001806991FF1CF869571056105089408959F
:102B7000E894BB2766277727CB0197F908950E9431
:102B80000B1508F48FEF08950E94D7150C9471155A
:102B90000E94381538F00E943F1520F0952311F05F
:102BA0000C942F150C94351511240C94B9150E9412
:102BB000961570F3959FC1F3950F50E0551F629FD6
:102BC000F001729FBB27F00DB11D639FAA27F00D86
:102BD000B11DAA1F649F6627B00DA11D661F829FAD
:102BE0002227B00DA11D621F739FB00DA11D621F92
:102BF000839FA00D611D221F749F3327A00D611DAF
:102C0000231F849F600D211D822F762F6A2F112490
:102C10009F5750409AF0F1F088234AF0EE0FFF1FC3
:102C2000BB1F661F771F881F91505040A9F79E3F1A
:102C3000510580F00C942F150C94B9155F3FE4F307
:102C4000983ED4F3869577956795B795F795E79570
:102C50009F5FC1F7FE2B880F911D9695879597F979
:102C600008959F930E9448150F9007FCEE5F0C9407
:102C7000821519F416F40C9435150C947F160E94E5
:102C80009E15B8F39923C9F3B6F39F57550B87FFE9
:102C90000E948D160024A0E640EA900180585695C7
:102CA000979528F4805C660F771F881F20F0261701
:102CB0003707480730F4621B730B840B2029312936
:102CC0004A2BA69517940794202531254A2758F7B3
:102CD000660F771F881F20F026173707480730F444
:102CE000620B730B840B200D311D411DA09581F7E4
:102CF000B901842F9158880F9695879508959F3F25
:102D000031F0915020F4879577956795B795880FA6
:102D1000911D9695879597F9089591505040660FAB
:102D2000771F881FD2F708959F938F937F936F9398
:102D3000FF93EF939B01AC010E94C415EF91FF91AB
:102D40000E94A8162F913F914F915F910C94C4154A
:102D5000DF93CF931F930F93FF92EF92DF927B014C
:102D60008C01689406C0DA2EEF010E94D715FE018F
:102D7000E894A5912591359145915591A6F3EF01E0
:102D80000E94C713FE019701A801DA9469F7DF904A
:102D9000EF90FF900F911F91CF91DF91089597FBD6
:102DA000072E16F4009407D077FD09D00E942C1747
:102DB00007FC05D03EF4909581959F4F089570953E
:102DC00061957F4F0895A1E21A2EAA1BBB1BFD013E
:102DD0000DC0AA1FBB1FEE1FFF1FA217B307E407FA
:102DE000F50720F0A21BB30BE40BF50B661F771F52
:102DF000881F991F1A9469F7609570958095909532
:102E00009B01AC01BD01CF010895052E97FB1EF477
:102E100000940E941C1757FD07D00E94E31607FC80
:102E200003D04EF40C941C17509540953095219585
:102E30003F4F4F4F5F4F08959095809570956195E6
:102E40007F4F8F4F9F4F0895B7FF0C9446170E94F6
:102E50004617821B930B0895AA1BBB1B51E107C0A9
:102E6000AA1FBB1FA617B70710F0A61BB70B881F1A
:102E7000991F5A95A9F780959095BC01CD010895A9
:102E8000EE0FFF1F0590F491E02D09940E94511759
:102E9000A59F900DB49F900DA49F800D911D1124AE
:102EA0000895A29FB001B39FC001A39F700D811D23
:102EB0001124911DB29F700D811D1124911D089543
:0E2EC00081E090E0F8940C946517F894FFCF31
:102ECE0002000000003F050000000000030C30C0AF
:102EDE000000000007017D049F004E01D000AE00EF
:022EEE00C20020
:00000001FF
